{
  "_format": "hh-sol-artifact-1",
  "contractName": "CryptoZombiesRanking",
  "sourceName": "contracts/cryptoZombiesRanking/CryptoZombiesRanking.sol",
  "abi": [
    {
      "inputs": [
        {
          "internalType": "address",
          "name": "_cryptoZombiesContractAddress",
          "type": "address"
        }
      ],
      "stateMutability": "nonpayable",
      "type": "constructor"
    },
    {
      "anonymous": false,
      "inputs": [
        {
          "indexed": true,
          "internalType": "address",
          "name": "previousOwner",
          "type": "address"
        },
        {
          "indexed": true,
          "internalType": "address",
          "name": "newOwner",
          "type": "address"
        }
      ],
      "name": "OwnershipTransferred",
      "type": "event"
    },
    {
      "inputs": [],
      "name": "getRanking",
      "outputs": [
        {
          "components": [
            {
              "internalType": "address",
              "name": "account",
              "type": "address"
            },
            {
              "internalType": "uint256",
              "name": "position",
              "type": "uint256"
            },
            {
              "internalType": "uint256",
              "name": "score",
              "type": "uint256"
            },
            {
              "internalType": "uint256",
              "name": "zombieCount",
              "type": "uint256"
            },
            {
              "internalType": "uint16",
              "name": "winCount",
              "type": "uint16"
            },
            {
              "internalType": "uint16",
              "name": "lossCount",
              "type": "uint16"
            }
          ],
          "internalType": "struct CryptoZombiesRanking.Ranking[]",
          "name": "",
          "type": "tuple[]"
        }
      ],
      "stateMutability": "view",
      "type": "function"
    },
    {
      "inputs": [],
      "name": "isOwner",
      "outputs": [
        {
          "internalType": "bool",
          "name": "",
          "type": "bool"
        }
      ],
      "stateMutability": "view",
      "type": "function"
    },
    {
      "inputs": [],
      "name": "owner",
      "outputs": [
        {
          "internalType": "address",
          "name": "",
          "type": "address"
        }
      ],
      "stateMutability": "view",
      "type": "function"
    },
    {
      "inputs": [],
      "name": "renounceOwnership",
      "outputs": [],
      "stateMutability": "nonpayable",
      "type": "function"
    },
    {
      "inputs": [
        {
          "internalType": "address",
          "name": "_address",
          "type": "address"
        }
      ],
      "name": "setCryptoZombiesContractAddress",
      "outputs": [],
      "stateMutability": "nonpayable",
      "type": "function"
    },
    {
      "inputs": [
        {
          "internalType": "address",
          "name": "newOwner",
          "type": "address"
        }
      ],
      "name": "transferOwnership",
      "outputs": [],
      "stateMutability": "nonpayable",
      "type": "function"
    }
  ],
  "bytecode": "0x608060405234801561001057600080fd5b506040516116c93803806116c983398181016040528101906100329190610197565b336000806101000a81548173ffffffffffffffffffffffffffffffffffffffff021916908373ffffffffffffffffffffffffffffffffffffffff16021790555060008054906101000a900473ffffffffffffffffffffffffffffffffffffffff1673ffffffffffffffffffffffffffffffffffffffff16600073ffffffffffffffffffffffffffffffffffffffff167f8be0079c531659141344cd1fd0a4f28419497f9722a3daafe3b4186f6b6457e060405160405180910390a380600160006101000a81548173ffffffffffffffffffffffffffffffffffffffff021916908373ffffffffffffffffffffffffffffffffffffffff160217905550506101c4565b600080fd5b600073ffffffffffffffffffffffffffffffffffffffff82169050919050565b600061016482610139565b9050919050565b61017481610159565b811461017f57600080fd5b50565b6000815190506101918161016b565b92915050565b6000602082840312156101ad576101ac610134565b5b60006101bb84828501610182565b91505092915050565b6114f6806101d36000396000f3fe608060405234801561001057600080fd5b50600436106100625760003560e01c80631398bbf714610067578063715018a6146100855780638da5cb5b1461008f5780638f32d59b146100ad578063f2fde38b146100cb578063f4897ac3146100e7575b600080fd5b61006f610103565b60405161007c9190610ce1565b60405180910390f35b61008d610737565b005b610097610806565b6040516100a49190610d12565b60405180910390f35b6100b561082f565b6040516100c29190610d48565b60405180910390f35b6100e560048036038101906100e09190610da3565b610886565b005b61010160048036038101906100fc9190610da3565b6108a3565b005b606060003390506000600160009054906101000a900473ffffffffffffffffffffffffffffffffffffffff1673ffffffffffffffffffffffffffffffffffffffff16638a48ac036040518163ffffffff1660e01b8152600401600060405180830381865afa158015610179573d6000803e3d6000fd5b505050506040513d6000823e3d601f19601f820116820180604052508101906101a29190610f3e565b905060008151905060008167ffffffffffffffff8111156101c6576101c5610de6565b5b6040519080825280602002602001820160405280156101ff57816020015b6101ec610aec565b8152602001906001900390816101e45790505b50905060006014905060005b8381101561048c57600085828151811061022857610227610f87565b5b602002602001015190506000600160009054906101000a900473ffffffffffffffffffffffffffffffffffffffff1673ffffffffffffffffffffffffffffffffffffffff16634412e104836040518263ffffffff1660e01b815260040161028f9190610d12565b600060405180830381865afa1580156102ac573d6000803e3d6000fd5b505050506040513d6000823e3d601f19601f820116820180604052508101906102d591906110a5565b90506000806000805b845181101561040f57600160009054906101000a900473ffffffffffffffffffffffffffffffffffffffff1673ffffffffffffffffffffffffffffffffffffffff16632052465e86838151811061033857610337610f87565b5b60200260200101516040518263ffffffff1660e01b815260040161035c91906110fd565b600060405180830381865afa158015610379573d6000803e3d6000fd5b505050506040513d6000823e3d601f19601f820116820180604052508101906103a29190611250565b90919293949596979850909192939495969750909192939495509091929394509091929350909192505080945081955082965050505083846103e4919061137a565b935082836103f291906113ae565b9250818261040091906113ae565b915080806001019150506102de565b506040518060c001604052808673ffffffffffffffffffffffffffffffffffffffff168152602001878152602001848152602001855181526020018361ffff1681526020018261ffff1681525088878151811061046f5761046e610f87565b5b60200260200101819052505050505050808060010191505061020b565b50610496826108f8565b50808251116104ac578195505050505050610734565b60008167ffffffffffffffff8111156104c8576104c7610de6565b5b60405190808252806020026020018201604052801561050157816020015b6104ee610aec565b8152602001906001900390816104e65790505b5090506000806002846105149190611413565b905060005b818110156105735785818151811061053457610533610f87565b5b602002602001015184848061054890611444565b95508151811061055b5761055a610f87565b5b60200260200101819052508080600101915050610519565b506000600185610583919061137a565b8761058e919061148c565b905060008190505b87811080156105a457508584105b15610601578681815181106105bc576105bb610f87565b5b60200260200101518585806105d090611444565b9650815181106105e3576105e2610f87565b5b602002602001018190525080806105f990611444565b915050610596565b506000805b84811015610675578a73ffffffffffffffffffffffffffffffffffffffff1686828151811061063857610637610f87565b5b60200260200101516000015173ffffffffffffffffffffffffffffffffffffffff16036106685760019150610675565b8080600101915050610606565b50806107265760005b8751811015610724578a73ffffffffffffffffffffffffffffffffffffffff168882815181106106b1576106b0610f87565b5b60200260200101516000015173ffffffffffffffffffffffffffffffffffffffff1603610717578781815181106106eb576106ea610f87565b5b602002602001015186600a8151811061070757610706610f87565b5b6020026020010181905250610724565b808060010191505061067e565b505b849a50505050505050505050505b90565b61073f61082f565b61074857600080fd5b600073ffffffffffffffffffffffffffffffffffffffff1660008054906101000a900473ffffffffffffffffffffffffffffffffffffffff1673ffffffffffffffffffffffffffffffffffffffff167f8be0079c531659141344cd1fd0a4f28419497f9722a3daafe3b4186f6b6457e060405160405180910390a360008060006101000a81548173ffffffffffffffffffffffffffffffffffffffff021916908373ffffffffffffffffffffffffffffffffffffffff160217905550565b60008060009054906101000a900473ffffffffffffffffffffffffffffffffffffffff16905090565b60008060009054906101000a900473ffffffffffffffffffffffffffffffffffffffff1673ffffffffffffffffffffffffffffffffffffffff163373ffffffffffffffffffffffffffffffffffffffff1614905090565b61088e61082f565b61089757600080fd5b6108a0816109f6565b50565b6108ab61082f565b6108b457600080fd5b80600160006101000a81548173ffffffffffffffffffffffffffffffffffffffff021916908373ffffffffffffffffffffffffffffffffffffffff16021790555050565b60606000600190505b82518110156109ed5760005b818110156109df5783818151811061092857610927610f87565b5b60200260200101516040015184838151811061094757610946610f87565b5b60200260200101516040015110156109d257600084838151811061096e5761096d610f87565b5b6020026020010151905084828151811061098b5761098a610f87565b5b60200260200101518584815181106109a6576109a5610f87565b5b6020026020010181905250808583815181106109c5576109c4610f87565b5b6020026020010181905250505b808060010191505061090d565b508080600101915050610901565b50819050919050565b600073ffffffffffffffffffffffffffffffffffffffff168173ffffffffffffffffffffffffffffffffffffffff1603610a2f57600080fd5b8073ffffffffffffffffffffffffffffffffffffffff1660008054906101000a900473ffffffffffffffffffffffffffffffffffffffff1673ffffffffffffffffffffffffffffffffffffffff167f8be0079c531659141344cd1fd0a4f28419497f9722a3daafe3b4186f6b6457e060405160405180910390a3806000806101000a81548173ffffffffffffffffffffffffffffffffffffffff021916908373ffffffffffffffffffffffffffffffffffffffff16021790555050565b6040518060c00160405280600073ffffffffffffffffffffffffffffffffffffffff168152602001600081526020016000815260200160008152602001600061ffff168152602001600061ffff1681525090565b600081519050919050565b600082825260208201905092915050565b6000819050602082019050919050565b600073ffffffffffffffffffffffffffffffffffffffff82169050919050565b6000610b9782610b6c565b9050919050565b610ba781610b8c565b82525050565b6000819050919050565b610bc081610bad565b82525050565b600061ffff82169050919050565b610bdd81610bc6565b82525050565b60c082016000820151610bf96000850182610b9e565b506020820151610c0c6020850182610bb7565b506040820151610c1f6040850182610bb7565b506060820151610c326060850182610bb7565b506080820151610c456080850182610bd4565b5060a0820151610c5860a0850182610bd4565b50505050565b6000610c6a8383610be3565b60c08301905092915050565b6000602082019050919050565b6000610c8e82610b40565b610c988185610b4b565b9350610ca383610b5c565b8060005b83811015610cd4578151610cbb8882610c5e565b9750610cc683610c76565b925050600181019050610ca7565b5085935050505092915050565b60006020820190508181036000830152610cfb8184610c83565b905092915050565b610d0c81610b8c565b82525050565b6000602082019050610d276000830184610d03565b92915050565b60008115159050919050565b610d4281610d2d565b82525050565b6000602082019050610d5d6000830184610d39565b92915050565b6000604051905090565b600080fd5b600080fd5b610d8081610b8c565b8114610d8b57600080fd5b50565b600081359050610d9d81610d77565b92915050565b600060208284031215610db957610db8610d6d565b5b6000610dc784828501610d8e565b91505092915050565b600080fd5b6000601f19601f8301169050919050565b7f4e487b7100000000000000000000000000000000000000000000000000000000600052604160045260246000fd5b610e1e82610dd5565b810181811067ffffffffffffffff82111715610e3d57610e3c610de6565b5b80604052505050565b6000610e50610d63565b9050610e5c8282610e15565b919050565b600067ffffffffffffffff821115610e7c57610e7b610de6565b5b602082029050602081019050919050565b600080fd5b600081519050610ea181610d77565b92915050565b6000610eba610eb584610e61565b610e46565b90508083825260208201905060208402830185811115610edd57610edc610e8d565b5b835b81811015610f065780610ef28882610e92565b845260208401935050602081019050610edf565b5050509392505050565b600082601f830112610f2557610f24610dd0565b5b8151610f35848260208601610ea7565b91505092915050565b600060208284031215610f5457610f53610d6d565b5b600082015167ffffffffffffffff811115610f7257610f71610d72565b5b610f7e84828501610f10565b91505092915050565b7f4e487b7100000000000000000000000000000000000000000000000000000000600052603260045260246000fd5b600067ffffffffffffffff821115610fd157610fd0610de6565b5b602082029050602081019050919050565b610feb81610bad565b8114610ff657600080fd5b50565b60008151905061100881610fe2565b92915050565b600061102161101c84610fb6565b610e46565b9050808382526020820190506020840283018581111561104457611043610e8d565b5b835b8181101561106d57806110598882610ff9565b845260208401935050602081019050611046565b5050509392505050565b600082601f83011261108c5761108b610dd0565b5b815161109c84826020860161100e565b91505092915050565b6000602082840312156110bb576110ba610d6d565b5b600082015167ffffffffffffffff8111156110d9576110d8610d72565b5b6110e584828501611077565b91505092915050565b6110f781610bad565b82525050565b600060208201905061111260008301846110ee565b92915050565b600080fd5b600067ffffffffffffffff82111561113857611137610de6565b5b61114182610dd5565b9050602081019050919050565b60005b8381101561116c578082015181840152602081019050611151565b60008484015250505050565b600061118b6111868461111d565b610e46565b9050828152602081018484840111156111a7576111a6611118565b5b6111b284828561114e565b509392505050565b600082601f8301126111cf576111ce610dd0565b5b81516111df848260208601611178565b91505092915050565b600063ffffffff82169050919050565b611201816111e8565b811461120c57600080fd5b50565b60008151905061121e816111f8565b92915050565b61122d81610bc6565b811461123857600080fd5b50565b60008151905061124a81611224565b92915050565b6000806000806000806000806000806101408b8d03121561127457611273610d6d565b5b60008b015167ffffffffffffffff81111561129257611291610d72565b5b61129e8d828e016111ba565b9a505060206112af8d828e01610ff9565b99505060406112c08d828e01610ff9565b98505060606112d18d828e0161120f565b97505060806112e28d828e0161120f565b96505060a06112f38d828e0161120f565b95505060c06113048d828e0161120f565b94505060e06113158d828e0161123b565b9350506101006113278d828e0161123b565b9250506101206113398d828e0161123b565b9150509295989b9194979a5092959850565b7f4e487b7100000000000000000000000000000000000000000000000000000000600052601160045260246000fd5b600061138582610bad565b915061139083610bad565b92508282019050808211156113a8576113a761134b565b5b92915050565b60006113b982610bc6565b91506113c483610bc6565b9250828201905061ffff8111156113de576113dd61134b565b5b92915050565b7f4e487b7100000000000000000000000000000000000000000000000000000000600052601260045260246000fd5b600061141e82610bad565b915061142983610bad565b925082611439576114386113e4565b5b828204905092915050565b600061144f82610bad565b91507fffffffffffffffffffffffffffffffffffffffffffffffffffffffffffffffff82036114815761148061134b565b5b600182019050919050565b600061149782610bad565b91506114a283610bad565b92508282039050818111156114ba576114b961134b565b5b9291505056fea2646970667358221220868d76d1f72a007553eaf9430988bde855b518dfab9ef5f6e5434aa66e3f646964736f6c634300081c0033",
  "linkReferences": {},
  "deployedLinkReferences": {}
}