{
  "_format": "hh-sol-artifact-1",
  "contractName": "CryptozombiesBattle",
  "sourceName": "contracts/cryptozombiesBattle/CryptozombiesBattle.sol",
  "abi": [
    {
      "anonymous": false,
      "inputs": [
        {
          "indexed": true,
          "internalType": "address",
          "name": "_owner",
          "type": "address"
        },
        {
          "indexed": true,
          "internalType": "address",
          "name": "_approved",
          "type": "address"
        },
        {
          "indexed": true,
          "internalType": "uint256",
          "name": "_tokenId",
          "type": "uint256"
        }
      ],
      "name": "Approval",
      "type": "event"
    },
    {
      "anonymous": false,
      "inputs": [
        {
          "indexed": true,
          "internalType": "address",
          "name": "from",
          "type": "address"
        },
        {
          "indexed": true,
          "internalType": "uint256",
          "name": "zombieId",
          "type": "uint256"
        },
        {
          "indexed": false,
          "internalType": "string",
          "name": "name",
          "type": "string"
        },
        {
          "indexed": false,
          "internalType": "uint256",
          "name": "dna",
          "type": "uint256"
        }
      ],
      "name": "NewZombie",
      "type": "event"
    },
    {
      "anonymous": false,
      "inputs": [
        {
          "indexed": true,
          "internalType": "address",
          "name": "previousOwner",
          "type": "address"
        },
        {
          "indexed": true,
          "internalType": "address",
          "name": "newOwner",
          "type": "address"
        }
      ],
      "name": "OwnershipTransferred",
      "type": "event"
    },
    {
      "anonymous": false,
      "inputs": [
        {
          "indexed": true,
          "internalType": "address",
          "name": "_from",
          "type": "address"
        },
        {
          "indexed": true,
          "internalType": "address",
          "name": "_to",
          "type": "address"
        },
        {
          "indexed": true,
          "internalType": "uint256",
          "name": "_tokenId",
          "type": "uint256"
        }
      ],
      "name": "Transfer",
      "type": "event"
    },
    {
      "anonymous": false,
      "inputs": [
        {
          "indexed": true,
          "internalType": "address",
          "name": "from",
          "type": "address"
        },
        {
          "indexed": false,
          "internalType": "uint256",
          "name": "fromId",
          "type": "uint256"
        },
        {
          "indexed": false,
          "internalType": "uint256",
          "name": "targetId",
          "type": "uint256"
        }
      ],
      "name": "onAttackDefeat",
      "type": "event"
    },
    {
      "anonymous": false,
      "inputs": [
        {
          "indexed": true,
          "internalType": "address",
          "name": "from",
          "type": "address"
        },
        {
          "indexed": false,
          "internalType": "uint256",
          "name": "fromId",
          "type": "uint256"
        },
        {
          "indexed": false,
          "internalType": "uint256",
          "name": "targetId",
          "type": "uint256"
        },
        {
          "indexed": false,
          "internalType": "uint256",
          "name": "newDna",
          "type": "uint256"
        }
      ],
      "name": "onAttackVitory",
      "type": "event"
    },
    {
      "anonymous": false,
      "inputs": [
        {
          "indexed": true,
          "internalType": "address",
          "name": "from",
          "type": "address"
        },
        {
          "indexed": false,
          "internalType": "uint256",
          "name": "fromDna",
          "type": "uint256"
        },
        {
          "indexed": false,
          "internalType": "uint256",
          "name": "targetDna",
          "type": "uint256"
        },
        {
          "indexed": false,
          "internalType": "uint256",
          "name": "_kittyId",
          "type": "uint256"
        },
        {
          "indexed": false,
          "internalType": "uint256",
          "name": "newDna",
          "type": "uint256"
        }
      ],
      "name": "onFeed",
      "type": "event"
    },
    {
      "inputs": [
        {
          "internalType": "address",
          "name": "_account",
          "type": "address"
        }
      ],
      "name": "accountAdd",
      "outputs": [],
      "stateMutability": "nonpayable",
      "type": "function"
    },
    {
      "inputs": [
        {
          "internalType": "uint256",
          "name": "",
          "type": "uint256"
        }
      ],
      "name": "accounts",
      "outputs": [
        {
          "internalType": "address",
          "name": "",
          "type": "address"
        }
      ],
      "stateMutability": "view",
      "type": "function"
    },
    {
      "inputs": [
        {
          "internalType": "address",
          "name": "_approved",
          "type": "address"
        },
        {
          "internalType": "uint256",
          "name": "_tokenId",
          "type": "uint256"
        }
      ],
      "name": "approve",
      "outputs": [],
      "stateMutability": "payable",
      "type": "function"
    },
    {
      "inputs": [
        {
          "internalType": "uint256",
          "name": "_zombieId",
          "type": "uint256"
        },
        {
          "internalType": "uint256",
          "name": "_targetId",
          "type": "uint256"
        }
      ],
      "name": "attack",
      "outputs": [],
      "stateMutability": "nonpayable",
      "type": "function"
    },
    {
      "inputs": [],
      "name": "balance",
      "outputs": [
        {
          "internalType": "uint256",
          "name": "",
          "type": "uint256"
        }
      ],
      "stateMutability": "view",
      "type": "function"
    },
    {
      "inputs": [
        {
          "internalType": "address",
          "name": "_owner",
          "type": "address"
        }
      ],
      "name": "balanceOf",
      "outputs": [
        {
          "internalType": "uint256",
          "name": "",
          "type": "uint256"
        }
      ],
      "stateMutability": "view",
      "type": "function"
    },
    {
      "inputs": [],
      "name": "baseUrlTokenURI",
      "outputs": [
        {
          "internalType": "string",
          "name": "",
          "type": "string"
        }
      ],
      "stateMutability": "view",
      "type": "function"
    },
    {
      "inputs": [],
      "name": "changeDNAFee",
      "outputs": [
        {
          "internalType": "uint256",
          "name": "",
          "type": "uint256"
        }
      ],
      "stateMutability": "view",
      "type": "function"
    },
    {
      "inputs": [
        {
          "internalType": "uint256",
          "name": "_zombieId",
          "type": "uint256"
        },
        {
          "internalType": "uint256",
          "name": "_newDna",
          "type": "uint256"
        }
      ],
      "name": "changeDna",
      "outputs": [],
      "stateMutability": "payable",
      "type": "function"
    },
    {
      "inputs": [
        {
          "internalType": "uint256",
          "name": "_zombieId",
          "type": "uint256"
        },
        {
          "internalType": "string",
          "name": "_newName",
          "type": "string"
        }
      ],
      "name": "changeName",
      "outputs": [],
      "stateMutability": "payable",
      "type": "function"
    },
    {
      "inputs": [],
      "name": "changeNameFee",
      "outputs": [
        {
          "internalType": "uint256",
          "name": "",
          "type": "uint256"
        }
      ],
      "stateMutability": "view",
      "type": "function"
    },
    {
      "inputs": [],
      "name": "cooldownTimeAttack",
      "outputs": [
        {
          "internalType": "uint256",
          "name": "",
          "type": "uint256"
        }
      ],
      "stateMutability": "view",
      "type": "function"
    },
    {
      "inputs": [],
      "name": "cooldownTimeFeeding",
      "outputs": [
        {
          "internalType": "uint256",
          "name": "",
          "type": "uint256"
        }
      ],
      "stateMutability": "view",
      "type": "function"
    },
    {
      "inputs": [
        {
          "internalType": "uint256",
          "name": "_zombieId",
          "type": "uint256"
        },
        {
          "internalType": "uint256",
          "name": "_kittyDna",
          "type": "uint256"
        },
        {
          "internalType": "uint256",
          "name": "_kittyId",
          "type": "uint256"
        }
      ],
      "name": "feedOnKitty",
      "outputs": [],
      "stateMutability": "nonpayable",
      "type": "function"
    },
    {
      "inputs": [],
      "name": "getAccounts",
      "outputs": [
        {
          "internalType": "address[]",
          "name": "",
          "type": "address[]"
        }
      ],
      "stateMutability": "view",
      "type": "function"
    },
    {
      "inputs": [
        {
          "internalType": "uint256",
          "name": "_page",
          "type": "uint256"
        },
        {
          "internalType": "uint256",
          "name": "_pageSize",
          "type": "uint256"
        }
      ],
      "name": "getAccountsPaginated",
      "outputs": [
        {
          "internalType": "address[]",
          "name": "",
          "type": "address[]"
        }
      ],
      "stateMutability": "view",
      "type": "function"
    },
    {
      "inputs": [],
      "name": "getAccountsTotal",
      "outputs": [
        {
          "internalType": "uint256",
          "name": "",
          "type": "uint256"
        }
      ],
      "stateMutability": "view",
      "type": "function"
    },
    {
      "inputs": [
        {
          "internalType": "address",
          "name": "_owner",
          "type": "address"
        }
      ],
      "name": "getZombiesByOwner",
      "outputs": [
        {
          "internalType": "uint256[]",
          "name": "",
          "type": "uint256[]"
        }
      ],
      "stateMutability": "view",
      "type": "function"
    },
    {
      "inputs": [
        {
          "internalType": "address",
          "name": "_owner",
          "type": "address"
        },
        {
          "internalType": "uint256",
          "name": "_page",
          "type": "uint256"
        },
        {
          "internalType": "uint256",
          "name": "_pageSize",
          "type": "uint256"
        }
      ],
      "name": "getZombiesByOwnerPaginated",
      "outputs": [
        {
          "internalType": "uint256[]",
          "name": "",
          "type": "uint256[]"
        }
      ],
      "stateMutability": "view",
      "type": "function"
    },
    {
      "inputs": [],
      "name": "isOwner",
      "outputs": [
        {
          "internalType": "bool",
          "name": "",
          "type": "bool"
        }
      ],
      "stateMutability": "view",
      "type": "function"
    },
    {
      "inputs": [
        {
          "internalType": "uint256",
          "name": "_zombieId",
          "type": "uint256"
        }
      ],
      "name": "levelUp",
      "outputs": [],
      "stateMutability": "payable",
      "type": "function"
    },
    {
      "inputs": [],
      "name": "levelUpFee",
      "outputs": [
        {
          "internalType": "uint256",
          "name": "",
          "type": "uint256"
        }
      ],
      "stateMutability": "view",
      "type": "function"
    },
    {
      "inputs": [],
      "name": "merkleRoot",
      "outputs": [
        {
          "internalType": "bytes32",
          "name": "",
          "type": "bytes32"
        }
      ],
      "stateMutability": "view",
      "type": "function"
    },
    {
      "inputs": [
        {
          "internalType": "string",
          "name": "_name",
          "type": "string"
        }
      ],
      "name": "mint",
      "outputs": [],
      "stateMutability": "payable",
      "type": "function"
    },
    {
      "inputs": [],
      "name": "mintFee",
      "outputs": [
        {
          "internalType": "uint256",
          "name": "",
          "type": "uint256"
        }
      ],
      "stateMutability": "view",
      "type": "function"
    },
    {
      "inputs": [
        {
          "internalType": "bytes32[]",
          "name": "proof",
          "type": "bytes32[]"
        }
      ],
      "name": "mintFree",
      "outputs": [],
      "stateMutability": "nonpayable",
      "type": "function"
    },
    {
      "inputs": [],
      "name": "mintFreeLimit",
      "outputs": [
        {
          "internalType": "uint256",
          "name": "",
          "type": "uint256"
        }
      ],
      "stateMutability": "view",
      "type": "function"
    },
    {
      "inputs": [],
      "name": "mintedFreeCount",
      "outputs": [
        {
          "internalType": "uint256",
          "name": "",
          "type": "uint256"
        }
      ],
      "stateMutability": "view",
      "type": "function"
    },
    {
      "inputs": [],
      "name": "owner",
      "outputs": [
        {
          "internalType": "address",
          "name": "",
          "type": "address"
        }
      ],
      "stateMutability": "view",
      "type": "function"
    },
    {
      "inputs": [
        {
          "internalType": "uint256",
          "name": "_tokenId",
          "type": "uint256"
        }
      ],
      "name": "ownerOf",
      "outputs": [
        {
          "internalType": "address",
          "name": "",
          "type": "address"
        }
      ],
      "stateMutability": "view",
      "type": "function"
    },
    {
      "inputs": [],
      "name": "renounceOwnership",
      "outputs": [],
      "stateMutability": "nonpayable",
      "type": "function"
    },
    {
      "inputs": [
        {
          "internalType": "string",
          "name": "_baseUrlTokenURI",
          "type": "string"
        }
      ],
      "name": "setBaseUrlTokenURI",
      "outputs": [],
      "stateMutability": "nonpayable",
      "type": "function"
    },
    {
      "inputs": [
        {
          "internalType": "uint256",
          "name": "_fee",
          "type": "uint256"
        }
      ],
      "name": "setChangeDNAFee",
      "outputs": [],
      "stateMutability": "nonpayable",
      "type": "function"
    },
    {
      "inputs": [
        {
          "internalType": "uint256",
          "name": "_fee",
          "type": "uint256"
        }
      ],
      "name": "setChangeNameFee",
      "outputs": [],
      "stateMutability": "nonpayable",
      "type": "function"
    },
    {
      "inputs": [
        {
          "internalType": "uint256",
          "name": "_cooldownTime",
          "type": "uint256"
        }
      ],
      "name": "setCooldownTimeAttack",
      "outputs": [],
      "stateMutability": "nonpayable",
      "type": "function"
    },
    {
      "inputs": [
        {
          "internalType": "uint256",
          "name": "_cooldownTime",
          "type": "uint256"
        }
      ],
      "name": "setCooldownTimeFeeding",
      "outputs": [],
      "stateMutability": "nonpayable",
      "type": "function"
    },
    {
      "inputs": [
        {
          "internalType": "uint256",
          "name": "_fee",
          "type": "uint256"
        }
      ],
      "name": "setLevelUpFee",
      "outputs": [],
      "stateMutability": "nonpayable",
      "type": "function"
    },
    {
      "inputs": [
        {
          "internalType": "bytes32",
          "name": "_root",
          "type": "bytes32"
        }
      ],
      "name": "setMerkleRoot",
      "outputs": [],
      "stateMutability": "nonpayable",
      "type": "function"
    },
    {
      "inputs": [
        {
          "internalType": "uint256",
          "name": "_mintFee",
          "type": "uint256"
        }
      ],
      "name": "setMintFee",
      "outputs": [],
      "stateMutability": "nonpayable",
      "type": "function"
    },
    {
      "inputs": [
        {
          "internalType": "uint8",
          "name": "_totalAttackVictoryToGetReward",
          "type": "uint8"
        }
      ],
      "name": "setTotalAttackVictoryToGetReward",
      "outputs": [],
      "stateMutability": "nonpayable",
      "type": "function"
    },
    {
      "inputs": [
        {
          "internalType": "uint8",
          "name": "_totalFedToGetReward",
          "type": "uint8"
        }
      ],
      "name": "setTotalFedToGetReward",
      "outputs": [],
      "stateMutability": "nonpayable",
      "type": "function"
    },
    {
      "inputs": [
        {
          "internalType": "uint256",
          "name": "_tokenId",
          "type": "uint256"
        }
      ],
      "name": "tokenURI",
      "outputs": [
        {
          "internalType": "string",
          "name": "",
          "type": "string"
        }
      ],
      "stateMutability": "view",
      "type": "function"
    },
    {
      "inputs": [],
      "name": "totalAttackVictoryToGetReward",
      "outputs": [
        {
          "internalType": "uint8",
          "name": "",
          "type": "uint8"
        }
      ],
      "stateMutability": "view",
      "type": "function"
    },
    {
      "inputs": [],
      "name": "totalFedToGetReward",
      "outputs": [
        {
          "internalType": "uint8",
          "name": "",
          "type": "uint8"
        }
      ],
      "stateMutability": "view",
      "type": "function"
    },
    {
      "inputs": [
        {
          "internalType": "address",
          "name": "_from",
          "type": "address"
        },
        {
          "internalType": "address",
          "name": "_to",
          "type": "address"
        },
        {
          "internalType": "uint256",
          "name": "_tokenId",
          "type": "uint256"
        }
      ],
      "name": "transferFrom",
      "outputs": [],
      "stateMutability": "payable",
      "type": "function"
    },
    {
      "inputs": [
        {
          "internalType": "address",
          "name": "newOwner",
          "type": "address"
        }
      ],
      "name": "transferOwnership",
      "outputs": [],
      "stateMutability": "nonpayable",
      "type": "function"
    },
    {
      "inputs": [],
      "name": "withdraw",
      "outputs": [],
      "stateMutability": "nonpayable",
      "type": "function"
    },
    {
      "inputs": [
        {
          "internalType": "uint256",
          "name": "",
          "type": "uint256"
        }
      ],
      "name": "zombieToOwner",
      "outputs": [
        {
          "internalType": "address",
          "name": "",
          "type": "address"
        }
      ],
      "stateMutability": "view",
      "type": "function"
    },
    {
      "inputs": [
        {
          "internalType": "uint256",
          "name": "",
          "type": "uint256"
        }
      ],
      "name": "zombies",
      "outputs": [
        {
          "internalType": "string",
          "name": "name",
          "type": "string"
        },
        {
          "internalType": "uint256",
          "name": "dna",
          "type": "uint256"
        },
        {
          "internalType": "uint256",
          "name": "score",
          "type": "uint256"
        },
        {
          "internalType": "uint32",
          "name": "birthTime",
          "type": "uint32"
        },
        {
          "internalType": "uint32",
          "name": "level",
          "type": "uint32"
        },
        {
          "internalType": "uint32",
          "name": "attackReadyTime",
          "type": "uint32"
        },
        {
          "internalType": "uint32",
          "name": "fedReadyTime",
          "type": "uint32"
        },
        {
          "internalType": "uint16",
          "name": "winCount",
          "type": "uint16"
        },
        {
          "internalType": "uint16",
          "name": "lossCount",
          "type": "uint16"
        },
        {
          "internalType": "uint16",
          "name": "fedCount",
          "type": "uint16"
        }
      ],
      "stateMutability": "view",
      "type": "function"
    }
  ],
  "bytecode": "0x608060405260006001556010600255600254600a61001d9190610304565b6003556101f46004556000600555660aa87bee538000600655603c600755603c6008556007600960006101000a81548160ff021916908360ff160217905550600a600960016101000a81548160ff021916908360ff16021790555066038d7ea4c6800060105566071afd498d0000601155660e35fa931a00006012556000601355603260145560405180606001604052806021815260200161588660219139601590816100ca9190610595565b503480156100d757600080fd5b50336000806101000a81548173ffffffffffffffffffffffffffffffffffffffff021916908373ffffffffffffffffffffffffffffffffffffffff16021790555060008054906101000a900473ffffffffffffffffffffffffffffffffffffffff1673ffffffffffffffffffffffffffffffffffffffff16600073ffffffffffffffffffffffffffffffffffffffff167f8be0079c531659141344cd1fd0a4f28419497f9722a3daafe3b4186f6b6457e060405160405180910390a3610667565b7f4e487b7100000000000000000000000000000000000000000000000000000000600052601160045260246000fd5b60008160011c9050919050565b6000808291508390505b600185111561021e578086048111156101fa576101f9610198565b5b60018516156102095780820291505b8081029050610217856101c7565b94506101de565b94509492505050565b60008261023757600190506102f3565b8161024557600090506102f3565b816001811461025b576002811461026557610294565b60019150506102f3565b60ff84111561027757610276610198565b5b8360020a91508482111561028e5761028d610198565b5b506102f3565b5060208310610133831016604e8410600b84101617156102c95782820a9050838111156102c4576102c3610198565b5b6102f3565b6102d684848460016101d4565b925090508184048111156102ed576102ec610198565b5b81810290505b9392505050565b6000819050919050565b600061030f826102fa565b915061031a836102fa565b92506103477fffffffffffffffffffffffffffffffffffffffffffffffffffffffffffffffff8484610227565b905092915050565b600081519050919050565b7f4e487b7100000000000000000000000000000000000000000000000000000000600052604160045260246000fd5b7f4e487b7100000000000000000000000000000000000000000000000000000000600052602260045260246000fd5b600060028204905060018216806103d057607f821691505b6020821081036103e3576103e2610389565b5b50919050565b60008190508160005260206000209050919050565b60006020601f8301049050919050565b600082821b905092915050565b60006008830261044b7fffffffffffffffffffffffffffffffffffffffffffffffffffffffffffffffff8261040e565b610455868361040e565b95508019841693508086168417925050509392505050565b6000819050919050565b600061049261048d610488846102fa565b61046d565b6102fa565b9050919050565b6000819050919050565b6104ac83610477565b6104c06104b882610499565b84845461041b565b825550505050565b600090565b6104d56104c8565b6104e08184846104a3565b505050565b5b81811015610504576104f96000826104cd565b6001810190506104e6565b5050565b601f8211156105495761051a816103e9565b610523846103fe565b81016020851015610532578190505b61054661053e856103fe565b8301826104e5565b50505b505050565b600082821c905092915050565b600061056c6000198460080261054e565b1980831691505092915050565b6000610585838361055b565b9150826002028217905092915050565b61059e8261034f565b67ffffffffffffffff8111156105b7576105b661035a565b5b6105c182546103b8565b6105cc828285610508565b600060209050601f8311600181146105ff57600084156105ed578287015190505b6105f78582610579565b86555061065f565b601f19841661060d866103e9565b60005b8281101561063557848901518255600182019150602085019450602081019050610610565b86831015610652578489015161064e601f89168261055b565b8355505b6001600288020188555050505b505050505050565b615210806106766000396000f3fe6080604052600436106102ae5760003560e01c806370f47cf911610175578063bcad1fde116100dc578063d72f761d11610095578063eddd0d9c1161006f578063eddd0d9c14610a41578063f2a40db814610a6a578063f2fde38b14610aa7578063f77de3a114610ad0576102ae565b8063d72f761d146109bf578063d85d3d27146109fc578063e1fa763814610a18576102ae565b8063bcad1fde146108be578063c39cbef1146108e9578063c4114b1214610905578063c859f31714610930578063c87b56dd14610959578063ccf670f814610996576102ae565b8063846e2c431161012e578063846e2c43146107be5780638a48ac03146107e75780638da5cb5b146108125780638f32d59b1461083d578063abbb1f2914610868578063b69ef8a814610893576102ae565b806370f47cf9146106d8578063715018a61461070157806374e729f71461071857806376c7d8ca146107435780637a8936c11461076c5780637cb6475914610795576102ae565b806349cee8e7116102195780635faf2880116101d25780635faf2880146105c55780636352211e146105e157806369c8e14c1461061e5780636be17f0e1461064757806370a082311461067057806370acbb63146106ad576102ae565b806349cee8e7146104b15780634a10565a146104dc5780634f09516614610507578063528b7b8f1461053257806354c92c5f1461056f5780635625d6d71461059a576102ae565b80632052465e1161026b5780632052465e1461039357806323b872dd146103d95780632eb4a7ab146103f55780633ccfd60b146104205780634412e104146104375780634674463b14610474576102ae565b8063021cbcae146102b357806306f33760146102de578063095ea7b3146103075780630ce90ec21461032357806313966db51461033f5780631919b7e61461036a575b600080fd5b3480156102bf57600080fd5b506102c8610af9565b6040516102d591906136f6565b60405180910390f35b3480156102ea57600080fd5b5061030560048036038101906103009190613751565b610aff565b005b610321600480360381019061031c9190613802565b610bc8565b005b61033d60048036038101906103389190613842565b610ce6565b005b34801561034b57600080fd5b50610354610e4d565b60405161036191906136f6565b60405180910390f35b34801561037657600080fd5b50610391600480360381019061038c91906139b5565b610e53565b005b34801561039f57600080fd5b506103ba60048036038101906103b59190613842565b610e77565b6040516103d09a99989796959493929190613ab9565b60405180910390f35b6103f360048036038101906103ee9190613b5c565b610fcd565b005b34801561040157600080fd5b5061040a6110e7565b6040516104179190613bc8565b60405180910390f35b34801561042c57600080fd5b506104356110ed565b005b34801561044357600080fd5b5061045e60048036038101906104599190613be3565b611154565b60405161046b9190613cce565b60405180910390f35b34801561048057600080fd5b5061049b60048036038101906104969190613cf0565b6112a1565b6040516104a89190613dee565b60405180910390f35b3480156104bd57600080fd5b506104c66113c4565b6040516104d39190613e2c565b60405180910390f35b3480156104e857600080fd5b506104f16113d7565b6040516104fe91906136f6565b60405180910390f35b34801561051357600080fd5b5061051c6113dd565b60405161052991906136f6565b60405180910390f35b34801561053e57600080fd5b5061055960048036038101906105549190613842565b6113e3565b6040516105669190613e56565b60405180910390f35b34801561057b57600080fd5b50610584611416565b6040516105919190613e71565b60405180910390f35b3480156105a657600080fd5b506105af6114a4565b6040516105bc91906136f6565b60405180910390f35b6105df60048036038101906105da9190613cf0565b6114aa565b005b3480156105ed57600080fd5b5061060860048036038101906106039190613842565b611665565b6040516106159190613e56565b60405180910390f35b34801561062a57600080fd5b5061064560048036038101906106409190613ebf565b6116a2565b005b34801561065357600080fd5b5061066e60048036038101906106699190613842565b6116d1565b005b34801561067c57600080fd5b5061069760048036038101906106929190613be3565b6116ec565b6040516106a491906136f6565b60405180910390f35b3480156106b957600080fd5b506106c2611735565b6040516106cf91906136f6565b60405180910390f35b3480156106e457600080fd5b506106ff60048036038101906106fa9190613842565b61173b565b005b34801561070d57600080fd5b50610716611756565b005b34801561072457600080fd5b5061072d611825565b60405161073a9190613e2c565b60405180910390f35b34801561074f57600080fd5b5061076a60048036038101906107659190613f4c565b611838565b005b34801561077857600080fd5b50610793600480360381019061078e9190613842565b611ab5565b005b3480156107a157600080fd5b506107bc60048036038101906107b79190613fc5565b611ad0565b005b3480156107ca57600080fd5b506107e560048036038101906107e09190613be3565b611aeb565b005b3480156107f357600080fd5b506107fc611af7565b6040516108099190613dee565b60405180910390f35b34801561081e57600080fd5b50610827611b85565b6040516108349190613e56565b60405180910390f35b34801561084957600080fd5b50610852611bae565b60405161085f919061400d565b60405180910390f35b34801561087457600080fd5b5061087d611c05565b60405161088a91906136f6565b60405180910390f35b34801561089f57600080fd5b506108a8611c12565b6040516108b591906136f6565b60405180910390f35b3480156108ca57600080fd5b506108d3611c2b565b6040516108e091906136f6565b60405180910390f35b61090360048036038101906108fe919061407e565b611c31565b005b34801561091157600080fd5b5061091a611df8565b60405161092791906136f6565b60405180910390f35b34801561093c57600080fd5b5061095760048036038101906109529190613ebf565b611dfe565b005b34801561096557600080fd5b50610980600480360381019061097b9190613842565b611e2d565b60405161098d9190613e71565b60405180910390f35b3480156109a257600080fd5b506109bd60048036038101906109b89190613842565b611e9b565b005b3480156109cb57600080fd5b506109e660048036038101906109e191906140de565b611eb6565b6040516109f39190613cce565b60405180910390f35b610a166004803603810190610a1191906139b5565b612054565b005b348015610a2457600080fd5b50610a3f6004803603810190610a3a9190613cf0565b6120ea565b005b348015610a4d57600080fd5b50610a686004803603810190610a639190613842565b6124da565b005b348015610a7657600080fd5b50610a916004803603810190610a8c9190613842565b6124f5565b604051610a9e9190613e56565b60405180910390f35b348015610ab357600080fd5b50610ace6004803603810190610ac99190613be3565b612534565b005b348015610adc57600080fd5b50610af76004803603810190610af29190613842565b612551565b005b60055481565b6000600b8481548110610b1557610b14614131565b5b906000526020600020906004020190506000610b6785856040518060400160405280600581526020017f6b6974747900000000000000000000000000000000000000000000000000000081525061256c565b90503373ffffffffffffffffffffffffffffffffffffffff167f94bd9f81959636fb1ddd32f8bcbdab8b649d20a6a464f759a1aa7f7cf4447fac8360010154868685604051610bb99493929190614160565b60405180910390a25050505050565b80600d600082815260200190815260200160002060009054906101000a900473ffffffffffffffffffffffffffffffffffffffff1673ffffffffffffffffffffffffffffffffffffffff163373ffffffffffffffffffffffffffffffffffffffff1614610c3457600080fd5b826016600084815260200190815260200160002060006101000a81548173ffffffffffffffffffffffffffffffffffffffff021916908373ffffffffffffffffffffffffffffffffffffffff160217905550818373ffffffffffffffffffffffffffffffffffffffff163373ffffffffffffffffffffffffffffffffffffffff167f8c5be1e5ebec7d5bd14f71427d1e84f3dd0314c0f7b2291e5b200ac8c7c3b92560405160405180910390a4505050565b60105480341015610cf6826126ea565b604051602001610d069190614207565b60405160208183030381529060405290610d56576040517f08c379a0000000000000000000000000000000000000000000000000000000008152600401610d4d9190613e71565b60405180910390fd5b5081600d600082815260200190815260200160002060009054906101000a900473ffffffffffffffffffffffffffffffffffffffff1673ffffffffffffffffffffffffffffffffffffffff163373ffffffffffffffffffffffffffffffffffffffff1614610dc357600080fd5b6001600b8481548110610dd957610dd8614131565b5b906000526020600020906004020160030160049054906101000a900463ffffffff16610e05919061425c565b600b8481548110610e1957610e18614131565b5b906000526020600020906004020160030160046101000a81548163ffffffff021916908363ffffffff160217905550505050565b60065481565b610e5b611bae565b610e6457600080fd5b8060159081610e7391906144a0565b5050565b600b8181548110610e8757600080fd5b9060005260206000209060040201600091509050806000018054610eaa906142c3565b80601f0160208091040260200160405190810160405280929190818152602001828054610ed6906142c3565b8015610f235780601f10610ef857610100808354040283529160200191610f23565b820191906000526020600020905b815481529060010190602001808311610f0657829003601f168201915b5050505050908060010154908060020154908060030160009054906101000a900463ffffffff16908060030160049054906101000a900463ffffffff16908060030160089054906101000a900463ffffffff169080600301600c9054906101000a900463ffffffff16908060030160109054906101000a900461ffff16908060030160129054906101000a900461ffff16908060030160149054906101000a900461ffff1690508a565b3373ffffffffffffffffffffffffffffffffffffffff16600d600083815260200190815260200160002060009054906101000a900473ffffffffffffffffffffffffffffffffffffffff1673ffffffffffffffffffffffffffffffffffffffff16148061109857503373ffffffffffffffffffffffffffffffffffffffff166016600083815260200190815260200160002060009054906101000a900473ffffffffffffffffffffffffffffffffffffffff1673ffffffffffffffffffffffffffffffffffffffff16145b6110d7576040517f08c379a00000000000000000000000000000000000000000000000000000000081526004016110ce906145be565b60405180910390fd5b6110e28383836127b8565b505050565b600a5481565b6110f5611bae565b6110fe57600080fd5b6000611108611b85565b90508073ffffffffffffffffffffffffffffffffffffffff166108fc479081150290604051600060405180830381858888f19350505050158015611150573d6000803e3d6000fd5b5050565b60606000600e60008473ffffffffffffffffffffffffffffffffffffffff1673ffffffffffffffffffffffffffffffffffffffff1681526020019081526020016000205467ffffffffffffffff8111156111b1576111b061388a565b5b6040519080825280602002602001820160405280156111df5781602001602082028036833780820191505090505b5090506000805b600b80549050811015611296578473ffffffffffffffffffffffffffffffffffffffff16600d600083815260200190815260200160002060009054906101000a900473ffffffffffffffffffffffffffffffffffffffff1673ffffffffffffffffffffffffffffffffffffffff1603611289578083838151811061126d5761126c614131565b5b60200260200101818152505060018261128691906145de565b91505b80806001019150506111e6565b508192505050919050565b60606000806112b6600c805490508686612988565b509150915060008167ffffffffffffffff8111156112d7576112d661388a565b5b6040519080825280602002602001820160405280156113055781602001602082028036833780820191505090505b50905060005b828110156113b757600c818561132191906145de565b8154811061133257611331614131565b5b9060005260206000200160009054906101000a900473ffffffffffffffffffffffffffffffffffffffff168282815181106113705761136f614131565b5b602002602001019073ffffffffffffffffffffffffffffffffffffffff16908173ffffffffffffffffffffffffffffffffffffffff1681525050808060010191505061130b565b5080935050505092915050565b600960009054906101000a900460ff1681565b60045481565b60115481565b600d6020528060005260406000206000915054906101000a900473ffffffffffffffffffffffffffffffffffffffff1681565b60158054611423906142c3565b80601f016020809104026020016040519081016040528092919081815260200182805461144f906142c3565b801561149c5780601f106114715761010080835404028352916020019161149c565b820191906000526020600020905b81548152906001019060200180831161147f57829003601f168201915b505050505081565b60075481565b601254803410156114ba826126ea565b6040516020016114ca9190614207565b6040516020818303038152906040529061151a576040517f08c379a00000000000000000000000000000000000000000000000000000000081526004016115119190613e71565b60405180910390fd5b5060148381600b828154811061153357611532614131565b5b906000526020600020906004020160030160049054906101000a900463ffffffff1663ffffffff161015611566836126ea565b6040516020016115769190614638565b604051602081830303815290604052906115c6576040517f08c379a00000000000000000000000000000000000000000000000000000000081526004016115bd9190613e71565b60405180910390fd5b5084600d600082815260200190815260200160002060009054906101000a900473ffffffffffffffffffffffffffffffffffffffff1673ffffffffffffffffffffffffffffffffffffffff163373ffffffffffffffffffffffffffffffffffffffff161461163357600080fd5b84600b878154811061164857611647614131565b5b906000526020600020906004020160010181905550505050505050565b6000600d600083815260200190815260200160002060009054906101000a900473ffffffffffffffffffffffffffffffffffffffff169050919050565b6116aa611bae565b6116b357600080fd5b80600960006101000a81548160ff021916908360ff16021790555050565b6116d9611bae565b6116e257600080fd5b8060118190555050565b6000600e60008373ffffffffffffffffffffffffffffffffffffffff1673ffffffffffffffffffffffffffffffffffffffff168152602001908152602001600020549050919050565b60125481565b611743611bae565b61174c57600080fd5b8060128190555050565b61175e611bae565b61176757600080fd5b600073ffffffffffffffffffffffffffffffffffffffff1660008054906101000a900473ffffffffffffffffffffffffffffffffffffffff1673ffffffffffffffffffffffffffffffffffffffff167f8be0079c531659141344cd1fd0a4f28419497f9722a3daafe3b4186f6b6457e060405160405180910390a360008060006101000a81548173ffffffffffffffffffffffffffffffffffffffff021916908373ffffffffffffffffffffffffffffffffffffffff160217905550565b600960019054906101000a900460ff1681565b6004546005541061184a6004546126ea565b60405160200161185a9190614684565b604051602081830303815290604052906118aa576040517f08c379a00000000000000000000000000000000000000000000000000000000081526004016118a19190613e71565b60405180910390fd5b50600f60003373ffffffffffffffffffffffffffffffffffffffff1673ffffffffffffffffffffffffffffffffffffffff16815260200190815260200160002060009054906101000a900460ff1615611938576040517f08c379a000000000000000000000000000000000000000000000000000000000815260040161192f906146f6565b60405180910390fd5b60003360405160200161194b919061475e565b6040516020818303038152906040528051906020012090506119b1838380806020026020016040519081016040528093929190818152602001838360200280828437600081840152601f19601f82011690508083019250505050505050600a5483612a1f565b6119f0576040517f08c379a00000000000000000000000000000000000000000000000000000000081526004016119e7906147c5565b60405180910390fd5b60006119fd6001546126ea565b604051602001611a0d919061480b565b60405160208183030381529060405290506000611a2982612a36565b9050611a358282612aab565b611a3e33612e57565b6001600f60003373ffffffffffffffffffffffffffffffffffffffff1673ffffffffffffffffffffffffffffffffffffffff16815260200190815260200160002060006101000a81548160ff02191690831515021790555060056000815480929190611aa990614831565b91905055505050505050565b611abd611bae565b611ac657600080fd5b8060078190555050565b611ad8611bae565b611ae157600080fd5b80600a8190555050565b611af481612e57565b50565b6060600c805480602002602001604051908101604052809291908181526020018280548015611b7b57602002820191906000526020600020905b8160009054906101000a900473ffffffffffffffffffffffffffffffffffffffff1673ffffffffffffffffffffffffffffffffffffffff1681526020019060010190808311611b31575b5050505050905090565b60008060009054906101000a900473ffffffffffffffffffffffffffffffffffffffff16905090565b60008060009054906101000a900473ffffffffffffffffffffffffffffffffffffffff1673ffffffffffffffffffffffffffffffffffffffff163373ffffffffffffffffffffffffffffffffffffffff1614905090565b6000600c80549050905090565b6000611c1c611bae565b611c2557600080fd5b47905090565b60085481565b60115480341015611c41826126ea565b604051602001611c519190614207565b60405160208183030381529060405290611ca1576040517f08c379a0000000000000000000000000000000000000000000000000000000008152600401611c989190613e71565b60405180910390fd5b5060028481600b8281548110611cba57611cb9614131565b5b906000526020600020906004020160030160049054906101000a900463ffffffff1663ffffffff161015611ced836126ea565b604051602001611cfd9190614638565b60405160208183030381529060405290611d4d576040517f08c379a0000000000000000000000000000000000000000000000000000000008152600401611d449190613e71565b60405180910390fd5b5085600d600082815260200190815260200160002060009054906101000a900473ffffffffffffffffffffffffffffffffffffffff1673ffffffffffffffffffffffffffffffffffffffff163373ffffffffffffffffffffffffffffffffffffffff1614611dba57600080fd5b8585600b8981548110611dd057611dcf614131565b5b90600052602060002090600402016000019182611dee929190614884565b5050505050505050565b60105481565b611e06611bae565b611e0f57600080fd5b80600960016101000a81548160ff021916908360ff16021790555050565b60606000600b8381548110611e4557611e44614131565b5b906000526020600020906004020190506015611e60846126ea565b82600001611e7184600101546126ea565b604051602001611e8494939291906149fd565b604051602081830303815290604052915050919050565b611ea3611bae565b611eac57600080fd5b8060108190555050565b60606000806000611f07600e60008973ffffffffffffffffffffffffffffffffffffffff1673ffffffffffffffffffffffffffffffffffffffff168152602001908152602001600020548787612988565b92509250925060008267ffffffffffffffff811115611f2957611f2861388a565b5b604051908082528060200260200182016040528015611f575781602001602082028036833780820191505090505b50905060008060005b600b8054905081108015611f7357508583105b15612043578a73ffffffffffffffffffffffffffffffffffffffff16600d600083815260200190815260200160002060009054906101000a900473ffffffffffffffffffffffffffffffffffffffff1673ffffffffffffffffffffffffffffffffffffffff160361203057868210158015611fed57508482105b15612021578084848151811061200657612005614131565b5b602002602001018181525050828061201d90614831565b9350505b818061202c90614831565b9250505b808061203b90614831565b915050611f60565b508296505050505050509392505050565b60065480341015612064826126ea565b6040516020016120749190614207565b604051602081830303815290604052906120c4576040517f08c379a00000000000000000000000000000000000000000000000000000000081526004016120bb9190613e71565b60405180910390fd5b5060006120d083612a36565b90506120dc8382612aab565b6120e533612e57565b505050565b81600d600082815260200190815260200160002060009054906101000a900473ffffffffffffffffffffffffffffffffffffffff1673ffffffffffffffffffffffffffffffffffffffff163373ffffffffffffffffffffffffffffffffffffffff161461215657600080fd5b6000600b848154811061216c5761216b614131565b5b9060005260206000209060040201905061218581612f4d565b6121c4576040517f08c379a00000000000000000000000000000000000000000000000000000000081526004016121bb90614aa5565b60405180910390fd5b6000600b84815481106121da576121d9614131565b5b9060005260206000209060040201905060006121f68383612f74565b90506000606442338960405160200161221193929190614ae6565b6040516020818303038152906040528051906020012060001c6122349190614b52565b90508181116123eb5783600301601081819054906101000a900461ffff168092919061225f90614b83565b91906101000a81548161ffff021916908361ffff1602179055505083600301600481819054906101000a900463ffffffff168092919061229e90614bad565b91906101000a81548163ffffffff021916908363ffffffff1602179055505082600301601281819054906101000a900461ffff16809291906122df90614b83565b91906101000a81548161ffff021916908361ffff16021790555050612303846130b0565b61230c836130b0565b600080600960009054906101000a900460ff1660ff168660030160109054906101000a900461ffff1661233f9190614bd9565b61ffff160361239357612390856001015485600101546040518060400160405280600681526020017f7a6f6d6269650000000000000000000000000000000000000000000000000000815250613156565b90505b3373ffffffffffffffffffffffffffffffffffffffff167f750a7c18ca7f7bd87c6e50678ea7fa4f64d0cb733bb68cdac552d009737b47168989846040516123dd93929190614c0a565b60405180910390a2506124d1565b83600301601281819054906101000a900461ffff168092919061240d90614b83565b91906101000a81548161ffff021916908361ffff1602179055505082600301601081819054906101000a900461ffff168092919061244a90614b83565b91906101000a81548161ffff021916908361ffff1602179055505061246e846130b0565b612477836130b0565b61248084613246565b3373ffffffffffffffffffffffffffffffffffffffff167f4fa78061bb2783669831d2e2aa9ca18cb698e098923982bfada46ceaf1516d6a88886040516124c8929190614c41565b60405180910390a25b50505050505050565b6124e2611bae565b6124eb57600080fd5b8060068190555050565b600c818154811061250557600080fd5b906000526020600020016000915054906101000a900473ffffffffffffffffffffffffffffffffffffffff1681565b61253c611bae565b61254557600080fd5b61254e81613279565b50565b612559611bae565b61256257600080fd5b8060088190555050565b600083600d600082815260200190815260200160002060009054906101000a900473ffffffffffffffffffffffffffffffffffffffff1673ffffffffffffffffffffffffffffffffffffffff163373ffffffffffffffffffffffffffffffffffffffff16146125da57600080fd5b6000600b86815481106125f0576125ef614131565b5b906000526020600020906004020190506126098161336f565b612648576040517f08c379a000000000000000000000000000000000000000000000000000000000815260040161263f90614cb6565b60405180910390fd5b600081600301601481819054906101000a900461ffff168092919061266c90614b83565b91906101000a81548161ffff021916908361ffff160217905550506000600960019054906101000a900460ff1660ff168360030160149054906101000a900461ffff166126b99190614bd9565b61ffff16036126d4576126d182600101548787613156565b90505b6126dd82613396565b8093505050509392505050565b6060600060016126f9846133c9565b01905060008167ffffffffffffffff8111156127185761271761388a565b5b6040519080825280601f01601f19166020018201604052801561274a5781602001600182028036833780820191505090505b509050600082602001820190505b6001156127ad578080600190039150507f3031323334353637383961626364656600000000000000000000000000000000600a86061a8153600a85816127a1576127a0614b23565b5b04945060008503612758575b819350505050919050565b6001600e60008473ffffffffffffffffffffffffffffffffffffffff1673ffffffffffffffffffffffffffffffffffffffff1681526020019081526020016000205461280491906145de565b600e60008473ffffffffffffffffffffffffffffffffffffffff1673ffffffffffffffffffffffffffffffffffffffff168152602001908152602001600020819055506001600e60008573ffffffffffffffffffffffffffffffffffffffff1673ffffffffffffffffffffffffffffffffffffffff168152602001908152602001600020546128939190614cd6565b600e60008573ffffffffffffffffffffffffffffffffffffffff1673ffffffffffffffffffffffffffffffffffffffff1681526020019081526020016000208190555081600d600083815260200190815260200160002060006101000a81548173ffffffffffffffffffffffffffffffffffffffff021916908373ffffffffffffffffffffffffffffffffffffffff160217905550808273ffffffffffffffffffffffffffffffffffffffff168473ffffffffffffffffffffffffffffffffffffffff167fddf252ad1be2c89b69c2b068fc378daa952ba7f163c4a11628f55a4df523b3ef60405160405180910390a4505050565b600080600080848661299a9190614d0a565b90508681106129de576040517f08c379a00000000000000000000000000000000000000000000000000000000081526004016129d590614d98565b60405180910390fd5b600085826129ec91906145de565b9050878111156129fa578790505b60008282612a089190614cd6565b905082818395509550955050505093509350939050565b600082612a2c858461351c565b1490509392505050565b600060016000815480929190612a4b90614831565b91905055506000826001544233600143612a659190614cd6565b40604051602001612a7a959493929190614dd9565b6040516020818303038152906040528051906020012060001c905060035481612aa39190614b52565b915050919050565b6000825111612aef576040517f08c379a0000000000000000000000000000000000000000000000000000000008152600401612ae690614e80565b60405180910390fd5b808114612b31576040517f08c379a0000000000000000000000000000000000000000000000000000000008152600401612b2890614eec565b60405180910390fd5b60004290506000604051806101400160405280858152602001848152602001600081526020018363ffffffff168152602001600163ffffffff1681526020018363ffffffff1681526020018363ffffffff168152602001600061ffff168152602001600061ffff168152602001600061ffff168152509050600b8190806001815401808255809150506001900390600052602060002090600402016000909190919091506000820151816000019081612bea91906144a0565b50602082015181600101556040820151816002015560608201518160030160006101000a81548163ffffffff021916908363ffffffff16021790555060808201518160030160046101000a81548163ffffffff021916908363ffffffff16021790555060a08201518160030160086101000a81548163ffffffff021916908363ffffffff16021790555060c082015181600301600c6101000a81548163ffffffff021916908363ffffffff16021790555060e08201518160030160106101000a81548161ffff021916908361ffff1602179055506101008201518160030160126101000a81548161ffff021916908361ffff1602179055506101208201518160030160146101000a81548161ffff021916908361ffff160217905550505060006001600b80549050612d1c9190614cd6565b905033600d600083815260200190815260200160002060006101000a81548173ffffffffffffffffffffffffffffffffffffffff021916908373ffffffffffffffffffffffffffffffffffffffff1602179055506001600e60003373ffffffffffffffffffffffffffffffffffffffff1673ffffffffffffffffffffffffffffffffffffffff16815260200190815260200160002054612dbc91906145de565b600e60003373ffffffffffffffffffffffffffffffffffffffff1673ffffffffffffffffffffffffffffffffffffffff16815260200190815260200160002081905550803373ffffffffffffffffffffffffffffffffffffffff167ff92b1ba4cb9ae7683c3a3a1e58273b24013547531f590e32910f3105e8349e1f8787604051612e48929190614f0c565b60405180910390a35050505050565b6000600e60008373ffffffffffffffffffffffffffffffffffffffff1673ffffffffffffffffffffffffffffffffffffffff1681526020019081526020016000205411612ed9576040517f08c379a0000000000000000000000000000000000000000000000000000000008152600401612ed090614fae565b60405180910390fd5b612ee28161356c565b612f4a57600c819080600181540180825580915050600190039060005260206000200160009091909190916101000a81548173ffffffffffffffffffffffffffffffffffffffff021916908373ffffffffffffffffffffffffffffffffffffffff1602179055505b50565b6000428260030160089054906101000a900463ffffffff1663ffffffff1611159050919050565b600080601454905060008360030160049054906101000a900463ffffffff168560030160049054906101000a900463ffffffff16612fb29190614fdb565b905060008160030b1315612fe557600281612fcd9190615037565b63ffffffff1682612fde91906145de565b915061301c565b60008160030b121561301b57600281612ffd90615074565b6130079190615037565b63ffffffff16826130189190614cd6565b91505b5b60008061302c8760010154613614565b509150915060006130408760010154613614565b925050506000600a82846002876130579190614d0a565b61306191906145de565b61306b9190614cd6565b61307591906150bc565b9050808661308391906145de565b9550605a86111561309357605a95505b601e8610156130a157601e95505b85965050505050505092915050565b600060038260030160129054906101000a900461ffff166130d191906150ed565b61ffff1660058360030160109054906101000a900461ffff166130f491906150ed565b61ffff16600a8460030160049054906101000a900463ffffffff166131199190615037565b613123919061425c565b61312d919061512a565b9050600a8163ffffffff16101561314357600a90505b8063ffffffff1682600201819055505050565b6000600354836131669190614b52565b925060006002848661317891906145de565b61318291906150bc565b9050604051602001613193906151ae565b60405160208183030381529060405280519060200120836040516020016131ba91906151c3565b60405160208183030381529060405280519060200120036131fc5760636064826131e49190614b52565b826131ef9190614cd6565b6131f991906145de565b90505b61323b6040518060400160405280600681526020017f4e6f4e616d65000000000000000000000000000000000000000000000000000081525082612aab565b809150509392505050565b6007544261325491906145de565b8160030160086101000a81548163ffffffff021916908363ffffffff16021790555050565b600073ffffffffffffffffffffffffffffffffffffffff168173ffffffffffffffffffffffffffffffffffffffff16036132b257600080fd5b8073ffffffffffffffffffffffffffffffffffffffff1660008054906101000a900473ffffffffffffffffffffffffffffffffffffffff1673ffffffffffffffffffffffffffffffffffffffff167f8be0079c531659141344cd1fd0a4f28419497f9722a3daafe3b4186f6b6457e060405160405180910390a3806000806101000a81548173ffffffffffffffffffffffffffffffffffffffff021916908373ffffffffffffffffffffffffffffffffffffffff16021790555050565b60004282600301600c9054906101000a900463ffffffff1663ffffffff1611159050919050565b600854426133a491906145de565b81600301600c6101000a81548163ffffffff021916908363ffffffff16021790555050565b600080600090507a184f03e93ff9f4daa797ed6e38ed64bf6a1f0100000000000000008310613427577a184f03e93ff9f4daa797ed6e38ed64bf6a1f010000000000000000838161341d5761341c614b23565b5b0492506040810190505b6d04ee2d6d415b85acef81000000008310613464576d04ee2d6d415b85acef8100000000838161345a57613459614b23565b5b0492506020810190505b662386f26fc10000831061349357662386f26fc10000838161348957613488614b23565b5b0492506010810190505b6305f5e10083106134bc576305f5e10083816134b2576134b1614b23565b5b0492506008810190505b61271083106134e15761271083816134d7576134d6614b23565b5b0492506004810190505b6064831061350457606483816134fa576134f9614b23565b5b0492506002810190505b600a8310613513576001810190505b80915050919050565b60008082905060005b8451811015613561576135528286838151811061354557613544614131565b5b602002602001015161369b565b91508080600101915050613525565b508091505092915050565b6000806000905060005b600c8054905081101561360a578373ffffffffffffffffffffffffffffffffffffffff16600c82815481106135ae576135ad614131565b5b9060005260206000200160009054906101000a900473ffffffffffffffffffffffffffffffffffffffff1673ffffffffffffffffffffffffffffffffffffffff16036135fd576001915061360a565b8080600101915050613576565b5080915050919050565b6000806000806032856136279190614b52565b603261363391906145de565b90506000603260648761364691906150bc565b6136509190614b52565b603261365c91906145de565b9050600060326127108861367091906150bc565b61367a9190614b52565b603261368691906145de565b90508282829550955095505050509193909250565b60008183106136b3576136ae82846136c6565b6136be565b6136bd83836136c6565b5b905092915050565b600082600052816020526040600020905092915050565b6000819050919050565b6136f0816136dd565b82525050565b600060208201905061370b60008301846136e7565b92915050565b6000604051905090565b600080fd5b600080fd5b61372e816136dd565b811461373957600080fd5b50565b60008135905061374b81613725565b92915050565b60008060006060848603121561376a5761376961371b565b5b60006137788682870161373c565b93505060206137898682870161373c565b925050604061379a8682870161373c565b9150509250925092565b600073ffffffffffffffffffffffffffffffffffffffff82169050919050565b60006137cf826137a4565b9050919050565b6137df816137c4565b81146137ea57600080fd5b50565b6000813590506137fc816137d6565b92915050565b600080604083850312156138195761381861371b565b5b6000613827858286016137ed565b92505060206138388582860161373c565b9150509250929050565b6000602082840312156138585761385761371b565b5b60006138668482850161373c565b91505092915050565b600080fd5b600080fd5b6000601f19601f8301169050919050565b7f4e487b7100000000000000000000000000000000000000000000000000000000600052604160045260246000fd5b6138c282613879565b810181811067ffffffffffffffff821117156138e1576138e061388a565b5b80604052505050565b60006138f4613711565b905061390082826138b9565b919050565b600067ffffffffffffffff8211156139205761391f61388a565b5b61392982613879565b9050602081019050919050565b82818337600083830152505050565b600061395861395384613905565b6138ea565b90508281526020810184848401111561397457613973613874565b5b61397f848285613936565b509392505050565b600082601f83011261399c5761399b61386f565b5b81356139ac848260208601613945565b91505092915050565b6000602082840312156139cb576139ca61371b565b5b600082013567ffffffffffffffff8111156139e9576139e8613720565b5b6139f584828501613987565b91505092915050565b600081519050919050565b600082825260208201905092915050565b60005b83811015613a38578082015181840152602081019050613a1d565b60008484015250505050565b6000613a4f826139fe565b613a598185613a09565b9350613a69818560208601613a1a565b613a7281613879565b840191505092915050565b600063ffffffff82169050919050565b613a9681613a7d565b82525050565b600061ffff82169050919050565b613ab381613a9c565b82525050565b6000610140820190508181036000830152613ad4818d613a44565b9050613ae3602083018c6136e7565b613af0604083018b6136e7565b613afd606083018a613a8d565b613b0a6080830189613a8d565b613b1760a0830188613a8d565b613b2460c0830187613a8d565b613b3160e0830186613aaa565b613b3f610100830185613aaa565b613b4d610120830184613aaa565b9b9a5050505050505050505050565b600080600060608486031215613b7557613b7461371b565b5b6000613b83868287016137ed565b9350506020613b94868287016137ed565b9250506040613ba58682870161373c565b9150509250925092565b6000819050919050565b613bc281613baf565b82525050565b6000602082019050613bdd6000830184613bb9565b92915050565b600060208284031215613bf957613bf861371b565b5b6000613c07848285016137ed565b91505092915050565b600081519050919050565b600082825260208201905092915050565b6000819050602082019050919050565b613c45816136dd565b82525050565b6000613c578383613c3c565b60208301905092915050565b6000602082019050919050565b6000613c7b82613c10565b613c858185613c1b565b9350613c9083613c2c565b8060005b83811015613cc1578151613ca88882613c4b565b9750613cb383613c63565b925050600181019050613c94565b5085935050505092915050565b60006020820190508181036000830152613ce88184613c70565b905092915050565b60008060408385031215613d0757613d0661371b565b5b6000613d158582860161373c565b9250506020613d268582860161373c565b9150509250929050565b600081519050919050565b600082825260208201905092915050565b6000819050602082019050919050565b613d65816137c4565b82525050565b6000613d778383613d5c565b60208301905092915050565b6000602082019050919050565b6000613d9b82613d30565b613da58185613d3b565b9350613db083613d4c565b8060005b83811015613de1578151613dc88882613d6b565b9750613dd383613d83565b925050600181019050613db4565b5085935050505092915050565b60006020820190508181036000830152613e088184613d90565b905092915050565b600060ff82169050919050565b613e2681613e10565b82525050565b6000602082019050613e416000830184613e1d565b92915050565b613e50816137c4565b82525050565b6000602082019050613e6b6000830184613e47565b92915050565b60006020820190508181036000830152613e8b8184613a44565b905092915050565b613e9c81613e10565b8114613ea757600080fd5b50565b600081359050613eb981613e93565b92915050565b600060208284031215613ed557613ed461371b565b5b6000613ee384828501613eaa565b91505092915050565b600080fd5b600080fd5b60008083601f840112613f0c57613f0b61386f565b5b8235905067ffffffffffffffff811115613f2957613f28613eec565b5b602083019150836020820283011115613f4557613f44613ef1565b5b9250929050565b60008060208385031215613f6357613f6261371b565b5b600083013567ffffffffffffffff811115613f8157613f80613720565b5b613f8d85828601613ef6565b92509250509250929050565b613fa281613baf565b8114613fad57600080fd5b50565b600081359050613fbf81613f99565b92915050565b600060208284031215613fdb57613fda61371b565b5b6000613fe984828501613fb0565b91505092915050565b60008115159050919050565b61400781613ff2565b82525050565b60006020820190506140226000830184613ffe565b92915050565b60008083601f84011261403e5761403d61386f565b5b8235905067ffffffffffffffff81111561405b5761405a613eec565b5b60208301915083600182028301111561407757614076613ef1565b5b9250929050565b6000806000604084860312156140975761409661371b565b5b60006140a58682870161373c565b935050602084013567ffffffffffffffff8111156140c6576140c5613720565b5b6140d286828701614028565b92509250509250925092565b6000806000606084860312156140f7576140f661371b565b5b6000614105868287016137ed565b93505060206141168682870161373c565b92505060406141278682870161373c565b9150509250925092565b7f4e487b7100000000000000000000000000000000000000000000000000000000600052603260045260246000fd5b600060808201905061417560008301876136e7565b61418260208301866136e7565b61418f60408301856136e7565b61419c60608301846136e7565b95945050505050565b7f5072696365206d696e696d756d20697320000000000000000000000000000000815250565b600081905092915050565b60006141e1826139fe565b6141eb81856141cb565b93506141fb818560208601613a1a565b80840191505092915050565b6000614212826141a5565b60118201915061422282846141d6565b915081905092915050565b7f4e487b7100000000000000000000000000000000000000000000000000000000600052601160045260246000fd5b600061426782613a7d565b915061427283613a7d565b9250828201905063ffffffff81111561428e5761428d61422d565b5b92915050565b7f4e487b7100000000000000000000000000000000000000000000000000000000600052602260045260246000fd5b600060028204905060018216806142db57607f821691505b6020821081036142ee576142ed614294565b5b50919050565b60008190508160005260206000209050919050565b60006020601f8301049050919050565b600082821b905092915050565b6000600883026143567fffffffffffffffffffffffffffffffffffffffffffffffffffffffffffffffff82614319565b6143608683614319565b95508019841693508086168417925050509392505050565b6000819050919050565b600061439d614398614393846136dd565b614378565b6136dd565b9050919050565b6000819050919050565b6143b783614382565b6143cb6143c3826143a4565b848454614326565b825550505050565b600090565b6143e06143d3565b6143eb8184846143ae565b505050565b5b8181101561440f576144046000826143d8565b6001810190506143f1565b5050565b601f82111561445457614425816142f4565b61442e84614309565b8101602085101561443d578190505b61445161444985614309565b8301826143f0565b50505b505050565b600082821c905092915050565b600061447760001984600802614459565b1980831691505092915050565b60006144908383614466565b9150826002028217905092915050565b6144a9826139fe565b67ffffffffffffffff8111156144c2576144c161388a565b5b6144cc82546142c3565b6144d7828285614413565b600060209050601f83116001811461450a57600084156144f8578287015190505b6145028582614484565b86555061456a565b601f198416614518866142f4565b60005b828110156145405784890151825560018201915060208501945060208101905061451b565b8683101561455d5784890151614559601f891682614466565b8355505b6001600288020188555050505b505050505050565b7f596f7520617265206e6f74206f776e6572206f7220617070726f7665642e0000600082015250565b60006145a8601e83613a09565b91506145b382614572565b602082019050919050565b600060208201905081810360008301526145d78161459b565b9050919050565b60006145e9826136dd565b91506145f4836136dd565b925082820190508082111561460c5761460b61422d565b5b92915050565b7f4c6576656c206d696e2e20697320000000000000000000000000000000000000815250565b600061464382614612565b600e8201915061465382846141d6565b915081905092915050565b7f4f6e6c7920000000000000000000000000000000000000000000000000000000815250565b600061468f8261465e565b60058201915061469f82846141d6565b915081905092915050565b7f4f6e65206d696e7420706572206163636f756e74000000000000000000000000600082015250565b60006146e0601483613a09565b91506146eb826146aa565b602082019050919050565b6000602082019050818103600083015261470f816146d3565b9050919050565b60008160601b9050919050565b600061472e82614716565b9050919050565b600061474082614723565b9050919050565b614758614753826137c4565b614735565b82525050565b600061476a8284614747565b60148201915081905092915050565b7f496e76616c69642070726f6f6600000000000000000000000000000000000000600082015250565b60006147af600d83613a09565b91506147ba82614779565b602082019050919050565b600060208201905081810360008301526147de816147a2565b9050919050565b7f5a6f6d6269652000000000000000000000000000000000000000000000000000815250565b6000614816826147e5565b60078201915061482682846141d6565b915081905092915050565b600061483c826136dd565b91507fffffffffffffffffffffffffffffffffffffffffffffffffffffffffffffffff820361486e5761486d61422d565b5b600182019050919050565b600082905092915050565b61488e8383614879565b67ffffffffffffffff8111156148a7576148a661388a565b5b6148b182546142c3565b6148bc828285614413565b6000601f8311600181146148eb57600084156148d9578287013590505b6148e38582614484565b86555061494b565b601f1984166148f9866142f4565b60005b82811015614921578489013582556001820191506020850194506020810190506148fc565b8683101561493e578489013561493a601f891682614466565b8355505b6001600288020188555050505b50505050505050565b60008154614961816142c3565b61496b81866141cb565b94506001821660008114614986576001811461499b576149ce565b60ff19831686528115158202860193506149ce565b6149a4856142f4565b60005b838110156149c6578154818901526001820191506020810190506149a7565b838801955050505b50505092915050565b7f2f00000000000000000000000000000000000000000000000000000000000000815250565b6000614a098287614954565b9150614a1582866141d6565b9150614a20826149d7565b600182019150614a308285614954565b9150614a3b826149d7565b600182019150614a4b82846141d6565b915081905095945050505050565b7f49742773206e6f7420726561647920746f2061747461636b0000000000000000600082015250565b6000614a8f601883613a09565b9150614a9a82614a59565b602082019050919050565b60006020820190508181036000830152614abe81614a82565b9050919050565b6000819050919050565b614ae0614adb826136dd565b614ac5565b82525050565b6000614af28286614acf565b602082019150614b028285614747565b601482019150614b128284614acf565b602082019150819050949350505050565b7f4e487b7100000000000000000000000000000000000000000000000000000000600052601260045260246000fd5b6000614b5d826136dd565b9150614b68836136dd565b925082614b7857614b77614b23565b5b828206905092915050565b6000614b8e82613a9c565b915061ffff8203614ba257614ba161422d565b5b600182019050919050565b6000614bb882613a7d565b915063ffffffff8203614bce57614bcd61422d565b5b600182019050919050565b6000614be482613a9c565b9150614bef83613a9c565b925082614bff57614bfe614b23565b5b828206905092915050565b6000606082019050614c1f60008301866136e7565b614c2c60208301856136e7565b614c3960408301846136e7565b949350505050565b6000604082019050614c5660008301856136e7565b614c6360208301846136e7565b9392505050565b7f49742773206e6f7420726561647920746f206665656400000000000000000000600082015250565b6000614ca0601683613a09565b9150614cab82614c6a565b602082019050919050565b60006020820190508181036000830152614ccf81614c93565b9050919050565b6000614ce1826136dd565b9150614cec836136dd565b9250828203905081811115614d0457614d0361422d565b5b92915050565b6000614d15826136dd565b9150614d20836136dd565b9250828202614d2e816136dd565b91508282048414831517614d4557614d4461422d565b5b5092915050565b7f50616765206f7574206f662072616e6765000000000000000000000000000000600082015250565b6000614d82601183613a09565b9150614d8d82614d4c565b602082019050919050565b60006020820190508181036000830152614db181614d75565b9050919050565b6000819050919050565b614dd3614dce82613baf565b614db8565b82525050565b6000614de582886141d6565b9150614df18287614acf565b602082019150614e018286614acf565b602082019150614e118285614747565b601482019150614e218284614dc2565b6020820191508190509695505050505050565b7f4e616d652063616e6e6f74206265206c65667420656d70747900000000000000600082015250565b6000614e6a601983613a09565b9150614e7582614e34565b602082019050919050565b60006020820190508181036000830152614e9981614e5d565b9050919050565b7f444e41206d75737420626520616e20696e746567657200000000000000000000600082015250565b6000614ed6601683613a09565b9150614ee182614ea0565b602082019050919050565b60006020820190508181036000830152614f0581614ec9565b9050919050565b60006040820190508181036000830152614f268185613a44565b9050614f3560208301846136e7565b9392505050565b7f43616e277420746f20616464206163636f756e742c206163636f756e7420776960008201527f74686f7574207a6f6d6269650000000000000000000000000000000000000000602082015250565b6000614f98602c83613a09565b9150614fa382614f3c565b604082019050919050565b60006020820190508181036000830152614fc781614f8b565b9050919050565b60008160030b9050919050565b6000614fe682614fce565b9150614ff183614fce565b92508282039050637fffffff81137fffffffffffffffffffffffffffffffffffffffffffffffffffffffff80000000821217156150315761503061422d565b5b92915050565b600061504282613a7d565b915061504d83613a7d565b925082820261505b81613a7d565b915080821461506d5761506c61422d565b5b5092915050565b600061507f82614fce565b91507fffffffffffffffffffffffffffffffffffffffffffffffffffffffff8000000082036150b1576150b061422d565b5b816000039050919050565b60006150c7826136dd565b91506150d2836136dd565b9250826150e2576150e1614b23565b5b828204905092915050565b60006150f882613a9c565b915061510383613a9c565b925082820261511181613a9c565b91508082146151235761512261422d565b5b5092915050565b600061513582613a7d565b915061514083613a7d565b9250828203905063ffffffff81111561515c5761515b61422d565b5b92915050565b7f6b69747479000000000000000000000000000000000000000000000000000000600082015250565b60006151986005836141cb565b91506151a382615162565b600582019050919050565b60006151b98261518b565b9150819050919050565b60006151cf82846141d6565b91508190509291505056fea2646970667358221220b1b91a7357f0220696dca7eb040f4dcd1175413622856cd14c97366e914e164264736f6c634300081c0033687474703a2f2f6c6f63616c686f73743a333333332f7a6f6d6269652f7572692f",
  "linkReferences": {},
  "deployedLinkReferences": {}
}