{
  "_format": "hh-sol-artifact-1",
  "contractName": "CryptozombiesBattle",
  "sourceName": "contracts/cryptozombiesBattle/CryptozombiesBattle.sol",
  "abi": [
    {
      "anonymous": false,
      "inputs": [
        {
          "indexed": true,
          "internalType": "address",
          "name": "_owner",
          "type": "address"
        },
        {
          "indexed": true,
          "internalType": "address",
          "name": "_approved",
          "type": "address"
        },
        {
          "indexed": true,
          "internalType": "uint256",
          "name": "_tokenId",
          "type": "uint256"
        }
      ],
      "name": "Approval",
      "type": "event"
    },
    {
      "anonymous": false,
      "inputs": [
        {
          "indexed": true,
          "internalType": "address",
          "name": "from",
          "type": "address"
        },
        {
          "indexed": true,
          "internalType": "uint256",
          "name": "zombieId",
          "type": "uint256"
        },
        {
          "indexed": false,
          "internalType": "string",
          "name": "name",
          "type": "string"
        },
        {
          "indexed": false,
          "internalType": "uint256",
          "name": "dna",
          "type": "uint256"
        }
      ],
      "name": "NewZombie",
      "type": "event"
    },
    {
      "anonymous": false,
      "inputs": [
        {
          "indexed": true,
          "internalType": "address",
          "name": "previousOwner",
          "type": "address"
        },
        {
          "indexed": true,
          "internalType": "address",
          "name": "newOwner",
          "type": "address"
        }
      ],
      "name": "OwnershipTransferred",
      "type": "event"
    },
    {
      "anonymous": false,
      "inputs": [
        {
          "indexed": true,
          "internalType": "address",
          "name": "_from",
          "type": "address"
        },
        {
          "indexed": true,
          "internalType": "address",
          "name": "_to",
          "type": "address"
        },
        {
          "indexed": true,
          "internalType": "uint256",
          "name": "_tokenId",
          "type": "uint256"
        }
      ],
      "name": "Transfer",
      "type": "event"
    },
    {
      "anonymous": false,
      "inputs": [
        {
          "indexed": true,
          "internalType": "address",
          "name": "from",
          "type": "address"
        },
        {
          "indexed": false,
          "internalType": "uint256",
          "name": "fromId",
          "type": "uint256"
        },
        {
          "indexed": false,
          "internalType": "uint256",
          "name": "targetId",
          "type": "uint256"
        }
      ],
      "name": "onAttackDefeat",
      "type": "event"
    },
    {
      "anonymous": false,
      "inputs": [
        {
          "indexed": true,
          "internalType": "address",
          "name": "from",
          "type": "address"
        },
        {
          "indexed": false,
          "internalType": "uint256",
          "name": "fromId",
          "type": "uint256"
        },
        {
          "indexed": false,
          "internalType": "uint256",
          "name": "targetId",
          "type": "uint256"
        },
        {
          "indexed": false,
          "internalType": "uint256",
          "name": "newDna",
          "type": "uint256"
        }
      ],
      "name": "onAttackVitory",
      "type": "event"
    },
    {
      "anonymous": false,
      "inputs": [
        {
          "indexed": true,
          "internalType": "address",
          "name": "from",
          "type": "address"
        },
        {
          "indexed": false,
          "internalType": "uint256",
          "name": "fromDna",
          "type": "uint256"
        },
        {
          "indexed": false,
          "internalType": "uint256",
          "name": "targetDna",
          "type": "uint256"
        },
        {
          "indexed": false,
          "internalType": "uint256",
          "name": "_kittyId",
          "type": "uint256"
        },
        {
          "indexed": false,
          "internalType": "uint256",
          "name": "newDna",
          "type": "uint256"
        }
      ],
      "name": "onFeed",
      "type": "event"
    },
    {
      "inputs": [
        {
          "internalType": "address",
          "name": "_account",
          "type": "address"
        }
      ],
      "name": "accountAdd",
      "outputs": [],
      "stateMutability": "nonpayable",
      "type": "function"
    },
    {
      "inputs": [
        {
          "internalType": "uint256",
          "name": "",
          "type": "uint256"
        }
      ],
      "name": "accounts",
      "outputs": [
        {
          "internalType": "address",
          "name": "",
          "type": "address"
        }
      ],
      "stateMutability": "view",
      "type": "function"
    },
    {
      "inputs": [
        {
          "internalType": "address",
          "name": "_approved",
          "type": "address"
        },
        {
          "internalType": "uint256",
          "name": "_tokenId",
          "type": "uint256"
        }
      ],
      "name": "approve",
      "outputs": [],
      "stateMutability": "payable",
      "type": "function"
    },
    {
      "inputs": [
        {
          "internalType": "uint256",
          "name": "_zombieId",
          "type": "uint256"
        },
        {
          "internalType": "uint256",
          "name": "_targetId",
          "type": "uint256"
        }
      ],
      "name": "attack",
      "outputs": [],
      "stateMutability": "nonpayable",
      "type": "function"
    },
    {
      "inputs": [],
      "name": "balance",
      "outputs": [
        {
          "internalType": "uint256",
          "name": "",
          "type": "uint256"
        }
      ],
      "stateMutability": "view",
      "type": "function"
    },
    {
      "inputs": [
        {
          "internalType": "address",
          "name": "_owner",
          "type": "address"
        }
      ],
      "name": "balanceOf",
      "outputs": [
        {
          "internalType": "uint256",
          "name": "",
          "type": "uint256"
        }
      ],
      "stateMutability": "view",
      "type": "function"
    },
    {
      "inputs": [],
      "name": "baseUrlTokenURI",
      "outputs": [
        {
          "internalType": "string",
          "name": "",
          "type": "string"
        }
      ],
      "stateMutability": "view",
      "type": "function"
    },
    {
      "inputs": [],
      "name": "changeDNAFee",
      "outputs": [
        {
          "internalType": "uint256",
          "name": "",
          "type": "uint256"
        }
      ],
      "stateMutability": "view",
      "type": "function"
    },
    {
      "inputs": [
        {
          "internalType": "uint256",
          "name": "_zombieId",
          "type": "uint256"
        },
        {
          "internalType": "uint256",
          "name": "_newDna",
          "type": "uint256"
        }
      ],
      "name": "changeDna",
      "outputs": [],
      "stateMutability": "payable",
      "type": "function"
    },
    {
      "inputs": [
        {
          "internalType": "uint256",
          "name": "_zombieId",
          "type": "uint256"
        },
        {
          "internalType": "string",
          "name": "_newName",
          "type": "string"
        }
      ],
      "name": "changeName",
      "outputs": [],
      "stateMutability": "payable",
      "type": "function"
    },
    {
      "inputs": [],
      "name": "changeNameFee",
      "outputs": [
        {
          "internalType": "uint256",
          "name": "",
          "type": "uint256"
        }
      ],
      "stateMutability": "view",
      "type": "function"
    },
    {
      "inputs": [],
      "name": "cooldownTimeAttack",
      "outputs": [
        {
          "internalType": "uint256",
          "name": "",
          "type": "uint256"
        }
      ],
      "stateMutability": "view",
      "type": "function"
    },
    {
      "inputs": [],
      "name": "cooldownTimeFeeding",
      "outputs": [
        {
          "internalType": "uint256",
          "name": "",
          "type": "uint256"
        }
      ],
      "stateMutability": "view",
      "type": "function"
    },
    {
      "inputs": [
        {
          "internalType": "uint256",
          "name": "_zombieId",
          "type": "uint256"
        },
        {
          "internalType": "uint256",
          "name": "_kittyDna",
          "type": "uint256"
        },
        {
          "internalType": "uint256",
          "name": "_kittyId",
          "type": "uint256"
        }
      ],
      "name": "feedOnKitty",
      "outputs": [],
      "stateMutability": "nonpayable",
      "type": "function"
    },
    {
      "inputs": [],
      "name": "getAccounts",
      "outputs": [
        {
          "internalType": "address[]",
          "name": "",
          "type": "address[]"
        }
      ],
      "stateMutability": "view",
      "type": "function"
    },
    {
      "inputs": [
        {
          "internalType": "uint256",
          "name": "_page",
          "type": "uint256"
        },
        {
          "internalType": "uint256",
          "name": "_pageSize",
          "type": "uint256"
        }
      ],
      "name": "getAccountsPaginated",
      "outputs": [
        {
          "internalType": "address[]",
          "name": "",
          "type": "address[]"
        }
      ],
      "stateMutability": "view",
      "type": "function"
    },
    {
      "inputs": [],
      "name": "getAccountsTotal",
      "outputs": [
        {
          "internalType": "uint256",
          "name": "",
          "type": "uint256"
        }
      ],
      "stateMutability": "view",
      "type": "function"
    },
    {
      "inputs": [
        {
          "internalType": "address",
          "name": "_owner",
          "type": "address"
        }
      ],
      "name": "getZombiesByOwner",
      "outputs": [
        {
          "internalType": "uint256[]",
          "name": "",
          "type": "uint256[]"
        }
      ],
      "stateMutability": "view",
      "type": "function"
    },
    {
      "inputs": [
        {
          "internalType": "address",
          "name": "_owner",
          "type": "address"
        },
        {
          "internalType": "uint256",
          "name": "_page",
          "type": "uint256"
        },
        {
          "internalType": "uint256",
          "name": "_pageSize",
          "type": "uint256"
        }
      ],
      "name": "getZombiesByOwnerPaginated",
      "outputs": [
        {
          "internalType": "uint256[]",
          "name": "",
          "type": "uint256[]"
        }
      ],
      "stateMutability": "view",
      "type": "function"
    },
    {
      "inputs": [],
      "name": "isOwner",
      "outputs": [
        {
          "internalType": "bool",
          "name": "",
          "type": "bool"
        }
      ],
      "stateMutability": "view",
      "type": "function"
    },
    {
      "inputs": [
        {
          "internalType": "uint256",
          "name": "_zombieId",
          "type": "uint256"
        }
      ],
      "name": "levelUp",
      "outputs": [],
      "stateMutability": "payable",
      "type": "function"
    },
    {
      "inputs": [],
      "name": "levelUpFee",
      "outputs": [
        {
          "internalType": "uint256",
          "name": "",
          "type": "uint256"
        }
      ],
      "stateMutability": "view",
      "type": "function"
    },
    {
      "inputs": [],
      "name": "merkleRoot",
      "outputs": [
        {
          "internalType": "bytes32",
          "name": "",
          "type": "bytes32"
        }
      ],
      "stateMutability": "view",
      "type": "function"
    },
    {
      "inputs": [
        {
          "internalType": "string",
          "name": "_name",
          "type": "string"
        }
      ],
      "name": "mint",
      "outputs": [],
      "stateMutability": "payable",
      "type": "function"
    },
    {
      "inputs": [],
      "name": "mintFee",
      "outputs": [
        {
          "internalType": "uint256",
          "name": "",
          "type": "uint256"
        }
      ],
      "stateMutability": "view",
      "type": "function"
    },
    {
      "inputs": [
        {
          "internalType": "bytes32[]",
          "name": "proof",
          "type": "bytes32[]"
        }
      ],
      "name": "mintFree",
      "outputs": [],
      "stateMutability": "nonpayable",
      "type": "function"
    },
    {
      "inputs": [],
      "name": "mintFreeLimit",
      "outputs": [
        {
          "internalType": "uint256",
          "name": "",
          "type": "uint256"
        }
      ],
      "stateMutability": "view",
      "type": "function"
    },
    {
      "inputs": [],
      "name": "mintedFreeCount",
      "outputs": [
        {
          "internalType": "uint256",
          "name": "",
          "type": "uint256"
        }
      ],
      "stateMutability": "view",
      "type": "function"
    },
    {
      "inputs": [],
      "name": "owner",
      "outputs": [
        {
          "internalType": "address",
          "name": "",
          "type": "address"
        }
      ],
      "stateMutability": "view",
      "type": "function"
    },
    {
      "inputs": [
        {
          "internalType": "uint256",
          "name": "_tokenId",
          "type": "uint256"
        }
      ],
      "name": "ownerOf",
      "outputs": [
        {
          "internalType": "address",
          "name": "",
          "type": "address"
        }
      ],
      "stateMutability": "view",
      "type": "function"
    },
    {
      "inputs": [],
      "name": "renounceOwnership",
      "outputs": [],
      "stateMutability": "nonpayable",
      "type": "function"
    },
    {
      "inputs": [
        {
          "internalType": "string",
          "name": "_baseUrlTokenURI",
          "type": "string"
        }
      ],
      "name": "setBaseUrlTokenURI",
      "outputs": [],
      "stateMutability": "nonpayable",
      "type": "function"
    },
    {
      "inputs": [
        {
          "internalType": "uint256",
          "name": "_fee",
          "type": "uint256"
        }
      ],
      "name": "setChangeDNAFee",
      "outputs": [],
      "stateMutability": "nonpayable",
      "type": "function"
    },
    {
      "inputs": [
        {
          "internalType": "uint256",
          "name": "_fee",
          "type": "uint256"
        }
      ],
      "name": "setChangeNameFee",
      "outputs": [],
      "stateMutability": "nonpayable",
      "type": "function"
    },
    {
      "inputs": [
        {
          "internalType": "uint256",
          "name": "_cooldownTime",
          "type": "uint256"
        }
      ],
      "name": "setCooldownTimeAttack",
      "outputs": [],
      "stateMutability": "nonpayable",
      "type": "function"
    },
    {
      "inputs": [
        {
          "internalType": "uint256",
          "name": "_cooldownTime",
          "type": "uint256"
        }
      ],
      "name": "setCooldownTimeFeeding",
      "outputs": [],
      "stateMutability": "nonpayable",
      "type": "function"
    },
    {
      "inputs": [
        {
          "internalType": "uint256",
          "name": "_fee",
          "type": "uint256"
        }
      ],
      "name": "setLevelUpFee",
      "outputs": [],
      "stateMutability": "nonpayable",
      "type": "function"
    },
    {
      "inputs": [
        {
          "internalType": "bytes32",
          "name": "_root",
          "type": "bytes32"
        }
      ],
      "name": "setMerkleRoot",
      "outputs": [],
      "stateMutability": "nonpayable",
      "type": "function"
    },
    {
      "inputs": [
        {
          "internalType": "uint256",
          "name": "_mintFee",
          "type": "uint256"
        }
      ],
      "name": "setMintFee",
      "outputs": [],
      "stateMutability": "nonpayable",
      "type": "function"
    },
    {
      "inputs": [
        {
          "internalType": "uint8",
          "name": "_totalAttackVictoryToGetReward",
          "type": "uint8"
        }
      ],
      "name": "setTotalAttackVictoryToGetReward",
      "outputs": [],
      "stateMutability": "nonpayable",
      "type": "function"
    },
    {
      "inputs": [
        {
          "internalType": "uint8",
          "name": "_totalFedToGetReward",
          "type": "uint8"
        }
      ],
      "name": "setTotalFedToGetReward",
      "outputs": [],
      "stateMutability": "nonpayable",
      "type": "function"
    },
    {
      "inputs": [
        {
          "internalType": "bytes4",
          "name": "interfaceId",
          "type": "bytes4"
        }
      ],
      "name": "supportsInterface",
      "outputs": [
        {
          "internalType": "bool",
          "name": "",
          "type": "bool"
        }
      ],
      "stateMutability": "view",
      "type": "function"
    },
    {
      "inputs": [
        {
          "internalType": "uint256",
          "name": "_tokenId",
          "type": "uint256"
        }
      ],
      "name": "tokenURI",
      "outputs": [
        {
          "internalType": "string",
          "name": "",
          "type": "string"
        }
      ],
      "stateMutability": "view",
      "type": "function"
    },
    {
      "inputs": [],
      "name": "totalAttackVictoryToGetReward",
      "outputs": [
        {
          "internalType": "uint8",
          "name": "",
          "type": "uint8"
        }
      ],
      "stateMutability": "view",
      "type": "function"
    },
    {
      "inputs": [],
      "name": "totalFedToGetReward",
      "outputs": [
        {
          "internalType": "uint8",
          "name": "",
          "type": "uint8"
        }
      ],
      "stateMutability": "view",
      "type": "function"
    },
    {
      "inputs": [
        {
          "internalType": "address",
          "name": "_from",
          "type": "address"
        },
        {
          "internalType": "address",
          "name": "_to",
          "type": "address"
        },
        {
          "internalType": "uint256",
          "name": "_tokenId",
          "type": "uint256"
        }
      ],
      "name": "transferFrom",
      "outputs": [],
      "stateMutability": "payable",
      "type": "function"
    },
    {
      "inputs": [
        {
          "internalType": "address",
          "name": "newOwner",
          "type": "address"
        }
      ],
      "name": "transferOwnership",
      "outputs": [],
      "stateMutability": "nonpayable",
      "type": "function"
    },
    {
      "inputs": [],
      "name": "withdraw",
      "outputs": [],
      "stateMutability": "nonpayable",
      "type": "function"
    },
    {
      "inputs": [
        {
          "internalType": "uint256",
          "name": "",
          "type": "uint256"
        }
      ],
      "name": "zombieToOwner",
      "outputs": [
        {
          "internalType": "address",
          "name": "",
          "type": "address"
        }
      ],
      "stateMutability": "view",
      "type": "function"
    },
    {
      "inputs": [
        {
          "internalType": "uint256",
          "name": "",
          "type": "uint256"
        }
      ],
      "name": "zombies",
      "outputs": [
        {
          "internalType": "string",
          "name": "name",
          "type": "string"
        },
        {
          "internalType": "uint256",
          "name": "dna",
          "type": "uint256"
        },
        {
          "internalType": "uint256",
          "name": "score",
          "type": "uint256"
        },
        {
          "internalType": "uint32",
          "name": "birthTime",
          "type": "uint32"
        },
        {
          "internalType": "uint32",
          "name": "level",
          "type": "uint32"
        },
        {
          "internalType": "uint32",
          "name": "attackReadyTime",
          "type": "uint32"
        },
        {
          "internalType": "uint32",
          "name": "fedReadyTime",
          "type": "uint32"
        },
        {
          "internalType": "uint16",
          "name": "winCount",
          "type": "uint16"
        },
        {
          "internalType": "uint16",
          "name": "lossCount",
          "type": "uint16"
        },
        {
          "internalType": "uint16",
          "name": "fedCount",
          "type": "uint16"
        }
      ],
      "stateMutability": "view",
      "type": "function"
    }
  ],
  "bytecode": "0x608060405260006001556010600255600254600a61001d9190610307565b6003556101f46004556000600555660aa87bee538000600655620151806007556138406008556007600960006101000a81548160ff021916908360ff160217905550600a600960016101000a81548160ff021916908360ff16021790555066038d7ea4c6800060105566071afd498d0000601155660e35fa931a0000601255600060135560326014556040518060600160405280602f8152602001615a05602f9139601590816100cd9190610598565b503480156100da57600080fd5b50336000806101000a81548173ffffffffffffffffffffffffffffffffffffffff021916908373ffffffffffffffffffffffffffffffffffffffff16021790555060008054906101000a900473ffffffffffffffffffffffffffffffffffffffff1673ffffffffffffffffffffffffffffffffffffffff16600073ffffffffffffffffffffffffffffffffffffffff167f8be0079c531659141344cd1fd0a4f28419497f9722a3daafe3b4186f6b6457e060405160405180910390a361066a565b7f4e487b7100000000000000000000000000000000000000000000000000000000600052601160045260246000fd5b60008160011c9050919050565b6000808291508390505b6001851115610221578086048111156101fd576101fc61019b565b5b600185161561020c5780820291505b808102905061021a856101ca565b94506101e1565b94509492505050565b60008261023a57600190506102f6565b8161024857600090506102f6565b816001811461025e576002811461026857610297565b60019150506102f6565b60ff84111561027a5761027961019b565b5b8360020a9150848211156102915761029061019b565b5b506102f6565b5060208310610133831016604e8410600b84101617156102cc5782820a9050838111156102c7576102c661019b565b5b6102f6565b6102d984848460016101d7565b925090508184048111156102f0576102ef61019b565b5b81810290505b9392505050565b6000819050919050565b6000610312826102fd565b915061031d836102fd565b925061034a7fffffffffffffffffffffffffffffffffffffffffffffffffffffffffffffffff848461022a565b905092915050565b600081519050919050565b7f4e487b7100000000000000000000000000000000000000000000000000000000600052604160045260246000fd5b7f4e487b7100000000000000000000000000000000000000000000000000000000600052602260045260246000fd5b600060028204905060018216806103d357607f821691505b6020821081036103e6576103e561038c565b5b50919050565b60008190508160005260206000209050919050565b60006020601f8301049050919050565b600082821b905092915050565b60006008830261044e7fffffffffffffffffffffffffffffffffffffffffffffffffffffffffffffffff82610411565b6104588683610411565b95508019841693508086168417925050509392505050565b6000819050919050565b600061049561049061048b846102fd565b610470565b6102fd565b9050919050565b6000819050919050565b6104af8361047a565b6104c36104bb8261049c565b84845461041e565b825550505050565b600090565b6104d86104cb565b6104e38184846104a6565b505050565b5b81811015610507576104fc6000826104d0565b6001810190506104e9565b5050565b601f82111561054c5761051d816103ec565b61052684610401565b81016020851015610535578190505b61054961054185610401565b8301826104e8565b50505b505050565b600082821c905092915050565b600061056f60001984600802610551565b1980831691505092915050565b6000610588838361055e565b9150826002028217905092915050565b6105a182610352565b67ffffffffffffffff8111156105ba576105b961035d565b5b6105c482546103bb565b6105cf82828561050b565b600060209050601f83116001811461060257600084156105f0578287015190505b6105fa858261057c565b865550610662565b601f198416610610866103ec565b60005b8281101561063857848901518255600182019150602085019450602081019050610613565b868310156106555784890151610651601f89168261055e565b8355505b6001600288020188555050505b505050505050565b61538c806106796000396000f3fe6080604052600436106102c95760003560e01c806370f47cf911610175578063bcad1fde116100dc578063d72f761d11610095578063eddd0d9c1161006f578063eddd0d9c14610a99578063f2a40db814610ac2578063f2fde38b14610aff578063f77de3a114610b28576102c9565b8063d72f761d14610a17578063d85d3d2714610a54578063e1fa763814610a70576102c9565b8063bcad1fde14610916578063c39cbef114610941578063c4114b121461095d578063c859f31714610988578063c87b56dd146109b1578063ccf670f8146109ee576102c9565b8063846e2c431161012e578063846e2c43146108165780638a48ac031461083f5780638da5cb5b1461086a5780638f32d59b14610895578063abbb1f29146108c0578063b69ef8a8146108eb576102c9565b806370f47cf914610730578063715018a61461075957806374e729f71461077057806376c7d8ca1461079b5780637a8936c1146107c45780637cb64759146107ed576102c9565b80634674463b116102345780635625d6d7116101ed57806369c8e14c116101c757806369c8e14c146106765780636be17f0e1461069f57806370a08231146106c857806370acbb6314610705576102c9565b80635625d6d7146105f25780635faf28801461061d5780636352211e14610639576102c9565b80634674463b146104cc57806349cee8e7146105095780634a10565a146105345780634f0951661461055f578063528b7b8f1461058a57806354c92c5f146105c7576102c9565b80631919b7e6116102865780631919b7e6146103c25780632052465e146103eb57806323b872dd146104315780632eb4a7ab1461044d5780633ccfd60b146104785780634412e1041461048f576102c9565b806301ffc9a7146102ce578063021cbcae1461030b57806306f3376014610336578063095ea7b31461035f5780630ce90ec21461037b57806313966db514610397575b600080fd5b3480156102da57600080fd5b506102f560048036038101906102f0919061380b565b610b51565b6040516103029190613853565b60405180910390f35b34801561031757600080fd5b50610320610bbb565b60405161032d9190613887565b60405180910390f35b34801561034257600080fd5b5061035d600480360381019061035891906138ce565b610bc1565b005b6103796004803603810190610374919061397f565b610c8a565b005b610395600480360381019061039091906139bf565b610da8565b005b3480156103a357600080fd5b506103ac610f0f565b6040516103b99190613887565b60405180910390f35b3480156103ce57600080fd5b506103e960048036038101906103e49190613b32565b610f15565b005b3480156103f757600080fd5b50610412600480360381019061040d91906139bf565b610f39565b6040516104289a99989796959493929190613c36565b60405180910390f35b61044b60048036038101906104469190613cd9565b61108f565b005b34801561045957600080fd5b506104626111a9565b60405161046f9190613d45565b60405180910390f35b34801561048457600080fd5b5061048d6111af565b005b34801561049b57600080fd5b506104b660048036038101906104b19190613d60565b611216565b6040516104c39190613e4b565b60405180910390f35b3480156104d857600080fd5b506104f360048036038101906104ee9190613e6d565b611363565b6040516105009190613f6b565b60405180910390f35b34801561051557600080fd5b5061051e611486565b60405161052b9190613fa9565b60405180910390f35b34801561054057600080fd5b50610549611499565b6040516105569190613887565b60405180910390f35b34801561056b57600080fd5b5061057461149f565b6040516105819190613887565b60405180910390f35b34801561059657600080fd5b506105b160048036038101906105ac91906139bf565b6114a5565b6040516105be9190613fd3565b60405180910390f35b3480156105d357600080fd5b506105dc6114d8565b6040516105e99190613fee565b60405180910390f35b3480156105fe57600080fd5b50610607611566565b6040516106149190613887565b60405180910390f35b61063760048036038101906106329190613e6d565b61156c565b005b34801561064557600080fd5b50610660600480360381019061065b91906139bf565b611727565b60405161066d9190613fd3565b60405180910390f35b34801561068257600080fd5b5061069d6004803603810190610698919061403c565b611764565b005b3480156106ab57600080fd5b506106c660048036038101906106c191906139bf565b611793565b005b3480156106d457600080fd5b506106ef60048036038101906106ea9190613d60565b6117ae565b6040516106fc9190613887565b60405180910390f35b34801561071157600080fd5b5061071a6117f7565b6040516107279190613887565b60405180910390f35b34801561073c57600080fd5b50610757600480360381019061075291906139bf565b6117fd565b005b34801561076557600080fd5b5061076e611818565b005b34801561077c57600080fd5b506107856118e7565b6040516107929190613fa9565b60405180910390f35b3480156107a757600080fd5b506107c260048036038101906107bd91906140c9565b6118fa565b005b3480156107d057600080fd5b506107eb60048036038101906107e691906139bf565b611b77565b005b3480156107f957600080fd5b50610814600480360381019061080f9190614142565b611b92565b005b34801561082257600080fd5b5061083d60048036038101906108389190613d60565b611bad565b005b34801561084b57600080fd5b50610854611bb9565b6040516108619190613f6b565b60405180910390f35b34801561087657600080fd5b5061087f611c47565b60405161088c9190613fd3565b60405180910390f35b3480156108a157600080fd5b506108aa611c70565b6040516108b79190613853565b60405180910390f35b3480156108cc57600080fd5b506108d5611cc7565b6040516108e29190613887565b60405180910390f35b3480156108f757600080fd5b50610900611cd4565b60405161090d9190613887565b60405180910390f35b34801561092257600080fd5b5061092b611ced565b6040516109389190613887565b60405180910390f35b61095b600480360381019061095691906141c5565b611cf3565b005b34801561096957600080fd5b50610972611eba565b60405161097f9190613887565b60405180910390f35b34801561099457600080fd5b506109af60048036038101906109aa919061403c565b611ec0565b005b3480156109bd57600080fd5b506109d860048036038101906109d391906139bf565b611eef565b6040516109e59190613fee565b60405180910390f35b3480156109fa57600080fd5b50610a156004803603810190610a1091906139bf565b611f5d565b005b348015610a2357600080fd5b50610a3e6004803603810190610a399190614225565b611f78565b604051610a4b9190613e4b565b60405180910390f35b610a6e6004803603810190610a699190613b32565b612116565b005b348015610a7c57600080fd5b50610a976004803603810190610a929190613e6d565b6121ac565b005b348015610aa557600080fd5b50610ac06004803603810190610abb91906139bf565b61259c565b005b348015610ace57600080fd5b50610ae96004803603810190610ae491906139bf565b6125b7565b604051610af69190613fd3565b60405180910390f35b348015610b0b57600080fd5b50610b266004803603810190610b219190613d60565b6125f6565b005b348015610b3457600080fd5b50610b4f6004803603810190610b4a91906139bf565b612613565b005b60007f39147641000000000000000000000000000000000000000000000000000000007bffffffffffffffffffffffffffffffffffffffffffffffffffffffff1916827bffffffffffffffffffffffffffffffffffffffffffffffffffffffff1916149050919050565b60055481565b6000600b8481548110610bd757610bd6614278565b5b906000526020600020906004020190506000610c2985856040518060400160405280600581526020017f6b6974747900000000000000000000000000000000000000000000000000000081525061262e565b90503373ffffffffffffffffffffffffffffffffffffffff167f94bd9f81959636fb1ddd32f8bcbdab8b649d20a6a464f759a1aa7f7cf4447fac8360010154868685604051610c7b94939291906142a7565b60405180910390a25050505050565b80600d600082815260200190815260200160002060009054906101000a900473ffffffffffffffffffffffffffffffffffffffff1673ffffffffffffffffffffffffffffffffffffffff163373ffffffffffffffffffffffffffffffffffffffff1614610cf657600080fd5b826016600084815260200190815260200160002060006101000a81548173ffffffffffffffffffffffffffffffffffffffff021916908373ffffffffffffffffffffffffffffffffffffffff160217905550818373ffffffffffffffffffffffffffffffffffffffff163373ffffffffffffffffffffffffffffffffffffffff167f8c5be1e5ebec7d5bd14f71427d1e84f3dd0314c0f7b2291e5b200ac8c7c3b92560405160405180910390a4505050565b60105480341015610db8826127ac565b604051602001610dc8919061434e565b60405160208183030381529060405290610e18576040517f08c379a0000000000000000000000000000000000000000000000000000000008152600401610e0f9190613fee565b60405180910390fd5b5081600d600082815260200190815260200160002060009054906101000a900473ffffffffffffffffffffffffffffffffffffffff1673ffffffffffffffffffffffffffffffffffffffff163373ffffffffffffffffffffffffffffffffffffffff1614610e8557600080fd5b6001600b8481548110610e9b57610e9a614278565b5b906000526020600020906004020160030160049054906101000a900463ffffffff16610ec791906143a3565b600b8481548110610edb57610eda614278565b5b906000526020600020906004020160030160046101000a81548163ffffffff021916908363ffffffff160217905550505050565b60065481565b610f1d611c70565b610f2657600080fd5b8060159081610f3591906145e7565b5050565b600b8181548110610f4957600080fd5b9060005260206000209060040201600091509050806000018054610f6c9061440a565b80601f0160208091040260200160405190810160405280929190818152602001828054610f989061440a565b8015610fe55780601f10610fba57610100808354040283529160200191610fe5565b820191906000526020600020905b815481529060010190602001808311610fc857829003601f168201915b5050505050908060010154908060020154908060030160009054906101000a900463ffffffff16908060030160049054906101000a900463ffffffff16908060030160089054906101000a900463ffffffff169080600301600c9054906101000a900463ffffffff16908060030160109054906101000a900461ffff16908060030160129054906101000a900461ffff16908060030160149054906101000a900461ffff1690508a565b3373ffffffffffffffffffffffffffffffffffffffff16600d600083815260200190815260200160002060009054906101000a900473ffffffffffffffffffffffffffffffffffffffff1673ffffffffffffffffffffffffffffffffffffffff16148061115a57503373ffffffffffffffffffffffffffffffffffffffff166016600083815260200190815260200160002060009054906101000a900473ffffffffffffffffffffffffffffffffffffffff1673ffffffffffffffffffffffffffffffffffffffff16145b611199576040517f08c379a000000000000000000000000000000000000000000000000000000000815260040161119090614705565b60405180910390fd5b6111a483838361287a565b505050565b600a5481565b6111b7611c70565b6111c057600080fd5b60006111ca611c47565b90508073ffffffffffffffffffffffffffffffffffffffff166108fc479081150290604051600060405180830381858888f19350505050158015611212573d6000803e3d6000fd5b5050565b60606000600e60008473ffffffffffffffffffffffffffffffffffffffff1673ffffffffffffffffffffffffffffffffffffffff1681526020019081526020016000205467ffffffffffffffff81111561127357611272613a07565b5b6040519080825280602002602001820160405280156112a15781602001602082028036833780820191505090505b5090506000805b600b80549050811015611358578473ffffffffffffffffffffffffffffffffffffffff16600d600083815260200190815260200160002060009054906101000a900473ffffffffffffffffffffffffffffffffffffffff1673ffffffffffffffffffffffffffffffffffffffff160361134b578083838151811061132f5761132e614278565b5b6020026020010181815250506001826113489190614725565b91505b80806001019150506112a8565b508192505050919050565b6060600080611378600c805490508686612a4a565b509150915060008167ffffffffffffffff81111561139957611398613a07565b5b6040519080825280602002602001820160405280156113c75781602001602082028036833780820191505090505b50905060005b8281101561147957600c81856113e39190614725565b815481106113f4576113f3614278565b5b9060005260206000200160009054906101000a900473ffffffffffffffffffffffffffffffffffffffff1682828151811061143257611431614278565b5b602002602001019073ffffffffffffffffffffffffffffffffffffffff16908173ffffffffffffffffffffffffffffffffffffffff168152505080806001019150506113cd565b5080935050505092915050565b600960009054906101000a900460ff1681565b60045481565b60115481565b600d6020528060005260406000206000915054906101000a900473ffffffffffffffffffffffffffffffffffffffff1681565b601580546114e59061440a565b80601f01602080910402602001604051908101604052809291908181526020018280546115119061440a565b801561155e5780601f106115335761010080835404028352916020019161155e565b820191906000526020600020905b81548152906001019060200180831161154157829003601f168201915b505050505081565b60075481565b6012548034101561157c826127ac565b60405160200161158c919061434e565b604051602081830303815290604052906115dc576040517f08c379a00000000000000000000000000000000000000000000000000000000081526004016115d39190613fee565b60405180910390fd5b5060148381600b82815481106115f5576115f4614278565b5b906000526020600020906004020160030160049054906101000a900463ffffffff1663ffffffff161015611628836127ac565b604051602001611638919061477f565b60405160208183030381529060405290611688576040517f08c379a000000000000000000000000000000000000000000000000000000000815260040161167f9190613fee565b60405180910390fd5b5084600d600082815260200190815260200160002060009054906101000a900473ffffffffffffffffffffffffffffffffffffffff1673ffffffffffffffffffffffffffffffffffffffff163373ffffffffffffffffffffffffffffffffffffffff16146116f557600080fd5b84600b878154811061170a57611709614278565b5b906000526020600020906004020160010181905550505050505050565b6000600d600083815260200190815260200160002060009054906101000a900473ffffffffffffffffffffffffffffffffffffffff169050919050565b61176c611c70565b61177557600080fd5b80600960006101000a81548160ff021916908360ff16021790555050565b61179b611c70565b6117a457600080fd5b8060118190555050565b6000600e60008373ffffffffffffffffffffffffffffffffffffffff1673ffffffffffffffffffffffffffffffffffffffff168152602001908152602001600020549050919050565b60125481565b611805611c70565b61180e57600080fd5b8060128190555050565b611820611c70565b61182957600080fd5b600073ffffffffffffffffffffffffffffffffffffffff1660008054906101000a900473ffffffffffffffffffffffffffffffffffffffff1673ffffffffffffffffffffffffffffffffffffffff167f8be0079c531659141344cd1fd0a4f28419497f9722a3daafe3b4186f6b6457e060405160405180910390a360008060006101000a81548173ffffffffffffffffffffffffffffffffffffffff021916908373ffffffffffffffffffffffffffffffffffffffff160217905550565b600960019054906101000a900460ff1681565b6004546005541061190c6004546127ac565b60405160200161191c91906147cb565b6040516020818303038152906040529061196c576040517f08c379a00000000000000000000000000000000000000000000000000000000081526004016119639190613fee565b60405180910390fd5b50600f60003373ffffffffffffffffffffffffffffffffffffffff1673ffffffffffffffffffffffffffffffffffffffff16815260200190815260200160002060009054906101000a900460ff16156119fa576040517f08c379a00000000000000000000000000000000000000000000000000000000081526004016119f19061483d565b60405180910390fd5b600033604051602001611a0d91906148a5565b604051602081830303815290604052805190602001209050611a73838380806020026020016040519081016040528093929190818152602001838360200280828437600081840152601f19601f82011690508083019250505050505050600a5483612ae1565b611ab2576040517f08c379a0000000000000000000000000000000000000000000000000000000008152600401611aa99061490c565b60405180910390fd5b6000611abf6001546127ac565b604051602001611acf9190614952565b60405160208183030381529060405290506000611aeb82612af8565b9050611af78282612b6d565b611b0033612f19565b6001600f60003373ffffffffffffffffffffffffffffffffffffffff1673ffffffffffffffffffffffffffffffffffffffff16815260200190815260200160002060006101000a81548160ff02191690831515021790555060056000815480929190611b6b90614978565b91905055505050505050565b611b7f611c70565b611b8857600080fd5b8060078190555050565b611b9a611c70565b611ba357600080fd5b80600a8190555050565b611bb681612f19565b50565b6060600c805480602002602001604051908101604052809291908181526020018280548015611c3d57602002820191906000526020600020905b8160009054906101000a900473ffffffffffffffffffffffffffffffffffffffff1673ffffffffffffffffffffffffffffffffffffffff1681526020019060010190808311611bf3575b5050505050905090565b60008060009054906101000a900473ffffffffffffffffffffffffffffffffffffffff16905090565b60008060009054906101000a900473ffffffffffffffffffffffffffffffffffffffff1673ffffffffffffffffffffffffffffffffffffffff163373ffffffffffffffffffffffffffffffffffffffff1614905090565b6000600c80549050905090565b6000611cde611c70565b611ce757600080fd5b47905090565b60085481565b60115480341015611d03826127ac565b604051602001611d13919061434e565b60405160208183030381529060405290611d63576040517f08c379a0000000000000000000000000000000000000000000000000000000008152600401611d5a9190613fee565b60405180910390fd5b5060028481600b8281548110611d7c57611d7b614278565b5b906000526020600020906004020160030160049054906101000a900463ffffffff1663ffffffff161015611daf836127ac565b604051602001611dbf919061477f565b60405160208183030381529060405290611e0f576040517f08c379a0000000000000000000000000000000000000000000000000000000008152600401611e069190613fee565b60405180910390fd5b5085600d600082815260200190815260200160002060009054906101000a900473ffffffffffffffffffffffffffffffffffffffff1673ffffffffffffffffffffffffffffffffffffffff163373ffffffffffffffffffffffffffffffffffffffff1614611e7c57600080fd5b8585600b8981548110611e9257611e91614278565b5b90600052602060002090600402016000019182611eb09291906149cb565b5050505050505050565b60105481565b611ec8611c70565b611ed157600080fd5b80600960016101000a81548160ff021916908360ff16021790555050565b60606000600b8381548110611f0757611f06614278565b5b906000526020600020906004020190506015611f22846127ac565b82600001611f3384600101546127ac565b604051602001611f469493929190614b6a565b604051602081830303815290604052915050919050565b611f65611c70565b611f6e57600080fd5b8060108190555050565b60606000806000611fc9600e60008973ffffffffffffffffffffffffffffffffffffffff1673ffffffffffffffffffffffffffffffffffffffff168152602001908152602001600020548787612a4a565b92509250925060008267ffffffffffffffff811115611feb57611fea613a07565b5b6040519080825280602002602001820160405280156120195781602001602082028036833780820191505090505b50905060008060005b600b805490508110801561203557508583105b15612105578a73ffffffffffffffffffffffffffffffffffffffff16600d600083815260200190815260200160002060009054906101000a900473ffffffffffffffffffffffffffffffffffffffff1673ffffffffffffffffffffffffffffffffffffffff16036120f2578682101580156120af57508482105b156120e357808484815181106120c8576120c7614278565b5b60200260200101818152505082806120df90614978565b9350505b81806120ee90614978565b9250505b80806120fd90614978565b915050612022565b508296505050505050509392505050565b60065480341015612126826127ac565b604051602001612136919061434e565b60405160208183030381529060405290612186576040517f08c379a000000000000000000000000000000000000000000000000000000000815260040161217d9190613fee565b60405180910390fd5b50600061219283612af8565b905061219e8382612b6d565b6121a733612f19565b505050565b81600d600082815260200190815260200160002060009054906101000a900473ffffffffffffffffffffffffffffffffffffffff1673ffffffffffffffffffffffffffffffffffffffff163373ffffffffffffffffffffffffffffffffffffffff161461221857600080fd5b6000600b848154811061222e5761222d614278565b5b906000526020600020906004020190506122478161300f565b612286576040517f08c379a000000000000000000000000000000000000000000000000000000000815260040161227d90614c21565b60405180910390fd5b6000600b848154811061229c5761229b614278565b5b9060005260206000209060040201905060006122b88383613036565b9050600060644233896040516020016122d393929190614c62565b6040516020818303038152906040528051906020012060001c6122f69190614cce565b90508181116124ad5783600301601081819054906101000a900461ffff168092919061232190614cff565b91906101000a81548161ffff021916908361ffff1602179055505083600301600481819054906101000a900463ffffffff168092919061236090614d29565b91906101000a81548163ffffffff021916908363ffffffff1602179055505082600301601281819054906101000a900461ffff16809291906123a190614cff565b91906101000a81548161ffff021916908361ffff160217905550506123c584613172565b6123ce83613172565b600080600960009054906101000a900460ff1660ff168660030160109054906101000a900461ffff166124019190614d55565b61ffff160361245557612452856001015485600101546040518060400160405280600681526020017f7a6f6d6269650000000000000000000000000000000000000000000000000000815250613218565b90505b3373ffffffffffffffffffffffffffffffffffffffff167f750a7c18ca7f7bd87c6e50678ea7fa4f64d0cb733bb68cdac552d009737b471689898460405161249f93929190614d86565b60405180910390a250612593565b83600301601281819054906101000a900461ffff16809291906124cf90614cff565b91906101000a81548161ffff021916908361ffff1602179055505082600301601081819054906101000a900461ffff168092919061250c90614cff565b91906101000a81548161ffff021916908361ffff1602179055505061253084613172565b61253983613172565b61254284613308565b3373ffffffffffffffffffffffffffffffffffffffff167f4fa78061bb2783669831d2e2aa9ca18cb698e098923982bfada46ceaf1516d6a888860405161258a929190614dbd565b60405180910390a25b50505050505050565b6125a4611c70565b6125ad57600080fd5b8060068190555050565b600c81815481106125c757600080fd5b906000526020600020016000915054906101000a900473ffffffffffffffffffffffffffffffffffffffff1681565b6125fe611c70565b61260757600080fd5b6126108161333b565b50565b61261b611c70565b61262457600080fd5b8060088190555050565b600083600d600082815260200190815260200160002060009054906101000a900473ffffffffffffffffffffffffffffffffffffffff1673ffffffffffffffffffffffffffffffffffffffff163373ffffffffffffffffffffffffffffffffffffffff161461269c57600080fd5b6000600b86815481106126b2576126b1614278565b5b906000526020600020906004020190506126cb81613431565b61270a576040517f08c379a000000000000000000000000000000000000000000000000000000000815260040161270190614e32565b60405180910390fd5b600081600301601481819054906101000a900461ffff168092919061272e90614cff565b91906101000a81548161ffff021916908361ffff160217905550506000600960019054906101000a900460ff1660ff168360030160149054906101000a900461ffff1661277b9190614d55565b61ffff16036127965761279382600101548787613218565b90505b61279f82613458565b8093505050509392505050565b6060600060016127bb8461348b565b01905060008167ffffffffffffffff8111156127da576127d9613a07565b5b6040519080825280601f01601f19166020018201604052801561280c5781602001600182028036833780820191505090505b509050600082602001820190505b60011561286f578080600190039150507f3031323334353637383961626364656600000000000000000000000000000000600a86061a8153600a858161286357612862614c9f565b5b0494506000850361281a575b819350505050919050565b6001600e60008473ffffffffffffffffffffffffffffffffffffffff1673ffffffffffffffffffffffffffffffffffffffff168152602001908152602001600020546128c69190614725565b600e60008473ffffffffffffffffffffffffffffffffffffffff1673ffffffffffffffffffffffffffffffffffffffff168152602001908152602001600020819055506001600e60008573ffffffffffffffffffffffffffffffffffffffff1673ffffffffffffffffffffffffffffffffffffffff168152602001908152602001600020546129559190614e52565b600e60008573ffffffffffffffffffffffffffffffffffffffff1673ffffffffffffffffffffffffffffffffffffffff1681526020019081526020016000208190555081600d600083815260200190815260200160002060006101000a81548173ffffffffffffffffffffffffffffffffffffffff021916908373ffffffffffffffffffffffffffffffffffffffff160217905550808273ffffffffffffffffffffffffffffffffffffffff168473ffffffffffffffffffffffffffffffffffffffff167fddf252ad1be2c89b69c2b068fc378daa952ba7f163c4a11628f55a4df523b3ef60405160405180910390a4505050565b6000806000808486612a5c9190614e86565b9050868110612aa0576040517f08c379a0000000000000000000000000000000000000000000000000000000008152600401612a9790614f14565b60405180910390fd5b60008582612aae9190614725565b905087811115612abc578790505b60008282612aca9190614e52565b905082818395509550955050505093509350939050565b600082612aee85846135de565b1490509392505050565b600060016000815480929190612b0d90614978565b91905055506000826001544233600143612b279190614e52565b40604051602001612b3c959493929190614f55565b6040516020818303038152906040528051906020012060001c905060035481612b659190614cce565b915050919050565b6000825111612bb1576040517f08c379a0000000000000000000000000000000000000000000000000000000008152600401612ba890614ffc565b60405180910390fd5b808114612bf3576040517f08c379a0000000000000000000000000000000000000000000000000000000008152600401612bea90615068565b60405180910390fd5b60004290506000604051806101400160405280858152602001848152602001600081526020018363ffffffff168152602001600163ffffffff1681526020018363ffffffff1681526020018363ffffffff168152602001600061ffff168152602001600061ffff168152602001600061ffff168152509050600b8190806001815401808255809150506001900390600052602060002090600402016000909190919091506000820151816000019081612cac91906145e7565b50602082015181600101556040820151816002015560608201518160030160006101000a81548163ffffffff021916908363ffffffff16021790555060808201518160030160046101000a81548163ffffffff021916908363ffffffff16021790555060a08201518160030160086101000a81548163ffffffff021916908363ffffffff16021790555060c082015181600301600c6101000a81548163ffffffff021916908363ffffffff16021790555060e08201518160030160106101000a81548161ffff021916908361ffff1602179055506101008201518160030160126101000a81548161ffff021916908361ffff1602179055506101208201518160030160146101000a81548161ffff021916908361ffff160217905550505060006001600b80549050612dde9190614e52565b905033600d600083815260200190815260200160002060006101000a81548173ffffffffffffffffffffffffffffffffffffffff021916908373ffffffffffffffffffffffffffffffffffffffff1602179055506001600e60003373ffffffffffffffffffffffffffffffffffffffff1673ffffffffffffffffffffffffffffffffffffffff16815260200190815260200160002054612e7e9190614725565b600e60003373ffffffffffffffffffffffffffffffffffffffff1673ffffffffffffffffffffffffffffffffffffffff16815260200190815260200160002081905550803373ffffffffffffffffffffffffffffffffffffffff167ff92b1ba4cb9ae7683c3a3a1e58273b24013547531f590e32910f3105e8349e1f8787604051612f0a929190615088565b60405180910390a35050505050565b6000600e60008373ffffffffffffffffffffffffffffffffffffffff1673ffffffffffffffffffffffffffffffffffffffff1681526020019081526020016000205411612f9b576040517f08c379a0000000000000000000000000000000000000000000000000000000008152600401612f929061512a565b60405180910390fd5b612fa48161362e565b61300c57600c819080600181540180825580915050600190039060005260206000200160009091909190916101000a81548173ffffffffffffffffffffffffffffffffffffffff021916908373ffffffffffffffffffffffffffffffffffffffff1602179055505b50565b6000428260030160089054906101000a900463ffffffff1663ffffffff1611159050919050565b600080601454905060008360030160049054906101000a900463ffffffff168560030160049054906101000a900463ffffffff166130749190615157565b905060008160030b13156130a75760028161308f91906151b3565b63ffffffff16826130a09190614725565b91506130de565b60008160030b12156130dd576002816130bf906151f0565b6130c991906151b3565b63ffffffff16826130da9190614e52565b91505b5b6000806130ee87600101546136d6565b5091509150600061310287600101546136d6565b925050506000600a82846002876131199190614e86565b6131239190614725565b61312d9190614e52565b6131379190615238565b905080866131459190614725565b9550605a86111561315557605a95505b601e86101561316357601e95505b85965050505050505092915050565b600060038260030160129054906101000a900461ffff166131939190615269565b61ffff1660058360030160109054906101000a900461ffff166131b69190615269565b61ffff16600a8460030160049054906101000a900463ffffffff166131db91906151b3565b6131e591906143a3565b6131ef91906152a6565b9050600a8163ffffffff16101561320557600a90505b8063ffffffff1682600201819055505050565b6000600354836132289190614cce565b925060006002848661323a9190614725565b6132449190615238565b90506040516020016132559061532a565b604051602081830303815290604052805190602001208360405160200161327c919061533f565b60405160208183030381529060405280519060200120036132be5760636064826132a69190614cce565b826132b19190614e52565b6132bb9190614725565b90505b6132fd6040518060400160405280600681526020017f4e6f4e616d65000000000000000000000000000000000000000000000000000081525082612b6d565b809150509392505050565b600754426133169190614725565b8160030160086101000a81548163ffffffff021916908363ffffffff16021790555050565b600073ffffffffffffffffffffffffffffffffffffffff168173ffffffffffffffffffffffffffffffffffffffff160361337457600080fd5b8073ffffffffffffffffffffffffffffffffffffffff1660008054906101000a900473ffffffffffffffffffffffffffffffffffffffff1673ffffffffffffffffffffffffffffffffffffffff167f8be0079c531659141344cd1fd0a4f28419497f9722a3daafe3b4186f6b6457e060405160405180910390a3806000806101000a81548173ffffffffffffffffffffffffffffffffffffffff021916908373ffffffffffffffffffffffffffffffffffffffff16021790555050565b60004282600301600c9054906101000a900463ffffffff1663ffffffff1611159050919050565b600854426134669190614725565b81600301600c6101000a81548163ffffffff021916908363ffffffff16021790555050565b600080600090507a184f03e93ff9f4daa797ed6e38ed64bf6a1f01000000000000000083106134e9577a184f03e93ff9f4daa797ed6e38ed64bf6a1f01000000000000000083816134df576134de614c9f565b5b0492506040810190505b6d04ee2d6d415b85acef81000000008310613526576d04ee2d6d415b85acef8100000000838161351c5761351b614c9f565b5b0492506020810190505b662386f26fc10000831061355557662386f26fc10000838161354b5761354a614c9f565b5b0492506010810190505b6305f5e100831061357e576305f5e100838161357457613573614c9f565b5b0492506008810190505b61271083106135a357612710838161359957613598614c9f565b5b0492506004810190505b606483106135c657606483816135bc576135bb614c9f565b5b0492506002810190505b600a83106135d5576001810190505b80915050919050565b60008082905060005b8451811015613623576136148286838151811061360757613606614278565b5b602002602001015161375d565b915080806001019150506135e7565b508091505092915050565b6000806000905060005b600c805490508110156136cc578373ffffffffffffffffffffffffffffffffffffffff16600c82815481106136705761366f614278565b5b9060005260206000200160009054906101000a900473ffffffffffffffffffffffffffffffffffffffff1673ffffffffffffffffffffffffffffffffffffffff16036136bf57600191506136cc565b8080600101915050613638565b5080915050919050565b6000806000806032856136e99190614cce565b60326136f59190614725565b9050600060326064876137089190615238565b6137129190614cce565b603261371e9190614725565b905060006032612710886137329190615238565b61373c9190614cce565b60326137489190614725565b90508282829550955095505050509193909250565b6000818310613775576137708284613788565b613780565b61377f8383613788565b5b905092915050565b600082600052816020526040600020905092915050565b6000604051905090565b600080fd5b600080fd5b60007fffffffff0000000000000000000000000000000000000000000000000000000082169050919050565b6137e8816137b3565b81146137f357600080fd5b50565b600081359050613805816137df565b92915050565b600060208284031215613821576138206137a9565b5b600061382f848285016137f6565b91505092915050565b60008115159050919050565b61384d81613838565b82525050565b60006020820190506138686000830184613844565b92915050565b6000819050919050565b6138818161386e565b82525050565b600060208201905061389c6000830184613878565b92915050565b6138ab8161386e565b81146138b657600080fd5b50565b6000813590506138c8816138a2565b92915050565b6000806000606084860312156138e7576138e66137a9565b5b60006138f5868287016138b9565b9350506020613906868287016138b9565b9250506040613917868287016138b9565b9150509250925092565b600073ffffffffffffffffffffffffffffffffffffffff82169050919050565b600061394c82613921565b9050919050565b61395c81613941565b811461396757600080fd5b50565b60008135905061397981613953565b92915050565b60008060408385031215613996576139956137a9565b5b60006139a48582860161396a565b92505060206139b5858286016138b9565b9150509250929050565b6000602082840312156139d5576139d46137a9565b5b60006139e3848285016138b9565b91505092915050565b600080fd5b600080fd5b6000601f19601f8301169050919050565b7f4e487b7100000000000000000000000000000000000000000000000000000000600052604160045260246000fd5b613a3f826139f6565b810181811067ffffffffffffffff82111715613a5e57613a5d613a07565b5b80604052505050565b6000613a7161379f565b9050613a7d8282613a36565b919050565b600067ffffffffffffffff821115613a9d57613a9c613a07565b5b613aa6826139f6565b9050602081019050919050565b82818337600083830152505050565b6000613ad5613ad084613a82565b613a67565b905082815260208101848484011115613af157613af06139f1565b5b613afc848285613ab3565b509392505050565b600082601f830112613b1957613b186139ec565b5b8135613b29848260208601613ac2565b91505092915050565b600060208284031215613b4857613b476137a9565b5b600082013567ffffffffffffffff811115613b6657613b656137ae565b5b613b7284828501613b04565b91505092915050565b600081519050919050565b600082825260208201905092915050565b60005b83811015613bb5578082015181840152602081019050613b9a565b60008484015250505050565b6000613bcc82613b7b565b613bd68185613b86565b9350613be6818560208601613b97565b613bef816139f6565b840191505092915050565b600063ffffffff82169050919050565b613c1381613bfa565b82525050565b600061ffff82169050919050565b613c3081613c19565b82525050565b6000610140820190508181036000830152613c51818d613bc1565b9050613c60602083018c613878565b613c6d604083018b613878565b613c7a606083018a613c0a565b613c876080830189613c0a565b613c9460a0830188613c0a565b613ca160c0830187613c0a565b613cae60e0830186613c27565b613cbc610100830185613c27565b613cca610120830184613c27565b9b9a5050505050505050505050565b600080600060608486031215613cf257613cf16137a9565b5b6000613d008682870161396a565b9350506020613d118682870161396a565b9250506040613d22868287016138b9565b9150509250925092565b6000819050919050565b613d3f81613d2c565b82525050565b6000602082019050613d5a6000830184613d36565b92915050565b600060208284031215613d7657613d756137a9565b5b6000613d848482850161396a565b91505092915050565b600081519050919050565b600082825260208201905092915050565b6000819050602082019050919050565b613dc28161386e565b82525050565b6000613dd48383613db9565b60208301905092915050565b6000602082019050919050565b6000613df882613d8d565b613e028185613d98565b9350613e0d83613da9565b8060005b83811015613e3e578151613e258882613dc8565b9750613e3083613de0565b925050600181019050613e11565b5085935050505092915050565b60006020820190508181036000830152613e658184613ded565b905092915050565b60008060408385031215613e8457613e836137a9565b5b6000613e92858286016138b9565b9250506020613ea3858286016138b9565b9150509250929050565b600081519050919050565b600082825260208201905092915050565b6000819050602082019050919050565b613ee281613941565b82525050565b6000613ef48383613ed9565b60208301905092915050565b6000602082019050919050565b6000613f1882613ead565b613f228185613eb8565b9350613f2d83613ec9565b8060005b83811015613f5e578151613f458882613ee8565b9750613f5083613f00565b925050600181019050613f31565b5085935050505092915050565b60006020820190508181036000830152613f858184613f0d565b905092915050565b600060ff82169050919050565b613fa381613f8d565b82525050565b6000602082019050613fbe6000830184613f9a565b92915050565b613fcd81613941565b82525050565b6000602082019050613fe86000830184613fc4565b92915050565b600060208201905081810360008301526140088184613bc1565b905092915050565b61401981613f8d565b811461402457600080fd5b50565b60008135905061403681614010565b92915050565b600060208284031215614052576140516137a9565b5b600061406084828501614027565b91505092915050565b600080fd5b600080fd5b60008083601f840112614089576140886139ec565b5b8235905067ffffffffffffffff8111156140a6576140a5614069565b5b6020830191508360208202830111156140c2576140c161406e565b5b9250929050565b600080602083850312156140e0576140df6137a9565b5b600083013567ffffffffffffffff8111156140fe576140fd6137ae565b5b61410a85828601614073565b92509250509250929050565b61411f81613d2c565b811461412a57600080fd5b50565b60008135905061413c81614116565b92915050565b600060208284031215614158576141576137a9565b5b60006141668482850161412d565b91505092915050565b60008083601f840112614185576141846139ec565b5b8235905067ffffffffffffffff8111156141a2576141a1614069565b5b6020830191508360018202830111156141be576141bd61406e565b5b9250929050565b6000806000604084860312156141de576141dd6137a9565b5b60006141ec868287016138b9565b935050602084013567ffffffffffffffff81111561420d5761420c6137ae565b5b6142198682870161416f565b92509250509250925092565b60008060006060848603121561423e5761423d6137a9565b5b600061424c8682870161396a565b935050602061425d868287016138b9565b925050604061426e868287016138b9565b9150509250925092565b7f4e487b7100000000000000000000000000000000000000000000000000000000600052603260045260246000fd5b60006080820190506142bc6000830187613878565b6142c96020830186613878565b6142d66040830185613878565b6142e36060830184613878565b95945050505050565b7f5072696365206d696e696d756d20697320000000000000000000000000000000815250565b600081905092915050565b600061432882613b7b565b6143328185614312565b9350614342818560208601613b97565b80840191505092915050565b6000614359826142ec565b601182019150614369828461431d565b915081905092915050565b7f4e487b7100000000000000000000000000000000000000000000000000000000600052601160045260246000fd5b60006143ae82613bfa565b91506143b983613bfa565b9250828201905063ffffffff8111156143d5576143d4614374565b5b92915050565b7f4e487b7100000000000000000000000000000000000000000000000000000000600052602260045260246000fd5b6000600282049050600182168061442257607f821691505b602082108103614435576144346143db565b5b50919050565b60008190508160005260206000209050919050565b60006020601f8301049050919050565b600082821b905092915050565b60006008830261449d7fffffffffffffffffffffffffffffffffffffffffffffffffffffffffffffffff82614460565b6144a78683614460565b95508019841693508086168417925050509392505050565b6000819050919050565b60006144e46144df6144da8461386e565b6144bf565b61386e565b9050919050565b6000819050919050565b6144fe836144c9565b61451261450a826144eb565b84845461446d565b825550505050565b600090565b61452761451a565b6145328184846144f5565b505050565b5b818110156145565761454b60008261451f565b600181019050614538565b5050565b601f82111561459b5761456c8161443b565b61457584614450565b81016020851015614584578190505b61459861459085614450565b830182614537565b50505b505050565b600082821c905092915050565b60006145be600019846008026145a0565b1980831691505092915050565b60006145d783836145ad565b9150826002028217905092915050565b6145f082613b7b565b67ffffffffffffffff81111561460957614608613a07565b5b614613825461440a565b61461e82828561455a565b600060209050601f831160018114614651576000841561463f578287015190505b61464985826145cb565b8655506146b1565b601f19841661465f8661443b565b60005b8281101561468757848901518255600182019150602085019450602081019050614662565b868310156146a457848901516146a0601f8916826145ad565b8355505b6001600288020188555050505b505050505050565b7f596f7520617265206e6f74206f776e6572206f7220617070726f7665642e0000600082015250565b60006146ef601e83613b86565b91506146fa826146b9565b602082019050919050565b6000602082019050818103600083015261471e816146e2565b9050919050565b60006147308261386e565b915061473b8361386e565b925082820190508082111561475357614752614374565b5b92915050565b7f4c6576656c206d696e2e20697320000000000000000000000000000000000000815250565b600061478a82614759565b600e8201915061479a828461431d565b915081905092915050565b7f4f6e6c7920000000000000000000000000000000000000000000000000000000815250565b60006147d6826147a5565b6005820191506147e6828461431d565b915081905092915050565b7f4f6e65206d696e7420706572206163636f756e74000000000000000000000000600082015250565b6000614827601483613b86565b9150614832826147f1565b602082019050919050565b600060208201905081810360008301526148568161481a565b9050919050565b60008160601b9050919050565b60006148758261485d565b9050919050565b60006148878261486a565b9050919050565b61489f61489a82613941565b61487c565b82525050565b60006148b1828461488e565b60148201915081905092915050565b7f496e76616c69642070726f6f6600000000000000000000000000000000000000600082015250565b60006148f6600d83613b86565b9150614901826148c0565b602082019050919050565b60006020820190508181036000830152614925816148e9565b9050919050565b7f5a6f6d6269652000000000000000000000000000000000000000000000000000815250565b600061495d8261492c565b60078201915061496d828461431d565b915081905092915050565b60006149838261386e565b91507fffffffffffffffffffffffffffffffffffffffffffffffffffffffffffffffff82036149b5576149b4614374565b5b600182019050919050565b600082905092915050565b6149d583836149c0565b67ffffffffffffffff8111156149ee576149ed613a07565b5b6149f8825461440a565b614a0382828561455a565b6000601f831160018114614a325760008415614a20578287013590505b614a2a85826145cb565b865550614a92565b601f198416614a408661443b565b60005b82811015614a6857848901358255600182019150602085019450602081019050614a43565b86831015614a855784890135614a81601f8916826145ad565b8355505b6001600288020188555050505b50505050505050565b60008154614aa88161440a565b614ab28186614312565b94506001821660008114614acd5760018114614ae257614b15565b60ff1983168652811515820286019350614b15565b614aeb8561443b565b60005b83811015614b0d57815481890152600182019150602081019050614aee565b838801955050505b50505092915050565b7f2f00000000000000000000000000000000000000000000000000000000000000815250565b7f2e6a736f6e000000000000000000000000000000000000000000000000000000815250565b6000614b768287614a9b565b9150614b82828661431d565b9150614b8d82614b1e565b600182019150614b9d8285614a9b565b9150614ba882614b1e565b600182019150614bb8828461431d565b9150614bc382614b44565b60058201915081905095945050505050565b7f49742773206e6f7420726561647920746f2061747461636b0000000000000000600082015250565b6000614c0b601883613b86565b9150614c1682614bd5565b602082019050919050565b60006020820190508181036000830152614c3a81614bfe565b9050919050565b6000819050919050565b614c5c614c578261386e565b614c41565b82525050565b6000614c6e8286614c4b565b602082019150614c7e828561488e565b601482019150614c8e8284614c4b565b602082019150819050949350505050565b7f4e487b7100000000000000000000000000000000000000000000000000000000600052601260045260246000fd5b6000614cd98261386e565b9150614ce48361386e565b925082614cf457614cf3614c9f565b5b828206905092915050565b6000614d0a82613c19565b915061ffff8203614d1e57614d1d614374565b5b600182019050919050565b6000614d3482613bfa565b915063ffffffff8203614d4a57614d49614374565b5b600182019050919050565b6000614d6082613c19565b9150614d6b83613c19565b925082614d7b57614d7a614c9f565b5b828206905092915050565b6000606082019050614d9b6000830186613878565b614da86020830185613878565b614db56040830184613878565b949350505050565b6000604082019050614dd26000830185613878565b614ddf6020830184613878565b9392505050565b7f49742773206e6f7420726561647920746f206665656400000000000000000000600082015250565b6000614e1c601683613b86565b9150614e2782614de6565b602082019050919050565b60006020820190508181036000830152614e4b81614e0f565b9050919050565b6000614e5d8261386e565b9150614e688361386e565b9250828203905081811115614e8057614e7f614374565b5b92915050565b6000614e918261386e565b9150614e9c8361386e565b9250828202614eaa8161386e565b91508282048414831517614ec157614ec0614374565b5b5092915050565b7f50616765206f7574206f662072616e6765000000000000000000000000000000600082015250565b6000614efe601183613b86565b9150614f0982614ec8565b602082019050919050565b60006020820190508181036000830152614f2d81614ef1565b9050919050565b6000819050919050565b614f4f614f4a82613d2c565b614f34565b82525050565b6000614f61828861431d565b9150614f6d8287614c4b565b602082019150614f7d8286614c4b565b602082019150614f8d828561488e565b601482019150614f9d8284614f3e565b6020820191508190509695505050505050565b7f4e616d652063616e6e6f74206265206c65667420656d70747900000000000000600082015250565b6000614fe6601983613b86565b9150614ff182614fb0565b602082019050919050565b6000602082019050818103600083015261501581614fd9565b9050919050565b7f444e41206d75737420626520616e20696e746567657200000000000000000000600082015250565b6000615052601683613b86565b915061505d8261501c565b602082019050919050565b6000602082019050818103600083015261508181615045565b9050919050565b600060408201905081810360008301526150a28185613bc1565b90506150b16020830184613878565b9392505050565b7f43616e277420746f20616464206163636f756e742c206163636f756e7420776960008201527f74686f7574207a6f6d6269650000000000000000000000000000000000000000602082015250565b6000615114602c83613b86565b915061511f826150b8565b604082019050919050565b6000602082019050818103600083015261514381615107565b9050919050565b60008160030b9050919050565b60006151628261514a565b915061516d8361514a565b92508282039050637fffffff81137fffffffffffffffffffffffffffffffffffffffffffffffffffffffff80000000821217156151ad576151ac614374565b5b92915050565b60006151be82613bfa565b91506151c983613bfa565b92508282026151d781613bfa565b91508082146151e9576151e8614374565b5b5092915050565b60006151fb8261514a565b91507fffffffffffffffffffffffffffffffffffffffffffffffffffffffff80000000820361522d5761522c614374565b5b816000039050919050565b60006152438261386e565b915061524e8361386e565b92508261525e5761525d614c9f565b5b828204905092915050565b600061527482613c19565b915061527f83613c19565b925082820261528d81613c19565b915080821461529f5761529e614374565b5b5092915050565b60006152b182613bfa565b91506152bc83613bfa565b9250828203905063ffffffff8111156152d8576152d7614374565b5b92915050565b7f6b69747479000000000000000000000000000000000000000000000000000000600082015250565b6000615314600583614312565b915061531f826152de565b600582019050919050565b600061533582615307565b9150819050919050565b600061534b828461431d565b91508190509291505056fea2646970667358221220c6d7a7bfe950b275bdc15b6bf7bbe09c32e342544449b1dcccc015da621986d464736f6c634300081c003368747470733a2f2f6170692e63727970746f7a6f6d62696573626174746c652e636f6d2f7a6f6d6269652f7572692f",
  "linkReferences": {},
  "deployedLinkReferences": {}
}