{
  "_format": "hh-sol-artifact-1",
  "contractName": "CryptozombiesBattle",
  "sourceName": "contracts/cryptozombiesBattle/CryptozombiesBattle.sol",
  "abi": [
    {
      "inputs": [
        {
          "internalType": "uint256",
          "name": "value",
          "type": "uint256"
        },
        {
          "internalType": "uint256",
          "name": "length",
          "type": "uint256"
        }
      ],
      "name": "StringsInsufficientHexLength",
      "type": "error"
    },
    {
      "anonymous": false,
      "inputs": [
        {
          "indexed": true,
          "internalType": "address",
          "name": "_owner",
          "type": "address"
        },
        {
          "indexed": true,
          "internalType": "address",
          "name": "_approved",
          "type": "address"
        },
        {
          "indexed": true,
          "internalType": "uint256",
          "name": "_tokenId",
          "type": "uint256"
        }
      ],
      "name": "Approval",
      "type": "event"
    },
    {
      "anonymous": false,
      "inputs": [
        {
          "indexed": true,
          "internalType": "address",
          "name": "from",
          "type": "address"
        },
        {
          "indexed": true,
          "internalType": "uint256",
          "name": "zombieId",
          "type": "uint256"
        },
        {
          "indexed": false,
          "internalType": "string",
          "name": "name",
          "type": "string"
        },
        {
          "indexed": false,
          "internalType": "uint256",
          "name": "dna",
          "type": "uint256"
        }
      ],
      "name": "NewZombie",
      "type": "event"
    },
    {
      "anonymous": false,
      "inputs": [
        {
          "indexed": true,
          "internalType": "address",
          "name": "previousOwner",
          "type": "address"
        },
        {
          "indexed": true,
          "internalType": "address",
          "name": "newOwner",
          "type": "address"
        }
      ],
      "name": "OwnershipTransferred",
      "type": "event"
    },
    {
      "anonymous": false,
      "inputs": [
        {
          "indexed": true,
          "internalType": "address",
          "name": "_from",
          "type": "address"
        },
        {
          "indexed": true,
          "internalType": "address",
          "name": "_to",
          "type": "address"
        },
        {
          "indexed": true,
          "internalType": "uint256",
          "name": "_tokenId",
          "type": "uint256"
        }
      ],
      "name": "Transfer",
      "type": "event"
    },
    {
      "anonymous": false,
      "inputs": [
        {
          "indexed": true,
          "internalType": "address",
          "name": "from",
          "type": "address"
        },
        {
          "indexed": false,
          "internalType": "uint256",
          "name": "fromId",
          "type": "uint256"
        },
        {
          "indexed": false,
          "internalType": "uint256",
          "name": "targetId",
          "type": "uint256"
        }
      ],
      "name": "onAttackDefeat",
      "type": "event"
    },
    {
      "anonymous": false,
      "inputs": [
        {
          "indexed": true,
          "internalType": "address",
          "name": "from",
          "type": "address"
        },
        {
          "indexed": false,
          "internalType": "uint256",
          "name": "fromId",
          "type": "uint256"
        },
        {
          "indexed": false,
          "internalType": "uint256",
          "name": "targetId",
          "type": "uint256"
        },
        {
          "indexed": false,
          "internalType": "uint256",
          "name": "newDna",
          "type": "uint256"
        }
      ],
      "name": "onAttackVitory",
      "type": "event"
    },
    {
      "anonymous": false,
      "inputs": [
        {
          "indexed": true,
          "internalType": "address",
          "name": "from",
          "type": "address"
        },
        {
          "indexed": false,
          "internalType": "uint256",
          "name": "fromDna",
          "type": "uint256"
        },
        {
          "indexed": false,
          "internalType": "uint256",
          "name": "targetDna",
          "type": "uint256"
        },
        {
          "indexed": false,
          "internalType": "uint256",
          "name": "_kittyId",
          "type": "uint256"
        },
        {
          "indexed": false,
          "internalType": "uint256",
          "name": "newDna",
          "type": "uint256"
        }
      ],
      "name": "onFeed",
      "type": "event"
    },
    {
      "inputs": [
        {
          "internalType": "address",
          "name": "_account",
          "type": "address"
        }
      ],
      "name": "accountAdd",
      "outputs": [],
      "stateMutability": "nonpayable",
      "type": "function"
    },
    {
      "inputs": [
        {
          "internalType": "uint256",
          "name": "",
          "type": "uint256"
        }
      ],
      "name": "accounts",
      "outputs": [
        {
          "internalType": "address",
          "name": "",
          "type": "address"
        }
      ],
      "stateMutability": "view",
      "type": "function"
    },
    {
      "inputs": [
        {
          "internalType": "address",
          "name": "_approved",
          "type": "address"
        },
        {
          "internalType": "uint256",
          "name": "_tokenId",
          "type": "uint256"
        }
      ],
      "name": "approve",
      "outputs": [],
      "stateMutability": "payable",
      "type": "function"
    },
    {
      "inputs": [
        {
          "internalType": "uint256",
          "name": "_zombieId",
          "type": "uint256"
        },
        {
          "internalType": "uint256",
          "name": "_targetId",
          "type": "uint256"
        }
      ],
      "name": "attack",
      "outputs": [],
      "stateMutability": "nonpayable",
      "type": "function"
    },
    {
      "inputs": [],
      "name": "balance",
      "outputs": [
        {
          "internalType": "uint256",
          "name": "",
          "type": "uint256"
        }
      ],
      "stateMutability": "view",
      "type": "function"
    },
    {
      "inputs": [
        {
          "internalType": "address",
          "name": "_owner",
          "type": "address"
        }
      ],
      "name": "balanceOf",
      "outputs": [
        {
          "internalType": "uint256",
          "name": "",
          "type": "uint256"
        }
      ],
      "stateMutability": "view",
      "type": "function"
    },
    {
      "inputs": [],
      "name": "baseUrlTokenURI",
      "outputs": [
        {
          "internalType": "string",
          "name": "",
          "type": "string"
        }
      ],
      "stateMutability": "view",
      "type": "function"
    },
    {
      "inputs": [],
      "name": "changeDNAFee",
      "outputs": [
        {
          "internalType": "uint256",
          "name": "",
          "type": "uint256"
        }
      ],
      "stateMutability": "view",
      "type": "function"
    },
    {
      "inputs": [
        {
          "internalType": "uint256",
          "name": "_zombieId",
          "type": "uint256"
        },
        {
          "internalType": "uint256",
          "name": "_newDna",
          "type": "uint256"
        }
      ],
      "name": "changeDna",
      "outputs": [],
      "stateMutability": "payable",
      "type": "function"
    },
    {
      "inputs": [
        {
          "internalType": "uint256",
          "name": "_zombieId",
          "type": "uint256"
        },
        {
          "internalType": "string",
          "name": "_newName",
          "type": "string"
        }
      ],
      "name": "changeName",
      "outputs": [],
      "stateMutability": "payable",
      "type": "function"
    },
    {
      "inputs": [],
      "name": "changeNameFee",
      "outputs": [
        {
          "internalType": "uint256",
          "name": "",
          "type": "uint256"
        }
      ],
      "stateMutability": "view",
      "type": "function"
    },
    {
      "inputs": [],
      "name": "cooldownTimeAttack",
      "outputs": [
        {
          "internalType": "uint256",
          "name": "",
          "type": "uint256"
        }
      ],
      "stateMutability": "view",
      "type": "function"
    },
    {
      "inputs": [],
      "name": "cooldownTimeFeeding",
      "outputs": [
        {
          "internalType": "uint256",
          "name": "",
          "type": "uint256"
        }
      ],
      "stateMutability": "view",
      "type": "function"
    },
    {
      "inputs": [
        {
          "internalType": "uint256",
          "name": "_zombieId",
          "type": "uint256"
        },
        {
          "internalType": "uint256",
          "name": "_kittyDna",
          "type": "uint256"
        },
        {
          "internalType": "uint256",
          "name": "_kittyId",
          "type": "uint256"
        }
      ],
      "name": "feedOnKitty",
      "outputs": [],
      "stateMutability": "nonpayable",
      "type": "function"
    },
    {
      "inputs": [],
      "name": "getAccounts",
      "outputs": [
        {
          "internalType": "address[]",
          "name": "",
          "type": "address[]"
        }
      ],
      "stateMutability": "view",
      "type": "function"
    },
    {
      "inputs": [
        {
          "internalType": "uint256",
          "name": "_page",
          "type": "uint256"
        },
        {
          "internalType": "uint256",
          "name": "_pageSize",
          "type": "uint256"
        }
      ],
      "name": "getAccountsPaginated",
      "outputs": [
        {
          "internalType": "address[]",
          "name": "",
          "type": "address[]"
        }
      ],
      "stateMutability": "view",
      "type": "function"
    },
    {
      "inputs": [],
      "name": "getAccountsTotal",
      "outputs": [
        {
          "internalType": "uint256",
          "name": "",
          "type": "uint256"
        }
      ],
      "stateMutability": "view",
      "type": "function"
    },
    {
      "inputs": [
        {
          "internalType": "address",
          "name": "_owner",
          "type": "address"
        }
      ],
      "name": "getZombiesByOwner",
      "outputs": [
        {
          "internalType": "uint256[]",
          "name": "",
          "type": "uint256[]"
        }
      ],
      "stateMutability": "view",
      "type": "function"
    },
    {
      "inputs": [
        {
          "internalType": "address",
          "name": "_owner",
          "type": "address"
        },
        {
          "internalType": "uint256",
          "name": "_page",
          "type": "uint256"
        },
        {
          "internalType": "uint256",
          "name": "_pageSize",
          "type": "uint256"
        }
      ],
      "name": "getZombiesByOwnerPaginated",
      "outputs": [
        {
          "internalType": "uint256[]",
          "name": "",
          "type": "uint256[]"
        }
      ],
      "stateMutability": "view",
      "type": "function"
    },
    {
      "inputs": [],
      "name": "isOwner",
      "outputs": [
        {
          "internalType": "bool",
          "name": "",
          "type": "bool"
        }
      ],
      "stateMutability": "view",
      "type": "function"
    },
    {
      "inputs": [
        {
          "internalType": "uint256",
          "name": "_zombieId",
          "type": "uint256"
        }
      ],
      "name": "levelUp",
      "outputs": [],
      "stateMutability": "payable",
      "type": "function"
    },
    {
      "inputs": [],
      "name": "levelUpFee",
      "outputs": [
        {
          "internalType": "uint256",
          "name": "",
          "type": "uint256"
        }
      ],
      "stateMutability": "view",
      "type": "function"
    },
    {
      "inputs": [],
      "name": "merkleRoot",
      "outputs": [
        {
          "internalType": "bytes32",
          "name": "",
          "type": "bytes32"
        }
      ],
      "stateMutability": "view",
      "type": "function"
    },
    {
      "inputs": [
        {
          "internalType": "string",
          "name": "_name",
          "type": "string"
        }
      ],
      "name": "mint",
      "outputs": [],
      "stateMutability": "payable",
      "type": "function"
    },
    {
      "inputs": [],
      "name": "mintFee",
      "outputs": [
        {
          "internalType": "uint256",
          "name": "",
          "type": "uint256"
        }
      ],
      "stateMutability": "view",
      "type": "function"
    },
    {
      "inputs": [
        {
          "internalType": "bytes32[]",
          "name": "proof",
          "type": "bytes32[]"
        }
      ],
      "name": "mintFree",
      "outputs": [],
      "stateMutability": "nonpayable",
      "type": "function"
    },
    {
      "inputs": [],
      "name": "mintFreeLimit",
      "outputs": [
        {
          "internalType": "uint256",
          "name": "",
          "type": "uint256"
        }
      ],
      "stateMutability": "view",
      "type": "function"
    },
    {
      "inputs": [],
      "name": "mintedFreeCount",
      "outputs": [
        {
          "internalType": "uint256",
          "name": "",
          "type": "uint256"
        }
      ],
      "stateMutability": "view",
      "type": "function"
    },
    {
      "inputs": [],
      "name": "owner",
      "outputs": [
        {
          "internalType": "address",
          "name": "",
          "type": "address"
        }
      ],
      "stateMutability": "view",
      "type": "function"
    },
    {
      "inputs": [
        {
          "internalType": "uint256",
          "name": "_tokenId",
          "type": "uint256"
        }
      ],
      "name": "ownerOf",
      "outputs": [
        {
          "internalType": "address",
          "name": "",
          "type": "address"
        }
      ],
      "stateMutability": "view",
      "type": "function"
    },
    {
      "inputs": [],
      "name": "renounceOwnership",
      "outputs": [],
      "stateMutability": "nonpayable",
      "type": "function"
    },
    {
      "inputs": [
        {
          "internalType": "string",
          "name": "_baseUrlTokenURI",
          "type": "string"
        }
      ],
      "name": "setBaseUrlTokenURI",
      "outputs": [],
      "stateMutability": "nonpayable",
      "type": "function"
    },
    {
      "inputs": [
        {
          "internalType": "uint256",
          "name": "_fee",
          "type": "uint256"
        }
      ],
      "name": "setChangeDNAFee",
      "outputs": [],
      "stateMutability": "nonpayable",
      "type": "function"
    },
    {
      "inputs": [
        {
          "internalType": "uint256",
          "name": "_fee",
          "type": "uint256"
        }
      ],
      "name": "setChangeNameFee",
      "outputs": [],
      "stateMutability": "nonpayable",
      "type": "function"
    },
    {
      "inputs": [
        {
          "internalType": "uint256",
          "name": "_cooldownTime",
          "type": "uint256"
        }
      ],
      "name": "setCooldownTimeAttack",
      "outputs": [],
      "stateMutability": "nonpayable",
      "type": "function"
    },
    {
      "inputs": [
        {
          "internalType": "uint256",
          "name": "_cooldownTime",
          "type": "uint256"
        }
      ],
      "name": "setCooldownTimeFeeding",
      "outputs": [],
      "stateMutability": "nonpayable",
      "type": "function"
    },
    {
      "inputs": [
        {
          "internalType": "address",
          "name": "_address",
          "type": "address"
        }
      ],
      "name": "setCryptozombiesBattleMarketContractAddress",
      "outputs": [],
      "stateMutability": "nonpayable",
      "type": "function"
    },
    {
      "inputs": [
        {
          "internalType": "uint256",
          "name": "_fee",
          "type": "uint256"
        }
      ],
      "name": "setLevelUpFee",
      "outputs": [],
      "stateMutability": "nonpayable",
      "type": "function"
    },
    {
      "inputs": [
        {
          "internalType": "bytes32",
          "name": "_root",
          "type": "bytes32"
        }
      ],
      "name": "setMerkleRoot",
      "outputs": [],
      "stateMutability": "nonpayable",
      "type": "function"
    },
    {
      "inputs": [
        {
          "internalType": "uint256",
          "name": "_mintFee",
          "type": "uint256"
        }
      ],
      "name": "setMintFee",
      "outputs": [],
      "stateMutability": "nonpayable",
      "type": "function"
    },
    {
      "inputs": [
        {
          "internalType": "uint8",
          "name": "_totalAttackVictoryToGetReward",
          "type": "uint8"
        }
      ],
      "name": "setTotalAttackVictoryToGetReward",
      "outputs": [],
      "stateMutability": "nonpayable",
      "type": "function"
    },
    {
      "inputs": [
        {
          "internalType": "uint8",
          "name": "_totalFedToGetReward",
          "type": "uint8"
        }
      ],
      "name": "setTotalFedToGetReward",
      "outputs": [],
      "stateMutability": "nonpayable",
      "type": "function"
    },
    {
      "inputs": [
        {
          "internalType": "bytes4",
          "name": "interfaceId",
          "type": "bytes4"
        }
      ],
      "name": "supportsInterface",
      "outputs": [
        {
          "internalType": "bool",
          "name": "",
          "type": "bool"
        }
      ],
      "stateMutability": "view",
      "type": "function"
    },
    {
      "inputs": [
        {
          "internalType": "uint256",
          "name": "_tokenId",
          "type": "uint256"
        }
      ],
      "name": "tokenURI",
      "outputs": [
        {
          "internalType": "string",
          "name": "",
          "type": "string"
        }
      ],
      "stateMutability": "view",
      "type": "function"
    },
    {
      "inputs": [],
      "name": "totalAttackVictoryToGetReward",
      "outputs": [
        {
          "internalType": "uint8",
          "name": "",
          "type": "uint8"
        }
      ],
      "stateMutability": "view",
      "type": "function"
    },
    {
      "inputs": [],
      "name": "totalFedToGetReward",
      "outputs": [
        {
          "internalType": "uint8",
          "name": "",
          "type": "uint8"
        }
      ],
      "stateMutability": "view",
      "type": "function"
    },
    {
      "inputs": [
        {
          "internalType": "address",
          "name": "_from",
          "type": "address"
        },
        {
          "internalType": "address",
          "name": "_to",
          "type": "address"
        },
        {
          "internalType": "uint256",
          "name": "_tokenId",
          "type": "uint256"
        }
      ],
      "name": "transferFrom",
      "outputs": [],
      "stateMutability": "payable",
      "type": "function"
    },
    {
      "inputs": [
        {
          "internalType": "address",
          "name": "newOwner",
          "type": "address"
        }
      ],
      "name": "transferOwnership",
      "outputs": [],
      "stateMutability": "nonpayable",
      "type": "function"
    },
    {
      "inputs": [],
      "name": "withdraw",
      "outputs": [],
      "stateMutability": "nonpayable",
      "type": "function"
    },
    {
      "inputs": [
        {
          "internalType": "uint256",
          "name": "",
          "type": "uint256"
        }
      ],
      "name": "zombieToOwner",
      "outputs": [
        {
          "internalType": "address",
          "name": "",
          "type": "address"
        }
      ],
      "stateMutability": "view",
      "type": "function"
    },
    {
      "inputs": [
        {
          "internalType": "uint256",
          "name": "",
          "type": "uint256"
        }
      ],
      "name": "zombies",
      "outputs": [
        {
          "internalType": "string",
          "name": "name",
          "type": "string"
        },
        {
          "internalType": "uint256",
          "name": "dna",
          "type": "uint256"
        },
        {
          "internalType": "uint256",
          "name": "score",
          "type": "uint256"
        },
        {
          "internalType": "uint32",
          "name": "birthTime",
          "type": "uint32"
        },
        {
          "internalType": "uint32",
          "name": "level",
          "type": "uint32"
        },
        {
          "internalType": "uint32",
          "name": "attackReadyTime",
          "type": "uint32"
        },
        {
          "internalType": "uint32",
          "name": "fedReadyTime",
          "type": "uint32"
        },
        {
          "internalType": "uint16",
          "name": "winCount",
          "type": "uint16"
        },
        {
          "internalType": "uint16",
          "name": "lossCount",
          "type": "uint16"
        },
        {
          "internalType": "uint16",
          "name": "fedCount",
          "type": "uint16"
        }
      ],
      "stateMutability": "view",
      "type": "function"
    }
  ],
  "bytecode": "0x608060405260006001556010600255600254600a61001d919061035c565b6003556101f46004556000600555660aa87bee538000600655620151806007556138406008556007600960006101000a81548160ff021916908360ff160217905550600a600960016101000a81548160ff021916908360ff16021790555066038d7ea4c6800060105566071afd498d0000601155660e35fa931a0000601255600060135560326014556040518060600160405280602f8152602001615e63602f9139601590816100cd91906105ed565b50739fe46736679d2d9a65f0992f2272de9f3c7fa6e0601660006101000a81548173ffffffffffffffffffffffffffffffffffffffff021916908373ffffffffffffffffffffffffffffffffffffffff16021790555034801561012f57600080fd5b50336000806101000a81548173ffffffffffffffffffffffffffffffffffffffff021916908373ffffffffffffffffffffffffffffffffffffffff16021790555060008054906101000a900473ffffffffffffffffffffffffffffffffffffffff1673ffffffffffffffffffffffffffffffffffffffff16600073ffffffffffffffffffffffffffffffffffffffff167f8be0079c531659141344cd1fd0a4f28419497f9722a3daafe3b4186f6b6457e060405160405180910390a36106bf565b7f4e487b7100000000000000000000000000000000000000000000000000000000600052601160045260246000fd5b60008160011c9050919050565b6000808291508390505b600185111561027657808604811115610252576102516101f0565b5b60018516156102615780820291505b808102905061026f8561021f565b9450610236565b94509492505050565b60008261028f576001905061034b565b8161029d576000905061034b565b81600181146102b357600281146102bd576102ec565b600191505061034b565b60ff8411156102cf576102ce6101f0565b5b8360020a9150848211156102e6576102e56101f0565b5b5061034b565b5060208310610133831016604e8410600b84101617156103215782820a90508381111561031c5761031b6101f0565b5b61034b565b61032e848484600161022c565b92509050818404811115610345576103446101f0565b5b81810290505b9392505050565b6000819050919050565b600061036782610352565b915061037283610352565b925061039f7fffffffffffffffffffffffffffffffffffffffffffffffffffffffffffffffff848461027f565b905092915050565b600081519050919050565b7f4e487b7100000000000000000000000000000000000000000000000000000000600052604160045260246000fd5b7f4e487b7100000000000000000000000000000000000000000000000000000000600052602260045260246000fd5b6000600282049050600182168061042857607f821691505b60208210810361043b5761043a6103e1565b5b50919050565b60008190508160005260206000209050919050565b60006020601f8301049050919050565b600082821b905092915050565b6000600883026104a37fffffffffffffffffffffffffffffffffffffffffffffffffffffffffffffffff82610466565b6104ad8683610466565b95508019841693508086168417925050509392505050565b6000819050919050565b60006104ea6104e56104e084610352565b6104c5565b610352565b9050919050565b6000819050919050565b610504836104cf565b610518610510826104f1565b848454610473565b825550505050565b600090565b61052d610520565b6105388184846104fb565b505050565b5b8181101561055c57610551600082610525565b60018101905061053e565b5050565b601f8211156105a15761057281610441565b61057b84610456565b8101602085101561058a578190505b61059e61059685610456565b83018261053d565b50505b505050565b600082821c905092915050565b60006105c4600019846008026105a6565b1980831691505092915050565b60006105dd83836105b3565b9150826002028217905092915050565b6105f6826103a7565b67ffffffffffffffff81111561060f5761060e6103b2565b5b6106198254610410565b610624828285610560565b600060209050601f8311600181146106575760008415610645578287015190505b61064f85826105d1565b8655506106b7565b601f19841661066586610441565b60005b8281101561068d57848901518255600182019150602085019450602081019050610668565b868310156106aa57848901516106a6601f8916826105b3565b8355505b6001600288020188555050505b505050505050565b615795806106ce6000396000f3fe6080604052600436106102e45760003560e01c806370f47cf911610190578063bcf313ae116100dc578063d72f761d11610095578063eddd0d9c1161006f578063eddd0d9c14610add578063f2a40db814610b06578063f2fde38b14610b43578063f77de3a114610b6c576102e4565b8063d72f761d14610a5b578063d85d3d2714610a98578063e1fa763814610ab4576102e4565b8063bcf313ae1461095c578063c39cbef114610985578063c4114b12146109a1578063c859f317146109cc578063c87b56dd146109f5578063ccf670f814610a32576102e4565b8063846e2c43116101495780638f32d59b116101235780638f32d59b146108b0578063abbb1f29146108db578063b69ef8a814610906578063bcad1fde14610931576102e4565b8063846e2c43146108315780638a48ac031461085a5780638da5cb5b14610885576102e4565b806370f47cf91461074b578063715018a61461077457806374e729f71461078b57806376c7d8ca146107b65780637a8936c1146107df5780637cb6475914610808576102e4565b80634674463b1161024f5780635625d6d71161020857806369c8e14c116101e257806369c8e14c146106915780636be17f0e146106ba57806370a08231146106e357806370acbb6314610720576102e4565b80635625d6d71461060d5780635faf2880146106385780636352211e14610654576102e4565b80634674463b146104e757806349cee8e7146105245780634a10565a1461054f5780634f0951661461057a578063528b7b8f146105a557806354c92c5f146105e2576102e4565b80631919b7e6116102a15780631919b7e6146103dd5780632052465e1461040657806323b872dd1461044c5780632eb4a7ab146104685780633ccfd60b146104935780634412e104146104aa576102e4565b806301ffc9a7146102e9578063021cbcae1461032657806306f3376014610351578063095ea7b31461037a5780630ce90ec21461039657806313966db5146103b2575b600080fd5b3480156102f557600080fd5b50610310600480360381019061030b9190613bc9565b610b95565b60405161031d9190613c11565b60405180910390f35b34801561033257600080fd5b5061033b610bff565b6040516103489190613c45565b60405180910390f35b34801561035d57600080fd5b5061037860048036038101906103739190613c8c565b610c05565b005b610394600480360381019061038f9190613d3d565b610cce565b005b6103b060048036038101906103ab9190613d7d565b610dec565b005b3480156103be57600080fd5b506103c7610f53565b6040516103d49190613c45565b60405180910390f35b3480156103e957600080fd5b5061040460048036038101906103ff9190613ef0565b610f59565b005b34801561041257600080fd5b5061042d60048036038101906104289190613d7d565b610f7d565b6040516104439a99989796959493929190613ff4565b60405180910390f35b61046660048036038101906104619190614097565b6110d3565b005b34801561047457600080fd5b5061047d6112cc565b60405161048a9190614103565b60405180910390f35b34801561049f57600080fd5b506104a86112d2565b005b3480156104b657600080fd5b506104d160048036038101906104cc919061411e565b611339565b6040516104de9190614209565b60405180910390f35b3480156104f357600080fd5b5061050e6004803603810190610509919061422b565b611486565b60405161051b9190614329565b60405180910390f35b34801561053057600080fd5b506105396115a9565b6040516105469190614367565b60405180910390f35b34801561055b57600080fd5b506105646115bc565b6040516105719190613c45565b60405180910390f35b34801561058657600080fd5b5061058f6115c2565b60405161059c9190613c45565b60405180910390f35b3480156105b157600080fd5b506105cc60048036038101906105c79190613d7d565b6115c8565b6040516105d99190614391565b60405180910390f35b3480156105ee57600080fd5b506105f76115fb565b60405161060491906143ac565b60405180910390f35b34801561061957600080fd5b50610622611689565b60405161062f9190613c45565b60405180910390f35b610652600480360381019061064d919061422b565b61168f565b005b34801561066057600080fd5b5061067b60048036038101906106769190613d7d565b61184a565b6040516106889190614391565b60405180910390f35b34801561069d57600080fd5b506106b860048036038101906106b391906143fa565b611887565b005b3480156106c657600080fd5b506106e160048036038101906106dc9190613d7d565b6118b6565b005b3480156106ef57600080fd5b5061070a6004803603810190610705919061411e565b6118d1565b6040516107179190613c45565b60405180910390f35b34801561072c57600080fd5b5061073561191a565b6040516107429190613c45565b60405180910390f35b34801561075757600080fd5b50610772600480360381019061076d9190613d7d565b611920565b005b34801561078057600080fd5b5061078961193b565b005b34801561079757600080fd5b506107a0611a0a565b6040516107ad9190614367565b60405180910390f35b3480156107c257600080fd5b506107dd60048036038101906107d89190614487565b611a1d565b005b3480156107eb57600080fd5b5061080660048036038101906108019190613d7d565b611c9a565b005b34801561081457600080fd5b5061082f600480360381019061082a9190614500565b611cb5565b005b34801561083d57600080fd5b506108586004803603810190610853919061411e565b611cd0565b005b34801561086657600080fd5b5061086f611cdc565b60405161087c9190614329565b60405180910390f35b34801561089157600080fd5b5061089a611d6a565b6040516108a79190614391565b60405180910390f35b3480156108bc57600080fd5b506108c5611d93565b6040516108d29190613c11565b60405180910390f35b3480156108e757600080fd5b506108f0611dea565b6040516108fd9190613c45565b60405180910390f35b34801561091257600080fd5b5061091b611df7565b6040516109289190613c45565b60405180910390f35b34801561093d57600080fd5b50610946611e10565b6040516109539190613c45565b60405180910390f35b34801561096857600080fd5b50610983600480360381019061097e919061411e565b611e16565b005b61099f600480360381019061099a9190614583565b611e6b565b005b3480156109ad57600080fd5b506109b6612032565b6040516109c39190613c45565b60405180910390f35b3480156109d857600080fd5b506109f360048036038101906109ee91906143fa565b612038565b005b348015610a0157600080fd5b50610a1c6004803603810190610a179190613d7d565b612067565b604051610a2991906143ac565b60405180910390f35b348015610a3e57600080fd5b50610a596004803603810190610a549190613d7d565b6120d5565b005b348015610a6757600080fd5b50610a826004803603810190610a7d91906145e3565b6120f0565b604051610a8f9190614209565b60405180910390f35b610ab26004803603810190610aad9190613ef0565b61228e565b005b348015610ac057600080fd5b50610adb6004803603810190610ad6919061422b565b612324565b005b348015610ae957600080fd5b50610b046004803603810190610aff9190613d7d565b612714565b005b348015610b1257600080fd5b50610b2d6004803603810190610b289190613d7d565b61272f565b604051610b3a9190614391565b60405180910390f35b348015610b4f57600080fd5b50610b6a6004803603810190610b65919061411e565b61276e565b005b348015610b7857600080fd5b50610b936004803603810190610b8e9190613d7d565b61278b565b005b60007f39147641000000000000000000000000000000000000000000000000000000007bffffffffffffffffffffffffffffffffffffffffffffffffffffffff1916827bffffffffffffffffffffffffffffffffffffffffffffffffffffffff1916149050919050565b60055481565b6000600b8481548110610c1b57610c1a614636565b5b906000526020600020906004020190506000610c6d85856040518060400160405280600581526020017f6b697474790000000000000000000000000000000000000000000000000000008152506127a6565b90503373ffffffffffffffffffffffffffffffffffffffff167f94bd9f81959636fb1ddd32f8bcbdab8b649d20a6a464f759a1aa7f7cf4447fac8360010154868685604051610cbf9493929190614665565b60405180910390a25050505050565b80600d600082815260200190815260200160002060009054906101000a900473ffffffffffffffffffffffffffffffffffffffff1673ffffffffffffffffffffffffffffffffffffffff163373ffffffffffffffffffffffffffffffffffffffff1614610d3a57600080fd5b826017600084815260200190815260200160002060006101000a81548173ffffffffffffffffffffffffffffffffffffffff021916908373ffffffffffffffffffffffffffffffffffffffff160217905550818373ffffffffffffffffffffffffffffffffffffffff163373ffffffffffffffffffffffffffffffffffffffff167f8c5be1e5ebec7d5bd14f71427d1e84f3dd0314c0f7b2291e5b200ac8c7c3b92560405160405180910390a4505050565b60105480341015610dfc82612924565b604051602001610e0c919061470c565b60405160208183030381529060405290610e5c576040517f08c379a0000000000000000000000000000000000000000000000000000000008152600401610e5391906143ac565b60405180910390fd5b5081600d600082815260200190815260200160002060009054906101000a900473ffffffffffffffffffffffffffffffffffffffff1673ffffffffffffffffffffffffffffffffffffffff163373ffffffffffffffffffffffffffffffffffffffff1614610ec957600080fd5b6001600b8481548110610edf57610ede614636565b5b906000526020600020906004020160030160049054906101000a900463ffffffff16610f0b9190614761565b600b8481548110610f1f57610f1e614636565b5b906000526020600020906004020160030160046101000a81548163ffffffff021916908363ffffffff160217905550505050565b60065481565b610f61611d93565b610f6a57600080fd5b8060159081610f7991906149a5565b5050565b600b8181548110610f8d57600080fd5b9060005260206000209060040201600091509050806000018054610fb0906147c8565b80601f0160208091040260200160405190810160405280929190818152602001828054610fdc906147c8565b80156110295780601f10610ffe57610100808354040283529160200191611029565b820191906000526020600020905b81548152906001019060200180831161100c57829003601f168201915b5050505050908060010154908060020154908060030160009054906101000a900463ffffffff16908060030160049054906101000a900463ffffffff16908060030160089054906101000a900463ffffffff169080600301600c9054906101000a900463ffffffff16908060030160109054906101000a900461ffff16908060030160129054906101000a900461ffff16908060030160149054906101000a900461ffff1690508a565b3373ffffffffffffffffffffffffffffffffffffffff16601660009054906101000a900473ffffffffffffffffffffffffffffffffffffffff1673ffffffffffffffffffffffffffffffffffffffff16148061118d57503373ffffffffffffffffffffffffffffffffffffffff16600d600083815260200190815260200160002060009054906101000a900473ffffffffffffffffffffffffffffffffffffffff1673ffffffffffffffffffffffffffffffffffffffff16145b806111f657503373ffffffffffffffffffffffffffffffffffffffff166017600083815260200190815260200160002060009054906101000a900473ffffffffffffffffffffffffffffffffffffffff1673ffffffffffffffffffffffffffffffffffffffff16145b611239601660009054906101000a900473ffffffffffffffffffffffffffffffffffffffff1673ffffffffffffffffffffffffffffffffffffffff1660146129f2565b61125a3373ffffffffffffffffffffffffffffffffffffffff1660146129f2565b60405160200161126b929190614ac3565b604051602081830303815290604052906112bb576040517f08c379a00000000000000000000000000000000000000000000000000000000081526004016112b291906143ac565b60405180910390fd5b506112c7838383612c38565b505050565b600a5481565b6112da611d93565b6112e357600080fd5b60006112ed611d6a565b90508073ffffffffffffffffffffffffffffffffffffffff166108fc479081150290604051600060405180830381858888f19350505050158015611335573d6000803e3d6000fd5b5050565b60606000600e60008473ffffffffffffffffffffffffffffffffffffffff1673ffffffffffffffffffffffffffffffffffffffff1681526020019081526020016000205467ffffffffffffffff81111561139657611395613dc5565b5b6040519080825280602002602001820160405280156113c45781602001602082028036833780820191505090505b5090506000805b600b8054905081101561147b578473ffffffffffffffffffffffffffffffffffffffff16600d600083815260200190815260200160002060009054906101000a900473ffffffffffffffffffffffffffffffffffffffff1673ffffffffffffffffffffffffffffffffffffffff160361146e578083838151811061145257611451614636565b5b60200260200101818152505060018261146b9190614b05565b91505b80806001019150506113cb565b508192505050919050565b606060008061149b600c805490508686612e08565b509150915060008167ffffffffffffffff8111156114bc576114bb613dc5565b5b6040519080825280602002602001820160405280156114ea5781602001602082028036833780820191505090505b50905060005b8281101561159c57600c81856115069190614b05565b8154811061151757611516614636565b5b9060005260206000200160009054906101000a900473ffffffffffffffffffffffffffffffffffffffff1682828151811061155557611554614636565b5b602002602001019073ffffffffffffffffffffffffffffffffffffffff16908173ffffffffffffffffffffffffffffffffffffffff168152505080806001019150506114f0565b5080935050505092915050565b600960009054906101000a900460ff1681565b60045481565b60115481565b600d6020528060005260406000206000915054906101000a900473ffffffffffffffffffffffffffffffffffffffff1681565b60158054611608906147c8565b80601f0160208091040260200160405190810160405280929190818152602001828054611634906147c8565b80156116815780601f1061165657610100808354040283529160200191611681565b820191906000526020600020905b81548152906001019060200180831161166457829003601f168201915b505050505081565b60075481565b6012548034101561169f82612924565b6040516020016116af919061470c565b604051602081830303815290604052906116ff576040517f08c379a00000000000000000000000000000000000000000000000000000000081526004016116f691906143ac565b60405180910390fd5b5060148381600b828154811061171857611717614636565b5b906000526020600020906004020160030160049054906101000a900463ffffffff1663ffffffff16101561174b83612924565b60405160200161175b9190614b5f565b604051602081830303815290604052906117ab576040517f08c379a00000000000000000000000000000000000000000000000000000000081526004016117a291906143ac565b60405180910390fd5b5084600d600082815260200190815260200160002060009054906101000a900473ffffffffffffffffffffffffffffffffffffffff1673ffffffffffffffffffffffffffffffffffffffff163373ffffffffffffffffffffffffffffffffffffffff161461181857600080fd5b84600b878154811061182d5761182c614636565b5b906000526020600020906004020160010181905550505050505050565b6000600d600083815260200190815260200160002060009054906101000a900473ffffffffffffffffffffffffffffffffffffffff169050919050565b61188f611d93565b61189857600080fd5b80600960006101000a81548160ff021916908360ff16021790555050565b6118be611d93565b6118c757600080fd5b8060118190555050565b6000600e60008373ffffffffffffffffffffffffffffffffffffffff1673ffffffffffffffffffffffffffffffffffffffff168152602001908152602001600020549050919050565b60125481565b611928611d93565b61193157600080fd5b8060128190555050565b611943611d93565b61194c57600080fd5b600073ffffffffffffffffffffffffffffffffffffffff1660008054906101000a900473ffffffffffffffffffffffffffffffffffffffff1673ffffffffffffffffffffffffffffffffffffffff167f8be0079c531659141344cd1fd0a4f28419497f9722a3daafe3b4186f6b6457e060405160405180910390a360008060006101000a81548173ffffffffffffffffffffffffffffffffffffffff021916908373ffffffffffffffffffffffffffffffffffffffff160217905550565b600960019054906101000a900460ff1681565b60045460055410611a2f600454612924565b604051602001611a3f9190614bab565b60405160208183030381529060405290611a8f576040517f08c379a0000000000000000000000000000000000000000000000000000000008152600401611a8691906143ac565b60405180910390fd5b50600f60003373ffffffffffffffffffffffffffffffffffffffff1673ffffffffffffffffffffffffffffffffffffffff16815260200190815260200160002060009054906101000a900460ff1615611b1d576040517f08c379a0000000000000000000000000000000000000000000000000000000008152600401611b1490614c1d565b60405180910390fd5b600033604051602001611b309190614c85565b604051602081830303815290604052805190602001209050611b96838380806020026020016040519081016040528093929190818152602001838360200280828437600081840152601f19601f82011690508083019250505050505050600a5483612e9f565b611bd5576040517f08c379a0000000000000000000000000000000000000000000000000000000008152600401611bcc90614cec565b60405180910390fd5b6000611be2600154612924565b604051602001611bf29190614d32565b60405160208183030381529060405290506000611c0e82612eb6565b9050611c1a8282612f2b565b611c23336132d7565b6001600f60003373ffffffffffffffffffffffffffffffffffffffff1673ffffffffffffffffffffffffffffffffffffffff16815260200190815260200160002060006101000a81548160ff02191690831515021790555060056000815480929190611c8e90614d58565b91905055505050505050565b611ca2611d93565b611cab57600080fd5b8060078190555050565b611cbd611d93565b611cc657600080fd5b80600a8190555050565b611cd9816132d7565b50565b6060600c805480602002602001604051908101604052809291908181526020018280548015611d6057602002820191906000526020600020905b8160009054906101000a900473ffffffffffffffffffffffffffffffffffffffff1673ffffffffffffffffffffffffffffffffffffffff1681526020019060010190808311611d16575b5050505050905090565b60008060009054906101000a900473ffffffffffffffffffffffffffffffffffffffff16905090565b60008060009054906101000a900473ffffffffffffffffffffffffffffffffffffffff1673ffffffffffffffffffffffffffffffffffffffff163373ffffffffffffffffffffffffffffffffffffffff1614905090565b6000600c80549050905090565b6000611e01611d93565b611e0a57600080fd5b47905090565b60085481565b611e1e611d93565b611e2757600080fd5b80601660006101000a81548173ffffffffffffffffffffffffffffffffffffffff021916908373ffffffffffffffffffffffffffffffffffffffff16021790555050565b60115480341015611e7b82612924565b604051602001611e8b919061470c565b60405160208183030381529060405290611edb576040517f08c379a0000000000000000000000000000000000000000000000000000000008152600401611ed291906143ac565b60405180910390fd5b5060028481600b8281548110611ef457611ef3614636565b5b906000526020600020906004020160030160049054906101000a900463ffffffff1663ffffffff161015611f2783612924565b604051602001611f379190614b5f565b60405160208183030381529060405290611f87576040517f08c379a0000000000000000000000000000000000000000000000000000000008152600401611f7e91906143ac565b60405180910390fd5b5085600d600082815260200190815260200160002060009054906101000a900473ffffffffffffffffffffffffffffffffffffffff1673ffffffffffffffffffffffffffffffffffffffff163373ffffffffffffffffffffffffffffffffffffffff1614611ff457600080fd5b8585600b898154811061200a57612009614636565b5b90600052602060002090600402016000019182612028929190614dab565b5050505050505050565b60105481565b612040611d93565b61204957600080fd5b80600960016101000a81548160ff021916908360ff16021790555050565b60606000600b838154811061207f5761207e614636565b5b90600052602060002090600402019050601561209a84612924565b826000016120ab8460010154612924565b6040516020016120be9493929190614f4a565b604051602081830303815290604052915050919050565b6120dd611d93565b6120e657600080fd5b8060108190555050565b60606000806000612141600e60008973ffffffffffffffffffffffffffffffffffffffff1673ffffffffffffffffffffffffffffffffffffffff168152602001908152602001600020548787612e08565b92509250925060008267ffffffffffffffff81111561216357612162613dc5565b5b6040519080825280602002602001820160405280156121915781602001602082028036833780820191505090505b50905060008060005b600b80549050811080156121ad57508583105b1561227d578a73ffffffffffffffffffffffffffffffffffffffff16600d600083815260200190815260200160002060009054906101000a900473ffffffffffffffffffffffffffffffffffffffff1673ffffffffffffffffffffffffffffffffffffffff160361226a5786821015801561222757508482105b1561225b57808484815181106122405761223f614636565b5b602002602001018181525050828061225790614d58565b9350505b818061226690614d58565b9250505b808061227590614d58565b91505061219a565b508296505050505050509392505050565b6006548034101561229e82612924565b6040516020016122ae919061470c565b604051602081830303815290604052906122fe576040517f08c379a00000000000000000000000000000000000000000000000000000000081526004016122f591906143ac565b60405180910390fd5b50600061230a83612eb6565b90506123168382612f2b565b61231f336132d7565b505050565b81600d600082815260200190815260200160002060009054906101000a900473ffffffffffffffffffffffffffffffffffffffff1673ffffffffffffffffffffffffffffffffffffffff163373ffffffffffffffffffffffffffffffffffffffff161461239057600080fd5b6000600b84815481106123a6576123a5614636565b5b906000526020600020906004020190506123bf816133cd565b6123fe576040517f08c379a00000000000000000000000000000000000000000000000000000000081526004016123f590615001565b60405180910390fd5b6000600b848154811061241457612413614636565b5b90600052602060002090600402019050600061243083836133f4565b90506000606442338960405160200161244b93929190615042565b6040516020818303038152906040528051906020012060001c61246e91906150ae565b90508181116126255783600301601081819054906101000a900461ffff1680929190612499906150df565b91906101000a81548161ffff021916908361ffff1602179055505083600301600481819054906101000a900463ffffffff16809291906124d890615109565b91906101000a81548163ffffffff021916908363ffffffff1602179055505082600301601281819054906101000a900461ffff1680929190612519906150df565b91906101000a81548161ffff021916908361ffff1602179055505061253d84613530565b61254683613530565b600080600960009054906101000a900460ff1660ff168660030160109054906101000a900461ffff166125799190615135565b61ffff16036125cd576125ca856001015485600101546040518060400160405280600681526020017f7a6f6d62696500000000000000000000000000000000000000000000000000008152506135d6565b90505b3373ffffffffffffffffffffffffffffffffffffffff167f750a7c18ca7f7bd87c6e50678ea7fa4f64d0cb733bb68cdac552d009737b471689898460405161261793929190615166565b60405180910390a25061270b565b83600301601281819054906101000a900461ffff1680929190612647906150df565b91906101000a81548161ffff021916908361ffff1602179055505082600301601081819054906101000a900461ffff1680929190612684906150df565b91906101000a81548161ffff021916908361ffff160217905550506126a884613530565b6126b183613530565b6126ba846136c6565b3373ffffffffffffffffffffffffffffffffffffffff167f4fa78061bb2783669831d2e2aa9ca18cb698e098923982bfada46ceaf1516d6a888860405161270292919061519d565b60405180910390a25b50505050505050565b61271c611d93565b61272557600080fd5b8060068190555050565b600c818154811061273f57600080fd5b906000526020600020016000915054906101000a900473ffffffffffffffffffffffffffffffffffffffff1681565b612776611d93565b61277f57600080fd5b612788816136f9565b50565b612793611d93565b61279c57600080fd5b8060088190555050565b600083600d600082815260200190815260200160002060009054906101000a900473ffffffffffffffffffffffffffffffffffffffff1673ffffffffffffffffffffffffffffffffffffffff163373ffffffffffffffffffffffffffffffffffffffff161461281457600080fd5b6000600b868154811061282a57612829614636565b5b90600052602060002090600402019050612843816137ef565b612882576040517f08c379a000000000000000000000000000000000000000000000000000000000815260040161287990615212565b60405180910390fd5b600081600301601481819054906101000a900461ffff16809291906128a6906150df565b91906101000a81548161ffff021916908361ffff160217905550506000600960019054906101000a900460ff1660ff168360030160149054906101000a900461ffff166128f39190615135565b61ffff160361290e5761290b826001015487876135d6565b90505b61291782613816565b8093505050509392505050565b60606000600161293384613849565b01905060008167ffffffffffffffff81111561295257612951613dc5565b5b6040519080825280601f01601f1916602001820160405280156129845781602001600182028036833780820191505090505b509050600082602001820190505b6001156129e7578080600190039150507f3031323334353637383961626364656600000000000000000000000000000000600a86061a8153600a85816129db576129da61507f565b5b04945060008503612992575b819350505050919050565b6060600083905060006002846002612a0a9190615232565b612a149190614b05565b67ffffffffffffffff811115612a2d57612a2c613dc5565b5b6040519080825280601f01601f191660200182016040528015612a5f5781602001600182028036833780820191505090505b5090507f300000000000000000000000000000000000000000000000000000000000000081600081518110612a9757612a96614636565b5b60200101907effffffffffffffffffffffffffffffffffffffffffffffffffffffffffffff1916908160001a9053507f780000000000000000000000000000000000000000000000000000000000000081600181518110612afb57612afa614636565b5b60200101907effffffffffffffffffffffffffffffffffffffffffffffffffffffffffffff1916908160001a90535060006001856002612b3b9190615232565b612b459190614b05565b90505b6001811115612be5577f3031323334353637383961626364656600000000000000000000000000000000600f841660108110612b8757612b86614636565b5b1a60f81b828281518110612b9e57612b9d614636565b5b60200101907effffffffffffffffffffffffffffffffffffffffffffffffffffffffffffff1916908160001a905350600483901c925080612bde90615274565b9050612b48565b5060008214612c2d5784846040517fe22e27eb000000000000000000000000000000000000000000000000000000008152600401612c2492919061519d565b60405180910390fd5b809250505092915050565b6001600e60008473ffffffffffffffffffffffffffffffffffffffff1673ffffffffffffffffffffffffffffffffffffffff16815260200190815260200160002054612c849190614b05565b600e60008473ffffffffffffffffffffffffffffffffffffffff1673ffffffffffffffffffffffffffffffffffffffff168152602001908152602001600020819055506001600e60008573ffffffffffffffffffffffffffffffffffffffff1673ffffffffffffffffffffffffffffffffffffffff16815260200190815260200160002054612d13919061529d565b600e60008573ffffffffffffffffffffffffffffffffffffffff1673ffffffffffffffffffffffffffffffffffffffff1681526020019081526020016000208190555081600d600083815260200190815260200160002060006101000a81548173ffffffffffffffffffffffffffffffffffffffff021916908373ffffffffffffffffffffffffffffffffffffffff160217905550808273ffffffffffffffffffffffffffffffffffffffff168473ffffffffffffffffffffffffffffffffffffffff167fddf252ad1be2c89b69c2b068fc378daa952ba7f163c4a11628f55a4df523b3ef60405160405180910390a4505050565b6000806000808486612e1a9190615232565b9050868110612e5e576040517f08c379a0000000000000000000000000000000000000000000000000000000008152600401612e559061531d565b60405180910390fd5b60008582612e6c9190614b05565b905087811115612e7a578790505b60008282612e88919061529d565b905082818395509550955050505093509350939050565b600082612eac858461399c565b1490509392505050565b600060016000815480929190612ecb90614d58565b91905055506000826001544233600143612ee5919061529d565b40604051602001612efa95949392919061535e565b6040516020818303038152906040528051906020012060001c905060035481612f2391906150ae565b915050919050565b6000825111612f6f576040517f08c379a0000000000000000000000000000000000000000000000000000000008152600401612f6690615405565b60405180910390fd5b808114612fb1576040517f08c379a0000000000000000000000000000000000000000000000000000000008152600401612fa890615471565b60405180910390fd5b60004290506000604051806101400160405280858152602001848152602001600081526020018363ffffffff168152602001600163ffffffff1681526020018363ffffffff1681526020018363ffffffff168152602001600061ffff168152602001600061ffff168152602001600061ffff168152509050600b819080600181540180825580915050600190039060005260206000209060040201600090919091909150600082015181600001908161306a91906149a5565b50602082015181600101556040820151816002015560608201518160030160006101000a81548163ffffffff021916908363ffffffff16021790555060808201518160030160046101000a81548163ffffffff021916908363ffffffff16021790555060a08201518160030160086101000a81548163ffffffff021916908363ffffffff16021790555060c082015181600301600c6101000a81548163ffffffff021916908363ffffffff16021790555060e08201518160030160106101000a81548161ffff021916908361ffff1602179055506101008201518160030160126101000a81548161ffff021916908361ffff1602179055506101208201518160030160146101000a81548161ffff021916908361ffff160217905550505060006001600b8054905061319c919061529d565b905033600d600083815260200190815260200160002060006101000a81548173ffffffffffffffffffffffffffffffffffffffff021916908373ffffffffffffffffffffffffffffffffffffffff1602179055506001600e60003373ffffffffffffffffffffffffffffffffffffffff1673ffffffffffffffffffffffffffffffffffffffff1681526020019081526020016000205461323c9190614b05565b600e60003373ffffffffffffffffffffffffffffffffffffffff1673ffffffffffffffffffffffffffffffffffffffff16815260200190815260200160002081905550803373ffffffffffffffffffffffffffffffffffffffff167ff92b1ba4cb9ae7683c3a3a1e58273b24013547531f590e32910f3105e8349e1f87876040516132c8929190615491565b60405180910390a35050505050565b6000600e60008373ffffffffffffffffffffffffffffffffffffffff1673ffffffffffffffffffffffffffffffffffffffff1681526020019081526020016000205411613359576040517f08c379a000000000000000000000000000000000000000000000000000000000815260040161335090615533565b60405180910390fd5b613362816139ec565b6133ca57600c819080600181540180825580915050600190039060005260206000200160009091909190916101000a81548173ffffffffffffffffffffffffffffffffffffffff021916908373ffffffffffffffffffffffffffffffffffffffff1602179055505b50565b6000428260030160089054906101000a900463ffffffff1663ffffffff1611159050919050565b600080601454905060008360030160049054906101000a900463ffffffff168560030160049054906101000a900463ffffffff166134329190615560565b905060008160030b13156134655760028161344d91906155bc565b63ffffffff168261345e9190614b05565b915061349c565b60008160030b121561349b5760028161347d906155f9565b61348791906155bc565b63ffffffff1682613498919061529d565b91505b5b6000806134ac8760010154613a94565b509150915060006134c08760010154613a94565b925050506000600a82846002876134d79190615232565b6134e19190614b05565b6134eb919061529d565b6134f59190615641565b905080866135039190614b05565b9550605a86111561351357605a95505b601e86101561352157601e95505b85965050505050505092915050565b600060038260030160129054906101000a900461ffff166135519190615672565b61ffff1660058360030160109054906101000a900461ffff166135749190615672565b61ffff16600a8460030160049054906101000a900463ffffffff1661359991906155bc565b6135a39190614761565b6135ad91906156af565b9050600a8163ffffffff1610156135c357600a90505b8063ffffffff1682600201819055505050565b6000600354836135e691906150ae565b92506000600284866135f89190614b05565b6136029190615641565b905060405160200161361390615733565b604051602081830303815290604052805190602001208360405160200161363a9190615748565b604051602081830303815290604052805190602001200361367c57606360648261366491906150ae565b8261366f919061529d565b6136799190614b05565b90505b6136bb6040518060400160405280600681526020017f4e6f4e616d65000000000000000000000000000000000000000000000000000081525082612f2b565b809150509392505050565b600754426136d49190614b05565b8160030160086101000a81548163ffffffff021916908363ffffffff16021790555050565b600073ffffffffffffffffffffffffffffffffffffffff168173ffffffffffffffffffffffffffffffffffffffff160361373257600080fd5b8073ffffffffffffffffffffffffffffffffffffffff1660008054906101000a900473ffffffffffffffffffffffffffffffffffffffff1673ffffffffffffffffffffffffffffffffffffffff167f8be0079c531659141344cd1fd0a4f28419497f9722a3daafe3b4186f6b6457e060405160405180910390a3806000806101000a81548173ffffffffffffffffffffffffffffffffffffffff021916908373ffffffffffffffffffffffffffffffffffffffff16021790555050565b60004282600301600c9054906101000a900463ffffffff1663ffffffff1611159050919050565b600854426138249190614b05565b81600301600c6101000a81548163ffffffff021916908363ffffffff16021790555050565b600080600090507a184f03e93ff9f4daa797ed6e38ed64bf6a1f01000000000000000083106138a7577a184f03e93ff9f4daa797ed6e38ed64bf6a1f010000000000000000838161389d5761389c61507f565b5b0492506040810190505b6d04ee2d6d415b85acef810000000083106138e4576d04ee2d6d415b85acef810000000083816138da576138d961507f565b5b0492506020810190505b662386f26fc10000831061391357662386f26fc1000083816139095761390861507f565b5b0492506010810190505b6305f5e100831061393c576305f5e10083816139325761393161507f565b5b0492506008810190505b61271083106139615761271083816139575761395661507f565b5b0492506004810190505b60648310613984576064838161397a5761397961507f565b5b0492506002810190505b600a8310613993576001810190505b80915050919050565b60008082905060005b84518110156139e1576139d2828683815181106139c5576139c4614636565b5b6020026020010151613b1b565b915080806001019150506139a5565b508091505092915050565b6000806000905060005b600c80549050811015613a8a578373ffffffffffffffffffffffffffffffffffffffff16600c8281548110613a2e57613a2d614636565b5b9060005260206000200160009054906101000a900473ffffffffffffffffffffffffffffffffffffffff1673ffffffffffffffffffffffffffffffffffffffff1603613a7d5760019150613a8a565b80806001019150506139f6565b5080915050919050565b600080600080603285613aa791906150ae565b6032613ab39190614b05565b905060006032606487613ac69190615641565b613ad091906150ae565b6032613adc9190614b05565b90506000603261271088613af09190615641565b613afa91906150ae565b6032613b069190614b05565b90508282829550955095505050509193909250565b6000818310613b3357613b2e8284613b46565b613b3e565b613b3d8383613b46565b5b905092915050565b600082600052816020526040600020905092915050565b6000604051905090565b600080fd5b600080fd5b60007fffffffff0000000000000000000000000000000000000000000000000000000082169050919050565b613ba681613b71565b8114613bb157600080fd5b50565b600081359050613bc381613b9d565b92915050565b600060208284031215613bdf57613bde613b67565b5b6000613bed84828501613bb4565b91505092915050565b60008115159050919050565b613c0b81613bf6565b82525050565b6000602082019050613c266000830184613c02565b92915050565b6000819050919050565b613c3f81613c2c565b82525050565b6000602082019050613c5a6000830184613c36565b92915050565b613c6981613c2c565b8114613c7457600080fd5b50565b600081359050613c8681613c60565b92915050565b600080600060608486031215613ca557613ca4613b67565b5b6000613cb386828701613c77565b9350506020613cc486828701613c77565b9250506040613cd586828701613c77565b9150509250925092565b600073ffffffffffffffffffffffffffffffffffffffff82169050919050565b6000613d0a82613cdf565b9050919050565b613d1a81613cff565b8114613d2557600080fd5b50565b600081359050613d3781613d11565b92915050565b60008060408385031215613d5457613d53613b67565b5b6000613d6285828601613d28565b9250506020613d7385828601613c77565b9150509250929050565b600060208284031215613d9357613d92613b67565b5b6000613da184828501613c77565b91505092915050565b600080fd5b600080fd5b6000601f19601f8301169050919050565b7f4e487b7100000000000000000000000000000000000000000000000000000000600052604160045260246000fd5b613dfd82613db4565b810181811067ffffffffffffffff82111715613e1c57613e1b613dc5565b5b80604052505050565b6000613e2f613b5d565b9050613e3b8282613df4565b919050565b600067ffffffffffffffff821115613e5b57613e5a613dc5565b5b613e6482613db4565b9050602081019050919050565b82818337600083830152505050565b6000613e93613e8e84613e40565b613e25565b905082815260208101848484011115613eaf57613eae613daf565b5b613eba848285613e71565b509392505050565b600082601f830112613ed757613ed6613daa565b5b8135613ee7848260208601613e80565b91505092915050565b600060208284031215613f0657613f05613b67565b5b600082013567ffffffffffffffff811115613f2457613f23613b6c565b5b613f3084828501613ec2565b91505092915050565b600081519050919050565b600082825260208201905092915050565b60005b83811015613f73578082015181840152602081019050613f58565b60008484015250505050565b6000613f8a82613f39565b613f948185613f44565b9350613fa4818560208601613f55565b613fad81613db4565b840191505092915050565b600063ffffffff82169050919050565b613fd181613fb8565b82525050565b600061ffff82169050919050565b613fee81613fd7565b82525050565b600061014082019050818103600083015261400f818d613f7f565b905061401e602083018c613c36565b61402b604083018b613c36565b614038606083018a613fc8565b6140456080830189613fc8565b61405260a0830188613fc8565b61405f60c0830187613fc8565b61406c60e0830186613fe5565b61407a610100830185613fe5565b614088610120830184613fe5565b9b9a5050505050505050505050565b6000806000606084860312156140b0576140af613b67565b5b60006140be86828701613d28565b93505060206140cf86828701613d28565b92505060406140e086828701613c77565b9150509250925092565b6000819050919050565b6140fd816140ea565b82525050565b600060208201905061411860008301846140f4565b92915050565b60006020828403121561413457614133613b67565b5b600061414284828501613d28565b91505092915050565b600081519050919050565b600082825260208201905092915050565b6000819050602082019050919050565b61418081613c2c565b82525050565b60006141928383614177565b60208301905092915050565b6000602082019050919050565b60006141b68261414b565b6141c08185614156565b93506141cb83614167565b8060005b838110156141fc5781516141e38882614186565b97506141ee8361419e565b9250506001810190506141cf565b5085935050505092915050565b6000602082019050818103600083015261422381846141ab565b905092915050565b6000806040838503121561424257614241613b67565b5b600061425085828601613c77565b925050602061426185828601613c77565b9150509250929050565b600081519050919050565b600082825260208201905092915050565b6000819050602082019050919050565b6142a081613cff565b82525050565b60006142b28383614297565b60208301905092915050565b6000602082019050919050565b60006142d68261426b565b6142e08185614276565b93506142eb83614287565b8060005b8381101561431c57815161430388826142a6565b975061430e836142be565b9250506001810190506142ef565b5085935050505092915050565b6000602082019050818103600083015261434381846142cb565b905092915050565b600060ff82169050919050565b6143618161434b565b82525050565b600060208201905061437c6000830184614358565b92915050565b61438b81613cff565b82525050565b60006020820190506143a66000830184614382565b92915050565b600060208201905081810360008301526143c68184613f7f565b905092915050565b6143d78161434b565b81146143e257600080fd5b50565b6000813590506143f4816143ce565b92915050565b6000602082840312156144105761440f613b67565b5b600061441e848285016143e5565b91505092915050565b600080fd5b600080fd5b60008083601f84011261444757614446613daa565b5b8235905067ffffffffffffffff81111561446457614463614427565b5b6020830191508360208202830111156144805761447f61442c565b5b9250929050565b6000806020838503121561449e5761449d613b67565b5b600083013567ffffffffffffffff8111156144bc576144bb613b6c565b5b6144c885828601614431565b92509250509250929050565b6144dd816140ea565b81146144e857600080fd5b50565b6000813590506144fa816144d4565b92915050565b60006020828403121561451657614515613b67565b5b6000614524848285016144eb565b91505092915050565b60008083601f84011261454357614542613daa565b5b8235905067ffffffffffffffff8111156145605761455f614427565b5b60208301915083600182028301111561457c5761457b61442c565b5b9250929050565b60008060006040848603121561459c5761459b613b67565b5b60006145aa86828701613c77565b935050602084013567ffffffffffffffff8111156145cb576145ca613b6c565b5b6145d78682870161452d565b92509250509250925092565b6000806000606084860312156145fc576145fb613b67565b5b600061460a86828701613d28565b935050602061461b86828701613c77565b925050604061462c86828701613c77565b9150509250925092565b7f4e487b7100000000000000000000000000000000000000000000000000000000600052603260045260246000fd5b600060808201905061467a6000830187613c36565b6146876020830186613c36565b6146946040830185613c36565b6146a16060830184613c36565b95945050505050565b7f5072696365206d696e696d756d20697320000000000000000000000000000000815250565b600081905092915050565b60006146e682613f39565b6146f081856146d0565b9350614700818560208601613f55565b80840191505092915050565b6000614717826146aa565b60118201915061472782846146db565b915081905092915050565b7f4e487b7100000000000000000000000000000000000000000000000000000000600052601160045260246000fd5b600061476c82613fb8565b915061477783613fb8565b9250828201905063ffffffff81111561479357614792614732565b5b92915050565b7f4e487b7100000000000000000000000000000000000000000000000000000000600052602260045260246000fd5b600060028204905060018216806147e057607f821691505b6020821081036147f3576147f2614799565b5b50919050565b60008190508160005260206000209050919050565b60006020601f8301049050919050565b600082821b905092915050565b60006008830261485b7fffffffffffffffffffffffffffffffffffffffffffffffffffffffffffffffff8261481e565b614865868361481e565b95508019841693508086168417925050509392505050565b6000819050919050565b60006148a261489d61489884613c2c565b61487d565b613c2c565b9050919050565b6000819050919050565b6148bc83614887565b6148d06148c8826148a9565b84845461482b565b825550505050565b600090565b6148e56148d8565b6148f08184846148b3565b505050565b5b81811015614914576149096000826148dd565b6001810190506148f6565b5050565b601f8211156149595761492a816147f9565b6149338461480e565b81016020851015614942578190505b61495661494e8561480e565b8301826148f5565b50505b505050565b600082821c905092915050565b600061497c6000198460080261495e565b1980831691505092915050565b6000614995838361496b565b9150826002028217905092915050565b6149ae82613f39565b67ffffffffffffffff8111156149c7576149c6613dc5565b5b6149d182546147c8565b6149dc828285614918565b600060209050601f831160018114614a0f57600084156149fd578287015190505b614a078582614989565b865550614a6f565b601f198416614a1d866147f9565b60005b82811015614a4557848901518255600182019150602085019450602081019050614a20565b86831015614a625784890151614a5e601f89168261496b565b8355505b6001600288020188555050505b505050505050565b7f596f7520617265206e6f74206f776e6572206f7220617070726f7665642e2000815250565b7f2020000000000000000000000000000000000000000000000000000000000000815250565b6000614ace82614a77565b601f82019150614ade82856146db565b9150614ae982614a9d565b600282019150614af982846146db565b91508190509392505050565b6000614b1082613c2c565b9150614b1b83613c2c565b9250828201905080821115614b3357614b32614732565b5b92915050565b7f4c6576656c206d696e2e20697320000000000000000000000000000000000000815250565b6000614b6a82614b39565b600e82019150614b7a82846146db565b915081905092915050565b7f4f6e6c7920000000000000000000000000000000000000000000000000000000815250565b6000614bb682614b85565b600582019150614bc682846146db565b915081905092915050565b7f4f6e65206d696e7420706572206163636f756e74000000000000000000000000600082015250565b6000614c07601483613f44565b9150614c1282614bd1565b602082019050919050565b60006020820190508181036000830152614c3681614bfa565b9050919050565b60008160601b9050919050565b6000614c5582614c3d565b9050919050565b6000614c6782614c4a565b9050919050565b614c7f614c7a82613cff565b614c5c565b82525050565b6000614c918284614c6e565b60148201915081905092915050565b7f496e76616c69642070726f6f6600000000000000000000000000000000000000600082015250565b6000614cd6600d83613f44565b9150614ce182614ca0565b602082019050919050565b60006020820190508181036000830152614d0581614cc9565b9050919050565b7f5a6f6d6269652000000000000000000000000000000000000000000000000000815250565b6000614d3d82614d0c565b600782019150614d4d82846146db565b915081905092915050565b6000614d6382613c2c565b91507fffffffffffffffffffffffffffffffffffffffffffffffffffffffffffffffff8203614d9557614d94614732565b5b600182019050919050565b600082905092915050565b614db58383614da0565b67ffffffffffffffff811115614dce57614dcd613dc5565b5b614dd882546147c8565b614de3828285614918565b6000601f831160018114614e125760008415614e00578287013590505b614e0a8582614989565b865550614e72565b601f198416614e20866147f9565b60005b82811015614e4857848901358255600182019150602085019450602081019050614e23565b86831015614e655784890135614e61601f89168261496b565b8355505b6001600288020188555050505b50505050505050565b60008154614e88816147c8565b614e9281866146d0565b94506001821660008114614ead5760018114614ec257614ef5565b60ff1983168652811515820286019350614ef5565b614ecb856147f9565b60005b83811015614eed57815481890152600182019150602081019050614ece565b838801955050505b50505092915050565b7f2f00000000000000000000000000000000000000000000000000000000000000815250565b7f2e6a736f6e000000000000000000000000000000000000000000000000000000815250565b6000614f568287614e7b565b9150614f6282866146db565b9150614f6d82614efe565b600182019150614f7d8285614e7b565b9150614f8882614efe565b600182019150614f9882846146db565b9150614fa382614f24565b60058201915081905095945050505050565b7f49742773206e6f7420726561647920746f2061747461636b0000000000000000600082015250565b6000614feb601883613f44565b9150614ff682614fb5565b602082019050919050565b6000602082019050818103600083015261501a81614fde565b9050919050565b6000819050919050565b61503c61503782613c2c565b615021565b82525050565b600061504e828661502b565b60208201915061505e8285614c6e565b60148201915061506e828461502b565b602082019150819050949350505050565b7f4e487b7100000000000000000000000000000000000000000000000000000000600052601260045260246000fd5b60006150b982613c2c565b91506150c483613c2c565b9250826150d4576150d361507f565b5b828206905092915050565b60006150ea82613fd7565b915061ffff82036150fe576150fd614732565b5b600182019050919050565b600061511482613fb8565b915063ffffffff820361512a57615129614732565b5b600182019050919050565b600061514082613fd7565b915061514b83613fd7565b92508261515b5761515a61507f565b5b828206905092915050565b600060608201905061517b6000830186613c36565b6151886020830185613c36565b6151956040830184613c36565b949350505050565b60006040820190506151b26000830185613c36565b6151bf6020830184613c36565b9392505050565b7f49742773206e6f7420726561647920746f206665656400000000000000000000600082015250565b60006151fc601683613f44565b9150615207826151c6565b602082019050919050565b6000602082019050818103600083015261522b816151ef565b9050919050565b600061523d82613c2c565b915061524883613c2c565b925082820261525681613c2c565b9150828204841483151761526d5761526c614732565b5b5092915050565b600061527f82613c2c565b91506000820361529257615291614732565b5b600182039050919050565b60006152a882613c2c565b91506152b383613c2c565b92508282039050818111156152cb576152ca614732565b5b92915050565b7f50616765206f7574206f662072616e6765000000000000000000000000000000600082015250565b6000615307601183613f44565b9150615312826152d1565b602082019050919050565b60006020820190508181036000830152615336816152fa565b9050919050565b6000819050919050565b615358615353826140ea565b61533d565b82525050565b600061536a82886146db565b9150615376828761502b565b602082019150615386828661502b565b6020820191506153968285614c6e565b6014820191506153a68284615347565b6020820191508190509695505050505050565b7f4e616d652063616e6e6f74206265206c65667420656d70747900000000000000600082015250565b60006153ef601983613f44565b91506153fa826153b9565b602082019050919050565b6000602082019050818103600083015261541e816153e2565b9050919050565b7f444e41206d75737420626520616e20696e746567657200000000000000000000600082015250565b600061545b601683613f44565b915061546682615425565b602082019050919050565b6000602082019050818103600083015261548a8161544e565b9050919050565b600060408201905081810360008301526154ab8185613f7f565b90506154ba6020830184613c36565b9392505050565b7f43616e277420746f20616464206163636f756e742c206163636f756e7420776960008201527f74686f7574207a6f6d6269650000000000000000000000000000000000000000602082015250565b600061551d602c83613f44565b9150615528826154c1565b604082019050919050565b6000602082019050818103600083015261554c81615510565b9050919050565b60008160030b9050919050565b600061556b82615553565b915061557683615553565b92508282039050637fffffff81137fffffffffffffffffffffffffffffffffffffffffffffffffffffffff80000000821217156155b6576155b5614732565b5b92915050565b60006155c782613fb8565b91506155d283613fb8565b92508282026155e081613fb8565b91508082146155f2576155f1614732565b5b5092915050565b600061560482615553565b91507fffffffffffffffffffffffffffffffffffffffffffffffffffffffff80000000820361563657615635614732565b5b816000039050919050565b600061564c82613c2c565b915061565783613c2c565b9250826156675761566661507f565b5b828204905092915050565b600061567d82613fd7565b915061568883613fd7565b925082820261569681613fd7565b91508082146156a8576156a7614732565b5b5092915050565b60006156ba82613fb8565b91506156c583613fb8565b9250828203905063ffffffff8111156156e1576156e0614732565b5b92915050565b7f6b69747479000000000000000000000000000000000000000000000000000000600082015250565b600061571d6005836146d0565b9150615728826156e7565b600582019050919050565b600061573e82615710565b9150819050919050565b600061575482846146db565b91508190509291505056fea264697066735822122014325a1b7d2a845daa200ba970257078e0a6c3f464b77770400b33f8a508ef9764736f6c634300081c003368747470733a2f2f6170692e63727970746f7a6f6d62696573626174746c652e636f6d2f7a6f6d6269652f7572692f",
  "linkReferences": {},
  "deployedLinkReferences": {}
}