{
  "_format": "hh-sol-artifact-1",
  "contractName": "CryptozombiesBattle",
  "sourceName": "contracts/cryptozombiesBattle/CryptozombiesBattle.sol",
  "abi": [
    {
      "anonymous": false,
      "inputs": [
        {
          "indexed": true,
          "internalType": "address",
          "name": "_owner",
          "type": "address"
        },
        {
          "indexed": true,
          "internalType": "address",
          "name": "_approved",
          "type": "address"
        },
        {
          "indexed": true,
          "internalType": "uint256",
          "name": "_tokenId",
          "type": "uint256"
        }
      ],
      "name": "Approval",
      "type": "event"
    },
    {
      "anonymous": false,
      "inputs": [
        {
          "indexed": true,
          "internalType": "uint256",
          "name": "zombieId",
          "type": "uint256"
        },
        {
          "indexed": true,
          "internalType": "address",
          "name": "buyer",
          "type": "address"
        },
        {
          "indexed": true,
          "internalType": "address",
          "name": "seller",
          "type": "address"
        }
      ],
      "name": "BuyZombie",
      "type": "event"
    },
    {
      "anonymous": false,
      "inputs": [
        {
          "indexed": true,
          "internalType": "uint256",
          "name": "zombieId",
          "type": "uint256"
        },
        {
          "indexed": true,
          "internalType": "address",
          "name": "seller",
          "type": "address"
        }
      ],
      "name": "CancelSaleZombie",
      "type": "event"
    },
    {
      "anonymous": false,
      "inputs": [
        {
          "indexed": true,
          "internalType": "address",
          "name": "from",
          "type": "address"
        },
        {
          "indexed": true,
          "internalType": "uint256",
          "name": "zombieId",
          "type": "uint256"
        },
        {
          "indexed": false,
          "internalType": "string",
          "name": "name",
          "type": "string"
        },
        {
          "indexed": false,
          "internalType": "uint256",
          "name": "dna",
          "type": "uint256"
        }
      ],
      "name": "NewZombie",
      "type": "event"
    },
    {
      "anonymous": false,
      "inputs": [
        {
          "indexed": true,
          "internalType": "address",
          "name": "previousOwner",
          "type": "address"
        },
        {
          "indexed": true,
          "internalType": "address",
          "name": "newOwner",
          "type": "address"
        }
      ],
      "name": "OwnershipTransferred",
      "type": "event"
    },
    {
      "anonymous": false,
      "inputs": [
        {
          "indexed": true,
          "internalType": "uint256",
          "name": "zombieId",
          "type": "uint256"
        },
        {
          "indexed": true,
          "internalType": "uint256",
          "name": "price",
          "type": "uint256"
        },
        {
          "indexed": true,
          "internalType": "address",
          "name": "seller",
          "type": "address"
        }
      ],
      "name": "SaleZombie",
      "type": "event"
    },
    {
      "anonymous": false,
      "inputs": [
        {
          "indexed": true,
          "internalType": "address",
          "name": "_from",
          "type": "address"
        },
        {
          "indexed": true,
          "internalType": "address",
          "name": "_to",
          "type": "address"
        },
        {
          "indexed": true,
          "internalType": "uint256",
          "name": "_tokenId",
          "type": "uint256"
        }
      ],
      "name": "Transfer",
      "type": "event"
    },
    {
      "anonymous": false,
      "inputs": [
        {
          "indexed": true,
          "internalType": "address",
          "name": "from",
          "type": "address"
        },
        {
          "indexed": false,
          "internalType": "uint256",
          "name": "fromId",
          "type": "uint256"
        },
        {
          "indexed": false,
          "internalType": "uint256",
          "name": "targetId",
          "type": "uint256"
        }
      ],
      "name": "onAttackDefeat",
      "type": "event"
    },
    {
      "anonymous": false,
      "inputs": [
        {
          "indexed": true,
          "internalType": "address",
          "name": "from",
          "type": "address"
        },
        {
          "indexed": false,
          "internalType": "uint256",
          "name": "fromId",
          "type": "uint256"
        },
        {
          "indexed": false,
          "internalType": "uint256",
          "name": "targetId",
          "type": "uint256"
        },
        {
          "indexed": false,
          "internalType": "uint256",
          "name": "newDna",
          "type": "uint256"
        }
      ],
      "name": "onAttackVitory",
      "type": "event"
    },
    {
      "anonymous": false,
      "inputs": [
        {
          "indexed": true,
          "internalType": "address",
          "name": "from",
          "type": "address"
        },
        {
          "indexed": false,
          "internalType": "uint256",
          "name": "fromDna",
          "type": "uint256"
        },
        {
          "indexed": false,
          "internalType": "uint256",
          "name": "targetDna",
          "type": "uint256"
        },
        {
          "indexed": false,
          "internalType": "uint256",
          "name": "_kittyId",
          "type": "uint256"
        },
        {
          "indexed": false,
          "internalType": "uint256",
          "name": "newDna",
          "type": "uint256"
        }
      ],
      "name": "onFeed",
      "type": "event"
    },
    {
      "inputs": [
        {
          "internalType": "uint256",
          "name": "",
          "type": "uint256"
        }
      ],
      "name": "accounts",
      "outputs": [
        {
          "internalType": "address",
          "name": "",
          "type": "address"
        }
      ],
      "stateMutability": "view",
      "type": "function"
    },
    {
      "inputs": [
        {
          "internalType": "address",
          "name": "_approved",
          "type": "address"
        },
        {
          "internalType": "uint256",
          "name": "_tokenId",
          "type": "uint256"
        }
      ],
      "name": "approve",
      "outputs": [],
      "stateMutability": "payable",
      "type": "function"
    },
    {
      "inputs": [
        {
          "internalType": "uint256",
          "name": "_zombieId",
          "type": "uint256"
        },
        {
          "internalType": "uint256",
          "name": "_targetId",
          "type": "uint256"
        }
      ],
      "name": "attack",
      "outputs": [],
      "stateMutability": "nonpayable",
      "type": "function"
    },
    {
      "inputs": [],
      "name": "balance",
      "outputs": [
        {
          "internalType": "uint256",
          "name": "",
          "type": "uint256"
        }
      ],
      "stateMutability": "view",
      "type": "function"
    },
    {
      "inputs": [
        {
          "internalType": "address",
          "name": "_owner",
          "type": "address"
        }
      ],
      "name": "balanceOf",
      "outputs": [
        {
          "internalType": "uint256",
          "name": "",
          "type": "uint256"
        }
      ],
      "stateMutability": "view",
      "type": "function"
    },
    {
      "inputs": [],
      "name": "baseUrlTokenURI",
      "outputs": [
        {
          "internalType": "string",
          "name": "",
          "type": "string"
        }
      ],
      "stateMutability": "view",
      "type": "function"
    },
    {
      "inputs": [
        {
          "internalType": "uint256",
          "name": "zombieId",
          "type": "uint256"
        }
      ],
      "name": "buyZombie",
      "outputs": [],
      "stateMutability": "payable",
      "type": "function"
    },
    {
      "inputs": [
        {
          "internalType": "uint256",
          "name": "zombieId",
          "type": "uint256"
        }
      ],
      "name": "cancelSaleZombie",
      "outputs": [],
      "stateMutability": "nonpayable",
      "type": "function"
    },
    {
      "inputs": [],
      "name": "changeDNAFee",
      "outputs": [
        {
          "internalType": "uint256",
          "name": "",
          "type": "uint256"
        }
      ],
      "stateMutability": "view",
      "type": "function"
    },
    {
      "inputs": [
        {
          "internalType": "uint256",
          "name": "_zombieId",
          "type": "uint256"
        },
        {
          "internalType": "uint256",
          "name": "_newDna",
          "type": "uint256"
        }
      ],
      "name": "changeDna",
      "outputs": [],
      "stateMutability": "payable",
      "type": "function"
    },
    {
      "inputs": [
        {
          "internalType": "uint256",
          "name": "_zombieId",
          "type": "uint256"
        },
        {
          "internalType": "string",
          "name": "_newName",
          "type": "string"
        }
      ],
      "name": "changeName",
      "outputs": [],
      "stateMutability": "payable",
      "type": "function"
    },
    {
      "inputs": [],
      "name": "changeNameFee",
      "outputs": [
        {
          "internalType": "uint256",
          "name": "",
          "type": "uint256"
        }
      ],
      "stateMutability": "view",
      "type": "function"
    },
    {
      "inputs": [],
      "name": "cooldownTimeAttack",
      "outputs": [
        {
          "internalType": "uint256",
          "name": "",
          "type": "uint256"
        }
      ],
      "stateMutability": "view",
      "type": "function"
    },
    {
      "inputs": [],
      "name": "cooldownTimeFeeding",
      "outputs": [
        {
          "internalType": "uint256",
          "name": "",
          "type": "uint256"
        }
      ],
      "stateMutability": "view",
      "type": "function"
    },
    {
      "inputs": [
        {
          "internalType": "uint256",
          "name": "_zombieId",
          "type": "uint256"
        },
        {
          "internalType": "uint256",
          "name": "_kittyDna",
          "type": "uint256"
        },
        {
          "internalType": "uint256",
          "name": "_kittyId",
          "type": "uint256"
        }
      ],
      "name": "feedOnKitty",
      "outputs": [],
      "stateMutability": "nonpayable",
      "type": "function"
    },
    {
      "inputs": [],
      "name": "getAccounts",
      "outputs": [
        {
          "internalType": "address[]",
          "name": "",
          "type": "address[]"
        }
      ],
      "stateMutability": "view",
      "type": "function"
    },
    {
      "inputs": [
        {
          "internalType": "uint256",
          "name": "_page",
          "type": "uint256"
        },
        {
          "internalType": "uint256",
          "name": "_pageSize",
          "type": "uint256"
        }
      ],
      "name": "getAccountsPaginated",
      "outputs": [
        {
          "internalType": "address[]",
          "name": "",
          "type": "address[]"
        }
      ],
      "stateMutability": "view",
      "type": "function"
    },
    {
      "inputs": [],
      "name": "getAccountsTotal",
      "outputs": [
        {
          "internalType": "uint256",
          "name": "",
          "type": "uint256"
        }
      ],
      "stateMutability": "view",
      "type": "function"
    },
    {
      "inputs": [
        {
          "internalType": "uint256",
          "name": "_zombieId",
          "type": "uint256"
        }
      ],
      "name": "getZombieByIdInSale",
      "outputs": [
        {
          "components": [
            {
              "internalType": "address payable",
              "name": "seller",
              "type": "address"
            },
            {
              "internalType": "uint256",
              "name": "zombieId",
              "type": "uint256"
            },
            {
              "internalType": "uint256",
              "name": "price",
              "type": "uint256"
            }
          ],
          "internalType": "struct ZombieMarket.ZombieSale",
          "name": "",
          "type": "tuple"
        }
      ],
      "stateMutability": "view",
      "type": "function"
    },
    {
      "inputs": [
        {
          "internalType": "address",
          "name": "_owner",
          "type": "address"
        }
      ],
      "name": "getZombiesByOwner",
      "outputs": [
        {
          "internalType": "uint256[]",
          "name": "",
          "type": "uint256[]"
        }
      ],
      "stateMutability": "view",
      "type": "function"
    },
    {
      "inputs": [
        {
          "internalType": "address",
          "name": "_owner",
          "type": "address"
        },
        {
          "internalType": "uint256",
          "name": "_page",
          "type": "uint256"
        },
        {
          "internalType": "uint256",
          "name": "_pageSize",
          "type": "uint256"
        }
      ],
      "name": "getZombiesByOwnerPaginated",
      "outputs": [
        {
          "internalType": "uint256[]",
          "name": "",
          "type": "uint256[]"
        }
      ],
      "stateMutability": "view",
      "type": "function"
    },
    {
      "inputs": [
        {
          "internalType": "uint256",
          "name": "_page",
          "type": "uint256"
        },
        {
          "internalType": "uint256",
          "name": "_pageSize",
          "type": "uint256"
        }
      ],
      "name": "getZombiesInShopPaginated",
      "outputs": [
        {
          "components": [
            {
              "internalType": "address payable",
              "name": "seller",
              "type": "address"
            },
            {
              "internalType": "uint256",
              "name": "zombieId",
              "type": "uint256"
            },
            {
              "internalType": "uint256",
              "name": "price",
              "type": "uint256"
            }
          ],
          "internalType": "struct ZombieMarket.ZombieSale[]",
          "name": "",
          "type": "tuple[]"
        }
      ],
      "stateMutability": "view",
      "type": "function"
    },
    {
      "inputs": [],
      "name": "getZombiesInShopTotal",
      "outputs": [
        {
          "internalType": "uint256",
          "name": "",
          "type": "uint256"
        }
      ],
      "stateMutability": "view",
      "type": "function"
    },
    {
      "inputs": [],
      "name": "isOwner",
      "outputs": [
        {
          "internalType": "bool",
          "name": "",
          "type": "bool"
        }
      ],
      "stateMutability": "view",
      "type": "function"
    },
    {
      "inputs": [
        {
          "internalType": "uint256",
          "name": "_zombieId",
          "type": "uint256"
        }
      ],
      "name": "levelUp",
      "outputs": [],
      "stateMutability": "payable",
      "type": "function"
    },
    {
      "inputs": [],
      "name": "levelUpFee",
      "outputs": [
        {
          "internalType": "uint256",
          "name": "",
          "type": "uint256"
        }
      ],
      "stateMutability": "view",
      "type": "function"
    },
    {
      "inputs": [],
      "name": "minPrice",
      "outputs": [
        {
          "internalType": "uint256",
          "name": "",
          "type": "uint256"
        }
      ],
      "stateMutability": "view",
      "type": "function"
    },
    {
      "inputs": [
        {
          "internalType": "string",
          "name": "_name",
          "type": "string"
        }
      ],
      "name": "mint",
      "outputs": [],
      "stateMutability": "payable",
      "type": "function"
    },
    {
      "inputs": [],
      "name": "mintFee",
      "outputs": [
        {
          "internalType": "uint256",
          "name": "",
          "type": "uint256"
        }
      ],
      "stateMutability": "view",
      "type": "function"
    },
    {
      "inputs": [],
      "name": "mintFree",
      "outputs": [],
      "stateMutability": "nonpayable",
      "type": "function"
    },
    {
      "inputs": [],
      "name": "mintFreeLimit",
      "outputs": [
        {
          "internalType": "uint256",
          "name": "",
          "type": "uint256"
        }
      ],
      "stateMutability": "view",
      "type": "function"
    },
    {
      "inputs": [],
      "name": "mintedFreeCount",
      "outputs": [
        {
          "internalType": "uint256",
          "name": "",
          "type": "uint256"
        }
      ],
      "stateMutability": "view",
      "type": "function"
    },
    {
      "inputs": [],
      "name": "owner",
      "outputs": [
        {
          "internalType": "address",
          "name": "",
          "type": "address"
        }
      ],
      "stateMutability": "view",
      "type": "function"
    },
    {
      "inputs": [
        {
          "internalType": "uint256",
          "name": "_tokenId",
          "type": "uint256"
        }
      ],
      "name": "ownerOf",
      "outputs": [
        {
          "internalType": "address",
          "name": "",
          "type": "address"
        }
      ],
      "stateMutability": "view",
      "type": "function"
    },
    {
      "inputs": [],
      "name": "renounceOwnership",
      "outputs": [],
      "stateMutability": "nonpayable",
      "type": "function"
    },
    {
      "inputs": [
        {
          "internalType": "uint256",
          "name": "zombieId",
          "type": "uint256"
        },
        {
          "internalType": "uint256",
          "name": "price",
          "type": "uint256"
        }
      ],
      "name": "saleZombie",
      "outputs": [],
      "stateMutability": "nonpayable",
      "type": "function"
    },
    {
      "inputs": [
        {
          "internalType": "string",
          "name": "_baseUrlTokenURI",
          "type": "string"
        }
      ],
      "name": "setBaseUrlTokenURI",
      "outputs": [],
      "stateMutability": "nonpayable",
      "type": "function"
    },
    {
      "inputs": [
        {
          "internalType": "uint256",
          "name": "_fee",
          "type": "uint256"
        }
      ],
      "name": "setChangeDNAFee",
      "outputs": [],
      "stateMutability": "nonpayable",
      "type": "function"
    },
    {
      "inputs": [
        {
          "internalType": "uint256",
          "name": "_fee",
          "type": "uint256"
        }
      ],
      "name": "setChangeNameFee",
      "outputs": [],
      "stateMutability": "nonpayable",
      "type": "function"
    },
    {
      "inputs": [
        {
          "internalType": "uint256",
          "name": "_cooldownTime",
          "type": "uint256"
        }
      ],
      "name": "setCooldownTimeAttack",
      "outputs": [],
      "stateMutability": "nonpayable",
      "type": "function"
    },
    {
      "inputs": [
        {
          "internalType": "uint256",
          "name": "_cooldownTime",
          "type": "uint256"
        }
      ],
      "name": "setCooldownTimeFeeding",
      "outputs": [],
      "stateMutability": "nonpayable",
      "type": "function"
    },
    {
      "inputs": [
        {
          "internalType": "uint256",
          "name": "_fee",
          "type": "uint256"
        }
      ],
      "name": "setLevelUpFee",
      "outputs": [],
      "stateMutability": "nonpayable",
      "type": "function"
    },
    {
      "inputs": [
        {
          "internalType": "uint256",
          "name": "value",
          "type": "uint256"
        }
      ],
      "name": "setMinPrice",
      "outputs": [],
      "stateMutability": "nonpayable",
      "type": "function"
    },
    {
      "inputs": [
        {
          "internalType": "uint256",
          "name": "_mintFee",
          "type": "uint256"
        }
      ],
      "name": "setMintFee",
      "outputs": [],
      "stateMutability": "nonpayable",
      "type": "function"
    },
    {
      "inputs": [
        {
          "internalType": "uint256",
          "name": "value",
          "type": "uint256"
        }
      ],
      "name": "setTax",
      "outputs": [],
      "stateMutability": "nonpayable",
      "type": "function"
    },
    {
      "inputs": [
        {
          "internalType": "uint8",
          "name": "_totalAttackVictoryToGetReward",
          "type": "uint8"
        }
      ],
      "name": "setTotalAttackVictoryToGetReward",
      "outputs": [],
      "stateMutability": "nonpayable",
      "type": "function"
    },
    {
      "inputs": [
        {
          "internalType": "uint8",
          "name": "_totalFedToGetReward",
          "type": "uint8"
        }
      ],
      "name": "setTotalFedToGetReward",
      "outputs": [],
      "stateMutability": "nonpayable",
      "type": "function"
    },
    {
      "inputs": [],
      "name": "tax",
      "outputs": [
        {
          "internalType": "uint256",
          "name": "",
          "type": "uint256"
        }
      ],
      "stateMutability": "view",
      "type": "function"
    },
    {
      "inputs": [
        {
          "internalType": "uint256",
          "name": "_tokenId",
          "type": "uint256"
        }
      ],
      "name": "tokenURI",
      "outputs": [
        {
          "internalType": "string",
          "name": "",
          "type": "string"
        }
      ],
      "stateMutability": "view",
      "type": "function"
    },
    {
      "inputs": [],
      "name": "totalAttackVictoryToGetReward",
      "outputs": [
        {
          "internalType": "uint8",
          "name": "",
          "type": "uint8"
        }
      ],
      "stateMutability": "view",
      "type": "function"
    },
    {
      "inputs": [],
      "name": "totalFedToGetReward",
      "outputs": [
        {
          "internalType": "uint8",
          "name": "",
          "type": "uint8"
        }
      ],
      "stateMutability": "view",
      "type": "function"
    },
    {
      "inputs": [
        {
          "internalType": "address",
          "name": "_from",
          "type": "address"
        },
        {
          "internalType": "address",
          "name": "_to",
          "type": "address"
        },
        {
          "internalType": "uint256",
          "name": "_tokenId",
          "type": "uint256"
        }
      ],
      "name": "transferFrom",
      "outputs": [],
      "stateMutability": "payable",
      "type": "function"
    },
    {
      "inputs": [
        {
          "internalType": "address",
          "name": "newOwner",
          "type": "address"
        }
      ],
      "name": "transferOwnership",
      "outputs": [],
      "stateMutability": "nonpayable",
      "type": "function"
    },
    {
      "inputs": [],
      "name": "withdraw",
      "outputs": [],
      "stateMutability": "nonpayable",
      "type": "function"
    },
    {
      "inputs": [
        {
          "internalType": "uint256",
          "name": "",
          "type": "uint256"
        }
      ],
      "name": "zombieIdToSale",
      "outputs": [
        {
          "internalType": "address payable",
          "name": "seller",
          "type": "address"
        },
        {
          "internalType": "uint256",
          "name": "zombieId",
          "type": "uint256"
        },
        {
          "internalType": "uint256",
          "name": "price",
          "type": "uint256"
        }
      ],
      "stateMutability": "view",
      "type": "function"
    },
    {
      "inputs": [
        {
          "internalType": "uint256",
          "name": "",
          "type": "uint256"
        }
      ],
      "name": "zombieSales",
      "outputs": [
        {
          "internalType": "address payable",
          "name": "seller",
          "type": "address"
        },
        {
          "internalType": "uint256",
          "name": "zombieId",
          "type": "uint256"
        },
        {
          "internalType": "uint256",
          "name": "price",
          "type": "uint256"
        }
      ],
      "stateMutability": "view",
      "type": "function"
    },
    {
      "inputs": [
        {
          "internalType": "uint256",
          "name": "",
          "type": "uint256"
        }
      ],
      "name": "zombieToOwner",
      "outputs": [
        {
          "internalType": "address",
          "name": "",
          "type": "address"
        }
      ],
      "stateMutability": "view",
      "type": "function"
    },
    {
      "inputs": [
        {
          "internalType": "uint256",
          "name": "",
          "type": "uint256"
        }
      ],
      "name": "zombies",
      "outputs": [
        {
          "internalType": "string",
          "name": "name",
          "type": "string"
        },
        {
          "internalType": "uint256",
          "name": "dna",
          "type": "uint256"
        },
        {
          "internalType": "uint256",
          "name": "score",
          "type": "uint256"
        },
        {
          "internalType": "uint32",
          "name": "birthTime",
          "type": "uint32"
        },
        {
          "internalType": "uint32",
          "name": "level",
          "type": "uint32"
        },
        {
          "internalType": "uint32",
          "name": "attackReadyTime",
          "type": "uint32"
        },
        {
          "internalType": "uint32",
          "name": "fedReadyTime",
          "type": "uint32"
        },
        {
          "internalType": "uint16",
          "name": "winCount",
          "type": "uint16"
        },
        {
          "internalType": "uint16",
          "name": "lossCount",
          "type": "uint16"
        },
        {
          "internalType": "uint16",
          "name": "fedCount",
          "type": "uint16"
        }
      ],
      "stateMutability": "view",
      "type": "function"
    }
  ],
  "bytecode": "0x608060405260006001556010600255600254600a61001d9190610318565b6003556113886004556000600555660aa87bee538000600655603c600755603c6008556007600960006101000a81548160ff021916908360ff160217905550600a600960016101000a81548160ff021916908360ff16021790555066038d7ea4c68000600f5566071afd498d0000601055660e35fa931a0000601155600060125560326013556040518060600160405280602181526020016165bb60219139601490816100ca91906105a9565b50655af3107a4000601655655af3107a40006017553480156100eb57600080fd5b50336000806101000a81548173ffffffffffffffffffffffffffffffffffffffff021916908373ffffffffffffffffffffffffffffffffffffffff16021790555060008054906101000a900473ffffffffffffffffffffffffffffffffffffffff1673ffffffffffffffffffffffffffffffffffffffff16600073ffffffffffffffffffffffffffffffffffffffff167f8be0079c531659141344cd1fd0a4f28419497f9722a3daafe3b4186f6b6457e060405160405180910390a361067b565b7f4e487b7100000000000000000000000000000000000000000000000000000000600052601160045260246000fd5b60008160011c9050919050565b6000808291508390505b60018511156102325780860481111561020e5761020d6101ac565b5b600185161561021d5780820291505b808102905061022b856101db565b94506101f2565b94509492505050565b60008261024b5760019050610307565b816102595760009050610307565b816001811461026f5760028114610279576102a8565b6001915050610307565b60ff84111561028b5761028a6101ac565b5b8360020a9150848211156102a2576102a16101ac565b5b50610307565b5060208310610133831016604e8410600b84101617156102dd5782820a9050838111156102d8576102d76101ac565b5b610307565b6102ea84848460016101e8565b92509050818404811115610301576103006101ac565b5b81810290505b9392505050565b6000819050919050565b60006103238261030e565b915061032e8361030e565b925061035b7fffffffffffffffffffffffffffffffffffffffffffffffffffffffffffffffff848461023b565b905092915050565b600081519050919050565b7f4e487b7100000000000000000000000000000000000000000000000000000000600052604160045260246000fd5b7f4e487b7100000000000000000000000000000000000000000000000000000000600052602260045260246000fd5b600060028204905060018216806103e457607f821691505b6020821081036103f7576103f661039d565b5b50919050565b60008190508160005260206000209050919050565b60006020601f8301049050919050565b600082821b905092915050565b60006008830261045f7fffffffffffffffffffffffffffffffffffffffffffffffffffffffffffffffff82610422565b6104698683610422565b95508019841693508086168417925050509392505050565b6000819050919050565b60006104a66104a161049c8461030e565b610481565b61030e565b9050919050565b6000819050919050565b6104c08361048b565b6104d46104cc826104ad565b84845461042f565b825550505050565b600090565b6104e96104dc565b6104f48184846104b7565b505050565b5b818110156105185761050d6000826104e1565b6001810190506104fa565b5050565b601f82111561055d5761052e816103fd565b61053784610412565b81016020851015610546578190505b61055a61055285610412565b8301826104f9565b50505b505050565b600082821c905092915050565b600061058060001984600802610562565b1980831691505092915050565b6000610599838361056f565b9150826002028217905092915050565b6105b282610363565b67ffffffffffffffff8111156105cb576105ca61036e565b5b6105d582546103cc565b6105e082828561051c565b600060209050601f8311600181146106135760008415610601578287015190505b61060b858261058d565b865550610673565b601f198416610621866103fd565b60005b8281101561064957848901518255600182019150602085019450602081019050610624565b868310156106665784890151610662601f89168261056f565b8355505b6001600288020188555050505b505050505050565b615f318061068a6000396000f3fe6080604052600436106103815760003560e01c806374e729f7116101d1578063c4114b1211610102578063dedaee94116100a0578063eddd0d9c1161006f578063eddd0d9c14610cbe578063f2a40db814610ce7578063f2fde38b14610d24578063f77de3a114610d4d57610381565b8063dedaee9414610bee578063df20b3de14610c2b578063e1fa763814610c6a578063e45be8eb14610c9357610381565b8063ccf670f8116100dc578063ccf670f814610b41578063d72f761d14610b6a578063d85d3d2714610ba7578063da6c685514610bc357610381565b8063c4114b1214610ab0578063c859f31714610adb578063c87b56dd14610b0457610381565b806399c8d5561161016f578063b69ef8a811610149578063b69ef8a814610a22578063b92e2d7414610a4d578063bcad1fde14610a69578063c39cbef114610a9457610381565b806399c8d556146109a3578063a527d615146109ce578063abbb1f29146109f757610381565b80638a48ac03116101ab5780638a48ac031461090b5780638ab53447146109365780638da5cb5b1461094d5780638f32d59b1461097857610381565b806374e729f71461088e5780637a8936c1146108b9578063811d1367146108e257610381565b80634a10565a116102b657806362b771701161025457806370a082311161022357806370a08231146107e657806370acbb631461082357806370f47cf91461084e578063715018a61461087757610381565b806362b771701461071a5780636352211e1461075757806369c8e14c146107945780636be17f0e146107bd57610381565b806354c92c5f1161029057806354c92c5f1461067f5780635625d6d7146106aa5780635ea8cd12146106d55780635faf2880146106fe57610381565b80634a10565a146105ec5780634f09516614610617578063528b7b8f1461064257610381565b80632052465e116103235780633ccfd60b116102fd5780633ccfd60b146105305780634412e104146105475780634674463b1461058457806349cee8e7146105c157610381565b80632052465e146104a557806323b872dd146104eb5780632e5bb6ff1461050757610381565b80630ce90ec21161035f5780630ce90ec2146103f657806313966db514610412578063139746801461043d5780631919b7e61461047c57610381565b8063021cbcae1461038657806306f33760146103b1578063095ea7b3146103da575b600080fd5b34801561039257600080fd5b5061039b610d76565b6040516103a8919061427a565b60405180910390f35b3480156103bd57600080fd5b506103d860048036038101906103d391906142d5565b610d7c565b005b6103f460048036038101906103ef9190614386565b610e45565b005b610410600480360381019061040b91906143c6565b610f63565b005b34801561041e57600080fd5b506104276110ca565b604051610434919061427a565b60405180910390f35b34801561044957600080fd5b50610464600480360381019061045f91906143c6565b6110d0565b60405161047393929190614414565b60405180910390f35b34801561048857600080fd5b506104a3600480360381019061049e9190614591565b61112a565b005b3480156104b157600080fd5b506104cc60048036038101906104c791906143c6565b61114e565b6040516104e29a99989796959493929190614695565b60405180910390f35b61050560048036038101906105009190614738565b6112a4565b005b34801561051357600080fd5b5061052e600480360381019061052991906143c6565b6113be565b005b34801561053c57600080fd5b506105456113d9565b005b34801561055357600080fd5b5061056e6004803603810190610569919061478b565b611440565b60405161057b9190614876565b60405180910390f35b34801561059057600080fd5b506105ab60048036038101906105a69190614898565b61158d565b6040516105b89190614996565b60405180910390f35b3480156105cd57600080fd5b506105d66116b0565b6040516105e391906149d4565b60405180910390f35b3480156105f857600080fd5b506106016116c3565b60405161060e919061427a565b60405180910390f35b34801561062357600080fd5b5061062c6116c9565b604051610639919061427a565b60405180910390f35b34801561064e57600080fd5b50610669600480360381019061066491906143c6565b6116cf565b60405161067691906149fe565b60405180910390f35b34801561068b57600080fd5b50610694611702565b6040516106a19190614a19565b60405180910390f35b3480156106b657600080fd5b506106bf611790565b6040516106cc919061427a565b60405180910390f35b3480156106e157600080fd5b506106fc60048036038101906106f791906143c6565b611796565b005b61071860048036038101906107139190614898565b6117b1565b005b34801561072657600080fd5b50610741600480360381019061073c9190614898565b61196c565b60405161074e9190614b3b565b60405180910390f35b34801561076357600080fd5b5061077e600480360381019061077991906143c6565b611ac3565b60405161078b91906149fe565b60405180910390f35b3480156107a057600080fd5b506107bb60048036038101906107b69190614b89565b611b00565b005b3480156107c957600080fd5b506107e460048036038101906107df91906143c6565b611b2f565b005b3480156107f257600080fd5b5061080d6004803603810190610808919061478b565b611b4a565b60405161081a919061427a565b60405180910390f35b34801561082f57600080fd5b50610838611b93565b604051610845919061427a565b60405180910390f35b34801561085a57600080fd5b50610875600480360381019061087091906143c6565b611b99565b005b34801561088357600080fd5b5061088c611bb4565b005b34801561089a57600080fd5b506108a3611c83565b6040516108b091906149d4565b60405180910390f35b3480156108c557600080fd5b506108e060048036038101906108db91906143c6565b611c96565b005b3480156108ee57600080fd5b50610909600480360381019061090491906143c6565b611cb1565b005b34801561091757600080fd5b50610920611e12565b60405161092d9190614996565b60405180910390f35b34801561094257600080fd5b5061094b611ea0565b005b34801561095957600080fd5b50610962612062565b60405161096f91906149fe565b60405180910390f35b34801561098457600080fd5b5061098d61208b565b60405161099a9190614bd1565b60405180910390f35b3480156109af57600080fd5b506109b86120e2565b6040516109c5919061427a565b60405180910390f35b3480156109da57600080fd5b506109f560048036038101906109f09190614898565b6120e8565b005b348015610a0357600080fd5b50610a0c612321565b604051610a19919061427a565b60405180910390f35b348015610a2e57600080fd5b50610a3761232e565b604051610a44919061427a565b60405180910390f35b610a676004803603810190610a6291906143c6565b612347565b005b348015610a7557600080fd5b50610a7e6125db565b604051610a8b919061427a565b60405180910390f35b610aae6004803603810190610aa99190614c4c565b6125e1565b005b348015610abc57600080fd5b50610ac56127a8565b604051610ad2919061427a565b60405180910390f35b348015610ae757600080fd5b50610b026004803603810190610afd9190614b89565b6127ae565b005b348015610b1057600080fd5b50610b2b6004803603810190610b2691906143c6565b6127dd565b604051610b389190614a19565b60405180910390f35b348015610b4d57600080fd5b50610b686004803603810190610b6391906143c6565b61284b565b005b348015610b7657600080fd5b50610b916004803603810190610b8c9190614cac565b612866565b604051610b9e9190614876565b60405180910390f35b610bc16004803603810190610bbc9190614591565b612a04565b005b348015610bcf57600080fd5b50610bd8612a9a565b604051610be5919061427a565b60405180910390f35b348015610bfa57600080fd5b50610c156004803603810190610c1091906143c6565b612aa7565b604051610c229190614d41565b60405180910390f35b348015610c3757600080fd5b50610c526004803603810190610c4d91906143c6565b612b3e565b604051610c6193929190614414565b60405180910390f35b348015610c7657600080fd5b50610c916004803603810190610c8c9190614898565b612b88565b005b348015610c9f57600080fd5b50610ca8612f78565b604051610cb5919061427a565b60405180910390f35b348015610cca57600080fd5b50610ce56004803603810190610ce091906143c6565b612f7e565b005b348015610cf357600080fd5b50610d0e6004803603810190610d0991906143c6565b612f99565b604051610d1b91906149fe565b60405180910390f35b348015610d3057600080fd5b50610d4b6004803603810190610d46919061478b565b612fd8565b005b348015610d5957600080fd5b50610d746004803603810190610d6f91906143c6565b612ff5565b005b60055481565b6000600a8481548110610d9257610d91614d5c565b5b906000526020600020906004020190506000610de485856040518060400160405280600581526020017f6b69747479000000000000000000000000000000000000000000000000000000815250613010565b90503373ffffffffffffffffffffffffffffffffffffffff167f94bd9f81959636fb1ddd32f8bcbdab8b649d20a6a464f759a1aa7f7cf4447fac8360010154868685604051610e369493929190614d8b565b60405180910390a25050505050565b80600c600082815260200190815260200160002060009054906101000a900473ffffffffffffffffffffffffffffffffffffffff1673ffffffffffffffffffffffffffffffffffffffff163373ffffffffffffffffffffffffffffffffffffffff1614610eb157600080fd5b826015600084815260200190815260200160002060006101000a81548173ffffffffffffffffffffffffffffffffffffffff021916908373ffffffffffffffffffffffffffffffffffffffff160217905550818373ffffffffffffffffffffffffffffffffffffffff163373ffffffffffffffffffffffffffffffffffffffff167f8c5be1e5ebec7d5bd14f71427d1e84f3dd0314c0f7b2291e5b200ac8c7c3b92560405160405180910390a4505050565b600f5480341015610f738261318e565b604051602001610f839190614e32565b60405160208183030381529060405290610fd3576040517f08c379a0000000000000000000000000000000000000000000000000000000008152600401610fca9190614a19565b60405180910390fd5b5081600c600082815260200190815260200160002060009054906101000a900473ffffffffffffffffffffffffffffffffffffffff1673ffffffffffffffffffffffffffffffffffffffff163373ffffffffffffffffffffffffffffffffffffffff161461104057600080fd5b6001600a848154811061105657611055614d5c565b5b906000526020600020906004020160030160049054906101000a900463ffffffff166110829190614e87565b600a848154811061109657611095614d5c565b5b906000526020600020906004020160030160046101000a81548163ffffffff021916908363ffffffff160217905550505050565b60065481565b601881815481106110e057600080fd5b90600052602060002090600302016000915090508060000160009054906101000a900473ffffffffffffffffffffffffffffffffffffffff16908060010154908060020154905083565b61113261208b565b61113b57600080fd5b806014908161114a91906150cb565b5050565b600a818154811061115e57600080fd5b906000526020600020906004020160009150905080600001805461118190614eee565b80601f01602080910402602001604051908101604052809291908181526020018280546111ad90614eee565b80156111fa5780601f106111cf576101008083540402835291602001916111fa565b820191906000526020600020905b8154815290600101906020018083116111dd57829003601f168201915b5050505050908060010154908060020154908060030160009054906101000a900463ffffffff16908060030160049054906101000a900463ffffffff16908060030160089054906101000a900463ffffffff169080600301600c9054906101000a900463ffffffff16908060030160109054906101000a900461ffff16908060030160129054906101000a900461ffff16908060030160149054906101000a900461ffff1690508a565b3373ffffffffffffffffffffffffffffffffffffffff16600c600083815260200190815260200160002060009054906101000a900473ffffffffffffffffffffffffffffffffffffffff1673ffffffffffffffffffffffffffffffffffffffff16148061136f57503373ffffffffffffffffffffffffffffffffffffffff166015600083815260200190815260200160002060009054906101000a900473ffffffffffffffffffffffffffffffffffffffff1673ffffffffffffffffffffffffffffffffffffffff16145b6113ae576040517f08c379a00000000000000000000000000000000000000000000000000000000081526004016113a5906151e9565b60405180910390fd5b6113b983838361325c565b505050565b6113c661208b565b6113cf57600080fd5b8060168190555050565b6113e161208b565b6113ea57600080fd5b60006113f4612062565b90508073ffffffffffffffffffffffffffffffffffffffff166108fc479081150290604051600060405180830381858888f1935050505015801561143c573d6000803e3d6000fd5b5050565b60606000600d60008473ffffffffffffffffffffffffffffffffffffffff1673ffffffffffffffffffffffffffffffffffffffff1681526020019081526020016000205467ffffffffffffffff81111561149d5761149c614466565b5b6040519080825280602002602001820160405280156114cb5781602001602082028036833780820191505090505b5090506000805b600a80549050811015611582578473ffffffffffffffffffffffffffffffffffffffff16600c600083815260200190815260200160002060009054906101000a900473ffffffffffffffffffffffffffffffffffffffff1673ffffffffffffffffffffffffffffffffffffffff1603611575578083838151811061155957611558614d5c565b5b6020026020010181815250506001826115729190615209565b91505b80806001019150506114d2565b508192505050919050565b60606000806115a2600b80549050868661342c565b509150915060008167ffffffffffffffff8111156115c3576115c2614466565b5b6040519080825280602002602001820160405280156115f15781602001602082028036833780820191505090505b50905060005b828110156116a357600b818561160d9190615209565b8154811061161e5761161d614d5c565b5b9060005260206000200160009054906101000a900473ffffffffffffffffffffffffffffffffffffffff1682828151811061165c5761165b614d5c565b5b602002602001019073ffffffffffffffffffffffffffffffffffffffff16908173ffffffffffffffffffffffffffffffffffffffff168152505080806001019150506115f7565b5080935050505092915050565b600960009054906101000a900460ff1681565b60045481565b60105481565b600c6020528060005260406000206000915054906101000a900473ffffffffffffffffffffffffffffffffffffffff1681565b6014805461170f90614eee565b80601f016020809104026020016040519081016040528092919081815260200182805461173b90614eee565b80156117885780601f1061175d57610100808354040283529160200191611788565b820191906000526020600020905b81548152906001019060200180831161176b57829003601f168201915b505050505081565b60075481565b61179e61208b565b6117a757600080fd5b8060178190555050565b601154803410156117c18261318e565b6040516020016117d19190614e32565b60405160208183030381529060405290611821576040517f08c379a00000000000000000000000000000000000000000000000000000000081526004016118189190614a19565b60405180910390fd5b5060148381600a828154811061183a57611839614d5c565b5b906000526020600020906004020160030160049054906101000a900463ffffffff1663ffffffff16101561186d8361318e565b60405160200161187d9190615263565b604051602081830303815290604052906118cd576040517f08c379a00000000000000000000000000000000000000000000000000000000081526004016118c49190614a19565b60405180910390fd5b5084600c600082815260200190815260200160002060009054906101000a900473ffffffffffffffffffffffffffffffffffffffff1673ffffffffffffffffffffffffffffffffffffffff163373ffffffffffffffffffffffffffffffffffffffff161461193a57600080fd5b84600a878154811061194f5761194e614d5c565b5b906000526020600020906004020160010181905550505050505050565b6060600080611981601880549050868661342c565b509150915060008167ffffffffffffffff8111156119a2576119a1614466565b5b6040519080825280602002602001820160405280156119db57816020015b6119c861422a565b8152602001906001900390816119c05790505b50905060005b82811015611ab657601881856119f79190615209565b81548110611a0857611a07614d5c565b5b90600052602060002090600302016040518060600160405290816000820160009054906101000a900473ffffffffffffffffffffffffffffffffffffffff1673ffffffffffffffffffffffffffffffffffffffff1673ffffffffffffffffffffffffffffffffffffffff16815260200160018201548152602001600282015481525050828281518110611a9e57611a9d614d5c565b5b602002602001018190525080806001019150506119e1565b5080935050505092915050565b6000600c600083815260200190815260200160002060009054906101000a900473ffffffffffffffffffffffffffffffffffffffff169050919050565b611b0861208b565b611b1157600080fd5b80600960006101000a81548160ff021916908360ff16021790555050565b611b3761208b565b611b4057600080fd5b8060108190555050565b6000600d60008373ffffffffffffffffffffffffffffffffffffffff1673ffffffffffffffffffffffffffffffffffffffff168152602001908152602001600020549050919050565b60115481565b611ba161208b565b611baa57600080fd5b8060118190555050565b611bbc61208b565b611bc557600080fd5b600073ffffffffffffffffffffffffffffffffffffffff1660008054906101000a900473ffffffffffffffffffffffffffffffffffffffff1673ffffffffffffffffffffffffffffffffffffffff167f8be0079c531659141344cd1fd0a4f28419497f9722a3daafe3b4186f6b6457e060405160405180910390a360008060006101000a81548173ffffffffffffffffffffffffffffffffffffffff021916908373ffffffffffffffffffffffffffffffffffffffff160217905550565b600960019054906101000a900460ff1681565b611c9e61208b565b611ca757600080fd5b8060078190555050565b80600c600082815260200190815260200160002060009054906101000a900473ffffffffffffffffffffffffffffffffffffffff1673ffffffffffffffffffffffffffffffffffffffff163373ffffffffffffffffffffffffffffffffffffffff1614611d1d57600080fd5b3373ffffffffffffffffffffffffffffffffffffffff166019600084815260200190815260200160002060000160009054906101000a900473ffffffffffffffffffffffffffffffffffffffff1673ffffffffffffffffffffffffffffffffffffffff1614611dc1576040517f08c379a0000000000000000000000000000000000000000000000000000000008152600401611db8906152fb565b60405180910390fd5b611dca826134c3565b3373ffffffffffffffffffffffffffffffffffffffff16827f9f63f695352607f5d8532e52458b7b194a971d563a2b360cb52fdf0c1b7cf71060405160405180910390a35050565b6060600b805480602002602001604051908101604052809291908181526020018280548015611e9657602002820191906000526020600020905b8160009054906101000a900473ffffffffffffffffffffffffffffffffffffffff1673ffffffffffffffffffffffffffffffffffffffff1681526020019060010190808311611e4c575b5050505050905090565b60045460055410611eb260045461318e565b604051602001611ec29190615341565b60405160208183030381529060405290611f12576040517f08c379a0000000000000000000000000000000000000000000000000000000008152600401611f099190614a19565b60405180910390fd5b50600e60003373ffffffffffffffffffffffffffffffffffffffff1673ffffffffffffffffffffffffffffffffffffffff16815260200190815260200160002060009054906101000a900460ff1615611fa0576040517f08c379a0000000000000000000000000000000000000000000000000000000008152600401611f97906153b3565b60405180910390fd5b6000611fad60015461318e565b604051602001611fbd91906153f9565b60405160208183030381529060405290506000611fd982613697565b9050611fe5828261370c565b611fee33613ab8565b6001600e60003373ffffffffffffffffffffffffffffffffffffffff1673ffffffffffffffffffffffffffffffffffffffff16815260200190815260200160002060006101000a81548160ff021916908315150217905550600560008154809291906120599061541f565b91905055505050565b60008060009054906101000a900473ffffffffffffffffffffffffffffffffffffffff16905090565b60008060009054906101000a900473ffffffffffffffffffffffffffffffffffffffff1673ffffffffffffffffffffffffffffffffffffffff163373ffffffffffffffffffffffffffffffffffffffff1614905090565b60165481565b81600c600082815260200190815260200160002060009054906101000a900473ffffffffffffffffffffffffffffffffffffffff1673ffffffffffffffffffffffffffffffffffffffff163373ffffffffffffffffffffffffffffffffffffffff161461215457600080fd5b6017546016546121649190615209565b8210156121a6576040517f08c379a000000000000000000000000000000000000000000000000000000000815260040161219d906154b3565b60405180910390fd5b600060405180606001604052803373ffffffffffffffffffffffffffffffffffffffff168152602001858152602001848152509050806019600086815260200190815260200160002060008201518160000160006101000a81548173ffffffffffffffffffffffffffffffffffffffff021916908373ffffffffffffffffffffffffffffffffffffffff1602179055506020820151816001015560408201518160020155905050601881908060018154018082558091505060019003906000526020600020906003020160009091909190915060008201518160000160006101000a81548173ffffffffffffffffffffffffffffffffffffffff021916908373ffffffffffffffffffffffffffffffffffffffff160217905550602082015181600101556040820151816002015550503373ffffffffffffffffffffffffffffffffffffffff1683857f423c789d4ebac5f7edf9bb0afb63074cf8d0ea0f7951b46e8f148abeaa8a72cb60405160405180910390a450505050565b6000600b80549050905090565b600061233861208b565b61234157600080fd5b47905090565b6000601960008381526020019081526020016000206040518060600160405290816000820160009054906101000a900473ffffffffffffffffffffffffffffffffffffffff1673ffffffffffffffffffffffffffffffffffffffff1673ffffffffffffffffffffffffffffffffffffffff168152602001600182015481526020016002820154815250509050806000015173ffffffffffffffffffffffffffffffffffffffff16600073ffffffffffffffffffffffffffffffffffffffff1603612446576040517f08c379a000000000000000000000000000000000000000000000000000000000815260040161243d9061551f565b60405180910390fd5b806000015173ffffffffffffffffffffffffffffffffffffffff163373ffffffffffffffffffffffffffffffffffffffff16036124b8576040517f08c379a00000000000000000000000000000000000000000000000000000000081526004016124af9061558b565b60405180910390fd5b80604001513410156124ff576040517f08c379a00000000000000000000000000000000000000000000000000000000081526004016124f6906154b3565b60405180910390fd5b61250e8160000151338461325c565b806000015173ffffffffffffffffffffffffffffffffffffffff166108fc6016543461253a91906155ab565b9081150290604051600060405180830381858888f19350505050158015612565573d6000803e3d6000fd5b5061256f826134c3565b61257833613ab8565b806000015173ffffffffffffffffffffffffffffffffffffffff163373ffffffffffffffffffffffffffffffffffffffff16837f17ce1013d920fb78658d6b2d935c6c3b03a41da037fdf4bcbf4e258e9e1da00b60405160405180910390a45050565b60085481565b601054803410156125f18261318e565b6040516020016126019190614e32565b60405160208183030381529060405290612651576040517f08c379a00000000000000000000000000000000000000000000000000000000081526004016126489190614a19565b60405180910390fd5b5060028481600a828154811061266a57612669614d5c565b5b906000526020600020906004020160030160049054906101000a900463ffffffff1663ffffffff16101561269d8361318e565b6040516020016126ad9190615263565b604051602081830303815290604052906126fd576040517f08c379a00000000000000000000000000000000000000000000000000000000081526004016126f49190614a19565b60405180910390fd5b5085600c600082815260200190815260200160002060009054906101000a900473ffffffffffffffffffffffffffffffffffffffff1673ffffffffffffffffffffffffffffffffffffffff163373ffffffffffffffffffffffffffffffffffffffff161461276a57600080fd5b8585600a89815481106127805761277f614d5c565b5b9060005260206000209060040201600001918261279e9291906155ea565b5050505050505050565b600f5481565b6127b661208b565b6127bf57600080fd5b80600960016101000a81548160ff021916908360ff16021790555050565b60606000600a83815481106127f5576127f4614d5c565b5b9060005260206000209060040201905060146128108461318e565b82600001612821846001015461318e565b6040516020016128349493929190615763565b604051602081830303815290604052915050919050565b61285361208b565b61285c57600080fd5b80600f8190555050565b606060008060006128b7600d60008973ffffffffffffffffffffffffffffffffffffffff1673ffffffffffffffffffffffffffffffffffffffff16815260200190815260200160002054878761342c565b92509250925060008267ffffffffffffffff8111156128d9576128d8614466565b5b6040519080825280602002602001820160405280156129075781602001602082028036833780820191505090505b50905060008060005b600a805490508110801561292357508583105b156129f3578a73ffffffffffffffffffffffffffffffffffffffff16600c600083815260200190815260200160002060009054906101000a900473ffffffffffffffffffffffffffffffffffffffff1673ffffffffffffffffffffffffffffffffffffffff16036129e05786821015801561299d57508482105b156129d157808484815181106129b6576129b5614d5c565b5b60200260200101818152505082806129cd9061541f565b9350505b81806129dc9061541f565b9250505b80806129eb9061541f565b915050612910565b508296505050505050509392505050565b60065480341015612a148261318e565b604051602001612a249190614e32565b60405160208183030381529060405290612a74576040517f08c379a0000000000000000000000000000000000000000000000000000000008152600401612a6b9190614a19565b60405180910390fd5b506000612a8083613697565b9050612a8c838261370c565b612a9533613ab8565b505050565b6000601880549050905090565b612aaf61422a565b601960008381526020019081526020016000206040518060600160405290816000820160009054906101000a900473ffffffffffffffffffffffffffffffffffffffff1673ffffffffffffffffffffffffffffffffffffffff1673ffffffffffffffffffffffffffffffffffffffff168152602001600182015481526020016002820154815250509050919050565b60196020528060005260406000206000915090508060000160009054906101000a900473ffffffffffffffffffffffffffffffffffffffff16908060010154908060020154905083565b81600c600082815260200190815260200160002060009054906101000a900473ffffffffffffffffffffffffffffffffffffffff1673ffffffffffffffffffffffffffffffffffffffff163373ffffffffffffffffffffffffffffffffffffffff1614612bf457600080fd5b6000600a8481548110612c0a57612c09614d5c565b5b90600052602060002090600402019050612c2381613b2c565b612c62576040517f08c379a0000000000000000000000000000000000000000000000000000000008152600401612c599061580b565b60405180910390fd5b6000600a8481548110612c7857612c77614d5c565b5b906000526020600020906004020190506000612c948383613b53565b905060006064423389604051602001612caf93929190615894565b6040516020818303038152906040528051906020012060001c612cd29190615900565b9050818111612e895783600301601081819054906101000a900461ffff1680929190612cfd90615931565b91906101000a81548161ffff021916908361ffff1602179055505083600301600481819054906101000a900463ffffffff1680929190612d3c9061595b565b91906101000a81548163ffffffff021916908363ffffffff1602179055505082600301601281819054906101000a900461ffff1680929190612d7d90615931565b91906101000a81548161ffff021916908361ffff16021790555050612da184613c8f565b612daa83613c8f565b600080600960009054906101000a900460ff1660ff168660030160109054906101000a900461ffff16612ddd9190615987565b61ffff1603612e3157612e2e856001015485600101546040518060400160405280600681526020017f7a6f6d6269650000000000000000000000000000000000000000000000000000815250613d35565b90505b3373ffffffffffffffffffffffffffffffffffffffff167f750a7c18ca7f7bd87c6e50678ea7fa4f64d0cb733bb68cdac552d009737b4716898984604051612e7b939291906159b8565b60405180910390a250612f6f565b83600301601281819054906101000a900461ffff1680929190612eab90615931565b91906101000a81548161ffff021916908361ffff1602179055505082600301601081819054906101000a900461ffff1680929190612ee890615931565b91906101000a81548161ffff021916908361ffff16021790555050612f0c84613c8f565b612f1583613c8f565b612f1e84613e25565b3373ffffffffffffffffffffffffffffffffffffffff167f4fa78061bb2783669831d2e2aa9ca18cb698e098923982bfada46ceaf1516d6a8888604051612f669291906159ef565b60405180910390a25b50505050505050565b60175481565b612f8661208b565b612f8f57600080fd5b8060068190555050565b600b8181548110612fa957600080fd5b906000526020600020016000915054906101000a900473ffffffffffffffffffffffffffffffffffffffff1681565b612fe061208b565b612fe957600080fd5b612ff281613e58565b50565b612ffd61208b565b61300657600080fd5b8060088190555050565b600083600c600082815260200190815260200160002060009054906101000a900473ffffffffffffffffffffffffffffffffffffffff1673ffffffffffffffffffffffffffffffffffffffff163373ffffffffffffffffffffffffffffffffffffffff161461307e57600080fd5b6000600a868154811061309457613093614d5c565b5b906000526020600020906004020190506130ad81613f4e565b6130ec576040517f08c379a00000000000000000000000000000000000000000000000000000000081526004016130e390615a64565b60405180910390fd5b600081600301601481819054906101000a900461ffff168092919061311090615931565b91906101000a81548161ffff021916908361ffff160217905550506000600960019054906101000a900460ff1660ff168360030160149054906101000a900461ffff1661315d9190615987565b61ffff16036131785761317582600101548787613d35565b90505b61318182613f75565b8093505050509392505050565b60606000600161319d84613fa8565b01905060008167ffffffffffffffff8111156131bc576131bb614466565b5b6040519080825280601f01601f1916602001820160405280156131ee5781602001600182028036833780820191505090505b509050600082602001820190505b600115613251578080600190039150507f3031323334353637383961626364656600000000000000000000000000000000600a86061a8153600a8581613245576132446158d1565b5b049450600085036131fc575b819350505050919050565b6001600d60008473ffffffffffffffffffffffffffffffffffffffff1673ffffffffffffffffffffffffffffffffffffffff168152602001908152602001600020546132a89190615209565b600d60008473ffffffffffffffffffffffffffffffffffffffff1673ffffffffffffffffffffffffffffffffffffffff168152602001908152602001600020819055506001600d60008573ffffffffffffffffffffffffffffffffffffffff1673ffffffffffffffffffffffffffffffffffffffff1681526020019081526020016000205461333791906155ab565b600d60008573ffffffffffffffffffffffffffffffffffffffff1673ffffffffffffffffffffffffffffffffffffffff1681526020019081526020016000208190555081600c600083815260200190815260200160002060006101000a81548173ffffffffffffffffffffffffffffffffffffffff021916908373ffffffffffffffffffffffffffffffffffffffff160217905550808273ffffffffffffffffffffffffffffffffffffffff168473ffffffffffffffffffffffffffffffffffffffff167fddf252ad1be2c89b69c2b068fc378daa952ba7f163c4a11628f55a4df523b3ef60405160405180910390a4505050565b600080600080848661343e9190615a84565b9050868110613482576040517f08c379a000000000000000000000000000000000000000000000000000000000815260040161347990615b12565b60405180910390fd5b600085826134909190615209565b90508781111561349e578790505b600082826134ac91906155ab565b905082818395509550955050505093509350939050565b60196000828152602001908152602001600020600080820160006101000a81549073ffffffffffffffffffffffffffffffffffffffff021916905560018201600090556002820160009055505060005b60188054905081101561369357816018828154811061353557613534614d5c565b5b90600052602060002090600302016001015403613686576018600160188054905061356091906155ab565b8154811061357157613570614d5c565b5b90600052602060002090600302016018828154811061359357613592614d5c565b5b90600052602060002090600302016000820160009054906101000a900473ffffffffffffffffffffffffffffffffffffffff168160000160006101000a81548173ffffffffffffffffffffffffffffffffffffffff021916908373ffffffffffffffffffffffffffffffffffffffff1602179055506001820154816001015560028201548160020155905050601880548061363157613630615b32565b5b6001900381819060005260206000209060030201600080820160006101000a81549073ffffffffffffffffffffffffffffffffffffffff02191690556001820160009055600282016000905550509055613693565b8080600101915050613513565b5050565b6000600160008154809291906136ac9061541f565b919050555060008260015442336001436136c691906155ab565b406040516020016136db959493929190615b8c565b6040516020818303038152906040528051906020012060001c9050600354816137049190615900565b915050919050565b6000825111613750576040517f08c379a000000000000000000000000000000000000000000000000000000000815260040161374790615c33565b60405180910390fd5b808114613792576040517f08c379a000000000000000000000000000000000000000000000000000000000815260040161378990615c9f565b60405180910390fd5b60004290506000604051806101400160405280858152602001848152602001600081526020018363ffffffff168152602001600163ffffffff1681526020018363ffffffff1681526020018363ffffffff168152602001600061ffff168152602001600061ffff168152602001600061ffff168152509050600a819080600181540180825580915050600190039060005260206000209060040201600090919091909150600082015181600001908161384b91906150cb565b50602082015181600101556040820151816002015560608201518160030160006101000a81548163ffffffff021916908363ffffffff16021790555060808201518160030160046101000a81548163ffffffff021916908363ffffffff16021790555060a08201518160030160086101000a81548163ffffffff021916908363ffffffff16021790555060c082015181600301600c6101000a81548163ffffffff021916908363ffffffff16021790555060e08201518160030160106101000a81548161ffff021916908361ffff1602179055506101008201518160030160126101000a81548161ffff021916908361ffff1602179055506101208201518160030160146101000a81548161ffff021916908361ffff160217905550505060006001600a8054905061397d91906155ab565b905033600c600083815260200190815260200160002060006101000a81548173ffffffffffffffffffffffffffffffffffffffff021916908373ffffffffffffffffffffffffffffffffffffffff1602179055506001600d60003373ffffffffffffffffffffffffffffffffffffffff1673ffffffffffffffffffffffffffffffffffffffff16815260200190815260200160002054613a1d9190615209565b600d60003373ffffffffffffffffffffffffffffffffffffffff1673ffffffffffffffffffffffffffffffffffffffff16815260200190815260200160002081905550803373ffffffffffffffffffffffffffffffffffffffff167ff92b1ba4cb9ae7683c3a3a1e58273b24013547531f590e32910f3105e8349e1f8787604051613aa9929190615cbf565b60405180910390a35050505050565b613ac1816140fb565b613b2957600b819080600181540180825580915050600190039060005260206000200160009091909190916101000a81548173ffffffffffffffffffffffffffffffffffffffff021916908373ffffffffffffffffffffffffffffffffffffffff1602179055505b50565b6000428260030160089054906101000a900463ffffffff1663ffffffff1611159050919050565b600080601354905060008360030160049054906101000a900463ffffffff168560030160049054906101000a900463ffffffff16613b919190615cfc565b905060008160030b1315613bc457600281613bac9190615d58565b63ffffffff1682613bbd9190615209565b9150613bfb565b60008160030b1215613bfa57600281613bdc90615d95565b613be69190615d58565b63ffffffff1682613bf791906155ab565b91505b5b600080613c0b87600101546141a3565b50915091506000613c1f87600101546141a3565b925050506000600a8284600287613c369190615a84565b613c409190615209565b613c4a91906155ab565b613c549190615ddd565b90508086613c629190615209565b9550605a861115613c7257605a95505b601e861015613c8057601e95505b85965050505050505092915050565b600060038260030160129054906101000a900461ffff16613cb09190615e0e565b61ffff1660058360030160109054906101000a900461ffff16613cd39190615e0e565b61ffff16600a8460030160049054906101000a900463ffffffff16613cf89190615d58565b613d029190614e87565b613d0c9190615e4b565b9050600a8163ffffffff161015613d2257600a90505b8063ffffffff1682600201819055505050565b600060035483613d459190615900565b9250600060028486613d579190615209565b613d619190615ddd565b9050604051602001613d7290615ecf565b6040516020818303038152906040528051906020012083604051602001613d999190615ee4565b6040516020818303038152906040528051906020012003613ddb576063606482613dc39190615900565b82613dce91906155ab565b613dd89190615209565b90505b613e1a6040518060400160405280600681526020017f4e6f4e616d6500000000000000000000000000000000000000000000000000008152508261370c565b809150509392505050565b60075442613e339190615209565b8160030160086101000a81548163ffffffff021916908363ffffffff16021790555050565b600073ffffffffffffffffffffffffffffffffffffffff168173ffffffffffffffffffffffffffffffffffffffff1603613e9157600080fd5b8073ffffffffffffffffffffffffffffffffffffffff1660008054906101000a900473ffffffffffffffffffffffffffffffffffffffff1673ffffffffffffffffffffffffffffffffffffffff167f8be0079c531659141344cd1fd0a4f28419497f9722a3daafe3b4186f6b6457e060405160405180910390a3806000806101000a81548173ffffffffffffffffffffffffffffffffffffffff021916908373ffffffffffffffffffffffffffffffffffffffff16021790555050565b60004282600301600c9054906101000a900463ffffffff1663ffffffff1611159050919050565b60085442613f839190615209565b81600301600c6101000a81548163ffffffff021916908363ffffffff16021790555050565b600080600090507a184f03e93ff9f4daa797ed6e38ed64bf6a1f0100000000000000008310614006577a184f03e93ff9f4daa797ed6e38ed64bf6a1f0100000000000000008381613ffc57613ffb6158d1565b5b0492506040810190505b6d04ee2d6d415b85acef81000000008310614043576d04ee2d6d415b85acef81000000008381614039576140386158d1565b5b0492506020810190505b662386f26fc10000831061407257662386f26fc100008381614068576140676158d1565b5b0492506010810190505b6305f5e100831061409b576305f5e1008381614091576140906158d1565b5b0492506008810190505b61271083106140c05761271083816140b6576140b56158d1565b5b0492506004810190505b606483106140e357606483816140d9576140d86158d1565b5b0492506002810190505b600a83106140f2576001810190505b80915050919050565b6000806000905060005b600b80549050811015614199578373ffffffffffffffffffffffffffffffffffffffff16600b828154811061413d5761413c614d5c565b5b9060005260206000200160009054906101000a900473ffffffffffffffffffffffffffffffffffffffff1673ffffffffffffffffffffffffffffffffffffffff160361418c5760019150614199565b8080600101915050614105565b5080915050919050565b6000806000806032856141b69190615900565b60326141c29190615209565b9050600060326064876141d59190615ddd565b6141df9190615900565b60326141eb9190615209565b905060006032612710886141ff9190615ddd565b6142099190615900565b60326142159190615209565b90508282829550955095505050509193909250565b6040518060600160405280600073ffffffffffffffffffffffffffffffffffffffff16815260200160008152602001600081525090565b6000819050919050565b61427481614261565b82525050565b600060208201905061428f600083018461426b565b92915050565b6000604051905090565b600080fd5b600080fd5b6142b281614261565b81146142bd57600080fd5b50565b6000813590506142cf816142a9565b92915050565b6000806000606084860312156142ee576142ed61429f565b5b60006142fc868287016142c0565b935050602061430d868287016142c0565b925050604061431e868287016142c0565b9150509250925092565b600073ffffffffffffffffffffffffffffffffffffffff82169050919050565b600061435382614328565b9050919050565b61436381614348565b811461436e57600080fd5b50565b6000813590506143808161435a565b92915050565b6000806040838503121561439d5761439c61429f565b5b60006143ab85828601614371565b92505060206143bc858286016142c0565b9150509250929050565b6000602082840312156143dc576143db61429f565b5b60006143ea848285016142c0565b91505092915050565b60006143fe82614328565b9050919050565b61440e816143f3565b82525050565b60006060820190506144296000830186614405565b614436602083018561426b565b614443604083018461426b565b949350505050565b600080fd5b600080fd5b6000601f19601f8301169050919050565b7f4e487b7100000000000000000000000000000000000000000000000000000000600052604160045260246000fd5b61449e82614455565b810181811067ffffffffffffffff821117156144bd576144bc614466565b5b80604052505050565b60006144d0614295565b90506144dc8282614495565b919050565b600067ffffffffffffffff8211156144fc576144fb614466565b5b61450582614455565b9050602081019050919050565b82818337600083830152505050565b600061453461452f846144e1565b6144c6565b9050828152602081018484840111156145505761454f614450565b5b61455b848285614512565b509392505050565b600082601f8301126145785761457761444b565b5b8135614588848260208601614521565b91505092915050565b6000602082840312156145a7576145a661429f565b5b600082013567ffffffffffffffff8111156145c5576145c46142a4565b5b6145d184828501614563565b91505092915050565b600081519050919050565b600082825260208201905092915050565b60005b838110156146145780820151818401526020810190506145f9565b60008484015250505050565b600061462b826145da565b61463581856145e5565b93506146458185602086016145f6565b61464e81614455565b840191505092915050565b600063ffffffff82169050919050565b61467281614659565b82525050565b600061ffff82169050919050565b61468f81614678565b82525050565b60006101408201905081810360008301526146b0818d614620565b90506146bf602083018c61426b565b6146cc604083018b61426b565b6146d9606083018a614669565b6146e66080830189614669565b6146f360a0830188614669565b61470060c0830187614669565b61470d60e0830186614686565b61471b610100830185614686565b614729610120830184614686565b9b9a5050505050505050505050565b6000806000606084860312156147515761475061429f565b5b600061475f86828701614371565b935050602061477086828701614371565b9250506040614781868287016142c0565b9150509250925092565b6000602082840312156147a1576147a061429f565b5b60006147af84828501614371565b91505092915050565b600081519050919050565b600082825260208201905092915050565b6000819050602082019050919050565b6147ed81614261565b82525050565b60006147ff83836147e4565b60208301905092915050565b6000602082019050919050565b6000614823826147b8565b61482d81856147c3565b9350614838836147d4565b8060005b8381101561486957815161485088826147f3565b975061485b8361480b565b92505060018101905061483c565b5085935050505092915050565b600060208201905081810360008301526148908184614818565b905092915050565b600080604083850312156148af576148ae61429f565b5b60006148bd858286016142c0565b92505060206148ce858286016142c0565b9150509250929050565b600081519050919050565b600082825260208201905092915050565b6000819050602082019050919050565b61490d81614348565b82525050565b600061491f8383614904565b60208301905092915050565b6000602082019050919050565b6000614943826148d8565b61494d81856148e3565b9350614958836148f4565b8060005b838110156149895781516149708882614913565b975061497b8361492b565b92505060018101905061495c565b5085935050505092915050565b600060208201905081810360008301526149b08184614938565b905092915050565b600060ff82169050919050565b6149ce816149b8565b82525050565b60006020820190506149e960008301846149c5565b92915050565b6149f881614348565b82525050565b6000602082019050614a1360008301846149ef565b92915050565b60006020820190508181036000830152614a338184614620565b905092915050565b600081519050919050565b600082825260208201905092915050565b6000819050602082019050919050565b614a70816143f3565b82525050565b606082016000820151614a8c6000850182614a67565b506020820151614a9f60208501826147e4565b506040820151614ab260408501826147e4565b50505050565b6000614ac48383614a76565b60608301905092915050565b6000602082019050919050565b6000614ae882614a3b565b614af28185614a46565b9350614afd83614a57565b8060005b83811015614b2e578151614b158882614ab8565b9750614b2083614ad0565b925050600181019050614b01565b5085935050505092915050565b60006020820190508181036000830152614b558184614add565b905092915050565b614b66816149b8565b8114614b7157600080fd5b50565b600081359050614b8381614b5d565b92915050565b600060208284031215614b9f57614b9e61429f565b5b6000614bad84828501614b74565b91505092915050565b60008115159050919050565b614bcb81614bb6565b82525050565b6000602082019050614be66000830184614bc2565b92915050565b600080fd5b600080fd5b60008083601f840112614c0c57614c0b61444b565b5b8235905067ffffffffffffffff811115614c2957614c28614bec565b5b602083019150836001820283011115614c4557614c44614bf1565b5b9250929050565b600080600060408486031215614c6557614c6461429f565b5b6000614c73868287016142c0565b935050602084013567ffffffffffffffff811115614c9457614c936142a4565b5b614ca086828701614bf6565b92509250509250925092565b600080600060608486031215614cc557614cc461429f565b5b6000614cd386828701614371565b9350506020614ce4868287016142c0565b9250506040614cf5868287016142c0565b9150509250925092565b606082016000820151614d156000850182614a67565b506020820151614d2860208501826147e4565b506040820151614d3b60408501826147e4565b50505050565b6000606082019050614d566000830184614cff565b92915050565b7f4e487b7100000000000000000000000000000000000000000000000000000000600052603260045260246000fd5b6000608082019050614da0600083018761426b565b614dad602083018661426b565b614dba604083018561426b565b614dc7606083018461426b565b95945050505050565b7f5072696365206d696e696d756d20697320000000000000000000000000000000815250565b600081905092915050565b6000614e0c826145da565b614e168185614df6565b9350614e268185602086016145f6565b80840191505092915050565b6000614e3d82614dd0565b601182019150614e4d8284614e01565b915081905092915050565b7f4e487b7100000000000000000000000000000000000000000000000000000000600052601160045260246000fd5b6000614e9282614659565b9150614e9d83614659565b9250828201905063ffffffff811115614eb957614eb8614e58565b5b92915050565b7f4e487b7100000000000000000000000000000000000000000000000000000000600052602260045260246000fd5b60006002820490506001821680614f0657607f821691505b602082108103614f1957614f18614ebf565b5b50919050565b60008190508160005260206000209050919050565b60006020601f8301049050919050565b600082821b905092915050565b600060088302614f817fffffffffffffffffffffffffffffffffffffffffffffffffffffffffffffffff82614f44565b614f8b8683614f44565b95508019841693508086168417925050509392505050565b6000819050919050565b6000614fc8614fc3614fbe84614261565b614fa3565b614261565b9050919050565b6000819050919050565b614fe283614fad565b614ff6614fee82614fcf565b848454614f51565b825550505050565b600090565b61500b614ffe565b615016818484614fd9565b505050565b5b8181101561503a5761502f600082615003565b60018101905061501c565b5050565b601f82111561507f5761505081614f1f565b61505984614f34565b81016020851015615068578190505b61507c61507485614f34565b83018261501b565b50505b505050565b600082821c905092915050565b60006150a260001984600802615084565b1980831691505092915050565b60006150bb8383615091565b9150826002028217905092915050565b6150d4826145da565b67ffffffffffffffff8111156150ed576150ec614466565b5b6150f78254614eee565b61510282828561503e565b600060209050601f8311600181146151355760008415615123578287015190505b61512d85826150af565b865550615195565b601f19841661514386614f1f565b60005b8281101561516b57848901518255600182019150602085019450602081019050615146565b868310156151885784890151615184601f891682615091565b8355505b6001600288020188555050505b505050505050565b7f596f7520617265206e6f74206f776e6572206f7220617070726f7665642e0000600082015250565b60006151d3601e836145e5565b91506151de8261519d565b602082019050919050565b60006020820190508181036000830152615202816151c6565b9050919050565b600061521482614261565b915061521f83614261565b925082820190508082111561523757615236614e58565b5b92915050565b7f4c6576656c206d696e2e20697320000000000000000000000000000000000000815250565b600061526e8261523d565b600e8201915061527e8284614e01565b915081905092915050565b7f43616e27742063616e63656c20746f2073616c652c20796f75206172656e277460008201527f207468652073656c6c6572000000000000000000000000000000000000000000602082015250565b60006152e5602b836145e5565b91506152f082615289565b604082019050919050565b60006020820190508181036000830152615314816152d8565b9050919050565b7f4f6e6c7920000000000000000000000000000000000000000000000000000000815250565b600061534c8261531b565b60058201915061535c8284614e01565b915081905092915050565b7f4f6e65206d696e7420706572206163636f756e74000000000000000000000000600082015250565b600061539d6014836145e5565b91506153a882615367565b602082019050919050565b600060208201905081810360008301526153cc81615390565b9050919050565b7f5a6f6d6269652000000000000000000000000000000000000000000000000000815250565b6000615404826153d3565b6007820191506154148284614e01565b915081905092915050565b600061542a82614261565b91507fffffffffffffffffffffffffffffffffffffffffffffffffffffffffffffffff820361545c5761545b614e58565b5b600182019050919050565b7f596f757220707269636520697320746f6f206c6f770000000000000000000000600082015250565b600061549d6015836145e5565b91506154a882615467565b602082019050919050565b600060208201905081810360008301526154cc81615490565b9050919050565b7f5a6f6d62696520617265206e6f74206f6e2073616c6500000000000000000000600082015250565b60006155096016836145e5565b9150615514826154d3565b602082019050919050565b60006020820190508181036000830152615538816154fc565b9050919050565b7f43616e2774206275792c20796f7520617265207468652073656c6c6572000000600082015250565b6000615575601d836145e5565b91506155808261553f565b602082019050919050565b600060208201905081810360008301526155a481615568565b9050919050565b60006155b682614261565b91506155c183614261565b92508282039050818111156155d9576155d8614e58565b5b92915050565b600082905092915050565b6155f483836155df565b67ffffffffffffffff81111561560d5761560c614466565b5b6156178254614eee565b61562282828561503e565b6000601f831160018114615651576000841561563f578287013590505b61564985826150af565b8655506156b1565b601f19841661565f86614f1f565b60005b8281101561568757848901358255600182019150602085019450602081019050615662565b868310156156a457848901356156a0601f891682615091565b8355505b6001600288020188555050505b50505050505050565b600081546156c781614eee565b6156d18186614df6565b945060018216600081146156ec576001811461570157615734565b60ff1983168652811515820286019350615734565b61570a85614f1f565b60005b8381101561572c5781548189015260018201915060208101905061570d565b838801955050505b50505092915050565b7f2f00000000000000000000000000000000000000000000000000000000000000815250565b600061576f82876156ba565b915061577b8286614e01565b91506157868261573d565b60018201915061579682856156ba565b91506157a18261573d565b6001820191506157b18284614e01565b915081905095945050505050565b7f49742773206e6f7420726561647920746f2061747461636b0000000000000000600082015250565b60006157f56018836145e5565b9150615800826157bf565b602082019050919050565b60006020820190508181036000830152615824816157e8565b9050919050565b6000819050919050565b61584661584182614261565b61582b565b82525050565b60008160601b9050919050565b60006158648261584c565b9050919050565b600061587682615859565b9050919050565b61588e61588982614348565b61586b565b82525050565b60006158a08286615835565b6020820191506158b0828561587d565b6014820191506158c08284615835565b602082019150819050949350505050565b7f4e487b7100000000000000000000000000000000000000000000000000000000600052601260045260246000fd5b600061590b82614261565b915061591683614261565b925082615926576159256158d1565b5b828206905092915050565b600061593c82614678565b915061ffff82036159505761594f614e58565b5b600182019050919050565b600061596682614659565b915063ffffffff820361597c5761597b614e58565b5b600182019050919050565b600061599282614678565b915061599d83614678565b9250826159ad576159ac6158d1565b5b828206905092915050565b60006060820190506159cd600083018661426b565b6159da602083018561426b565b6159e7604083018461426b565b949350505050565b6000604082019050615a04600083018561426b565b615a11602083018461426b565b9392505050565b7f49742773206e6f7420726561647920746f206665656400000000000000000000600082015250565b6000615a4e6016836145e5565b9150615a5982615a18565b602082019050919050565b60006020820190508181036000830152615a7d81615a41565b9050919050565b6000615a8f82614261565b9150615a9a83614261565b9250828202615aa881614261565b91508282048414831517615abf57615abe614e58565b5b5092915050565b7f50616765206f7574206f662072616e6765000000000000000000000000000000600082015250565b6000615afc6011836145e5565b9150615b0782615ac6565b602082019050919050565b60006020820190508181036000830152615b2b81615aef565b9050919050565b7f4e487b7100000000000000000000000000000000000000000000000000000000600052603160045260246000fd5b6000819050919050565b6000819050919050565b615b86615b8182615b61565b615b6b565b82525050565b6000615b988288614e01565b9150615ba48287615835565b602082019150615bb48286615835565b602082019150615bc4828561587d565b601482019150615bd48284615b75565b6020820191508190509695505050505050565b7f4e616d652063616e6e6f74206265206c65667420656d70747900000000000000600082015250565b6000615c1d6019836145e5565b9150615c2882615be7565b602082019050919050565b60006020820190508181036000830152615c4c81615c10565b9050919050565b7f444e41206d75737420626520616e20696e746567657200000000000000000000600082015250565b6000615c896016836145e5565b9150615c9482615c53565b602082019050919050565b60006020820190508181036000830152615cb881615c7c565b9050919050565b60006040820190508181036000830152615cd98185614620565b9050615ce8602083018461426b565b9392505050565b60008160030b9050919050565b6000615d0782615cef565b9150615d1283615cef565b92508282039050637fffffff81137fffffffffffffffffffffffffffffffffffffffffffffffffffffffff8000000082121715615d5257615d51614e58565b5b92915050565b6000615d6382614659565b9150615d6e83614659565b9250828202615d7c81614659565b9150808214615d8e57615d8d614e58565b5b5092915050565b6000615da082615cef565b91507fffffffffffffffffffffffffffffffffffffffffffffffffffffffff800000008203615dd257615dd1614e58565b5b816000039050919050565b6000615de882614261565b9150615df383614261565b925082615e0357615e026158d1565b5b828204905092915050565b6000615e1982614678565b9150615e2483614678565b9250828202615e3281614678565b9150808214615e4457615e43614e58565b5b5092915050565b6000615e5682614659565b9150615e6183614659565b9250828203905063ffffffff811115615e7d57615e7c614e58565b5b92915050565b7f6b69747479000000000000000000000000000000000000000000000000000000600082015250565b6000615eb9600583614df6565b9150615ec482615e83565b600582019050919050565b6000615eda82615eac565b9150819050919050565b6000615ef08284614e01565b91508190509291505056fea2646970667358221220c97e821d3507d8fc06a19337cd31f3058a41c8dea276d2f0cced71bb6dbb0d5664736f6c634300081c0033687474703a2f2f6c6f63616c686f73743a333333332f7a6f6d6269652f7572692f",
  "linkReferences": {},
  "deployedLinkReferences": {}
}