{
  "_format": "hh-sol-artifact-1",
  "contractName": "CryptozombiesBattle",
  "sourceName": "contracts/cryptozombiesBattle/CryptozombiesBattle.sol",
  "abi": [
    {
      "anonymous": false,
      "inputs": [
        {
          "indexed": true,
          "internalType": "address",
          "name": "_owner",
          "type": "address"
        },
        {
          "indexed": true,
          "internalType": "address",
          "name": "_approved",
          "type": "address"
        },
        {
          "indexed": true,
          "internalType": "uint256",
          "name": "_tokenId",
          "type": "uint256"
        }
      ],
      "name": "Approval",
      "type": "event"
    },
    {
      "anonymous": false,
      "inputs": [
        {
          "indexed": true,
          "internalType": "address",
          "name": "from",
          "type": "address"
        },
        {
          "indexed": true,
          "internalType": "uint256",
          "name": "zombieId",
          "type": "uint256"
        },
        {
          "indexed": false,
          "internalType": "string",
          "name": "name",
          "type": "string"
        },
        {
          "indexed": false,
          "internalType": "uint256",
          "name": "dna",
          "type": "uint256"
        }
      ],
      "name": "NewZombie",
      "type": "event"
    },
    {
      "anonymous": false,
      "inputs": [
        {
          "indexed": true,
          "internalType": "address",
          "name": "previousOwner",
          "type": "address"
        },
        {
          "indexed": true,
          "internalType": "address",
          "name": "newOwner",
          "type": "address"
        }
      ],
      "name": "OwnershipTransferred",
      "type": "event"
    },
    {
      "anonymous": false,
      "inputs": [
        {
          "indexed": true,
          "internalType": "address",
          "name": "_from",
          "type": "address"
        },
        {
          "indexed": true,
          "internalType": "address",
          "name": "_to",
          "type": "address"
        },
        {
          "indexed": true,
          "internalType": "uint256",
          "name": "_tokenId",
          "type": "uint256"
        }
      ],
      "name": "Transfer",
      "type": "event"
    },
    {
      "anonymous": false,
      "inputs": [
        {
          "indexed": true,
          "internalType": "address",
          "name": "from",
          "type": "address"
        },
        {
          "indexed": false,
          "internalType": "uint256",
          "name": "fromId",
          "type": "uint256"
        },
        {
          "indexed": false,
          "internalType": "uint256",
          "name": "targetId",
          "type": "uint256"
        }
      ],
      "name": "onAttackDefeat",
      "type": "event"
    },
    {
      "anonymous": false,
      "inputs": [
        {
          "indexed": true,
          "internalType": "address",
          "name": "from",
          "type": "address"
        },
        {
          "indexed": false,
          "internalType": "uint256",
          "name": "fromId",
          "type": "uint256"
        },
        {
          "indexed": false,
          "internalType": "uint256",
          "name": "targetId",
          "type": "uint256"
        },
        {
          "indexed": false,
          "internalType": "uint256",
          "name": "newDna",
          "type": "uint256"
        }
      ],
      "name": "onAttackVitory",
      "type": "event"
    },
    {
      "anonymous": false,
      "inputs": [
        {
          "indexed": true,
          "internalType": "address",
          "name": "from",
          "type": "address"
        },
        {
          "indexed": false,
          "internalType": "uint256",
          "name": "fromDna",
          "type": "uint256"
        },
        {
          "indexed": false,
          "internalType": "uint256",
          "name": "targetDna",
          "type": "uint256"
        },
        {
          "indexed": false,
          "internalType": "uint256",
          "name": "_kittyId",
          "type": "uint256"
        },
        {
          "indexed": false,
          "internalType": "uint256",
          "name": "newDna",
          "type": "uint256"
        }
      ],
      "name": "onFeed",
      "type": "event"
    },
    {
      "inputs": [
        {
          "internalType": "address",
          "name": "_account",
          "type": "address"
        }
      ],
      "name": "accountAdd",
      "outputs": [],
      "stateMutability": "nonpayable",
      "type": "function"
    },
    {
      "inputs": [
        {
          "internalType": "uint256",
          "name": "",
          "type": "uint256"
        }
      ],
      "name": "accounts",
      "outputs": [
        {
          "internalType": "address",
          "name": "",
          "type": "address"
        }
      ],
      "stateMutability": "view",
      "type": "function"
    },
    {
      "inputs": [
        {
          "internalType": "address",
          "name": "_approved",
          "type": "address"
        },
        {
          "internalType": "uint256",
          "name": "_tokenId",
          "type": "uint256"
        }
      ],
      "name": "approve",
      "outputs": [],
      "stateMutability": "payable",
      "type": "function"
    },
    {
      "inputs": [
        {
          "internalType": "uint256",
          "name": "_zombieId",
          "type": "uint256"
        },
        {
          "internalType": "uint256",
          "name": "_targetId",
          "type": "uint256"
        }
      ],
      "name": "attack",
      "outputs": [],
      "stateMutability": "nonpayable",
      "type": "function"
    },
    {
      "inputs": [],
      "name": "balance",
      "outputs": [
        {
          "internalType": "uint256",
          "name": "",
          "type": "uint256"
        }
      ],
      "stateMutability": "view",
      "type": "function"
    },
    {
      "inputs": [
        {
          "internalType": "address",
          "name": "_owner",
          "type": "address"
        }
      ],
      "name": "balanceOf",
      "outputs": [
        {
          "internalType": "uint256",
          "name": "",
          "type": "uint256"
        }
      ],
      "stateMutability": "view",
      "type": "function"
    },
    {
      "inputs": [],
      "name": "baseUrlTokenURI",
      "outputs": [
        {
          "internalType": "string",
          "name": "",
          "type": "string"
        }
      ],
      "stateMutability": "view",
      "type": "function"
    },
    {
      "inputs": [],
      "name": "changeDNAFee",
      "outputs": [
        {
          "internalType": "uint256",
          "name": "",
          "type": "uint256"
        }
      ],
      "stateMutability": "view",
      "type": "function"
    },
    {
      "inputs": [
        {
          "internalType": "uint256",
          "name": "_zombieId",
          "type": "uint256"
        },
        {
          "internalType": "uint256",
          "name": "_newDna",
          "type": "uint256"
        }
      ],
      "name": "changeDna",
      "outputs": [],
      "stateMutability": "payable",
      "type": "function"
    },
    {
      "inputs": [
        {
          "internalType": "uint256",
          "name": "_zombieId",
          "type": "uint256"
        },
        {
          "internalType": "string",
          "name": "_newName",
          "type": "string"
        }
      ],
      "name": "changeName",
      "outputs": [],
      "stateMutability": "payable",
      "type": "function"
    },
    {
      "inputs": [],
      "name": "changeNameFee",
      "outputs": [
        {
          "internalType": "uint256",
          "name": "",
          "type": "uint256"
        }
      ],
      "stateMutability": "view",
      "type": "function"
    },
    {
      "inputs": [],
      "name": "cooldownTimeAttack",
      "outputs": [
        {
          "internalType": "uint256",
          "name": "",
          "type": "uint256"
        }
      ],
      "stateMutability": "view",
      "type": "function"
    },
    {
      "inputs": [],
      "name": "cooldownTimeFeeding",
      "outputs": [
        {
          "internalType": "uint256",
          "name": "",
          "type": "uint256"
        }
      ],
      "stateMutability": "view",
      "type": "function"
    },
    {
      "inputs": [
        {
          "internalType": "uint256",
          "name": "_zombieId",
          "type": "uint256"
        },
        {
          "internalType": "uint256",
          "name": "_kittyDna",
          "type": "uint256"
        },
        {
          "internalType": "uint256",
          "name": "_kittyId",
          "type": "uint256"
        }
      ],
      "name": "feedOnKitty",
      "outputs": [],
      "stateMutability": "nonpayable",
      "type": "function"
    },
    {
      "inputs": [],
      "name": "getAccounts",
      "outputs": [
        {
          "internalType": "address[]",
          "name": "",
          "type": "address[]"
        }
      ],
      "stateMutability": "view",
      "type": "function"
    },
    {
      "inputs": [
        {
          "internalType": "uint256",
          "name": "_page",
          "type": "uint256"
        },
        {
          "internalType": "uint256",
          "name": "_pageSize",
          "type": "uint256"
        }
      ],
      "name": "getAccountsPaginated",
      "outputs": [
        {
          "internalType": "address[]",
          "name": "",
          "type": "address[]"
        }
      ],
      "stateMutability": "view",
      "type": "function"
    },
    {
      "inputs": [],
      "name": "getAccountsTotal",
      "outputs": [
        {
          "internalType": "uint256",
          "name": "",
          "type": "uint256"
        }
      ],
      "stateMutability": "view",
      "type": "function"
    },
    {
      "inputs": [
        {
          "internalType": "address",
          "name": "_owner",
          "type": "address"
        }
      ],
      "name": "getZombiesByOwner",
      "outputs": [
        {
          "internalType": "uint256[]",
          "name": "",
          "type": "uint256[]"
        }
      ],
      "stateMutability": "view",
      "type": "function"
    },
    {
      "inputs": [
        {
          "internalType": "address",
          "name": "_owner",
          "type": "address"
        },
        {
          "internalType": "uint256",
          "name": "_page",
          "type": "uint256"
        },
        {
          "internalType": "uint256",
          "name": "_pageSize",
          "type": "uint256"
        }
      ],
      "name": "getZombiesByOwnerPaginated",
      "outputs": [
        {
          "internalType": "uint256[]",
          "name": "",
          "type": "uint256[]"
        }
      ],
      "stateMutability": "view",
      "type": "function"
    },
    {
      "inputs": [],
      "name": "isOwner",
      "outputs": [
        {
          "internalType": "bool",
          "name": "",
          "type": "bool"
        }
      ],
      "stateMutability": "view",
      "type": "function"
    },
    {
      "inputs": [
        {
          "internalType": "uint256",
          "name": "_zombieId",
          "type": "uint256"
        }
      ],
      "name": "levelUp",
      "outputs": [],
      "stateMutability": "payable",
      "type": "function"
    },
    {
      "inputs": [],
      "name": "levelUpFee",
      "outputs": [
        {
          "internalType": "uint256",
          "name": "",
          "type": "uint256"
        }
      ],
      "stateMutability": "view",
      "type": "function"
    },
    {
      "inputs": [],
      "name": "merkleRoot",
      "outputs": [
        {
          "internalType": "bytes32",
          "name": "",
          "type": "bytes32"
        }
      ],
      "stateMutability": "view",
      "type": "function"
    },
    {
      "inputs": [
        {
          "internalType": "string",
          "name": "_name",
          "type": "string"
        }
      ],
      "name": "mint",
      "outputs": [],
      "stateMutability": "payable",
      "type": "function"
    },
    {
      "inputs": [],
      "name": "mintFee",
      "outputs": [
        {
          "internalType": "uint256",
          "name": "",
          "type": "uint256"
        }
      ],
      "stateMutability": "view",
      "type": "function"
    },
    {
      "inputs": [
        {
          "internalType": "bytes32[]",
          "name": "proof",
          "type": "bytes32[]"
        }
      ],
      "name": "mintFree",
      "outputs": [],
      "stateMutability": "nonpayable",
      "type": "function"
    },
    {
      "inputs": [],
      "name": "mintFreeLimit",
      "outputs": [
        {
          "internalType": "uint256",
          "name": "",
          "type": "uint256"
        }
      ],
      "stateMutability": "view",
      "type": "function"
    },
    {
      "inputs": [],
      "name": "mintedFreeCount",
      "outputs": [
        {
          "internalType": "uint256",
          "name": "",
          "type": "uint256"
        }
      ],
      "stateMutability": "view",
      "type": "function"
    },
    {
      "inputs": [],
      "name": "owner",
      "outputs": [
        {
          "internalType": "address",
          "name": "",
          "type": "address"
        }
      ],
      "stateMutability": "view",
      "type": "function"
    },
    {
      "inputs": [
        {
          "internalType": "uint256",
          "name": "_tokenId",
          "type": "uint256"
        }
      ],
      "name": "ownerOf",
      "outputs": [
        {
          "internalType": "address",
          "name": "",
          "type": "address"
        }
      ],
      "stateMutability": "view",
      "type": "function"
    },
    {
      "inputs": [],
      "name": "renounceOwnership",
      "outputs": [],
      "stateMutability": "nonpayable",
      "type": "function"
    },
    {
      "inputs": [
        {
          "internalType": "string",
          "name": "_baseUrlTokenURI",
          "type": "string"
        }
      ],
      "name": "setBaseUrlTokenURI",
      "outputs": [],
      "stateMutability": "nonpayable",
      "type": "function"
    },
    {
      "inputs": [
        {
          "internalType": "uint256",
          "name": "_fee",
          "type": "uint256"
        }
      ],
      "name": "setChangeDNAFee",
      "outputs": [],
      "stateMutability": "nonpayable",
      "type": "function"
    },
    {
      "inputs": [
        {
          "internalType": "uint256",
          "name": "_fee",
          "type": "uint256"
        }
      ],
      "name": "setChangeNameFee",
      "outputs": [],
      "stateMutability": "nonpayable",
      "type": "function"
    },
    {
      "inputs": [
        {
          "internalType": "uint256",
          "name": "_cooldownTime",
          "type": "uint256"
        }
      ],
      "name": "setCooldownTimeAttack",
      "outputs": [],
      "stateMutability": "nonpayable",
      "type": "function"
    },
    {
      "inputs": [
        {
          "internalType": "uint256",
          "name": "_cooldownTime",
          "type": "uint256"
        }
      ],
      "name": "setCooldownTimeFeeding",
      "outputs": [],
      "stateMutability": "nonpayable",
      "type": "function"
    },
    {
      "inputs": [
        {
          "internalType": "address",
          "name": "_address",
          "type": "address"
        }
      ],
      "name": "setCryptozombiesBattleMarketContractAddress",
      "outputs": [],
      "stateMutability": "nonpayable",
      "type": "function"
    },
    {
      "inputs": [
        {
          "internalType": "uint256",
          "name": "_fee",
          "type": "uint256"
        }
      ],
      "name": "setLevelUpFee",
      "outputs": [],
      "stateMutability": "nonpayable",
      "type": "function"
    },
    {
      "inputs": [
        {
          "internalType": "bytes32",
          "name": "_root",
          "type": "bytes32"
        }
      ],
      "name": "setMerkleRoot",
      "outputs": [],
      "stateMutability": "nonpayable",
      "type": "function"
    },
    {
      "inputs": [
        {
          "internalType": "uint256",
          "name": "_mintFee",
          "type": "uint256"
        }
      ],
      "name": "setMintFee",
      "outputs": [],
      "stateMutability": "nonpayable",
      "type": "function"
    },
    {
      "inputs": [
        {
          "internalType": "uint8",
          "name": "_totalAttackVictoryToGetReward",
          "type": "uint8"
        }
      ],
      "name": "setTotalAttackVictoryToGetReward",
      "outputs": [],
      "stateMutability": "nonpayable",
      "type": "function"
    },
    {
      "inputs": [
        {
          "internalType": "uint8",
          "name": "_totalFedToGetReward",
          "type": "uint8"
        }
      ],
      "name": "setTotalFedToGetReward",
      "outputs": [],
      "stateMutability": "nonpayable",
      "type": "function"
    },
    {
      "inputs": [
        {
          "internalType": "bytes4",
          "name": "interfaceId",
          "type": "bytes4"
        }
      ],
      "name": "supportsInterface",
      "outputs": [
        {
          "internalType": "bool",
          "name": "",
          "type": "bool"
        }
      ],
      "stateMutability": "view",
      "type": "function"
    },
    {
      "inputs": [
        {
          "internalType": "uint256",
          "name": "_tokenId",
          "type": "uint256"
        }
      ],
      "name": "tokenURI",
      "outputs": [
        {
          "internalType": "string",
          "name": "",
          "type": "string"
        }
      ],
      "stateMutability": "view",
      "type": "function"
    },
    {
      "inputs": [],
      "name": "totalAttackVictoryToGetReward",
      "outputs": [
        {
          "internalType": "uint8",
          "name": "",
          "type": "uint8"
        }
      ],
      "stateMutability": "view",
      "type": "function"
    },
    {
      "inputs": [],
      "name": "totalFedToGetReward",
      "outputs": [
        {
          "internalType": "uint8",
          "name": "",
          "type": "uint8"
        }
      ],
      "stateMutability": "view",
      "type": "function"
    },
    {
      "inputs": [
        {
          "internalType": "address",
          "name": "_from",
          "type": "address"
        },
        {
          "internalType": "address",
          "name": "_to",
          "type": "address"
        },
        {
          "internalType": "uint256",
          "name": "_tokenId",
          "type": "uint256"
        }
      ],
      "name": "transferFrom",
      "outputs": [],
      "stateMutability": "payable",
      "type": "function"
    },
    {
      "inputs": [
        {
          "internalType": "address",
          "name": "newOwner",
          "type": "address"
        }
      ],
      "name": "transferOwnership",
      "outputs": [],
      "stateMutability": "nonpayable",
      "type": "function"
    },
    {
      "inputs": [],
      "name": "withdraw",
      "outputs": [],
      "stateMutability": "nonpayable",
      "type": "function"
    },
    {
      "inputs": [
        {
          "internalType": "uint256",
          "name": "",
          "type": "uint256"
        }
      ],
      "name": "zombieToOwner",
      "outputs": [
        {
          "internalType": "address",
          "name": "",
          "type": "address"
        }
      ],
      "stateMutability": "view",
      "type": "function"
    },
    {
      "inputs": [
        {
          "internalType": "uint256",
          "name": "",
          "type": "uint256"
        }
      ],
      "name": "zombies",
      "outputs": [
        {
          "internalType": "string",
          "name": "name",
          "type": "string"
        },
        {
          "internalType": "uint256",
          "name": "dna",
          "type": "uint256"
        },
        {
          "internalType": "uint256",
          "name": "score",
          "type": "uint256"
        },
        {
          "internalType": "uint32",
          "name": "birthTime",
          "type": "uint32"
        },
        {
          "internalType": "uint32",
          "name": "level",
          "type": "uint32"
        },
        {
          "internalType": "uint32",
          "name": "attackReadyTime",
          "type": "uint32"
        },
        {
          "internalType": "uint32",
          "name": "fedReadyTime",
          "type": "uint32"
        },
        {
          "internalType": "uint16",
          "name": "winCount",
          "type": "uint16"
        },
        {
          "internalType": "uint16",
          "name": "lossCount",
          "type": "uint16"
        },
        {
          "internalType": "uint16",
          "name": "fedCount",
          "type": "uint16"
        }
      ],
      "stateMutability": "view",
      "type": "function"
    }
  ],
  "bytecode": "0x608060405260006001556010600255600254600a61001d919061035c565b6003556101f46004556000600555660aa87bee538000600655620151806007556138406008556007600960006101000a81548160ff021916908360ff160217905550600a600960016101000a81548160ff021916908360ff16021790555066038d7ea4c6800060105566071afd498d0000601155660e35fa931a0000601255600060135560326014556040518060600160405280602f8152602001615cc7602f9139601590816100cd91906105ed565b50739fe46736679d2d9a65f0992f2272de9f3c7fa6e0601660006101000a81548173ffffffffffffffffffffffffffffffffffffffff021916908373ffffffffffffffffffffffffffffffffffffffff16021790555034801561012f57600080fd5b50336000806101000a81548173ffffffffffffffffffffffffffffffffffffffff021916908373ffffffffffffffffffffffffffffffffffffffff16021790555060008054906101000a900473ffffffffffffffffffffffffffffffffffffffff1673ffffffffffffffffffffffffffffffffffffffff16600073ffffffffffffffffffffffffffffffffffffffff167f8be0079c531659141344cd1fd0a4f28419497f9722a3daafe3b4186f6b6457e060405160405180910390a36106bf565b7f4e487b7100000000000000000000000000000000000000000000000000000000600052601160045260246000fd5b60008160011c9050919050565b6000808291508390505b600185111561027657808604811115610252576102516101f0565b5b60018516156102615780820291505b808102905061026f8561021f565b9450610236565b94509492505050565b60008261028f576001905061034b565b8161029d576000905061034b565b81600181146102b357600281146102bd576102ec565b600191505061034b565b60ff8411156102cf576102ce6101f0565b5b8360020a9150848211156102e6576102e56101f0565b5b5061034b565b5060208310610133831016604e8410600b84101617156103215782820a90508381111561031c5761031b6101f0565b5b61034b565b61032e848484600161022c565b92509050818404811115610345576103446101f0565b5b81810290505b9392505050565b6000819050919050565b600061036782610352565b915061037283610352565b925061039f7fffffffffffffffffffffffffffffffffffffffffffffffffffffffffffffffff848461027f565b905092915050565b600081519050919050565b7f4e487b7100000000000000000000000000000000000000000000000000000000600052604160045260246000fd5b7f4e487b7100000000000000000000000000000000000000000000000000000000600052602260045260246000fd5b6000600282049050600182168061042857607f821691505b60208210810361043b5761043a6103e1565b5b50919050565b60008190508160005260206000209050919050565b60006020601f8301049050919050565b600082821b905092915050565b6000600883026104a37fffffffffffffffffffffffffffffffffffffffffffffffffffffffffffffffff82610466565b6104ad8683610466565b95508019841693508086168417925050509392505050565b6000819050919050565b60006104ea6104e56104e084610352565b6104c5565b610352565b9050919050565b6000819050919050565b610504836104cf565b610518610510826104f1565b848454610473565b825550505050565b600090565b61052d610520565b6105388184846104fb565b505050565b5b8181101561055c57610551600082610525565b60018101905061053e565b5050565b601f8211156105a15761057281610441565b61057b84610456565b8101602085101561058a578190505b61059e61059685610456565b83018261053d565b50505b505050565b600082821c905092915050565b60006105c4600019846008026105a6565b1980831691505092915050565b60006105dd83836105b3565b9150826002028217905092915050565b6105f6826103a7565b67ffffffffffffffff81111561060f5761060e6103b2565b5b6106198254610410565b610624828285610560565b600060209050601f8311600181146106575760008415610645578287015190505b61064f85826105d1565b8655506106b7565b601f19841661066586610441565b60005b8281101561068d57848901518255600182019150602085019450602081019050610668565b868310156106aa57848901516106a6601f8916826105b3565b8355505b6001600288020188555050505b505050505050565b6155f9806106ce6000396000f3fe6080604052600436106102e45760003560e01c806370f47cf911610190578063bcf313ae116100dc578063d72f761d11610095578063eddd0d9c1161006f578063eddd0d9c14610add578063f2a40db814610b06578063f2fde38b14610b43578063f77de3a114610b6c576102e4565b8063d72f761d14610a5b578063d85d3d2714610a98578063e1fa763814610ab4576102e4565b8063bcf313ae1461095c578063c39cbef114610985578063c4114b12146109a1578063c859f317146109cc578063c87b56dd146109f5578063ccf670f814610a32576102e4565b8063846e2c43116101495780638f32d59b116101235780638f32d59b146108b0578063abbb1f29146108db578063b69ef8a814610906578063bcad1fde14610931576102e4565b8063846e2c43146108315780638a48ac031461085a5780638da5cb5b14610885576102e4565b806370f47cf91461074b578063715018a61461077457806374e729f71461078b57806376c7d8ca146107b65780637a8936c1146107df5780637cb6475914610808576102e4565b80634674463b1161024f5780635625d6d71161020857806369c8e14c116101e257806369c8e14c146106915780636be17f0e146106ba57806370a08231146106e357806370acbb6314610720576102e4565b80635625d6d71461060d5780635faf2880146106385780636352211e14610654576102e4565b80634674463b146104e757806349cee8e7146105245780634a10565a1461054f5780634f0951661461057a578063528b7b8f146105a557806354c92c5f146105e2576102e4565b80631919b7e6116102a15780631919b7e6146103dd5780632052465e1461040657806323b872dd1461044c5780632eb4a7ab146104685780633ccfd60b146104935780634412e104146104aa576102e4565b806301ffc9a7146102e9578063021cbcae1461032657806306f3376014610351578063095ea7b31461037a5780630ce90ec21461039657806313966db5146103b2575b600080fd5b3480156102f557600080fd5b50610310600480360381019061030b9190613928565b610b95565b60405161031d9190613970565b60405180910390f35b34801561033257600080fd5b5061033b610bff565b60405161034891906139a4565b60405180910390f35b34801561035d57600080fd5b50610378600480360381019061037391906139eb565b610c05565b005b610394600480360381019061038f9190613a9c565b610cce565b005b6103b060048036038101906103ab9190613adc565b610dec565b005b3480156103be57600080fd5b506103c7610f53565b6040516103d491906139a4565b60405180910390f35b3480156103e957600080fd5b5061040460048036038101906103ff9190613c4f565b610f59565b005b34801561041257600080fd5b5061042d60048036038101906104289190613adc565b610f7d565b6040516104439a99989796959493929190613d53565b60405180910390f35b61046660048036038101906104619190613df6565b6110d3565b005b34801561047457600080fd5b5061047d611245565b60405161048a9190613e62565b60405180910390f35b34801561049f57600080fd5b506104a861124b565b005b3480156104b657600080fd5b506104d160048036038101906104cc9190613e7d565b6112b2565b6040516104de9190613f68565b60405180910390f35b3480156104f357600080fd5b5061050e60048036038101906105099190613f8a565b6113ff565b60405161051b9190614088565b60405180910390f35b34801561053057600080fd5b50610539611522565b60405161054691906140c6565b60405180910390f35b34801561055b57600080fd5b50610564611535565b60405161057191906139a4565b60405180910390f35b34801561058657600080fd5b5061058f61153b565b60405161059c91906139a4565b60405180910390f35b3480156105b157600080fd5b506105cc60048036038101906105c79190613adc565b611541565b6040516105d991906140f0565b60405180910390f35b3480156105ee57600080fd5b506105f7611574565b604051610604919061410b565b60405180910390f35b34801561061957600080fd5b50610622611602565b60405161062f91906139a4565b60405180910390f35b610652600480360381019061064d9190613f8a565b611608565b005b34801561066057600080fd5b5061067b60048036038101906106769190613adc565b6117c3565b60405161068891906140f0565b60405180910390f35b34801561069d57600080fd5b506106b860048036038101906106b39190614159565b611800565b005b3480156106c657600080fd5b506106e160048036038101906106dc9190613adc565b61182f565b005b3480156106ef57600080fd5b5061070a60048036038101906107059190613e7d565b61184a565b60405161071791906139a4565b60405180910390f35b34801561072c57600080fd5b50610735611893565b60405161074291906139a4565b60405180910390f35b34801561075757600080fd5b50610772600480360381019061076d9190613adc565b611899565b005b34801561078057600080fd5b506107896118b4565b005b34801561079757600080fd5b506107a0611983565b6040516107ad91906140c6565b60405180910390f35b3480156107c257600080fd5b506107dd60048036038101906107d891906141e6565b611996565b005b3480156107eb57600080fd5b5061080660048036038101906108019190613adc565b611c13565b005b34801561081457600080fd5b5061082f600480360381019061082a919061425f565b611c2e565b005b34801561083d57600080fd5b5061085860048036038101906108539190613e7d565b611c49565b005b34801561086657600080fd5b5061086f611c55565b60405161087c9190614088565b60405180910390f35b34801561089157600080fd5b5061089a611ce3565b6040516108a791906140f0565b60405180910390f35b3480156108bc57600080fd5b506108c5611d0c565b6040516108d29190613970565b60405180910390f35b3480156108e757600080fd5b506108f0611d63565b6040516108fd91906139a4565b60405180910390f35b34801561091257600080fd5b5061091b611d70565b60405161092891906139a4565b60405180910390f35b34801561093d57600080fd5b50610946611d89565b60405161095391906139a4565b60405180910390f35b34801561096857600080fd5b50610983600480360381019061097e9190613e7d565b611d8f565b005b61099f600480360381019061099a91906142e2565b611de4565b005b3480156109ad57600080fd5b506109b6611fab565b6040516109c391906139a4565b60405180910390f35b3480156109d857600080fd5b506109f360048036038101906109ee9190614159565b611fb1565b005b348015610a0157600080fd5b50610a1c6004803603810190610a179190613adc565b611fe0565b604051610a29919061410b565b60405180910390f35b348015610a3e57600080fd5b50610a596004803603810190610a549190613adc565b61204e565b005b348015610a6757600080fd5b50610a826004803603810190610a7d9190614342565b612069565b604051610a8f9190613f68565b60405180910390f35b610ab26004803603810190610aad9190613c4f565b612207565b005b348015610ac057600080fd5b50610adb6004803603810190610ad69190613f8a565b61229d565b005b348015610ae957600080fd5b50610b046004803603810190610aff9190613adc565b6126ed565b005b348015610b1257600080fd5b50610b2d6004803603810190610b289190613adc565b612708565b604051610b3a91906140f0565b60405180910390f35b348015610b4f57600080fd5b50610b6a6004803603810190610b659190613e7d565b612747565b005b348015610b7857600080fd5b50610b936004803603810190610b8e9190613adc565b612764565b005b60007f39147641000000000000000000000000000000000000000000000000000000007bffffffffffffffffffffffffffffffffffffffffffffffffffffffff1916827bffffffffffffffffffffffffffffffffffffffffffffffffffffffff1916149050919050565b60055481565b6000600b8481548110610c1b57610c1a614395565b5b906000526020600020906004020190506000610c6d85856040518060400160405280600581526020017f6b6974747900000000000000000000000000000000000000000000000000000081525061277f565b90503373ffffffffffffffffffffffffffffffffffffffff167f94bd9f81959636fb1ddd32f8bcbdab8b649d20a6a464f759a1aa7f7cf4447fac8360010154868685604051610cbf94939291906143c4565b60405180910390a25050505050565b80600d600082815260200190815260200160002060009054906101000a900473ffffffffffffffffffffffffffffffffffffffff1673ffffffffffffffffffffffffffffffffffffffff163373ffffffffffffffffffffffffffffffffffffffff1614610d3a57600080fd5b826017600084815260200190815260200160002060006101000a81548173ffffffffffffffffffffffffffffffffffffffff021916908373ffffffffffffffffffffffffffffffffffffffff160217905550818373ffffffffffffffffffffffffffffffffffffffff163373ffffffffffffffffffffffffffffffffffffffff167f8c5be1e5ebec7d5bd14f71427d1e84f3dd0314c0f7b2291e5b200ac8c7c3b92560405160405180910390a4505050565b60105480341015610dfc826128fd565b604051602001610e0c919061446b565b60405160208183030381529060405290610e5c576040517f08c379a0000000000000000000000000000000000000000000000000000000008152600401610e53919061410b565b60405180910390fd5b5081600d600082815260200190815260200160002060009054906101000a900473ffffffffffffffffffffffffffffffffffffffff1673ffffffffffffffffffffffffffffffffffffffff163373ffffffffffffffffffffffffffffffffffffffff1614610ec957600080fd5b6001600b8481548110610edf57610ede614395565b5b906000526020600020906004020160030160049054906101000a900463ffffffff16610f0b91906144c0565b600b8481548110610f1f57610f1e614395565b5b906000526020600020906004020160030160046101000a81548163ffffffff021916908363ffffffff160217905550505050565b60065481565b610f61611d0c565b610f6a57600080fd5b8060159081610f799190614704565b5050565b600b8181548110610f8d57600080fd5b9060005260206000209060040201600091509050806000018054610fb090614527565b80601f0160208091040260200160405190810160405280929190818152602001828054610fdc90614527565b80156110295780601f10610ffe57610100808354040283529160200191611029565b820191906000526020600020905b81548152906001019060200180831161100c57829003601f168201915b5050505050908060010154908060020154908060030160009054906101000a900463ffffffff16908060030160049054906101000a900463ffffffff16908060030160089054906101000a900463ffffffff169080600301600c9054906101000a900463ffffffff16908060030160109054906101000a900461ffff16908060030160129054906101000a900461ffff16908060030160149054906101000a900461ffff1690508a565b3373ffffffffffffffffffffffffffffffffffffffff16601660009054906101000a900473ffffffffffffffffffffffffffffffffffffffff1673ffffffffffffffffffffffffffffffffffffffff16148061118d57503373ffffffffffffffffffffffffffffffffffffffff16600d600083815260200190815260200160002060009054906101000a900473ffffffffffffffffffffffffffffffffffffffff1673ffffffffffffffffffffffffffffffffffffffff16145b806111f657503373ffffffffffffffffffffffffffffffffffffffff166017600083815260200190815260200160002060009054906101000a900473ffffffffffffffffffffffffffffffffffffffff1673ffffffffffffffffffffffffffffffffffffffff16145b611235576040517f08c379a000000000000000000000000000000000000000000000000000000000815260040161122c90614822565b60405180910390fd5b6112408383836129cb565b505050565b600a5481565b611253611d0c565b61125c57600080fd5b6000611266611ce3565b90508073ffffffffffffffffffffffffffffffffffffffff166108fc479081150290604051600060405180830381858888f193505050501580156112ae573d6000803e3d6000fd5b5050565b60606000600e60008473ffffffffffffffffffffffffffffffffffffffff1673ffffffffffffffffffffffffffffffffffffffff1681526020019081526020016000205467ffffffffffffffff81111561130f5761130e613b24565b5b60405190808252806020026020018201604052801561133d5781602001602082028036833780820191505090505b5090506000805b600b805490508110156113f4578473ffffffffffffffffffffffffffffffffffffffff16600d600083815260200190815260200160002060009054906101000a900473ffffffffffffffffffffffffffffffffffffffff1673ffffffffffffffffffffffffffffffffffffffff16036113e757808383815181106113cb576113ca614395565b5b6020026020010181815250506001826113e49190614842565b91505b8080600101915050611344565b508192505050919050565b6060600080611414600c805490508686612b9b565b509150915060008167ffffffffffffffff81111561143557611434613b24565b5b6040519080825280602002602001820160405280156114635781602001602082028036833780820191505090505b50905060005b8281101561151557600c818561147f9190614842565b815481106114905761148f614395565b5b9060005260206000200160009054906101000a900473ffffffffffffffffffffffffffffffffffffffff168282815181106114ce576114cd614395565b5b602002602001019073ffffffffffffffffffffffffffffffffffffffff16908173ffffffffffffffffffffffffffffffffffffffff16815250508080600101915050611469565b5080935050505092915050565b600960009054906101000a900460ff1681565b60045481565b60115481565b600d6020528060005260406000206000915054906101000a900473ffffffffffffffffffffffffffffffffffffffff1681565b6015805461158190614527565b80601f01602080910402602001604051908101604052809291908181526020018280546115ad90614527565b80156115fa5780601f106115cf576101008083540402835291602001916115fa565b820191906000526020600020905b8154815290600101906020018083116115dd57829003601f168201915b505050505081565b60075481565b60125480341015611618826128fd565b604051602001611628919061446b565b60405160208183030381529060405290611678576040517f08c379a000000000000000000000000000000000000000000000000000000000815260040161166f919061410b565b60405180910390fd5b5060148381600b828154811061169157611690614395565b5b906000526020600020906004020160030160049054906101000a900463ffffffff1663ffffffff1610156116c4836128fd565b6040516020016116d4919061489c565b60405160208183030381529060405290611724576040517f08c379a000000000000000000000000000000000000000000000000000000000815260040161171b919061410b565b60405180910390fd5b5084600d600082815260200190815260200160002060009054906101000a900473ffffffffffffffffffffffffffffffffffffffff1673ffffffffffffffffffffffffffffffffffffffff163373ffffffffffffffffffffffffffffffffffffffff161461179157600080fd5b84600b87815481106117a6576117a5614395565b5b906000526020600020906004020160010181905550505050505050565b6000600d600083815260200190815260200160002060009054906101000a900473ffffffffffffffffffffffffffffffffffffffff169050919050565b611808611d0c565b61181157600080fd5b80600960006101000a81548160ff021916908360ff16021790555050565b611837611d0c565b61184057600080fd5b8060118190555050565b6000600e60008373ffffffffffffffffffffffffffffffffffffffff1673ffffffffffffffffffffffffffffffffffffffff168152602001908152602001600020549050919050565b60125481565b6118a1611d0c565b6118aa57600080fd5b8060128190555050565b6118bc611d0c565b6118c557600080fd5b600073ffffffffffffffffffffffffffffffffffffffff1660008054906101000a900473ffffffffffffffffffffffffffffffffffffffff1673ffffffffffffffffffffffffffffffffffffffff167f8be0079c531659141344cd1fd0a4f28419497f9722a3daafe3b4186f6b6457e060405160405180910390a360008060006101000a81548173ffffffffffffffffffffffffffffffffffffffff021916908373ffffffffffffffffffffffffffffffffffffffff160217905550565b600960019054906101000a900460ff1681565b600454600554106119a86004546128fd565b6040516020016119b891906148e8565b60405160208183030381529060405290611a08576040517f08c379a00000000000000000000000000000000000000000000000000000000081526004016119ff919061410b565b60405180910390fd5b50600f60003373ffffffffffffffffffffffffffffffffffffffff1673ffffffffffffffffffffffffffffffffffffffff16815260200190815260200160002060009054906101000a900460ff1615611a96576040517f08c379a0000000000000000000000000000000000000000000000000000000008152600401611a8d9061495a565b60405180910390fd5b600033604051602001611aa991906149c2565b604051602081830303815290604052805190602001209050611b0f838380806020026020016040519081016040528093929190818152602001838360200280828437600081840152601f19601f82011690508083019250505050505050600a5483612c32565b611b4e576040517f08c379a0000000000000000000000000000000000000000000000000000000008152600401611b4590614a29565b60405180910390fd5b6000611b5b6001546128fd565b604051602001611b6b9190614a6f565b60405160208183030381529060405290506000611b8782612c49565b9050611b938282612cbe565b611b9c3361306a565b6001600f60003373ffffffffffffffffffffffffffffffffffffffff1673ffffffffffffffffffffffffffffffffffffffff16815260200190815260200160002060006101000a81548160ff02191690831515021790555060056000815480929190611c0790614a95565b91905055505050505050565b611c1b611d0c565b611c2457600080fd5b8060078190555050565b611c36611d0c565b611c3f57600080fd5b80600a8190555050565b611c528161306a565b50565b6060600c805480602002602001604051908101604052809291908181526020018280548015611cd957602002820191906000526020600020905b8160009054906101000a900473ffffffffffffffffffffffffffffffffffffffff1673ffffffffffffffffffffffffffffffffffffffff1681526020019060010190808311611c8f575b5050505050905090565b60008060009054906101000a900473ffffffffffffffffffffffffffffffffffffffff16905090565b60008060009054906101000a900473ffffffffffffffffffffffffffffffffffffffff1673ffffffffffffffffffffffffffffffffffffffff163373ffffffffffffffffffffffffffffffffffffffff1614905090565b6000600c80549050905090565b6000611d7a611d0c565b611d8357600080fd5b47905090565b60085481565b611d97611d0c565b611da057600080fd5b80601660006101000a81548173ffffffffffffffffffffffffffffffffffffffff021916908373ffffffffffffffffffffffffffffffffffffffff16021790555050565b60115480341015611df4826128fd565b604051602001611e04919061446b565b60405160208183030381529060405290611e54576040517f08c379a0000000000000000000000000000000000000000000000000000000008152600401611e4b919061410b565b60405180910390fd5b5060028481600b8281548110611e6d57611e6c614395565b5b906000526020600020906004020160030160049054906101000a900463ffffffff1663ffffffff161015611ea0836128fd565b604051602001611eb0919061489c565b60405160208183030381529060405290611f00576040517f08c379a0000000000000000000000000000000000000000000000000000000008152600401611ef7919061410b565b60405180910390fd5b5085600d600082815260200190815260200160002060009054906101000a900473ffffffffffffffffffffffffffffffffffffffff1673ffffffffffffffffffffffffffffffffffffffff163373ffffffffffffffffffffffffffffffffffffffff1614611f6d57600080fd5b8585600b8981548110611f8357611f82614395565b5b90600052602060002090600402016000019182611fa1929190614ae8565b5050505050505050565b60105481565b611fb9611d0c565b611fc257600080fd5b80600960016101000a81548160ff021916908360ff16021790555050565b60606000600b8381548110611ff857611ff7614395565b5b906000526020600020906004020190506015612013846128fd565b8260000161202484600101546128fd565b6040516020016120379493929190614c87565b604051602081830303815290604052915050919050565b612056611d0c565b61205f57600080fd5b8060108190555050565b606060008060006120ba600e60008973ffffffffffffffffffffffffffffffffffffffff1673ffffffffffffffffffffffffffffffffffffffff168152602001908152602001600020548787612b9b565b92509250925060008267ffffffffffffffff8111156120dc576120db613b24565b5b60405190808252806020026020018201604052801561210a5781602001602082028036833780820191505090505b50905060008060005b600b805490508110801561212657508583105b156121f6578a73ffffffffffffffffffffffffffffffffffffffff16600d600083815260200190815260200160002060009054906101000a900473ffffffffffffffffffffffffffffffffffffffff1673ffffffffffffffffffffffffffffffffffffffff16036121e3578682101580156121a057508482105b156121d457808484815181106121b9576121b8614395565b5b60200260200101818152505082806121d090614a95565b9350505b81806121df90614a95565b9250505b80806121ee90614a95565b915050612113565b508296505050505050509392505050565b60065480341015612217826128fd565b604051602001612227919061446b565b60405160208183030381529060405290612277576040517f08c379a000000000000000000000000000000000000000000000000000000000815260040161226e919061410b565b60405180910390fd5b50600061228383612c49565b905061228f8382612cbe565b6122983361306a565b505050565b81600d600082815260200190815260200160002060009054906101000a900473ffffffffffffffffffffffffffffffffffffffff1673ffffffffffffffffffffffffffffffffffffffff163373ffffffffffffffffffffffffffffffffffffffff161461230957600080fd5b81830361234b576040517f08c379a000000000000000000000000000000000000000000000000000000000815260040161234290614d3e565b60405180910390fd5b6000600b848154811061236157612360614395565b5b9060005260206000209060040201905061237a81613160565b6123b9576040517f08c379a00000000000000000000000000000000000000000000000000000000081526004016123b090614daa565b60405180910390fd5b6000600b84815481106123cf576123ce614395565b5b90600052602060002090600402019050601360008154809291906123f290614a95565b919050555060006124038383613187565b90506000606442338989601354604051602001612424959493929190614deb565b6040516020818303038152906040528051906020012060001c6124479190614e79565b90508181116125fe5783600301601081819054906101000a900461ffff168092919061247290614eaa565b91906101000a81548161ffff021916908361ffff1602179055505083600301600481819054906101000a900463ffffffff16809291906124b190614ed4565b91906101000a81548163ffffffff021916908363ffffffff1602179055505082600301601281819054906101000a900461ffff16809291906124f290614eaa565b91906101000a81548161ffff021916908361ffff160217905550506125168461328f565b61251f8361328f565b600080600960009054906101000a900460ff1660ff168660030160109054906101000a900461ffff166125529190614f00565b61ffff16036125a6576125a3856001015485600101546040518060400160405280600681526020017f7a6f6d6269650000000000000000000000000000000000000000000000000000815250613335565b90505b3373ffffffffffffffffffffffffffffffffffffffff167f750a7c18ca7f7bd87c6e50678ea7fa4f64d0cb733bb68cdac552d009737b47168989846040516125f093929190614f31565b60405180910390a2506126e4565b83600301601281819054906101000a900461ffff168092919061262090614eaa565b91906101000a81548161ffff021916908361ffff1602179055505082600301601081819054906101000a900461ffff168092919061265d90614eaa565b91906101000a81548161ffff021916908361ffff160217905550506126818461328f565b61268a8361328f565b61269384613425565b3373ffffffffffffffffffffffffffffffffffffffff167f4fa78061bb2783669831d2e2aa9ca18cb698e098923982bfada46ceaf1516d6a88886040516126db929190614f68565b60405180910390a25b50505050505050565b6126f5611d0c565b6126fe57600080fd5b8060068190555050565b600c818154811061271857600080fd5b906000526020600020016000915054906101000a900473ffffffffffffffffffffffffffffffffffffffff1681565b61274f611d0c565b61275857600080fd5b61276181613458565b50565b61276c611d0c565b61277557600080fd5b8060088190555050565b600083600d600082815260200190815260200160002060009054906101000a900473ffffffffffffffffffffffffffffffffffffffff1673ffffffffffffffffffffffffffffffffffffffff163373ffffffffffffffffffffffffffffffffffffffff16146127ed57600080fd5b6000600b868154811061280357612802614395565b5b9060005260206000209060040201905061281c8161354e565b61285b576040517f08c379a000000000000000000000000000000000000000000000000000000000815260040161285290614fdd565b60405180910390fd5b600081600301601481819054906101000a900461ffff168092919061287f90614eaa565b91906101000a81548161ffff021916908361ffff160217905550506000600960019054906101000a900460ff1660ff168360030160149054906101000a900461ffff166128cc9190614f00565b61ffff16036128e7576128e482600101548787613335565b90505b6128f082613575565b8093505050509392505050565b60606000600161290c846135a8565b01905060008167ffffffffffffffff81111561292b5761292a613b24565b5b6040519080825280601f01601f19166020018201604052801561295d5781602001600182028036833780820191505090505b509050600082602001820190505b6001156129c0578080600190039150507f3031323334353637383961626364656600000000000000000000000000000000600a86061a8153600a85816129b4576129b3614e4a565b5b0494506000850361296b575b819350505050919050565b6001600e60008473ffffffffffffffffffffffffffffffffffffffff1673ffffffffffffffffffffffffffffffffffffffff16815260200190815260200160002054612a179190614842565b600e60008473ffffffffffffffffffffffffffffffffffffffff1673ffffffffffffffffffffffffffffffffffffffff168152602001908152602001600020819055506001600e60008573ffffffffffffffffffffffffffffffffffffffff1673ffffffffffffffffffffffffffffffffffffffff16815260200190815260200160002054612aa69190614ffd565b600e60008573ffffffffffffffffffffffffffffffffffffffff1673ffffffffffffffffffffffffffffffffffffffff1681526020019081526020016000208190555081600d600083815260200190815260200160002060006101000a81548173ffffffffffffffffffffffffffffffffffffffff021916908373ffffffffffffffffffffffffffffffffffffffff160217905550808273ffffffffffffffffffffffffffffffffffffffff168473ffffffffffffffffffffffffffffffffffffffff167fddf252ad1be2c89b69c2b068fc378daa952ba7f163c4a11628f55a4df523b3ef60405160405180910390a4505050565b6000806000808486612bad9190615031565b9050868110612bf1576040517f08c379a0000000000000000000000000000000000000000000000000000000008152600401612be8906150bf565b60405180910390fd5b60008582612bff9190614842565b905087811115612c0d578790505b60008282612c1b9190614ffd565b905082818395509550955050505093509350939050565b600082612c3f85846136fb565b1490509392505050565b600060016000815480929190612c5e90614a95565b91905055506000826001544233600143612c789190614ffd565b40604051602001612c8d959493929190615100565b6040516020818303038152906040528051906020012060001c905060035481612cb69190614e79565b915050919050565b6000825111612d02576040517f08c379a0000000000000000000000000000000000000000000000000000000008152600401612cf9906151a7565b60405180910390fd5b808114612d44576040517f08c379a0000000000000000000000000000000000000000000000000000000008152600401612d3b90615213565b60405180910390fd5b60004290506000604051806101400160405280858152602001848152602001600081526020018363ffffffff168152602001600163ffffffff1681526020018363ffffffff1681526020018363ffffffff168152602001600061ffff168152602001600061ffff168152602001600061ffff168152509050600b8190806001815401808255809150506001900390600052602060002090600402016000909190919091506000820151816000019081612dfd9190614704565b50602082015181600101556040820151816002015560608201518160030160006101000a81548163ffffffff021916908363ffffffff16021790555060808201518160030160046101000a81548163ffffffff021916908363ffffffff16021790555060a08201518160030160086101000a81548163ffffffff021916908363ffffffff16021790555060c082015181600301600c6101000a81548163ffffffff021916908363ffffffff16021790555060e08201518160030160106101000a81548161ffff021916908361ffff1602179055506101008201518160030160126101000a81548161ffff021916908361ffff1602179055506101208201518160030160146101000a81548161ffff021916908361ffff160217905550505060006001600b80549050612f2f9190614ffd565b905033600d600083815260200190815260200160002060006101000a81548173ffffffffffffffffffffffffffffffffffffffff021916908373ffffffffffffffffffffffffffffffffffffffff1602179055506001600e60003373ffffffffffffffffffffffffffffffffffffffff1673ffffffffffffffffffffffffffffffffffffffff16815260200190815260200160002054612fcf9190614842565b600e60003373ffffffffffffffffffffffffffffffffffffffff1673ffffffffffffffffffffffffffffffffffffffff16815260200190815260200160002081905550803373ffffffffffffffffffffffffffffffffffffffff167ff92b1ba4cb9ae7683c3a3a1e58273b24013547531f590e32910f3105e8349e1f878760405161305b929190615233565b60405180910390a35050505050565b6000600e60008373ffffffffffffffffffffffffffffffffffffffff1673ffffffffffffffffffffffffffffffffffffffff16815260200190815260200160002054116130ec576040517f08c379a00000000000000000000000000000000000000000000000000000000081526004016130e3906152d5565b60405180910390fd5b6130f58161374b565b61315d57600c819080600181540180825580915050600190039060005260206000200160009091909190916101000a81548173ffffffffffffffffffffffffffffffffffffffff021916908373ffffffffffffffffffffffffffffffffffffffff1602179055505b50565b6000428260030160089054906101000a900463ffffffff1663ffffffff1611159050919050565b600080601454905060008360030160049054906101000a900463ffffffff1663ffffffff168560030160049054906101000a900463ffffffff1663ffffffff166131d191906152ff565b90506002816131e09190615342565b826131eb91906153ba565b91506000806131fd87600101546137f3565b5091509150600061321187600101546137f3565b92505050600081836002866132269190615031565b6132309190614842565b61323a91906152ff565b9050600081121561324a57600090505b600a8161325791906153fe565b8661326291906153ba565b9550605a86131561327257605a95505b601e86121561328057601e95505b85965050505050505092915050565b600060038260030160129054906101000a900461ffff166132b09190615468565b61ffff1660058360030160109054906101000a900461ffff166132d39190615468565b61ffff16600a8460030160049054906101000a900463ffffffff166132f891906154a5565b61330291906144c0565b61330c91906154e2565b9050600a8163ffffffff16101561332257600a90505b8063ffffffff1682600201819055505050565b6000600354836133459190614e79565b92506000600284866133579190614842565b613361919061551a565b905060405160200161337290615597565b604051602081830303815290604052805190602001208360405160200161339991906155ac565b60405160208183030381529060405280519060200120036133db5760636064826133c39190614e79565b826133ce9190614ffd565b6133d89190614842565b90505b61341a6040518060400160405280600681526020017f4e6f4e616d65000000000000000000000000000000000000000000000000000081525082612cbe565b809150509392505050565b600754426134339190614842565b8160030160086101000a81548163ffffffff021916908363ffffffff16021790555050565b600073ffffffffffffffffffffffffffffffffffffffff168173ffffffffffffffffffffffffffffffffffffffff160361349157600080fd5b8073ffffffffffffffffffffffffffffffffffffffff1660008054906101000a900473ffffffffffffffffffffffffffffffffffffffff1673ffffffffffffffffffffffffffffffffffffffff167f8be0079c531659141344cd1fd0a4f28419497f9722a3daafe3b4186f6b6457e060405160405180910390a3806000806101000a81548173ffffffffffffffffffffffffffffffffffffffff021916908373ffffffffffffffffffffffffffffffffffffffff16021790555050565b60004282600301600c9054906101000a900463ffffffff1663ffffffff1611159050919050565b600854426135839190614842565b81600301600c6101000a81548163ffffffff021916908363ffffffff16021790555050565b600080600090507a184f03e93ff9f4daa797ed6e38ed64bf6a1f0100000000000000008310613606577a184f03e93ff9f4daa797ed6e38ed64bf6a1f01000000000000000083816135fc576135fb614e4a565b5b0492506040810190505b6d04ee2d6d415b85acef81000000008310613643576d04ee2d6d415b85acef8100000000838161363957613638614e4a565b5b0492506020810190505b662386f26fc10000831061367257662386f26fc10000838161366857613667614e4a565b5b0492506010810190505b6305f5e100831061369b576305f5e100838161369157613690614e4a565b5b0492506008810190505b61271083106136c05761271083816136b6576136b5614e4a565b5b0492506004810190505b606483106136e357606483816136d9576136d8614e4a565b5b0492506002810190505b600a83106136f2576001810190505b80915050919050565b60008082905060005b8451811015613740576137318286838151811061372457613723614395565b5b602002602001015161387a565b91508080600101915050613704565b508091505092915050565b6000806000905060005b600c805490508110156137e9578373ffffffffffffffffffffffffffffffffffffffff16600c828154811061378d5761378c614395565b5b9060005260206000200160009054906101000a900473ffffffffffffffffffffffffffffffffffffffff1673ffffffffffffffffffffffffffffffffffffffff16036137dc57600191506137e9565b8080600101915050613755565b5080915050919050565b6000806000806032856138069190614e79565b60326138129190614842565b905060006032606487613825919061551a565b61382f9190614e79565b603261383b9190614842565b9050600060326127108861384f919061551a565b6138599190614e79565b60326138659190614842565b90508282829550955095505050509193909250565b60008183106138925761388d82846138a5565b61389d565b61389c83836138a5565b5b905092915050565b600082600052816020526040600020905092915050565b6000604051905090565b600080fd5b600080fd5b60007fffffffff0000000000000000000000000000000000000000000000000000000082169050919050565b613905816138d0565b811461391057600080fd5b50565b600081359050613922816138fc565b92915050565b60006020828403121561393e5761393d6138c6565b5b600061394c84828501613913565b91505092915050565b60008115159050919050565b61396a81613955565b82525050565b60006020820190506139856000830184613961565b92915050565b6000819050919050565b61399e8161398b565b82525050565b60006020820190506139b96000830184613995565b92915050565b6139c88161398b565b81146139d357600080fd5b50565b6000813590506139e5816139bf565b92915050565b600080600060608486031215613a0457613a036138c6565b5b6000613a12868287016139d6565b9350506020613a23868287016139d6565b9250506040613a34868287016139d6565b9150509250925092565b600073ffffffffffffffffffffffffffffffffffffffff82169050919050565b6000613a6982613a3e565b9050919050565b613a7981613a5e565b8114613a8457600080fd5b50565b600081359050613a9681613a70565b92915050565b60008060408385031215613ab357613ab26138c6565b5b6000613ac185828601613a87565b9250506020613ad2858286016139d6565b9150509250929050565b600060208284031215613af257613af16138c6565b5b6000613b00848285016139d6565b91505092915050565b600080fd5b600080fd5b6000601f19601f8301169050919050565b7f4e487b7100000000000000000000000000000000000000000000000000000000600052604160045260246000fd5b613b5c82613b13565b810181811067ffffffffffffffff82111715613b7b57613b7a613b24565b5b80604052505050565b6000613b8e6138bc565b9050613b9a8282613b53565b919050565b600067ffffffffffffffff821115613bba57613bb9613b24565b5b613bc382613b13565b9050602081019050919050565b82818337600083830152505050565b6000613bf2613bed84613b9f565b613b84565b905082815260208101848484011115613c0e57613c0d613b0e565b5b613c19848285613bd0565b509392505050565b600082601f830112613c3657613c35613b09565b5b8135613c46848260208601613bdf565b91505092915050565b600060208284031215613c6557613c646138c6565b5b600082013567ffffffffffffffff811115613c8357613c826138cb565b5b613c8f84828501613c21565b91505092915050565b600081519050919050565b600082825260208201905092915050565b60005b83811015613cd2578082015181840152602081019050613cb7565b60008484015250505050565b6000613ce982613c98565b613cf38185613ca3565b9350613d03818560208601613cb4565b613d0c81613b13565b840191505092915050565b600063ffffffff82169050919050565b613d3081613d17565b82525050565b600061ffff82169050919050565b613d4d81613d36565b82525050565b6000610140820190508181036000830152613d6e818d613cde565b9050613d7d602083018c613995565b613d8a604083018b613995565b613d97606083018a613d27565b613da46080830189613d27565b613db160a0830188613d27565b613dbe60c0830187613d27565b613dcb60e0830186613d44565b613dd9610100830185613d44565b613de7610120830184613d44565b9b9a5050505050505050505050565b600080600060608486031215613e0f57613e0e6138c6565b5b6000613e1d86828701613a87565b9350506020613e2e86828701613a87565b9250506040613e3f868287016139d6565b9150509250925092565b6000819050919050565b613e5c81613e49565b82525050565b6000602082019050613e776000830184613e53565b92915050565b600060208284031215613e9357613e926138c6565b5b6000613ea184828501613a87565b91505092915050565b600081519050919050565b600082825260208201905092915050565b6000819050602082019050919050565b613edf8161398b565b82525050565b6000613ef18383613ed6565b60208301905092915050565b6000602082019050919050565b6000613f1582613eaa565b613f1f8185613eb5565b9350613f2a83613ec6565b8060005b83811015613f5b578151613f428882613ee5565b9750613f4d83613efd565b925050600181019050613f2e565b5085935050505092915050565b60006020820190508181036000830152613f828184613f0a565b905092915050565b60008060408385031215613fa157613fa06138c6565b5b6000613faf858286016139d6565b9250506020613fc0858286016139d6565b9150509250929050565b600081519050919050565b600082825260208201905092915050565b6000819050602082019050919050565b613fff81613a5e565b82525050565b60006140118383613ff6565b60208301905092915050565b6000602082019050919050565b600061403582613fca565b61403f8185613fd5565b935061404a83613fe6565b8060005b8381101561407b5781516140628882614005565b975061406d8361401d565b92505060018101905061404e565b5085935050505092915050565b600060208201905081810360008301526140a2818461402a565b905092915050565b600060ff82169050919050565b6140c0816140aa565b82525050565b60006020820190506140db60008301846140b7565b92915050565b6140ea81613a5e565b82525050565b600060208201905061410560008301846140e1565b92915050565b600060208201905081810360008301526141258184613cde565b905092915050565b614136816140aa565b811461414157600080fd5b50565b6000813590506141538161412d565b92915050565b60006020828403121561416f5761416e6138c6565b5b600061417d84828501614144565b91505092915050565b600080fd5b600080fd5b60008083601f8401126141a6576141a5613b09565b5b8235905067ffffffffffffffff8111156141c3576141c2614186565b5b6020830191508360208202830111156141df576141de61418b565b5b9250929050565b600080602083850312156141fd576141fc6138c6565b5b600083013567ffffffffffffffff81111561421b5761421a6138cb565b5b61422785828601614190565b92509250509250929050565b61423c81613e49565b811461424757600080fd5b50565b60008135905061425981614233565b92915050565b600060208284031215614275576142746138c6565b5b60006142838482850161424a565b91505092915050565b60008083601f8401126142a2576142a1613b09565b5b8235905067ffffffffffffffff8111156142bf576142be614186565b5b6020830191508360018202830111156142db576142da61418b565b5b9250929050565b6000806000604084860312156142fb576142fa6138c6565b5b6000614309868287016139d6565b935050602084013567ffffffffffffffff81111561432a576143296138cb565b5b6143368682870161428c565b92509250509250925092565b60008060006060848603121561435b5761435a6138c6565b5b600061436986828701613a87565b935050602061437a868287016139d6565b925050604061438b868287016139d6565b9150509250925092565b7f4e487b7100000000000000000000000000000000000000000000000000000000600052603260045260246000fd5b60006080820190506143d96000830187613995565b6143e66020830186613995565b6143f36040830185613995565b6144006060830184613995565b95945050505050565b7f5072696365206d696e696d756d20697320000000000000000000000000000000815250565b600081905092915050565b600061444582613c98565b61444f818561442f565b935061445f818560208601613cb4565b80840191505092915050565b600061447682614409565b601182019150614486828461443a565b915081905092915050565b7f4e487b7100000000000000000000000000000000000000000000000000000000600052601160045260246000fd5b60006144cb82613d17565b91506144d683613d17565b9250828201905063ffffffff8111156144f2576144f1614491565b5b92915050565b7f4e487b7100000000000000000000000000000000000000000000000000000000600052602260045260246000fd5b6000600282049050600182168061453f57607f821691505b602082108103614552576145516144f8565b5b50919050565b60008190508160005260206000209050919050565b60006020601f8301049050919050565b600082821b905092915050565b6000600883026145ba7fffffffffffffffffffffffffffffffffffffffffffffffffffffffffffffffff8261457d565b6145c4868361457d565b95508019841693508086168417925050509392505050565b6000819050919050565b60006146016145fc6145f78461398b565b6145dc565b61398b565b9050919050565b6000819050919050565b61461b836145e6565b61462f61462782614608565b84845461458a565b825550505050565b600090565b614644614637565b61464f818484614612565b505050565b5b818110156146735761466860008261463c565b600181019050614655565b5050565b601f8211156146b85761468981614558565b6146928461456d565b810160208510156146a1578190505b6146b56146ad8561456d565b830182614654565b50505b505050565b600082821c905092915050565b60006146db600019846008026146bd565b1980831691505092915050565b60006146f483836146ca565b9150826002028217905092915050565b61470d82613c98565b67ffffffffffffffff81111561472657614725613b24565b5b6147308254614527565b61473b828285614677565b600060209050601f83116001811461476e576000841561475c578287015190505b61476685826146e8565b8655506147ce565b601f19841661477c86614558565b60005b828110156147a45784890151825560018201915060208501945060208101905061477f565b868310156147c157848901516147bd601f8916826146ca565b8355505b6001600288020188555050505b505050505050565b7f596f7520617265206e6f74206f776e6572206f7220617070726f7665642e2000600082015250565b600061480c601f83613ca3565b9150614817826147d6565b602082019050919050565b6000602082019050818103600083015261483b816147ff565b9050919050565b600061484d8261398b565b91506148588361398b565b92508282019050808211156148705761486f614491565b5b92915050565b7f4c6576656c206d696e2e20697320000000000000000000000000000000000000815250565b60006148a782614876565b600e820191506148b7828461443a565b915081905092915050565b7f4f6e6c7920000000000000000000000000000000000000000000000000000000815250565b60006148f3826148c2565b600582019150614903828461443a565b915081905092915050565b7f4f6e65206d696e7420706572206163636f756e74000000000000000000000000600082015250565b6000614944601483613ca3565b915061494f8261490e565b602082019050919050565b6000602082019050818103600083015261497381614937565b9050919050565b60008160601b9050919050565b60006149928261497a565b9050919050565b60006149a482614987565b9050919050565b6149bc6149b782613a5e565b614999565b82525050565b60006149ce82846149ab565b60148201915081905092915050565b7f496e76616c69642070726f6f6600000000000000000000000000000000000000600082015250565b6000614a13600d83613ca3565b9150614a1e826149dd565b602082019050919050565b60006020820190508181036000830152614a4281614a06565b9050919050565b7f5a6f6d6269652000000000000000000000000000000000000000000000000000815250565b6000614a7a82614a49565b600782019150614a8a828461443a565b915081905092915050565b6000614aa08261398b565b91507fffffffffffffffffffffffffffffffffffffffffffffffffffffffffffffffff8203614ad257614ad1614491565b5b600182019050919050565b600082905092915050565b614af28383614add565b67ffffffffffffffff811115614b0b57614b0a613b24565b5b614b158254614527565b614b20828285614677565b6000601f831160018114614b4f5760008415614b3d578287013590505b614b4785826146e8565b865550614baf565b601f198416614b5d86614558565b60005b82811015614b8557848901358255600182019150602085019450602081019050614b60565b86831015614ba25784890135614b9e601f8916826146ca565b8355505b6001600288020188555050505b50505050505050565b60008154614bc581614527565b614bcf818661442f565b94506001821660008114614bea5760018114614bff57614c32565b60ff1983168652811515820286019350614c32565b614c0885614558565b60005b83811015614c2a57815481890152600182019150602081019050614c0b565b838801955050505b50505092915050565b7f2f00000000000000000000000000000000000000000000000000000000000000815250565b7f2e6a736f6e000000000000000000000000000000000000000000000000000000815250565b6000614c938287614bb8565b9150614c9f828661443a565b9150614caa82614c3b565b600182019150614cba8285614bb8565b9150614cc582614c3b565b600182019150614cd5828461443a565b9150614ce082614c61565b60058201915081905095945050505050565b7f43616e6e6f742061747461636b20697473656c66000000000000000000000000600082015250565b6000614d28601483613ca3565b9150614d3382614cf2565b602082019050919050565b60006020820190508181036000830152614d5781614d1b565b9050919050565b7f49742773206e6f7420726561647920746f2061747461636b0000000000000000600082015250565b6000614d94601883613ca3565b9150614d9f82614d5e565b602082019050919050565b60006020820190508181036000830152614dc381614d87565b9050919050565b6000819050919050565b614de5614de08261398b565b614dca565b82525050565b6000614df78288614dd4565b602082019150614e0782876149ab565b601482019150614e178286614dd4565b602082019150614e278285614dd4565b602082019150614e378284614dd4565b6020820191508190509695505050505050565b7f4e487b7100000000000000000000000000000000000000000000000000000000600052601260045260246000fd5b6000614e848261398b565b9150614e8f8361398b565b925082614e9f57614e9e614e4a565b5b828206905092915050565b6000614eb582613d36565b915061ffff8203614ec957614ec8614491565b5b600182019050919050565b6000614edf82613d17565b915063ffffffff8203614ef557614ef4614491565b5b600182019050919050565b6000614f0b82613d36565b9150614f1683613d36565b925082614f2657614f25614e4a565b5b828206905092915050565b6000606082019050614f466000830186613995565b614f536020830185613995565b614f606040830184613995565b949350505050565b6000604082019050614f7d6000830185613995565b614f8a6020830184613995565b9392505050565b7f49742773206e6f7420726561647920746f206665656400000000000000000000600082015250565b6000614fc7601683613ca3565b9150614fd282614f91565b602082019050919050565b60006020820190508181036000830152614ff681614fba565b9050919050565b60006150088261398b565b91506150138361398b565b925082820390508181111561502b5761502a614491565b5b92915050565b600061503c8261398b565b91506150478361398b565b92508282026150558161398b565b9150828204841483151761506c5761506b614491565b5b5092915050565b7f50616765206f7574206f662072616e6765000000000000000000000000000000600082015250565b60006150a9601183613ca3565b91506150b482615073565b602082019050919050565b600060208201905081810360008301526150d88161509c565b9050919050565b6000819050919050565b6150fa6150f582613e49565b6150df565b82525050565b600061510c828861443a565b91506151188287614dd4565b6020820191506151288286614dd4565b60208201915061513882856149ab565b60148201915061514882846150e9565b6020820191508190509695505050505050565b7f4e616d652063616e6e6f74206265206c65667420656d70747900000000000000600082015250565b6000615191601983613ca3565b915061519c8261515b565b602082019050919050565b600060208201905081810360008301526151c081615184565b9050919050565b7f444e41206d75737420626520616e20696e746567657200000000000000000000600082015250565b60006151fd601683613ca3565b9150615208826151c7565b602082019050919050565b6000602082019050818103600083015261522c816151f0565b9050919050565b6000604082019050818103600083015261524d8185613cde565b905061525c6020830184613995565b9392505050565b7f43616e277420746f20616464206163636f756e742c206163636f756e7420776960008201527f74686f7574207a6f6d6269650000000000000000000000000000000000000000602082015250565b60006152bf602c83613ca3565b91506152ca82615263565b604082019050919050565b600060208201905081810360008301526152ee816152b2565b9050919050565b6000819050919050565b600061530a826152f5565b9150615315836152f5565b925082820390508181126000841216828213600085121516171561533c5761533b614491565b5b92915050565b600061534d826152f5565b9150615358836152f5565b9250828202615366816152f5565b91507f8000000000000000000000000000000000000000000000000000000000000000841460008412161561539e5761539d614491565b5b82820584148315176153b3576153b2614491565b5b5092915050565b60006153c5826152f5565b91506153d0836152f5565b9250828201905082811215600083121683821260008412151617156153f8576153f7614491565b5b92915050565b6000615409826152f5565b9150615414836152f5565b92508261542457615423614e4a565b5b600160000383147f80000000000000000000000000000000000000000000000000000000000000008314161561545d5761545c614491565b5b828205905092915050565b600061547382613d36565b915061547e83613d36565b925082820261548c81613d36565b915080821461549e5761549d614491565b5b5092915050565b60006154b082613d17565b91506154bb83613d17565b92508282026154c981613d17565b91508082146154db576154da614491565b5b5092915050565b60006154ed82613d17565b91506154f883613d17565b9250828203905063ffffffff81111561551457615513614491565b5b92915050565b60006155258261398b565b91506155308361398b565b9250826155405761553f614e4a565b5b828204905092915050565b7f6b69747479000000000000000000000000000000000000000000000000000000600082015250565b600061558160058361442f565b915061558c8261554b565b600582019050919050565b60006155a282615574565b9150819050919050565b60006155b8828461443a565b91508190509291505056fea264697066735822122099536f6abd95697d88d58d9bf5492338f8c00137e64e8daf76511f22d7506e0064736f6c634300081c003368747470733a2f2f6170692e63727970746f7a6f6d62696573626174746c652e636f6d2f7a6f6d6269652f7572692f",
  "linkReferences": {},
  "deployedLinkReferences": {}
}