{
  "_format": "hh-sol-artifact-1",
  "contractName": "CryptozombiesBattleMarket",
  "sourceName": "contracts/cryptozombiesBattleMarket/CryptozombiesBattleMarket.sol",
  "abi": [
    {
      "inputs": [
        {
          "internalType": "address",
          "name": "_cryptozombiesBattleContractAddress",
          "type": "address"
        }
      ],
      "stateMutability": "nonpayable",
      "type": "constructor"
    },
    {
      "anonymous": false,
      "inputs": [
        {
          "indexed": true,
          "internalType": "uint256",
          "name": "zombieId",
          "type": "uint256"
        },
        {
          "indexed": true,
          "internalType": "address",
          "name": "buyer",
          "type": "address"
        },
        {
          "indexed": true,
          "internalType": "address",
          "name": "seller",
          "type": "address"
        }
      ],
      "name": "BuyZombie",
      "type": "event"
    },
    {
      "anonymous": false,
      "inputs": [
        {
          "indexed": true,
          "internalType": "uint256",
          "name": "zombieId",
          "type": "uint256"
        },
        {
          "indexed": true,
          "internalType": "address",
          "name": "seller",
          "type": "address"
        }
      ],
      "name": "CancelSaleZombie",
      "type": "event"
    },
    {
      "anonymous": false,
      "inputs": [
        {
          "indexed": true,
          "internalType": "address",
          "name": "previousOwner",
          "type": "address"
        },
        {
          "indexed": true,
          "internalType": "address",
          "name": "newOwner",
          "type": "address"
        }
      ],
      "name": "OwnershipTransferred",
      "type": "event"
    },
    {
      "anonymous": false,
      "inputs": [
        {
          "indexed": true,
          "internalType": "uint256",
          "name": "zombieId",
          "type": "uint256"
        },
        {
          "indexed": true,
          "internalType": "uint256",
          "name": "price",
          "type": "uint256"
        },
        {
          "indexed": true,
          "internalType": "address",
          "name": "seller",
          "type": "address"
        }
      ],
      "name": "SaleZombie",
      "type": "event"
    },
    {
      "inputs": [],
      "name": "balance",
      "outputs": [
        {
          "internalType": "uint256",
          "name": "",
          "type": "uint256"
        }
      ],
      "stateMutability": "view",
      "type": "function"
    },
    {
      "inputs": [
        {
          "internalType": "uint256",
          "name": "zombieId",
          "type": "uint256"
        }
      ],
      "name": "buyZombie",
      "outputs": [],
      "stateMutability": "payable",
      "type": "function"
    },
    {
      "inputs": [
        {
          "internalType": "uint256",
          "name": "zombieId",
          "type": "uint256"
        }
      ],
      "name": "cancelSaleZombie",
      "outputs": [],
      "stateMutability": "nonpayable",
      "type": "function"
    },
    {
      "inputs": [
        {
          "internalType": "uint256",
          "name": "_zombieId",
          "type": "uint256"
        }
      ],
      "name": "getZombieByIdInSale",
      "outputs": [
        {
          "components": [
            {
              "internalType": "address payable",
              "name": "seller",
              "type": "address"
            },
            {
              "internalType": "uint256",
              "name": "zombieId",
              "type": "uint256"
            },
            {
              "internalType": "uint256",
              "name": "price",
              "type": "uint256"
            }
          ],
          "internalType": "struct CryptozombiesBattleMarket.ZombieSale",
          "name": "",
          "type": "tuple"
        }
      ],
      "stateMutability": "view",
      "type": "function"
    },
    {
      "inputs": [
        {
          "internalType": "uint256",
          "name": "_page",
          "type": "uint256"
        },
        {
          "internalType": "uint256",
          "name": "_pageSize",
          "type": "uint256"
        }
      ],
      "name": "getZombiesInShopPaginated",
      "outputs": [
        {
          "components": [
            {
              "internalType": "address payable",
              "name": "seller",
              "type": "address"
            },
            {
              "internalType": "uint256",
              "name": "zombieId",
              "type": "uint256"
            },
            {
              "internalType": "uint256",
              "name": "price",
              "type": "uint256"
            }
          ],
          "internalType": "struct CryptozombiesBattleMarket.ZombieSale[]",
          "name": "",
          "type": "tuple[]"
        }
      ],
      "stateMutability": "view",
      "type": "function"
    },
    {
      "inputs": [],
      "name": "getZombiesInShopTotal",
      "outputs": [
        {
          "internalType": "uint256",
          "name": "",
          "type": "uint256"
        }
      ],
      "stateMutability": "view",
      "type": "function"
    },
    {
      "inputs": [],
      "name": "isOwner",
      "outputs": [
        {
          "internalType": "bool",
          "name": "",
          "type": "bool"
        }
      ],
      "stateMutability": "view",
      "type": "function"
    },
    {
      "inputs": [],
      "name": "minPrice",
      "outputs": [
        {
          "internalType": "uint256",
          "name": "",
          "type": "uint256"
        }
      ],
      "stateMutability": "view",
      "type": "function"
    },
    {
      "inputs": [],
      "name": "owner",
      "outputs": [
        {
          "internalType": "address",
          "name": "",
          "type": "address"
        }
      ],
      "stateMutability": "view",
      "type": "function"
    },
    {
      "inputs": [],
      "name": "renounceOwnership",
      "outputs": [],
      "stateMutability": "nonpayable",
      "type": "function"
    },
    {
      "inputs": [
        {
          "internalType": "uint256",
          "name": "zombieId",
          "type": "uint256"
        },
        {
          "internalType": "uint256",
          "name": "price",
          "type": "uint256"
        }
      ],
      "name": "saleZombie",
      "outputs": [],
      "stateMutability": "nonpayable",
      "type": "function"
    },
    {
      "inputs": [
        {
          "internalType": "address",
          "name": "_address",
          "type": "address"
        }
      ],
      "name": "setCryptozombiesBattleContractAddress",
      "outputs": [],
      "stateMutability": "nonpayable",
      "type": "function"
    },
    {
      "inputs": [
        {
          "internalType": "uint256",
          "name": "value",
          "type": "uint256"
        }
      ],
      "name": "setMinPrice",
      "outputs": [],
      "stateMutability": "nonpayable",
      "type": "function"
    },
    {
      "inputs": [
        {
          "internalType": "uint256",
          "name": "value",
          "type": "uint256"
        }
      ],
      "name": "setTax",
      "outputs": [],
      "stateMutability": "nonpayable",
      "type": "function"
    },
    {
      "inputs": [],
      "name": "tax",
      "outputs": [
        {
          "internalType": "uint256",
          "name": "",
          "type": "uint256"
        }
      ],
      "stateMutability": "view",
      "type": "function"
    },
    {
      "inputs": [
        {
          "internalType": "address",
          "name": "newOwner",
          "type": "address"
        }
      ],
      "name": "transferOwnership",
      "outputs": [],
      "stateMutability": "nonpayable",
      "type": "function"
    },
    {
      "inputs": [],
      "name": "withdraw",
      "outputs": [],
      "stateMutability": "nonpayable",
      "type": "function"
    },
    {
      "inputs": [
        {
          "internalType": "uint256",
          "name": "",
          "type": "uint256"
        }
      ],
      "name": "zombieIdToSale",
      "outputs": [
        {
          "internalType": "address payable",
          "name": "seller",
          "type": "address"
        },
        {
          "internalType": "uint256",
          "name": "zombieId",
          "type": "uint256"
        },
        {
          "internalType": "uint256",
          "name": "price",
          "type": "uint256"
        }
      ],
      "stateMutability": "view",
      "type": "function"
    },
    {
      "inputs": [
        {
          "internalType": "uint256",
          "name": "",
          "type": "uint256"
        }
      ],
      "name": "zombieSales",
      "outputs": [
        {
          "internalType": "address payable",
          "name": "seller",
          "type": "address"
        },
        {
          "internalType": "uint256",
          "name": "zombieId",
          "type": "uint256"
        },
        {
          "internalType": "uint256",
          "name": "price",
          "type": "uint256"
        }
      ],
      "stateMutability": "view",
      "type": "function"
    }
  ],
  "bytecode": "0x6080604052655af3107a4000600255655af3107a400060035534801561002457600080fd5b50604051611f66380380611f66833981810160405281019061004691906101ab565b336000806101000a81548173ffffffffffffffffffffffffffffffffffffffff021916908373ffffffffffffffffffffffffffffffffffffffff16021790555060008054906101000a900473ffffffffffffffffffffffffffffffffffffffff1673ffffffffffffffffffffffffffffffffffffffff16600073ffffffffffffffffffffffffffffffffffffffff167f8be0079c531659141344cd1fd0a4f28419497f9722a3daafe3b4186f6b6457e060405160405180910390a380600160006101000a81548173ffffffffffffffffffffffffffffffffffffffff021916908373ffffffffffffffffffffffffffffffffffffffff160217905550506101d8565b600080fd5b600073ffffffffffffffffffffffffffffffffffffffff82169050919050565b60006101788261014d565b9050919050565b6101888161016d565b811461019357600080fd5b50565b6000815190506101a58161017f565b92915050565b6000602082840312156101c1576101c0610148565b5b60006101cf84828501610196565b91505092915050565b611d7f806101e76000396000f3fe6080604052600436106101145760003560e01c80638f32d59b116100a0578063da6c685511610064578063da6c685514610358578063dedaee9414610383578063df20b3de146103c0578063e45be8eb146103ff578063f2fde38b1461042a57610114565b80638f32d59b1461029257806399c8d556146102bd578063a527d615146102e8578063b69ef8a814610311578063b92e2d741461033c57610114565b80635ea8cd12116100e75780635ea8cd12146101c157806362b77170146101ea578063715018a614610227578063811d13671461023e5780638da5cb5b1461026757610114565b806313974680146101195780632e5bb6ff146101585780633ccfd60b1461018157806347ada6f614610198575b600080fd5b34801561012557600080fd5b50610140600480360381019061013b9190611550565b610453565b60405161014f939291906115cd565b60405180910390f35b34801561016457600080fd5b5061017f600480360381019061017a9190611550565b6104ad565b005b34801561018d57600080fd5b506101966104c8565b005b3480156101a457600080fd5b506101bf60048036038101906101ba9190611642565b61052f565b005b3480156101cd57600080fd5b506101e860048036038101906101e39190611550565b610584565b005b3480156101f657600080fd5b50610211600480360381019061020c919061166f565b61059f565b60405161021e91906117be565b60405180910390f35b34801561023357600080fd5b5061023c6106f6565b005b34801561024a57600080fd5b5061026560048036038101906102609190611550565b6107c5565b005b34801561027357600080fd5b5061027c61098e565b60405161028991906117ef565b60405180910390f35b34801561029e57600080fd5b506102a76109b7565b6040516102b49190611825565b60405180910390f35b3480156102c957600080fd5b506102d2610a0e565b6040516102df9190611840565b60405180910390f35b3480156102f457600080fd5b5061030f600480360381019061030a919061166f565b610a14565b005b34801561031d57600080fd5b50610326610cb5565b6040516103339190611840565b60405180910390f35b61035660048036038101906103519190611550565b610cce565b005b34801561036457600080fd5b5061036d61106c565b60405161037a9190611840565b60405180910390f35b34801561038f57600080fd5b506103aa60048036038101906103a59190611550565b611079565b6040516103b7919061189d565b60405180910390f35b3480156103cc57600080fd5b506103e760048036038101906103e29190611550565b611110565b6040516103f6939291906115cd565b60405180910390f35b34801561040b57600080fd5b5061041461115a565b6040516104219190611840565b60405180910390f35b34801561043657600080fd5b50610451600480360381019061044c9190611642565b611160565b005b6004818154811061046357600080fd5b90600052602060002090600302016000915090508060000160009054906101000a900473ffffffffffffffffffffffffffffffffffffffff16908060010154908060020154905083565b6104b56109b7565b6104be57600080fd5b8060028190555050565b6104d06109b7565b6104d957600080fd5b60006104e361098e565b90508073ffffffffffffffffffffffffffffffffffffffff166108fc479081150290604051600060405180830381858888f1935050505015801561052b573d6000803e3d6000fd5b5050565b6105376109b7565b61054057600080fd5b80600160006101000a81548173ffffffffffffffffffffffffffffffffffffffff021916908373ffffffffffffffffffffffffffffffffffffffff16021790555050565b61058c6109b7565b61059557600080fd5b8060038190555050565b60606000806105b4600480549050868661117d565b509150915060008167ffffffffffffffff8111156105d5576105d46118b8565b5b60405190808252806020026020018201604052801561060e57816020015b6105fb6114de565b8152602001906001900390816105f35790505b50905060005b828110156106e9576004818561062a9190611916565b8154811061063b5761063a61194a565b5b90600052602060002090600302016040518060600160405290816000820160009054906101000a900473ffffffffffffffffffffffffffffffffffffffff1673ffffffffffffffffffffffffffffffffffffffff1673ffffffffffffffffffffffffffffffffffffffff168152602001600182015481526020016002820154815250508282815181106106d1576106d061194a565b5b60200260200101819052508080600101915050610614565b5080935050505092915050565b6106fe6109b7565b61070757600080fd5b600073ffffffffffffffffffffffffffffffffffffffff1660008054906101000a900473ffffffffffffffffffffffffffffffffffffffff1673ffffffffffffffffffffffffffffffffffffffff167f8be0079c531659141344cd1fd0a4f28419497f9722a3daafe3b4186f6b6457e060405160405180910390a360008060006101000a81548173ffffffffffffffffffffffffffffffffffffffff021916908373ffffffffffffffffffffffffffffffffffffffff160217905550565b80600160009054906101000a900473ffffffffffffffffffffffffffffffffffffffff1673ffffffffffffffffffffffffffffffffffffffff16636352211e826040518263ffffffff1660e01b81526004016108219190611840565b602060405180830381865afa15801561083e573d6000803e3d6000fd5b505050506040513d601f19601f82011682018060405250810190610862919061198e565b73ffffffffffffffffffffffffffffffffffffffff163373ffffffffffffffffffffffffffffffffffffffff161461089957600080fd5b3373ffffffffffffffffffffffffffffffffffffffff166005600084815260200190815260200160002060000160009054906101000a900473ffffffffffffffffffffffffffffffffffffffff1673ffffffffffffffffffffffffffffffffffffffff161461093d576040517f08c379a000000000000000000000000000000000000000000000000000000000815260040161093490611a3e565b60405180910390fd5b61094682611214565b3373ffffffffffffffffffffffffffffffffffffffff16827f9f63f695352607f5d8532e52458b7b194a971d563a2b360cb52fdf0c1b7cf71060405160405180910390a35050565b60008060009054906101000a900473ffffffffffffffffffffffffffffffffffffffff16905090565b60008060009054906101000a900473ffffffffffffffffffffffffffffffffffffffff1673ffffffffffffffffffffffffffffffffffffffff163373ffffffffffffffffffffffffffffffffffffffff1614905090565b60025481565b81600160009054906101000a900473ffffffffffffffffffffffffffffffffffffffff1673ffffffffffffffffffffffffffffffffffffffff16636352211e826040518263ffffffff1660e01b8152600401610a709190611840565b602060405180830381865afa158015610a8d573d6000803e3d6000fd5b505050506040513d601f19601f82011682018060405250810190610ab1919061198e565b73ffffffffffffffffffffffffffffffffffffffff163373ffffffffffffffffffffffffffffffffffffffff1614610ae857600080fd5b600354600254610af89190611916565b821015610b3a576040517f08c379a0000000000000000000000000000000000000000000000000000000008152600401610b3190611aaa565b60405180910390fd5b600060405180606001604052803373ffffffffffffffffffffffffffffffffffffffff168152602001858152602001848152509050806005600086815260200190815260200160002060008201518160000160006101000a81548173ffffffffffffffffffffffffffffffffffffffff021916908373ffffffffffffffffffffffffffffffffffffffff1602179055506020820151816001015560408201518160020155905050600481908060018154018082558091505060019003906000526020600020906003020160009091909190915060008201518160000160006101000a81548173ffffffffffffffffffffffffffffffffffffffff021916908373ffffffffffffffffffffffffffffffffffffffff160217905550602082015181600101556040820151816002015550503373ffffffffffffffffffffffffffffffffffffffff1683857f423c789d4ebac5f7edf9bb0afb63074cf8d0ea0f7951b46e8f148abeaa8a72cb60405160405180910390a450505050565b6000610cbf6109b7565b610cc857600080fd5b47905090565b6000600560008381526020019081526020016000206040518060600160405290816000820160009054906101000a900473ffffffffffffffffffffffffffffffffffffffff1673ffffffffffffffffffffffffffffffffffffffff1673ffffffffffffffffffffffffffffffffffffffff168152602001600182015481526020016002820154815250509050806000015173ffffffffffffffffffffffffffffffffffffffff16600073ffffffffffffffffffffffffffffffffffffffff1603610dcd576040517f08c379a0000000000000000000000000000000000000000000000000000000008152600401610dc490611b16565b60405180910390fd5b806000015173ffffffffffffffffffffffffffffffffffffffff163373ffffffffffffffffffffffffffffffffffffffff1603610e3f576040517f08c379a0000000000000000000000000000000000000000000000000000000008152600401610e3690611b82565b60405180910390fd5b8060400151341015610e86576040517f08c379a0000000000000000000000000000000000000000000000000000000008152600401610e7d90611aaa565b60405180910390fd5b600160009054906101000a900473ffffffffffffffffffffffffffffffffffffffff1673ffffffffffffffffffffffffffffffffffffffff166323b872dd826000015133856040518463ffffffff1660e01b8152600401610ee993929190611c01565b600060405180830381600087803b158015610f0357600080fd5b505af1158015610f17573d6000803e3d6000fd5b50505050806000015173ffffffffffffffffffffffffffffffffffffffff166108fc60025434610f479190611c38565b9081150290604051600060405180830381858888f19350505050158015610f72573d6000803e3d6000fd5b50610f7c82611214565b600160009054906101000a900473ffffffffffffffffffffffffffffffffffffffff1673ffffffffffffffffffffffffffffffffffffffff1663846e2c43336040518263ffffffff1660e01b8152600401610fd791906117ef565b600060405180830381600087803b158015610ff157600080fd5b505af1158015611005573d6000803e3d6000fd5b50505050806000015173ffffffffffffffffffffffffffffffffffffffff163373ffffffffffffffffffffffffffffffffffffffff16837f17ce1013d920fb78658d6b2d935c6c3b03a41da037fdf4bcbf4e258e9e1da00b60405160405180910390a45050565b6000600480549050905090565b6110816114de565b600560008381526020019081526020016000206040518060600160405290816000820160009054906101000a900473ffffffffffffffffffffffffffffffffffffffff1673ffffffffffffffffffffffffffffffffffffffff1673ffffffffffffffffffffffffffffffffffffffff168152602001600182015481526020016002820154815250509050919050565b60056020528060005260406000206000915090508060000160009054906101000a900473ffffffffffffffffffffffffffffffffffffffff16908060010154908060020154905083565b60035481565b6111686109b7565b61117157600080fd5b61117a816113e8565b50565b600080600080848661118f9190611c6c565b90508681106111d3576040517f08c379a00000000000000000000000000000000000000000000000000000000081526004016111ca90611cfa565b60405180910390fd5b600085826111e19190611916565b9050878111156111ef578790505b600082826111fd9190611c38565b905082818395509550955050505093509350939050565b60056000828152602001908152602001600020600080820160006101000a81549073ffffffffffffffffffffffffffffffffffffffff021916905560018201600090556002820160009055505060005b6004805490508110156113e45781600482815481106112865761128561194a565b5b906000526020600020906003020160010154036113d757600460016004805490506112b19190611c38565b815481106112c2576112c161194a565b5b9060005260206000209060030201600482815481106112e4576112e361194a565b5b90600052602060002090600302016000820160009054906101000a900473ffffffffffffffffffffffffffffffffffffffff168160000160006101000a81548173ffffffffffffffffffffffffffffffffffffffff021916908373ffffffffffffffffffffffffffffffffffffffff1602179055506001820154816001015560028201548160020155905050600480548061138257611381611d1a565b5b6001900381819060005260206000209060030201600080820160006101000a81549073ffffffffffffffffffffffffffffffffffffffff021916905560018201600090556002820160009055505090556113e4565b8080600101915050611264565b5050565b600073ffffffffffffffffffffffffffffffffffffffff168173ffffffffffffffffffffffffffffffffffffffff160361142157600080fd5b8073ffffffffffffffffffffffffffffffffffffffff1660008054906101000a900473ffffffffffffffffffffffffffffffffffffffff1673ffffffffffffffffffffffffffffffffffffffff167f8be0079c531659141344cd1fd0a4f28419497f9722a3daafe3b4186f6b6457e060405160405180910390a3806000806101000a81548173ffffffffffffffffffffffffffffffffffffffff021916908373ffffffffffffffffffffffffffffffffffffffff16021790555050565b6040518060600160405280600073ffffffffffffffffffffffffffffffffffffffff16815260200160008152602001600081525090565b600080fd5b6000819050919050565b61152d8161151a565b811461153857600080fd5b50565b60008135905061154a81611524565b92915050565b60006020828403121561156657611565611515565b5b60006115748482850161153b565b91505092915050565b600073ffffffffffffffffffffffffffffffffffffffff82169050919050565b60006115a88261157d565b9050919050565b6115b88161159d565b82525050565b6115c78161151a565b82525050565b60006060820190506115e260008301866115af565b6115ef60208301856115be565b6115fc60408301846115be565b949350505050565b600061160f8261157d565b9050919050565b61161f81611604565b811461162a57600080fd5b50565b60008135905061163c81611616565b92915050565b60006020828403121561165857611657611515565b5b60006116668482850161162d565b91505092915050565b6000806040838503121561168657611685611515565b5b60006116948582860161153b565b92505060206116a58582860161153b565b9150509250929050565b600081519050919050565b600082825260208201905092915050565b6000819050602082019050919050565b6116e48161159d565b82525050565b6116f38161151a565b82525050565b60608201600082015161170f60008501826116db565b50602082015161172260208501826116ea565b50604082015161173560408501826116ea565b50505050565b600061174783836116f9565b60608301905092915050565b6000602082019050919050565b600061176b826116af565b61177581856116ba565b9350611780836116cb565b8060005b838110156117b1578151611798888261173b565b97506117a383611753565b925050600181019050611784565b5085935050505092915050565b600060208201905081810360008301526117d88184611760565b905092915050565b6117e981611604565b82525050565b600060208201905061180460008301846117e0565b92915050565b60008115159050919050565b61181f8161180a565b82525050565b600060208201905061183a6000830184611816565b92915050565b600060208201905061185560008301846115be565b92915050565b60608201600082015161187160008501826116db565b50602082015161188460208501826116ea565b50604082015161189760408501826116ea565b50505050565b60006060820190506118b2600083018461185b565b92915050565b7f4e487b7100000000000000000000000000000000000000000000000000000000600052604160045260246000fd5b7f4e487b7100000000000000000000000000000000000000000000000000000000600052601160045260246000fd5b60006119218261151a565b915061192c8361151a565b9250828201905080821115611944576119436118e7565b5b92915050565b7f4e487b7100000000000000000000000000000000000000000000000000000000600052603260045260246000fd5b60008151905061198881611616565b92915050565b6000602082840312156119a4576119a3611515565b5b60006119b284828501611979565b91505092915050565b600082825260208201905092915050565b7f43616e27742063616e63656c20746f2073616c652c20796f75206172656e277460008201527f207468652073656c6c6572000000000000000000000000000000000000000000602082015250565b6000611a28602b836119bb565b9150611a33826119cc565b604082019050919050565b60006020820190508181036000830152611a5781611a1b565b9050919050565b7f596f757220707269636520697320746f6f206c6f770000000000000000000000600082015250565b6000611a946015836119bb565b9150611a9f82611a5e565b602082019050919050565b60006020820190508181036000830152611ac381611a87565b9050919050565b7f5a6f6d62696520617265206e6f74206f6e2073616c6500000000000000000000600082015250565b6000611b006016836119bb565b9150611b0b82611aca565b602082019050919050565b60006020820190508181036000830152611b2f81611af3565b9050919050565b7f43616e2774206275792c20796f7520617265207468652073656c6c6572000000600082015250565b6000611b6c601d836119bb565b9150611b7782611b36565b602082019050919050565b60006020820190508181036000830152611b9b81611b5f565b9050919050565b6000819050919050565b6000611bc7611bc2611bbd8461157d565b611ba2565b61157d565b9050919050565b6000611bd982611bac565b9050919050565b6000611beb82611bce565b9050919050565b611bfb81611be0565b82525050565b6000606082019050611c166000830186611bf2565b611c2360208301856117e0565b611c3060408301846115be565b949350505050565b6000611c438261151a565b9150611c4e8361151a565b9250828203905081811115611c6657611c656118e7565b5b92915050565b6000611c778261151a565b9150611c828361151a565b9250828202611c908161151a565b91508282048414831517611ca757611ca66118e7565b5b5092915050565b7f50616765206f7574206f662072616e6765000000000000000000000000000000600082015250565b6000611ce46011836119bb565b9150611cef82611cae565b602082019050919050565b60006020820190508181036000830152611d1381611cd7565b9050919050565b7f4e487b7100000000000000000000000000000000000000000000000000000000600052603160045260246000fdfea264697066735822122069f2d38e081fadf920876b80e3741c5104101871e7cb1aaf5ec84a0a6ba2197d64736f6c634300081c0033",
  "linkReferences": {},
  "deployedLinkReferences": {}
}