{
  "_format": "hh-sol-artifact-1",
  "contractName": "CryptozombiesBattleMarket",
  "sourceName": "contracts/cryptozombiesBattleMarket/CryptozombiesBattleMarket.sol",
  "abi": [
    {
      "inputs": [
        {
          "internalType": "address",
          "name": "_cryptozombiesBattleContractAddress",
          "type": "address"
        }
      ],
      "stateMutability": "nonpayable",
      "type": "constructor"
    },
    {
      "anonymous": false,
      "inputs": [
        {
          "indexed": true,
          "internalType": "uint256",
          "name": "zombieId",
          "type": "uint256"
        },
        {
          "indexed": true,
          "internalType": "address",
          "name": "buyer",
          "type": "address"
        },
        {
          "indexed": true,
          "internalType": "address",
          "name": "seller",
          "type": "address"
        }
      ],
      "name": "BuyZombie",
      "type": "event"
    },
    {
      "anonymous": false,
      "inputs": [
        {
          "indexed": true,
          "internalType": "uint256",
          "name": "zombieId",
          "type": "uint256"
        },
        {
          "indexed": true,
          "internalType": "address",
          "name": "seller",
          "type": "address"
        }
      ],
      "name": "CancelSaleZombie",
      "type": "event"
    },
    {
      "anonymous": false,
      "inputs": [
        {
          "indexed": true,
          "internalType": "address",
          "name": "previousOwner",
          "type": "address"
        },
        {
          "indexed": true,
          "internalType": "address",
          "name": "newOwner",
          "type": "address"
        }
      ],
      "name": "OwnershipTransferred",
      "type": "event"
    },
    {
      "anonymous": false,
      "inputs": [
        {
          "indexed": true,
          "internalType": "uint256",
          "name": "zombieId",
          "type": "uint256"
        },
        {
          "indexed": true,
          "internalType": "uint256",
          "name": "price",
          "type": "uint256"
        },
        {
          "indexed": true,
          "internalType": "address",
          "name": "seller",
          "type": "address"
        }
      ],
      "name": "SaleZombie",
      "type": "event"
    },
    {
      "inputs": [],
      "name": "balance",
      "outputs": [
        {
          "internalType": "uint256",
          "name": "",
          "type": "uint256"
        }
      ],
      "stateMutability": "view",
      "type": "function"
    },
    {
      "inputs": [
        {
          "internalType": "uint256",
          "name": "zombieId",
          "type": "uint256"
        }
      ],
      "name": "buyZombie",
      "outputs": [],
      "stateMutability": "payable",
      "type": "function"
    },
    {
      "inputs": [
        {
          "internalType": "uint256",
          "name": "zombieId",
          "type": "uint256"
        }
      ],
      "name": "cancelSaleZombie",
      "outputs": [],
      "stateMutability": "nonpayable",
      "type": "function"
    },
    {
      "inputs": [
        {
          "internalType": "uint256",
          "name": "_zombieId",
          "type": "uint256"
        }
      ],
      "name": "getZombieByIdInSale",
      "outputs": [
        {
          "components": [
            {
              "internalType": "address payable",
              "name": "seller",
              "type": "address"
            },
            {
              "internalType": "uint256",
              "name": "zombieId",
              "type": "uint256"
            },
            {
              "internalType": "uint256",
              "name": "price",
              "type": "uint256"
            }
          ],
          "internalType": "struct CryptozombiesBattleMarket.ZombieSale",
          "name": "",
          "type": "tuple"
        }
      ],
      "stateMutability": "view",
      "type": "function"
    },
    {
      "inputs": [
        {
          "internalType": "uint256",
          "name": "_page",
          "type": "uint256"
        },
        {
          "internalType": "uint256",
          "name": "_pageSize",
          "type": "uint256"
        }
      ],
      "name": "getZombiesInShopPaginated",
      "outputs": [
        {
          "components": [
            {
              "internalType": "address payable",
              "name": "seller",
              "type": "address"
            },
            {
              "internalType": "uint256",
              "name": "zombieId",
              "type": "uint256"
            },
            {
              "internalType": "uint256",
              "name": "price",
              "type": "uint256"
            }
          ],
          "internalType": "struct CryptozombiesBattleMarket.ZombieSale[]",
          "name": "",
          "type": "tuple[]"
        }
      ],
      "stateMutability": "view",
      "type": "function"
    },
    {
      "inputs": [],
      "name": "getZombiesInShopTotal",
      "outputs": [
        {
          "internalType": "uint256",
          "name": "",
          "type": "uint256"
        }
      ],
      "stateMutability": "view",
      "type": "function"
    },
    {
      "inputs": [],
      "name": "isOwner",
      "outputs": [
        {
          "internalType": "bool",
          "name": "",
          "type": "bool"
        }
      ],
      "stateMutability": "view",
      "type": "function"
    },
    {
      "inputs": [],
      "name": "minPrice",
      "outputs": [
        {
          "internalType": "uint256",
          "name": "",
          "type": "uint256"
        }
      ],
      "stateMutability": "view",
      "type": "function"
    },
    {
      "inputs": [],
      "name": "owner",
      "outputs": [
        {
          "internalType": "address",
          "name": "",
          "type": "address"
        }
      ],
      "stateMutability": "view",
      "type": "function"
    },
    {
      "inputs": [],
      "name": "renounceOwnership",
      "outputs": [],
      "stateMutability": "nonpayable",
      "type": "function"
    },
    {
      "inputs": [
        {
          "internalType": "uint256",
          "name": "zombieId",
          "type": "uint256"
        },
        {
          "internalType": "uint256",
          "name": "price",
          "type": "uint256"
        }
      ],
      "name": "saleZombie",
      "outputs": [],
      "stateMutability": "nonpayable",
      "type": "function"
    },
    {
      "inputs": [
        {
          "internalType": "uint256",
          "name": "value",
          "type": "uint256"
        }
      ],
      "name": "setMinPrice",
      "outputs": [],
      "stateMutability": "nonpayable",
      "type": "function"
    },
    {
      "inputs": [
        {
          "internalType": "uint256",
          "name": "value",
          "type": "uint256"
        }
      ],
      "name": "setTax",
      "outputs": [],
      "stateMutability": "nonpayable",
      "type": "function"
    },
    {
      "inputs": [],
      "name": "tax",
      "outputs": [
        {
          "internalType": "uint256",
          "name": "",
          "type": "uint256"
        }
      ],
      "stateMutability": "view",
      "type": "function"
    },
    {
      "inputs": [
        {
          "internalType": "address",
          "name": "newOwner",
          "type": "address"
        }
      ],
      "name": "transferOwnership",
      "outputs": [],
      "stateMutability": "nonpayable",
      "type": "function"
    },
    {
      "inputs": [],
      "name": "withdraw",
      "outputs": [],
      "stateMutability": "nonpayable",
      "type": "function"
    },
    {
      "inputs": [
        {
          "internalType": "uint256",
          "name": "",
          "type": "uint256"
        }
      ],
      "name": "zombieIdToSale",
      "outputs": [
        {
          "internalType": "address payable",
          "name": "seller",
          "type": "address"
        },
        {
          "internalType": "uint256",
          "name": "zombieId",
          "type": "uint256"
        },
        {
          "internalType": "uint256",
          "name": "price",
          "type": "uint256"
        }
      ],
      "stateMutability": "view",
      "type": "function"
    },
    {
      "inputs": [
        {
          "internalType": "uint256",
          "name": "",
          "type": "uint256"
        }
      ],
      "name": "zombieSales",
      "outputs": [
        {
          "internalType": "address payable",
          "name": "seller",
          "type": "address"
        },
        {
          "internalType": "uint256",
          "name": "zombieId",
          "type": "uint256"
        },
        {
          "internalType": "uint256",
          "name": "price",
          "type": "uint256"
        }
      ],
      "stateMutability": "view",
      "type": "function"
    }
  ],
  "bytecode": "0x6080604052655af3107a4000600255655af3107a400060035534801561002457600080fd5b50604051611edd380380611edd833981810160405281019061004691906101ab565b336000806101000a81548173ffffffffffffffffffffffffffffffffffffffff021916908373ffffffffffffffffffffffffffffffffffffffff16021790555060008054906101000a900473ffffffffffffffffffffffffffffffffffffffff1673ffffffffffffffffffffffffffffffffffffffff16600073ffffffffffffffffffffffffffffffffffffffff167f8be0079c531659141344cd1fd0a4f28419497f9722a3daafe3b4186f6b6457e060405160405180910390a380600160006101000a81548173ffffffffffffffffffffffffffffffffffffffff021916908373ffffffffffffffffffffffffffffffffffffffff160217905550506101d8565b600080fd5b600073ffffffffffffffffffffffffffffffffffffffff82169050919050565b60006101788261014d565b9050919050565b6101888161016d565b811461019357600080fd5b50565b6000815190506101a58161017f565b92915050565b6000602082840312156101c1576101c0610148565b5b60006101cf84828501610196565b91505092915050565b611cf6806101e76000396000f3fe6080604052600436106101095760003560e01c806399c8d55611610095578063da6c685511610064578063da6c685514610324578063dedaee941461034f578063df20b3de1461038c578063e45be8eb146103cb578063f2fde38b146103f657610109565b806399c8d55614610289578063a527d615146102b4578063b69ef8a8146102dd578063b92e2d741461030857610109565b806362b77170116100dc57806362b77170146101b6578063715018a6146101f3578063811d13671461020a5780638da5cb5b146102335780638f32d59b1461025e57610109565b8063139746801461010e5780632e5bb6ff1461014d5780633ccfd60b146101765780635ea8cd121461018d575b600080fd5b34801561011a57600080fd5b50610135600480360381019061013091906114c7565b61041f565b60405161014493929190611544565b60405180910390f35b34801561015957600080fd5b50610174600480360381019061016f91906114c7565b610479565b005b34801561018257600080fd5b5061018b610494565b005b34801561019957600080fd5b506101b460048036038101906101af91906114c7565b6104fb565b005b3480156101c257600080fd5b506101dd60048036038101906101d8919061157b565b610516565b6040516101ea91906116ca565b60405180910390f35b3480156101ff57600080fd5b5061020861066d565b005b34801561021657600080fd5b50610231600480360381019061022c91906114c7565b61073c565b005b34801561023f57600080fd5b50610248610905565b604051610255919061170d565b60405180910390f35b34801561026a57600080fd5b5061027361092e565b6040516102809190611743565b60405180910390f35b34801561029557600080fd5b5061029e610985565b6040516102ab919061175e565b60405180910390f35b3480156102c057600080fd5b506102db60048036038101906102d6919061157b565b61098b565b005b3480156102e957600080fd5b506102f2610c2c565b6040516102ff919061175e565b60405180910390f35b610322600480360381019061031d91906114c7565b610c45565b005b34801561033057600080fd5b50610339610fe3565b604051610346919061175e565b60405180910390f35b34801561035b57600080fd5b50610376600480360381019061037191906114c7565b610ff0565b60405161038391906117bb565b60405180910390f35b34801561039857600080fd5b506103b360048036038101906103ae91906114c7565b611087565b6040516103c293929190611544565b60405180910390f35b3480156103d757600080fd5b506103e06110d1565b6040516103ed919061175e565b60405180910390f35b34801561040257600080fd5b5061041d60048036038101906104189190611802565b6110d7565b005b6004818154811061042f57600080fd5b90600052602060002090600302016000915090508060000160009054906101000a900473ffffffffffffffffffffffffffffffffffffffff16908060010154908060020154905083565b61048161092e565b61048a57600080fd5b8060028190555050565b61049c61092e565b6104a557600080fd5b60006104af610905565b90508073ffffffffffffffffffffffffffffffffffffffff166108fc479081150290604051600060405180830381858888f193505050501580156104f7573d6000803e3d6000fd5b5050565b61050361092e565b61050c57600080fd5b8060038190555050565b606060008061052b60048054905086866110f4565b509150915060008167ffffffffffffffff81111561054c5761054b61182f565b5b60405190808252806020026020018201604052801561058557816020015b610572611455565b81526020019060019003908161056a5790505b50905060005b8281101561066057600481856105a1919061188d565b815481106105b2576105b16118c1565b5b90600052602060002090600302016040518060600160405290816000820160009054906101000a900473ffffffffffffffffffffffffffffffffffffffff1673ffffffffffffffffffffffffffffffffffffffff1673ffffffffffffffffffffffffffffffffffffffff16815260200160018201548152602001600282015481525050828281518110610648576106476118c1565b5b6020026020010181905250808060010191505061058b565b5080935050505092915050565b61067561092e565b61067e57600080fd5b600073ffffffffffffffffffffffffffffffffffffffff1660008054906101000a900473ffffffffffffffffffffffffffffffffffffffff1673ffffffffffffffffffffffffffffffffffffffff167f8be0079c531659141344cd1fd0a4f28419497f9722a3daafe3b4186f6b6457e060405160405180910390a360008060006101000a81548173ffffffffffffffffffffffffffffffffffffffff021916908373ffffffffffffffffffffffffffffffffffffffff160217905550565b80600160009054906101000a900473ffffffffffffffffffffffffffffffffffffffff1673ffffffffffffffffffffffffffffffffffffffff16636352211e826040518263ffffffff1660e01b8152600401610798919061175e565b602060405180830381865afa1580156107b5573d6000803e3d6000fd5b505050506040513d601f19601f820116820180604052508101906107d99190611905565b73ffffffffffffffffffffffffffffffffffffffff163373ffffffffffffffffffffffffffffffffffffffff161461081057600080fd5b3373ffffffffffffffffffffffffffffffffffffffff166005600084815260200190815260200160002060000160009054906101000a900473ffffffffffffffffffffffffffffffffffffffff1673ffffffffffffffffffffffffffffffffffffffff16146108b4576040517f08c379a00000000000000000000000000000000000000000000000000000000081526004016108ab906119b5565b60405180910390fd5b6108bd8261118b565b3373ffffffffffffffffffffffffffffffffffffffff16827f9f63f695352607f5d8532e52458b7b194a971d563a2b360cb52fdf0c1b7cf71060405160405180910390a35050565b60008060009054906101000a900473ffffffffffffffffffffffffffffffffffffffff16905090565b60008060009054906101000a900473ffffffffffffffffffffffffffffffffffffffff1673ffffffffffffffffffffffffffffffffffffffff163373ffffffffffffffffffffffffffffffffffffffff1614905090565b60025481565b81600160009054906101000a900473ffffffffffffffffffffffffffffffffffffffff1673ffffffffffffffffffffffffffffffffffffffff16636352211e826040518263ffffffff1660e01b81526004016109e7919061175e565b602060405180830381865afa158015610a04573d6000803e3d6000fd5b505050506040513d601f19601f82011682018060405250810190610a289190611905565b73ffffffffffffffffffffffffffffffffffffffff163373ffffffffffffffffffffffffffffffffffffffff1614610a5f57600080fd5b600354600254610a6f919061188d565b821015610ab1576040517f08c379a0000000000000000000000000000000000000000000000000000000008152600401610aa890611a21565b60405180910390fd5b600060405180606001604052803373ffffffffffffffffffffffffffffffffffffffff168152602001858152602001848152509050806005600086815260200190815260200160002060008201518160000160006101000a81548173ffffffffffffffffffffffffffffffffffffffff021916908373ffffffffffffffffffffffffffffffffffffffff1602179055506020820151816001015560408201518160020155905050600481908060018154018082558091505060019003906000526020600020906003020160009091909190915060008201518160000160006101000a81548173ffffffffffffffffffffffffffffffffffffffff021916908373ffffffffffffffffffffffffffffffffffffffff160217905550602082015181600101556040820151816002015550503373ffffffffffffffffffffffffffffffffffffffff1683857f423c789d4ebac5f7edf9bb0afb63074cf8d0ea0f7951b46e8f148abeaa8a72cb60405160405180910390a450505050565b6000610c3661092e565b610c3f57600080fd5b47905090565b6000600560008381526020019081526020016000206040518060600160405290816000820160009054906101000a900473ffffffffffffffffffffffffffffffffffffffff1673ffffffffffffffffffffffffffffffffffffffff1673ffffffffffffffffffffffffffffffffffffffff168152602001600182015481526020016002820154815250509050806000015173ffffffffffffffffffffffffffffffffffffffff16600073ffffffffffffffffffffffffffffffffffffffff1603610d44576040517f08c379a0000000000000000000000000000000000000000000000000000000008152600401610d3b90611a8d565b60405180910390fd5b806000015173ffffffffffffffffffffffffffffffffffffffff163373ffffffffffffffffffffffffffffffffffffffff1603610db6576040517f08c379a0000000000000000000000000000000000000000000000000000000008152600401610dad90611af9565b60405180910390fd5b8060400151341015610dfd576040517f08c379a0000000000000000000000000000000000000000000000000000000008152600401610df490611a21565b60405180910390fd5b600160009054906101000a900473ffffffffffffffffffffffffffffffffffffffff1673ffffffffffffffffffffffffffffffffffffffff166323b872dd826000015133856040518463ffffffff1660e01b8152600401610e6093929190611b78565b600060405180830381600087803b158015610e7a57600080fd5b505af1158015610e8e573d6000803e3d6000fd5b50505050806000015173ffffffffffffffffffffffffffffffffffffffff166108fc60025434610ebe9190611baf565b9081150290604051600060405180830381858888f19350505050158015610ee9573d6000803e3d6000fd5b50610ef38261118b565b600160009054906101000a900473ffffffffffffffffffffffffffffffffffffffff1673ffffffffffffffffffffffffffffffffffffffff1663846e2c43336040518263ffffffff1660e01b8152600401610f4e919061170d565b600060405180830381600087803b158015610f6857600080fd5b505af1158015610f7c573d6000803e3d6000fd5b50505050806000015173ffffffffffffffffffffffffffffffffffffffff163373ffffffffffffffffffffffffffffffffffffffff16837f17ce1013d920fb78658d6b2d935c6c3b03a41da037fdf4bcbf4e258e9e1da00b60405160405180910390a45050565b6000600480549050905090565b610ff8611455565b600560008381526020019081526020016000206040518060600160405290816000820160009054906101000a900473ffffffffffffffffffffffffffffffffffffffff1673ffffffffffffffffffffffffffffffffffffffff1673ffffffffffffffffffffffffffffffffffffffff168152602001600182015481526020016002820154815250509050919050565b60056020528060005260406000206000915090508060000160009054906101000a900473ffffffffffffffffffffffffffffffffffffffff16908060010154908060020154905083565b60035481565b6110df61092e565b6110e857600080fd5b6110f18161135f565b50565b60008060008084866111069190611be3565b905086811061114a576040517f08c379a000000000000000000000000000000000000000000000000000000000815260040161114190611c71565b60405180910390fd5b60008582611158919061188d565b905087811115611166578790505b600082826111749190611baf565b905082818395509550955050505093509350939050565b60056000828152602001908152602001600020600080820160006101000a81549073ffffffffffffffffffffffffffffffffffffffff021916905560018201600090556002820160009055505060005b60048054905081101561135b5781600482815481106111fd576111fc6118c1565b5b9060005260206000209060030201600101540361134e57600460016004805490506112289190611baf565b81548110611239576112386118c1565b5b90600052602060002090600302016004828154811061125b5761125a6118c1565b5b90600052602060002090600302016000820160009054906101000a900473ffffffffffffffffffffffffffffffffffffffff168160000160006101000a81548173ffffffffffffffffffffffffffffffffffffffff021916908373ffffffffffffffffffffffffffffffffffffffff160217905550600182015481600101556002820154816002015590505060048054806112f9576112f8611c91565b5b6001900381819060005260206000209060030201600080820160006101000a81549073ffffffffffffffffffffffffffffffffffffffff0219169055600182016000905560028201600090555050905561135b565b80806001019150506111db565b5050565b600073ffffffffffffffffffffffffffffffffffffffff168173ffffffffffffffffffffffffffffffffffffffff160361139857600080fd5b8073ffffffffffffffffffffffffffffffffffffffff1660008054906101000a900473ffffffffffffffffffffffffffffffffffffffff1673ffffffffffffffffffffffffffffffffffffffff167f8be0079c531659141344cd1fd0a4f28419497f9722a3daafe3b4186f6b6457e060405160405180910390a3806000806101000a81548173ffffffffffffffffffffffffffffffffffffffff021916908373ffffffffffffffffffffffffffffffffffffffff16021790555050565b6040518060600160405280600073ffffffffffffffffffffffffffffffffffffffff16815260200160008152602001600081525090565b600080fd5b6000819050919050565b6114a481611491565b81146114af57600080fd5b50565b6000813590506114c18161149b565b92915050565b6000602082840312156114dd576114dc61148c565b5b60006114eb848285016114b2565b91505092915050565b600073ffffffffffffffffffffffffffffffffffffffff82169050919050565b600061151f826114f4565b9050919050565b61152f81611514565b82525050565b61153e81611491565b82525050565b60006060820190506115596000830186611526565b6115666020830185611535565b6115736040830184611535565b949350505050565b600080604083850312156115925761159161148c565b5b60006115a0858286016114b2565b92505060206115b1858286016114b2565b9150509250929050565b600081519050919050565b600082825260208201905092915050565b6000819050602082019050919050565b6115f081611514565b82525050565b6115ff81611491565b82525050565b60608201600082015161161b60008501826115e7565b50602082015161162e60208501826115f6565b50604082015161164160408501826115f6565b50505050565b60006116538383611605565b60608301905092915050565b6000602082019050919050565b6000611677826115bb565b61168181856115c6565b935061168c836115d7565b8060005b838110156116bd5781516116a48882611647565b97506116af8361165f565b925050600181019050611690565b5085935050505092915050565b600060208201905081810360008301526116e4818461166c565b905092915050565b60006116f7826114f4565b9050919050565b611707816116ec565b82525050565b600060208201905061172260008301846116fe565b92915050565b60008115159050919050565b61173d81611728565b82525050565b60006020820190506117586000830184611734565b92915050565b60006020820190506117736000830184611535565b92915050565b60608201600082015161178f60008501826115e7565b5060208201516117a260208501826115f6565b5060408201516117b560408501826115f6565b50505050565b60006060820190506117d06000830184611779565b92915050565b6117df816116ec565b81146117ea57600080fd5b50565b6000813590506117fc816117d6565b92915050565b6000602082840312156118185761181761148c565b5b6000611826848285016117ed565b91505092915050565b7f4e487b7100000000000000000000000000000000000000000000000000000000600052604160045260246000fd5b7f4e487b7100000000000000000000000000000000000000000000000000000000600052601160045260246000fd5b600061189882611491565b91506118a383611491565b92508282019050808211156118bb576118ba61185e565b5b92915050565b7f4e487b7100000000000000000000000000000000000000000000000000000000600052603260045260246000fd5b6000815190506118ff816117d6565b92915050565b60006020828403121561191b5761191a61148c565b5b6000611929848285016118f0565b91505092915050565b600082825260208201905092915050565b7f43616e27742063616e63656c20746f2073616c652c20796f75206172656e277460008201527f207468652073656c6c6572000000000000000000000000000000000000000000602082015250565b600061199f602b83611932565b91506119aa82611943565b604082019050919050565b600060208201905081810360008301526119ce81611992565b9050919050565b7f596f757220707269636520697320746f6f206c6f770000000000000000000000600082015250565b6000611a0b601583611932565b9150611a16826119d5565b602082019050919050565b60006020820190508181036000830152611a3a816119fe565b9050919050565b7f5a6f6d62696520617265206e6f74206f6e2073616c6500000000000000000000600082015250565b6000611a77601683611932565b9150611a8282611a41565b602082019050919050565b60006020820190508181036000830152611aa681611a6a565b9050919050565b7f43616e2774206275792c20796f7520617265207468652073656c6c6572000000600082015250565b6000611ae3601d83611932565b9150611aee82611aad565b602082019050919050565b60006020820190508181036000830152611b1281611ad6565b9050919050565b6000819050919050565b6000611b3e611b39611b34846114f4565b611b19565b6114f4565b9050919050565b6000611b5082611b23565b9050919050565b6000611b6282611b45565b9050919050565b611b7281611b57565b82525050565b6000606082019050611b8d6000830186611b69565b611b9a60208301856116fe565b611ba76040830184611535565b949350505050565b6000611bba82611491565b9150611bc583611491565b9250828203905081811115611bdd57611bdc61185e565b5b92915050565b6000611bee82611491565b9150611bf983611491565b9250828202611c0781611491565b91508282048414831517611c1e57611c1d61185e565b5b5092915050565b7f50616765206f7574206f662072616e6765000000000000000000000000000000600082015250565b6000611c5b601183611932565b9150611c6682611c25565b602082019050919050565b60006020820190508181036000830152611c8a81611c4e565b9050919050565b7f4e487b7100000000000000000000000000000000000000000000000000000000600052603160045260246000fdfea26469706673582212201b8a35af0364a0317f84a63e15a4bd91313ccd2ea227ed64b75772835620b0b864736f6c634300081c0033",
  "linkReferences": {},
  "deployedLinkReferences": {}
}