{
  "_format": "hh-sol-artifact-1",
  "contractName": "CryptoZombiesRanking",
  "sourceName": "contracts/cryptoZombiesRanking/CryptoZombiesRanking.sol",
  "abi": [
    {
      "inputs": [
        {
          "internalType": "address",
          "name": "_cryptoZombiesContractAddress",
          "type": "address"
        }
      ],
      "stateMutability": "nonpayable",
      "type": "constructor"
    },
    {
      "anonymous": false,
      "inputs": [
        {
          "indexed": true,
          "internalType": "address",
          "name": "previousOwner",
          "type": "address"
        },
        {
          "indexed": true,
          "internalType": "address",
          "name": "newOwner",
          "type": "address"
        }
      ],
      "name": "OwnershipTransferred",
      "type": "event"
    },
    {
      "inputs": [],
      "name": "getRanking",
      "outputs": [
        {
          "components": [
            {
              "internalType": "address",
              "name": "account",
              "type": "address"
            },
            {
              "internalType": "uint256",
              "name": "position",
              "type": "uint256"
            },
            {
              "internalType": "uint256",
              "name": "score",
              "type": "uint256"
            },
            {
              "internalType": "uint256",
              "name": "zombieCount",
              "type": "uint256"
            },
            {
              "internalType": "uint16",
              "name": "winCount",
              "type": "uint16"
            },
            {
              "internalType": "uint16",
              "name": "lossCount",
              "type": "uint16"
            }
          ],
          "internalType": "struct CryptoZombiesRanking.Ranking[]",
          "name": "",
          "type": "tuple[]"
        }
      ],
      "stateMutability": "view",
      "type": "function"
    },
    {
      "inputs": [],
      "name": "isOwner",
      "outputs": [
        {
          "internalType": "bool",
          "name": "",
          "type": "bool"
        }
      ],
      "stateMutability": "view",
      "type": "function"
    },
    {
      "inputs": [],
      "name": "owner",
      "outputs": [
        {
          "internalType": "address",
          "name": "",
          "type": "address"
        }
      ],
      "stateMutability": "view",
      "type": "function"
    },
    {
      "inputs": [],
      "name": "renounceOwnership",
      "outputs": [],
      "stateMutability": "nonpayable",
      "type": "function"
    },
    {
      "inputs": [
        {
          "internalType": "address",
          "name": "_address",
          "type": "address"
        }
      ],
      "name": "setCryptoZombiesContractAddress",
      "outputs": [],
      "stateMutability": "nonpayable",
      "type": "function"
    },
    {
      "inputs": [
        {
          "internalType": "address",
          "name": "newOwner",
          "type": "address"
        }
      ],
      "name": "transferOwnership",
      "outputs": [],
      "stateMutability": "nonpayable",
      "type": "function"
    }
  ],
  "bytecode": "0x608060405234801561001057600080fd5b506040516116d13803806116d183398181016040528101906100329190610197565b336000806101000a81548173ffffffffffffffffffffffffffffffffffffffff021916908373ffffffffffffffffffffffffffffffffffffffff16021790555060008054906101000a900473ffffffffffffffffffffffffffffffffffffffff1673ffffffffffffffffffffffffffffffffffffffff16600073ffffffffffffffffffffffffffffffffffffffff167f8be0079c531659141344cd1fd0a4f28419497f9722a3daafe3b4186f6b6457e060405160405180910390a380600160006101000a81548173ffffffffffffffffffffffffffffffffffffffff021916908373ffffffffffffffffffffffffffffffffffffffff160217905550506101c4565b600080fd5b600073ffffffffffffffffffffffffffffffffffffffff82169050919050565b600061016482610139565b9050919050565b61017481610159565b811461017f57600080fd5b50565b6000815190506101918161016b565b92915050565b6000602082840312156101ad576101ac610134565b5b60006101bb84828501610182565b91505092915050565b6114fe806101d36000396000f3fe608060405234801561001057600080fd5b50600436106100625760003560e01c80631398bbf714610067578063715018a6146100855780638da5cb5b1461008f5780638f32d59b146100ad578063f2fde38b146100cb578063f4897ac3146100e7575b600080fd5b61006f610103565b60405161007c9190610ce9565b60405180910390f35b61008d61073f565b005b61009761080e565b6040516100a49190610d1a565b60405180910390f35b6100b5610837565b6040516100c29190610d50565b60405180910390f35b6100e560048036038101906100e09190610dab565b61088e565b005b61010160048036038101906100fc9190610dab565b6108ab565b005b606060003390506000600160009054906101000a900473ffffffffffffffffffffffffffffffffffffffff1673ffffffffffffffffffffffffffffffffffffffff16638a48ac036040518163ffffffff1660e01b8152600401600060405180830381865afa158015610179573d6000803e3d6000fd5b505050506040513d6000823e3d601f19601f820116820180604052508101906101a29190610f46565b905060008151905060008167ffffffffffffffff8111156101c6576101c5610dee565b5b6040519080825280602002602001820160405280156101ff57816020015b6101ec610af4565b8152602001906001900390816101e45790505b50905060006014905060005b8381101561049457600085828151811061022857610227610f8f565b5b602002602001015190506000600160009054906101000a900473ffffffffffffffffffffffffffffffffffffffff1673ffffffffffffffffffffffffffffffffffffffff16634412e104836040518263ffffffff1660e01b815260040161028f9190610d1a565b600060405180830381865afa1580156102ac573d6000803e3d6000fd5b505050506040513d6000823e3d601f19601f820116820180604052508101906102d591906110ad565b90506000806000805b8451811015610417576000806000600160009054906101000a900473ffffffffffffffffffffffffffffffffffffffff1673ffffffffffffffffffffffffffffffffffffffff16632052465e89868151811061033d5761033c610f8f565b5b60200260200101516040518263ffffffff1660e01b81526004016103619190611105565b600060405180830381865afa15801561037e573d6000803e3d6000fd5b505050506040513d6000823e3d601f19601f820116820180604052508101906103a79190611258565b90919293949596979850909192939495969750909192939495509091929394509091929350909192505080935081945082955050505082876103e99190611382565b965081866103f791906113b6565b9550808561040591906113b6565b945050505080806001019150506102de565b506040518060c001604052808673ffffffffffffffffffffffffffffffffffffffff168152602001878152602001848152602001855181526020018361ffff1681526020018261ffff1681525088878151811061047757610476610f8f565b5b60200260200101819052505050505050808060010191505061020b565b5061049e82610900565b50808251116104b457819550505050505061073c565b60008167ffffffffffffffff8111156104d0576104cf610dee565b5b60405190808252806020026020018201604052801561050957816020015b6104f6610af4565b8152602001906001900390816104ee5790505b50905060008060028461051c919061141b565b905060005b8181101561057b5785818151811061053c5761053b610f8f565b5b60200260200101518484806105509061144c565b95508151811061056357610562610f8f565b5b60200260200101819052508080600101915050610521565b50600060018561058b9190611382565b876105969190611494565b905060008190505b87811080156105ac57508584105b15610609578681815181106105c4576105c3610f8f565b5b60200260200101518585806105d89061144c565b9650815181106105eb576105ea610f8f565b5b602002602001018190525080806106019061144c565b91505061059e565b506000805b8481101561067d578a73ffffffffffffffffffffffffffffffffffffffff168682815181106106405761063f610f8f565b5b60200260200101516000015173ffffffffffffffffffffffffffffffffffffffff1603610670576001915061067d565b808060010191505061060e565b508061072e5760005b875181101561072c578a73ffffffffffffffffffffffffffffffffffffffff168882815181106106b9576106b8610f8f565b5b60200260200101516000015173ffffffffffffffffffffffffffffffffffffffff160361071f578781815181106106f3576106f2610f8f565b5b602002602001015186600a8151811061070f5761070e610f8f565b5b602002602001018190525061072c565b8080600101915050610686565b505b849a50505050505050505050505b90565b610747610837565b61075057600080fd5b600073ffffffffffffffffffffffffffffffffffffffff1660008054906101000a900473ffffffffffffffffffffffffffffffffffffffff1673ffffffffffffffffffffffffffffffffffffffff167f8be0079c531659141344cd1fd0a4f28419497f9722a3daafe3b4186f6b6457e060405160405180910390a360008060006101000a81548173ffffffffffffffffffffffffffffffffffffffff021916908373ffffffffffffffffffffffffffffffffffffffff160217905550565b60008060009054906101000a900473ffffffffffffffffffffffffffffffffffffffff16905090565b60008060009054906101000a900473ffffffffffffffffffffffffffffffffffffffff1673ffffffffffffffffffffffffffffffffffffffff163373ffffffffffffffffffffffffffffffffffffffff1614905090565b610896610837565b61089f57600080fd5b6108a8816109fe565b50565b6108b3610837565b6108bc57600080fd5b80600160006101000a81548173ffffffffffffffffffffffffffffffffffffffff021916908373ffffffffffffffffffffffffffffffffffffffff16021790555050565b60606000600190505b82518110156109f55760005b818110156109e7578381815181106109305761092f610f8f565b5b60200260200101516040015184838151811061094f5761094e610f8f565b5b60200260200101516040015110156109da57600084838151811061097657610975610f8f565b5b6020026020010151905084828151811061099357610992610f8f565b5b60200260200101518584815181106109ae576109ad610f8f565b5b6020026020010181905250808583815181106109cd576109cc610f8f565b5b6020026020010181905250505b8080600101915050610915565b508080600101915050610909565b50819050919050565b600073ffffffffffffffffffffffffffffffffffffffff168173ffffffffffffffffffffffffffffffffffffffff1603610a3757600080fd5b8073ffffffffffffffffffffffffffffffffffffffff1660008054906101000a900473ffffffffffffffffffffffffffffffffffffffff1673ffffffffffffffffffffffffffffffffffffffff167f8be0079c531659141344cd1fd0a4f28419497f9722a3daafe3b4186f6b6457e060405160405180910390a3806000806101000a81548173ffffffffffffffffffffffffffffffffffffffff021916908373ffffffffffffffffffffffffffffffffffffffff16021790555050565b6040518060c00160405280600073ffffffffffffffffffffffffffffffffffffffff168152602001600081526020016000815260200160008152602001600061ffff168152602001600061ffff1681525090565b600081519050919050565b600082825260208201905092915050565b6000819050602082019050919050565b600073ffffffffffffffffffffffffffffffffffffffff82169050919050565b6000610b9f82610b74565b9050919050565b610baf81610b94565b82525050565b6000819050919050565b610bc881610bb5565b82525050565b600061ffff82169050919050565b610be581610bce565b82525050565b60c082016000820151610c016000850182610ba6565b506020820151610c146020850182610bbf565b506040820151610c276040850182610bbf565b506060820151610c3a6060850182610bbf565b506080820151610c4d6080850182610bdc565b5060a0820151610c6060a0850182610bdc565b50505050565b6000610c728383610beb565b60c08301905092915050565b6000602082019050919050565b6000610c9682610b48565b610ca08185610b53565b9350610cab83610b64565b8060005b83811015610cdc578151610cc38882610c66565b9750610cce83610c7e565b925050600181019050610caf565b5085935050505092915050565b60006020820190508181036000830152610d038184610c8b565b905092915050565b610d1481610b94565b82525050565b6000602082019050610d2f6000830184610d0b565b92915050565b60008115159050919050565b610d4a81610d35565b82525050565b6000602082019050610d656000830184610d41565b92915050565b6000604051905090565b600080fd5b600080fd5b610d8881610b94565b8114610d9357600080fd5b50565b600081359050610da581610d7f565b92915050565b600060208284031215610dc157610dc0610d75565b5b6000610dcf84828501610d96565b91505092915050565b600080fd5b6000601f19601f8301169050919050565b7f4e487b7100000000000000000000000000000000000000000000000000000000600052604160045260246000fd5b610e2682610ddd565b810181811067ffffffffffffffff82111715610e4557610e44610dee565b5b80604052505050565b6000610e58610d6b565b9050610e648282610e1d565b919050565b600067ffffffffffffffff821115610e8457610e83610dee565b5b602082029050602081019050919050565b600080fd5b600081519050610ea981610d7f565b92915050565b6000610ec2610ebd84610e69565b610e4e565b90508083825260208201905060208402830185811115610ee557610ee4610e95565b5b835b81811015610f0e5780610efa8882610e9a565b845260208401935050602081019050610ee7565b5050509392505050565b600082601f830112610f2d57610f2c610dd8565b5b8151610f3d848260208601610eaf565b91505092915050565b600060208284031215610f5c57610f5b610d75565b5b600082015167ffffffffffffffff811115610f7a57610f79610d7a565b5b610f8684828501610f18565b91505092915050565b7f4e487b7100000000000000000000000000000000000000000000000000000000600052603260045260246000fd5b600067ffffffffffffffff821115610fd957610fd8610dee565b5b602082029050602081019050919050565b610ff381610bb5565b8114610ffe57600080fd5b50565b60008151905061101081610fea565b92915050565b600061102961102484610fbe565b610e4e565b9050808382526020820190506020840283018581111561104c5761104b610e95565b5b835b8181101561107557806110618882611001565b84526020840193505060208101905061104e565b5050509392505050565b600082601f83011261109457611093610dd8565b5b81516110a4848260208601611016565b91505092915050565b6000602082840312156110c3576110c2610d75565b5b600082015167ffffffffffffffff8111156110e1576110e0610d7a565b5b6110ed8482850161107f565b91505092915050565b6110ff81610bb5565b82525050565b600060208201905061111a60008301846110f6565b92915050565b600080fd5b600067ffffffffffffffff8211156111405761113f610dee565b5b61114982610ddd565b9050602081019050919050565b60005b83811015611174578082015181840152602081019050611159565b60008484015250505050565b600061119361118e84611125565b610e4e565b9050828152602081018484840111156111af576111ae611120565b5b6111ba848285611156565b509392505050565b600082601f8301126111d7576111d6610dd8565b5b81516111e7848260208601611180565b91505092915050565b600063ffffffff82169050919050565b611209816111f0565b811461121457600080fd5b50565b60008151905061122681611200565b92915050565b61123581610bce565b811461124057600080fd5b50565b6000815190506112528161122c565b92915050565b6000806000806000806000806000806101408b8d03121561127c5761127b610d75565b5b60008b015167ffffffffffffffff81111561129a57611299610d7a565b5b6112a68d828e016111c2565b9a505060206112b78d828e01611001565b99505060406112c88d828e01611001565b98505060606112d98d828e01611217565b97505060806112ea8d828e01611217565b96505060a06112fb8d828e01611217565b95505060c061130c8d828e01611217565b94505060e061131d8d828e01611243565b93505061010061132f8d828e01611243565b9250506101206113418d828e01611243565b9150509295989b9194979a5092959850565b7f4e487b7100000000000000000000000000000000000000000000000000000000600052601160045260246000fd5b600061138d82610bb5565b915061139883610bb5565b92508282019050808211156113b0576113af611353565b5b92915050565b60006113c182610bce565b91506113cc83610bce565b9250828201905061ffff8111156113e6576113e5611353565b5b92915050565b7f4e487b7100000000000000000000000000000000000000000000000000000000600052601260045260246000fd5b600061142682610bb5565b915061143183610bb5565b925082611441576114406113ec565b5b828204905092915050565b600061145782610bb5565b91507fffffffffffffffffffffffffffffffffffffffffffffffffffffffffffffffff820361148957611488611353565b5b600182019050919050565b600061149f82610bb5565b91506114aa83610bb5565b92508282039050818111156114c2576114c1611353565b5b9291505056fea26469706673582212204e4fea2dd4b80315c4b3c1c386f798434c2726578b1c1936a1444a2d4a89610e64736f6c634300081c0033",
  "linkReferences": {},
  "deployedLinkReferences": {}
}