{
  "_format": "hh-sol-artifact-1",
  "contractName": "CryptoZombies",
  "sourceName": "contracts/cryptoZombies/CryptoZombies.sol",
  "abi": [
    {
      "anonymous": false,
      "inputs": [
        {
          "indexed": true,
          "internalType": "address",
          "name": "_owner",
          "type": "address"
        },
        {
          "indexed": true,
          "internalType": "address",
          "name": "_approved",
          "type": "address"
        },
        {
          "indexed": true,
          "internalType": "uint256",
          "name": "_tokenId",
          "type": "uint256"
        }
      ],
      "name": "Approval",
      "type": "event"
    },
    {
      "anonymous": false,
      "inputs": [
        {
          "indexed": true,
          "internalType": "uint256",
          "name": "zombieId",
          "type": "uint256"
        },
        {
          "indexed": true,
          "internalType": "address",
          "name": "buyer",
          "type": "address"
        },
        {
          "indexed": true,
          "internalType": "address",
          "name": "seller",
          "type": "address"
        }
      ],
      "name": "BuyZombie",
      "type": "event"
    },
    {
      "anonymous": false,
      "inputs": [
        {
          "indexed": true,
          "internalType": "uint256",
          "name": "zombieId",
          "type": "uint256"
        },
        {
          "indexed": true,
          "internalType": "address",
          "name": "seller",
          "type": "address"
        }
      ],
      "name": "CancelSaleZombie",
      "type": "event"
    },
    {
      "anonymous": false,
      "inputs": [
        {
          "indexed": true,
          "internalType": "address",
          "name": "from",
          "type": "address"
        },
        {
          "indexed": true,
          "internalType": "uint256",
          "name": "zombieId",
          "type": "uint256"
        },
        {
          "indexed": false,
          "internalType": "string",
          "name": "name",
          "type": "string"
        },
        {
          "indexed": false,
          "internalType": "uint256",
          "name": "dna",
          "type": "uint256"
        }
      ],
      "name": "NewZombie",
      "type": "event"
    },
    {
      "anonymous": false,
      "inputs": [
        {
          "indexed": true,
          "internalType": "address",
          "name": "previousOwner",
          "type": "address"
        },
        {
          "indexed": true,
          "internalType": "address",
          "name": "newOwner",
          "type": "address"
        }
      ],
      "name": "OwnershipTransferred",
      "type": "event"
    },
    {
      "anonymous": false,
      "inputs": [
        {
          "indexed": true,
          "internalType": "uint256",
          "name": "zombieId",
          "type": "uint256"
        },
        {
          "indexed": true,
          "internalType": "uint256",
          "name": "price",
          "type": "uint256"
        },
        {
          "indexed": true,
          "internalType": "address",
          "name": "seller",
          "type": "address"
        }
      ],
      "name": "SaleZombie",
      "type": "event"
    },
    {
      "anonymous": false,
      "inputs": [
        {
          "indexed": true,
          "internalType": "address",
          "name": "_from",
          "type": "address"
        },
        {
          "indexed": true,
          "internalType": "address",
          "name": "_to",
          "type": "address"
        },
        {
          "indexed": true,
          "internalType": "uint256",
          "name": "_tokenId",
          "type": "uint256"
        }
      ],
      "name": "Transfer",
      "type": "event"
    },
    {
      "anonymous": false,
      "inputs": [
        {
          "indexed": true,
          "internalType": "address",
          "name": "from",
          "type": "address"
        },
        {
          "indexed": false,
          "internalType": "uint256",
          "name": "fromId",
          "type": "uint256"
        },
        {
          "indexed": false,
          "internalType": "uint256",
          "name": "targetId",
          "type": "uint256"
        }
      ],
      "name": "onAttackDefeat",
      "type": "event"
    },
    {
      "anonymous": false,
      "inputs": [
        {
          "indexed": true,
          "internalType": "address",
          "name": "from",
          "type": "address"
        },
        {
          "indexed": false,
          "internalType": "uint256",
          "name": "fromId",
          "type": "uint256"
        },
        {
          "indexed": false,
          "internalType": "uint256",
          "name": "targetId",
          "type": "uint256"
        },
        {
          "indexed": false,
          "internalType": "uint256",
          "name": "newDna",
          "type": "uint256"
        }
      ],
      "name": "onAttackVitory",
      "type": "event"
    },
    {
      "anonymous": false,
      "inputs": [
        {
          "indexed": true,
          "internalType": "address",
          "name": "from",
          "type": "address"
        },
        {
          "indexed": false,
          "internalType": "uint256",
          "name": "fromDna",
          "type": "uint256"
        },
        {
          "indexed": false,
          "internalType": "uint256",
          "name": "targetDna",
          "type": "uint256"
        },
        {
          "indexed": false,
          "internalType": "uint256",
          "name": "_kittyId",
          "type": "uint256"
        },
        {
          "indexed": false,
          "internalType": "uint256",
          "name": "newDna",
          "type": "uint256"
        }
      ],
      "name": "onFeed",
      "type": "event"
    },
    {
      "inputs": [
        {
          "internalType": "uint256",
          "name": "",
          "type": "uint256"
        }
      ],
      "name": "accounts",
      "outputs": [
        {
          "internalType": "address",
          "name": "",
          "type": "address"
        }
      ],
      "stateMutability": "view",
      "type": "function"
    },
    {
      "inputs": [
        {
          "internalType": "address",
          "name": "_approved",
          "type": "address"
        },
        {
          "internalType": "uint256",
          "name": "_tokenId",
          "type": "uint256"
        }
      ],
      "name": "approve",
      "outputs": [],
      "stateMutability": "payable",
      "type": "function"
    },
    {
      "inputs": [
        {
          "internalType": "uint256",
          "name": "_zombieId",
          "type": "uint256"
        },
        {
          "internalType": "uint256",
          "name": "_targetId",
          "type": "uint256"
        }
      ],
      "name": "attack",
      "outputs": [],
      "stateMutability": "nonpayable",
      "type": "function"
    },
    {
      "inputs": [],
      "name": "balance",
      "outputs": [
        {
          "internalType": "uint256",
          "name": "",
          "type": "uint256"
        }
      ],
      "stateMutability": "view",
      "type": "function"
    },
    {
      "inputs": [
        {
          "internalType": "address",
          "name": "_owner",
          "type": "address"
        }
      ],
      "name": "balanceOf",
      "outputs": [
        {
          "internalType": "uint256",
          "name": "",
          "type": "uint256"
        }
      ],
      "stateMutability": "view",
      "type": "function"
    },
    {
      "inputs": [],
      "name": "baseUrlTokenURI",
      "outputs": [
        {
          "internalType": "string",
          "name": "",
          "type": "string"
        }
      ],
      "stateMutability": "view",
      "type": "function"
    },
    {
      "inputs": [
        {
          "internalType": "uint256",
          "name": "zombieId",
          "type": "uint256"
        }
      ],
      "name": "buyZombie",
      "outputs": [],
      "stateMutability": "payable",
      "type": "function"
    },
    {
      "inputs": [
        {
          "internalType": "uint256",
          "name": "zombieId",
          "type": "uint256"
        }
      ],
      "name": "cancelSaleZombie",
      "outputs": [],
      "stateMutability": "nonpayable",
      "type": "function"
    },
    {
      "inputs": [],
      "name": "changeDNAFee",
      "outputs": [
        {
          "internalType": "uint256",
          "name": "",
          "type": "uint256"
        }
      ],
      "stateMutability": "view",
      "type": "function"
    },
    {
      "inputs": [
        {
          "internalType": "uint256",
          "name": "_zombieId",
          "type": "uint256"
        },
        {
          "internalType": "uint256",
          "name": "_newDna",
          "type": "uint256"
        }
      ],
      "name": "changeDna",
      "outputs": [],
      "stateMutability": "payable",
      "type": "function"
    },
    {
      "inputs": [
        {
          "internalType": "uint256",
          "name": "_zombieId",
          "type": "uint256"
        },
        {
          "internalType": "string",
          "name": "_newName",
          "type": "string"
        }
      ],
      "name": "changeName",
      "outputs": [],
      "stateMutability": "payable",
      "type": "function"
    },
    {
      "inputs": [],
      "name": "changeNameFee",
      "outputs": [
        {
          "internalType": "uint256",
          "name": "",
          "type": "uint256"
        }
      ],
      "stateMutability": "view",
      "type": "function"
    },
    {
      "inputs": [],
      "name": "cooldownTimeAttack",
      "outputs": [
        {
          "internalType": "uint256",
          "name": "",
          "type": "uint256"
        }
      ],
      "stateMutability": "view",
      "type": "function"
    },
    {
      "inputs": [],
      "name": "cooldownTimeFeeding",
      "outputs": [
        {
          "internalType": "uint256",
          "name": "",
          "type": "uint256"
        }
      ],
      "stateMutability": "view",
      "type": "function"
    },
    {
      "inputs": [
        {
          "internalType": "uint256",
          "name": "_zombieId",
          "type": "uint256"
        },
        {
          "internalType": "uint256",
          "name": "_kittyDna",
          "type": "uint256"
        },
        {
          "internalType": "uint256",
          "name": "_kittyId",
          "type": "uint256"
        }
      ],
      "name": "feedOnKitty",
      "outputs": [],
      "stateMutability": "nonpayable",
      "type": "function"
    },
    {
      "inputs": [],
      "name": "getAccounts",
      "outputs": [
        {
          "internalType": "address[]",
          "name": "",
          "type": "address[]"
        }
      ],
      "stateMutability": "view",
      "type": "function"
    },
    {
      "inputs": [],
      "name": "getAllZombiesInShop",
      "outputs": [
        {
          "components": [
            {
              "internalType": "address payable",
              "name": "seller",
              "type": "address"
            },
            {
              "internalType": "uint256",
              "name": "zombieId",
              "type": "uint256"
            },
            {
              "internalType": "uint256",
              "name": "price",
              "type": "uint256"
            }
          ],
          "internalType": "struct ZombieMarket.ZombieSale[]",
          "name": "",
          "type": "tuple[]"
        }
      ],
      "stateMutability": "view",
      "type": "function"
    },
    {
      "inputs": [
        {
          "internalType": "address",
          "name": "_owner",
          "type": "address"
        }
      ],
      "name": "getZombiesByOwner",
      "outputs": [
        {
          "internalType": "uint256[]",
          "name": "",
          "type": "uint256[]"
        }
      ],
      "stateMutability": "view",
      "type": "function"
    },
    {
      "inputs": [
        {
          "internalType": "uint256",
          "name": "_zombieId",
          "type": "uint256"
        }
      ],
      "name": "hasZombieInShop",
      "outputs": [
        {
          "internalType": "bool",
          "name": "",
          "type": "bool"
        }
      ],
      "stateMutability": "view",
      "type": "function"
    },
    {
      "inputs": [],
      "name": "isOwner",
      "outputs": [
        {
          "internalType": "bool",
          "name": "",
          "type": "bool"
        }
      ],
      "stateMutability": "view",
      "type": "function"
    },
    {
      "inputs": [
        {
          "internalType": "uint256",
          "name": "_zombieId",
          "type": "uint256"
        }
      ],
      "name": "levelUp",
      "outputs": [],
      "stateMutability": "payable",
      "type": "function"
    },
    {
      "inputs": [],
      "name": "levelUpFee",
      "outputs": [
        {
          "internalType": "uint256",
          "name": "",
          "type": "uint256"
        }
      ],
      "stateMutability": "view",
      "type": "function"
    },
    {
      "inputs": [],
      "name": "minPrice",
      "outputs": [
        {
          "internalType": "uint256",
          "name": "",
          "type": "uint256"
        }
      ],
      "stateMutability": "view",
      "type": "function"
    },
    {
      "inputs": [
        {
          "internalType": "string",
          "name": "_name",
          "type": "string"
        }
      ],
      "name": "mint",
      "outputs": [],
      "stateMutability": "payable",
      "type": "function"
    },
    {
      "inputs": [],
      "name": "mintFee",
      "outputs": [
        {
          "internalType": "uint256",
          "name": "",
          "type": "uint256"
        }
      ],
      "stateMutability": "view",
      "type": "function"
    },
    {
      "inputs": [],
      "name": "mintFree",
      "outputs": [],
      "stateMutability": "nonpayable",
      "type": "function"
    },
    {
      "inputs": [],
      "name": "mintFreeLimit",
      "outputs": [
        {
          "internalType": "uint256",
          "name": "",
          "type": "uint256"
        }
      ],
      "stateMutability": "view",
      "type": "function"
    },
    {
      "inputs": [],
      "name": "mintedFreeCount",
      "outputs": [
        {
          "internalType": "uint256",
          "name": "",
          "type": "uint256"
        }
      ],
      "stateMutability": "view",
      "type": "function"
    },
    {
      "inputs": [],
      "name": "owner",
      "outputs": [
        {
          "internalType": "address",
          "name": "",
          "type": "address"
        }
      ],
      "stateMutability": "view",
      "type": "function"
    },
    {
      "inputs": [
        {
          "internalType": "uint256",
          "name": "_tokenId",
          "type": "uint256"
        }
      ],
      "name": "ownerOf",
      "outputs": [
        {
          "internalType": "address",
          "name": "",
          "type": "address"
        }
      ],
      "stateMutability": "view",
      "type": "function"
    },
    {
      "inputs": [],
      "name": "renounceOwnership",
      "outputs": [],
      "stateMutability": "nonpayable",
      "type": "function"
    },
    {
      "inputs": [
        {
          "internalType": "uint256",
          "name": "zombieId",
          "type": "uint256"
        },
        {
          "internalType": "uint256",
          "name": "price",
          "type": "uint256"
        }
      ],
      "name": "saleZombie",
      "outputs": [],
      "stateMutability": "nonpayable",
      "type": "function"
    },
    {
      "inputs": [
        {
          "internalType": "string",
          "name": "_baseUrlTokenURI",
          "type": "string"
        }
      ],
      "name": "setBaseUrlTokenURI",
      "outputs": [],
      "stateMutability": "nonpayable",
      "type": "function"
    },
    {
      "inputs": [
        {
          "internalType": "uint256",
          "name": "_fee",
          "type": "uint256"
        }
      ],
      "name": "setChangeDNAFee",
      "outputs": [],
      "stateMutability": "nonpayable",
      "type": "function"
    },
    {
      "inputs": [
        {
          "internalType": "uint256",
          "name": "_fee",
          "type": "uint256"
        }
      ],
      "name": "setChangeNameFee",
      "outputs": [],
      "stateMutability": "nonpayable",
      "type": "function"
    },
    {
      "inputs": [
        {
          "internalType": "uint256",
          "name": "_cooldownTime",
          "type": "uint256"
        }
      ],
      "name": "setCooldownTimeAttack",
      "outputs": [],
      "stateMutability": "nonpayable",
      "type": "function"
    },
    {
      "inputs": [
        {
          "internalType": "uint256",
          "name": "_cooldownTime",
          "type": "uint256"
        }
      ],
      "name": "setCooldownTimeFeeding",
      "outputs": [],
      "stateMutability": "nonpayable",
      "type": "function"
    },
    {
      "inputs": [
        {
          "internalType": "uint256",
          "name": "_fee",
          "type": "uint256"
        }
      ],
      "name": "setLevelUpFee",
      "outputs": [],
      "stateMutability": "nonpayable",
      "type": "function"
    },
    {
      "inputs": [
        {
          "internalType": "uint256",
          "name": "value",
          "type": "uint256"
        }
      ],
      "name": "setMinPrice",
      "outputs": [],
      "stateMutability": "nonpayable",
      "type": "function"
    },
    {
      "inputs": [
        {
          "internalType": "uint256",
          "name": "_mintFee",
          "type": "uint256"
        }
      ],
      "name": "setMintFee",
      "outputs": [],
      "stateMutability": "nonpayable",
      "type": "function"
    },
    {
      "inputs": [
        {
          "internalType": "uint256",
          "name": "value",
          "type": "uint256"
        }
      ],
      "name": "setTax",
      "outputs": [],
      "stateMutability": "nonpayable",
      "type": "function"
    },
    {
      "inputs": [
        {
          "internalType": "uint8",
          "name": "_totalAttackVictoryToGetReward",
          "type": "uint8"
        }
      ],
      "name": "setTotalAttackVictoryToGetReward",
      "outputs": [],
      "stateMutability": "nonpayable",
      "type": "function"
    },
    {
      "inputs": [
        {
          "internalType": "uint8",
          "name": "_totalFedToGetReward",
          "type": "uint8"
        }
      ],
      "name": "setTotalFedToGetReward",
      "outputs": [],
      "stateMutability": "nonpayable",
      "type": "function"
    },
    {
      "inputs": [],
      "name": "tax",
      "outputs": [
        {
          "internalType": "uint256",
          "name": "",
          "type": "uint256"
        }
      ],
      "stateMutability": "view",
      "type": "function"
    },
    {
      "inputs": [
        {
          "internalType": "uint256",
          "name": "_tokenId",
          "type": "uint256"
        }
      ],
      "name": "tokenURI",
      "outputs": [
        {
          "internalType": "string",
          "name": "",
          "type": "string"
        }
      ],
      "stateMutability": "view",
      "type": "function"
    },
    {
      "inputs": [],
      "name": "totalAttackVictoryToGetReward",
      "outputs": [
        {
          "internalType": "uint8",
          "name": "",
          "type": "uint8"
        }
      ],
      "stateMutability": "view",
      "type": "function"
    },
    {
      "inputs": [],
      "name": "totalFedToGetReward",
      "outputs": [
        {
          "internalType": "uint8",
          "name": "",
          "type": "uint8"
        }
      ],
      "stateMutability": "view",
      "type": "function"
    },
    {
      "inputs": [
        {
          "internalType": "address",
          "name": "_from",
          "type": "address"
        },
        {
          "internalType": "address",
          "name": "_to",
          "type": "address"
        },
        {
          "internalType": "uint256",
          "name": "_tokenId",
          "type": "uint256"
        }
      ],
      "name": "transferFrom",
      "outputs": [],
      "stateMutability": "payable",
      "type": "function"
    },
    {
      "inputs": [
        {
          "internalType": "address",
          "name": "newOwner",
          "type": "address"
        }
      ],
      "name": "transferOwnership",
      "outputs": [],
      "stateMutability": "nonpayable",
      "type": "function"
    },
    {
      "inputs": [],
      "name": "withdraw",
      "outputs": [],
      "stateMutability": "nonpayable",
      "type": "function"
    },
    {
      "inputs": [
        {
          "internalType": "uint256",
          "name": "",
          "type": "uint256"
        }
      ],
      "name": "zombieIdToSale",
      "outputs": [
        {
          "internalType": "address payable",
          "name": "seller",
          "type": "address"
        },
        {
          "internalType": "uint256",
          "name": "zombieId",
          "type": "uint256"
        },
        {
          "internalType": "uint256",
          "name": "price",
          "type": "uint256"
        }
      ],
      "stateMutability": "view",
      "type": "function"
    },
    {
      "inputs": [
        {
          "internalType": "uint256",
          "name": "",
          "type": "uint256"
        }
      ],
      "name": "zombieSales",
      "outputs": [
        {
          "internalType": "address payable",
          "name": "seller",
          "type": "address"
        },
        {
          "internalType": "uint256",
          "name": "zombieId",
          "type": "uint256"
        },
        {
          "internalType": "uint256",
          "name": "price",
          "type": "uint256"
        }
      ],
      "stateMutability": "view",
      "type": "function"
    },
    {
      "inputs": [
        {
          "internalType": "uint256",
          "name": "",
          "type": "uint256"
        }
      ],
      "name": "zombieToOwner",
      "outputs": [
        {
          "internalType": "address",
          "name": "",
          "type": "address"
        }
      ],
      "stateMutability": "view",
      "type": "function"
    },
    {
      "inputs": [
        {
          "internalType": "uint256",
          "name": "",
          "type": "uint256"
        }
      ],
      "name": "zombies",
      "outputs": [
        {
          "internalType": "string",
          "name": "name",
          "type": "string"
        },
        {
          "internalType": "uint256",
          "name": "dna",
          "type": "uint256"
        },
        {
          "internalType": "uint256",
          "name": "score",
          "type": "uint256"
        },
        {
          "internalType": "uint32",
          "name": "birthTime",
          "type": "uint32"
        },
        {
          "internalType": "uint32",
          "name": "level",
          "type": "uint32"
        },
        {
          "internalType": "uint32",
          "name": "attackReadyTime",
          "type": "uint32"
        },
        {
          "internalType": "uint32",
          "name": "fedReadyTime",
          "type": "uint32"
        },
        {
          "internalType": "uint16",
          "name": "winCount",
          "type": "uint16"
        },
        {
          "internalType": "uint16",
          "name": "lossCount",
          "type": "uint16"
        },
        {
          "internalType": "uint16",
          "name": "fedCount",
          "type": "uint16"
        }
      ],
      "stateMutability": "view",
      "type": "function"
    }
  ],
  "bytecode": "0x608060405260006001556010600255600254600a61001d9190610318565b6003556113886004556000600555660aa87bee538000600655603c600755603c6008556007600960006101000a81548160ff021916908360ff160217905550600a600960016101000a81548160ff021916908360ff16021790555066038d7ea4c68000600f5566071afd498d0000601055660e35fa931a000060115560006012556032601355604051806060016040528060218152602001615f2460219139601490816100ca91906105a9565b50655af3107a4000601655655af3107a40006017553480156100eb57600080fd5b50336000806101000a81548173ffffffffffffffffffffffffffffffffffffffff021916908373ffffffffffffffffffffffffffffffffffffffff16021790555060008054906101000a900473ffffffffffffffffffffffffffffffffffffffff1673ffffffffffffffffffffffffffffffffffffffff16600073ffffffffffffffffffffffffffffffffffffffff167f8be0079c531659141344cd1fd0a4f28419497f9722a3daafe3b4186f6b6457e060405160405180910390a361067b565b7f4e487b7100000000000000000000000000000000000000000000000000000000600052601160045260246000fd5b60008160011c9050919050565b6000808291508390505b60018511156102325780860481111561020e5761020d6101ac565b5b600185161561021d5780820291505b808102905061022b856101db565b94506101f2565b94509492505050565b60008261024b5760019050610307565b816102595760009050610307565b816001811461026f5760028114610279576102a8565b6001915050610307565b60ff84111561028b5761028a6101ac565b5b8360020a9150848211156102a2576102a16101ac565b5b50610307565b5060208310610133831016604e8410600b84101617156102dd5782820a9050838111156102d8576102d76101ac565b5b610307565b6102ea84848460016101e8565b92509050818404811115610301576103006101ac565b5b81810290505b9392505050565b6000819050919050565b60006103238261030e565b915061032e8361030e565b925061035b7fffffffffffffffffffffffffffffffffffffffffffffffffffffffffffffffff848461023b565b905092915050565b600081519050919050565b7f4e487b7100000000000000000000000000000000000000000000000000000000600052604160045260246000fd5b7f4e487b7100000000000000000000000000000000000000000000000000000000600052602260045260246000fd5b600060028204905060018216806103e457607f821691505b6020821081036103f7576103f661039d565b5b50919050565b60008190508160005260206000209050919050565b60006020601f8301049050919050565b600082821b905092915050565b60006008830261045f7fffffffffffffffffffffffffffffffffffffffffffffffffffffffffffffffff82610422565b6104698683610422565b95508019841693508086168417925050509392505050565b6000819050919050565b60006104a66104a161049c8461030e565b610481565b61030e565b9050919050565b6000819050919050565b6104c08361048b565b6104d46104cc826104ad565b84845461042f565b825550505050565b600090565b6104e96104dc565b6104f48184846104b7565b505050565b5b818110156105185761050d6000826104e1565b6001810190506104fa565b5050565b601f82111561055d5761052e816103fd565b61053784610412565b81016020851015610546578190505b61055a61055285610412565b8301826104f9565b50505b505050565b600082821c905092915050565b600061058060001984600802610562565b1980831691505092915050565b6000610599838361056f565b9150826002028217905092915050565b6105b282610363565b67ffffffffffffffff8111156105cb576105ca61036e565b5b6105d582546103cc565b6105e082828561051c565b600060209050601f8311600181146106135760008415610601578287015190505b61060b858261058d565b865550610673565b601f198416610621866103fd565b60005b8281101561064957848901518255600182019150602085019450602081019050610624565b868310156106665784890151610662601f89168261056f565b8355505b6001600288020188555050505b505050505050565b61589a8061068a6000396000f3fe6080604052600436106103355760003560e01c8063715018a6116101ab578063c39cbef1116100f7578063e1fa763811610095578063f234fca31161006f578063f234fca314610b7c578063f2a40db814610bb9578063f2fde38b14610bf6578063f77de3a114610c1f57610335565b8063e1fa763814610aff578063e45be8eb14610b28578063eddd0d9c14610b5357610335565b8063c87b56dd116100d1578063c87b56dd14610a3e578063ccf670f814610a7b578063d85d3d2714610aa4578063df20b3de14610ac057610335565b8063c39cbef1146109ce578063c4114b12146109ea578063c859f31714610a1557610335565b80638da5cb5b11610164578063a527d6151161013e578063a527d61514610933578063b69ef8a81461095c578063b92e2d7414610987578063bcad1fde146109a357610335565b80638da5cb5b146108b25780638f32d59b146108dd57806399c8d5561461090857610335565b8063715018a6146107dc57806374e729f7146107f35780637a8936c11461081e578063811d1367146108475780638a48ac03146108705780638ab534471461089b57610335565b80634a10565a116102855780636352211e11610223578063705668f7116101fd578063705668f71461072057806370a082311461074b57806370acbb631461078857806370f47cf9146107b357610335565b80636352211e1461069157806369c8e14c146106ce5780636be17f0e146106f757610335565b806354c92c5f1161025f57806354c92c5f146105f65780635625d6d7146106215780635ea8cd121461064c5780635faf28801461067557610335565b80634a10565a146105635780634f0951661461058e578063528b7b8f146105b957610335565b80631919b7e6116102f25780632e5bb6ff116102cc5780632e5bb6ff146104bb5780633ccfd60b146104e45780634412e104146104fb57806349cee8e71461053857610335565b80631919b7e6146104305780632052465e1461045957806323b872dd1461049f57610335565b8063021cbcae1461033a57806306f3376014610365578063095ea7b31461038e5780630ce90ec2146103aa57806313966db5146103c657806313974680146103f1575b600080fd5b34801561034657600080fd5b5061034f610c48565b60405161035c9190613cff565b60405180910390f35b34801561037157600080fd5b5061038c60048036038101906103879190613d5a565b610c4e565b005b6103a860048036038101906103a39190613e0b565b610d17565b005b6103c460048036038101906103bf9190613e4b565b610e35565b005b3480156103d257600080fd5b506103db610f9c565b6040516103e89190613cff565b60405180910390f35b3480156103fd57600080fd5b5061041860048036038101906104139190613e4b565b610fa2565b60405161042793929190613e99565b60405180910390f35b34801561043c57600080fd5b5061045760048036038101906104529190614016565b610ffc565b005b34801561046557600080fd5b50610480600480360381019061047b9190613e4b565b611020565b6040516104969a9998979695949392919061411a565b60405180910390f35b6104b960048036038101906104b491906141bd565b611176565b005b3480156104c757600080fd5b506104e260048036038101906104dd9190613e4b565b611290565b005b3480156104f057600080fd5b506104f96112ab565b005b34801561050757600080fd5b50610522600480360381019061051d9190614210565b611312565b60405161052f91906142fb565b60405180910390f35b34801561054457600080fd5b5061054d611324565b60405161055a9190614339565b60405180910390f35b34801561056f57600080fd5b50610578611337565b6040516105859190613cff565b60405180910390f35b34801561059a57600080fd5b506105a361133d565b6040516105b09190613cff565b60405180910390f35b3480156105c557600080fd5b506105e060048036038101906105db9190613e4b565b611343565b6040516105ed9190614363565b60405180910390f35b34801561060257600080fd5b5061060b611376565b604051610618919061437e565b60405180910390f35b34801561062d57600080fd5b50610636611404565b6040516106439190613cff565b60405180910390f35b34801561065857600080fd5b50610673600480360381019061066e9190613e4b565b61140a565b005b61068f600480360381019061068a91906143a0565b611425565b005b34801561069d57600080fd5b506106b860048036038101906106b39190613e4b565b6115e0565b6040516106c59190614363565b60405180910390f35b3480156106da57600080fd5b506106f560048036038101906106f0919061440c565b61161d565b005b34801561070357600080fd5b5061071e60048036038101906107199190613e4b565b61164c565b005b34801561072c57600080fd5b50610735611667565b6040516107429190614539565b60405180910390f35b34801561075757600080fd5b50610772600480360381019061076d9190614210565b611730565b60405161077f9190613cff565b60405180910390f35b34801561079457600080fd5b5061079d611779565b6040516107aa9190613cff565b60405180910390f35b3480156107bf57600080fd5b506107da60048036038101906107d59190613e4b565b61177f565b005b3480156107e857600080fd5b506107f161179a565b005b3480156107ff57600080fd5b50610808611869565b6040516108159190614339565b60405180910390f35b34801561082a57600080fd5b5061084560048036038101906108409190613e4b565b61187c565b005b34801561085357600080fd5b5061086e60048036038101906108699190613e4b565b611897565b005b34801561087c57600080fd5b506108856119f8565b6040516108929190614619565b60405180910390f35b3480156108a757600080fd5b506108b0611a86565b005b3480156108be57600080fd5b506108c7611c48565b6040516108d49190614363565b60405180910390f35b3480156108e957600080fd5b506108f2611c71565b6040516108ff9190614656565b60405180910390f35b34801561091457600080fd5b5061091d611cc8565b60405161092a9190613cff565b60405180910390f35b34801561093f57600080fd5b5061095a600480360381019061095591906143a0565b611cce565b005b34801561096857600080fd5b50610971611f07565b60405161097e9190613cff565b60405180910390f35b6109a1600480360381019061099c9190613e4b565b611f20565b005b3480156109af57600080fd5b506109b86121b4565b6040516109c59190613cff565b60405180910390f35b6109e860048036038101906109e391906146d1565b6121ba565b005b3480156109f657600080fd5b506109ff612381565b604051610a0c9190613cff565b60405180910390f35b348015610a2157600080fd5b50610a3c6004803603810190610a37919061440c565b612387565b005b348015610a4a57600080fd5b50610a656004803603810190610a609190613e4b565b6123b6565b604051610a72919061437e565b60405180910390f35b348015610a8757600080fd5b50610aa26004803603810190610a9d9190613e4b565b612424565b005b610abe6004803603810190610ab99190614016565b61243f565b005b348015610acc57600080fd5b50610ae76004803603810190610ae29190613e4b565b6124d5565b604051610af693929190613e99565b60405180910390f35b348015610b0b57600080fd5b50610b266004803603810190610b2191906143a0565b61251f565b005b348015610b3457600080fd5b50610b3d61290f565b604051610b4a9190613cff565b60405180910390f35b348015610b5f57600080fd5b50610b7a6004803603810190610b759190613e4b565b612915565b005b348015610b8857600080fd5b50610ba36004803603810190610b9e9190613e4b565b612930565b604051610bb09190614656565b60405180910390f35b348015610bc557600080fd5b50610be06004803603810190610bdb9190613e4b565b61299f565b604051610bed9190614363565b60405180910390f35b348015610c0257600080fd5b50610c1d6004803603810190610c189190614210565b6129de565b005b348015610c2b57600080fd5b50610c466004803603810190610c419190613e4b565b6129fb565b005b60055481565b6000600a8481548110610c6457610c63614731565b5b906000526020600020906004020190506000610cb685856040518060400160405280600581526020017f6b69747479000000000000000000000000000000000000000000000000000000815250612a16565b90503373ffffffffffffffffffffffffffffffffffffffff167f94bd9f81959636fb1ddd32f8bcbdab8b649d20a6a464f759a1aa7f7cf4447fac8360010154868685604051610d089493929190614760565b60405180910390a25050505050565b80600c600082815260200190815260200160002060009054906101000a900473ffffffffffffffffffffffffffffffffffffffff1673ffffffffffffffffffffffffffffffffffffffff163373ffffffffffffffffffffffffffffffffffffffff1614610d8357600080fd5b826015600084815260200190815260200160002060006101000a81548173ffffffffffffffffffffffffffffffffffffffff021916908373ffffffffffffffffffffffffffffffffffffffff160217905550818373ffffffffffffffffffffffffffffffffffffffff163373ffffffffffffffffffffffffffffffffffffffff167f8c5be1e5ebec7d5bd14f71427d1e84f3dd0314c0f7b2291e5b200ac8c7c3b92560405160405180910390a4505050565b600f5480341015610e4582612b94565b604051602001610e559190614807565b60405160208183030381529060405290610ea5576040517f08c379a0000000000000000000000000000000000000000000000000000000008152600401610e9c919061437e565b60405180910390fd5b5081600c600082815260200190815260200160002060009054906101000a900473ffffffffffffffffffffffffffffffffffffffff1673ffffffffffffffffffffffffffffffffffffffff163373ffffffffffffffffffffffffffffffffffffffff1614610f1257600080fd5b6001600a8481548110610f2857610f27614731565b5b906000526020600020906004020160030160049054906101000a900463ffffffff16610f54919061485c565b600a8481548110610f6857610f67614731565b5b906000526020600020906004020160030160046101000a81548163ffffffff021916908363ffffffff160217905550505050565b60065481565b60188181548110610fb257600080fd5b90600052602060002090600302016000915090508060000160009054906101000a900473ffffffffffffffffffffffffffffffffffffffff16908060010154908060020154905083565b611004611c71565b61100d57600080fd5b806014908161101c9190614aa0565b5050565b600a818154811061103057600080fd5b9060005260206000209060040201600091509050806000018054611053906148c3565b80601f016020809104026020016040519081016040528092919081815260200182805461107f906148c3565b80156110cc5780601f106110a1576101008083540402835291602001916110cc565b820191906000526020600020905b8154815290600101906020018083116110af57829003601f168201915b5050505050908060010154908060020154908060030160009054906101000a900463ffffffff16908060030160049054906101000a900463ffffffff16908060030160089054906101000a900463ffffffff169080600301600c9054906101000a900463ffffffff16908060030160109054906101000a900461ffff16908060030160129054906101000a900461ffff16908060030160149054906101000a900461ffff1690508a565b3373ffffffffffffffffffffffffffffffffffffffff16600c600083815260200190815260200160002060009054906101000a900473ffffffffffffffffffffffffffffffffffffffff1673ffffffffffffffffffffffffffffffffffffffff16148061124157503373ffffffffffffffffffffffffffffffffffffffff166015600083815260200190815260200160002060009054906101000a900473ffffffffffffffffffffffffffffffffffffffff1673ffffffffffffffffffffffffffffffffffffffff16145b611280576040517f08c379a000000000000000000000000000000000000000000000000000000000815260040161127790614bbe565b60405180910390fd5b61128b838383612c62565b505050565b611298611c71565b6112a157600080fd5b8060168190555050565b6112b3611c71565b6112bc57600080fd5b60006112c6611c48565b90508073ffffffffffffffffffffffffffffffffffffffff166108fc479081150290604051600060405180830381858888f1935050505015801561130e573d6000803e3d6000fd5b5050565b606061131d82612e32565b9050919050565b600960009054906101000a900460ff1681565b60045481565b60105481565b600c6020528060005260406000206000915054906101000a900473ffffffffffffffffffffffffffffffffffffffff1681565b60148054611383906148c3565b80601f01602080910402602001604051908101604052809291908181526020018280546113af906148c3565b80156113fc5780601f106113d1576101008083540402835291602001916113fc565b820191906000526020600020905b8154815290600101906020018083116113df57829003601f168201915b505050505081565b60075481565b611412611c71565b61141b57600080fd5b8060178190555050565b6011548034101561143582612b94565b6040516020016114459190614807565b60405160208183030381529060405290611495576040517f08c379a000000000000000000000000000000000000000000000000000000000815260040161148c919061437e565b60405180910390fd5b5060148381600a82815481106114ae576114ad614731565b5b906000526020600020906004020160030160049054906101000a900463ffffffff1663ffffffff1610156114e183612b94565b6040516020016114f19190614c04565b60405160208183030381529060405290611541576040517f08c379a0000000000000000000000000000000000000000000000000000000008152600401611538919061437e565b60405180910390fd5b5084600c600082815260200190815260200160002060009054906101000a900473ffffffffffffffffffffffffffffffffffffffff1673ffffffffffffffffffffffffffffffffffffffff163373ffffffffffffffffffffffffffffffffffffffff16146115ae57600080fd5b84600a87815481106115c3576115c2614731565b5b906000526020600020906004020160010181905550505050505050565b6000600c600083815260200190815260200160002060009054906101000a900473ffffffffffffffffffffffffffffffffffffffff169050919050565b611625611c71565b61162e57600080fd5b80600960006101000a81548160ff021916908360ff16021790555050565b611654611c71565b61165d57600080fd5b8060108190555050565b60606018805480602002602001604051908101604052809291908181526020016000905b8282101561172757838290600052602060002090600302016040518060600160405290816000820160009054906101000a900473ffffffffffffffffffffffffffffffffffffffff1673ffffffffffffffffffffffffffffffffffffffff1673ffffffffffffffffffffffffffffffffffffffff168152602001600182015481526020016002820154815250508152602001906001019061168b565b50505050905090565b6000600d60008373ffffffffffffffffffffffffffffffffffffffff1673ffffffffffffffffffffffffffffffffffffffff168152602001908152602001600020549050919050565b60115481565b611787611c71565b61179057600080fd5b8060118190555050565b6117a2611c71565b6117ab57600080fd5b600073ffffffffffffffffffffffffffffffffffffffff1660008054906101000a900473ffffffffffffffffffffffffffffffffffffffff1673ffffffffffffffffffffffffffffffffffffffff167f8be0079c531659141344cd1fd0a4f28419497f9722a3daafe3b4186f6b6457e060405160405180910390a360008060006101000a81548173ffffffffffffffffffffffffffffffffffffffff021916908373ffffffffffffffffffffffffffffffffffffffff160217905550565b600960019054906101000a900460ff1681565b611884611c71565b61188d57600080fd5b8060078190555050565b80600c600082815260200190815260200160002060009054906101000a900473ffffffffffffffffffffffffffffffffffffffff1673ffffffffffffffffffffffffffffffffffffffff163373ffffffffffffffffffffffffffffffffffffffff161461190357600080fd5b3373ffffffffffffffffffffffffffffffffffffffff166019600084815260200190815260200160002060000160009054906101000a900473ffffffffffffffffffffffffffffffffffffffff1673ffffffffffffffffffffffffffffffffffffffff16146119a7576040517f08c379a000000000000000000000000000000000000000000000000000000000815260040161199e90614c9c565b60405180910390fd5b6119b082612f7f565b3373ffffffffffffffffffffffffffffffffffffffff16827f9f63f695352607f5d8532e52458b7b194a971d563a2b360cb52fdf0c1b7cf71060405160405180910390a35050565b6060600b805480602002602001604051908101604052809291908181526020018280548015611a7c57602002820191906000526020600020905b8160009054906101000a900473ffffffffffffffffffffffffffffffffffffffff1673ffffffffffffffffffffffffffffffffffffffff1681526020019060010190808311611a32575b5050505050905090565b60045460055410611a98600454612b94565b604051602001611aa89190614ce2565b60405160208183030381529060405290611af8576040517f08c379a0000000000000000000000000000000000000000000000000000000008152600401611aef919061437e565b60405180910390fd5b50600e60003373ffffffffffffffffffffffffffffffffffffffff1673ffffffffffffffffffffffffffffffffffffffff16815260200190815260200160002060009054906101000a900460ff1615611b86576040517f08c379a0000000000000000000000000000000000000000000000000000000008152600401611b7d90614d54565b60405180910390fd5b6000611b93600154612b94565b604051602001611ba39190614d9a565b60405160208183030381529060405290506000611bbf82613153565b9050611bcb82826131c8565b611bd433613574565b6001600e60003373ffffffffffffffffffffffffffffffffffffffff1673ffffffffffffffffffffffffffffffffffffffff16815260200190815260200160002060006101000a81548160ff02191690831515021790555060056000815480929190611c3f90614dc0565b91905055505050565b60008060009054906101000a900473ffffffffffffffffffffffffffffffffffffffff16905090565b60008060009054906101000a900473ffffffffffffffffffffffffffffffffffffffff1673ffffffffffffffffffffffffffffffffffffffff163373ffffffffffffffffffffffffffffffffffffffff1614905090565b60165481565b81600c600082815260200190815260200160002060009054906101000a900473ffffffffffffffffffffffffffffffffffffffff1673ffffffffffffffffffffffffffffffffffffffff163373ffffffffffffffffffffffffffffffffffffffff1614611d3a57600080fd5b601754601654611d4a9190614e08565b821015611d8c576040517f08c379a0000000000000000000000000000000000000000000000000000000008152600401611d8390614e88565b60405180910390fd5b600060405180606001604052803373ffffffffffffffffffffffffffffffffffffffff168152602001858152602001848152509050806019600086815260200190815260200160002060008201518160000160006101000a81548173ffffffffffffffffffffffffffffffffffffffff021916908373ffffffffffffffffffffffffffffffffffffffff1602179055506020820151816001015560408201518160020155905050601881908060018154018082558091505060019003906000526020600020906003020160009091909190915060008201518160000160006101000a81548173ffffffffffffffffffffffffffffffffffffffff021916908373ffffffffffffffffffffffffffffffffffffffff160217905550602082015181600101556040820151816002015550503373ffffffffffffffffffffffffffffffffffffffff1683857f423c789d4ebac5f7edf9bb0afb63074cf8d0ea0f7951b46e8f148abeaa8a72cb60405160405180910390a450505050565b6000611f11611c71565b611f1a57600080fd5b47905090565b6000601960008381526020019081526020016000206040518060600160405290816000820160009054906101000a900473ffffffffffffffffffffffffffffffffffffffff1673ffffffffffffffffffffffffffffffffffffffff1673ffffffffffffffffffffffffffffffffffffffff168152602001600182015481526020016002820154815250509050806000015173ffffffffffffffffffffffffffffffffffffffff16600073ffffffffffffffffffffffffffffffffffffffff160361201f576040517f08c379a000000000000000000000000000000000000000000000000000000000815260040161201690614ef4565b60405180910390fd5b806000015173ffffffffffffffffffffffffffffffffffffffff163373ffffffffffffffffffffffffffffffffffffffff1603612091576040517f08c379a000000000000000000000000000000000000000000000000000000000815260040161208890614f60565b60405180910390fd5b80604001513410156120d8576040517f08c379a00000000000000000000000000000000000000000000000000000000081526004016120cf90614e88565b60405180910390fd5b6120e781600001513384612c62565b806000015173ffffffffffffffffffffffffffffffffffffffff166108fc601654346121139190614f80565b9081150290604051600060405180830381858888f1935050505015801561213e573d6000803e3d6000fd5b5061214882612f7f565b61215133613574565b806000015173ffffffffffffffffffffffffffffffffffffffff163373ffffffffffffffffffffffffffffffffffffffff16837f17ce1013d920fb78658d6b2d935c6c3b03a41da037fdf4bcbf4e258e9e1da00b60405160405180910390a45050565b60085481565b601054803410156121ca82612b94565b6040516020016121da9190614807565b6040516020818303038152906040529061222a576040517f08c379a0000000000000000000000000000000000000000000000000000000008152600401612221919061437e565b60405180910390fd5b5060028481600a828154811061224357612242614731565b5b906000526020600020906004020160030160049054906101000a900463ffffffff1663ffffffff16101561227683612b94565b6040516020016122869190614c04565b604051602081830303815290604052906122d6576040517f08c379a00000000000000000000000000000000000000000000000000000000081526004016122cd919061437e565b60405180910390fd5b5085600c600082815260200190815260200160002060009054906101000a900473ffffffffffffffffffffffffffffffffffffffff1673ffffffffffffffffffffffffffffffffffffffff163373ffffffffffffffffffffffffffffffffffffffff161461234357600080fd5b8585600a898154811061235957612358614731565b5b90600052602060002090600402016000019182612377929190614fbf565b5050505050505050565b600f5481565b61238f611c71565b61239857600080fd5b80600960016101000a81548160ff021916908360ff16021790555050565b60606000600a83815481106123ce576123cd614731565b5b9060005260206000209060040201905060146123e984612b94565b826000016123fa8460010154612b94565b60405160200161240d9493929190615138565b604051602081830303815290604052915050919050565b61242c611c71565b61243557600080fd5b80600f8190555050565b6006548034101561244f82612b94565b60405160200161245f9190614807565b604051602081830303815290604052906124af576040517f08c379a00000000000000000000000000000000000000000000000000000000081526004016124a6919061437e565b60405180910390fd5b5060006124bb83613153565b90506124c783826131c8565b6124d033613574565b505050565b60196020528060005260406000206000915090508060000160009054906101000a900473ffffffffffffffffffffffffffffffffffffffff16908060010154908060020154905083565b81600c600082815260200190815260200160002060009054906101000a900473ffffffffffffffffffffffffffffffffffffffff1673ffffffffffffffffffffffffffffffffffffffff163373ffffffffffffffffffffffffffffffffffffffff161461258b57600080fd5b6000600a84815481106125a1576125a0614731565b5b906000526020600020906004020190506125ba816135e8565b6125f9576040517f08c379a00000000000000000000000000000000000000000000000000000000081526004016125f0906151e0565b60405180910390fd5b6000600a848154811061260f5761260e614731565b5b90600052602060002090600402019050600061262b838361360f565b90506000606442338960405160200161264693929190615269565b6040516020818303038152906040528051906020012060001c61266991906152d5565b90508181116128205783600301601081819054906101000a900461ffff168092919061269490615306565b91906101000a81548161ffff021916908361ffff1602179055505083600301600481819054906101000a900463ffffffff16809291906126d390615330565b91906101000a81548163ffffffff021916908363ffffffff1602179055505082600301601281819054906101000a900461ffff168092919061271490615306565b91906101000a81548161ffff021916908361ffff160217905550506127388461374b565b6127418361374b565b600080600960009054906101000a900460ff1660ff168660030160109054906101000a900461ffff16612774919061535c565b61ffff16036127c8576127c5856001015485600101546040518060400160405280600681526020017f7a6f6d62696500000000000000000000000000000000000000000000000000008152506137f1565b90505b3373ffffffffffffffffffffffffffffffffffffffff167f750a7c18ca7f7bd87c6e50678ea7fa4f64d0cb733bb68cdac552d009737b47168989846040516128129392919061538d565b60405180910390a250612906565b83600301601281819054906101000a900461ffff168092919061284290615306565b91906101000a81548161ffff021916908361ffff1602179055505082600301601081819054906101000a900461ffff168092919061287f90615306565b91906101000a81548161ffff021916908361ffff160217905550506128a38461374b565b6128ac8361374b565b6128b5846138e1565b3373ffffffffffffffffffffffffffffffffffffffff167f4fa78061bb2783669831d2e2aa9ca18cb698e098923982bfada46ceaf1516d6a88886040516128fd9291906153c4565b60405180910390a25b50505050505050565b60175481565b61291d611c71565b61292657600080fd5b8060068190555050565b60008073ffffffffffffffffffffffffffffffffffffffff166019600084815260200190815260200160002060000160009054906101000a900473ffffffffffffffffffffffffffffffffffffffff1673ffffffffffffffffffffffffffffffffffffffff1614159050919050565b600b81815481106129af57600080fd5b906000526020600020016000915054906101000a900473ffffffffffffffffffffffffffffffffffffffff1681565b6129e6611c71565b6129ef57600080fd5b6129f881613914565b50565b612a03611c71565b612a0c57600080fd5b8060088190555050565b600083600c600082815260200190815260200160002060009054906101000a900473ffffffffffffffffffffffffffffffffffffffff1673ffffffffffffffffffffffffffffffffffffffff163373ffffffffffffffffffffffffffffffffffffffff1614612a8457600080fd5b6000600a8681548110612a9a57612a99614731565b5b90600052602060002090600402019050612ab381613a0a565b612af2576040517f08c379a0000000000000000000000000000000000000000000000000000000008152600401612ae990615439565b60405180910390fd5b600081600301601481819054906101000a900461ffff1680929190612b1690615306565b91906101000a81548161ffff021916908361ffff160217905550506000600960019054906101000a900460ff1660ff168360030160149054906101000a900461ffff16612b63919061535c565b61ffff1603612b7e57612b7b826001015487876137f1565b90505b612b8782613a31565b8093505050509392505050565b606060006001612ba384613a64565b01905060008167ffffffffffffffff811115612bc257612bc1613eeb565b5b6040519080825280601f01601f191660200182016040528015612bf45781602001600182028036833780820191505090505b509050600082602001820190505b600115612c57578080600190039150507f3031323334353637383961626364656600000000000000000000000000000000600a86061a8153600a8581612c4b57612c4a6152a6565b5b04945060008503612c02575b819350505050919050565b6001600d60008473ffffffffffffffffffffffffffffffffffffffff1673ffffffffffffffffffffffffffffffffffffffff16815260200190815260200160002054612cae9190614e08565b600d60008473ffffffffffffffffffffffffffffffffffffffff1673ffffffffffffffffffffffffffffffffffffffff168152602001908152602001600020819055506001600d60008573ffffffffffffffffffffffffffffffffffffffff1673ffffffffffffffffffffffffffffffffffffffff16815260200190815260200160002054612d3d9190614f80565b600d60008573ffffffffffffffffffffffffffffffffffffffff1673ffffffffffffffffffffffffffffffffffffffff1681526020019081526020016000208190555081600c600083815260200190815260200160002060006101000a81548173ffffffffffffffffffffffffffffffffffffffff021916908373ffffffffffffffffffffffffffffffffffffffff160217905550808273ffffffffffffffffffffffffffffffffffffffff168473ffffffffffffffffffffffffffffffffffffffff167fddf252ad1be2c89b69c2b068fc378daa952ba7f163c4a11628f55a4df523b3ef60405160405180910390a4505050565b60606000600d60008473ffffffffffffffffffffffffffffffffffffffff1673ffffffffffffffffffffffffffffffffffffffff1681526020019081526020016000205467ffffffffffffffff811115612e8f57612e8e613eeb565b5b604051908082528060200260200182016040528015612ebd5781602001602082028036833780820191505090505b5090506000805b600a80549050811015612f74578473ffffffffffffffffffffffffffffffffffffffff16600c600083815260200190815260200160002060009054906101000a900473ffffffffffffffffffffffffffffffffffffffff1673ffffffffffffffffffffffffffffffffffffffff1603612f675780838381518110612f4b57612f4a614731565b5b602002602001018181525050600182612f649190614e08565b91505b8080600101915050612ec4565b508192505050919050565b60196000828152602001908152602001600020600080820160006101000a81549073ffffffffffffffffffffffffffffffffffffffff021916905560018201600090556002820160009055505060005b60188054905081101561314f578160188281548110612ff157612ff0614731565b5b90600052602060002090600302016001015403613142576018600160188054905061301c9190614f80565b8154811061302d5761302c614731565b5b90600052602060002090600302016018828154811061304f5761304e614731565b5b90600052602060002090600302016000820160009054906101000a900473ffffffffffffffffffffffffffffffffffffffff168160000160006101000a81548173ffffffffffffffffffffffffffffffffffffffff021916908373ffffffffffffffffffffffffffffffffffffffff160217905550600182015481600101556002820154816002015590505060188054806130ed576130ec615459565b5b6001900381819060005260206000209060030201600080820160006101000a81549073ffffffffffffffffffffffffffffffffffffffff0219169055600182016000905560028201600090555050905561314f565b8080600101915050612fcf565b5050565b60006001600081548092919061316890614dc0565b919050555060008260015442336001436131829190614f80565b406040516020016131979594939291906154b3565b6040516020818303038152906040528051906020012060001c9050600354816131c091906152d5565b915050919050565b600082511161320c576040517f08c379a00000000000000000000000000000000000000000000000000000000081526004016132039061555a565b60405180910390fd5b80811461324e576040517f08c379a0000000000000000000000000000000000000000000000000000000008152600401613245906155c6565b60405180910390fd5b60004290506000604051806101400160405280858152602001848152602001600081526020018363ffffffff168152602001600163ffffffff1681526020018363ffffffff1681526020018363ffffffff168152602001600061ffff168152602001600061ffff168152602001600061ffff168152509050600a81908060018154018082558091505060019003906000526020600020906004020160009091909190915060008201518160000190816133079190614aa0565b50602082015181600101556040820151816002015560608201518160030160006101000a81548163ffffffff021916908363ffffffff16021790555060808201518160030160046101000a81548163ffffffff021916908363ffffffff16021790555060a08201518160030160086101000a81548163ffffffff021916908363ffffffff16021790555060c082015181600301600c6101000a81548163ffffffff021916908363ffffffff16021790555060e08201518160030160106101000a81548161ffff021916908361ffff1602179055506101008201518160030160126101000a81548161ffff021916908361ffff1602179055506101208201518160030160146101000a81548161ffff021916908361ffff160217905550505060006001600a805490506134399190614f80565b905033600c600083815260200190815260200160002060006101000a81548173ffffffffffffffffffffffffffffffffffffffff021916908373ffffffffffffffffffffffffffffffffffffffff1602179055506001600d60003373ffffffffffffffffffffffffffffffffffffffff1673ffffffffffffffffffffffffffffffffffffffff168152602001908152602001600020546134d99190614e08565b600d60003373ffffffffffffffffffffffffffffffffffffffff1673ffffffffffffffffffffffffffffffffffffffff16815260200190815260200160002081905550803373ffffffffffffffffffffffffffffffffffffffff167ff92b1ba4cb9ae7683c3a3a1e58273b24013547531f590e32910f3105e8349e1f87876040516135659291906155e6565b60405180910390a35050505050565b61357d81613bb7565b6135e557600b819080600181540180825580915050600190039060005260206000200160009091909190916101000a81548173ffffffffffffffffffffffffffffffffffffffff021916908373ffffffffffffffffffffffffffffffffffffffff1602179055505b50565b6000428260030160089054906101000a900463ffffffff1663ffffffff1611159050919050565b600080601354905060008360030160049054906101000a900463ffffffff168560030160049054906101000a900463ffffffff1661364d9190615623565b905060008160030b131561368057600281613668919061567f565b63ffffffff16826136799190614e08565b91506136b7565b60008160030b12156136b657600281613698906156bc565b6136a2919061567f565b63ffffffff16826136b39190614f80565b91505b5b6000806136c78760010154613c5f565b509150915060006136db8760010154613c5f565b925050506000600a82846002876136f29190615704565b6136fc9190614e08565b6137069190614f80565b6137109190615746565b9050808661371e9190614e08565b9550605a86111561372e57605a95505b601e86101561373c57601e95505b85965050505050505092915050565b600060038260030160129054906101000a900461ffff1661376c9190615777565b61ffff1660058360030160109054906101000a900461ffff1661378f9190615777565b61ffff16600a8460030160049054906101000a900463ffffffff166137b4919061567f565b6137be919061485c565b6137c891906157b4565b9050600a8163ffffffff1610156137de57600a90505b8063ffffffff1682600201819055505050565b60006003548361380191906152d5565b92506000600284866138139190614e08565b61381d9190615746565b905060405160200161382e90615838565b6040516020818303038152906040528051906020012083604051602001613855919061584d565b604051602081830303815290604052805190602001200361389757606360648261387f91906152d5565b8261388a9190614f80565b6138949190614e08565b90505b6138d66040518060400160405280600681526020017f4e6f4e616d650000000000000000000000000000000000000000000000000000815250826131c8565b809150509392505050565b600754426138ef9190614e08565b8160030160086101000a81548163ffffffff021916908363ffffffff16021790555050565b600073ffffffffffffffffffffffffffffffffffffffff168173ffffffffffffffffffffffffffffffffffffffff160361394d57600080fd5b8073ffffffffffffffffffffffffffffffffffffffff1660008054906101000a900473ffffffffffffffffffffffffffffffffffffffff1673ffffffffffffffffffffffffffffffffffffffff167f8be0079c531659141344cd1fd0a4f28419497f9722a3daafe3b4186f6b6457e060405160405180910390a3806000806101000a81548173ffffffffffffffffffffffffffffffffffffffff021916908373ffffffffffffffffffffffffffffffffffffffff16021790555050565b60004282600301600c9054906101000a900463ffffffff1663ffffffff1611159050919050565b60085442613a3f9190614e08565b81600301600c6101000a81548163ffffffff021916908363ffffffff16021790555050565b600080600090507a184f03e93ff9f4daa797ed6e38ed64bf6a1f0100000000000000008310613ac2577a184f03e93ff9f4daa797ed6e38ed64bf6a1f0100000000000000008381613ab857613ab76152a6565b5b0492506040810190505b6d04ee2d6d415b85acef81000000008310613aff576d04ee2d6d415b85acef81000000008381613af557613af46152a6565b5b0492506020810190505b662386f26fc100008310613b2e57662386f26fc100008381613b2457613b236152a6565b5b0492506010810190505b6305f5e1008310613b57576305f5e1008381613b4d57613b4c6152a6565b5b0492506008810190505b6127108310613b7c576127108381613b7257613b716152a6565b5b0492506004810190505b60648310613b9f5760648381613b9557613b946152a6565b5b0492506002810190505b600a8310613bae576001810190505b80915050919050565b6000806000905060005b600b80549050811015613c55578373ffffffffffffffffffffffffffffffffffffffff16600b8281548110613bf957613bf8614731565b5b9060005260206000200160009054906101000a900473ffffffffffffffffffffffffffffffffffffffff1673ffffffffffffffffffffffffffffffffffffffff1603613c485760019150613c55565b8080600101915050613bc1565b5080915050919050565b600080600080603285613c7291906152d5565b6032613c7e9190614e08565b905060006032606487613c919190615746565b613c9b91906152d5565b6032613ca79190614e08565b90506000603261271088613cbb9190615746565b613cc591906152d5565b6032613cd19190614e08565b90508282829550955095505050509193909250565b6000819050919050565b613cf981613ce6565b82525050565b6000602082019050613d146000830184613cf0565b92915050565b6000604051905090565b600080fd5b600080fd5b613d3781613ce6565b8114613d4257600080fd5b50565b600081359050613d5481613d2e565b92915050565b600080600060608486031215613d7357613d72613d24565b5b6000613d8186828701613d45565b9350506020613d9286828701613d45565b9250506040613da386828701613d45565b9150509250925092565b600073ffffffffffffffffffffffffffffffffffffffff82169050919050565b6000613dd882613dad565b9050919050565b613de881613dcd565b8114613df357600080fd5b50565b600081359050613e0581613ddf565b92915050565b60008060408385031215613e2257613e21613d24565b5b6000613e3085828601613df6565b9250506020613e4185828601613d45565b9150509250929050565b600060208284031215613e6157613e60613d24565b5b6000613e6f84828501613d45565b91505092915050565b6000613e8382613dad565b9050919050565b613e9381613e78565b82525050565b6000606082019050613eae6000830186613e8a565b613ebb6020830185613cf0565b613ec86040830184613cf0565b949350505050565b600080fd5b600080fd5b6000601f19601f8301169050919050565b7f4e487b7100000000000000000000000000000000000000000000000000000000600052604160045260246000fd5b613f2382613eda565b810181811067ffffffffffffffff82111715613f4257613f41613eeb565b5b80604052505050565b6000613f55613d1a565b9050613f618282613f1a565b919050565b600067ffffffffffffffff821115613f8157613f80613eeb565b5b613f8a82613eda565b9050602081019050919050565b82818337600083830152505050565b6000613fb9613fb484613f66565b613f4b565b905082815260208101848484011115613fd557613fd4613ed5565b5b613fe0848285613f97565b509392505050565b600082601f830112613ffd57613ffc613ed0565b5b813561400d848260208601613fa6565b91505092915050565b60006020828403121561402c5761402b613d24565b5b600082013567ffffffffffffffff81111561404a57614049613d29565b5b61405684828501613fe8565b91505092915050565b600081519050919050565b600082825260208201905092915050565b60005b8381101561409957808201518184015260208101905061407e565b60008484015250505050565b60006140b08261405f565b6140ba818561406a565b93506140ca81856020860161407b565b6140d381613eda565b840191505092915050565b600063ffffffff82169050919050565b6140f7816140de565b82525050565b600061ffff82169050919050565b614114816140fd565b82525050565b6000610140820190508181036000830152614135818d6140a5565b9050614144602083018c613cf0565b614151604083018b613cf0565b61415e606083018a6140ee565b61416b60808301896140ee565b61417860a08301886140ee565b61418560c08301876140ee565b61419260e083018661410b565b6141a061010083018561410b565b6141ae61012083018461410b565b9b9a5050505050505050505050565b6000806000606084860312156141d6576141d5613d24565b5b60006141e486828701613df6565b93505060206141f586828701613df6565b925050604061420686828701613d45565b9150509250925092565b60006020828403121561422657614225613d24565b5b600061423484828501613df6565b91505092915050565b600081519050919050565b600082825260208201905092915050565b6000819050602082019050919050565b61427281613ce6565b82525050565b60006142848383614269565b60208301905092915050565b6000602082019050919050565b60006142a88261423d565b6142b28185614248565b93506142bd83614259565b8060005b838110156142ee5781516142d58882614278565b97506142e083614290565b9250506001810190506142c1565b5085935050505092915050565b60006020820190508181036000830152614315818461429d565b905092915050565b600060ff82169050919050565b6143338161431d565b82525050565b600060208201905061434e600083018461432a565b92915050565b61435d81613dcd565b82525050565b60006020820190506143786000830184614354565b92915050565b6000602082019050818103600083015261439881846140a5565b905092915050565b600080604083850312156143b7576143b6613d24565b5b60006143c585828601613d45565b92505060206143d685828601613d45565b9150509250929050565b6143e98161431d565b81146143f457600080fd5b50565b600081359050614406816143e0565b92915050565b60006020828403121561442257614421613d24565b5b6000614430848285016143f7565b91505092915050565b600081519050919050565b600082825260208201905092915050565b6000819050602082019050919050565b61446e81613e78565b82525050565b60608201600082015161448a6000850182614465565b50602082015161449d6020850182614269565b5060408201516144b06040850182614269565b50505050565b60006144c28383614474565b60608301905092915050565b6000602082019050919050565b60006144e682614439565b6144f08185614444565b93506144fb83614455565b8060005b8381101561452c57815161451388826144b6565b975061451e836144ce565b9250506001810190506144ff565b5085935050505092915050565b6000602082019050818103600083015261455381846144db565b905092915050565b600081519050919050565b600082825260208201905092915050565b6000819050602082019050919050565b61459081613dcd565b82525050565b60006145a28383614587565b60208301905092915050565b6000602082019050919050565b60006145c68261455b565b6145d08185614566565b93506145db83614577565b8060005b8381101561460c5781516145f38882614596565b97506145fe836145ae565b9250506001810190506145df565b5085935050505092915050565b6000602082019050818103600083015261463381846145bb565b905092915050565b60008115159050919050565b6146508161463b565b82525050565b600060208201905061466b6000830184614647565b92915050565b600080fd5b600080fd5b60008083601f84011261469157614690613ed0565b5b8235905067ffffffffffffffff8111156146ae576146ad614671565b5b6020830191508360018202830111156146ca576146c9614676565b5b9250929050565b6000806000604084860312156146ea576146e9613d24565b5b60006146f886828701613d45565b935050602084013567ffffffffffffffff81111561471957614718613d29565b5b6147258682870161467b565b92509250509250925092565b7f4e487b7100000000000000000000000000000000000000000000000000000000600052603260045260246000fd5b60006080820190506147756000830187613cf0565b6147826020830186613cf0565b61478f6040830185613cf0565b61479c6060830184613cf0565b95945050505050565b7f5072696365206d696e696d756d20697320000000000000000000000000000000815250565b600081905092915050565b60006147e18261405f565b6147eb81856147cb565b93506147fb81856020860161407b565b80840191505092915050565b6000614812826147a5565b60118201915061482282846147d6565b915081905092915050565b7f4e487b7100000000000000000000000000000000000000000000000000000000600052601160045260246000fd5b6000614867826140de565b9150614872836140de565b9250828201905063ffffffff81111561488e5761488d61482d565b5b92915050565b7f4e487b7100000000000000000000000000000000000000000000000000000000600052602260045260246000fd5b600060028204905060018216806148db57607f821691505b6020821081036148ee576148ed614894565b5b50919050565b60008190508160005260206000209050919050565b60006020601f8301049050919050565b600082821b905092915050565b6000600883026149567fffffffffffffffffffffffffffffffffffffffffffffffffffffffffffffffff82614919565b6149608683614919565b95508019841693508086168417925050509392505050565b6000819050919050565b600061499d61499861499384613ce6565b614978565b613ce6565b9050919050565b6000819050919050565b6149b783614982565b6149cb6149c3826149a4565b848454614926565b825550505050565b600090565b6149e06149d3565b6149eb8184846149ae565b505050565b5b81811015614a0f57614a046000826149d8565b6001810190506149f1565b5050565b601f821115614a5457614a25816148f4565b614a2e84614909565b81016020851015614a3d578190505b614a51614a4985614909565b8301826149f0565b50505b505050565b600082821c905092915050565b6000614a7760001984600802614a59565b1980831691505092915050565b6000614a908383614a66565b9150826002028217905092915050565b614aa98261405f565b67ffffffffffffffff811115614ac257614ac1613eeb565b5b614acc82546148c3565b614ad7828285614a13565b600060209050601f831160018114614b0a5760008415614af8578287015190505b614b028582614a84565b865550614b6a565b601f198416614b18866148f4565b60005b82811015614b4057848901518255600182019150602085019450602081019050614b1b565b86831015614b5d5784890151614b59601f891682614a66565b8355505b6001600288020188555050505b505050505050565b7f596f7520617265206e6f74206f776e6572206f7220617070726f7665642e0000600082015250565b6000614ba8601e8361406a565b9150614bb382614b72565b602082019050919050565b60006020820190508181036000830152614bd781614b9b565b9050919050565b7f4c6576656c206d696e2e20697320000000000000000000000000000000000000815250565b6000614c0f82614bde565b600e82019150614c1f82846147d6565b915081905092915050565b7f43616e27742063616e63656c20746f2073616c652c20796f75206172656e277460008201527f207468652073656c6c6572000000000000000000000000000000000000000000602082015250565b6000614c86602b8361406a565b9150614c9182614c2a565b604082019050919050565b60006020820190508181036000830152614cb581614c79565b9050919050565b7f4f6e6c7920000000000000000000000000000000000000000000000000000000815250565b6000614ced82614cbc565b600582019150614cfd82846147d6565b915081905092915050565b7f4f6e65206d696e7420706572206163636f756e74000000000000000000000000600082015250565b6000614d3e60148361406a565b9150614d4982614d08565b602082019050919050565b60006020820190508181036000830152614d6d81614d31565b9050919050565b7f5a6f6d6269652000000000000000000000000000000000000000000000000000815250565b6000614da582614d74565b600782019150614db582846147d6565b915081905092915050565b6000614dcb82613ce6565b91507fffffffffffffffffffffffffffffffffffffffffffffffffffffffffffffffff8203614dfd57614dfc61482d565b5b600182019050919050565b6000614e1382613ce6565b9150614e1e83613ce6565b9250828201905080821115614e3657614e3561482d565b5b92915050565b7f596f757220707269636520697320746f6f206c6f770000000000000000000000600082015250565b6000614e7260158361406a565b9150614e7d82614e3c565b602082019050919050565b60006020820190508181036000830152614ea181614e65565b9050919050565b7f5a6f6d62696520617265206e6f74206f6e2073616c6500000000000000000000600082015250565b6000614ede60168361406a565b9150614ee982614ea8565b602082019050919050565b60006020820190508181036000830152614f0d81614ed1565b9050919050565b7f43616e2774206275792c20796f7520617265207468652073656c6c6572000000600082015250565b6000614f4a601d8361406a565b9150614f5582614f14565b602082019050919050565b60006020820190508181036000830152614f7981614f3d565b9050919050565b6000614f8b82613ce6565b9150614f9683613ce6565b9250828203905081811115614fae57614fad61482d565b5b92915050565b600082905092915050565b614fc98383614fb4565b67ffffffffffffffff811115614fe257614fe1613eeb565b5b614fec82546148c3565b614ff7828285614a13565b6000601f8311600181146150265760008415615014578287013590505b61501e8582614a84565b865550615086565b601f198416615034866148f4565b60005b8281101561505c57848901358255600182019150602085019450602081019050615037565b868310156150795784890135615075601f891682614a66565b8355505b6001600288020188555050505b50505050505050565b6000815461509c816148c3565b6150a681866147cb565b945060018216600081146150c157600181146150d657615109565b60ff1983168652811515820286019350615109565b6150df856148f4565b60005b83811015615101578154818901526001820191506020810190506150e2565b838801955050505b50505092915050565b7f2f00000000000000000000000000000000000000000000000000000000000000815250565b6000615144828761508f565b915061515082866147d6565b915061515b82615112565b60018201915061516b828561508f565b915061517682615112565b60018201915061518682846147d6565b915081905095945050505050565b7f49742773206e6f7420726561647920746f2061747461636b0000000000000000600082015250565b60006151ca60188361406a565b91506151d582615194565b602082019050919050565b600060208201905081810360008301526151f9816151bd565b9050919050565b6000819050919050565b61521b61521682613ce6565b615200565b82525050565b60008160601b9050919050565b600061523982615221565b9050919050565b600061524b8261522e565b9050919050565b61526361525e82613dcd565b615240565b82525050565b6000615275828661520a565b6020820191506152858285615252565b601482019150615295828461520a565b602082019150819050949350505050565b7f4e487b7100000000000000000000000000000000000000000000000000000000600052601260045260246000fd5b60006152e082613ce6565b91506152eb83613ce6565b9250826152fb576152fa6152a6565b5b828206905092915050565b6000615311826140fd565b915061ffff82036153255761532461482d565b5b600182019050919050565b600061533b826140de565b915063ffffffff82036153515761535061482d565b5b600182019050919050565b6000615367826140fd565b9150615372836140fd565b925082615382576153816152a6565b5b828206905092915050565b60006060820190506153a26000830186613cf0565b6153af6020830185613cf0565b6153bc6040830184613cf0565b949350505050565b60006040820190506153d96000830185613cf0565b6153e66020830184613cf0565b9392505050565b7f49742773206e6f7420726561647920746f206665656400000000000000000000600082015250565b600061542360168361406a565b915061542e826153ed565b602082019050919050565b6000602082019050818103600083015261545281615416565b9050919050565b7f4e487b7100000000000000000000000000000000000000000000000000000000600052603160045260246000fd5b6000819050919050565b6000819050919050565b6154ad6154a882615488565b615492565b82525050565b60006154bf82886147d6565b91506154cb828761520a565b6020820191506154db828661520a565b6020820191506154eb8285615252565b6014820191506154fb828461549c565b6020820191508190509695505050505050565b7f4e616d652063616e6e6f74206265206c65667420656d70747900000000000000600082015250565b600061554460198361406a565b915061554f8261550e565b602082019050919050565b6000602082019050818103600083015261557381615537565b9050919050565b7f444e41206d75737420626520616e20696e746567657200000000000000000000600082015250565b60006155b060168361406a565b91506155bb8261557a565b602082019050919050565b600060208201905081810360008301526155df816155a3565b9050919050565b6000604082019050818103600083015261560081856140a5565b905061560f6020830184613cf0565b9392505050565b60008160030b9050919050565b600061562e82615616565b915061563983615616565b92508282039050637fffffff81137fffffffffffffffffffffffffffffffffffffffffffffffffffffffff80000000821217156156795761567861482d565b5b92915050565b600061568a826140de565b9150615695836140de565b92508282026156a3816140de565b91508082146156b5576156b461482d565b5b5092915050565b60006156c782615616565b91507fffffffffffffffffffffffffffffffffffffffffffffffffffffffff8000000082036156f9576156f861482d565b5b816000039050919050565b600061570f82613ce6565b915061571a83613ce6565b925082820261572881613ce6565b9150828204841483151761573f5761573e61482d565b5b5092915050565b600061575182613ce6565b915061575c83613ce6565b92508261576c5761576b6152a6565b5b828204905092915050565b6000615782826140fd565b915061578d836140fd565b925082820261579b816140fd565b91508082146157ad576157ac61482d565b5b5092915050565b60006157bf826140de565b91506157ca836140de565b9250828203905063ffffffff8111156157e6576157e561482d565b5b92915050565b7f6b69747479000000000000000000000000000000000000000000000000000000600082015250565b60006158226005836147cb565b915061582d826157ec565b600582019050919050565b600061584382615815565b9150819050919050565b600061585982846147d6565b91508190509291505056fea2646970667358221220e3b66ae792e14f7513e066c97cb711b223c58f511c2a5cf5b0cfa44eafc5946a64736f6c634300081c0033687474703a2f2f6c6f63616c686f73743a333333332f7a6f6d6269652f7572692f",
  "linkReferences": {},
  "deployedLinkReferences": {}
}