{
  "_format": "hh-sol-artifact-1",
  "contractName": "CryptoZombies",
  "sourceName": "contracts/cryptoZombies/CryptoZombies.sol",
  "abi": [
    {
      "anonymous": false,
      "inputs": [
        {
          "indexed": true,
          "internalType": "address",
          "name": "_owner",
          "type": "address"
        },
        {
          "indexed": true,
          "internalType": "address",
          "name": "_approved",
          "type": "address"
        },
        {
          "indexed": true,
          "internalType": "uint256",
          "name": "_tokenId",
          "type": "uint256"
        }
      ],
      "name": "Approval",
      "type": "event"
    },
    {
      "anonymous": false,
      "inputs": [
        {
          "indexed": true,
          "internalType": "uint256",
          "name": "zombieId",
          "type": "uint256"
        },
        {
          "indexed": true,
          "internalType": "address",
          "name": "buyer",
          "type": "address"
        },
        {
          "indexed": true,
          "internalType": "address",
          "name": "seller",
          "type": "address"
        }
      ],
      "name": "BuyZombie",
      "type": "event"
    },
    {
      "anonymous": false,
      "inputs": [
        {
          "indexed": true,
          "internalType": "uint256",
          "name": "zombieId",
          "type": "uint256"
        },
        {
          "indexed": true,
          "internalType": "address",
          "name": "seller",
          "type": "address"
        }
      ],
      "name": "CancelSaleZombie",
      "type": "event"
    },
    {
      "anonymous": false,
      "inputs": [
        {
          "indexed": true,
          "internalType": "address",
          "name": "from",
          "type": "address"
        },
        {
          "indexed": true,
          "internalType": "uint256",
          "name": "zombieId",
          "type": "uint256"
        },
        {
          "indexed": false,
          "internalType": "string",
          "name": "name",
          "type": "string"
        },
        {
          "indexed": false,
          "internalType": "uint256",
          "name": "dna",
          "type": "uint256"
        }
      ],
      "name": "NewZombie",
      "type": "event"
    },
    {
      "anonymous": false,
      "inputs": [
        {
          "indexed": true,
          "internalType": "address",
          "name": "previousOwner",
          "type": "address"
        },
        {
          "indexed": true,
          "internalType": "address",
          "name": "newOwner",
          "type": "address"
        }
      ],
      "name": "OwnershipTransferred",
      "type": "event"
    },
    {
      "anonymous": false,
      "inputs": [
        {
          "indexed": true,
          "internalType": "uint256",
          "name": "zombieId",
          "type": "uint256"
        },
        {
          "indexed": true,
          "internalType": "uint256",
          "name": "price",
          "type": "uint256"
        },
        {
          "indexed": true,
          "internalType": "address",
          "name": "seller",
          "type": "address"
        }
      ],
      "name": "SaleZombie",
      "type": "event"
    },
    {
      "anonymous": false,
      "inputs": [
        {
          "indexed": true,
          "internalType": "address",
          "name": "_from",
          "type": "address"
        },
        {
          "indexed": true,
          "internalType": "address",
          "name": "_to",
          "type": "address"
        },
        {
          "indexed": true,
          "internalType": "uint256",
          "name": "_tokenId",
          "type": "uint256"
        }
      ],
      "name": "Transfer",
      "type": "event"
    },
    {
      "anonymous": false,
      "inputs": [
        {
          "indexed": true,
          "internalType": "address",
          "name": "from",
          "type": "address"
        },
        {
          "indexed": false,
          "internalType": "uint256",
          "name": "fromId",
          "type": "uint256"
        },
        {
          "indexed": false,
          "internalType": "uint256",
          "name": "targetId",
          "type": "uint256"
        }
      ],
      "name": "onAttackDefeat",
      "type": "event"
    },
    {
      "anonymous": false,
      "inputs": [
        {
          "indexed": true,
          "internalType": "address",
          "name": "from",
          "type": "address"
        },
        {
          "indexed": false,
          "internalType": "uint256",
          "name": "fromId",
          "type": "uint256"
        },
        {
          "indexed": false,
          "internalType": "uint256",
          "name": "targetId",
          "type": "uint256"
        },
        {
          "indexed": false,
          "internalType": "uint256",
          "name": "newDna",
          "type": "uint256"
        }
      ],
      "name": "onAttackVitory",
      "type": "event"
    },
    {
      "anonymous": false,
      "inputs": [
        {
          "indexed": true,
          "internalType": "address",
          "name": "from",
          "type": "address"
        },
        {
          "indexed": false,
          "internalType": "uint256",
          "name": "fromDna",
          "type": "uint256"
        },
        {
          "indexed": false,
          "internalType": "uint256",
          "name": "targetDna",
          "type": "uint256"
        },
        {
          "indexed": false,
          "internalType": "uint256",
          "name": "_kittyId",
          "type": "uint256"
        },
        {
          "indexed": false,
          "internalType": "uint256",
          "name": "newDna",
          "type": "uint256"
        }
      ],
      "name": "onFeed",
      "type": "event"
    },
    {
      "inputs": [
        {
          "internalType": "uint256",
          "name": "",
          "type": "uint256"
        }
      ],
      "name": "accounts",
      "outputs": [
        {
          "internalType": "address",
          "name": "",
          "type": "address"
        }
      ],
      "stateMutability": "view",
      "type": "function"
    },
    {
      "inputs": [
        {
          "internalType": "address",
          "name": "_approved",
          "type": "address"
        },
        {
          "internalType": "uint256",
          "name": "_tokenId",
          "type": "uint256"
        }
      ],
      "name": "approve",
      "outputs": [],
      "stateMutability": "payable",
      "type": "function"
    },
    {
      "inputs": [
        {
          "internalType": "uint256",
          "name": "_zombieId",
          "type": "uint256"
        },
        {
          "internalType": "uint256",
          "name": "_targetId",
          "type": "uint256"
        }
      ],
      "name": "attack",
      "outputs": [],
      "stateMutability": "nonpayable",
      "type": "function"
    },
    {
      "inputs": [],
      "name": "balance",
      "outputs": [
        {
          "internalType": "uint256",
          "name": "",
          "type": "uint256"
        }
      ],
      "stateMutability": "view",
      "type": "function"
    },
    {
      "inputs": [
        {
          "internalType": "address",
          "name": "_owner",
          "type": "address"
        }
      ],
      "name": "balanceOf",
      "outputs": [
        {
          "internalType": "uint256",
          "name": "",
          "type": "uint256"
        }
      ],
      "stateMutability": "view",
      "type": "function"
    },
    {
      "inputs": [],
      "name": "baseUrlTokenURI",
      "outputs": [
        {
          "internalType": "string",
          "name": "",
          "type": "string"
        }
      ],
      "stateMutability": "view",
      "type": "function"
    },
    {
      "inputs": [
        {
          "internalType": "uint256",
          "name": "zombieId",
          "type": "uint256"
        }
      ],
      "name": "buyZombie",
      "outputs": [],
      "stateMutability": "payable",
      "type": "function"
    },
    {
      "inputs": [
        {
          "internalType": "uint256",
          "name": "zombieId",
          "type": "uint256"
        }
      ],
      "name": "cancelSaleZombie",
      "outputs": [],
      "stateMutability": "nonpayable",
      "type": "function"
    },
    {
      "inputs": [],
      "name": "changeDNAFee",
      "outputs": [
        {
          "internalType": "uint256",
          "name": "",
          "type": "uint256"
        }
      ],
      "stateMutability": "view",
      "type": "function"
    },
    {
      "inputs": [
        {
          "internalType": "uint256",
          "name": "_zombieId",
          "type": "uint256"
        },
        {
          "internalType": "uint256",
          "name": "_newDna",
          "type": "uint256"
        }
      ],
      "name": "changeDna",
      "outputs": [],
      "stateMutability": "payable",
      "type": "function"
    },
    {
      "inputs": [
        {
          "internalType": "uint256",
          "name": "_zombieId",
          "type": "uint256"
        },
        {
          "internalType": "string",
          "name": "_newName",
          "type": "string"
        }
      ],
      "name": "changeName",
      "outputs": [],
      "stateMutability": "payable",
      "type": "function"
    },
    {
      "inputs": [],
      "name": "changeNameFee",
      "outputs": [
        {
          "internalType": "uint256",
          "name": "",
          "type": "uint256"
        }
      ],
      "stateMutability": "view",
      "type": "function"
    },
    {
      "inputs": [],
      "name": "cooldownTimeAttack",
      "outputs": [
        {
          "internalType": "uint256",
          "name": "",
          "type": "uint256"
        }
      ],
      "stateMutability": "view",
      "type": "function"
    },
    {
      "inputs": [],
      "name": "cooldownTimeFeeding",
      "outputs": [
        {
          "internalType": "uint256",
          "name": "",
          "type": "uint256"
        }
      ],
      "stateMutability": "view",
      "type": "function"
    },
    {
      "inputs": [
        {
          "internalType": "uint256",
          "name": "_zombieId",
          "type": "uint256"
        },
        {
          "internalType": "uint256",
          "name": "_kittyDna",
          "type": "uint256"
        },
        {
          "internalType": "uint256",
          "name": "_kittyId",
          "type": "uint256"
        }
      ],
      "name": "feedOnKitty",
      "outputs": [],
      "stateMutability": "nonpayable",
      "type": "function"
    },
    {
      "inputs": [],
      "name": "getAccounts",
      "outputs": [
        {
          "internalType": "address[]",
          "name": "",
          "type": "address[]"
        }
      ],
      "stateMutability": "view",
      "type": "function"
    },
    {
      "inputs": [],
      "name": "getAllZombiesInShop",
      "outputs": [
        {
          "components": [
            {
              "internalType": "address payable",
              "name": "seller",
              "type": "address"
            },
            {
              "internalType": "uint256",
              "name": "zombieId",
              "type": "uint256"
            },
            {
              "internalType": "uint256",
              "name": "price",
              "type": "uint256"
            }
          ],
          "internalType": "struct ZombieMarket.ZombieSale[]",
          "name": "",
          "type": "tuple[]"
        }
      ],
      "stateMutability": "view",
      "type": "function"
    },
    {
      "inputs": [
        {
          "internalType": "uint256",
          "name": "_zombieId",
          "type": "uint256"
        }
      ],
      "name": "getZombieByIdInSale",
      "outputs": [
        {
          "components": [
            {
              "internalType": "address payable",
              "name": "seller",
              "type": "address"
            },
            {
              "internalType": "uint256",
              "name": "zombieId",
              "type": "uint256"
            },
            {
              "internalType": "uint256",
              "name": "price",
              "type": "uint256"
            }
          ],
          "internalType": "struct ZombieMarket.ZombieSale",
          "name": "",
          "type": "tuple"
        }
      ],
      "stateMutability": "view",
      "type": "function"
    },
    {
      "inputs": [
        {
          "internalType": "address",
          "name": "_owner",
          "type": "address"
        }
      ],
      "name": "getZombiesByOwner",
      "outputs": [
        {
          "internalType": "uint256[]",
          "name": "",
          "type": "uint256[]"
        }
      ],
      "stateMutability": "view",
      "type": "function"
    },
    {
      "inputs": [],
      "name": "isOwner",
      "outputs": [
        {
          "internalType": "bool",
          "name": "",
          "type": "bool"
        }
      ],
      "stateMutability": "view",
      "type": "function"
    },
    {
      "inputs": [
        {
          "internalType": "uint256",
          "name": "_zombieId",
          "type": "uint256"
        }
      ],
      "name": "levelUp",
      "outputs": [],
      "stateMutability": "payable",
      "type": "function"
    },
    {
      "inputs": [],
      "name": "levelUpFee",
      "outputs": [
        {
          "internalType": "uint256",
          "name": "",
          "type": "uint256"
        }
      ],
      "stateMutability": "view",
      "type": "function"
    },
    {
      "inputs": [],
      "name": "minPrice",
      "outputs": [
        {
          "internalType": "uint256",
          "name": "",
          "type": "uint256"
        }
      ],
      "stateMutability": "view",
      "type": "function"
    },
    {
      "inputs": [
        {
          "internalType": "string",
          "name": "_name",
          "type": "string"
        }
      ],
      "name": "mint",
      "outputs": [],
      "stateMutability": "payable",
      "type": "function"
    },
    {
      "inputs": [],
      "name": "mintFee",
      "outputs": [
        {
          "internalType": "uint256",
          "name": "",
          "type": "uint256"
        }
      ],
      "stateMutability": "view",
      "type": "function"
    },
    {
      "inputs": [],
      "name": "mintFree",
      "outputs": [],
      "stateMutability": "nonpayable",
      "type": "function"
    },
    {
      "inputs": [],
      "name": "mintFreeLimit",
      "outputs": [
        {
          "internalType": "uint256",
          "name": "",
          "type": "uint256"
        }
      ],
      "stateMutability": "view",
      "type": "function"
    },
    {
      "inputs": [],
      "name": "mintedFreeCount",
      "outputs": [
        {
          "internalType": "uint256",
          "name": "",
          "type": "uint256"
        }
      ],
      "stateMutability": "view",
      "type": "function"
    },
    {
      "inputs": [],
      "name": "owner",
      "outputs": [
        {
          "internalType": "address",
          "name": "",
          "type": "address"
        }
      ],
      "stateMutability": "view",
      "type": "function"
    },
    {
      "inputs": [
        {
          "internalType": "uint256",
          "name": "_tokenId",
          "type": "uint256"
        }
      ],
      "name": "ownerOf",
      "outputs": [
        {
          "internalType": "address",
          "name": "",
          "type": "address"
        }
      ],
      "stateMutability": "view",
      "type": "function"
    },
    {
      "inputs": [],
      "name": "renounceOwnership",
      "outputs": [],
      "stateMutability": "nonpayable",
      "type": "function"
    },
    {
      "inputs": [
        {
          "internalType": "uint256",
          "name": "zombieId",
          "type": "uint256"
        },
        {
          "internalType": "uint256",
          "name": "price",
          "type": "uint256"
        }
      ],
      "name": "saleZombie",
      "outputs": [],
      "stateMutability": "nonpayable",
      "type": "function"
    },
    {
      "inputs": [
        {
          "internalType": "string",
          "name": "_baseUrlTokenURI",
          "type": "string"
        }
      ],
      "name": "setBaseUrlTokenURI",
      "outputs": [],
      "stateMutability": "nonpayable",
      "type": "function"
    },
    {
      "inputs": [
        {
          "internalType": "uint256",
          "name": "_fee",
          "type": "uint256"
        }
      ],
      "name": "setChangeDNAFee",
      "outputs": [],
      "stateMutability": "nonpayable",
      "type": "function"
    },
    {
      "inputs": [
        {
          "internalType": "uint256",
          "name": "_fee",
          "type": "uint256"
        }
      ],
      "name": "setChangeNameFee",
      "outputs": [],
      "stateMutability": "nonpayable",
      "type": "function"
    },
    {
      "inputs": [
        {
          "internalType": "uint256",
          "name": "_cooldownTime",
          "type": "uint256"
        }
      ],
      "name": "setCooldownTimeAttack",
      "outputs": [],
      "stateMutability": "nonpayable",
      "type": "function"
    },
    {
      "inputs": [
        {
          "internalType": "uint256",
          "name": "_cooldownTime",
          "type": "uint256"
        }
      ],
      "name": "setCooldownTimeFeeding",
      "outputs": [],
      "stateMutability": "nonpayable",
      "type": "function"
    },
    {
      "inputs": [
        {
          "internalType": "uint256",
          "name": "_fee",
          "type": "uint256"
        }
      ],
      "name": "setLevelUpFee",
      "outputs": [],
      "stateMutability": "nonpayable",
      "type": "function"
    },
    {
      "inputs": [
        {
          "internalType": "uint256",
          "name": "value",
          "type": "uint256"
        }
      ],
      "name": "setMinPrice",
      "outputs": [],
      "stateMutability": "nonpayable",
      "type": "function"
    },
    {
      "inputs": [
        {
          "internalType": "uint256",
          "name": "_mintFee",
          "type": "uint256"
        }
      ],
      "name": "setMintFee",
      "outputs": [],
      "stateMutability": "nonpayable",
      "type": "function"
    },
    {
      "inputs": [
        {
          "internalType": "uint256",
          "name": "value",
          "type": "uint256"
        }
      ],
      "name": "setTax",
      "outputs": [],
      "stateMutability": "nonpayable",
      "type": "function"
    },
    {
      "inputs": [
        {
          "internalType": "uint8",
          "name": "_totalAttackVictoryToGetReward",
          "type": "uint8"
        }
      ],
      "name": "setTotalAttackVictoryToGetReward",
      "outputs": [],
      "stateMutability": "nonpayable",
      "type": "function"
    },
    {
      "inputs": [
        {
          "internalType": "uint8",
          "name": "_totalFedToGetReward",
          "type": "uint8"
        }
      ],
      "name": "setTotalFedToGetReward",
      "outputs": [],
      "stateMutability": "nonpayable",
      "type": "function"
    },
    {
      "inputs": [],
      "name": "tax",
      "outputs": [
        {
          "internalType": "uint256",
          "name": "",
          "type": "uint256"
        }
      ],
      "stateMutability": "view",
      "type": "function"
    },
    {
      "inputs": [
        {
          "internalType": "uint256",
          "name": "_tokenId",
          "type": "uint256"
        }
      ],
      "name": "tokenURI",
      "outputs": [
        {
          "internalType": "string",
          "name": "",
          "type": "string"
        }
      ],
      "stateMutability": "view",
      "type": "function"
    },
    {
      "inputs": [],
      "name": "totalAttackVictoryToGetReward",
      "outputs": [
        {
          "internalType": "uint8",
          "name": "",
          "type": "uint8"
        }
      ],
      "stateMutability": "view",
      "type": "function"
    },
    {
      "inputs": [],
      "name": "totalFedToGetReward",
      "outputs": [
        {
          "internalType": "uint8",
          "name": "",
          "type": "uint8"
        }
      ],
      "stateMutability": "view",
      "type": "function"
    },
    {
      "inputs": [
        {
          "internalType": "address",
          "name": "_from",
          "type": "address"
        },
        {
          "internalType": "address",
          "name": "_to",
          "type": "address"
        },
        {
          "internalType": "uint256",
          "name": "_tokenId",
          "type": "uint256"
        }
      ],
      "name": "transferFrom",
      "outputs": [],
      "stateMutability": "payable",
      "type": "function"
    },
    {
      "inputs": [
        {
          "internalType": "address",
          "name": "newOwner",
          "type": "address"
        }
      ],
      "name": "transferOwnership",
      "outputs": [],
      "stateMutability": "nonpayable",
      "type": "function"
    },
    {
      "inputs": [],
      "name": "withdraw",
      "outputs": [],
      "stateMutability": "nonpayable",
      "type": "function"
    },
    {
      "inputs": [
        {
          "internalType": "uint256",
          "name": "",
          "type": "uint256"
        }
      ],
      "name": "zombieIdToSale",
      "outputs": [
        {
          "internalType": "address payable",
          "name": "seller",
          "type": "address"
        },
        {
          "internalType": "uint256",
          "name": "zombieId",
          "type": "uint256"
        },
        {
          "internalType": "uint256",
          "name": "price",
          "type": "uint256"
        }
      ],
      "stateMutability": "view",
      "type": "function"
    },
    {
      "inputs": [
        {
          "internalType": "uint256",
          "name": "",
          "type": "uint256"
        }
      ],
      "name": "zombieSales",
      "outputs": [
        {
          "internalType": "address payable",
          "name": "seller",
          "type": "address"
        },
        {
          "internalType": "uint256",
          "name": "zombieId",
          "type": "uint256"
        },
        {
          "internalType": "uint256",
          "name": "price",
          "type": "uint256"
        }
      ],
      "stateMutability": "view",
      "type": "function"
    },
    {
      "inputs": [
        {
          "internalType": "uint256",
          "name": "",
          "type": "uint256"
        }
      ],
      "name": "zombieToOwner",
      "outputs": [
        {
          "internalType": "address",
          "name": "",
          "type": "address"
        }
      ],
      "stateMutability": "view",
      "type": "function"
    },
    {
      "inputs": [
        {
          "internalType": "uint256",
          "name": "",
          "type": "uint256"
        }
      ],
      "name": "zombies",
      "outputs": [
        {
          "internalType": "string",
          "name": "name",
          "type": "string"
        },
        {
          "internalType": "uint256",
          "name": "dna",
          "type": "uint256"
        },
        {
          "internalType": "uint256",
          "name": "score",
          "type": "uint256"
        },
        {
          "internalType": "uint32",
          "name": "birthTime",
          "type": "uint32"
        },
        {
          "internalType": "uint32",
          "name": "level",
          "type": "uint32"
        },
        {
          "internalType": "uint32",
          "name": "attackReadyTime",
          "type": "uint32"
        },
        {
          "internalType": "uint32",
          "name": "fedReadyTime",
          "type": "uint32"
        },
        {
          "internalType": "uint16",
          "name": "winCount",
          "type": "uint16"
        },
        {
          "internalType": "uint16",
          "name": "lossCount",
          "type": "uint16"
        },
        {
          "internalType": "uint16",
          "name": "fedCount",
          "type": "uint16"
        }
      ],
      "stateMutability": "view",
      "type": "function"
    }
  ],
  "bytecode": "0x608060405260006001556010600255600254600a61001d9190610318565b6003556113886004556000600555660aa87bee538000600655603c600755603c6008556007600960006101000a81548160ff021916908360ff160217905550600a600960016101000a81548160ff021916908360ff16021790555066038d7ea4c68000600f5566071afd498d0000601055660e35fa931a000060115560006012556032601355604051806060016040528060218152602001615fe060219139601490816100ca91906105a9565b50655af3107a4000601655655af3107a40006017553480156100eb57600080fd5b50336000806101000a81548173ffffffffffffffffffffffffffffffffffffffff021916908373ffffffffffffffffffffffffffffffffffffffff16021790555060008054906101000a900473ffffffffffffffffffffffffffffffffffffffff1673ffffffffffffffffffffffffffffffffffffffff16600073ffffffffffffffffffffffffffffffffffffffff167f8be0079c531659141344cd1fd0a4f28419497f9722a3daafe3b4186f6b6457e060405160405180910390a361067b565b7f4e487b7100000000000000000000000000000000000000000000000000000000600052601160045260246000fd5b60008160011c9050919050565b6000808291508390505b60018511156102325780860481111561020e5761020d6101ac565b5b600185161561021d5780820291505b808102905061022b856101db565b94506101f2565b94509492505050565b60008261024b5760019050610307565b816102595760009050610307565b816001811461026f5760028114610279576102a8565b6001915050610307565b60ff84111561028b5761028a6101ac565b5b8360020a9150848211156102a2576102a16101ac565b5b50610307565b5060208310610133831016604e8410600b84101617156102dd5782820a9050838111156102d8576102d76101ac565b5b610307565b6102ea84848460016101e8565b92509050818404811115610301576103006101ac565b5b81810290505b9392505050565b6000819050919050565b60006103238261030e565b915061032e8361030e565b925061035b7fffffffffffffffffffffffffffffffffffffffffffffffffffffffffffffffff848461023b565b905092915050565b600081519050919050565b7f4e487b7100000000000000000000000000000000000000000000000000000000600052604160045260246000fd5b7f4e487b7100000000000000000000000000000000000000000000000000000000600052602260045260246000fd5b600060028204905060018216806103e457607f821691505b6020821081036103f7576103f661039d565b5b50919050565b60008190508160005260206000209050919050565b60006020601f8301049050919050565b600082821b905092915050565b60006008830261045f7fffffffffffffffffffffffffffffffffffffffffffffffffffffffffffffffff82610422565b6104698683610422565b95508019841693508086168417925050509392505050565b6000819050919050565b60006104a66104a161049c8461030e565b610481565b61030e565b9050919050565b6000819050919050565b6104c08361048b565b6104d46104cc826104ad565b84845461042f565b825550505050565b600090565b6104e96104dc565b6104f48184846104b7565b505050565b5b818110156105185761050d6000826104e1565b6001810190506104fa565b5050565b601f82111561055d5761052e816103fd565b61053784610412565b81016020851015610546578190505b61055a61055285610412565b8301826104f9565b50505b505050565b600082821c905092915050565b600061058060001984600802610562565b1980831691505092915050565b6000610599838361056f565b9150826002028217905092915050565b6105b282610363565b67ffffffffffffffff8111156105cb576105ca61036e565b5b6105d582546103cc565b6105e082828561051c565b600060209050601f8311600181146106135760008415610601578287015190505b61060b858261058d565b865550610673565b601f198416610621866103fd565b60005b8281101561064957848901518255600182019150602085019450602081019050610624565b868310156106665784890151610662601f89168261056f565b8355505b6001600288020188555050505b505050505050565b6159568061068a6000396000f3fe6080604052600436106103355760003560e01c8063715018a6116101ab578063c39cbef1116100f7578063df20b3de11610095578063eddd0d9c1161006f578063eddd0d9c14610b90578063f2a40db814610bb9578063f2fde38b14610bf6578063f77de3a114610c1f57610335565b8063df20b3de14610afd578063e1fa763814610b3c578063e45be8eb14610b6557610335565b8063c87b56dd116100d1578063c87b56dd14610a3e578063ccf670f814610a7b578063d85d3d2714610aa4578063dedaee9414610ac057610335565b8063c39cbef1146109ce578063c4114b12146109ea578063c859f31714610a1557610335565b80638da5cb5b11610164578063a527d6151161013e578063a527d61514610933578063b69ef8a81461095c578063b92e2d7414610987578063bcad1fde146109a357610335565b80638da5cb5b146108b25780638f32d59b146108dd57806399c8d5561461090857610335565b8063715018a6146107dc57806374e729f7146107f35780637a8936c11461081e578063811d1367146108475780638a48ac03146108705780638ab534471461089b57610335565b80634a10565a116102855780636352211e11610223578063705668f7116101fd578063705668f71461072057806370a082311461074b57806370acbb631461078857806370f47cf9146107b357610335565b80636352211e1461069157806369c8e14c146106ce5780636be17f0e146106f757610335565b806354c92c5f1161025f57806354c92c5f146105f65780635625d6d7146106215780635ea8cd121461064c5780635faf28801461067557610335565b80634a10565a146105635780634f0951661461058e578063528b7b8f146105b957610335565b80631919b7e6116102f25780632e5bb6ff116102cc5780632e5bb6ff146104bb5780633ccfd60b146104e45780634412e104146104fb57806349cee8e71461053857610335565b80631919b7e6146104305780632052465e1461045957806323b872dd1461049f57610335565b8063021cbcae1461033a57806306f3376014610365578063095ea7b31461038e5780630ce90ec2146103aa57806313966db5146103c657806313974680146103f1575b600080fd5b34801561034657600080fd5b5061034f610c48565b60405161035c9190613d5e565b60405180910390f35b34801561037157600080fd5b5061038c60048036038101906103879190613db9565b610c4e565b005b6103a860048036038101906103a39190613e6a565b610d17565b005b6103c460048036038101906103bf9190613eaa565b610e35565b005b3480156103d257600080fd5b506103db610f9c565b6040516103e89190613d5e565b60405180910390f35b3480156103fd57600080fd5b5061041860048036038101906104139190613eaa565b610fa2565b60405161042793929190613ef8565b60405180910390f35b34801561043c57600080fd5b5061045760048036038101906104529190614075565b610ffc565b005b34801561046557600080fd5b50610480600480360381019061047b9190613eaa565b611020565b6040516104969a99989796959493929190614179565b60405180910390f35b6104b960048036038101906104b4919061421c565b611176565b005b3480156104c757600080fd5b506104e260048036038101906104dd9190613eaa565b611290565b005b3480156104f057600080fd5b506104f96112ab565b005b34801561050757600080fd5b50610522600480360381019061051d919061426f565b611312565b60405161052f919061435a565b60405180910390f35b34801561054457600080fd5b5061054d611324565b60405161055a9190614398565b60405180910390f35b34801561056f57600080fd5b50610578611337565b6040516105859190613d5e565b60405180910390f35b34801561059a57600080fd5b506105a361133d565b6040516105b09190613d5e565b60405180910390f35b3480156105c557600080fd5b506105e060048036038101906105db9190613eaa565b611343565b6040516105ed91906143c2565b60405180910390f35b34801561060257600080fd5b5061060b611376565b60405161061891906143dd565b60405180910390f35b34801561062d57600080fd5b50610636611404565b6040516106439190613d5e565b60405180910390f35b34801561065857600080fd5b50610673600480360381019061066e9190613eaa565b61140a565b005b61068f600480360381019061068a91906143ff565b611425565b005b34801561069d57600080fd5b506106b860048036038101906106b39190613eaa565b6115e0565b6040516106c591906143c2565b60405180910390f35b3480156106da57600080fd5b506106f560048036038101906106f0919061446b565b61161d565b005b34801561070357600080fd5b5061071e60048036038101906107199190613eaa565b61164c565b005b34801561072c57600080fd5b50610735611667565b6040516107429190614598565b60405180910390f35b34801561075757600080fd5b50610772600480360381019061076d919061426f565b611730565b60405161077f9190613d5e565b60405180910390f35b34801561079457600080fd5b5061079d611779565b6040516107aa9190613d5e565b60405180910390f35b3480156107bf57600080fd5b506107da60048036038101906107d59190613eaa565b61177f565b005b3480156107e857600080fd5b506107f161179a565b005b3480156107ff57600080fd5b50610808611869565b6040516108159190614398565b60405180910390f35b34801561082a57600080fd5b5061084560048036038101906108409190613eaa565b61187c565b005b34801561085357600080fd5b5061086e60048036038101906108699190613eaa565b611897565b005b34801561087c57600080fd5b506108856119f8565b6040516108929190614678565b60405180910390f35b3480156108a757600080fd5b506108b0611a86565b005b3480156108be57600080fd5b506108c7611c48565b6040516108d491906143c2565b60405180910390f35b3480156108e957600080fd5b506108f2611c71565b6040516108ff91906146b5565b60405180910390f35b34801561091457600080fd5b5061091d611cc8565b60405161092a9190613d5e565b60405180910390f35b34801561093f57600080fd5b5061095a600480360381019061095591906143ff565b611cce565b005b34801561096857600080fd5b50610971611f07565b60405161097e9190613d5e565b60405180910390f35b6109a1600480360381019061099c9190613eaa565b611f20565b005b3480156109af57600080fd5b506109b86121b4565b6040516109c59190613d5e565b60405180910390f35b6109e860048036038101906109e39190614730565b6121ba565b005b3480156109f657600080fd5b506109ff612381565b604051610a0c9190613d5e565b60405180910390f35b348015610a2157600080fd5b50610a3c6004803603810190610a37919061446b565b612387565b005b348015610a4a57600080fd5b50610a656004803603810190610a609190613eaa565b6123b6565b604051610a7291906143dd565b60405180910390f35b348015610a8757600080fd5b50610aa26004803603810190610a9d9190613eaa565b612424565b005b610abe6004803603810190610ab99190614075565b61243f565b005b348015610acc57600080fd5b50610ae76004803603810190610ae29190613eaa565b6124d5565b604051610af491906147d2565b60405180910390f35b348015610b0957600080fd5b50610b246004803603810190610b1f9190613eaa565b61256c565b604051610b3393929190613ef8565b60405180910390f35b348015610b4857600080fd5b50610b636004803603810190610b5e91906143ff565b6125b6565b005b348015610b7157600080fd5b50610b7a6129a6565b604051610b879190613d5e565b60405180910390f35b348015610b9c57600080fd5b50610bb76004803603810190610bb29190613eaa565b6129ac565b005b348015610bc557600080fd5b50610be06004803603810190610bdb9190613eaa565b6129c7565b604051610bed91906143c2565b60405180910390f35b348015610c0257600080fd5b50610c1d6004803603810190610c18919061426f565b612a06565b005b348015610c2b57600080fd5b50610c466004803603810190610c419190613eaa565b612a23565b005b60055481565b6000600a8481548110610c6457610c636147ed565b5b906000526020600020906004020190506000610cb685856040518060400160405280600581526020017f6b69747479000000000000000000000000000000000000000000000000000000815250612a3e565b90503373ffffffffffffffffffffffffffffffffffffffff167f94bd9f81959636fb1ddd32f8bcbdab8b649d20a6a464f759a1aa7f7cf4447fac8360010154868685604051610d08949392919061481c565b60405180910390a25050505050565b80600c600082815260200190815260200160002060009054906101000a900473ffffffffffffffffffffffffffffffffffffffff1673ffffffffffffffffffffffffffffffffffffffff163373ffffffffffffffffffffffffffffffffffffffff1614610d8357600080fd5b826015600084815260200190815260200160002060006101000a81548173ffffffffffffffffffffffffffffffffffffffff021916908373ffffffffffffffffffffffffffffffffffffffff160217905550818373ffffffffffffffffffffffffffffffffffffffff163373ffffffffffffffffffffffffffffffffffffffff167f8c5be1e5ebec7d5bd14f71427d1e84f3dd0314c0f7b2291e5b200ac8c7c3b92560405160405180910390a4505050565b600f5480341015610e4582612bbc565b604051602001610e5591906148c3565b60405160208183030381529060405290610ea5576040517f08c379a0000000000000000000000000000000000000000000000000000000008152600401610e9c91906143dd565b60405180910390fd5b5081600c600082815260200190815260200160002060009054906101000a900473ffffffffffffffffffffffffffffffffffffffff1673ffffffffffffffffffffffffffffffffffffffff163373ffffffffffffffffffffffffffffffffffffffff1614610f1257600080fd5b6001600a8481548110610f2857610f276147ed565b5b906000526020600020906004020160030160049054906101000a900463ffffffff16610f549190614918565b600a8481548110610f6857610f676147ed565b5b906000526020600020906004020160030160046101000a81548163ffffffff021916908363ffffffff160217905550505050565b60065481565b60188181548110610fb257600080fd5b90600052602060002090600302016000915090508060000160009054906101000a900473ffffffffffffffffffffffffffffffffffffffff16908060010154908060020154905083565b611004611c71565b61100d57600080fd5b806014908161101c9190614b5c565b5050565b600a818154811061103057600080fd5b90600052602060002090600402016000915090508060000180546110539061497f565b80601f016020809104026020016040519081016040528092919081815260200182805461107f9061497f565b80156110cc5780601f106110a1576101008083540402835291602001916110cc565b820191906000526020600020905b8154815290600101906020018083116110af57829003601f168201915b5050505050908060010154908060020154908060030160009054906101000a900463ffffffff16908060030160049054906101000a900463ffffffff16908060030160089054906101000a900463ffffffff169080600301600c9054906101000a900463ffffffff16908060030160109054906101000a900461ffff16908060030160129054906101000a900461ffff16908060030160149054906101000a900461ffff1690508a565b3373ffffffffffffffffffffffffffffffffffffffff16600c600083815260200190815260200160002060009054906101000a900473ffffffffffffffffffffffffffffffffffffffff1673ffffffffffffffffffffffffffffffffffffffff16148061124157503373ffffffffffffffffffffffffffffffffffffffff166015600083815260200190815260200160002060009054906101000a900473ffffffffffffffffffffffffffffffffffffffff1673ffffffffffffffffffffffffffffffffffffffff16145b611280576040517f08c379a000000000000000000000000000000000000000000000000000000000815260040161127790614c7a565b60405180910390fd5b61128b838383612c8a565b505050565b611298611c71565b6112a157600080fd5b8060168190555050565b6112b3611c71565b6112bc57600080fd5b60006112c6611c48565b90508073ffffffffffffffffffffffffffffffffffffffff166108fc479081150290604051600060405180830381858888f1935050505015801561130e573d6000803e3d6000fd5b5050565b606061131d82612e5a565b9050919050565b600960009054906101000a900460ff1681565b60045481565b60105481565b600c6020528060005260406000206000915054906101000a900473ffffffffffffffffffffffffffffffffffffffff1681565b601480546113839061497f565b80601f01602080910402602001604051908101604052809291908181526020018280546113af9061497f565b80156113fc5780601f106113d1576101008083540402835291602001916113fc565b820191906000526020600020905b8154815290600101906020018083116113df57829003601f168201915b505050505081565b60075481565b611412611c71565b61141b57600080fd5b8060178190555050565b6011548034101561143582612bbc565b60405160200161144591906148c3565b60405160208183030381529060405290611495576040517f08c379a000000000000000000000000000000000000000000000000000000000815260040161148c91906143dd565b60405180910390fd5b5060148381600a82815481106114ae576114ad6147ed565b5b906000526020600020906004020160030160049054906101000a900463ffffffff1663ffffffff1610156114e183612bbc565b6040516020016114f19190614cc0565b60405160208183030381529060405290611541576040517f08c379a000000000000000000000000000000000000000000000000000000000815260040161153891906143dd565b60405180910390fd5b5084600c600082815260200190815260200160002060009054906101000a900473ffffffffffffffffffffffffffffffffffffffff1673ffffffffffffffffffffffffffffffffffffffff163373ffffffffffffffffffffffffffffffffffffffff16146115ae57600080fd5b84600a87815481106115c3576115c26147ed565b5b906000526020600020906004020160010181905550505050505050565b6000600c600083815260200190815260200160002060009054906101000a900473ffffffffffffffffffffffffffffffffffffffff169050919050565b611625611c71565b61162e57600080fd5b80600960006101000a81548160ff021916908360ff16021790555050565b611654611c71565b61165d57600080fd5b8060108190555050565b60606018805480602002602001604051908101604052809291908181526020016000905b8282101561172757838290600052602060002090600302016040518060600160405290816000820160009054906101000a900473ffffffffffffffffffffffffffffffffffffffff1673ffffffffffffffffffffffffffffffffffffffff1673ffffffffffffffffffffffffffffffffffffffff168152602001600182015481526020016002820154815250508152602001906001019061168b565b50505050905090565b6000600d60008373ffffffffffffffffffffffffffffffffffffffff1673ffffffffffffffffffffffffffffffffffffffff168152602001908152602001600020549050919050565b60115481565b611787611c71565b61179057600080fd5b8060118190555050565b6117a2611c71565b6117ab57600080fd5b600073ffffffffffffffffffffffffffffffffffffffff1660008054906101000a900473ffffffffffffffffffffffffffffffffffffffff1673ffffffffffffffffffffffffffffffffffffffff167f8be0079c531659141344cd1fd0a4f28419497f9722a3daafe3b4186f6b6457e060405160405180910390a360008060006101000a81548173ffffffffffffffffffffffffffffffffffffffff021916908373ffffffffffffffffffffffffffffffffffffffff160217905550565b600960019054906101000a900460ff1681565b611884611c71565b61188d57600080fd5b8060078190555050565b80600c600082815260200190815260200160002060009054906101000a900473ffffffffffffffffffffffffffffffffffffffff1673ffffffffffffffffffffffffffffffffffffffff163373ffffffffffffffffffffffffffffffffffffffff161461190357600080fd5b3373ffffffffffffffffffffffffffffffffffffffff166019600084815260200190815260200160002060000160009054906101000a900473ffffffffffffffffffffffffffffffffffffffff1673ffffffffffffffffffffffffffffffffffffffff16146119a7576040517f08c379a000000000000000000000000000000000000000000000000000000000815260040161199e90614d58565b60405180910390fd5b6119b082612fa7565b3373ffffffffffffffffffffffffffffffffffffffff16827f9f63f695352607f5d8532e52458b7b194a971d563a2b360cb52fdf0c1b7cf71060405160405180910390a35050565b6060600b805480602002602001604051908101604052809291908181526020018280548015611a7c57602002820191906000526020600020905b8160009054906101000a900473ffffffffffffffffffffffffffffffffffffffff1673ffffffffffffffffffffffffffffffffffffffff1681526020019060010190808311611a32575b5050505050905090565b60045460055410611a98600454612bbc565b604051602001611aa89190614d9e565b60405160208183030381529060405290611af8576040517f08c379a0000000000000000000000000000000000000000000000000000000008152600401611aef91906143dd565b60405180910390fd5b50600e60003373ffffffffffffffffffffffffffffffffffffffff1673ffffffffffffffffffffffffffffffffffffffff16815260200190815260200160002060009054906101000a900460ff1615611b86576040517f08c379a0000000000000000000000000000000000000000000000000000000008152600401611b7d90614e10565b60405180910390fd5b6000611b93600154612bbc565b604051602001611ba39190614e56565b60405160208183030381529060405290506000611bbf8261317b565b9050611bcb82826131f0565b611bd43361359c565b6001600e60003373ffffffffffffffffffffffffffffffffffffffff1673ffffffffffffffffffffffffffffffffffffffff16815260200190815260200160002060006101000a81548160ff02191690831515021790555060056000815480929190611c3f90614e7c565b91905055505050565b60008060009054906101000a900473ffffffffffffffffffffffffffffffffffffffff16905090565b60008060009054906101000a900473ffffffffffffffffffffffffffffffffffffffff1673ffffffffffffffffffffffffffffffffffffffff163373ffffffffffffffffffffffffffffffffffffffff1614905090565b60165481565b81600c600082815260200190815260200160002060009054906101000a900473ffffffffffffffffffffffffffffffffffffffff1673ffffffffffffffffffffffffffffffffffffffff163373ffffffffffffffffffffffffffffffffffffffff1614611d3a57600080fd5b601754601654611d4a9190614ec4565b821015611d8c576040517f08c379a0000000000000000000000000000000000000000000000000000000008152600401611d8390614f44565b60405180910390fd5b600060405180606001604052803373ffffffffffffffffffffffffffffffffffffffff168152602001858152602001848152509050806019600086815260200190815260200160002060008201518160000160006101000a81548173ffffffffffffffffffffffffffffffffffffffff021916908373ffffffffffffffffffffffffffffffffffffffff1602179055506020820151816001015560408201518160020155905050601881908060018154018082558091505060019003906000526020600020906003020160009091909190915060008201518160000160006101000a81548173ffffffffffffffffffffffffffffffffffffffff021916908373ffffffffffffffffffffffffffffffffffffffff160217905550602082015181600101556040820151816002015550503373ffffffffffffffffffffffffffffffffffffffff1683857f423c789d4ebac5f7edf9bb0afb63074cf8d0ea0f7951b46e8f148abeaa8a72cb60405160405180910390a450505050565b6000611f11611c71565b611f1a57600080fd5b47905090565b6000601960008381526020019081526020016000206040518060600160405290816000820160009054906101000a900473ffffffffffffffffffffffffffffffffffffffff1673ffffffffffffffffffffffffffffffffffffffff1673ffffffffffffffffffffffffffffffffffffffff168152602001600182015481526020016002820154815250509050806000015173ffffffffffffffffffffffffffffffffffffffff16600073ffffffffffffffffffffffffffffffffffffffff160361201f576040517f08c379a000000000000000000000000000000000000000000000000000000000815260040161201690614fb0565b60405180910390fd5b806000015173ffffffffffffffffffffffffffffffffffffffff163373ffffffffffffffffffffffffffffffffffffffff1603612091576040517f08c379a00000000000000000000000000000000000000000000000000000000081526004016120889061501c565b60405180910390fd5b80604001513410156120d8576040517f08c379a00000000000000000000000000000000000000000000000000000000081526004016120cf90614f44565b60405180910390fd5b6120e781600001513384612c8a565b806000015173ffffffffffffffffffffffffffffffffffffffff166108fc60165434612113919061503c565b9081150290604051600060405180830381858888f1935050505015801561213e573d6000803e3d6000fd5b5061214882612fa7565b6121513361359c565b806000015173ffffffffffffffffffffffffffffffffffffffff163373ffffffffffffffffffffffffffffffffffffffff16837f17ce1013d920fb78658d6b2d935c6c3b03a41da037fdf4bcbf4e258e9e1da00b60405160405180910390a45050565b60085481565b601054803410156121ca82612bbc565b6040516020016121da91906148c3565b6040516020818303038152906040529061222a576040517f08c379a000000000000000000000000000000000000000000000000000000000815260040161222191906143dd565b60405180910390fd5b5060028481600a8281548110612243576122426147ed565b5b906000526020600020906004020160030160049054906101000a900463ffffffff1663ffffffff16101561227683612bbc565b6040516020016122869190614cc0565b604051602081830303815290604052906122d6576040517f08c379a00000000000000000000000000000000000000000000000000000000081526004016122cd91906143dd565b60405180910390fd5b5085600c600082815260200190815260200160002060009054906101000a900473ffffffffffffffffffffffffffffffffffffffff1673ffffffffffffffffffffffffffffffffffffffff163373ffffffffffffffffffffffffffffffffffffffff161461234357600080fd5b8585600a8981548110612359576123586147ed565b5b9060005260206000209060040201600001918261237792919061507b565b5050505050505050565b600f5481565b61238f611c71565b61239857600080fd5b80600960016101000a81548160ff021916908360ff16021790555050565b60606000600a83815481106123ce576123cd6147ed565b5b9060005260206000209060040201905060146123e984612bbc565b826000016123fa8460010154612bbc565b60405160200161240d94939291906151f4565b604051602081830303815290604052915050919050565b61242c611c71565b61243557600080fd5b80600f8190555050565b6006548034101561244f82612bbc565b60405160200161245f91906148c3565b604051602081830303815290604052906124af576040517f08c379a00000000000000000000000000000000000000000000000000000000081526004016124a691906143dd565b60405180910390fd5b5060006124bb8361317b565b90506124c783826131f0565b6124d03361359c565b505050565b6124dd613d0e565b601960008381526020019081526020016000206040518060600160405290816000820160009054906101000a900473ffffffffffffffffffffffffffffffffffffffff1673ffffffffffffffffffffffffffffffffffffffff1673ffffffffffffffffffffffffffffffffffffffff168152602001600182015481526020016002820154815250509050919050565b60196020528060005260406000206000915090508060000160009054906101000a900473ffffffffffffffffffffffffffffffffffffffff16908060010154908060020154905083565b81600c600082815260200190815260200160002060009054906101000a900473ffffffffffffffffffffffffffffffffffffffff1673ffffffffffffffffffffffffffffffffffffffff163373ffffffffffffffffffffffffffffffffffffffff161461262257600080fd5b6000600a8481548110612638576126376147ed565b5b9060005260206000209060040201905061265181613610565b612690576040517f08c379a00000000000000000000000000000000000000000000000000000000081526004016126879061529c565b60405180910390fd5b6000600a84815481106126a6576126a56147ed565b5b9060005260206000209060040201905060006126c28383613637565b9050600060644233896040516020016126dd93929190615325565b6040516020818303038152906040528051906020012060001c6127009190615391565b90508181116128b75783600301601081819054906101000a900461ffff168092919061272b906153c2565b91906101000a81548161ffff021916908361ffff1602179055505083600301600481819054906101000a900463ffffffff168092919061276a906153ec565b91906101000a81548163ffffffff021916908363ffffffff1602179055505082600301601281819054906101000a900461ffff16809291906127ab906153c2565b91906101000a81548161ffff021916908361ffff160217905550506127cf84613773565b6127d883613773565b600080600960009054906101000a900460ff1660ff168660030160109054906101000a900461ffff1661280b9190615418565b61ffff160361285f5761285c856001015485600101546040518060400160405280600681526020017f7a6f6d6269650000000000000000000000000000000000000000000000000000815250613819565b90505b3373ffffffffffffffffffffffffffffffffffffffff167f750a7c18ca7f7bd87c6e50678ea7fa4f64d0cb733bb68cdac552d009737b47168989846040516128a993929190615449565b60405180910390a25061299d565b83600301601281819054906101000a900461ffff16809291906128d9906153c2565b91906101000a81548161ffff021916908361ffff1602179055505082600301601081819054906101000a900461ffff1680929190612916906153c2565b91906101000a81548161ffff021916908361ffff1602179055505061293a84613773565b61294383613773565b61294c84613909565b3373ffffffffffffffffffffffffffffffffffffffff167f4fa78061bb2783669831d2e2aa9ca18cb698e098923982bfada46ceaf1516d6a8888604051612994929190615480565b60405180910390a25b50505050505050565b60175481565b6129b4611c71565b6129bd57600080fd5b8060068190555050565b600b81815481106129d757600080fd5b906000526020600020016000915054906101000a900473ffffffffffffffffffffffffffffffffffffffff1681565b612a0e611c71565b612a1757600080fd5b612a208161393c565b50565b612a2b611c71565b612a3457600080fd5b8060088190555050565b600083600c600082815260200190815260200160002060009054906101000a900473ffffffffffffffffffffffffffffffffffffffff1673ffffffffffffffffffffffffffffffffffffffff163373ffffffffffffffffffffffffffffffffffffffff1614612aac57600080fd5b6000600a8681548110612ac257612ac16147ed565b5b90600052602060002090600402019050612adb81613a32565b612b1a576040517f08c379a0000000000000000000000000000000000000000000000000000000008152600401612b11906154f5565b60405180910390fd5b600081600301601481819054906101000a900461ffff1680929190612b3e906153c2565b91906101000a81548161ffff021916908361ffff160217905550506000600960019054906101000a900460ff1660ff168360030160149054906101000a900461ffff16612b8b9190615418565b61ffff1603612ba657612ba382600101548787613819565b90505b612baf82613a59565b8093505050509392505050565b606060006001612bcb84613a8c565b01905060008167ffffffffffffffff811115612bea57612be9613f4a565b5b6040519080825280601f01601f191660200182016040528015612c1c5781602001600182028036833780820191505090505b509050600082602001820190505b600115612c7f578080600190039150507f3031323334353637383961626364656600000000000000000000000000000000600a86061a8153600a8581612c7357612c72615362565b5b04945060008503612c2a575b819350505050919050565b6001600d60008473ffffffffffffffffffffffffffffffffffffffff1673ffffffffffffffffffffffffffffffffffffffff16815260200190815260200160002054612cd69190614ec4565b600d60008473ffffffffffffffffffffffffffffffffffffffff1673ffffffffffffffffffffffffffffffffffffffff168152602001908152602001600020819055506001600d60008573ffffffffffffffffffffffffffffffffffffffff1673ffffffffffffffffffffffffffffffffffffffff16815260200190815260200160002054612d65919061503c565b600d60008573ffffffffffffffffffffffffffffffffffffffff1673ffffffffffffffffffffffffffffffffffffffff1681526020019081526020016000208190555081600c600083815260200190815260200160002060006101000a81548173ffffffffffffffffffffffffffffffffffffffff021916908373ffffffffffffffffffffffffffffffffffffffff160217905550808273ffffffffffffffffffffffffffffffffffffffff168473ffffffffffffffffffffffffffffffffffffffff167fddf252ad1be2c89b69c2b068fc378daa952ba7f163c4a11628f55a4df523b3ef60405160405180910390a4505050565b60606000600d60008473ffffffffffffffffffffffffffffffffffffffff1673ffffffffffffffffffffffffffffffffffffffff1681526020019081526020016000205467ffffffffffffffff811115612eb757612eb6613f4a565b5b604051908082528060200260200182016040528015612ee55781602001602082028036833780820191505090505b5090506000805b600a80549050811015612f9c578473ffffffffffffffffffffffffffffffffffffffff16600c600083815260200190815260200160002060009054906101000a900473ffffffffffffffffffffffffffffffffffffffff1673ffffffffffffffffffffffffffffffffffffffff1603612f8f5780838381518110612f7357612f726147ed565b5b602002602001018181525050600182612f8c9190614ec4565b91505b8080600101915050612eec565b508192505050919050565b60196000828152602001908152602001600020600080820160006101000a81549073ffffffffffffffffffffffffffffffffffffffff021916905560018201600090556002820160009055505060005b601880549050811015613177578160188281548110613019576130186147ed565b5b9060005260206000209060030201600101540361316a5760186001601880549050613044919061503c565b81548110613055576130546147ed565b5b906000526020600020906003020160188281548110613077576130766147ed565b5b90600052602060002090600302016000820160009054906101000a900473ffffffffffffffffffffffffffffffffffffffff168160000160006101000a81548173ffffffffffffffffffffffffffffffffffffffff021916908373ffffffffffffffffffffffffffffffffffffffff1602179055506001820154816001015560028201548160020155905050601880548061311557613114615515565b5b6001900381819060005260206000209060030201600080820160006101000a81549073ffffffffffffffffffffffffffffffffffffffff02191690556001820160009055600282016000905550509055613177565b8080600101915050612ff7565b5050565b60006001600081548092919061319090614e7c565b919050555060008260015442336001436131aa919061503c565b406040516020016131bf95949392919061556f565b6040516020818303038152906040528051906020012060001c9050600354816131e89190615391565b915050919050565b6000825111613234576040517f08c379a000000000000000000000000000000000000000000000000000000000815260040161322b90615616565b60405180910390fd5b808114613276576040517f08c379a000000000000000000000000000000000000000000000000000000000815260040161326d90615682565b60405180910390fd5b60004290506000604051806101400160405280858152602001848152602001600081526020018363ffffffff168152602001600163ffffffff1681526020018363ffffffff1681526020018363ffffffff168152602001600061ffff168152602001600061ffff168152602001600061ffff168152509050600a819080600181540180825580915050600190039060005260206000209060040201600090919091909150600082015181600001908161332f9190614b5c565b50602082015181600101556040820151816002015560608201518160030160006101000a81548163ffffffff021916908363ffffffff16021790555060808201518160030160046101000a81548163ffffffff021916908363ffffffff16021790555060a08201518160030160086101000a81548163ffffffff021916908363ffffffff16021790555060c082015181600301600c6101000a81548163ffffffff021916908363ffffffff16021790555060e08201518160030160106101000a81548161ffff021916908361ffff1602179055506101008201518160030160126101000a81548161ffff021916908361ffff1602179055506101208201518160030160146101000a81548161ffff021916908361ffff160217905550505060006001600a80549050613461919061503c565b905033600c600083815260200190815260200160002060006101000a81548173ffffffffffffffffffffffffffffffffffffffff021916908373ffffffffffffffffffffffffffffffffffffffff1602179055506001600d60003373ffffffffffffffffffffffffffffffffffffffff1673ffffffffffffffffffffffffffffffffffffffff168152602001908152602001600020546135019190614ec4565b600d60003373ffffffffffffffffffffffffffffffffffffffff1673ffffffffffffffffffffffffffffffffffffffff16815260200190815260200160002081905550803373ffffffffffffffffffffffffffffffffffffffff167ff92b1ba4cb9ae7683c3a3a1e58273b24013547531f590e32910f3105e8349e1f878760405161358d9291906156a2565b60405180910390a35050505050565b6135a581613bdf565b61360d57600b819080600181540180825580915050600190039060005260206000200160009091909190916101000a81548173ffffffffffffffffffffffffffffffffffffffff021916908373ffffffffffffffffffffffffffffffffffffffff1602179055505b50565b6000428260030160089054906101000a900463ffffffff1663ffffffff1611159050919050565b600080601354905060008360030160049054906101000a900463ffffffff168560030160049054906101000a900463ffffffff1661367591906156df565b905060008160030b13156136a857600281613690919061573b565b63ffffffff16826136a19190614ec4565b91506136df565b60008160030b12156136de576002816136c090615778565b6136ca919061573b565b63ffffffff16826136db919061503c565b91505b5b6000806136ef8760010154613c87565b509150915060006137038760010154613c87565b925050506000600a828460028761371a91906157c0565b6137249190614ec4565b61372e919061503c565b6137389190615802565b905080866137469190614ec4565b9550605a86111561375657605a95505b601e86101561376457601e95505b85965050505050505092915050565b600060038260030160129054906101000a900461ffff166137949190615833565b61ffff1660058360030160109054906101000a900461ffff166137b79190615833565b61ffff16600a8460030160049054906101000a900463ffffffff166137dc919061573b565b6137e69190614918565b6137f09190615870565b9050600a8163ffffffff16101561380657600a90505b8063ffffffff1682600201819055505050565b6000600354836138299190615391565b925060006002848661383b9190614ec4565b6138459190615802565b9050604051602001613856906158f4565b604051602081830303815290604052805190602001208360405160200161387d9190615909565b60405160208183030381529060405280519060200120036138bf5760636064826138a79190615391565b826138b2919061503c565b6138bc9190614ec4565b90505b6138fe6040518060400160405280600681526020017f4e6f4e616d650000000000000000000000000000000000000000000000000000815250826131f0565b809150509392505050565b600754426139179190614ec4565b8160030160086101000a81548163ffffffff021916908363ffffffff16021790555050565b600073ffffffffffffffffffffffffffffffffffffffff168173ffffffffffffffffffffffffffffffffffffffff160361397557600080fd5b8073ffffffffffffffffffffffffffffffffffffffff1660008054906101000a900473ffffffffffffffffffffffffffffffffffffffff1673ffffffffffffffffffffffffffffffffffffffff167f8be0079c531659141344cd1fd0a4f28419497f9722a3daafe3b4186f6b6457e060405160405180910390a3806000806101000a81548173ffffffffffffffffffffffffffffffffffffffff021916908373ffffffffffffffffffffffffffffffffffffffff16021790555050565b60004282600301600c9054906101000a900463ffffffff1663ffffffff1611159050919050565b60085442613a679190614ec4565b81600301600c6101000a81548163ffffffff021916908363ffffffff16021790555050565b600080600090507a184f03e93ff9f4daa797ed6e38ed64bf6a1f0100000000000000008310613aea577a184f03e93ff9f4daa797ed6e38ed64bf6a1f0100000000000000008381613ae057613adf615362565b5b0492506040810190505b6d04ee2d6d415b85acef81000000008310613b27576d04ee2d6d415b85acef81000000008381613b1d57613b1c615362565b5b0492506020810190505b662386f26fc100008310613b5657662386f26fc100008381613b4c57613b4b615362565b5b0492506010810190505b6305f5e1008310613b7f576305f5e1008381613b7557613b74615362565b5b0492506008810190505b6127108310613ba4576127108381613b9a57613b99615362565b5b0492506004810190505b60648310613bc75760648381613bbd57613bbc615362565b5b0492506002810190505b600a8310613bd6576001810190505b80915050919050565b6000806000905060005b600b80549050811015613c7d578373ffffffffffffffffffffffffffffffffffffffff16600b8281548110613c2157613c206147ed565b5b9060005260206000200160009054906101000a900473ffffffffffffffffffffffffffffffffffffffff1673ffffffffffffffffffffffffffffffffffffffff1603613c705760019150613c7d565b8080600101915050613be9565b5080915050919050565b600080600080603285613c9a9190615391565b6032613ca69190614ec4565b905060006032606487613cb99190615802565b613cc39190615391565b6032613ccf9190614ec4565b90506000603261271088613ce39190615802565b613ced9190615391565b6032613cf99190614ec4565b90508282829550955095505050509193909250565b6040518060600160405280600073ffffffffffffffffffffffffffffffffffffffff16815260200160008152602001600081525090565b6000819050919050565b613d5881613d45565b82525050565b6000602082019050613d736000830184613d4f565b92915050565b6000604051905090565b600080fd5b600080fd5b613d9681613d45565b8114613da157600080fd5b50565b600081359050613db381613d8d565b92915050565b600080600060608486031215613dd257613dd1613d83565b5b6000613de086828701613da4565b9350506020613df186828701613da4565b9250506040613e0286828701613da4565b9150509250925092565b600073ffffffffffffffffffffffffffffffffffffffff82169050919050565b6000613e3782613e0c565b9050919050565b613e4781613e2c565b8114613e5257600080fd5b50565b600081359050613e6481613e3e565b92915050565b60008060408385031215613e8157613e80613d83565b5b6000613e8f85828601613e55565b9250506020613ea085828601613da4565b9150509250929050565b600060208284031215613ec057613ebf613d83565b5b6000613ece84828501613da4565b91505092915050565b6000613ee282613e0c565b9050919050565b613ef281613ed7565b82525050565b6000606082019050613f0d6000830186613ee9565b613f1a6020830185613d4f565b613f276040830184613d4f565b949350505050565b600080fd5b600080fd5b6000601f19601f8301169050919050565b7f4e487b7100000000000000000000000000000000000000000000000000000000600052604160045260246000fd5b613f8282613f39565b810181811067ffffffffffffffff82111715613fa157613fa0613f4a565b5b80604052505050565b6000613fb4613d79565b9050613fc08282613f79565b919050565b600067ffffffffffffffff821115613fe057613fdf613f4a565b5b613fe982613f39565b9050602081019050919050565b82818337600083830152505050565b600061401861401384613fc5565b613faa565b90508281526020810184848401111561403457614033613f34565b5b61403f848285613ff6565b509392505050565b600082601f83011261405c5761405b613f2f565b5b813561406c848260208601614005565b91505092915050565b60006020828403121561408b5761408a613d83565b5b600082013567ffffffffffffffff8111156140a9576140a8613d88565b5b6140b584828501614047565b91505092915050565b600081519050919050565b600082825260208201905092915050565b60005b838110156140f85780820151818401526020810190506140dd565b60008484015250505050565b600061410f826140be565b61411981856140c9565b93506141298185602086016140da565b61413281613f39565b840191505092915050565b600063ffffffff82169050919050565b6141568161413d565b82525050565b600061ffff82169050919050565b6141738161415c565b82525050565b6000610140820190508181036000830152614194818d614104565b90506141a3602083018c613d4f565b6141b0604083018b613d4f565b6141bd606083018a61414d565b6141ca608083018961414d565b6141d760a083018861414d565b6141e460c083018761414d565b6141f160e083018661416a565b6141ff61010083018561416a565b61420d61012083018461416a565b9b9a5050505050505050505050565b60008060006060848603121561423557614234613d83565b5b600061424386828701613e55565b935050602061425486828701613e55565b925050604061426586828701613da4565b9150509250925092565b60006020828403121561428557614284613d83565b5b600061429384828501613e55565b91505092915050565b600081519050919050565b600082825260208201905092915050565b6000819050602082019050919050565b6142d181613d45565b82525050565b60006142e383836142c8565b60208301905092915050565b6000602082019050919050565b60006143078261429c565b61431181856142a7565b935061431c836142b8565b8060005b8381101561434d57815161433488826142d7565b975061433f836142ef565b925050600181019050614320565b5085935050505092915050565b6000602082019050818103600083015261437481846142fc565b905092915050565b600060ff82169050919050565b6143928161437c565b82525050565b60006020820190506143ad6000830184614389565b92915050565b6143bc81613e2c565b82525050565b60006020820190506143d760008301846143b3565b92915050565b600060208201905081810360008301526143f78184614104565b905092915050565b6000806040838503121561441657614415613d83565b5b600061442485828601613da4565b925050602061443585828601613da4565b9150509250929050565b6144488161437c565b811461445357600080fd5b50565b6000813590506144658161443f565b92915050565b60006020828403121561448157614480613d83565b5b600061448f84828501614456565b91505092915050565b600081519050919050565b600082825260208201905092915050565b6000819050602082019050919050565b6144cd81613ed7565b82525050565b6060820160008201516144e960008501826144c4565b5060208201516144fc60208501826142c8565b50604082015161450f60408501826142c8565b50505050565b600061452183836144d3565b60608301905092915050565b6000602082019050919050565b600061454582614498565b61454f81856144a3565b935061455a836144b4565b8060005b8381101561458b5781516145728882614515565b975061457d8361452d565b92505060018101905061455e565b5085935050505092915050565b600060208201905081810360008301526145b2818461453a565b905092915050565b600081519050919050565b600082825260208201905092915050565b6000819050602082019050919050565b6145ef81613e2c565b82525050565b600061460183836145e6565b60208301905092915050565b6000602082019050919050565b6000614625826145ba565b61462f81856145c5565b935061463a836145d6565b8060005b8381101561466b57815161465288826145f5565b975061465d8361460d565b92505060018101905061463e565b5085935050505092915050565b60006020820190508181036000830152614692818461461a565b905092915050565b60008115159050919050565b6146af8161469a565b82525050565b60006020820190506146ca60008301846146a6565b92915050565b600080fd5b600080fd5b60008083601f8401126146f0576146ef613f2f565b5b8235905067ffffffffffffffff81111561470d5761470c6146d0565b5b602083019150836001820283011115614729576147286146d5565b5b9250929050565b60008060006040848603121561474957614748613d83565b5b600061475786828701613da4565b935050602084013567ffffffffffffffff81111561477857614777613d88565b5b614784868287016146da565b92509250509250925092565b6060820160008201516147a660008501826144c4565b5060208201516147b960208501826142c8565b5060408201516147cc60408501826142c8565b50505050565b60006060820190506147e76000830184614790565b92915050565b7f4e487b7100000000000000000000000000000000000000000000000000000000600052603260045260246000fd5b60006080820190506148316000830187613d4f565b61483e6020830186613d4f565b61484b6040830185613d4f565b6148586060830184613d4f565b95945050505050565b7f5072696365206d696e696d756d20697320000000000000000000000000000000815250565b600081905092915050565b600061489d826140be565b6148a78185614887565b93506148b78185602086016140da565b80840191505092915050565b60006148ce82614861565b6011820191506148de8284614892565b915081905092915050565b7f4e487b7100000000000000000000000000000000000000000000000000000000600052601160045260246000fd5b60006149238261413d565b915061492e8361413d565b9250828201905063ffffffff81111561494a576149496148e9565b5b92915050565b7f4e487b7100000000000000000000000000000000000000000000000000000000600052602260045260246000fd5b6000600282049050600182168061499757607f821691505b6020821081036149aa576149a9614950565b5b50919050565b60008190508160005260206000209050919050565b60006020601f8301049050919050565b600082821b905092915050565b600060088302614a127fffffffffffffffffffffffffffffffffffffffffffffffffffffffffffffffff826149d5565b614a1c86836149d5565b95508019841693508086168417925050509392505050565b6000819050919050565b6000614a59614a54614a4f84613d45565b614a34565b613d45565b9050919050565b6000819050919050565b614a7383614a3e565b614a87614a7f82614a60565b8484546149e2565b825550505050565b600090565b614a9c614a8f565b614aa7818484614a6a565b505050565b5b81811015614acb57614ac0600082614a94565b600181019050614aad565b5050565b601f821115614b1057614ae1816149b0565b614aea846149c5565b81016020851015614af9578190505b614b0d614b05856149c5565b830182614aac565b50505b505050565b600082821c905092915050565b6000614b3360001984600802614b15565b1980831691505092915050565b6000614b4c8383614b22565b9150826002028217905092915050565b614b65826140be565b67ffffffffffffffff811115614b7e57614b7d613f4a565b5b614b88825461497f565b614b93828285614acf565b600060209050601f831160018114614bc65760008415614bb4578287015190505b614bbe8582614b40565b865550614c26565b601f198416614bd4866149b0565b60005b82811015614bfc57848901518255600182019150602085019450602081019050614bd7565b86831015614c195784890151614c15601f891682614b22565b8355505b6001600288020188555050505b505050505050565b7f596f7520617265206e6f74206f776e6572206f7220617070726f7665642e0000600082015250565b6000614c64601e836140c9565b9150614c6f82614c2e565b602082019050919050565b60006020820190508181036000830152614c9381614c57565b9050919050565b7f4c6576656c206d696e2e20697320000000000000000000000000000000000000815250565b6000614ccb82614c9a565b600e82019150614cdb8284614892565b915081905092915050565b7f43616e27742063616e63656c20746f2073616c652c20796f75206172656e277460008201527f207468652073656c6c6572000000000000000000000000000000000000000000602082015250565b6000614d42602b836140c9565b9150614d4d82614ce6565b604082019050919050565b60006020820190508181036000830152614d7181614d35565b9050919050565b7f4f6e6c7920000000000000000000000000000000000000000000000000000000815250565b6000614da982614d78565b600582019150614db98284614892565b915081905092915050565b7f4f6e65206d696e7420706572206163636f756e74000000000000000000000000600082015250565b6000614dfa6014836140c9565b9150614e0582614dc4565b602082019050919050565b60006020820190508181036000830152614e2981614ded565b9050919050565b7f5a6f6d6269652000000000000000000000000000000000000000000000000000815250565b6000614e6182614e30565b600782019150614e718284614892565b915081905092915050565b6000614e8782613d45565b91507fffffffffffffffffffffffffffffffffffffffffffffffffffffffffffffffff8203614eb957614eb86148e9565b5b600182019050919050565b6000614ecf82613d45565b9150614eda83613d45565b9250828201905080821115614ef257614ef16148e9565b5b92915050565b7f596f757220707269636520697320746f6f206c6f770000000000000000000000600082015250565b6000614f2e6015836140c9565b9150614f3982614ef8565b602082019050919050565b60006020820190508181036000830152614f5d81614f21565b9050919050565b7f5a6f6d62696520617265206e6f74206f6e2073616c6500000000000000000000600082015250565b6000614f9a6016836140c9565b9150614fa582614f64565b602082019050919050565b60006020820190508181036000830152614fc981614f8d565b9050919050565b7f43616e2774206275792c20796f7520617265207468652073656c6c6572000000600082015250565b6000615006601d836140c9565b915061501182614fd0565b602082019050919050565b6000602082019050818103600083015261503581614ff9565b9050919050565b600061504782613d45565b915061505283613d45565b925082820390508181111561506a576150696148e9565b5b92915050565b600082905092915050565b6150858383615070565b67ffffffffffffffff81111561509e5761509d613f4a565b5b6150a8825461497f565b6150b3828285614acf565b6000601f8311600181146150e257600084156150d0578287013590505b6150da8582614b40565b865550615142565b601f1984166150f0866149b0565b60005b82811015615118578489013582556001820191506020850194506020810190506150f3565b868310156151355784890135615131601f891682614b22565b8355505b6001600288020188555050505b50505050505050565b600081546151588161497f565b6151628186614887565b9450600182166000811461517d5760018114615192576151c5565b60ff19831686528115158202860193506151c5565b61519b856149b0565b60005b838110156151bd5781548189015260018201915060208101905061519e565b838801955050505b50505092915050565b7f2f00000000000000000000000000000000000000000000000000000000000000815250565b6000615200828761514b565b915061520c8286614892565b9150615217826151ce565b600182019150615227828561514b565b9150615232826151ce565b6001820191506152428284614892565b915081905095945050505050565b7f49742773206e6f7420726561647920746f2061747461636b0000000000000000600082015250565b60006152866018836140c9565b915061529182615250565b602082019050919050565b600060208201905081810360008301526152b581615279565b9050919050565b6000819050919050565b6152d76152d282613d45565b6152bc565b82525050565b60008160601b9050919050565b60006152f5826152dd565b9050919050565b6000615307826152ea565b9050919050565b61531f61531a82613e2c565b6152fc565b82525050565b600061533182866152c6565b602082019150615341828561530e565b60148201915061535182846152c6565b602082019150819050949350505050565b7f4e487b7100000000000000000000000000000000000000000000000000000000600052601260045260246000fd5b600061539c82613d45565b91506153a783613d45565b9250826153b7576153b6615362565b5b828206905092915050565b60006153cd8261415c565b915061ffff82036153e1576153e06148e9565b5b600182019050919050565b60006153f78261413d565b915063ffffffff820361540d5761540c6148e9565b5b600182019050919050565b60006154238261415c565b915061542e8361415c565b92508261543e5761543d615362565b5b828206905092915050565b600060608201905061545e6000830186613d4f565b61546b6020830185613d4f565b6154786040830184613d4f565b949350505050565b60006040820190506154956000830185613d4f565b6154a26020830184613d4f565b9392505050565b7f49742773206e6f7420726561647920746f206665656400000000000000000000600082015250565b60006154df6016836140c9565b91506154ea826154a9565b602082019050919050565b6000602082019050818103600083015261550e816154d2565b9050919050565b7f4e487b7100000000000000000000000000000000000000000000000000000000600052603160045260246000fd5b6000819050919050565b6000819050919050565b61556961556482615544565b61554e565b82525050565b600061557b8288614892565b915061558782876152c6565b60208201915061559782866152c6565b6020820191506155a7828561530e565b6014820191506155b78284615558565b6020820191508190509695505050505050565b7f4e616d652063616e6e6f74206265206c65667420656d70747900000000000000600082015250565b60006156006019836140c9565b915061560b826155ca565b602082019050919050565b6000602082019050818103600083015261562f816155f3565b9050919050565b7f444e41206d75737420626520616e20696e746567657200000000000000000000600082015250565b600061566c6016836140c9565b915061567782615636565b602082019050919050565b6000602082019050818103600083015261569b8161565f565b9050919050565b600060408201905081810360008301526156bc8185614104565b90506156cb6020830184613d4f565b9392505050565b60008160030b9050919050565b60006156ea826156d2565b91506156f5836156d2565b92508282039050637fffffff81137fffffffffffffffffffffffffffffffffffffffffffffffffffffffff8000000082121715615735576157346148e9565b5b92915050565b60006157468261413d565b91506157518361413d565b925082820261575f8161413d565b9150808214615771576157706148e9565b5b5092915050565b6000615783826156d2565b91507fffffffffffffffffffffffffffffffffffffffffffffffffffffffff8000000082036157b5576157b46148e9565b5b816000039050919050565b60006157cb82613d45565b91506157d683613d45565b92508282026157e481613d45565b915082820484148315176157fb576157fa6148e9565b5b5092915050565b600061580d82613d45565b915061581883613d45565b92508261582857615827615362565b5b828204905092915050565b600061583e8261415c565b91506158498361415c565b92508282026158578161415c565b9150808214615869576158686148e9565b5b5092915050565b600061587b8261413d565b91506158868361413d565b9250828203905063ffffffff8111156158a2576158a16148e9565b5b92915050565b7f6b69747479000000000000000000000000000000000000000000000000000000600082015250565b60006158de600583614887565b91506158e9826158a8565b600582019050919050565b60006158ff826158d1565b9150819050919050565b60006159158284614892565b91508190509291505056fea26469706673582212208761eacf0e4346b78c678a7838048d9f722ce4593c996f89755ae17c32e73ae264736f6c634300081c0033687474703a2f2f6c6f63616c686f73743a333333332f7a6f6d6269652f7572692f",
  "linkReferences": {},
  "deployedLinkReferences": {}
}