{
  "_format": "hh-sol-artifact-1",
  "contractName": "CryptoZombies",
  "sourceName": "contracts/CryptoZombies.sol",
  "abi": [
    {
      "anonymous": false,
      "inputs": [
        {
          "indexed": true,
          "internalType": "address",
          "name": "_owner",
          "type": "address"
        },
        {
          "indexed": true,
          "internalType": "address",
          "name": "_approved",
          "type": "address"
        },
        {
          "indexed": true,
          "internalType": "uint256",
          "name": "_tokenId",
          "type": "uint256"
        }
      ],
      "name": "Approval",
      "type": "event"
    },
    {
      "anonymous": false,
      "inputs": [
        {
          "indexed": true,
          "internalType": "uint256",
          "name": "zombieId",
          "type": "uint256"
        },
        {
          "indexed": true,
          "internalType": "address",
          "name": "buyer",
          "type": "address"
        },
        {
          "indexed": true,
          "internalType": "address",
          "name": "seller",
          "type": "address"
        }
      ],
      "name": "BuyShopZombie",
      "type": "event"
    },
    {
      "anonymous": false,
      "inputs": [
        {
          "indexed": true,
          "internalType": "address",
          "name": "from",
          "type": "address"
        },
        {
          "indexed": false,
          "internalType": "uint256",
          "name": "zombieId",
          "type": "uint256"
        },
        {
          "indexed": false,
          "internalType": "string",
          "name": "name",
          "type": "string"
        },
        {
          "indexed": false,
          "internalType": "uint256",
          "name": "dna",
          "type": "uint256"
        }
      ],
      "name": "NewZombie",
      "type": "event"
    },
    {
      "anonymous": false,
      "inputs": [
        {
          "indexed": true,
          "internalType": "address",
          "name": "previousOwner",
          "type": "address"
        },
        {
          "indexed": true,
          "internalType": "address",
          "name": "newOwner",
          "type": "address"
        }
      ],
      "name": "OwnershipTransferred",
      "type": "event"
    },
    {
      "anonymous": false,
      "inputs": [
        {
          "indexed": true,
          "internalType": "uint256",
          "name": "zombieId",
          "type": "uint256"
        },
        {
          "indexed": true,
          "internalType": "uint256",
          "name": "price",
          "type": "uint256"
        }
      ],
      "name": "SaleZombie",
      "type": "event"
    },
    {
      "anonymous": false,
      "inputs": [
        {
          "indexed": true,
          "internalType": "address",
          "name": "_from",
          "type": "address"
        },
        {
          "indexed": true,
          "internalType": "address",
          "name": "_to",
          "type": "address"
        },
        {
          "indexed": true,
          "internalType": "uint256",
          "name": "_tokenId",
          "type": "uint256"
        }
      ],
      "name": "Transfer",
      "type": "event"
    },
    {
      "anonymous": false,
      "inputs": [
        {
          "indexed": true,
          "internalType": "address",
          "name": "from",
          "type": "address"
        },
        {
          "indexed": false,
          "internalType": "uint256",
          "name": "fromId",
          "type": "uint256"
        },
        {
          "indexed": false,
          "internalType": "uint256",
          "name": "targetId",
          "type": "uint256"
        }
      ],
      "name": "onAttackDefeat",
      "type": "event"
    },
    {
      "anonymous": false,
      "inputs": [
        {
          "indexed": true,
          "internalType": "address",
          "name": "from",
          "type": "address"
        },
        {
          "indexed": false,
          "internalType": "uint256",
          "name": "fromId",
          "type": "uint256"
        },
        {
          "indexed": false,
          "internalType": "uint256",
          "name": "targetId",
          "type": "uint256"
        },
        {
          "indexed": false,
          "internalType": "uint256",
          "name": "newDna",
          "type": "uint256"
        }
      ],
      "name": "onAttackVitory",
      "type": "event"
    },
    {
      "anonymous": false,
      "inputs": [
        {
          "indexed": true,
          "internalType": "address",
          "name": "from",
          "type": "address"
        },
        {
          "indexed": false,
          "internalType": "uint256",
          "name": "fromDna",
          "type": "uint256"
        },
        {
          "indexed": false,
          "internalType": "uint256",
          "name": "targetDna",
          "type": "uint256"
        },
        {
          "indexed": false,
          "internalType": "uint256",
          "name": "_kittyId",
          "type": "uint256"
        },
        {
          "indexed": false,
          "internalType": "uint256",
          "name": "newDna",
          "type": "uint256"
        }
      ],
      "name": "onFeed",
      "type": "event"
    },
    {
      "inputs": [
        {
          "internalType": "address",
          "name": "_approved",
          "type": "address"
        },
        {
          "internalType": "uint256",
          "name": "_tokenId",
          "type": "uint256"
        }
      ],
      "name": "approve",
      "outputs": [],
      "stateMutability": "payable",
      "type": "function"
    },
    {
      "inputs": [
        {
          "internalType": "uint256",
          "name": "_zombieId",
          "type": "uint256"
        },
        {
          "internalType": "uint256",
          "name": "_targetId",
          "type": "uint256"
        }
      ],
      "name": "attack",
      "outputs": [],
      "stateMutability": "nonpayable",
      "type": "function"
    },
    {
      "inputs": [
        {
          "internalType": "address",
          "name": "_owner",
          "type": "address"
        }
      ],
      "name": "balanceOf",
      "outputs": [
        {
          "internalType": "uint256",
          "name": "",
          "type": "uint256"
        }
      ],
      "stateMutability": "view",
      "type": "function"
    },
    {
      "inputs": [],
      "name": "baseUrlTokenURI",
      "outputs": [
        {
          "internalType": "string",
          "name": "",
          "type": "string"
        }
      ],
      "stateMutability": "view",
      "type": "function"
    },
    {
      "inputs": [
        {
          "internalType": "uint256",
          "name": "zombieId",
          "type": "uint256"
        }
      ],
      "name": "buyShopZombie",
      "outputs": [],
      "stateMutability": "payable",
      "type": "function"
    },
    {
      "inputs": [],
      "name": "changeDNAFee",
      "outputs": [
        {
          "internalType": "uint256",
          "name": "",
          "type": "uint256"
        }
      ],
      "stateMutability": "view",
      "type": "function"
    },
    {
      "inputs": [
        {
          "internalType": "uint256",
          "name": "_zombieId",
          "type": "uint256"
        },
        {
          "internalType": "uint256",
          "name": "_newDna",
          "type": "uint256"
        }
      ],
      "name": "changeDna",
      "outputs": [],
      "stateMutability": "payable",
      "type": "function"
    },
    {
      "inputs": [
        {
          "internalType": "uint256",
          "name": "_zombieId",
          "type": "uint256"
        },
        {
          "internalType": "string",
          "name": "_newName",
          "type": "string"
        }
      ],
      "name": "changeName",
      "outputs": [],
      "stateMutability": "payable",
      "type": "function"
    },
    {
      "inputs": [],
      "name": "changeNameFee",
      "outputs": [
        {
          "internalType": "uint256",
          "name": "",
          "type": "uint256"
        }
      ],
      "stateMutability": "view",
      "type": "function"
    },
    {
      "inputs": [],
      "name": "cooldownTime",
      "outputs": [
        {
          "internalType": "uint256",
          "name": "",
          "type": "uint256"
        }
      ],
      "stateMutability": "view",
      "type": "function"
    },
    {
      "inputs": [
        {
          "internalType": "string",
          "name": "_name",
          "type": "string"
        }
      ],
      "name": "createRandomZombie",
      "outputs": [],
      "stateMutability": "nonpayable",
      "type": "function"
    },
    {
      "inputs": [
        {
          "internalType": "uint256",
          "name": "_zombieId",
          "type": "uint256"
        },
        {
          "internalType": "uint256",
          "name": "_kittyDna",
          "type": "uint256"
        },
        {
          "internalType": "uint256",
          "name": "_kittyId",
          "type": "uint256"
        }
      ],
      "name": "feedOnKitty",
      "outputs": [],
      "stateMutability": "nonpayable",
      "type": "function"
    },
    {
      "inputs": [],
      "name": "getAccounts",
      "outputs": [
        {
          "internalType": "address[]",
          "name": "",
          "type": "address[]"
        }
      ],
      "stateMutability": "view",
      "type": "function"
    },
    {
      "inputs": [],
      "name": "getAllZombiesInShop",
      "outputs": [
        {
          "components": [
            {
              "internalType": "address payable",
              "name": "seller",
              "type": "address"
            },
            {
              "internalType": "uint256",
              "name": "price",
              "type": "uint256"
            }
          ],
          "internalType": "struct ZombieMarket.ZombieSales[]",
          "name": "",
          "type": "tuple[]"
        }
      ],
      "stateMutability": "view",
      "type": "function"
    },
    {
      "inputs": [],
      "name": "getRanking",
      "outputs": [
        {
          "components": [
            {
              "internalType": "address",
              "name": "account",
              "type": "address"
            },
            {
              "internalType": "uint256",
              "name": "position",
              "type": "uint256"
            },
            {
              "internalType": "uint256",
              "name": "score",
              "type": "uint256"
            },
            {
              "internalType": "uint256",
              "name": "zombieCount",
              "type": "uint256"
            },
            {
              "internalType": "uint16",
              "name": "winCount",
              "type": "uint16"
            },
            {
              "internalType": "uint16",
              "name": "lossCount",
              "type": "uint16"
            }
          ],
          "internalType": "struct ZombieRanking.Ranking[]",
          "name": "",
          "type": "tuple[]"
        }
      ],
      "stateMutability": "view",
      "type": "function"
    },
    {
      "inputs": [
        {
          "internalType": "uint256",
          "name": "_zombieId",
          "type": "uint256"
        }
      ],
      "name": "getZombieInShop",
      "outputs": [
        {
          "components": [
            {
              "internalType": "address payable",
              "name": "seller",
              "type": "address"
            },
            {
              "internalType": "uint256",
              "name": "price",
              "type": "uint256"
            }
          ],
          "internalType": "struct ZombieMarket.ZombieSales",
          "name": "",
          "type": "tuple"
        }
      ],
      "stateMutability": "view",
      "type": "function"
    },
    {
      "inputs": [
        {
          "internalType": "address",
          "name": "_owner",
          "type": "address"
        }
      ],
      "name": "getZombiesByOwner",
      "outputs": [
        {
          "internalType": "uint256[]",
          "name": "",
          "type": "uint256[]"
        }
      ],
      "stateMutability": "view",
      "type": "function"
    },
    {
      "inputs": [],
      "name": "isOwner",
      "outputs": [
        {
          "internalType": "bool",
          "name": "",
          "type": "bool"
        }
      ],
      "stateMutability": "view",
      "type": "function"
    },
    {
      "inputs": [
        {
          "internalType": "uint256",
          "name": "_zombieId",
          "type": "uint256"
        }
      ],
      "name": "levelUp",
      "outputs": [],
      "stateMutability": "payable",
      "type": "function"
    },
    {
      "inputs": [],
      "name": "levelUpFee",
      "outputs": [
        {
          "internalType": "uint256",
          "name": "",
          "type": "uint256"
        }
      ],
      "stateMutability": "view",
      "type": "function"
    },
    {
      "inputs": [],
      "name": "minPrice",
      "outputs": [
        {
          "internalType": "uint256",
          "name": "",
          "type": "uint256"
        }
      ],
      "stateMutability": "view",
      "type": "function"
    },
    {
      "inputs": [],
      "name": "owner",
      "outputs": [
        {
          "internalType": "address",
          "name": "",
          "type": "address"
        }
      ],
      "stateMutability": "view",
      "type": "function"
    },
    {
      "inputs": [
        {
          "internalType": "uint256",
          "name": "_tokenId",
          "type": "uint256"
        }
      ],
      "name": "ownerOf",
      "outputs": [
        {
          "internalType": "address",
          "name": "",
          "type": "address"
        }
      ],
      "stateMutability": "view",
      "type": "function"
    },
    {
      "inputs": [],
      "name": "renounceOwnership",
      "outputs": [],
      "stateMutability": "nonpayable",
      "type": "function"
    },
    {
      "inputs": [
        {
          "internalType": "uint256",
          "name": "zombieId",
          "type": "uint256"
        },
        {
          "internalType": "uint256",
          "name": "price",
          "type": "uint256"
        }
      ],
      "name": "saleMyZombie",
      "outputs": [],
      "stateMutability": "nonpayable",
      "type": "function"
    },
    {
      "inputs": [
        {
          "internalType": "string",
          "name": "_baseUrlTokenURI",
          "type": "string"
        }
      ],
      "name": "setBaseUrlTokenURI",
      "outputs": [],
      "stateMutability": "nonpayable",
      "type": "function"
    },
    {
      "inputs": [
        {
          "internalType": "uint256",
          "name": "_fee",
          "type": "uint256"
        }
      ],
      "name": "setChangeDNAFee",
      "outputs": [],
      "stateMutability": "nonpayable",
      "type": "function"
    },
    {
      "inputs": [
        {
          "internalType": "uint256",
          "name": "_fee",
          "type": "uint256"
        }
      ],
      "name": "setChangeNameFee",
      "outputs": [],
      "stateMutability": "nonpayable",
      "type": "function"
    },
    {
      "inputs": [
        {
          "internalType": "uint256",
          "name": "_cooldownTime",
          "type": "uint256"
        }
      ],
      "name": "setCooldownTime",
      "outputs": [],
      "stateMutability": "nonpayable",
      "type": "function"
    },
    {
      "inputs": [
        {
          "internalType": "address",
          "name": "_address",
          "type": "address"
        }
      ],
      "name": "setKittyContractAddress",
      "outputs": [],
      "stateMutability": "nonpayable",
      "type": "function"
    },
    {
      "inputs": [
        {
          "internalType": "uint256",
          "name": "_fee",
          "type": "uint256"
        }
      ],
      "name": "setLevelUpFee",
      "outputs": [],
      "stateMutability": "nonpayable",
      "type": "function"
    },
    {
      "inputs": [
        {
          "internalType": "uint256",
          "name": "value",
          "type": "uint256"
        }
      ],
      "name": "setMinPrice",
      "outputs": [],
      "stateMutability": "nonpayable",
      "type": "function"
    },
    {
      "inputs": [
        {
          "internalType": "uint256",
          "name": "value",
          "type": "uint256"
        }
      ],
      "name": "setTax",
      "outputs": [],
      "stateMutability": "nonpayable",
      "type": "function"
    },
    {
      "inputs": [],
      "name": "tax",
      "outputs": [
        {
          "internalType": "uint256",
          "name": "",
          "type": "uint256"
        }
      ],
      "stateMutability": "view",
      "type": "function"
    },
    {
      "inputs": [
        {
          "internalType": "uint256",
          "name": "_tokenId",
          "type": "uint256"
        }
      ],
      "name": "tokenURI",
      "outputs": [
        {
          "internalType": "string",
          "name": "",
          "type": "string"
        }
      ],
      "stateMutability": "view",
      "type": "function"
    },
    {
      "inputs": [
        {
          "internalType": "address",
          "name": "_from",
          "type": "address"
        },
        {
          "internalType": "address",
          "name": "_to",
          "type": "address"
        },
        {
          "internalType": "uint256",
          "name": "_tokenId",
          "type": "uint256"
        }
      ],
      "name": "transferFrom",
      "outputs": [],
      "stateMutability": "payable",
      "type": "function"
    },
    {
      "inputs": [
        {
          "internalType": "address",
          "name": "newOwner",
          "type": "address"
        }
      ],
      "name": "transferOwnership",
      "outputs": [],
      "stateMutability": "nonpayable",
      "type": "function"
    },
    {
      "inputs": [],
      "name": "withdraw",
      "outputs": [],
      "stateMutability": "nonpayable",
      "type": "function"
    },
    {
      "inputs": [
        {
          "internalType": "uint256",
          "name": "",
          "type": "uint256"
        }
      ],
      "name": "zombieShop",
      "outputs": [
        {
          "internalType": "address payable",
          "name": "seller",
          "type": "address"
        },
        {
          "internalType": "uint256",
          "name": "price",
          "type": "uint256"
        }
      ],
      "stateMutability": "view",
      "type": "function"
    },
    {
      "inputs": [
        {
          "internalType": "uint256",
          "name": "",
          "type": "uint256"
        }
      ],
      "name": "zombieShopKeys",
      "outputs": [
        {
          "internalType": "uint256",
          "name": "",
          "type": "uint256"
        }
      ],
      "stateMutability": "view",
      "type": "function"
    },
    {
      "inputs": [
        {
          "internalType": "uint256",
          "name": "",
          "type": "uint256"
        }
      ],
      "name": "zombieToOwner",
      "outputs": [
        {
          "internalType": "address",
          "name": "",
          "type": "address"
        }
      ],
      "stateMutability": "view",
      "type": "function"
    },
    {
      "inputs": [
        {
          "internalType": "uint256",
          "name": "",
          "type": "uint256"
        }
      ],
      "name": "zombies",
      "outputs": [
        {
          "internalType": "string",
          "name": "name",
          "type": "string"
        },
        {
          "internalType": "uint256",
          "name": "dna",
          "type": "uint256"
        },
        {
          "internalType": "uint256",
          "name": "score",
          "type": "uint256"
        },
        {
          "internalType": "uint32",
          "name": "level",
          "type": "uint32"
        },
        {
          "internalType": "uint32",
          "name": "readyTime",
          "type": "uint32"
        },
        {
          "internalType": "uint16",
          "name": "winCount",
          "type": "uint16"
        },
        {
          "internalType": "uint16",
          "name": "lossCount",
          "type": "uint16"
        }
      ],
      "stateMutability": "view",
      "type": "function"
    }
  ],
  "bytecode": "0x60806040526010600155600154600a61001891906102c0565b600255603c60035566038d7ea4c6800060095566071afd498d0000600a55660e35fa931a0000600b556000600c556032600d5560405180606001604052806021815260200161582060219139600e90816100729190610551565b50655af3107a4000601055655af3107a400060115534801561009357600080fd5b50336000806101000a81548173ffffffffffffffffffffffffffffffffffffffff021916908373ffffffffffffffffffffffffffffffffffffffff16021790555060008054906101000a900473ffffffffffffffffffffffffffffffffffffffff1673ffffffffffffffffffffffffffffffffffffffff16600073ffffffffffffffffffffffffffffffffffffffff167f8be0079c531659141344cd1fd0a4f28419497f9722a3daafe3b4186f6b6457e060405160405180910390a3610623565b7f4e487b7100000000000000000000000000000000000000000000000000000000600052601160045260246000fd5b60008160011c9050919050565b6000808291508390505b60018511156101da578086048111156101b6576101b5610154565b5b60018516156101c55780820291505b80810290506101d385610183565b945061019a565b94509492505050565b6000826101f357600190506102af565b8161020157600090506102af565b8160018114610217576002811461022157610250565b60019150506102af565b60ff84111561023357610232610154565b5b8360020a91508482111561024a57610249610154565b5b506102af565b5060208310610133831016604e8410600b84101617156102855782820a9050838111156102805761027f610154565b5b6102af565b6102928484846001610190565b925090508184048111156102a9576102a8610154565b5b81810290505b9392505050565b6000819050919050565b60006102cb826102b6565b91506102d6836102b6565b92506103037fffffffffffffffffffffffffffffffffffffffffffffffffffffffffffffffff84846101e3565b905092915050565b600081519050919050565b7f4e487b7100000000000000000000000000000000000000000000000000000000600052604160045260246000fd5b7f4e487b7100000000000000000000000000000000000000000000000000000000600052602260045260246000fd5b6000600282049050600182168061038c57607f821691505b60208210810361039f5761039e610345565b5b50919050565b60008190508160005260206000209050919050565b60006020601f8301049050919050565b600082821b905092915050565b6000600883026104077fffffffffffffffffffffffffffffffffffffffffffffffffffffffffffffffff826103ca565b61041186836103ca565b95508019841693508086168417925050509392505050565b6000819050919050565b600061044e610449610444846102b6565b610429565b6102b6565b9050919050565b6000819050919050565b61046883610433565b61047c61047482610455565b8484546103d7565b825550505050565b600090565b610491610484565b61049c81848461045f565b505050565b5b818110156104c0576104b5600082610489565b6001810190506104a2565b5050565b601f821115610505576104d6816103a5565b6104df846103ba565b810160208510156104ee578190505b6105026104fa856103ba565b8301826104a1565b50505b505050565b600082821c905092915050565b60006105286000198460080261050a565b1980831691505092915050565b60006105418383610517565b9150826002028217905092915050565b61055a8261030b565b67ffffffffffffffff81111561057357610572610316565b5b61057d8254610374565b6105888282856104c4565b600060209050601f8311600181146105bb57600084156105a9578287015190505b6105b38582610535565b86555061061b565b601f1984166105c9866103a5565b60005b828110156105f1578489015182556001820191506020850194506020810190506105cc565b8683101561060e578489015161060a601f891682610517565b8355505b6001600288020188555050505b505050505050565b6151ee806106326000396000f3fe6080604052600436106102515760003560e01c80636ff73201116101395780638f32d59b116100b6578063c4114b121161007a578063c4114b1214610863578063c87b56dd1461088e578063ccf670f8146108cb578063e1fa7638146108f4578063e45be8eb1461091d578063f2fde38b1461094857610251565b80638f32d59b1461079d57806399c8d556146107c8578063b319c6b7146107f3578063b32c012d1461081e578063c39cbef11461084757610251565b8063715018a6116100fd578063715018a6146106ca57806376e71a9f146106e15780637bff0a011461071e5780638a48ac03146107475780638da5cb5b1461077257610251565b80636ff73201146105e5578063705668f71461060e57806370a082311461063957806370acbb631461067657806370f47cf9146106a157610251565b80634412e104116101d257806354c92c5f1161019657806354c92c5f146104e65780635ea8cd12146105115780635f4623f11461053a5780635faf2880146105635780636352211e1461057f5780636be17f0e146105bc57610251565b80634412e104146103c657806345c6ba391461040357806346979d34146104415780634f0951661461047e578063528b7b8f146104a957610251565b80632052465e116102195780632052465e1461030b578063208c750e1461034e57806323b872dd1461036a5780632e5bb6ff146103865780633ccfd60b146103af57610251565b806306f3376014610256578063095ea7b31461027f5780630ce90ec21461029b5780631398bbf7146102b75780631919b7e6146102e2575b600080fd5b34801561026257600080fd5b5061027d600480360381019061027891906138e4565b610971565b005b61029960048036038101906102949190613995565b610a3a565b005b6102b560048036038101906102b091906139d5565b610b58565b005b3480156102c357600080fd5b506102cc610cbf565b6040516102d99190613b67565b60405180910390f35b3480156102ee57600080fd5b5061030960048036038101906103049190613ccf565b611280565b005b34801561031757600080fd5b50610332600480360381019061032d91906139d5565b6112a4565b6040516103459796959493929190613dd4565b60405180910390f35b610368600480360381019061036391906139d5565b6113ba565b005b610384600480360381019061037f9190613e4a565b6115c9565b005b34801561039257600080fd5b506103ad60048036038101906103a891906139d5565b6116e3565b005b3480156103bb57600080fd5b506103c46116fe565b005b3480156103d257600080fd5b506103ed60048036038101906103e89190613e9d565b611765565b6040516103fa9190613f79565b60405180910390f35b34801561040f57600080fd5b5061042a600480360381019061042591906139d5565b611777565b604051610438929190613fbc565b60405180910390f35b34801561044d57600080fd5b50610468600480360381019061046391906139d5565b6117bb565b6040516104759190613fe5565b60405180910390f35b34801561048a57600080fd5b506104936117df565b6040516104a09190613fe5565b60405180910390f35b3480156104b557600080fd5b506104d060048036038101906104cb91906139d5565b6117e5565b6040516104dd919061400f565b60405180910390f35b3480156104f257600080fd5b506104fb611818565b604051610508919061402a565b60405180910390f35b34801561051d57600080fd5b50610538600480360381019061053391906139d5565b6118a6565b005b34801561054657600080fd5b50610561600480360381019061055c9190613e9d565b6118c1565b005b61057d6004803603810190610578919061404c565b611916565b005b34801561058b57600080fd5b506105a660048036038101906105a191906139d5565b611ad1565b6040516105b3919061400f565b60405180910390f35b3480156105c857600080fd5b506105e360048036038101906105de91906139d5565b611b0e565b005b3480156105f157600080fd5b5061060c600480360381019061060791906139d5565b611b29565b005b34801561061a57600080fd5b50610623611b44565b6040516106309190614179565b60405180910390f35b34801561064557600080fd5b50610660600480360381019061065b9190613e9d565b611c83565b60405161066d9190613fe5565b60405180910390f35b34801561068257600080fd5b5061068b611ccc565b6040516106989190613fe5565b60405180910390f35b3480156106ad57600080fd5b506106c860048036038101906106c391906139d5565b611cd2565b005b3480156106d657600080fd5b506106df611ced565b005b3480156106ed57600080fd5b50610708600480360381019061070391906139d5565b611dbc565b60405161071591906141ca565b60405180910390f35b34801561072a57600080fd5b5061074560048036038101906107409190613ccf565b611e49565b005b34801561075357600080fd5b5061075c611f49565b6040516107699190614294565b60405180910390f35b34801561077e57600080fd5b5061078761204e565b604051610794919061400f565b60405180910390f35b3480156107a957600080fd5b506107b2612077565b6040516107bf91906142d1565b60405180910390f35b3480156107d457600080fd5b506107dd6120ce565b6040516107ea9190613fe5565b60405180910390f35b3480156107ff57600080fd5b506108086120d4565b6040516108159190613fe5565b60405180910390f35b34801561082a57600080fd5b506108456004803603810190610840919061404c565b6120da565b005b610861600480360381019061085c919061434c565b612286565b005b34801561086f57600080fd5b5061087861244d565b6040516108859190613fe5565b60405180910390f35b34801561089a57600080fd5b506108b560048036038101906108b091906139d5565b612453565b6040516108c2919061402a565b60405180910390f35b3480156108d757600080fd5b506108f260048036038101906108ed91906139d5565b6124c1565b005b34801561090057600080fd5b5061091b6004803603810190610916919061404c565b6124dc565b005b34801561092957600080fd5b50610932612845565b60405161093f9190613fe5565b60405180910390f35b34801561095457600080fd5b5061096f600480360381019061096a9190613e9d565b61284b565b005b600060048481548110610987576109866143ac565b5b9060005260206000209060040201905060006109d985856040518060400160405280600581526020017f6b69747479000000000000000000000000000000000000000000000000000000815250612868565b90503373ffffffffffffffffffffffffffffffffffffffff167f94bd9f81959636fb1ddd32f8bcbdab8b649d20a6a464f759a1aa7f7cf4447fac8360010154868685604051610a2b94939291906143db565b60405180910390a25050505050565b806006600082815260200190815260200160002060009054906101000a900473ffffffffffffffffffffffffffffffffffffffff1673ffffffffffffffffffffffffffffffffffffffff163373ffffffffffffffffffffffffffffffffffffffff1614610aa657600080fd5b82600f600084815260200190815260200160002060006101000a81548173ffffffffffffffffffffffffffffffffffffffff021916908373ffffffffffffffffffffffffffffffffffffffff160217905550818373ffffffffffffffffffffffffffffffffffffffff163373ffffffffffffffffffffffffffffffffffffffff167f8c5be1e5ebec7d5bd14f71427d1e84f3dd0314c0f7b2291e5b200ac8c7c3b92560405160405180910390a4505050565b60095480341015610b6882612a41565b604051602001610b789190614482565b60405160208183030381529060405290610bc8576040517f08c379a0000000000000000000000000000000000000000000000000000000008152600401610bbf919061402a565b60405180910390fd5b50816006600082815260200190815260200160002060009054906101000a900473ffffffffffffffffffffffffffffffffffffffff1673ffffffffffffffffffffffffffffffffffffffff163373ffffffffffffffffffffffffffffffffffffffff1614610c3557600080fd5b600160048481548110610c4b57610c4a6143ac565b5b906000526020600020906004020160030160009054906101000a900463ffffffff16610c7791906144d7565b60048481548110610c8b57610c8a6143ac565b5b906000526020600020906004020160030160006101000a81548163ffffffff021916908363ffffffff160217905550505050565b606060003390506000600580549050905060008167ffffffffffffffff811115610cec57610ceb613ba4565b5b604051908082528060200260200182016040528015610d2557816020015b610d12613816565b815260200190600190039081610d0a5790505b50905060006014905060005b83811015610fd757600060058281548110610d4f57610d4e6143ac565b5b9060005260206000200160009054906101000a900473ffffffffffffffffffffffffffffffffffffffff1690506000610d8782612b0f565b90506000806000805b8451811015610f5a5760006004868381518110610db057610daf6143ac565b5b602002602001015181548110610dc957610dc86143ac565b5b90600052602060002090600402016040518060e0016040529081600082018054610df29061453e565b80601f0160208091040260200160405190810160405280929190818152602001828054610e1e9061453e565b8015610e6b5780601f10610e4057610100808354040283529160200191610e6b565b820191906000526020600020905b815481529060010190602001808311610e4e57829003601f168201915b5050505050815260200160018201548152602001600282015481526020016003820160009054906101000a900463ffffffff1663ffffffff1663ffffffff1681526020016003820160049054906101000a900463ffffffff1663ffffffff1663ffffffff1681526020016003820160089054906101000a900461ffff1661ffff1661ffff16815260200160038201600a9054906101000a900461ffff1661ffff1661ffff16815250509050806040015185610f26919061456f565b94508060a0015184610f3891906145a3565b93508060c0015183610f4a91906145a3565b9250508080600101915050610d90565b506040518060c001604052808673ffffffffffffffffffffffffffffffffffffffff168152602001878152602001848152602001855181526020018361ffff1681526020018261ffff16815250888781518110610fba57610fb96143ac565b5b602002602001018190525050505050508080600101915050610d31565b50610fe182612c5c565b5080825111610ff6578194505050505061127d565b60008167ffffffffffffffff81111561101257611011613ba4565b5b60405190808252806020026020018201604052801561104b57816020015b611038613816565b8152602001906001900390816110305790505b50905060008060028461105e9190614608565b905060005b818110156110bd5785818151811061107e5761107d6143ac565b5b602002602001015184848061109290614639565b9550815181106110a5576110a46143ac565b5b60200260200101819052508080600101915050611063565b5060006001856110cd919061456f565b876110d89190614681565b905060008190505b87811080156110ee57508584105b1561114b57868181518110611106576111056143ac565b5b602002602001015185858061111a90614639565b96508151811061112d5761112c6143ac565b5b6020026020010181905250808061114390614639565b9150506110e0565b506000805b848110156111bf578973ffffffffffffffffffffffffffffffffffffffff16868281518110611182576111816143ac565b5b60200260200101516000015173ffffffffffffffffffffffffffffffffffffffff16036111b257600191506111bf565b8080600101915050611150565b50806112705760005b875181101561126e578973ffffffffffffffffffffffffffffffffffffffff168882815181106111fb576111fa6143ac565b5b60200260200101516000015173ffffffffffffffffffffffffffffffffffffffff160361126157878181518110611235576112346143ac565b5b602002602001015186600a81518110611251576112506143ac565b5b602002602001018190525061126e565b80806001019150506111c8565b505b8499505050505050505050505b90565b611288612077565b61129157600080fd5b80600e90816112a09190614861565b5050565b600481815481106112b457600080fd5b90600052602060002090600402016000915090508060000180546112d79061453e565b80601f01602080910402602001604051908101604052809291908181526020018280546113039061453e565b80156113505780601f1061132557610100808354040283529160200191611350565b820191906000526020600020905b81548152906001019060200180831161133357829003601f168201915b5050505050908060010154908060020154908060030160009054906101000a900463ffffffff16908060030160049054906101000a900463ffffffff16908060030160089054906101000a900461ffff169080600301600a9054906101000a900461ffff16905087565b6000601360008381526020019081526020016000206040518060400160405290816000820160009054906101000a900473ffffffffffffffffffffffffffffffffffffffff1673ffffffffffffffffffffffffffffffffffffffff1673ffffffffffffffffffffffffffffffffffffffff1681526020016001820154815250509050806000015173ffffffffffffffffffffffffffffffffffffffff16600073ffffffffffffffffffffffffffffffffffffffff16036114af576040517f08c379a00000000000000000000000000000000000000000000000000000000081526004016114a69061497f565b60405180910390fd5b80602001513410156114f6576040517f08c379a00000000000000000000000000000000000000000000000000000000081526004016114ed906149eb565b60405180910390fd5b61150581600001513384612d5a565b806000015173ffffffffffffffffffffffffffffffffffffffff166108fc601054346115319190614681565b9081150290604051600060405180830381858888f1935050505015801561155c573d6000803e3d6000fd5b5061156682612f2a565b806000015173ffffffffffffffffffffffffffffffffffffffff163373ffffffffffffffffffffffffffffffffffffffff16837f2705da8f1145dc87c9e6b9aa3ecd69d3d64da132acba45c803563ad52f5c2b5f60405160405180910390a45050565b3373ffffffffffffffffffffffffffffffffffffffff166006600083815260200190815260200160002060009054906101000a900473ffffffffffffffffffffffffffffffffffffffff1673ffffffffffffffffffffffffffffffffffffffff16148061169457503373ffffffffffffffffffffffffffffffffffffffff16600f600083815260200190815260200160002060009054906101000a900473ffffffffffffffffffffffffffffffffffffffff1673ffffffffffffffffffffffffffffffffffffffff16145b6116d3576040517f08c379a00000000000000000000000000000000000000000000000000000000081526004016116ca90614a57565b60405180910390fd5b6116de838383612d5a565b505050565b6116eb612077565b6116f457600080fd5b8060108190555050565b611706612077565b61170f57600080fd5b600061171961204e565b90508073ffffffffffffffffffffffffffffffffffffffff166108fc479081150290604051600060405180830381858888f19350505050158015611761573d6000803e3d6000fd5b5050565b606061177082612b0f565b9050919050565b60136020528060005260406000206000915090508060000160009054906101000a900473ffffffffffffffffffffffffffffffffffffffff16908060010154905082565b601281815481106117cb57600080fd5b906000526020600020016000915090505481565b600a5481565b60066020528060005260406000206000915054906101000a900473ffffffffffffffffffffffffffffffffffffffff1681565b600e80546118259061453e565b80601f01602080910402602001604051908101604052809291908181526020018280546118519061453e565b801561189e5780601f106118735761010080835404028352916020019161189e565b820191906000526020600020905b81548152906001019060200180831161188157829003601f168201915b505050505081565b6118ae612077565b6118b757600080fd5b8060118190555050565b6118c9612077565b6118d257600080fd5b80600860006101000a81548173ffffffffffffffffffffffffffffffffffffffff021916908373ffffffffffffffffffffffffffffffffffffffff16021790555050565b600b548034101561192682612a41565b6040516020016119369190614482565b60405160208183030381529060405290611986576040517f08c379a000000000000000000000000000000000000000000000000000000000815260040161197d919061402a565b60405180910390fd5b50601483816004828154811061199f5761199e6143ac565b5b906000526020600020906004020160030160009054906101000a900463ffffffff1663ffffffff1610156119d283612a41565b6040516020016119e29190614a9d565b60405160208183030381529060405290611a32576040517f08c379a0000000000000000000000000000000000000000000000000000000008152600401611a29919061402a565b60405180910390fd5b50846006600082815260200190815260200160002060009054906101000a900473ffffffffffffffffffffffffffffffffffffffff1673ffffffffffffffffffffffffffffffffffffffff163373ffffffffffffffffffffffffffffffffffffffff1614611a9f57600080fd5b8460048781548110611ab457611ab36143ac565b5b906000526020600020906004020160010181905550505050505050565b60006006600083815260200190815260200160002060009054906101000a900473ffffffffffffffffffffffffffffffffffffffff169050919050565b611b16612077565b611b1f57600080fd5b80600a8190555050565b611b31612077565b611b3a57600080fd5b8060038190555050565b60606000601280549050905060008167ffffffffffffffff811115611b6c57611b6b613ba4565b5b604051908082528060200260200182016040528015611ba557816020015b611b9261386a565b815260200190600190039081611b8a5790505b50905060005b82811015611c7a576013600060128381548110611bcb57611bca6143ac565b5b906000526020600020015481526020019081526020016000206040518060400160405290816000820160009054906101000a900473ffffffffffffffffffffffffffffffffffffffff1673ffffffffffffffffffffffffffffffffffffffff1673ffffffffffffffffffffffffffffffffffffffff168152602001600182015481525050828281518110611c6257611c616143ac565b5b60200260200101819052508080600101915050611bab565b50809250505090565b6000600760008373ffffffffffffffffffffffffffffffffffffffff1673ffffffffffffffffffffffffffffffffffffffff168152602001908152602001600020549050919050565b600b5481565b611cda612077565b611ce357600080fd5b80600b8190555050565b611cf5612077565b611cfe57600080fd5b600073ffffffffffffffffffffffffffffffffffffffff1660008054906101000a900473ffffffffffffffffffffffffffffffffffffffff1673ffffffffffffffffffffffffffffffffffffffff167f8be0079c531659141344cd1fd0a4f28419497f9722a3daafe3b4186f6b6457e060405160405180910390a360008060006101000a81548173ffffffffffffffffffffffffffffffffffffffff021916908373ffffffffffffffffffffffffffffffffffffffff160217905550565b611dc461386a565b601360008381526020019081526020016000206040518060400160405290816000820160009054906101000a900473ffffffffffffffffffffffffffffffffffffffff1673ffffffffffffffffffffffffffffffffffffffff1673ffffffffffffffffffffffffffffffffffffffff1681526020016001820154815250509050919050565b6000600760003373ffffffffffffffffffffffffffffffffffffffff1673ffffffffffffffffffffffffffffffffffffffff1681526020019081526020016000205414611ecb576040517f08c379a0000000000000000000000000000000000000000000000000000000008152600401611ec290614b35565b60405180910390fd5b6000611ed682613034565b9050611ee28282613079565b6005339080600181540180825580915050600190039060005260206000200160009091909190916101000a81548173ffffffffffffffffffffffffffffffffffffffff021916908373ffffffffffffffffffffffffffffffffffffffff1602179055505050565b6060600060058054905067ffffffffffffffff811115611f6c57611f6b613ba4565b5b604051908082528060200260200182016040528015611f9a5781602001602082028036833780820191505090505b50905060005b6005805490508110156120465760058181548110611fc157611fc06143ac565b5b9060005260206000200160009054906101000a900473ffffffffffffffffffffffffffffffffffffffff16828281518110611fff57611ffe6143ac565b5b602002602001019073ffffffffffffffffffffffffffffffffffffffff16908173ffffffffffffffffffffffffffffffffffffffff16815250508080600101915050611fa0565b508091505090565b60008060009054906101000a900473ffffffffffffffffffffffffffffffffffffffff16905090565b60008060009054906101000a900473ffffffffffffffffffffffffffffffffffffffff1673ffffffffffffffffffffffffffffffffffffffff163373ffffffffffffffffffffffffffffffffffffffff1614905090565b60105481565b60035481565b816006600082815260200190815260200160002060009054906101000a900473ffffffffffffffffffffffffffffffffffffffff1673ffffffffffffffffffffffffffffffffffffffff163373ffffffffffffffffffffffffffffffffffffffff161461214657600080fd5b601154601054612156919061456f565b821015612198576040517f08c379a000000000000000000000000000000000000000000000000000000000815260040161218f906149eb565b60405180910390fd5b60405180604001604052803373ffffffffffffffffffffffffffffffffffffffff168152602001838152506013600085815260200190815260200160002060008201518160000160006101000a81548173ffffffffffffffffffffffffffffffffffffffff021916908373ffffffffffffffffffffffffffffffffffffffff16021790555060208201518160010155905050601283908060018154018082558091505060019003906000526020600020016000909190919091505581837fb03c845c6c9ef1ff8db2c6381cd7ecf8c5623e02bb20e85545f3d04288302e5860405160405180910390a3505050565b600a548034101561229682612a41565b6040516020016122a69190614482565b604051602081830303815290604052906122f6576040517f08c379a00000000000000000000000000000000000000000000000000000000081526004016122ed919061402a565b60405180910390fd5b50600284816004828154811061230f5761230e6143ac565b5b906000526020600020906004020160030160009054906101000a900463ffffffff1663ffffffff16101561234283612a41565b6040516020016123529190614a9d565b604051602081830303815290604052906123a2576040517f08c379a0000000000000000000000000000000000000000000000000000000008152600401612399919061402a565b60405180910390fd5b50856006600082815260200190815260200160002060009054906101000a900473ffffffffffffffffffffffffffffffffffffffff1673ffffffffffffffffffffffffffffffffffffffff163373ffffffffffffffffffffffffffffffffffffffff161461240f57600080fd5b858560048981548110612425576124246143ac565b5b90600052602060002090600402016000019182612443929190614b60565b5050505050505050565b60095481565b606060006004838154811061246b5761246a6143ac565b5b90600052602060002090600402019050600e61248684612a41565b826000016124978460010154612a41565b6040516020016124aa9493929190614cd9565b604051602081830303815290604052915050919050565b6124c9612077565b6124d257600080fd5b8060098190555050565b816006600082815260200190815260200160002060009054906101000a900473ffffffffffffffffffffffffffffffffffffffff1673ffffffffffffffffffffffffffffffffffffffff163373ffffffffffffffffffffffffffffffffffffffff161461254857600080fd5b60006004848154811061255e5761255d6143ac565b5b90600052602060002090600402019050600060048481548110612584576125836143ac565b5b9060005260206000209060040201905060006125a0838361330a565b9050600060644233896040516020016125bb93929190614d9e565b6040516020818303038152906040528051906020012060001c6125de9190614ddb565b90508181116127565783600301600881819054906101000a900461ffff168092919061260990614e0c565b91906101000a81548161ffff021916908361ffff1602179055505083600301600081819054906101000a900463ffffffff168092919061264890614e36565b91906101000a81548163ffffffff021916908363ffffffff1602179055505082600301600a81819054906101000a900461ffff168092919061268990614e0c565b91906101000a81548161ffff021916908361ffff160217905550506126ad84613446565b6126b683613446565b60006126fc8885600101546040518060400160405280600681526020017f7a6f6d6269650000000000000000000000000000000000000000000000000000815250612868565b90503373ffffffffffffffffffffffffffffffffffffffff167f750a7c18ca7f7bd87c6e50678ea7fa4f64d0cb733bb68cdac552d009737b471689898460405161274893929190614e62565b60405180910390a25061283c565b83600301600a81819054906101000a900461ffff168092919061277890614e0c565b91906101000a81548161ffff021916908361ffff1602179055505082600301600881819054906101000a900461ffff16809291906127b590614e0c565b91906101000a81548161ffff021916908361ffff160217905550506127d984613446565b6127e283613446565b6127eb846134ec565b3373ffffffffffffffffffffffffffffffffffffffff167f4fa78061bb2783669831d2e2aa9ca18cb698e098923982bfada46ceaf1516d6a8888604051612833929190614e99565b60405180910390a25b50505050505050565b60115481565b612853612077565b61285c57600080fd5b6128658161351f565b50565b6000836006600082815260200190815260200160002060009054906101000a900473ffffffffffffffffffffffffffffffffffffffff1673ffffffffffffffffffffffffffffffffffffffff163373ffffffffffffffffffffffffffffffffffffffff16146128d657600080fd5b6000600486815481106128ec576128eb6143ac565b5b9060005260206000209060040201905061290581613615565b612944576040517f08c379a000000000000000000000000000000000000000000000000000000000815260040161293b90614f0e565b60405180910390fd5b600254856129529190614ddb565b945060006002868360010154612968919061456f565b6129729190614608565b905060405160200161298390614f7a565b60405160208183030381529060405280519060200120856040516020016129aa9190614f8f565b60405160208183030381529060405280519060200120036129ec5760636064826129d49190614ddb565b826129df9190614681565b6129e9919061456f565b90505b612a2b6040518060400160405280600681526020017f4e6f4e616d65000000000000000000000000000000000000000000000000000081525082613079565b612a34826134ec565b8093505050509392505050565b606060006001612a508461363c565b01905060008167ffffffffffffffff811115612a6f57612a6e613ba4565b5b6040519080825280601f01601f191660200182016040528015612aa15781602001600182028036833780820191505090505b509050600082602001820190505b600115612b04578080600190039150507f3031323334353637383961626364656600000000000000000000000000000000600a86061a8153600a8581612af857612af76145d9565b5b04945060008503612aaf575b819350505050919050565b60606000600760008473ffffffffffffffffffffffffffffffffffffffff1673ffffffffffffffffffffffffffffffffffffffff1681526020019081526020016000205467ffffffffffffffff811115612b6c57612b6b613ba4565b5b604051908082528060200260200182016040528015612b9a5781602001602082028036833780820191505090505b5090506000805b600480549050811015612c51578473ffffffffffffffffffffffffffffffffffffffff166006600083815260200190815260200160002060009054906101000a900473ffffffffffffffffffffffffffffffffffffffff1673ffffffffffffffffffffffffffffffffffffffff1603612c445780838381518110612c2857612c276143ac565b5b602002602001018181525050600182612c41919061456f565b91505b8080600101915050612ba1565b508192505050919050565b60606000600190505b8251811015612d515760005b81811015612d4357838181518110612c8c57612c8b6143ac565b5b602002602001015160400151848381518110612cab57612caa6143ac565b5b6020026020010151604001511015612d36576000848381518110612cd257612cd16143ac565b5b60200260200101519050848281518110612cef57612cee6143ac565b5b6020026020010151858481518110612d0a57612d096143ac565b5b602002602001018190525080858381518110612d2957612d286143ac565b5b6020026020010181905250505b8080600101915050612c71565b508080600101915050612c65565b50819050919050565b6001600760008473ffffffffffffffffffffffffffffffffffffffff1673ffffffffffffffffffffffffffffffffffffffff16815260200190815260200160002054612da6919061456f565b600760008473ffffffffffffffffffffffffffffffffffffffff1673ffffffffffffffffffffffffffffffffffffffff168152602001908152602001600020819055506001600760008573ffffffffffffffffffffffffffffffffffffffff1673ffffffffffffffffffffffffffffffffffffffff16815260200190815260200160002054612e359190614681565b600760008573ffffffffffffffffffffffffffffffffffffffff1673ffffffffffffffffffffffffffffffffffffffff16815260200190815260200160002081905550816006600083815260200190815260200160002060006101000a81548173ffffffffffffffffffffffffffffffffffffffff021916908373ffffffffffffffffffffffffffffffffffffffff160217905550808273ffffffffffffffffffffffffffffffffffffffff168473ffffffffffffffffffffffffffffffffffffffff167fddf252ad1be2c89b69c2b068fc378daa952ba7f163c4a11628f55a4df523b3ef60405160405180910390a4505050565b60136000828152602001908152602001600020600080820160006101000a81549073ffffffffffffffffffffffffffffffffffffffff02191690556001820160009055505060005b601280549050811015613030578160128281548110612f9457612f936143ac565b5b9060005260206000200154036130235760126001601280549050612fb89190614681565b81548110612fc957612fc86143ac565b5b906000526020600020015460128281548110612fe857612fe76143ac565b5b9060005260206000200181905550601280548061300857613007614fa6565b5b60019003818190600052602060002001600090559055613030565b8080600101915050612f72565b5050565b600080826040516020016130489190614f8f565b6040516020818303038152906040528051906020012060001c9050600254816130719190614ddb565b915050919050565b60046040518060e0016040528084815260200183815260200160008152602001600163ffffffff168152602001600354426130b4919061456f565b63ffffffff168152602001600061ffff168152602001600061ffff16815250908060018154018082558091505060019003906000526020600020906004020160009091909190915060008201518160000190816131119190614861565b50602082015181600101556040820151816002015560608201518160030160006101000a81548163ffffffff021916908363ffffffff16021790555060808201518160030160046101000a81548163ffffffff021916908363ffffffff16021790555060a08201518160030160086101000a81548161ffff021916908361ffff16021790555060c082015181600301600a6101000a81548161ffff021916908361ffff1602179055505050600060016004805490506131d09190614681565b9050336006600083815260200190815260200160002060006101000a81548173ffffffffffffffffffffffffffffffffffffffff021916908373ffffffffffffffffffffffffffffffffffffffff1602179055506001600760003373ffffffffffffffffffffffffffffffffffffffff1673ffffffffffffffffffffffffffffffffffffffff16815260200190815260200160002054613270919061456f565b600760003373ffffffffffffffffffffffffffffffffffffffff1673ffffffffffffffffffffffffffffffffffffffff168152602001908152602001600020819055503373ffffffffffffffffffffffffffffffffffffffff167ff92b1ba4cb9ae7683c3a3a1e58273b24013547531f590e32910f3105e8349e1f8285856040516132fd93929190614fd5565b60405180910390a2505050565b600080600d54905060008360030160009054906101000a900463ffffffff168560030160009054906101000a900463ffffffff166133489190615020565b905060008160030b131561337b57600281613363919061507c565b63ffffffff1682613374919061456f565b91506133b2565b60008160030b12156133b157600281613393906150b9565b61339d919061507c565b63ffffffff16826133ae9190614681565b91505b5b6000806133c2876001015461378f565b509150915060006133d6876001015461378f565b925050506000600a82846002876133ed9190615101565b6133f7919061456f565b6134019190614681565b61340b9190614608565b90508086613419919061456f565b9550605a86111561342957605a95505b601e86101561343757601e95505b85965050505050505092915050565b6000600382600301600a9054906101000a900461ffff166134679190615143565b61ffff1660058360030160089054906101000a900461ffff1661348a9190615143565b61ffff16600a8460030160009054906101000a900463ffffffff166134af919061507c565b6134b991906144d7565b6134c39190615180565b9050600a8163ffffffff1610156134d957600a90505b8063ffffffff1682600201819055505050565b600354426134fa919061456f565b8160030160046101000a81548163ffffffff021916908363ffffffff16021790555050565b600073ffffffffffffffffffffffffffffffffffffffff168173ffffffffffffffffffffffffffffffffffffffff160361355857600080fd5b8073ffffffffffffffffffffffffffffffffffffffff1660008054906101000a900473ffffffffffffffffffffffffffffffffffffffff1673ffffffffffffffffffffffffffffffffffffffff167f8be0079c531659141344cd1fd0a4f28419497f9722a3daafe3b4186f6b6457e060405160405180910390a3806000806101000a81548173ffffffffffffffffffffffffffffffffffffffff021916908373ffffffffffffffffffffffffffffffffffffffff16021790555050565b6000428260030160049054906101000a900463ffffffff1663ffffffff1611159050919050565b600080600090507a184f03e93ff9f4daa797ed6e38ed64bf6a1f010000000000000000831061369a577a184f03e93ff9f4daa797ed6e38ed64bf6a1f01000000000000000083816136905761368f6145d9565b5b0492506040810190505b6d04ee2d6d415b85acef810000000083106136d7576d04ee2d6d415b85acef810000000083816136cd576136cc6145d9565b5b0492506020810190505b662386f26fc10000831061370657662386f26fc1000083816136fc576136fb6145d9565b5b0492506010810190505b6305f5e100831061372f576305f5e1008381613725576137246145d9565b5b0492506008810190505b612710831061375457612710838161374a576137496145d9565b5b0492506004810190505b60648310613777576064838161376d5761376c6145d9565b5b0492506002810190505b600a8310613786576001810190505b80915050919050565b6000806000806032856137a29190614ddb565b60326137ae919061456f565b9050600060326064876137c19190614608565b6137cb9190614ddb565b60326137d7919061456f565b905060006032612710886137eb9190614608565b6137f59190614ddb565b6032613801919061456f565b90508282829550955095505050509193909250565b6040518060c00160405280600073ffffffffffffffffffffffffffffffffffffffff168152602001600081526020016000815260200160008152602001600061ffff168152602001600061ffff1681525090565b6040518060400160405280600073ffffffffffffffffffffffffffffffffffffffff168152602001600081525090565b6000604051905090565b600080fd5b600080fd5b6000819050919050565b6138c1816138ae565b81146138cc57600080fd5b50565b6000813590506138de816138b8565b92915050565b6000806000606084860312156138fd576138fc6138a4565b5b600061390b868287016138cf565b935050602061391c868287016138cf565b925050604061392d868287016138cf565b9150509250925092565b600073ffffffffffffffffffffffffffffffffffffffff82169050919050565b600061396282613937565b9050919050565b61397281613957565b811461397d57600080fd5b50565b60008135905061398f81613969565b92915050565b600080604083850312156139ac576139ab6138a4565b5b60006139ba85828601613980565b92505060206139cb858286016138cf565b9150509250929050565b6000602082840312156139eb576139ea6138a4565b5b60006139f9848285016138cf565b91505092915050565b600081519050919050565b600082825260208201905092915050565b6000819050602082019050919050565b613a3781613957565b82525050565b613a46816138ae565b82525050565b600061ffff82169050919050565b613a6381613a4c565b82525050565b60c082016000820151613a7f6000850182613a2e565b506020820151613a926020850182613a3d565b506040820151613aa56040850182613a3d565b506060820151613ab86060850182613a3d565b506080820151613acb6080850182613a5a565b5060a0820151613ade60a0850182613a5a565b50505050565b6000613af08383613a69565b60c08301905092915050565b6000602082019050919050565b6000613b1482613a02565b613b1e8185613a0d565b9350613b2983613a1e565b8060005b83811015613b5a578151613b418882613ae4565b9750613b4c83613afc565b925050600181019050613b2d565b5085935050505092915050565b60006020820190508181036000830152613b818184613b09565b905092915050565b600080fd5b600080fd5b6000601f19601f8301169050919050565b7f4e487b7100000000000000000000000000000000000000000000000000000000600052604160045260246000fd5b613bdc82613b93565b810181811067ffffffffffffffff82111715613bfb57613bfa613ba4565b5b80604052505050565b6000613c0e61389a565b9050613c1a8282613bd3565b919050565b600067ffffffffffffffff821115613c3a57613c39613ba4565b5b613c4382613b93565b9050602081019050919050565b82818337600083830152505050565b6000613c72613c6d84613c1f565b613c04565b905082815260208101848484011115613c8e57613c8d613b8e565b5b613c99848285613c50565b509392505050565b600082601f830112613cb657613cb5613b89565b5b8135613cc6848260208601613c5f565b91505092915050565b600060208284031215613ce557613ce46138a4565b5b600082013567ffffffffffffffff811115613d0357613d026138a9565b5b613d0f84828501613ca1565b91505092915050565b600081519050919050565b600082825260208201905092915050565b60005b83811015613d52578082015181840152602081019050613d37565b60008484015250505050565b6000613d6982613d18565b613d738185613d23565b9350613d83818560208601613d34565b613d8c81613b93565b840191505092915050565b613da0816138ae565b82525050565b600063ffffffff82169050919050565b613dbf81613da6565b82525050565b613dce81613a4c565b82525050565b600060e0820190508181036000830152613dee818a613d5e565b9050613dfd6020830189613d97565b613e0a6040830188613d97565b613e176060830187613db6565b613e246080830186613db6565b613e3160a0830185613dc5565b613e3e60c0830184613dc5565b98975050505050505050565b600080600060608486031215613e6357613e626138a4565b5b6000613e7186828701613980565b9350506020613e8286828701613980565b9250506040613e93868287016138cf565b9150509250925092565b600060208284031215613eb357613eb26138a4565b5b6000613ec184828501613980565b91505092915050565b600081519050919050565b600082825260208201905092915050565b6000819050602082019050919050565b6000613f028383613a3d565b60208301905092915050565b6000602082019050919050565b6000613f2682613eca565b613f308185613ed5565b9350613f3b83613ee6565b8060005b83811015613f6c578151613f538882613ef6565b9750613f5e83613f0e565b925050600181019050613f3f565b5085935050505092915050565b60006020820190508181036000830152613f938184613f1b565b905092915050565b6000613fa682613937565b9050919050565b613fb681613f9b565b82525050565b6000604082019050613fd16000830185613fad565b613fde6020830184613d97565b9392505050565b6000602082019050613ffa6000830184613d97565b92915050565b61400981613957565b82525050565b60006020820190506140246000830184614000565b92915050565b600060208201905081810360008301526140448184613d5e565b905092915050565b60008060408385031215614063576140626138a4565b5b6000614071858286016138cf565b9250506020614082858286016138cf565b9150509250929050565b600081519050919050565b600082825260208201905092915050565b6000819050602082019050919050565b6140c181613f9b565b82525050565b6040820160008201516140dd60008501826140b8565b5060208201516140f06020850182613a3d565b50505050565b600061410283836140c7565b60408301905092915050565b6000602082019050919050565b60006141268261408c565b6141308185614097565b935061413b836140a8565b8060005b8381101561416c57815161415388826140f6565b975061415e8361410e565b92505060018101905061413f565b5085935050505092915050565b60006020820190508181036000830152614193818461411b565b905092915050565b6040820160008201516141b160008501826140b8565b5060208201516141c46020850182613a3d565b50505050565b60006040820190506141df600083018461419b565b92915050565b600081519050919050565b600082825260208201905092915050565b6000819050602082019050919050565b600061421d8383613a2e565b60208301905092915050565b6000602082019050919050565b6000614241826141e5565b61424b81856141f0565b935061425683614201565b8060005b8381101561428757815161426e8882614211565b975061427983614229565b92505060018101905061425a565b5085935050505092915050565b600060208201905081810360008301526142ae8184614236565b905092915050565b60008115159050919050565b6142cb816142b6565b82525050565b60006020820190506142e660008301846142c2565b92915050565b600080fd5b600080fd5b60008083601f84011261430c5761430b613b89565b5b8235905067ffffffffffffffff811115614329576143286142ec565b5b602083019150836001820283011115614345576143446142f1565b5b9250929050565b600080600060408486031215614365576143646138a4565b5b6000614373868287016138cf565b935050602084013567ffffffffffffffff811115614394576143936138a9565b5b6143a0868287016142f6565b92509250509250925092565b7f4e487b7100000000000000000000000000000000000000000000000000000000600052603260045260246000fd5b60006080820190506143f06000830187613d97565b6143fd6020830186613d97565b61440a6040830185613d97565b6144176060830184613d97565b95945050505050565b7f5072696365206d696e696d756d20697320000000000000000000000000000000815250565b600081905092915050565b600061445c82613d18565b6144668185614446565b9350614476818560208601613d34565b80840191505092915050565b600061448d82614420565b60118201915061449d8284614451565b915081905092915050565b7f4e487b7100000000000000000000000000000000000000000000000000000000600052601160045260246000fd5b60006144e282613da6565b91506144ed83613da6565b9250828201905063ffffffff811115614509576145086144a8565b5b92915050565b7f4e487b7100000000000000000000000000000000000000000000000000000000600052602260045260246000fd5b6000600282049050600182168061455657607f821691505b6020821081036145695761456861450f565b5b50919050565b600061457a826138ae565b9150614585836138ae565b925082820190508082111561459d5761459c6144a8565b5b92915050565b60006145ae82613a4c565b91506145b983613a4c565b9250828201905061ffff8111156145d3576145d26144a8565b5b92915050565b7f4e487b7100000000000000000000000000000000000000000000000000000000600052601260045260246000fd5b6000614613826138ae565b915061461e836138ae565b92508261462e5761462d6145d9565b5b828204905092915050565b6000614644826138ae565b91507fffffffffffffffffffffffffffffffffffffffffffffffffffffffffffffffff8203614676576146756144a8565b5b600182019050919050565b600061468c826138ae565b9150614697836138ae565b92508282039050818111156146af576146ae6144a8565b5b92915050565b60008190508160005260206000209050919050565b60006020601f8301049050919050565b600082821b905092915050565b6000600883026147177fffffffffffffffffffffffffffffffffffffffffffffffffffffffffffffffff826146da565b61472186836146da565b95508019841693508086168417925050509392505050565b6000819050919050565b600061475e614759614754846138ae565b614739565b6138ae565b9050919050565b6000819050919050565b61477883614743565b61478c61478482614765565b8484546146e7565b825550505050565b600090565b6147a1614794565b6147ac81848461476f565b505050565b5b818110156147d0576147c5600082614799565b6001810190506147b2565b5050565b601f821115614815576147e6816146b5565b6147ef846146ca565b810160208510156147fe578190505b61481261480a856146ca565b8301826147b1565b50505b505050565b600082821c905092915050565b60006148386000198460080261481a565b1980831691505092915050565b60006148518383614827565b9150826002028217905092915050565b61486a82613d18565b67ffffffffffffffff81111561488357614882613ba4565b5b61488d825461453e565b6148988282856147d4565b600060209050601f8311600181146148cb57600084156148b9578287015190505b6148c38582614845565b86555061492b565b601f1984166148d9866146b5565b60005b82811015614901578489015182556001820191506020850194506020810190506148dc565b8683101561491e578489015161491a601f891682614827565b8355505b6001600288020188555050505b505050505050565b7f5a6f6d62696520617265206e6f74206f6e2073616c652e000000000000000000600082015250565b6000614969601783613d23565b915061497482614933565b602082019050919050565b600060208201905081810360008301526149988161495c565b9050919050565b7f596f757220707269636520697320746f6f206c6f770000000000000000000000600082015250565b60006149d5601583613d23565b91506149e08261499f565b602082019050919050565b60006020820190508181036000830152614a04816149c8565b9050919050565b7f596f7520617265206e6f74206f776e6572206f7220617070726f7665642e0000600082015250565b6000614a41601e83613d23565b9150614a4c82614a0b565b602082019050919050565b60006020820190508181036000830152614a7081614a34565b9050919050565b7f4c6576656c206d696e696d756d20697320000000000000000000000000000000815250565b6000614aa882614a77565b601182019150614ab88284614451565b915081905092915050565b7f596f752063616e206f6e6c7920637265617465206f6e65207a6f6d626965207060008201527f6572206163636f756e7400000000000000000000000000000000000000000000602082015250565b6000614b1f602a83613d23565b9150614b2a82614ac3565b604082019050919050565b60006020820190508181036000830152614b4e81614b12565b9050919050565b600082905092915050565b614b6a8383614b55565b67ffffffffffffffff811115614b8357614b82613ba4565b5b614b8d825461453e565b614b988282856147d4565b6000601f831160018114614bc75760008415614bb5578287013590505b614bbf8582614845565b865550614c27565b601f198416614bd5866146b5565b60005b82811015614bfd57848901358255600182019150602085019450602081019050614bd8565b86831015614c1a5784890135614c16601f891682614827565b8355505b6001600288020188555050505b50505050505050565b60008154614c3d8161453e565b614c478186614446565b94506001821660008114614c625760018114614c7757614caa565b60ff1983168652811515820286019350614caa565b614c80856146b5565b60005b83811015614ca257815481890152600182019150602081019050614c83565b838801955050505b50505092915050565b7f2f00000000000000000000000000000000000000000000000000000000000000815250565b6000614ce58287614c30565b9150614cf18286614451565b9150614cfc82614cb3565b600182019150614d0c8285614c30565b9150614d1782614cb3565b600182019150614d278284614451565b915081905095945050505050565b6000819050919050565b614d50614d4b826138ae565b614d35565b82525050565b60008160601b9050919050565b6000614d6e82614d56565b9050919050565b6000614d8082614d63565b9050919050565b614d98614d9382613957565b614d75565b82525050565b6000614daa8286614d3f565b602082019150614dba8285614d87565b601482019150614dca8284614d3f565b602082019150819050949350505050565b6000614de6826138ae565b9150614df1836138ae565b925082614e0157614e006145d9565b5b828206905092915050565b6000614e1782613a4c565b915061ffff8203614e2b57614e2a6144a8565b5b600182019050919050565b6000614e4182613da6565b915063ffffffff8203614e5757614e566144a8565b5b600182019050919050565b6000606082019050614e776000830186613d97565b614e846020830185613d97565b614e916040830184613d97565b949350505050565b6000604082019050614eae6000830185613d97565b614ebb6020830184613d97565b9392505050565b7f5a6f6d626965206973206e6f7420726561647920746f20666565640000000000600082015250565b6000614ef8601b83613d23565b9150614f0382614ec2565b602082019050919050565b60006020820190508181036000830152614f2781614eeb565b9050919050565b7f6b69747479000000000000000000000000000000000000000000000000000000600082015250565b6000614f64600583614446565b9150614f6f82614f2e565b600582019050919050565b6000614f8582614f57565b9150819050919050565b6000614f9b8284614451565b915081905092915050565b7f4e487b7100000000000000000000000000000000000000000000000000000000600052603160045260246000fd5b6000606082019050614fea6000830186613d97565b8181036020830152614ffc8185613d5e565b905061500b6040830184613d97565b949350505050565b60008160030b9050919050565b600061502b82615013565b915061503683615013565b92508282039050637fffffff81137fffffffffffffffffffffffffffffffffffffffffffffffffffffffff8000000082121715615076576150756144a8565b5b92915050565b600061508782613da6565b915061509283613da6565b92508282026150a081613da6565b91508082146150b2576150b16144a8565b5b5092915050565b60006150c482615013565b91507fffffffffffffffffffffffffffffffffffffffffffffffffffffffff8000000082036150f6576150f56144a8565b5b816000039050919050565b600061510c826138ae565b9150615117836138ae565b9250828202615125816138ae565b9150828204841483151761513c5761513b6144a8565b5b5092915050565b600061514e82613a4c565b915061515983613a4c565b925082820261516781613a4c565b9150808214615179576151786144a8565b5b5092915050565b600061518b82613da6565b915061519683613da6565b9250828203905063ffffffff8111156151b2576151b16144a8565b5b9291505056fea264697066735822122024a1b61724dcc4a986ebf0544a5840497c96cc4de591fd7f4ad7ce681a5526d364736f6c634300081c0033687474703a2f2f6c6f63616c686f73743a333333332f7a6f6d6269652f7572692f",
  "linkReferences": {},
  "deployedLinkReferences": {}
}