{
  "_format": "hh-sol-artifact-1",
  "contractName": "CryptoZombies",
  "sourceName": "contracts/CryptoZombies.sol",
  "abi": [
    {
      "anonymous": false,
      "inputs": [
        {
          "indexed": true,
          "internalType": "address",
          "name": "_owner",
          "type": "address"
        },
        {
          "indexed": true,
          "internalType": "address",
          "name": "_approved",
          "type": "address"
        },
        {
          "indexed": true,
          "internalType": "uint256",
          "name": "_tokenId",
          "type": "uint256"
        }
      ],
      "name": "Approval",
      "type": "event"
    },
    {
      "anonymous": false,
      "inputs": [
        {
          "indexed": true,
          "internalType": "uint256",
          "name": "zombieId",
          "type": "uint256"
        },
        {
          "indexed": true,
          "internalType": "address",
          "name": "buyer",
          "type": "address"
        },
        {
          "indexed": true,
          "internalType": "address",
          "name": "seller",
          "type": "address"
        }
      ],
      "name": "BuyShopZombie",
      "type": "event"
    },
    {
      "anonymous": false,
      "inputs": [
        {
          "indexed": true,
          "internalType": "address",
          "name": "from",
          "type": "address"
        },
        {
          "indexed": false,
          "internalType": "uint256",
          "name": "zombieId",
          "type": "uint256"
        },
        {
          "indexed": false,
          "internalType": "string",
          "name": "name",
          "type": "string"
        },
        {
          "indexed": false,
          "internalType": "uint256",
          "name": "dna",
          "type": "uint256"
        }
      ],
      "name": "NewZombie",
      "type": "event"
    },
    {
      "anonymous": false,
      "inputs": [
        {
          "indexed": true,
          "internalType": "address",
          "name": "previousOwner",
          "type": "address"
        },
        {
          "indexed": true,
          "internalType": "address",
          "name": "newOwner",
          "type": "address"
        }
      ],
      "name": "OwnershipTransferred",
      "type": "event"
    },
    {
      "anonymous": false,
      "inputs": [
        {
          "indexed": true,
          "internalType": "uint256",
          "name": "zombieId",
          "type": "uint256"
        },
        {
          "indexed": true,
          "internalType": "uint256",
          "name": "price",
          "type": "uint256"
        }
      ],
      "name": "SaleZombie",
      "type": "event"
    },
    {
      "anonymous": false,
      "inputs": [
        {
          "indexed": true,
          "internalType": "address",
          "name": "_from",
          "type": "address"
        },
        {
          "indexed": true,
          "internalType": "address",
          "name": "_to",
          "type": "address"
        },
        {
          "indexed": true,
          "internalType": "uint256",
          "name": "_tokenId",
          "type": "uint256"
        }
      ],
      "name": "Transfer",
      "type": "event"
    },
    {
      "anonymous": false,
      "inputs": [
        {
          "indexed": true,
          "internalType": "address",
          "name": "from",
          "type": "address"
        },
        {
          "indexed": false,
          "internalType": "uint256",
          "name": "fromId",
          "type": "uint256"
        },
        {
          "indexed": false,
          "internalType": "uint256",
          "name": "targetId",
          "type": "uint256"
        }
      ],
      "name": "onAttackDefeat",
      "type": "event"
    },
    {
      "anonymous": false,
      "inputs": [
        {
          "indexed": true,
          "internalType": "address",
          "name": "from",
          "type": "address"
        },
        {
          "indexed": false,
          "internalType": "uint256",
          "name": "fromId",
          "type": "uint256"
        },
        {
          "indexed": false,
          "internalType": "uint256",
          "name": "targetId",
          "type": "uint256"
        },
        {
          "indexed": false,
          "internalType": "uint256",
          "name": "newDna",
          "type": "uint256"
        }
      ],
      "name": "onAttackVitory",
      "type": "event"
    },
    {
      "anonymous": false,
      "inputs": [
        {
          "indexed": true,
          "internalType": "address",
          "name": "from",
          "type": "address"
        },
        {
          "indexed": false,
          "internalType": "uint256",
          "name": "fromDna",
          "type": "uint256"
        },
        {
          "indexed": false,
          "internalType": "uint256",
          "name": "targetDna",
          "type": "uint256"
        },
        {
          "indexed": false,
          "internalType": "uint256",
          "name": "_kittyId",
          "type": "uint256"
        },
        {
          "indexed": false,
          "internalType": "uint256",
          "name": "newDna",
          "type": "uint256"
        }
      ],
      "name": "onFeed",
      "type": "event"
    },
    {
      "inputs": [
        {
          "internalType": "address",
          "name": "_approved",
          "type": "address"
        },
        {
          "internalType": "uint256",
          "name": "_tokenId",
          "type": "uint256"
        }
      ],
      "name": "approve",
      "outputs": [],
      "stateMutability": "payable",
      "type": "function"
    },
    {
      "inputs": [
        {
          "internalType": "uint256",
          "name": "_zombieId",
          "type": "uint256"
        },
        {
          "internalType": "uint256",
          "name": "_targetId",
          "type": "uint256"
        }
      ],
      "name": "attack",
      "outputs": [],
      "stateMutability": "nonpayable",
      "type": "function"
    },
    {
      "inputs": [],
      "name": "balance",
      "outputs": [
        {
          "internalType": "uint256",
          "name": "",
          "type": "uint256"
        }
      ],
      "stateMutability": "view",
      "type": "function"
    },
    {
      "inputs": [
        {
          "internalType": "address",
          "name": "_owner",
          "type": "address"
        }
      ],
      "name": "balanceOf",
      "outputs": [
        {
          "internalType": "uint256",
          "name": "",
          "type": "uint256"
        }
      ],
      "stateMutability": "view",
      "type": "function"
    },
    {
      "inputs": [],
      "name": "baseUrlTokenURI",
      "outputs": [
        {
          "internalType": "string",
          "name": "",
          "type": "string"
        }
      ],
      "stateMutability": "view",
      "type": "function"
    },
    {
      "inputs": [
        {
          "internalType": "uint256",
          "name": "zombieId",
          "type": "uint256"
        }
      ],
      "name": "buyShopZombie",
      "outputs": [],
      "stateMutability": "payable",
      "type": "function"
    },
    {
      "inputs": [],
      "name": "changeDNAFee",
      "outputs": [
        {
          "internalType": "uint256",
          "name": "",
          "type": "uint256"
        }
      ],
      "stateMutability": "view",
      "type": "function"
    },
    {
      "inputs": [
        {
          "internalType": "uint256",
          "name": "_zombieId",
          "type": "uint256"
        },
        {
          "internalType": "uint256",
          "name": "_newDna",
          "type": "uint256"
        }
      ],
      "name": "changeDna",
      "outputs": [],
      "stateMutability": "payable",
      "type": "function"
    },
    {
      "inputs": [
        {
          "internalType": "uint256",
          "name": "_zombieId",
          "type": "uint256"
        },
        {
          "internalType": "string",
          "name": "_newName",
          "type": "string"
        }
      ],
      "name": "changeName",
      "outputs": [],
      "stateMutability": "payable",
      "type": "function"
    },
    {
      "inputs": [],
      "name": "changeNameFee",
      "outputs": [
        {
          "internalType": "uint256",
          "name": "",
          "type": "uint256"
        }
      ],
      "stateMutability": "view",
      "type": "function"
    },
    {
      "inputs": [],
      "name": "cooldownTimeAttack",
      "outputs": [
        {
          "internalType": "uint256",
          "name": "",
          "type": "uint256"
        }
      ],
      "stateMutability": "view",
      "type": "function"
    },
    {
      "inputs": [],
      "name": "cooldownTimeFeeding",
      "outputs": [
        {
          "internalType": "uint256",
          "name": "",
          "type": "uint256"
        }
      ],
      "stateMutability": "view",
      "type": "function"
    },
    {
      "inputs": [
        {
          "internalType": "uint256",
          "name": "_zombieId",
          "type": "uint256"
        },
        {
          "internalType": "uint256",
          "name": "_kittyDna",
          "type": "uint256"
        },
        {
          "internalType": "uint256",
          "name": "_kittyId",
          "type": "uint256"
        }
      ],
      "name": "feedOnKitty",
      "outputs": [],
      "stateMutability": "nonpayable",
      "type": "function"
    },
    {
      "inputs": [],
      "name": "getAccounts",
      "outputs": [
        {
          "internalType": "address[]",
          "name": "",
          "type": "address[]"
        }
      ],
      "stateMutability": "view",
      "type": "function"
    },
    {
      "inputs": [],
      "name": "getAllZombiesInShop",
      "outputs": [
        {
          "components": [
            {
              "internalType": "address payable",
              "name": "seller",
              "type": "address"
            },
            {
              "internalType": "uint256",
              "name": "zombieId",
              "type": "uint256"
            },
            {
              "internalType": "uint256",
              "name": "price",
              "type": "uint256"
            }
          ],
          "internalType": "struct ZombieMarket.ZombieSale[]",
          "name": "",
          "type": "tuple[]"
        }
      ],
      "stateMutability": "view",
      "type": "function"
    },
    {
      "inputs": [],
      "name": "getRanking",
      "outputs": [
        {
          "components": [
            {
              "internalType": "address",
              "name": "account",
              "type": "address"
            },
            {
              "internalType": "uint256",
              "name": "position",
              "type": "uint256"
            },
            {
              "internalType": "uint256",
              "name": "score",
              "type": "uint256"
            },
            {
              "internalType": "uint256",
              "name": "zombieCount",
              "type": "uint256"
            },
            {
              "internalType": "uint16",
              "name": "winCount",
              "type": "uint16"
            },
            {
              "internalType": "uint16",
              "name": "lossCount",
              "type": "uint16"
            }
          ],
          "internalType": "struct ZombieRanking.Ranking[]",
          "name": "",
          "type": "tuple[]"
        }
      ],
      "stateMutability": "view",
      "type": "function"
    },
    {
      "inputs": [
        {
          "internalType": "address",
          "name": "_owner",
          "type": "address"
        }
      ],
      "name": "getZombiesByOwner",
      "outputs": [
        {
          "internalType": "uint256[]",
          "name": "",
          "type": "uint256[]"
        }
      ],
      "stateMutability": "view",
      "type": "function"
    },
    {
      "inputs": [
        {
          "internalType": "uint256",
          "name": "_zombieId",
          "type": "uint256"
        }
      ],
      "name": "hasZombieInShop",
      "outputs": [
        {
          "internalType": "bool",
          "name": "",
          "type": "bool"
        }
      ],
      "stateMutability": "view",
      "type": "function"
    },
    {
      "inputs": [],
      "name": "isOwner",
      "outputs": [
        {
          "internalType": "bool",
          "name": "",
          "type": "bool"
        }
      ],
      "stateMutability": "view",
      "type": "function"
    },
    {
      "inputs": [
        {
          "internalType": "uint256",
          "name": "_zombieId",
          "type": "uint256"
        }
      ],
      "name": "levelUp",
      "outputs": [],
      "stateMutability": "payable",
      "type": "function"
    },
    {
      "inputs": [],
      "name": "levelUpFee",
      "outputs": [
        {
          "internalType": "uint256",
          "name": "",
          "type": "uint256"
        }
      ],
      "stateMutability": "view",
      "type": "function"
    },
    {
      "inputs": [],
      "name": "minPrice",
      "outputs": [
        {
          "internalType": "uint256",
          "name": "",
          "type": "uint256"
        }
      ],
      "stateMutability": "view",
      "type": "function"
    },
    {
      "inputs": [
        {
          "internalType": "string",
          "name": "_name",
          "type": "string"
        }
      ],
      "name": "mint",
      "outputs": [],
      "stateMutability": "payable",
      "type": "function"
    },
    {
      "inputs": [],
      "name": "mintFee",
      "outputs": [
        {
          "internalType": "uint256",
          "name": "",
          "type": "uint256"
        }
      ],
      "stateMutability": "view",
      "type": "function"
    },
    {
      "inputs": [],
      "name": "mintFree",
      "outputs": [],
      "stateMutability": "nonpayable",
      "type": "function"
    },
    {
      "inputs": [],
      "name": "mintFreeLimit",
      "outputs": [
        {
          "internalType": "uint256",
          "name": "",
          "type": "uint256"
        }
      ],
      "stateMutability": "view",
      "type": "function"
    },
    {
      "inputs": [],
      "name": "mintedFreeCount",
      "outputs": [
        {
          "internalType": "uint256",
          "name": "",
          "type": "uint256"
        }
      ],
      "stateMutability": "view",
      "type": "function"
    },
    {
      "inputs": [],
      "name": "owner",
      "outputs": [
        {
          "internalType": "address",
          "name": "",
          "type": "address"
        }
      ],
      "stateMutability": "view",
      "type": "function"
    },
    {
      "inputs": [
        {
          "internalType": "uint256",
          "name": "_tokenId",
          "type": "uint256"
        }
      ],
      "name": "ownerOf",
      "outputs": [
        {
          "internalType": "address",
          "name": "",
          "type": "address"
        }
      ],
      "stateMutability": "view",
      "type": "function"
    },
    {
      "inputs": [],
      "name": "renounceOwnership",
      "outputs": [],
      "stateMutability": "nonpayable",
      "type": "function"
    },
    {
      "inputs": [
        {
          "internalType": "uint256",
          "name": "zombieId",
          "type": "uint256"
        },
        {
          "internalType": "uint256",
          "name": "price",
          "type": "uint256"
        }
      ],
      "name": "saleMyZombie",
      "outputs": [],
      "stateMutability": "nonpayable",
      "type": "function"
    },
    {
      "inputs": [
        {
          "internalType": "string",
          "name": "_baseUrlTokenURI",
          "type": "string"
        }
      ],
      "name": "setBaseUrlTokenURI",
      "outputs": [],
      "stateMutability": "nonpayable",
      "type": "function"
    },
    {
      "inputs": [
        {
          "internalType": "uint256",
          "name": "_fee",
          "type": "uint256"
        }
      ],
      "name": "setChangeDNAFee",
      "outputs": [],
      "stateMutability": "nonpayable",
      "type": "function"
    },
    {
      "inputs": [
        {
          "internalType": "uint256",
          "name": "_fee",
          "type": "uint256"
        }
      ],
      "name": "setChangeNameFee",
      "outputs": [],
      "stateMutability": "nonpayable",
      "type": "function"
    },
    {
      "inputs": [
        {
          "internalType": "uint256",
          "name": "_cooldownTime",
          "type": "uint256"
        }
      ],
      "name": "setCooldownTimeAttack",
      "outputs": [],
      "stateMutability": "nonpayable",
      "type": "function"
    },
    {
      "inputs": [
        {
          "internalType": "uint256",
          "name": "_cooldownTime",
          "type": "uint256"
        }
      ],
      "name": "setCooldownTimeFeeding",
      "outputs": [],
      "stateMutability": "nonpayable",
      "type": "function"
    },
    {
      "inputs": [
        {
          "internalType": "address",
          "name": "_address",
          "type": "address"
        }
      ],
      "name": "setKittyContractAddress",
      "outputs": [],
      "stateMutability": "nonpayable",
      "type": "function"
    },
    {
      "inputs": [
        {
          "internalType": "uint256",
          "name": "_fee",
          "type": "uint256"
        }
      ],
      "name": "setLevelUpFee",
      "outputs": [],
      "stateMutability": "nonpayable",
      "type": "function"
    },
    {
      "inputs": [
        {
          "internalType": "uint256",
          "name": "value",
          "type": "uint256"
        }
      ],
      "name": "setMinPrice",
      "outputs": [],
      "stateMutability": "nonpayable",
      "type": "function"
    },
    {
      "inputs": [
        {
          "internalType": "uint256",
          "name": "_mintFee",
          "type": "uint256"
        }
      ],
      "name": "setMintFee",
      "outputs": [],
      "stateMutability": "nonpayable",
      "type": "function"
    },
    {
      "inputs": [
        {
          "internalType": "uint256",
          "name": "value",
          "type": "uint256"
        }
      ],
      "name": "setTax",
      "outputs": [],
      "stateMutability": "nonpayable",
      "type": "function"
    },
    {
      "inputs": [
        {
          "internalType": "uint8",
          "name": "_totalAttackVictoryToGetReward",
          "type": "uint8"
        }
      ],
      "name": "setTotalAttackVictoryToGetReward",
      "outputs": [],
      "stateMutability": "nonpayable",
      "type": "function"
    },
    {
      "inputs": [
        {
          "internalType": "uint8",
          "name": "_totalFedToGetReward",
          "type": "uint8"
        }
      ],
      "name": "setTotalFedToGetReward",
      "outputs": [],
      "stateMutability": "nonpayable",
      "type": "function"
    },
    {
      "inputs": [],
      "name": "tax",
      "outputs": [
        {
          "internalType": "uint256",
          "name": "",
          "type": "uint256"
        }
      ],
      "stateMutability": "view",
      "type": "function"
    },
    {
      "inputs": [
        {
          "internalType": "uint256",
          "name": "_tokenId",
          "type": "uint256"
        }
      ],
      "name": "tokenURI",
      "outputs": [
        {
          "internalType": "string",
          "name": "",
          "type": "string"
        }
      ],
      "stateMutability": "view",
      "type": "function"
    },
    {
      "inputs": [],
      "name": "totalAttackVictoryToGetReward",
      "outputs": [
        {
          "internalType": "uint8",
          "name": "",
          "type": "uint8"
        }
      ],
      "stateMutability": "view",
      "type": "function"
    },
    {
      "inputs": [],
      "name": "totalFedToGetReward",
      "outputs": [
        {
          "internalType": "uint8",
          "name": "",
          "type": "uint8"
        }
      ],
      "stateMutability": "view",
      "type": "function"
    },
    {
      "inputs": [
        {
          "internalType": "address",
          "name": "_from",
          "type": "address"
        },
        {
          "internalType": "address",
          "name": "_to",
          "type": "address"
        },
        {
          "internalType": "uint256",
          "name": "_tokenId",
          "type": "uint256"
        }
      ],
      "name": "transferFrom",
      "outputs": [],
      "stateMutability": "payable",
      "type": "function"
    },
    {
      "inputs": [
        {
          "internalType": "address",
          "name": "newOwner",
          "type": "address"
        }
      ],
      "name": "transferOwnership",
      "outputs": [],
      "stateMutability": "nonpayable",
      "type": "function"
    },
    {
      "inputs": [],
      "name": "withdraw",
      "outputs": [],
      "stateMutability": "nonpayable",
      "type": "function"
    },
    {
      "inputs": [
        {
          "internalType": "uint256",
          "name": "",
          "type": "uint256"
        }
      ],
      "name": "zombieShop",
      "outputs": [
        {
          "internalType": "address payable",
          "name": "seller",
          "type": "address"
        },
        {
          "internalType": "uint256",
          "name": "price",
          "type": "uint256"
        }
      ],
      "stateMutability": "view",
      "type": "function"
    },
    {
      "inputs": [
        {
          "internalType": "uint256",
          "name": "",
          "type": "uint256"
        }
      ],
      "name": "zombieShopKeys",
      "outputs": [
        {
          "internalType": "uint256",
          "name": "",
          "type": "uint256"
        }
      ],
      "stateMutability": "view",
      "type": "function"
    },
    {
      "inputs": [
        {
          "internalType": "uint256",
          "name": "",
          "type": "uint256"
        }
      ],
      "name": "zombieToOwner",
      "outputs": [
        {
          "internalType": "address",
          "name": "",
          "type": "address"
        }
      ],
      "stateMutability": "view",
      "type": "function"
    },
    {
      "inputs": [
        {
          "internalType": "uint256",
          "name": "",
          "type": "uint256"
        }
      ],
      "name": "zombies",
      "outputs": [
        {
          "internalType": "string",
          "name": "name",
          "type": "string"
        },
        {
          "internalType": "uint256",
          "name": "dna",
          "type": "uint256"
        },
        {
          "internalType": "uint256",
          "name": "score",
          "type": "uint256"
        },
        {
          "internalType": "uint32",
          "name": "birthTime",
          "type": "uint32"
        },
        {
          "internalType": "uint32",
          "name": "level",
          "type": "uint32"
        },
        {
          "internalType": "uint32",
          "name": "attackReadyTime",
          "type": "uint32"
        },
        {
          "internalType": "uint32",
          "name": "fedReadyTime",
          "type": "uint32"
        },
        {
          "internalType": "uint16",
          "name": "winCount",
          "type": "uint16"
        },
        {
          "internalType": "uint16",
          "name": "lossCount",
          "type": "uint16"
        },
        {
          "internalType": "uint16",
          "name": "fedCount",
          "type": "uint16"
        }
      ],
      "stateMutability": "view",
      "type": "function"
    }
  ],
  "bytecode": "0x608060405260006001556010600255600254600a61001d9190610318565b6003556113886004556000600555660aa87bee538000600655603c600755603c6008556007600960006101000a81548160ff021916908360ff160217905550600a600960016101000a81548160ff021916908360ff16021790555066038d7ea4c6800060105566071afd498d0000601155660e35fa931a00006012556000601355603260145560405180606001604052806021815260200161666160219139601590816100ca91906105a9565b50655af3107a4000601755655af3107a40006018553480156100eb57600080fd5b50336000806101000a81548173ffffffffffffffffffffffffffffffffffffffff021916908373ffffffffffffffffffffffffffffffffffffffff16021790555060008054906101000a900473ffffffffffffffffffffffffffffffffffffffff1673ffffffffffffffffffffffffffffffffffffffff16600073ffffffffffffffffffffffffffffffffffffffff167f8be0079c531659141344cd1fd0a4f28419497f9722a3daafe3b4186f6b6457e060405160405180910390a361067b565b7f4e487b7100000000000000000000000000000000000000000000000000000000600052601160045260246000fd5b60008160011c9050919050565b6000808291508390505b60018511156102325780860481111561020e5761020d6101ac565b5b600185161561021d5780820291505b808102905061022b856101db565b94506101f2565b94509492505050565b60008261024b5760019050610307565b816102595760009050610307565b816001811461026f5760028114610279576102a8565b6001915050610307565b60ff84111561028b5761028a6101ac565b5b8360020a9150848211156102a2576102a16101ac565b5b50610307565b5060208310610133831016604e8410600b84101617156102dd5782820a9050838111156102d8576102d76101ac565b5b610307565b6102ea84848460016101e8565b92509050818404811115610301576103006101ac565b5b81810290505b9392505050565b6000819050919050565b60006103238261030e565b915061032e8361030e565b925061035b7fffffffffffffffffffffffffffffffffffffffffffffffffffffffffffffffff848461023b565b905092915050565b600081519050919050565b7f4e487b7100000000000000000000000000000000000000000000000000000000600052604160045260246000fd5b7f4e487b7100000000000000000000000000000000000000000000000000000000600052602260045260246000fd5b600060028204905060018216806103e457607f821691505b6020821081036103f7576103f661039d565b5b50919050565b60008190508160005260206000209050919050565b60006020601f8301049050919050565b600082821b905092915050565b60006008830261045f7fffffffffffffffffffffffffffffffffffffffffffffffffffffffffffffffff82610422565b6104698683610422565b95508019841693508086168417925050509392505050565b6000819050919050565b60006104a66104a161049c8461030e565b610481565b61030e565b9050919050565b6000819050919050565b6104c08361048b565b6104d46104cc826104ad565b84845461042f565b825550505050565b600090565b6104e96104dc565b6104f48184846104b7565b505050565b5b818110156105185761050d6000826104e1565b6001810190506104fa565b5050565b601f82111561055d5761052e816103fd565b61053784610412565b81016020851015610546578190505b61055a61055285610412565b8301826104f9565b50505b505050565b600082821c905092915050565b600061058060001984600802610562565b1980831691505092915050565b6000610599838361056f565b9150826002028217905092915050565b6105b282610363565b67ffffffffffffffff8111156105cb576105ca61036e565b5b6105d582546103cc565b6105e082828561051c565b600060209050601f8311600181146106135760008415610601578287015190505b61060b858261058d565b865550610673565b601f198416610621866103fd565b60005b8281101561064957848901518255600182019150602085019450602081019050610624565b868310156106665784890151610662601f89168261056f565b8355505b6001600288020188555050505b505050505050565b615fd78061068a6000396000f3fe6080604052600436106103355760003560e01c8063705668f7116101ab578063b69ef8a8116100f7578063d85d3d2711610095578063eddd0d9c1161006f578063eddd0d9c14610b7b578063f234fca314610ba4578063f2fde38b14610be1578063f77de3a114610c0a57610335565b8063d85d3d2714610b0b578063e1fa763814610b27578063e45be8eb14610b5057610335565b8063c4114b12116100d1578063c4114b1214610a51578063c859f31714610a7c578063c87b56dd14610aa5578063ccf670f814610ae257610335565b8063b69ef8a8146109df578063bcad1fde14610a0a578063c39cbef114610a3557610335565b80637a8936c1116101645780638da5cb5b1161013e5780638da5cb5b146109355780638f32d59b1461096057806399c8d5561461098b578063b32c012d146109b657610335565b80637a8936c1146108ca5780638a48ac03146108f35780638ab534471461091e57610335565b8063705668f7146107cc57806370a08231146107f757806370acbb631461083457806370f47cf91461085f578063715018a61461088857806374e729f71461089f57610335565b806345c6ba39116102855780635625d6d7116102235780635faf2880116101fd5780635faf2880146107215780636352211e1461073d57806369c8e14c1461077a5780636be17f0e146107a357610335565b80635625d6d7146106a45780635ea8cd12146106cf5780635f4623f1146106f857610335565b80634a10565a1161025f5780634a10565a146105e65780634f09516614610611578063528b7b8f1461063c57806354c92c5f1461067957610335565b806345c6ba391461054057806346979d341461057e57806349cee8e7146105bb57610335565b80631919b7e6116102f257806323b872dd116102cc57806323b872dd146104a75780632e5bb6ff146104c35780633ccfd60b146104ec5780634412e1041461050357610335565b80631919b7e61461041c5780632052465e14610445578063208c750e1461048b57610335565b8063021cbcae1461033a57806306f3376014610365578063095ea7b31461038e5780630ce90ec2146103aa57806313966db5146103c65780631398bbf7146103f1575b600080fd5b34801561034657600080fd5b5061034f610c33565b60405161035c919061433d565b60405180910390f35b34801561037157600080fd5b5061038c60048036038101906103879190614398565b610c39565b005b6103a860048036038101906103a39190614449565b610d02565b005b6103c460048036038101906103bf9190614489565b610e20565b005b3480156103d257600080fd5b506103db610f87565b6040516103e8919061433d565b60405180910390f35b3480156103fd57600080fd5b50610406610f8d565b604051610413919061461b565b60405180910390f35b34801561042857600080fd5b50610443600480360381019061043e9190614783565b6115bc565b005b34801561045157600080fd5b5061046c60048036038101906104679190614489565b6115e0565b6040516104829a99989796959493929190614879565b60405180910390f35b6104a560048036038101906104a09190614489565b611736565b005b6104c160048036038101906104bc919061491c565b6119c0565b005b3480156104cf57600080fd5b506104ea60048036038101906104e59190614489565b611ada565b005b3480156104f857600080fd5b50610501611af5565b005b34801561050f57600080fd5b5061052a6004803603810190610525919061496f565b611b5c565b6040516105379190614a4b565b60405180910390f35b34801561054c57600080fd5b5061056760048036038101906105629190614489565b611b6e565b604051610575929190614a8e565b60405180910390f35b34801561058a57600080fd5b506105a560048036038101906105a09190614489565b611bb2565b6040516105b2919061433d565b60405180910390f35b3480156105c757600080fd5b506105d0611bd6565b6040516105dd9190614ad3565b60405180910390f35b3480156105f257600080fd5b506105fb611be9565b604051610608919061433d565b60405180910390f35b34801561061d57600080fd5b50610626611bef565b604051610633919061433d565b60405180910390f35b34801561064857600080fd5b50610663600480360381019061065e9190614489565b611bf5565b6040516106709190614afd565b60405180910390f35b34801561068557600080fd5b5061068e611c28565b60405161069b9190614b18565b60405180910390f35b3480156106b057600080fd5b506106b9611cb6565b6040516106c6919061433d565b60405180910390f35b3480156106db57600080fd5b506106f660048036038101906106f19190614489565b611cbc565b005b34801561070457600080fd5b5061071f600480360381019061071a919061496f565b611cd7565b005b61073b60048036038101906107369190614b3a565b611d2c565b005b34801561074957600080fd5b50610764600480360381019061075f9190614489565b611ee7565b6040516107719190614afd565b60405180910390f35b34801561078657600080fd5b506107a1600480360381019061079c9190614ba6565b611f24565b005b3480156107af57600080fd5b506107ca60048036038101906107c59190614489565b611f53565b005b3480156107d857600080fd5b506107e1611f6e565b6040516107ee9190614cd3565b60405180910390f35b34801561080357600080fd5b5061081e6004803603810190610819919061496f565b6120f1565b60405161082b919061433d565b60405180910390f35b34801561084057600080fd5b5061084961213a565b604051610856919061433d565b60405180910390f35b34801561086b57600080fd5b5061088660048036038101906108819190614489565b612140565b005b34801561089457600080fd5b5061089d61215b565b005b3480156108ab57600080fd5b506108b461222a565b6040516108c19190614ad3565b60405180910390f35b3480156108d657600080fd5b506108f160048036038101906108ec9190614489565b61223d565b005b3480156108ff57600080fd5b50610908612258565b6040516109159190614da4565b60405180910390f35b34801561092a57600080fd5b5061093361235d565b005b34801561094157600080fd5b5061094a61251f565b6040516109579190614afd565b60405180910390f35b34801561096c57600080fd5b50610975612548565b6040516109829190614de1565b60405180910390f35b34801561099757600080fd5b506109a061259f565b6040516109ad919061433d565b60405180910390f35b3480156109c257600080fd5b506109dd60048036038101906109d89190614b3a565b6125a5565b005b3480156109eb57600080fd5b506109f4612751565b604051610a01919061433d565b60405180910390f35b348015610a1657600080fd5b50610a1f61276a565b604051610a2c919061433d565b60405180910390f35b610a4f6004803603810190610a4a9190614e5c565b612770565b005b348015610a5d57600080fd5b50610a66612937565b604051610a73919061433d565b60405180910390f35b348015610a8857600080fd5b50610aa36004803603810190610a9e9190614ba6565b61293d565b005b348015610ab157600080fd5b50610acc6004803603810190610ac79190614489565b61296c565b604051610ad99190614b18565b60405180910390f35b348015610aee57600080fd5b50610b096004803603810190610b049190614489565b6129da565b005b610b256004803603810190610b209190614783565b6129f5565b005b348015610b3357600080fd5b50610b4e6004803603810190610b499190614b3a565b612a8b565b005b348015610b5c57600080fd5b50610b65612e7b565b604051610b72919061433d565b60405180910390f35b348015610b8757600080fd5b50610ba26004803603810190610b9d9190614489565b612e81565b005b348015610bb057600080fd5b50610bcb6004803603810190610bc69190614489565b612e9c565b604051610bd89190614de1565b60405180910390f35b348015610bed57600080fd5b50610c086004803603810190610c03919061496f565b612f5c565b005b348015610c1657600080fd5b50610c316004803603810190610c2c9190614489565b612f79565b005b60055481565b6000600a8481548110610c4f57610c4e614ebc565b5b906000526020600020906004020190506000610ca185856040518060400160405280600581526020017f6b69747479000000000000000000000000000000000000000000000000000000815250612f94565b90503373ffffffffffffffffffffffffffffffffffffffff167f94bd9f81959636fb1ddd32f8bcbdab8b649d20a6a464f759a1aa7f7cf4447fac8360010154868685604051610cf39493929190614eeb565b60405180910390a25050505050565b80600c600082815260200190815260200160002060009054906101000a900473ffffffffffffffffffffffffffffffffffffffff1673ffffffffffffffffffffffffffffffffffffffff163373ffffffffffffffffffffffffffffffffffffffff1614610d6e57600080fd5b826016600084815260200190815260200160002060006101000a81548173ffffffffffffffffffffffffffffffffffffffff021916908373ffffffffffffffffffffffffffffffffffffffff160217905550818373ffffffffffffffffffffffffffffffffffffffff163373ffffffffffffffffffffffffffffffffffffffff167f8c5be1e5ebec7d5bd14f71427d1e84f3dd0314c0f7b2291e5b200ac8c7c3b92560405160405180910390a4505050565b60105480341015610e3082613112565b604051602001610e409190614f92565b60405160208183030381529060405290610e90576040517f08c379a0000000000000000000000000000000000000000000000000000000008152600401610e879190614b18565b60405180910390fd5b5081600c600082815260200190815260200160002060009054906101000a900473ffffffffffffffffffffffffffffffffffffffff1673ffffffffffffffffffffffffffffffffffffffff163373ffffffffffffffffffffffffffffffffffffffff1614610efd57600080fd5b6001600a8481548110610f1357610f12614ebc565b5b906000526020600020906004020160030160049054906101000a900463ffffffff16610f3f9190614fe7565b600a8481548110610f5357610f52614ebc565b5b906000526020600020906004020160030160046101000a81548163ffffffff021916908363ffffffff160217905550505050565b60065481565b606060003390506000600b80549050905060008167ffffffffffffffff811115610fba57610fb9614658565b5b604051908082528060200260200182016040528015610ff357816020015b610fe0614299565b815260200190600190039081610fd85790505b50905060006014905060005b83811015611313576000600b828154811061101d5761101c614ebc565b5b9060005260206000200160009054906101000a900473ffffffffffffffffffffffffffffffffffffffff1690506000611055826131e0565b90506000806000805b8451811015611296576000600a86838151811061107e5761107d614ebc565b5b60200260200101518154811061109757611096614ebc565b5b9060005260206000209060040201604051806101400160405290816000820180546110c19061504e565b80601f01602080910402602001604051908101604052809291908181526020018280546110ed9061504e565b801561113a5780601f1061110f5761010080835404028352916020019161113a565b820191906000526020600020905b81548152906001019060200180831161111d57829003601f168201915b5050505050815260200160018201548152602001600282015481526020016003820160009054906101000a900463ffffffff1663ffffffff1663ffffffff1681526020016003820160049054906101000a900463ffffffff1663ffffffff1663ffffffff1681526020016003820160089054906101000a900463ffffffff1663ffffffff1663ffffffff16815260200160038201600c9054906101000a900463ffffffff1663ffffffff1663ffffffff1681526020016003820160109054906101000a900461ffff1661ffff1661ffff1681526020016003820160129054906101000a900461ffff1661ffff1661ffff1681526020016003820160149054906101000a900461ffff1661ffff1661ffff16815250509050806040015185611261919061507f565b94508060e001518461127391906150b3565b93508061010001518361128691906150b3565b925050808060010191505061105e565b506040518060c001604052808673ffffffffffffffffffffffffffffffffffffffff168152602001878152602001848152602001855181526020018361ffff1681526020018261ffff168152508887815181106112f6576112f5614ebc565b5b602002602001018190525050505050508080600101915050610fff565b5061131d8261332d565b508082511161133257819450505050506115b9565b60008167ffffffffffffffff81111561134e5761134d614658565b5b60405190808252806020026020018201604052801561138757816020015b611374614299565b81526020019060019003908161136c5790505b50905060008060028461139a9190615118565b905060005b818110156113f9578581815181106113ba576113b9614ebc565b5b60200260200101518484806113ce90615149565b9550815181106113e1576113e0614ebc565b5b6020026020010181905250808060010191505061139f565b506000600185611409919061507f565b876114149190615191565b905060008190505b878110801561142a57508584105b156114875786818151811061144257611441614ebc565b5b602002602001015185858061145690615149565b96508151811061146957611468614ebc565b5b6020026020010181905250808061147f90615149565b91505061141c565b506000805b848110156114fb578973ffffffffffffffffffffffffffffffffffffffff168682815181106114be576114bd614ebc565b5b60200260200101516000015173ffffffffffffffffffffffffffffffffffffffff16036114ee57600191506114fb565b808060010191505061148c565b50806115ac5760005b87518110156115aa578973ffffffffffffffffffffffffffffffffffffffff1688828151811061153757611536614ebc565b5b60200260200101516000015173ffffffffffffffffffffffffffffffffffffffff160361159d5787818151811061157157611570614ebc565b5b602002602001015186600a8151811061158d5761158c614ebc565b5b60200260200101819052506115aa565b8080600101915050611504565b505b8499505050505050505050505b90565b6115c4612548565b6115cd57600080fd5b80601590816115dc9190615371565b5050565b600a81815481106115f057600080fd5b90600052602060002090600402016000915090508060000180546116139061504e565b80601f016020809104026020016040519081016040528092919081815260200182805461163f9061504e565b801561168c5780601f106116615761010080835404028352916020019161168c565b820191906000526020600020905b81548152906001019060200180831161166f57829003601f168201915b5050505050908060010154908060020154908060030160009054906101000a900463ffffffff16908060030160049054906101000a900463ffffffff16908060030160089054906101000a900463ffffffff169080600301600c9054906101000a900463ffffffff16908060030160109054906101000a900461ffff16908060030160129054906101000a900461ffff16908060030160149054906101000a900461ffff1690508a565b6000601a60008381526020019081526020016000206040518060400160405290816000820160009054906101000a900473ffffffffffffffffffffffffffffffffffffffff1673ffffffffffffffffffffffffffffffffffffffff1673ffffffffffffffffffffffffffffffffffffffff1681526020016001820154815250509050806000015173ffffffffffffffffffffffffffffffffffffffff16600073ffffffffffffffffffffffffffffffffffffffff160361182b576040517f08c379a00000000000000000000000000000000000000000000000000000000081526004016118229061548f565b60405180910390fd5b806000015173ffffffffffffffffffffffffffffffffffffffff163373ffffffffffffffffffffffffffffffffffffffff160361189d576040517f08c379a0000000000000000000000000000000000000000000000000000000008152600401611894906154fb565b60405180910390fd5b80602001513410156118e4576040517f08c379a00000000000000000000000000000000000000000000000000000000081526004016118db90615567565b60405180910390fd5b6118f38160000151338461342b565b806000015173ffffffffffffffffffffffffffffffffffffffff166108fc6017543461191f9190615191565b9081150290604051600060405180830381858888f1935050505015801561194a573d6000803e3d6000fd5b50611954826135fb565b61195d33613705565b806000015173ffffffffffffffffffffffffffffffffffffffff163373ffffffffffffffffffffffffffffffffffffffff16837f2705da8f1145dc87c9e6b9aa3ecd69d3d64da132acba45c803563ad52f5c2b5f60405160405180910390a45050565b3373ffffffffffffffffffffffffffffffffffffffff16600c600083815260200190815260200160002060009054906101000a900473ffffffffffffffffffffffffffffffffffffffff1673ffffffffffffffffffffffffffffffffffffffff161480611a8b57503373ffffffffffffffffffffffffffffffffffffffff166016600083815260200190815260200160002060009054906101000a900473ffffffffffffffffffffffffffffffffffffffff1673ffffffffffffffffffffffffffffffffffffffff16145b611aca576040517f08c379a0000000000000000000000000000000000000000000000000000000008152600401611ac1906155d3565b60405180910390fd5b611ad583838361342b565b505050565b611ae2612548565b611aeb57600080fd5b8060178190555050565b611afd612548565b611b0657600080fd5b6000611b1061251f565b90508073ffffffffffffffffffffffffffffffffffffffff166108fc479081150290604051600060405180830381858888f19350505050158015611b58573d6000803e3d6000fd5b5050565b6060611b67826131e0565b9050919050565b601a6020528060005260406000206000915090508060000160009054906101000a900473ffffffffffffffffffffffffffffffffffffffff16908060010154905082565b60198181548110611bc257600080fd5b906000526020600020016000915090505481565b600960009054906101000a900460ff1681565b60045481565b60115481565b600c6020528060005260406000206000915054906101000a900473ffffffffffffffffffffffffffffffffffffffff1681565b60158054611c359061504e565b80601f0160208091040260200160405190810160405280929190818152602001828054611c619061504e565b8015611cae5780601f10611c8357610100808354040283529160200191611cae565b820191906000526020600020905b815481529060010190602001808311611c9157829003601f168201915b505050505081565b60075481565b611cc4612548565b611ccd57600080fd5b8060188190555050565b611cdf612548565b611ce857600080fd5b80600f60006101000a81548173ffffffffffffffffffffffffffffffffffffffff021916908373ffffffffffffffffffffffffffffffffffffffff16021790555050565b60125480341015611d3c82613112565b604051602001611d4c9190614f92565b60405160208183030381529060405290611d9c576040517f08c379a0000000000000000000000000000000000000000000000000000000008152600401611d939190614b18565b60405180910390fd5b5060148381600a8281548110611db557611db4614ebc565b5b906000526020600020906004020160030160049054906101000a900463ffffffff1663ffffffff161015611de883613112565b604051602001611df89190615619565b60405160208183030381529060405290611e48576040517f08c379a0000000000000000000000000000000000000000000000000000000008152600401611e3f9190614b18565b60405180910390fd5b5084600c600082815260200190815260200160002060009054906101000a900473ffffffffffffffffffffffffffffffffffffffff1673ffffffffffffffffffffffffffffffffffffffff163373ffffffffffffffffffffffffffffffffffffffff1614611eb557600080fd5b84600a8781548110611eca57611ec9614ebc565b5b906000526020600020906004020160010181905550505050505050565b6000600c600083815260200190815260200160002060009054906101000a900473ffffffffffffffffffffffffffffffffffffffff169050919050565b611f2c612548565b611f3557600080fd5b80600960006101000a81548160ff021916908360ff16021790555050565b611f5b612548565b611f6457600080fd5b8060118190555050565b60606000601980549050905060008167ffffffffffffffff811115611f9657611f95614658565b5b604051908082528060200260200182016040528015611fcf57816020015b611fbc6142ed565b815260200190600190039081611fb45790505b50905060005b828110156120e857600060198281548110611ff357611ff2614ebc565b5b906000526020600020015490506000601a60008381526020019081526020016000206040518060400160405290816000820160009054906101000a900473ffffffffffffffffffffffffffffffffffffffff1673ffffffffffffffffffffffffffffffffffffffff1673ffffffffffffffffffffffffffffffffffffffff16815260200160018201548152505090506040518060600160405280826000015173ffffffffffffffffffffffffffffffffffffffff16815260200183815260200182602001518152508484815181106120ce576120cd614ebc565b5b602002602001018190525050508080600101915050611fd5565b50809250505090565b6000600d60008373ffffffffffffffffffffffffffffffffffffffff1673ffffffffffffffffffffffffffffffffffffffff168152602001908152602001600020549050919050565b60125481565b612148612548565b61215157600080fd5b8060128190555050565b612163612548565b61216c57600080fd5b600073ffffffffffffffffffffffffffffffffffffffff1660008054906101000a900473ffffffffffffffffffffffffffffffffffffffff1673ffffffffffffffffffffffffffffffffffffffff167f8be0079c531659141344cd1fd0a4f28419497f9722a3daafe3b4186f6b6457e060405160405180910390a360008060006101000a81548173ffffffffffffffffffffffffffffffffffffffff021916908373ffffffffffffffffffffffffffffffffffffffff160217905550565b600960019054906101000a900460ff1681565b612245612548565b61224e57600080fd5b8060078190555050565b60606000600b8054905067ffffffffffffffff81111561227b5761227a614658565b5b6040519080825280602002602001820160405280156122a95781602001602082028036833780820191505090505b50905060005b600b8054905081101561235557600b81815481106122d0576122cf614ebc565b5b9060005260206000200160009054906101000a900473ffffffffffffffffffffffffffffffffffffffff1682828151811061230e5761230d614ebc565b5b602002602001019073ffffffffffffffffffffffffffffffffffffffff16908173ffffffffffffffffffffffffffffffffffffffff168152505080806001019150506122af565b508091505090565b6004546005541061236f600454613112565b60405160200161237f9190615665565b604051602081830303815290604052906123cf576040517f08c379a00000000000000000000000000000000000000000000000000000000081526004016123c69190614b18565b60405180910390fd5b50600e60003373ffffffffffffffffffffffffffffffffffffffff1673ffffffffffffffffffffffffffffffffffffffff16815260200190815260200160002060009054906101000a900460ff161561245d576040517f08c379a0000000000000000000000000000000000000000000000000000000008152600401612454906156d7565b60405180910390fd5b600061246a600154613112565b60405160200161247a919061571d565b6040516020818303038152906040529050600061249682613779565b90506124a282826137ee565b6124ab33613705565b6001600e60003373ffffffffffffffffffffffffffffffffffffffff1673ffffffffffffffffffffffffffffffffffffffff16815260200190815260200160002060006101000a81548160ff0219169083151502179055506005600081548092919061251690615149565b91905055505050565b60008060009054906101000a900473ffffffffffffffffffffffffffffffffffffffff16905090565b60008060009054906101000a900473ffffffffffffffffffffffffffffffffffffffff1673ffffffffffffffffffffffffffffffffffffffff163373ffffffffffffffffffffffffffffffffffffffff1614905090565b60175481565b81600c600082815260200190815260200160002060009054906101000a900473ffffffffffffffffffffffffffffffffffffffff1673ffffffffffffffffffffffffffffffffffffffff163373ffffffffffffffffffffffffffffffffffffffff161461261157600080fd5b601854601754612621919061507f565b821015612663576040517f08c379a000000000000000000000000000000000000000000000000000000000815260040161265a90615567565b60405180910390fd5b60405180604001604052803373ffffffffffffffffffffffffffffffffffffffff16815260200183815250601a600085815260200190815260200160002060008201518160000160006101000a81548173ffffffffffffffffffffffffffffffffffffffff021916908373ffffffffffffffffffffffffffffffffffffffff16021790555060208201518160010155905050601983908060018154018082558091505060019003906000526020600020016000909190919091505581837fb03c845c6c9ef1ff8db2c6381cd7ecf8c5623e02bb20e85545f3d04288302e5860405160405180910390a3505050565b600061275b612548565b61276457600080fd5b47905090565b60085481565b6011548034101561278082613112565b6040516020016127909190614f92565b604051602081830303815290604052906127e0576040517f08c379a00000000000000000000000000000000000000000000000000000000081526004016127d79190614b18565b60405180910390fd5b5060028481600a82815481106127f9576127f8614ebc565b5b906000526020600020906004020160030160049054906101000a900463ffffffff1663ffffffff16101561282c83613112565b60405160200161283c9190615619565b6040516020818303038152906040529061288c576040517f08c379a00000000000000000000000000000000000000000000000000000000081526004016128839190614b18565b60405180910390fd5b5085600c600082815260200190815260200160002060009054906101000a900473ffffffffffffffffffffffffffffffffffffffff1673ffffffffffffffffffffffffffffffffffffffff163373ffffffffffffffffffffffffffffffffffffffff16146128f957600080fd5b8585600a898154811061290f5761290e614ebc565b5b9060005260206000209060040201600001918261292d92919061574e565b5050505050505050565b60105481565b612945612548565b61294e57600080fd5b80600960016101000a81548160ff021916908360ff16021790555050565b60606000600a838154811061298457612983614ebc565b5b90600052602060002090600402019050601561299f84613112565b826000016129b08460010154613112565b6040516020016129c394939291906158c7565b604051602081830303815290604052915050919050565b6129e2612548565b6129eb57600080fd5b8060108190555050565b60065480341015612a0582613112565b604051602001612a159190614f92565b60405160208183030381529060405290612a65576040517f08c379a0000000000000000000000000000000000000000000000000000000008152600401612a5c9190614b18565b60405180910390fd5b506000612a7183613779565b9050612a7d83826137ee565b612a8633613705565b505050565b81600c600082815260200190815260200160002060009054906101000a900473ffffffffffffffffffffffffffffffffffffffff1673ffffffffffffffffffffffffffffffffffffffff163373ffffffffffffffffffffffffffffffffffffffff1614612af757600080fd5b6000600a8481548110612b0d57612b0c614ebc565b5b90600052602060002090600402019050612b2681613b9b565b612b65576040517f08c379a0000000000000000000000000000000000000000000000000000000008152600401612b5c9061596f565b60405180910390fd5b6000600a8481548110612b7b57612b7a614ebc565b5b906000526020600020906004020190506000612b978383613bc2565b905060006064423389604051602001612bb2939291906159f8565b6040516020818303038152906040528051906020012060001c612bd59190615a35565b9050818111612d8c5783600301601081819054906101000a900461ffff1680929190612c0090615a66565b91906101000a81548161ffff021916908361ffff1602179055505083600301600481819054906101000a900463ffffffff1680929190612c3f90615a90565b91906101000a81548163ffffffff021916908363ffffffff1602179055505082600301601281819054906101000a900461ffff1680929190612c8090615a66565b91906101000a81548161ffff021916908361ffff16021790555050612ca484613cfe565b612cad83613cfe565b600080600960009054906101000a900460ff1660ff168660030160109054906101000a900461ffff16612ce09190615abc565b61ffff1603612d3457612d31856001015485600101546040518060400160405280600681526020017f7a6f6d6269650000000000000000000000000000000000000000000000000000815250613da4565b90505b3373ffffffffffffffffffffffffffffffffffffffff167f750a7c18ca7f7bd87c6e50678ea7fa4f64d0cb733bb68cdac552d009737b4716898984604051612d7e93929190615aed565b60405180910390a250612e72565b83600301601281819054906101000a900461ffff1680929190612dae90615a66565b91906101000a81548161ffff021916908361ffff1602179055505082600301601081819054906101000a900461ffff1680929190612deb90615a66565b91906101000a81548161ffff021916908361ffff16021790555050612e0f84613cfe565b612e1883613cfe565b612e2184613e94565b3373ffffffffffffffffffffffffffffffffffffffff167f4fa78061bb2783669831d2e2aa9ca18cb698e098923982bfada46ceaf1516d6a8888604051612e69929190615b24565b60405180910390a25b50505050505050565b60185481565b612e89612548565b612e9257600080fd5b8060068190555050565b600080601a60008481526020019081526020016000206040518060400160405290816000820160009054906101000a900473ffffffffffffffffffffffffffffffffffffffff1673ffffffffffffffffffffffffffffffffffffffff1673ffffffffffffffffffffffffffffffffffffffff1681526020016001820154815250509050600073ffffffffffffffffffffffffffffffffffffffff16816000015173ffffffffffffffffffffffffffffffffffffffff161415915050919050565b612f64612548565b612f6d57600080fd5b612f7681613ec7565b50565b612f81612548565b612f8a57600080fd5b8060088190555050565b600083600c600082815260200190815260200160002060009054906101000a900473ffffffffffffffffffffffffffffffffffffffff1673ffffffffffffffffffffffffffffffffffffffff163373ffffffffffffffffffffffffffffffffffffffff161461300257600080fd5b6000600a868154811061301857613017614ebc565b5b9060005260206000209060040201905061303181613fbd565b613070576040517f08c379a000000000000000000000000000000000000000000000000000000000815260040161306790615b99565b60405180910390fd5b600081600301601481819054906101000a900461ffff168092919061309490615a66565b91906101000a81548161ffff021916908361ffff160217905550506000600960019054906101000a900460ff1660ff168360030160149054906101000a900461ffff166130e19190615abc565b61ffff16036130fc576130f982600101548787613da4565b90505b61310582613fe4565b8093505050509392505050565b60606000600161312184614017565b01905060008167ffffffffffffffff8111156131405761313f614658565b5b6040519080825280601f01601f1916602001820160405280156131725781602001600182028036833780820191505090505b509050600082602001820190505b6001156131d5578080600190039150507f3031323334353637383961626364656600000000000000000000000000000000600a86061a8153600a85816131c9576131c86150e9565b5b04945060008503613180575b819350505050919050565b60606000600d60008473ffffffffffffffffffffffffffffffffffffffff1673ffffffffffffffffffffffffffffffffffffffff1681526020019081526020016000205467ffffffffffffffff81111561323d5761323c614658565b5b60405190808252806020026020018201604052801561326b5781602001602082028036833780820191505090505b5090506000805b600a80549050811015613322578473ffffffffffffffffffffffffffffffffffffffff16600c600083815260200190815260200160002060009054906101000a900473ffffffffffffffffffffffffffffffffffffffff1673ffffffffffffffffffffffffffffffffffffffff160361331557808383815181106132f9576132f8614ebc565b5b602002602001018181525050600182613312919061507f565b91505b8080600101915050613272565b508192505050919050565b60606000600190505b82518110156134225760005b818110156134145783818151811061335d5761335c614ebc565b5b60200260200101516040015184838151811061337c5761337b614ebc565b5b60200260200101516040015110156134075760008483815181106133a3576133a2614ebc565b5b602002602001015190508482815181106133c0576133bf614ebc565b5b60200260200101518584815181106133db576133da614ebc565b5b6020026020010181905250808583815181106133fa576133f9614ebc565b5b6020026020010181905250505b8080600101915050613342565b508080600101915050613336565b50819050919050565b6001600d60008473ffffffffffffffffffffffffffffffffffffffff1673ffffffffffffffffffffffffffffffffffffffff16815260200190815260200160002054613477919061507f565b600d60008473ffffffffffffffffffffffffffffffffffffffff1673ffffffffffffffffffffffffffffffffffffffff168152602001908152602001600020819055506001600d60008573ffffffffffffffffffffffffffffffffffffffff1673ffffffffffffffffffffffffffffffffffffffff168152602001908152602001600020546135069190615191565b600d60008573ffffffffffffffffffffffffffffffffffffffff1673ffffffffffffffffffffffffffffffffffffffff1681526020019081526020016000208190555081600c600083815260200190815260200160002060006101000a81548173ffffffffffffffffffffffffffffffffffffffff021916908373ffffffffffffffffffffffffffffffffffffffff160217905550808273ffffffffffffffffffffffffffffffffffffffff168473ffffffffffffffffffffffffffffffffffffffff167fddf252ad1be2c89b69c2b068fc378daa952ba7f163c4a11628f55a4df523b3ef60405160405180910390a4505050565b601a6000828152602001908152602001600020600080820160006101000a81549073ffffffffffffffffffffffffffffffffffffffff02191690556001820160009055505060005b60198054905081101561370157816019828154811061366557613664614ebc565b5b9060005260206000200154036136f457601960016019805490506136899190615191565b8154811061369a57613699614ebc565b5b9060005260206000200154601982815481106136b9576136b8614ebc565b5b906000526020600020018190555060198054806136d9576136d8615bb9565b5b60019003818190600052602060002001600090559055613701565b8080600101915050613643565b5050565b61370e8161416a565b61377657600b819080600181540180825580915050600190039060005260206000200160009091909190916101000a81548173ffffffffffffffffffffffffffffffffffffffff021916908373ffffffffffffffffffffffffffffffffffffffff1602179055505b50565b60006001600081548092919061378e90615149565b919050555060008260015442336001436137a89190615191565b406040516020016137bd959493929190615c13565b6040516020818303038152906040528051906020012060001c9050600354816137e69190615a35565b915050919050565b6000825111613832576040517f08c379a000000000000000000000000000000000000000000000000000000000815260040161382990615cba565b60405180910390fd5b808114613874576040517f08c379a000000000000000000000000000000000000000000000000000000000815260040161386b90615d26565b60405180910390fd5b60004290506000604051806101400160405280858152602001848152602001600081526020018363ffffffff168152602001600163ffffffff1681526020018363ffffffff1681526020018363ffffffff168152602001600061ffff168152602001600061ffff168152602001600061ffff168152509050600a819080600181540180825580915050600190039060005260206000209060040201600090919091909150600082015181600001908161392d9190615371565b50602082015181600101556040820151816002015560608201518160030160006101000a81548163ffffffff021916908363ffffffff16021790555060808201518160030160046101000a81548163ffffffff021916908363ffffffff16021790555060a08201518160030160086101000a81548163ffffffff021916908363ffffffff16021790555060c082015181600301600c6101000a81548163ffffffff021916908363ffffffff16021790555060e08201518160030160106101000a81548161ffff021916908361ffff1602179055506101008201518160030160126101000a81548161ffff021916908361ffff1602179055506101208201518160030160146101000a81548161ffff021916908361ffff160217905550505060006001600a80549050613a5f9190615191565b905033600c600083815260200190815260200160002060006101000a81548173ffffffffffffffffffffffffffffffffffffffff021916908373ffffffffffffffffffffffffffffffffffffffff1602179055506001600d60003373ffffffffffffffffffffffffffffffffffffffff1673ffffffffffffffffffffffffffffffffffffffff16815260200190815260200160002054613aff919061507f565b600d60003373ffffffffffffffffffffffffffffffffffffffff1673ffffffffffffffffffffffffffffffffffffffff168152602001908152602001600020819055503373ffffffffffffffffffffffffffffffffffffffff167ff92b1ba4cb9ae7683c3a3a1e58273b24013547531f590e32910f3105e8349e1f828787604051613b8c93929190615d46565b60405180910390a25050505050565b6000428260030160089054906101000a900463ffffffff1663ffffffff1611159050919050565b600080601454905060008360030160049054906101000a900463ffffffff168560030160049054906101000a900463ffffffff16613c009190615d91565b905060008160030b1315613c3357600281613c1b9190615ded565b63ffffffff1682613c2c919061507f565b9150613c6a565b60008160030b1215613c6957600281613c4b90615e2a565b613c559190615ded565b63ffffffff1682613c669190615191565b91505b5b600080613c7a8760010154614212565b50915091506000613c8e8760010154614212565b925050506000600a8284600287613ca59190615e72565b613caf919061507f565b613cb99190615191565b613cc39190615118565b90508086613cd1919061507f565b9550605a861115613ce157605a95505b601e861015613cef57601e95505b85965050505050505092915050565b600060038260030160129054906101000a900461ffff16613d1f9190615eb4565b61ffff1660058360030160109054906101000a900461ffff16613d429190615eb4565b61ffff16600a8460030160049054906101000a900463ffffffff16613d679190615ded565b613d719190614fe7565b613d7b9190615ef1565b9050600a8163ffffffff161015613d9157600a90505b8063ffffffff1682600201819055505050565b600060035483613db49190615a35565b9250600060028486613dc6919061507f565b613dd09190615118565b9050604051602001613de190615f75565b6040516020818303038152906040528051906020012083604051602001613e089190615f8a565b6040516020818303038152906040528051906020012003613e4a576063606482613e329190615a35565b82613e3d9190615191565b613e47919061507f565b90505b613e896040518060400160405280600681526020017f4e6f4e616d650000000000000000000000000000000000000000000000000000815250826137ee565b809150509392505050565b60075442613ea2919061507f565b8160030160086101000a81548163ffffffff021916908363ffffffff16021790555050565b600073ffffffffffffffffffffffffffffffffffffffff168173ffffffffffffffffffffffffffffffffffffffff1603613f0057600080fd5b8073ffffffffffffffffffffffffffffffffffffffff1660008054906101000a900473ffffffffffffffffffffffffffffffffffffffff1673ffffffffffffffffffffffffffffffffffffffff167f8be0079c531659141344cd1fd0a4f28419497f9722a3daafe3b4186f6b6457e060405160405180910390a3806000806101000a81548173ffffffffffffffffffffffffffffffffffffffff021916908373ffffffffffffffffffffffffffffffffffffffff16021790555050565b60004282600301600c9054906101000a900463ffffffff1663ffffffff1611159050919050565b60085442613ff2919061507f565b81600301600c6101000a81548163ffffffff021916908363ffffffff16021790555050565b600080600090507a184f03e93ff9f4daa797ed6e38ed64bf6a1f0100000000000000008310614075577a184f03e93ff9f4daa797ed6e38ed64bf6a1f010000000000000000838161406b5761406a6150e9565b5b0492506040810190505b6d04ee2d6d415b85acef810000000083106140b2576d04ee2d6d415b85acef810000000083816140a8576140a76150e9565b5b0492506020810190505b662386f26fc1000083106140e157662386f26fc1000083816140d7576140d66150e9565b5b0492506010810190505b6305f5e100831061410a576305f5e1008381614100576140ff6150e9565b5b0492506008810190505b612710831061412f576127108381614125576141246150e9565b5b0492506004810190505b606483106141525760648381614148576141476150e9565b5b0492506002810190505b600a8310614161576001810190505b80915050919050565b6000806000905060005b600b80549050811015614208578373ffffffffffffffffffffffffffffffffffffffff16600b82815481106141ac576141ab614ebc565b5b9060005260206000200160009054906101000a900473ffffffffffffffffffffffffffffffffffffffff1673ffffffffffffffffffffffffffffffffffffffff16036141fb5760019150614208565b8080600101915050614174565b5080915050919050565b6000806000806032856142259190615a35565b6032614231919061507f565b9050600060326064876142449190615118565b61424e9190615a35565b603261425a919061507f565b9050600060326127108861426e9190615118565b6142789190615a35565b6032614284919061507f565b90508282829550955095505050509193909250565b6040518060c00160405280600073ffffffffffffffffffffffffffffffffffffffff168152602001600081526020016000815260200160008152602001600061ffff168152602001600061ffff1681525090565b6040518060600160405280600073ffffffffffffffffffffffffffffffffffffffff16815260200160008152602001600081525090565b6000819050919050565b61433781614324565b82525050565b6000602082019050614352600083018461432e565b92915050565b6000604051905090565b600080fd5b600080fd5b61437581614324565b811461438057600080fd5b50565b6000813590506143928161436c565b92915050565b6000806000606084860312156143b1576143b0614362565b5b60006143bf86828701614383565b93505060206143d086828701614383565b92505060406143e186828701614383565b9150509250925092565b600073ffffffffffffffffffffffffffffffffffffffff82169050919050565b6000614416826143eb565b9050919050565b6144268161440b565b811461443157600080fd5b50565b6000813590506144438161441d565b92915050565b600080604083850312156144605761445f614362565b5b600061446e85828601614434565b925050602061447f85828601614383565b9150509250929050565b60006020828403121561449f5761449e614362565b5b60006144ad84828501614383565b91505092915050565b600081519050919050565b600082825260208201905092915050565b6000819050602082019050919050565b6144eb8161440b565b82525050565b6144fa81614324565b82525050565b600061ffff82169050919050565b61451781614500565b82525050565b60c08201600082015161453360008501826144e2565b50602082015161454660208501826144f1565b50604082015161455960408501826144f1565b50606082015161456c60608501826144f1565b50608082015161457f608085018261450e565b5060a082015161459260a085018261450e565b50505050565b60006145a4838361451d565b60c08301905092915050565b6000602082019050919050565b60006145c8826144b6565b6145d281856144c1565b93506145dd836144d2565b8060005b8381101561460e5781516145f58882614598565b9750614600836145b0565b9250506001810190506145e1565b5085935050505092915050565b6000602082019050818103600083015261463581846145bd565b905092915050565b600080fd5b600080fd5b6000601f19601f8301169050919050565b7f4e487b7100000000000000000000000000000000000000000000000000000000600052604160045260246000fd5b61469082614647565b810181811067ffffffffffffffff821117156146af576146ae614658565b5b80604052505050565b60006146c2614358565b90506146ce8282614687565b919050565b600067ffffffffffffffff8211156146ee576146ed614658565b5b6146f782614647565b9050602081019050919050565b82818337600083830152505050565b6000614726614721846146d3565b6146b8565b90508281526020810184848401111561474257614741614642565b5b61474d848285614704565b509392505050565b600082601f83011261476a5761476961463d565b5b813561477a848260208601614713565b91505092915050565b60006020828403121561479957614798614362565b5b600082013567ffffffffffffffff8111156147b7576147b6614367565b5b6147c384828501614755565b91505092915050565b600081519050919050565b600082825260208201905092915050565b60005b838110156148065780820151818401526020810190506147eb565b60008484015250505050565b600061481d826147cc565b61482781856147d7565b93506148378185602086016147e8565b61484081614647565b840191505092915050565b600063ffffffff82169050919050565b6148648161484b565b82525050565b61487381614500565b82525050565b6000610140820190508181036000830152614894818d614812565b90506148a3602083018c61432e565b6148b0604083018b61432e565b6148bd606083018a61485b565b6148ca608083018961485b565b6148d760a083018861485b565b6148e460c083018761485b565b6148f160e083018661486a565b6148ff61010083018561486a565b61490d61012083018461486a565b9b9a5050505050505050505050565b60008060006060848603121561493557614934614362565b5b600061494386828701614434565b935050602061495486828701614434565b925050604061496586828701614383565b9150509250925092565b60006020828403121561498557614984614362565b5b600061499384828501614434565b91505092915050565b600081519050919050565b600082825260208201905092915050565b6000819050602082019050919050565b60006149d483836144f1565b60208301905092915050565b6000602082019050919050565b60006149f88261499c565b614a0281856149a7565b9350614a0d836149b8565b8060005b83811015614a3e578151614a2588826149c8565b9750614a30836149e0565b925050600181019050614a11565b5085935050505092915050565b60006020820190508181036000830152614a6581846149ed565b905092915050565b6000614a78826143eb565b9050919050565b614a8881614a6d565b82525050565b6000604082019050614aa36000830185614a7f565b614ab0602083018461432e565b9392505050565b600060ff82169050919050565b614acd81614ab7565b82525050565b6000602082019050614ae86000830184614ac4565b92915050565b614af78161440b565b82525050565b6000602082019050614b126000830184614aee565b92915050565b60006020820190508181036000830152614b328184614812565b905092915050565b60008060408385031215614b5157614b50614362565b5b6000614b5f85828601614383565b9250506020614b7085828601614383565b9150509250929050565b614b8381614ab7565b8114614b8e57600080fd5b50565b600081359050614ba081614b7a565b92915050565b600060208284031215614bbc57614bbb614362565b5b6000614bca84828501614b91565b91505092915050565b600081519050919050565b600082825260208201905092915050565b6000819050602082019050919050565b614c0881614a6d565b82525050565b606082016000820151614c246000850182614bff565b506020820151614c3760208501826144f1565b506040820151614c4a60408501826144f1565b50505050565b6000614c5c8383614c0e565b60608301905092915050565b6000602082019050919050565b6000614c8082614bd3565b614c8a8185614bde565b9350614c9583614bef565b8060005b83811015614cc6578151614cad8882614c50565b9750614cb883614c68565b925050600181019050614c99565b5085935050505092915050565b60006020820190508181036000830152614ced8184614c75565b905092915050565b600081519050919050565b600082825260208201905092915050565b6000819050602082019050919050565b6000614d2d83836144e2565b60208301905092915050565b6000602082019050919050565b6000614d5182614cf5565b614d5b8185614d00565b9350614d6683614d11565b8060005b83811015614d97578151614d7e8882614d21565b9750614d8983614d39565b925050600181019050614d6a565b5085935050505092915050565b60006020820190508181036000830152614dbe8184614d46565b905092915050565b60008115159050919050565b614ddb81614dc6565b82525050565b6000602082019050614df66000830184614dd2565b92915050565b600080fd5b600080fd5b60008083601f840112614e1c57614e1b61463d565b5b8235905067ffffffffffffffff811115614e3957614e38614dfc565b5b602083019150836001820283011115614e5557614e54614e01565b5b9250929050565b600080600060408486031215614e7557614e74614362565b5b6000614e8386828701614383565b935050602084013567ffffffffffffffff811115614ea457614ea3614367565b5b614eb086828701614e06565b92509250509250925092565b7f4e487b7100000000000000000000000000000000000000000000000000000000600052603260045260246000fd5b6000608082019050614f00600083018761432e565b614f0d602083018661432e565b614f1a604083018561432e565b614f27606083018461432e565b95945050505050565b7f5072696365206d696e696d756d20697320000000000000000000000000000000815250565b600081905092915050565b6000614f6c826147cc565b614f768185614f56565b9350614f868185602086016147e8565b80840191505092915050565b6000614f9d82614f30565b601182019150614fad8284614f61565b915081905092915050565b7f4e487b7100000000000000000000000000000000000000000000000000000000600052601160045260246000fd5b6000614ff28261484b565b9150614ffd8361484b565b9250828201905063ffffffff81111561501957615018614fb8565b5b92915050565b7f4e487b7100000000000000000000000000000000000000000000000000000000600052602260045260246000fd5b6000600282049050600182168061506657607f821691505b6020821081036150795761507861501f565b5b50919050565b600061508a82614324565b915061509583614324565b92508282019050808211156150ad576150ac614fb8565b5b92915050565b60006150be82614500565b91506150c983614500565b9250828201905061ffff8111156150e3576150e2614fb8565b5b92915050565b7f4e487b7100000000000000000000000000000000000000000000000000000000600052601260045260246000fd5b600061512382614324565b915061512e83614324565b92508261513e5761513d6150e9565b5b828204905092915050565b600061515482614324565b91507fffffffffffffffffffffffffffffffffffffffffffffffffffffffffffffffff820361518657615185614fb8565b5b600182019050919050565b600061519c82614324565b91506151a783614324565b92508282039050818111156151bf576151be614fb8565b5b92915050565b60008190508160005260206000209050919050565b60006020601f8301049050919050565b600082821b905092915050565b6000600883026152277fffffffffffffffffffffffffffffffffffffffffffffffffffffffffffffffff826151ea565b61523186836151ea565b95508019841693508086168417925050509392505050565b6000819050919050565b600061526e61526961526484614324565b615249565b614324565b9050919050565b6000819050919050565b61528883615253565b61529c61529482615275565b8484546151f7565b825550505050565b600090565b6152b16152a4565b6152bc81848461527f565b505050565b5b818110156152e0576152d56000826152a9565b6001810190506152c2565b5050565b601f821115615325576152f6816151c5565b6152ff846151da565b8101602085101561530e578190505b61532261531a856151da565b8301826152c1565b50505b505050565b600082821c905092915050565b60006153486000198460080261532a565b1980831691505092915050565b60006153618383615337565b9150826002028217905092915050565b61537a826147cc565b67ffffffffffffffff81111561539357615392614658565b5b61539d825461504e565b6153a88282856152e4565b600060209050601f8311600181146153db57600084156153c9578287015190505b6153d38582615355565b86555061543b565b601f1984166153e9866151c5565b60005b82811015615411578489015182556001820191506020850194506020810190506153ec565b8683101561542e578489015161542a601f891682615337565b8355505b6001600288020188555050505b505050505050565b7f5a6f6d62696520617265206e6f74206f6e2073616c6500000000000000000000600082015250565b60006154796016836147d7565b915061548482615443565b602082019050919050565b600060208201905081810360008301526154a88161546c565b9050919050565b7f43616e2774206275792c20796f7520617265207468652073656c6c6572000000600082015250565b60006154e5601d836147d7565b91506154f0826154af565b602082019050919050565b60006020820190508181036000830152615514816154d8565b9050919050565b7f596f757220707269636520697320746f6f206c6f770000000000000000000000600082015250565b60006155516015836147d7565b915061555c8261551b565b602082019050919050565b6000602082019050818103600083015261558081615544565b9050919050565b7f596f7520617265206e6f74206f776e6572206f7220617070726f7665642e0000600082015250565b60006155bd601e836147d7565b91506155c882615587565b602082019050919050565b600060208201905081810360008301526155ec816155b0565b9050919050565b7f4c6576656c206d696e696d756d20697320000000000000000000000000000000815250565b6000615624826155f3565b6011820191506156348284614f61565b915081905092915050565b7f4f6e6c7920000000000000000000000000000000000000000000000000000000815250565b60006156708261563f565b6005820191506156808284614f61565b915081905092915050565b7f4f6e65206d696e7420706572206163636f756e74000000000000000000000000600082015250565b60006156c16014836147d7565b91506156cc8261568b565b602082019050919050565b600060208201905081810360008301526156f0816156b4565b9050919050565b7f5a6f6d6269652000000000000000000000000000000000000000000000000000815250565b6000615728826156f7565b6007820191506157388284614f61565b915081905092915050565b600082905092915050565b6157588383615743565b67ffffffffffffffff81111561577157615770614658565b5b61577b825461504e565b6157868282856152e4565b6000601f8311600181146157b557600084156157a3578287013590505b6157ad8582615355565b865550615815565b601f1984166157c3866151c5565b60005b828110156157eb578489013582556001820191506020850194506020810190506157c6565b868310156158085784890135615804601f891682615337565b8355505b6001600288020188555050505b50505050505050565b6000815461582b8161504e565b6158358186614f56565b94506001821660008114615850576001811461586557615898565b60ff1983168652811515820286019350615898565b61586e856151c5565b60005b8381101561589057815481890152600182019150602081019050615871565b838801955050505b50505092915050565b7f2f00000000000000000000000000000000000000000000000000000000000000815250565b60006158d3828761581e565b91506158df8286614f61565b91506158ea826158a1565b6001820191506158fa828561581e565b9150615905826158a1565b6001820191506159158284614f61565b915081905095945050505050565b7f5a6f6d626965206973206e6f7420726561647920746f2061747461636b000000600082015250565b6000615959601d836147d7565b915061596482615923565b602082019050919050565b600060208201905081810360008301526159888161594c565b9050919050565b6000819050919050565b6159aa6159a582614324565b61598f565b82525050565b60008160601b9050919050565b60006159c8826159b0565b9050919050565b60006159da826159bd565b9050919050565b6159f26159ed8261440b565b6159cf565b82525050565b6000615a048286615999565b602082019150615a1482856159e1565b601482019150615a248284615999565b602082019150819050949350505050565b6000615a4082614324565b9150615a4b83614324565b925082615a5b57615a5a6150e9565b5b828206905092915050565b6000615a7182614500565b915061ffff8203615a8557615a84614fb8565b5b600182019050919050565b6000615a9b8261484b565b915063ffffffff8203615ab157615ab0614fb8565b5b600182019050919050565b6000615ac782614500565b9150615ad283614500565b925082615ae257615ae16150e9565b5b828206905092915050565b6000606082019050615b02600083018661432e565b615b0f602083018561432e565b615b1c604083018461432e565b949350505050565b6000604082019050615b39600083018561432e565b615b46602083018461432e565b9392505050565b7f5a6f6d626965206973206e6f7420726561647920746f20666565640000000000600082015250565b6000615b83601b836147d7565b9150615b8e82615b4d565b602082019050919050565b60006020820190508181036000830152615bb281615b76565b9050919050565b7f4e487b7100000000000000000000000000000000000000000000000000000000600052603160045260246000fd5b6000819050919050565b6000819050919050565b615c0d615c0882615be8565b615bf2565b82525050565b6000615c1f8288614f61565b9150615c2b8287615999565b602082019150615c3b8286615999565b602082019150615c4b82856159e1565b601482019150615c5b8284615bfc565b6020820191508190509695505050505050565b7f4e616d652063616e6e6f74206265206c65667420656d70747900000000000000600082015250565b6000615ca46019836147d7565b9150615caf82615c6e565b602082019050919050565b60006020820190508181036000830152615cd381615c97565b9050919050565b7f444e41206d75737420626520616e20696e746567657200000000000000000000600082015250565b6000615d106016836147d7565b9150615d1b82615cda565b602082019050919050565b60006020820190508181036000830152615d3f81615d03565b9050919050565b6000606082019050615d5b600083018661432e565b8181036020830152615d6d8185614812565b9050615d7c604083018461432e565b949350505050565b60008160030b9050919050565b6000615d9c82615d84565b9150615da783615d84565b92508282039050637fffffff81137fffffffffffffffffffffffffffffffffffffffffffffffffffffffff8000000082121715615de757615de6614fb8565b5b92915050565b6000615df88261484b565b9150615e038361484b565b9250828202615e118161484b565b9150808214615e2357615e22614fb8565b5b5092915050565b6000615e3582615d84565b91507fffffffffffffffffffffffffffffffffffffffffffffffffffffffff800000008203615e6757615e66614fb8565b5b816000039050919050565b6000615e7d82614324565b9150615e8883614324565b9250828202615e9681614324565b91508282048414831517615ead57615eac614fb8565b5b5092915050565b6000615ebf82614500565b9150615eca83614500565b9250828202615ed881614500565b9150808214615eea57615ee9614fb8565b5b5092915050565b6000615efc8261484b565b9150615f078361484b565b9250828203905063ffffffff811115615f2357615f22614fb8565b5b92915050565b7f6b69747479000000000000000000000000000000000000000000000000000000600082015250565b6000615f5f600583614f56565b9150615f6a82615f29565b600582019050919050565b6000615f8082615f52565b9150819050919050565b6000615f968284614f61565b91508190509291505056fea2646970667358221220b188d5606e35b907df2302e4691bf5fdd586bf7d597637dddcc77673d0a8ea6564736f6c634300081c0033687474703a2f2f6c6f63616c686f73743a333333332f7a6f6d6269652f7572692f",
  "linkReferences": {},
  "deployedLinkReferences": {}
}