{
  "_format": "hh-sol-artifact-1",
  "contractName": "CryptoZombies",
  "sourceName": "contracts/CryptoZombies.sol",
  "abi": [
    {
      "anonymous": false,
      "inputs": [
        {
          "indexed": true,
          "internalType": "address",
          "name": "_owner",
          "type": "address"
        },
        {
          "indexed": true,
          "internalType": "address",
          "name": "_approved",
          "type": "address"
        },
        {
          "indexed": true,
          "internalType": "uint256",
          "name": "_tokenId",
          "type": "uint256"
        }
      ],
      "name": "Approval",
      "type": "event"
    },
    {
      "anonymous": false,
      "inputs": [
        {
          "indexed": true,
          "internalType": "uint256",
          "name": "zombieId",
          "type": "uint256"
        },
        {
          "indexed": true,
          "internalType": "address",
          "name": "buyer",
          "type": "address"
        },
        {
          "indexed": true,
          "internalType": "address",
          "name": "seller",
          "type": "address"
        }
      ],
      "name": "BuyShopZombie",
      "type": "event"
    },
    {
      "anonymous": false,
      "inputs": [
        {
          "indexed": true,
          "internalType": "address",
          "name": "from",
          "type": "address"
        },
        {
          "indexed": false,
          "internalType": "uint256",
          "name": "zombieId",
          "type": "uint256"
        },
        {
          "indexed": false,
          "internalType": "string",
          "name": "name",
          "type": "string"
        },
        {
          "indexed": false,
          "internalType": "uint256",
          "name": "dna",
          "type": "uint256"
        }
      ],
      "name": "NewZombie",
      "type": "event"
    },
    {
      "anonymous": false,
      "inputs": [
        {
          "indexed": true,
          "internalType": "address",
          "name": "previousOwner",
          "type": "address"
        },
        {
          "indexed": true,
          "internalType": "address",
          "name": "newOwner",
          "type": "address"
        }
      ],
      "name": "OwnershipTransferred",
      "type": "event"
    },
    {
      "anonymous": false,
      "inputs": [
        {
          "indexed": true,
          "internalType": "uint256",
          "name": "zombieId",
          "type": "uint256"
        },
        {
          "indexed": true,
          "internalType": "uint256",
          "name": "price",
          "type": "uint256"
        }
      ],
      "name": "SaleZombie",
      "type": "event"
    },
    {
      "anonymous": false,
      "inputs": [
        {
          "indexed": true,
          "internalType": "address",
          "name": "_from",
          "type": "address"
        },
        {
          "indexed": true,
          "internalType": "address",
          "name": "_to",
          "type": "address"
        },
        {
          "indexed": true,
          "internalType": "uint256",
          "name": "_tokenId",
          "type": "uint256"
        }
      ],
      "name": "Transfer",
      "type": "event"
    },
    {
      "anonymous": false,
      "inputs": [
        {
          "indexed": true,
          "internalType": "address",
          "name": "from",
          "type": "address"
        },
        {
          "indexed": false,
          "internalType": "uint256",
          "name": "fromId",
          "type": "uint256"
        },
        {
          "indexed": false,
          "internalType": "uint256",
          "name": "targetId",
          "type": "uint256"
        }
      ],
      "name": "onAttackDefeat",
      "type": "event"
    },
    {
      "anonymous": false,
      "inputs": [
        {
          "indexed": true,
          "internalType": "address",
          "name": "from",
          "type": "address"
        },
        {
          "indexed": false,
          "internalType": "uint256",
          "name": "fromId",
          "type": "uint256"
        },
        {
          "indexed": false,
          "internalType": "uint256",
          "name": "targetId",
          "type": "uint256"
        },
        {
          "indexed": false,
          "internalType": "uint256",
          "name": "newDna",
          "type": "uint256"
        }
      ],
      "name": "onAttackVitory",
      "type": "event"
    },
    {
      "anonymous": false,
      "inputs": [
        {
          "indexed": true,
          "internalType": "address",
          "name": "from",
          "type": "address"
        },
        {
          "indexed": false,
          "internalType": "uint256",
          "name": "fromDna",
          "type": "uint256"
        },
        {
          "indexed": false,
          "internalType": "uint256",
          "name": "targetDna",
          "type": "uint256"
        },
        {
          "indexed": false,
          "internalType": "uint256",
          "name": "_kittyId",
          "type": "uint256"
        },
        {
          "indexed": false,
          "internalType": "uint256",
          "name": "newDna",
          "type": "uint256"
        }
      ],
      "name": "onFeed",
      "type": "event"
    },
    {
      "inputs": [
        {
          "internalType": "address",
          "name": "_approved",
          "type": "address"
        },
        {
          "internalType": "uint256",
          "name": "_tokenId",
          "type": "uint256"
        }
      ],
      "name": "approve",
      "outputs": [],
      "stateMutability": "payable",
      "type": "function"
    },
    {
      "inputs": [
        {
          "internalType": "uint256",
          "name": "_zombieId",
          "type": "uint256"
        },
        {
          "internalType": "uint256",
          "name": "_targetId",
          "type": "uint256"
        }
      ],
      "name": "attack",
      "outputs": [],
      "stateMutability": "nonpayable",
      "type": "function"
    },
    {
      "inputs": [],
      "name": "balance",
      "outputs": [
        {
          "internalType": "uint256",
          "name": "",
          "type": "uint256"
        }
      ],
      "stateMutability": "view",
      "type": "function"
    },
    {
      "inputs": [
        {
          "internalType": "address",
          "name": "_owner",
          "type": "address"
        }
      ],
      "name": "balanceOf",
      "outputs": [
        {
          "internalType": "uint256",
          "name": "",
          "type": "uint256"
        }
      ],
      "stateMutability": "view",
      "type": "function"
    },
    {
      "inputs": [],
      "name": "baseUrlTokenURI",
      "outputs": [
        {
          "internalType": "string",
          "name": "",
          "type": "string"
        }
      ],
      "stateMutability": "view",
      "type": "function"
    },
    {
      "inputs": [
        {
          "internalType": "uint256",
          "name": "zombieId",
          "type": "uint256"
        }
      ],
      "name": "buyShopZombie",
      "outputs": [],
      "stateMutability": "payable",
      "type": "function"
    },
    {
      "inputs": [],
      "name": "changeDNAFee",
      "outputs": [
        {
          "internalType": "uint256",
          "name": "",
          "type": "uint256"
        }
      ],
      "stateMutability": "view",
      "type": "function"
    },
    {
      "inputs": [
        {
          "internalType": "uint256",
          "name": "_zombieId",
          "type": "uint256"
        },
        {
          "internalType": "uint256",
          "name": "_newDna",
          "type": "uint256"
        }
      ],
      "name": "changeDna",
      "outputs": [],
      "stateMutability": "payable",
      "type": "function"
    },
    {
      "inputs": [
        {
          "internalType": "uint256",
          "name": "_zombieId",
          "type": "uint256"
        },
        {
          "internalType": "string",
          "name": "_newName",
          "type": "string"
        }
      ],
      "name": "changeName",
      "outputs": [],
      "stateMutability": "payable",
      "type": "function"
    },
    {
      "inputs": [],
      "name": "changeNameFee",
      "outputs": [
        {
          "internalType": "uint256",
          "name": "",
          "type": "uint256"
        }
      ],
      "stateMutability": "view",
      "type": "function"
    },
    {
      "inputs": [],
      "name": "cooldownTimeAttack",
      "outputs": [
        {
          "internalType": "uint256",
          "name": "",
          "type": "uint256"
        }
      ],
      "stateMutability": "view",
      "type": "function"
    },
    {
      "inputs": [],
      "name": "cooldownTimeFeeding",
      "outputs": [
        {
          "internalType": "uint256",
          "name": "",
          "type": "uint256"
        }
      ],
      "stateMutability": "view",
      "type": "function"
    },
    {
      "inputs": [
        {
          "internalType": "string",
          "name": "_name",
          "type": "string"
        }
      ],
      "name": "createRandomZombie",
      "outputs": [],
      "stateMutability": "payable",
      "type": "function"
    },
    {
      "inputs": [],
      "name": "createZombieFee",
      "outputs": [
        {
          "internalType": "uint256",
          "name": "",
          "type": "uint256"
        }
      ],
      "stateMutability": "view",
      "type": "function"
    },
    {
      "inputs": [
        {
          "internalType": "uint256",
          "name": "_zombieId",
          "type": "uint256"
        },
        {
          "internalType": "uint256",
          "name": "_kittyDna",
          "type": "uint256"
        },
        {
          "internalType": "uint256",
          "name": "_kittyId",
          "type": "uint256"
        }
      ],
      "name": "feedOnKitty",
      "outputs": [],
      "stateMutability": "nonpayable",
      "type": "function"
    },
    {
      "inputs": [],
      "name": "getAccounts",
      "outputs": [
        {
          "internalType": "address[]",
          "name": "",
          "type": "address[]"
        }
      ],
      "stateMutability": "view",
      "type": "function"
    },
    {
      "inputs": [],
      "name": "getAllZombiesInShop",
      "outputs": [
        {
          "components": [
            {
              "internalType": "address payable",
              "name": "seller",
              "type": "address"
            },
            {
              "internalType": "uint256",
              "name": "zombieId",
              "type": "uint256"
            },
            {
              "internalType": "uint256",
              "name": "price",
              "type": "uint256"
            }
          ],
          "internalType": "struct ZombieMarket.ZombieSale[]",
          "name": "",
          "type": "tuple[]"
        }
      ],
      "stateMutability": "view",
      "type": "function"
    },
    {
      "inputs": [],
      "name": "getRanking",
      "outputs": [
        {
          "components": [
            {
              "internalType": "address",
              "name": "account",
              "type": "address"
            },
            {
              "internalType": "uint256",
              "name": "position",
              "type": "uint256"
            },
            {
              "internalType": "uint256",
              "name": "score",
              "type": "uint256"
            },
            {
              "internalType": "uint256",
              "name": "zombieCount",
              "type": "uint256"
            },
            {
              "internalType": "uint16",
              "name": "winCount",
              "type": "uint16"
            },
            {
              "internalType": "uint16",
              "name": "lossCount",
              "type": "uint16"
            }
          ],
          "internalType": "struct ZombieRanking.Ranking[]",
          "name": "",
          "type": "tuple[]"
        }
      ],
      "stateMutability": "view",
      "type": "function"
    },
    {
      "inputs": [
        {
          "internalType": "address",
          "name": "_owner",
          "type": "address"
        }
      ],
      "name": "getZombiesByOwner",
      "outputs": [
        {
          "internalType": "uint256[]",
          "name": "",
          "type": "uint256[]"
        }
      ],
      "stateMutability": "view",
      "type": "function"
    },
    {
      "inputs": [
        {
          "internalType": "uint256",
          "name": "_zombieId",
          "type": "uint256"
        }
      ],
      "name": "hasZombieInShop",
      "outputs": [
        {
          "internalType": "bool",
          "name": "",
          "type": "bool"
        }
      ],
      "stateMutability": "view",
      "type": "function"
    },
    {
      "inputs": [],
      "name": "isOwner",
      "outputs": [
        {
          "internalType": "bool",
          "name": "",
          "type": "bool"
        }
      ],
      "stateMutability": "view",
      "type": "function"
    },
    {
      "inputs": [
        {
          "internalType": "uint256",
          "name": "_zombieId",
          "type": "uint256"
        }
      ],
      "name": "levelUp",
      "outputs": [],
      "stateMutability": "payable",
      "type": "function"
    },
    {
      "inputs": [],
      "name": "levelUpFee",
      "outputs": [
        {
          "internalType": "uint256",
          "name": "",
          "type": "uint256"
        }
      ],
      "stateMutability": "view",
      "type": "function"
    },
    {
      "inputs": [],
      "name": "minPrice",
      "outputs": [
        {
          "internalType": "uint256",
          "name": "",
          "type": "uint256"
        }
      ],
      "stateMutability": "view",
      "type": "function"
    },
    {
      "inputs": [],
      "name": "owner",
      "outputs": [
        {
          "internalType": "address",
          "name": "",
          "type": "address"
        }
      ],
      "stateMutability": "view",
      "type": "function"
    },
    {
      "inputs": [
        {
          "internalType": "uint256",
          "name": "_tokenId",
          "type": "uint256"
        }
      ],
      "name": "ownerOf",
      "outputs": [
        {
          "internalType": "address",
          "name": "",
          "type": "address"
        }
      ],
      "stateMutability": "view",
      "type": "function"
    },
    {
      "inputs": [],
      "name": "renounceOwnership",
      "outputs": [],
      "stateMutability": "nonpayable",
      "type": "function"
    },
    {
      "inputs": [
        {
          "internalType": "uint256",
          "name": "zombieId",
          "type": "uint256"
        },
        {
          "internalType": "uint256",
          "name": "price",
          "type": "uint256"
        }
      ],
      "name": "saleMyZombie",
      "outputs": [],
      "stateMutability": "nonpayable",
      "type": "function"
    },
    {
      "inputs": [
        {
          "internalType": "string",
          "name": "_baseUrlTokenURI",
          "type": "string"
        }
      ],
      "name": "setBaseUrlTokenURI",
      "outputs": [],
      "stateMutability": "nonpayable",
      "type": "function"
    },
    {
      "inputs": [
        {
          "internalType": "uint256",
          "name": "_fee",
          "type": "uint256"
        }
      ],
      "name": "setChangeDNAFee",
      "outputs": [],
      "stateMutability": "nonpayable",
      "type": "function"
    },
    {
      "inputs": [
        {
          "internalType": "uint256",
          "name": "_fee",
          "type": "uint256"
        }
      ],
      "name": "setChangeNameFee",
      "outputs": [],
      "stateMutability": "nonpayable",
      "type": "function"
    },
    {
      "inputs": [
        {
          "internalType": "uint256",
          "name": "_cooldownTime",
          "type": "uint256"
        }
      ],
      "name": "setCooldownTimeAttack",
      "outputs": [],
      "stateMutability": "nonpayable",
      "type": "function"
    },
    {
      "inputs": [
        {
          "internalType": "uint256",
          "name": "_cooldownTime",
          "type": "uint256"
        }
      ],
      "name": "setCooldownTimeFeeding",
      "outputs": [],
      "stateMutability": "nonpayable",
      "type": "function"
    },
    {
      "inputs": [
        {
          "internalType": "uint256",
          "name": "_createZombieFee",
          "type": "uint256"
        }
      ],
      "name": "setCreateZombieFee",
      "outputs": [],
      "stateMutability": "nonpayable",
      "type": "function"
    },
    {
      "inputs": [
        {
          "internalType": "address",
          "name": "_address",
          "type": "address"
        }
      ],
      "name": "setKittyContractAddress",
      "outputs": [],
      "stateMutability": "nonpayable",
      "type": "function"
    },
    {
      "inputs": [
        {
          "internalType": "uint256",
          "name": "_fee",
          "type": "uint256"
        }
      ],
      "name": "setLevelUpFee",
      "outputs": [],
      "stateMutability": "nonpayable",
      "type": "function"
    },
    {
      "inputs": [
        {
          "internalType": "uint256",
          "name": "value",
          "type": "uint256"
        }
      ],
      "name": "setMinPrice",
      "outputs": [],
      "stateMutability": "nonpayable",
      "type": "function"
    },
    {
      "inputs": [
        {
          "internalType": "uint256",
          "name": "value",
          "type": "uint256"
        }
      ],
      "name": "setTax",
      "outputs": [],
      "stateMutability": "nonpayable",
      "type": "function"
    },
    {
      "inputs": [],
      "name": "tax",
      "outputs": [
        {
          "internalType": "uint256",
          "name": "",
          "type": "uint256"
        }
      ],
      "stateMutability": "view",
      "type": "function"
    },
    {
      "inputs": [
        {
          "internalType": "uint256",
          "name": "_tokenId",
          "type": "uint256"
        }
      ],
      "name": "tokenURI",
      "outputs": [
        {
          "internalType": "string",
          "name": "",
          "type": "string"
        }
      ],
      "stateMutability": "view",
      "type": "function"
    },
    {
      "inputs": [],
      "name": "totalAttackVictoryToGetReward",
      "outputs": [
        {
          "internalType": "uint8",
          "name": "",
          "type": "uint8"
        }
      ],
      "stateMutability": "view",
      "type": "function"
    },
    {
      "inputs": [],
      "name": "totalFedToGetReward",
      "outputs": [
        {
          "internalType": "uint8",
          "name": "",
          "type": "uint8"
        }
      ],
      "stateMutability": "view",
      "type": "function"
    },
    {
      "inputs": [
        {
          "internalType": "address",
          "name": "_from",
          "type": "address"
        },
        {
          "internalType": "address",
          "name": "_to",
          "type": "address"
        },
        {
          "internalType": "uint256",
          "name": "_tokenId",
          "type": "uint256"
        }
      ],
      "name": "transferFrom",
      "outputs": [],
      "stateMutability": "payable",
      "type": "function"
    },
    {
      "inputs": [
        {
          "internalType": "address",
          "name": "newOwner",
          "type": "address"
        }
      ],
      "name": "transferOwnership",
      "outputs": [],
      "stateMutability": "nonpayable",
      "type": "function"
    },
    {
      "inputs": [],
      "name": "withdraw",
      "outputs": [],
      "stateMutability": "nonpayable",
      "type": "function"
    },
    {
      "inputs": [
        {
          "internalType": "uint256",
          "name": "",
          "type": "uint256"
        }
      ],
      "name": "zombieShop",
      "outputs": [
        {
          "internalType": "address payable",
          "name": "seller",
          "type": "address"
        },
        {
          "internalType": "uint256",
          "name": "price",
          "type": "uint256"
        }
      ],
      "stateMutability": "view",
      "type": "function"
    },
    {
      "inputs": [
        {
          "internalType": "uint256",
          "name": "",
          "type": "uint256"
        }
      ],
      "name": "zombieShopKeys",
      "outputs": [
        {
          "internalType": "uint256",
          "name": "",
          "type": "uint256"
        }
      ],
      "stateMutability": "view",
      "type": "function"
    },
    {
      "inputs": [
        {
          "internalType": "uint256",
          "name": "",
          "type": "uint256"
        }
      ],
      "name": "zombieToOwner",
      "outputs": [
        {
          "internalType": "address",
          "name": "",
          "type": "address"
        }
      ],
      "stateMutability": "view",
      "type": "function"
    },
    {
      "inputs": [
        {
          "internalType": "uint256",
          "name": "",
          "type": "uint256"
        }
      ],
      "name": "zombies",
      "outputs": [
        {
          "internalType": "string",
          "name": "name",
          "type": "string"
        },
        {
          "internalType": "uint256",
          "name": "dna",
          "type": "uint256"
        },
        {
          "internalType": "uint256",
          "name": "score",
          "type": "uint256"
        },
        {
          "internalType": "uint32",
          "name": "birthTime",
          "type": "uint32"
        },
        {
          "internalType": "uint32",
          "name": "level",
          "type": "uint32"
        },
        {
          "internalType": "uint32",
          "name": "attackReadyTime",
          "type": "uint32"
        },
        {
          "internalType": "uint32",
          "name": "fedReadyTime",
          "type": "uint32"
        },
        {
          "internalType": "uint16",
          "name": "winCount",
          "type": "uint16"
        },
        {
          "internalType": "uint16",
          "name": "lossCount",
          "type": "uint16"
        },
        {
          "internalType": "uint8",
          "name": "attackVictoryCount",
          "type": "uint8"
        },
        {
          "internalType": "uint8",
          "name": "fedCount",
          "type": "uint8"
        }
      ],
      "stateMutability": "view",
      "type": "function"
    }
  ],
  "bytecode": "0x608060405260006001556010600255600254600a61001d919061030c565b600355660aa87bee538000600455603c600555603c60065560078060006101000a81548160ff021916908360ff160217905550600a600760016101000a81548160ff021916908360ff16021790555066038d7ea4c68000600e5566071afd498d0000600f55660e35fa931a0000601055600060115560326012556040518060600160405280602181526020016162a760219139601390816100be919061059d565b50655af3107a4000601555655af3107a40006016553480156100df57600080fd5b50336000806101000a81548173ffffffffffffffffffffffffffffffffffffffff021916908373ffffffffffffffffffffffffffffffffffffffff16021790555060008054906101000a900473ffffffffffffffffffffffffffffffffffffffff1673ffffffffffffffffffffffffffffffffffffffff16600073ffffffffffffffffffffffffffffffffffffffff167f8be0079c531659141344cd1fd0a4f28419497f9722a3daafe3b4186f6b6457e060405160405180910390a361066f565b7f4e487b7100000000000000000000000000000000000000000000000000000000600052601160045260246000fd5b60008160011c9050919050565b6000808291508390505b600185111561022657808604811115610202576102016101a0565b5b60018516156102115780820291505b808102905061021f856101cf565b94506101e6565b94509492505050565b60008261023f57600190506102fb565b8161024d57600090506102fb565b8160018114610263576002811461026d5761029c565b60019150506102fb565b60ff84111561027f5761027e6101a0565b5b8360020a915084821115610296576102956101a0565b5b506102fb565b5060208310610133831016604e8410600b84101617156102d15782820a9050838111156102cc576102cb6101a0565b5b6102fb565b6102de84848460016101dc565b925090508184048111156102f5576102f46101a0565b5b81810290505b9392505050565b6000819050919050565b600061031782610302565b915061032283610302565b925061034f7fffffffffffffffffffffffffffffffffffffffffffffffffffffffffffffffff848461022f565b905092915050565b600081519050919050565b7f4e487b7100000000000000000000000000000000000000000000000000000000600052604160045260246000fd5b7f4e487b7100000000000000000000000000000000000000000000000000000000600052602260045260246000fd5b600060028204905060018216806103d857607f821691505b6020821081036103eb576103ea610391565b5b50919050565b60008190508160005260206000209050919050565b60006020601f8301049050919050565b600082821b905092915050565b6000600883026104537fffffffffffffffffffffffffffffffffffffffffffffffffffffffffffffffff82610416565b61045d8683610416565b95508019841693508086168417925050509392505050565b6000819050919050565b600061049a61049561049084610302565b610475565b610302565b9050919050565b6000819050919050565b6104b48361047f565b6104c86104c0826104a1565b848454610423565b825550505050565b600090565b6104dd6104d0565b6104e88184846104ab565b505050565b5b8181101561050c576105016000826104d5565b6001810190506104ee565b5050565b601f82111561055157610522816103f1565b61052b84610406565b8101602085101561053a578190505b61054e61054685610406565b8301826104ed565b50505b505050565b600082821c905092915050565b600061057460001984600802610556565b1980831691505092915050565b600061058d8383610563565b9150826002028217905092915050565b6105a682610357565b67ffffffffffffffff8111156105bf576105be610362565b5b6105c982546103c0565b6105d4828285610510565b600060209050601f83116001811461060757600084156105f5578287015190505b6105ff8582610581565b865550610667565b601f198416610615866103f1565b60005b8281101561063d57848901518255600182019150602085019450602081019050610618565b8683101561065a5784890151610656601f891682610563565b8355505b6001600288020188555050505b505050505050565b615c298061067e6000396000f3fe6080604052600436106102ae5760003560e01c8063705668f711610175578063b32c012d116100dc578063ccf670f811610095578063e45be8eb1161006f578063e45be8eb14610a34578063f234fca314610a5f578063f2fde38b14610a9c578063f77de3a114610ac5576102ae565b8063ccf670f8146109b9578063d5746565146109e2578063e1fa763814610a0b576102ae565b8063b32c012d146108b6578063b69ef8a8146108df578063bcad1fde1461090a578063c39cbef114610935578063c4114b1214610951578063c87b56dd1461097c576102ae565b80637a8936c11161012e5780637a8936c1146107c55780637bff0a01146107ee5780638a48ac031461080a5780638da5cb5b146108355780638f32d59b1461086057806399c8d5561461088b576102ae565b8063705668f7146106c757806370a08231146106f257806370acbb631461072f57806370f47cf91461075a578063715018a61461078357806374e729f71461079a576102ae565b806346979d34116102195780635625d6d7116101d25780635625d6d7146105c85780635ea8cd12146105f35780635f4623f11461061c5780635faf2880146106455780636352211e146106615780636be17f0e1461069e576102ae565b806346979d34146104a257806349cee8e7146104df5780634f0951661461050a578063528b7b8f1461053557806354c92c5f14610572578063558862d61461059d576102ae565b8063208c750e1161026b578063208c750e146103af57806323b872dd146103cb5780632e5bb6ff146103e75780633ccfd60b146104105780634412e1041461042757806345c6ba3914610464576102ae565b806306f33760146102b3578063095ea7b3146102dc5780630ce90ec2146102f85780631398bbf7146103145780631919b7e61461033f5780632052465e14610368575b600080fd5b3480156102bf57600080fd5b506102da60048036038101906102d59190614084565b610aee565b005b6102f660048036038101906102f19190614135565b610bb7565b005b610312600480360381019061030d9190614175565b610cd5565b005b34801561032057600080fd5b50610329610e3c565b6040516103369190614307565b60405180910390f35b34801561034b57600080fd5b506103666004803603810190610361919061446f565b611485565b005b34801561037457600080fd5b5061038f600480360381019061038a9190614175565b6114a9565b6040516103a69b9a99989796959493929190614590565b60405180910390f35b6103c960048036038101906103c49190614175565b611611565b005b6103e560048036038101906103e09190614642565b611892565b005b3480156103f357600080fd5b5061040e60048036038101906104099190614175565b6119ac565b005b34801561041c57600080fd5b506104256119c7565b005b34801561043357600080fd5b5061044e60048036038101906104499190614695565b611a2e565b60405161045b9190614771565b60405180910390f35b34801561047057600080fd5b5061048b60048036038101906104869190614175565b611a40565b6040516104999291906147b4565b60405180910390f35b3480156104ae57600080fd5b506104c960048036038101906104c49190614175565b611a84565b6040516104d691906147dd565b60405180910390f35b3480156104eb57600080fd5b506104f4611aa8565b60405161050191906147f8565b60405180910390f35b34801561051657600080fd5b5061051f611abb565b60405161052c91906147dd565b60405180910390f35b34801561054157600080fd5b5061055c60048036038101906105579190614175565b611ac1565b6040516105699190614822565b60405180910390f35b34801561057e57600080fd5b50610587611af4565b604051610594919061483d565b60405180910390f35b3480156105a957600080fd5b506105b2611b82565b6040516105bf91906147dd565b60405180910390f35b3480156105d457600080fd5b506105dd611b88565b6040516105ea91906147dd565b60405180910390f35b3480156105ff57600080fd5b5061061a60048036038101906106159190614175565b611b8e565b005b34801561062857600080fd5b50610643600480360381019061063e9190614695565b611ba9565b005b61065f600480360381019061065a919061485f565b611bfe565b005b34801561066d57600080fd5b5061068860048036038101906106839190614175565b611db9565b6040516106959190614822565b60405180910390f35b3480156106aa57600080fd5b506106c560048036038101906106c09190614175565b611df6565b005b3480156106d357600080fd5b506106dc611e11565b6040516106e9919061499f565b60405180910390f35b3480156106fe57600080fd5b5061071960048036038101906107149190614695565b611f94565b60405161072691906147dd565b60405180910390f35b34801561073b57600080fd5b50610744611fdd565b60405161075191906147dd565b60405180910390f35b34801561076657600080fd5b50610781600480360381019061077c9190614175565b611fe3565b005b34801561078f57600080fd5b50610798611ffe565b005b3480156107a657600080fd5b506107af6120cd565b6040516107bc91906147f8565b60405180910390f35b3480156107d157600080fd5b506107ec60048036038101906107e79190614175565b6120e0565b005b6108086004803603810190610803919061446f565b6120fb565b005b34801561081657600080fd5b5061081f6122d0565b60405161082c9190614a70565b60405180910390f35b34801561084157600080fd5b5061084a6123d5565b6040516108579190614822565b60405180910390f35b34801561086c57600080fd5b506108756123fe565b6040516108829190614aad565b60405180910390f35b34801561089757600080fd5b506108a0612455565b6040516108ad91906147dd565b60405180910390f35b3480156108c257600080fd5b506108dd60048036038101906108d8919061485f565b61245b565b005b3480156108eb57600080fd5b506108f4612607565b60405161090191906147dd565b60405180910390f35b34801561091657600080fd5b5061091f612620565b60405161092c91906147dd565b60405180910390f35b61094f600480360381019061094a9190614b28565b612626565b005b34801561095d57600080fd5b506109666127ed565b60405161097391906147dd565b60405180910390f35b34801561098857600080fd5b506109a3600480360381019061099e9190614175565b6127f3565b6040516109b0919061483d565b60405180910390f35b3480156109c557600080fd5b506109e060048036038101906109db9190614175565b612861565b005b3480156109ee57600080fd5b50610a096004803603810190610a049190614175565b61287c565b005b348015610a1757600080fd5b50610a326004803603810190610a2d919061485f565b612897565b005b348015610a4057600080fd5b50610a49612cb4565b604051610a5691906147dd565b60405180910390f35b348015610a6b57600080fd5b50610a866004803603810190610a819190614175565b612cba565b604051610a939190614aad565b60405180910390f35b348015610aa857600080fd5b50610ac36004803603810190610abe9190614695565b612d7a565b005b348015610ad157600080fd5b50610aec6004803603810190610ae79190614175565b612d97565b005b600060088481548110610b0457610b03614b88565b5b906000526020600020906004020190506000610b5685856040518060400160405280600581526020017f6b69747479000000000000000000000000000000000000000000000000000000815250612db2565b90503373ffffffffffffffffffffffffffffffffffffffff167f94bd9f81959636fb1ddd32f8bcbdab8b649d20a6a464f759a1aa7f7cf4447fac8360010154868685604051610ba89493929190614bb7565b60405180910390a25050505050565b80600a600082815260200190815260200160002060009054906101000a900473ffffffffffffffffffffffffffffffffffffffff1673ffffffffffffffffffffffffffffffffffffffff163373ffffffffffffffffffffffffffffffffffffffff1614610c2357600080fd5b826014600084815260200190815260200160002060006101000a81548173ffffffffffffffffffffffffffffffffffffffff021916908373ffffffffffffffffffffffffffffffffffffffff160217905550818373ffffffffffffffffffffffffffffffffffffffff163373ffffffffffffffffffffffffffffffffffffffff167f8c5be1e5ebec7d5bd14f71427d1e84f3dd0314c0f7b2291e5b200ac8c7c3b92560405160405180910390a4505050565b600e5480341015610ce582612f42565b604051602001610cf59190614c5e565b60405160208183030381529060405290610d45576040517f08c379a0000000000000000000000000000000000000000000000000000000008152600401610d3c919061483d565b60405180910390fd5b5081600a600082815260200190815260200160002060009054906101000a900473ffffffffffffffffffffffffffffffffffffffff1673ffffffffffffffffffffffffffffffffffffffff163373ffffffffffffffffffffffffffffffffffffffff1614610db257600080fd5b600160088481548110610dc857610dc7614b88565b5b906000526020600020906004020160030160049054906101000a900463ffffffff16610df49190614cb3565b60088481548110610e0857610e07614b88565b5b906000526020600020906004020160030160046101000a81548163ffffffff021916908363ffffffff160217905550505050565b606060003390506000600980549050905060008167ffffffffffffffff811115610e6957610e68614344565b5b604051908082528060200260200182016040528015610ea257816020015b610e8f613faf565b815260200190600190039081610e875790505b50905060006014905060005b838110156111dc57600060098281548110610ecc57610ecb614b88565b5b9060005260206000200160009054906101000a900473ffffffffffffffffffffffffffffffffffffffff1690506000610f0482613010565b90506000806000805b845181101561115f5760006008868381518110610f2d57610f2c614b88565b5b602002602001015181548110610f4657610f45614b88565b5b906000526020600020906004020160405180610160016040529081600082018054610f7090614d1a565b80601f0160208091040260200160405190810160405280929190818152602001828054610f9c90614d1a565b8015610fe95780601f10610fbe57610100808354040283529160200191610fe9565b820191906000526020600020905b815481529060010190602001808311610fcc57829003601f168201915b5050505050815260200160018201548152602001600282015481526020016003820160009054906101000a900463ffffffff1663ffffffff1663ffffffff1681526020016003820160049054906101000a900463ffffffff1663ffffffff1663ffffffff1681526020016003820160089054906101000a900463ffffffff1663ffffffff1663ffffffff16815260200160038201600c9054906101000a900463ffffffff1663ffffffff1663ffffffff1681526020016003820160109054906101000a900461ffff1661ffff1661ffff1681526020016003820160129054906101000a900461ffff1661ffff1661ffff1681526020016003820160149054906101000a900460ff1660ff1660ff1681526020016003820160159054906101000a900460ff1660ff1660ff1681525050905080604001518561112a9190614d4b565b94508060e001518461113c9190614d7f565b93508061010001518361114f9190614d7f565b9250508080600101915050610f0d565b506040518060c001604052808673ffffffffffffffffffffffffffffffffffffffff168152602001878152602001848152602001855181526020018361ffff1681526020018261ffff168152508887815181106111bf576111be614b88565b5b602002602001018190525050505050508080600101915050610eae565b506111e68261315d565b50808251116111fb5781945050505050611482565b60008167ffffffffffffffff81111561121757611216614344565b5b60405190808252806020026020018201604052801561125057816020015b61123d613faf565b8152602001906001900390816112355790505b5090506000806002846112639190614de4565b905060005b818110156112c25785818151811061128357611282614b88565b5b602002602001015184848061129790614e15565b9550815181106112aa576112a9614b88565b5b60200260200101819052508080600101915050611268565b5060006001856112d29190614d4b565b876112dd9190614e5d565b905060008190505b87811080156112f357508584105b156113505786818151811061130b5761130a614b88565b5b602002602001015185858061131f90614e15565b96508151811061133257611331614b88565b5b6020026020010181905250808061134890614e15565b9150506112e5565b506000805b848110156113c4578973ffffffffffffffffffffffffffffffffffffffff1686828151811061138757611386614b88565b5b60200260200101516000015173ffffffffffffffffffffffffffffffffffffffff16036113b757600191506113c4565b8080600101915050611355565b50806114755760005b8751811015611473578973ffffffffffffffffffffffffffffffffffffffff16888281518110611400576113ff614b88565b5b60200260200101516000015173ffffffffffffffffffffffffffffffffffffffff16036114665787818151811061143a57611439614b88565b5b602002602001015186600a8151811061145657611455614b88565b5b6020026020010181905250611473565b80806001019150506113cd565b505b8499505050505050505050505b90565b61148d6123fe565b61149657600080fd5b80601390816114a5919061503d565b5050565b600881815481106114b957600080fd5b90600052602060002090600402016000915090508060000180546114dc90614d1a565b80601f016020809104026020016040519081016040528092919081815260200182805461150890614d1a565b80156115555780601f1061152a57610100808354040283529160200191611555565b820191906000526020600020905b81548152906001019060200180831161153857829003601f168201915b5050505050908060010154908060020154908060030160009054906101000a900463ffffffff16908060030160049054906101000a900463ffffffff16908060030160089054906101000a900463ffffffff169080600301600c9054906101000a900463ffffffff16908060030160109054906101000a900461ffff16908060030160129054906101000a900461ffff16908060030160149054906101000a900460ff16908060030160159054906101000a900460ff1690508b565b6000601860008381526020019081526020016000206040518060400160405290816000820160009054906101000a900473ffffffffffffffffffffffffffffffffffffffff1673ffffffffffffffffffffffffffffffffffffffff1673ffffffffffffffffffffffffffffffffffffffff1681526020016001820154815250509050806000015173ffffffffffffffffffffffffffffffffffffffff16600073ffffffffffffffffffffffffffffffffffffffff1603611706576040517f08c379a00000000000000000000000000000000000000000000000000000000081526004016116fd9061515b565b60405180910390fd5b806000015173ffffffffffffffffffffffffffffffffffffffff163373ffffffffffffffffffffffffffffffffffffffff1603611778576040517f08c379a000000000000000000000000000000000000000000000000000000000815260040161176f906151c7565b60405180910390fd5b80602001513410156117bf576040517f08c379a00000000000000000000000000000000000000000000000000000000081526004016117b690615233565b60405180910390fd5b6117ce8160000151338461325b565b806000015173ffffffffffffffffffffffffffffffffffffffff166108fc601554346117fa9190614e5d565b9081150290604051600060405180830381858888f19350505050158015611825573d6000803e3d6000fd5b5061182f8261342b565b806000015173ffffffffffffffffffffffffffffffffffffffff163373ffffffffffffffffffffffffffffffffffffffff16837f2705da8f1145dc87c9e6b9aa3ecd69d3d64da132acba45c803563ad52f5c2b5f60405160405180910390a45050565b3373ffffffffffffffffffffffffffffffffffffffff16600a600083815260200190815260200160002060009054906101000a900473ffffffffffffffffffffffffffffffffffffffff1673ffffffffffffffffffffffffffffffffffffffff16148061195d57503373ffffffffffffffffffffffffffffffffffffffff166014600083815260200190815260200160002060009054906101000a900473ffffffffffffffffffffffffffffffffffffffff1673ffffffffffffffffffffffffffffffffffffffff16145b61199c576040517f08c379a00000000000000000000000000000000000000000000000000000000081526004016119939061529f565b60405180910390fd5b6119a783838361325b565b505050565b6119b46123fe565b6119bd57600080fd5b8060158190555050565b6119cf6123fe565b6119d857600080fd5b60006119e26123d5565b90508073ffffffffffffffffffffffffffffffffffffffff166108fc479081150290604051600060405180830381858888f19350505050158015611a2a573d6000803e3d6000fd5b5050565b6060611a3982613010565b9050919050565b60186020528060005260406000206000915090508060000160009054906101000a900473ffffffffffffffffffffffffffffffffffffffff16908060010154905082565b60178181548110611a9457600080fd5b906000526020600020016000915090505481565b600760009054906101000a900460ff1681565b600f5481565b600a6020528060005260406000206000915054906101000a900473ffffffffffffffffffffffffffffffffffffffff1681565b60138054611b0190614d1a565b80601f0160208091040260200160405190810160405280929190818152602001828054611b2d90614d1a565b8015611b7a5780601f10611b4f57610100808354040283529160200191611b7a565b820191906000526020600020905b815481529060010190602001808311611b5d57829003601f168201915b505050505081565b60045481565b60055481565b611b966123fe565b611b9f57600080fd5b8060168190555050565b611bb16123fe565b611bba57600080fd5b80600d60006101000a81548173ffffffffffffffffffffffffffffffffffffffff021916908373ffffffffffffffffffffffffffffffffffffffff16021790555050565b60105480341015611c0e82612f42565b604051602001611c1e9190614c5e565b60405160208183030381529060405290611c6e576040517f08c379a0000000000000000000000000000000000000000000000000000000008152600401611c65919061483d565b60405180910390fd5b506014838160088281548110611c8757611c86614b88565b5b906000526020600020906004020160030160049054906101000a900463ffffffff1663ffffffff161015611cba83612f42565b604051602001611cca91906152e5565b60405160208183030381529060405290611d1a576040517f08c379a0000000000000000000000000000000000000000000000000000000008152600401611d11919061483d565b60405180910390fd5b5084600a600082815260200190815260200160002060009054906101000a900473ffffffffffffffffffffffffffffffffffffffff1673ffffffffffffffffffffffffffffffffffffffff163373ffffffffffffffffffffffffffffffffffffffff1614611d8757600080fd5b8460088781548110611d9c57611d9b614b88565b5b906000526020600020906004020160010181905550505050505050565b6000600a600083815260200190815260200160002060009054906101000a900473ffffffffffffffffffffffffffffffffffffffff169050919050565b611dfe6123fe565b611e0757600080fd5b80600f8190555050565b60606000601780549050905060008167ffffffffffffffff811115611e3957611e38614344565b5b604051908082528060200260200182016040528015611e7257816020015b611e5f614003565b815260200190600190039081611e575790505b50905060005b82811015611f8b57600060178281548110611e9657611e95614b88565b5b906000526020600020015490506000601860008381526020019081526020016000206040518060400160405290816000820160009054906101000a900473ffffffffffffffffffffffffffffffffffffffff1673ffffffffffffffffffffffffffffffffffffffff1673ffffffffffffffffffffffffffffffffffffffff16815260200160018201548152505090506040518060600160405280826000015173ffffffffffffffffffffffffffffffffffffffff1681526020018381526020018260200151815250848481518110611f7157611f70614b88565b5b602002602001018190525050508080600101915050611e78565b50809250505090565b6000600b60008373ffffffffffffffffffffffffffffffffffffffff1673ffffffffffffffffffffffffffffffffffffffff168152602001908152602001600020549050919050565b60105481565b611feb6123fe565b611ff457600080fd5b8060108190555050565b6120066123fe565b61200f57600080fd5b600073ffffffffffffffffffffffffffffffffffffffff1660008054906101000a900473ffffffffffffffffffffffffffffffffffffffff1673ffffffffffffffffffffffffffffffffffffffff167f8be0079c531659141344cd1fd0a4f28419497f9722a3daafe3b4186f6b6457e060405160405180910390a360008060006101000a81548173ffffffffffffffffffffffffffffffffffffffff021916908373ffffffffffffffffffffffffffffffffffffffff160217905550565b600760019054906101000a900460ff1681565b6120e86123fe565b6120f157600080fd5b8060058190555050565b6004548034101561210b82612f42565b60405160200161211b9190614c5e565b6040516020818303038152906040529061216b576040517f08c379a0000000000000000000000000000000000000000000000000000000008152600401612162919061483d565b60405180910390fd5b50600c60003373ffffffffffffffffffffffffffffffffffffffff1673ffffffffffffffffffffffffffffffffffffffff16815260200190815260200160002060009054906101000a900460ff16156121f9576040517f08c379a00000000000000000000000000000000000000000000000000000000081526004016121f09061537d565b60405180910390fd5b600061220483613535565b905061221083826135aa565b6001600c60003373ffffffffffffffffffffffffffffffffffffffff1673ffffffffffffffffffffffffffffffffffffffff16815260200190815260200160002060006101000a81548160ff0219169083151502179055506009339080600181540180825580915050600190039060005260206000200160009091909190916101000a81548173ffffffffffffffffffffffffffffffffffffffff021916908373ffffffffffffffffffffffffffffffffffffffff160217905550505050565b6060600060098054905067ffffffffffffffff8111156122f3576122f2614344565b5b6040519080825280602002602001820160405280156123215781602001602082028036833780820191505090505b50905060005b6009805490508110156123cd576009818154811061234857612347614b88565b5b9060005260206000200160009054906101000a900473ffffffffffffffffffffffffffffffffffffffff1682828151811061238657612385614b88565b5b602002602001019073ffffffffffffffffffffffffffffffffffffffff16908173ffffffffffffffffffffffffffffffffffffffff16815250508080600101915050612327565b508091505090565b60008060009054906101000a900473ffffffffffffffffffffffffffffffffffffffff16905090565b60008060009054906101000a900473ffffffffffffffffffffffffffffffffffffffff1673ffffffffffffffffffffffffffffffffffffffff163373ffffffffffffffffffffffffffffffffffffffff1614905090565b60155481565b81600a600082815260200190815260200160002060009054906101000a900473ffffffffffffffffffffffffffffffffffffffff1673ffffffffffffffffffffffffffffffffffffffff163373ffffffffffffffffffffffffffffffffffffffff16146124c757600080fd5b6016546015546124d79190614d4b565b821015612519576040517f08c379a000000000000000000000000000000000000000000000000000000000815260040161251090615233565b60405180910390fd5b60405180604001604052803373ffffffffffffffffffffffffffffffffffffffff168152602001838152506018600085815260200190815260200160002060008201518160000160006101000a81548173ffffffffffffffffffffffffffffffffffffffff021916908373ffffffffffffffffffffffffffffffffffffffff16021790555060208201518160010155905050601783908060018154018082558091505060019003906000526020600020016000909190919091505581837fb03c845c6c9ef1ff8db2c6381cd7ecf8c5623e02bb20e85545f3d04288302e5860405160405180910390a3505050565b60006126116123fe565b61261a57600080fd5b47905090565b60065481565b600f548034101561263682612f42565b6040516020016126469190614c5e565b60405160208183030381529060405290612696576040517f08c379a000000000000000000000000000000000000000000000000000000000815260040161268d919061483d565b60405180910390fd5b5060028481600882815481106126af576126ae614b88565b5b906000526020600020906004020160030160049054906101000a900463ffffffff1663ffffffff1610156126e283612f42565b6040516020016126f291906152e5565b60405160208183030381529060405290612742576040517f08c379a0000000000000000000000000000000000000000000000000000000008152600401612739919061483d565b60405180910390fd5b5085600a600082815260200190815260200160002060009054906101000a900473ffffffffffffffffffffffffffffffffffffffff1673ffffffffffffffffffffffffffffffffffffffff163373ffffffffffffffffffffffffffffffffffffffff16146127af57600080fd5b8585600889815481106127c5576127c4614b88565b5b906000526020600020906004020160000191826127e39291906153a8565b5050505050505050565b600e5481565b606060006008838154811061280b5761280a614b88565b5b90600052602060002090600402019050601361282684612f42565b826000016128378460010154612f42565b60405160200161284a9493929190615521565b604051602081830303815290604052915050919050565b6128696123fe565b61287257600080fd5b80600e8190555050565b6128846123fe565b61288d57600080fd5b8060048190555050565b81600a600082815260200190815260200160002060009054906101000a900473ffffffffffffffffffffffffffffffffffffffff1673ffffffffffffffffffffffffffffffffffffffff163373ffffffffffffffffffffffffffffffffffffffff161461290357600080fd5b60006008848154811061291957612918614b88565b5b9060005260206000209060040201905061293281613980565b612971576040517f08c379a0000000000000000000000000000000000000000000000000000000008152600401612968906155c9565b60405180910390fd5b60006008848154811061298757612986614b88565b5b9060005260206000209060040201905060006129a383836139a7565b9050600060644233896040516020016129be93929190615652565b6040516020818303038152906040528051906020012060001c6129e1919061568f565b9050818111612bc55783600301601081819054906101000a900461ffff1680929190612a0c906156c0565b91906101000a81548161ffff021916908361ffff1602179055505083600301600481819054906101000a900463ffffffff1680929190612a4b906156ea565b91906101000a81548163ffffffff021916908363ffffffff1602179055505082600301601281819054906101000a900461ffff1680929190612a8c906156c0565b91906101000a81548161ffff021916908361ffff16021790555050612ab084613ae3565b612ab983613ae3565b6000600760009054906101000a900460ff1660ff168560030160149054906101000a900460ff1660ff1603612b3357612b30856001015485600101546040518060400160405280600681526020017f7a6f6d6269650000000000000000000000000000000000000000000000000000815250613b89565b90505b84600301601481819054906101000a900460ff1680929190612b5490615716565b91906101000a81548160ff021916908360ff160217905550503373ffffffffffffffffffffffffffffffffffffffff167f750a7c18ca7f7bd87c6e50678ea7fa4f64d0cb733bb68cdac552d009737b4716898984604051612bb79392919061573f565b60405180910390a250612cab565b83600301601281819054906101000a900461ffff1680929190612be7906156c0565b91906101000a81548161ffff021916908361ffff1602179055505082600301601081819054906101000a900461ffff1680929190612c24906156c0565b91906101000a81548161ffff021916908361ffff16021790555050612c4884613ae3565b612c5183613ae3565b612c5a84613c79565b3373ffffffffffffffffffffffffffffffffffffffff167f4fa78061bb2783669831d2e2aa9ca18cb698e098923982bfada46ceaf1516d6a8888604051612ca2929190615776565b60405180910390a25b50505050505050565b60165481565b600080601860008481526020019081526020016000206040518060400160405290816000820160009054906101000a900473ffffffffffffffffffffffffffffffffffffffff1673ffffffffffffffffffffffffffffffffffffffff1673ffffffffffffffffffffffffffffffffffffffff1681526020016001820154815250509050600073ffffffffffffffffffffffffffffffffffffffff16816000015173ffffffffffffffffffffffffffffffffffffffff161415915050919050565b612d826123fe565b612d8b57600080fd5b612d9481613cac565b50565b612d9f6123fe565b612da857600080fd5b8060068190555050565b600083600a600082815260200190815260200160002060009054906101000a900473ffffffffffffffffffffffffffffffffffffffff1673ffffffffffffffffffffffffffffffffffffffff163373ffffffffffffffffffffffffffffffffffffffff1614612e2057600080fd5b600060088681548110612e3657612e35614b88565b5b90600052602060002090600402019050612e4f81613980565b612e8e576040517f08c379a0000000000000000000000000000000000000000000000000000000008152600401612e85906157eb565b60405180910390fd5b6000600760019054906101000a900460ff1660ff168260030160159054906101000a900460ff1660ff1603612ef157612ecc82600101548787613b89565b905060008260030160156101000a81548160ff021916908360ff160217905550612f2c565b81600301601581819054906101000a900460ff1680929190612f1290615716565b91906101000a81548160ff021916908360ff160217905550505b612f3582613da2565b8093505050509392505050565b606060006001612f5184613dd5565b01905060008167ffffffffffffffff811115612f7057612f6f614344565b5b6040519080825280601f01601f191660200182016040528015612fa25781602001600182028036833780820191505090505b509050600082602001820190505b600115613005578080600190039150507f3031323334353637383961626364656600000000000000000000000000000000600a86061a8153600a8581612ff957612ff8614db5565b5b04945060008503612fb0575b819350505050919050565b60606000600b60008473ffffffffffffffffffffffffffffffffffffffff1673ffffffffffffffffffffffffffffffffffffffff1681526020019081526020016000205467ffffffffffffffff81111561306d5761306c614344565b5b60405190808252806020026020018201604052801561309b5781602001602082028036833780820191505090505b5090506000805b600880549050811015613152578473ffffffffffffffffffffffffffffffffffffffff16600a600083815260200190815260200160002060009054906101000a900473ffffffffffffffffffffffffffffffffffffffff1673ffffffffffffffffffffffffffffffffffffffff1603613145578083838151811061312957613128614b88565b5b6020026020010181815250506001826131429190614d4b565b91505b80806001019150506130a2565b508192505050919050565b60606000600190505b82518110156132525760005b818110156132445783818151811061318d5761318c614b88565b5b6020026020010151604001518483815181106131ac576131ab614b88565b5b60200260200101516040015110156132375760008483815181106131d3576131d2614b88565b5b602002602001015190508482815181106131f0576131ef614b88565b5b602002602001015185848151811061320b5761320a614b88565b5b60200260200101819052508085838151811061322a57613229614b88565b5b6020026020010181905250505b8080600101915050613172565b508080600101915050613166565b50819050919050565b6001600b60008473ffffffffffffffffffffffffffffffffffffffff1673ffffffffffffffffffffffffffffffffffffffff168152602001908152602001600020546132a79190614d4b565b600b60008473ffffffffffffffffffffffffffffffffffffffff1673ffffffffffffffffffffffffffffffffffffffff168152602001908152602001600020819055506001600b60008573ffffffffffffffffffffffffffffffffffffffff1673ffffffffffffffffffffffffffffffffffffffff168152602001908152602001600020546133369190614e5d565b600b60008573ffffffffffffffffffffffffffffffffffffffff1673ffffffffffffffffffffffffffffffffffffffff1681526020019081526020016000208190555081600a600083815260200190815260200160002060006101000a81548173ffffffffffffffffffffffffffffffffffffffff021916908373ffffffffffffffffffffffffffffffffffffffff160217905550808273ffffffffffffffffffffffffffffffffffffffff168473ffffffffffffffffffffffffffffffffffffffff167fddf252ad1be2c89b69c2b068fc378daa952ba7f163c4a11628f55a4df523b3ef60405160405180910390a4505050565b60186000828152602001908152602001600020600080820160006101000a81549073ffffffffffffffffffffffffffffffffffffffff02191690556001820160009055505060005b60178054905081101561353157816017828154811061349557613494614b88565b5b90600052602060002001540361352457601760016017805490506134b99190614e5d565b815481106134ca576134c9614b88565b5b9060005260206000200154601782815481106134e9576134e8614b88565b5b906000526020600020018190555060178054806135095761350861580b565b5b60019003818190600052602060002001600090559055613531565b8080600101915050613473565b5050565b60006001600081548092919061354a90614e15565b919050555060008260015442336001436135649190614e5d565b40604051602001613579959493929190615865565b6040516020818303038152906040528051906020012060001c9050600354816135a2919061568f565b915050919050565b60008251116135ee576040517f08c379a00000000000000000000000000000000000000000000000000000000081526004016135e59061590c565b60405180910390fd5b808114613630576040517f08c379a000000000000000000000000000000000000000000000000000000000815260040161362790615978565b60405180910390fd5b60004290506000604051806101600160405280858152602001848152602001600081526020018363ffffffff168152602001600163ffffffff1681526020018363ffffffff1681526020018363ffffffff168152602001600061ffff168152602001600061ffff168152602001600060ff168152602001600060ff168152509050600881908060018154018082558091505060019003906000526020600020906004020160009091909190915060008201518160000190816136f2919061503d565b50602082015181600101556040820151816002015560608201518160030160006101000a81548163ffffffff021916908363ffffffff16021790555060808201518160030160046101000a81548163ffffffff021916908363ffffffff16021790555060a08201518160030160086101000a81548163ffffffff021916908363ffffffff16021790555060c082015181600301600c6101000a81548163ffffffff021916908363ffffffff16021790555060e08201518160030160106101000a81548161ffff021916908361ffff1602179055506101008201518160030160126101000a81548161ffff021916908361ffff1602179055506101208201518160030160146101000a81548160ff021916908360ff1602179055506101408201518160030160156101000a81548160ff021916908360ff1602179055505050600060016008805490506138449190614e5d565b905033600a600083815260200190815260200160002060006101000a81548173ffffffffffffffffffffffffffffffffffffffff021916908373ffffffffffffffffffffffffffffffffffffffff1602179055506001600b60003373ffffffffffffffffffffffffffffffffffffffff1673ffffffffffffffffffffffffffffffffffffffff168152602001908152602001600020546138e49190614d4b565b600b60003373ffffffffffffffffffffffffffffffffffffffff1673ffffffffffffffffffffffffffffffffffffffff168152602001908152602001600020819055503373ffffffffffffffffffffffffffffffffffffffff167ff92b1ba4cb9ae7683c3a3a1e58273b24013547531f590e32910f3105e8349e1f82878760405161397193929190615998565b60405180910390a25050505050565b60004282600301600c9054906101000a900463ffffffff1663ffffffff1611159050919050565b600080601254905060008360030160049054906101000a900463ffffffff168560030160049054906101000a900463ffffffff166139e591906159e3565b905060008160030b1315613a1857600281613a009190615a3f565b63ffffffff1682613a119190614d4b565b9150613a4f565b60008160030b1215613a4e57600281613a3090615a7c565b613a3a9190615a3f565b63ffffffff1682613a4b9190614e5d565b91505b5b600080613a5f8760010154613f28565b50915091506000613a738760010154613f28565b925050506000600a8284600287613a8a9190615ac4565b613a949190614d4b565b613a9e9190614e5d565b613aa89190614de4565b90508086613ab69190614d4b565b9550605a861115613ac657605a95505b601e861015613ad457601e95505b85965050505050505092915050565b600060038260030160129054906101000a900461ffff16613b049190615b06565b61ffff1660058360030160109054906101000a900461ffff16613b279190615b06565b61ffff16600a8460030160049054906101000a900463ffffffff16613b4c9190615a3f565b613b569190614cb3565b613b609190615b43565b9050600a8163ffffffff161015613b7657600a90505b8063ffffffff1682600201819055505050565b600060035483613b99919061568f565b9250600060028486613bab9190614d4b565b613bb59190614de4565b9050604051602001613bc690615bc7565b6040516020818303038152906040528051906020012083604051602001613bed9190615bdc565b6040516020818303038152906040528051906020012003613c2f576063606482613c17919061568f565b82613c229190614e5d565b613c2c9190614d4b565b90505b613c6e6040518060400160405280600681526020017f4e6f4e616d650000000000000000000000000000000000000000000000000000815250826135aa565b809150509392505050565b60055442613c879190614d4b565b8160030160086101000a81548163ffffffff021916908363ffffffff16021790555050565b600073ffffffffffffffffffffffffffffffffffffffff168173ffffffffffffffffffffffffffffffffffffffff1603613ce557600080fd5b8073ffffffffffffffffffffffffffffffffffffffff1660008054906101000a900473ffffffffffffffffffffffffffffffffffffffff1673ffffffffffffffffffffffffffffffffffffffff167f8be0079c531659141344cd1fd0a4f28419497f9722a3daafe3b4186f6b6457e060405160405180910390a3806000806101000a81548173ffffffffffffffffffffffffffffffffffffffff021916908373ffffffffffffffffffffffffffffffffffffffff16021790555050565b60065442613db09190614d4b565b81600301600c6101000a81548163ffffffff021916908363ffffffff16021790555050565b600080600090507a184f03e93ff9f4daa797ed6e38ed64bf6a1f0100000000000000008310613e33577a184f03e93ff9f4daa797ed6e38ed64bf6a1f0100000000000000008381613e2957613e28614db5565b5b0492506040810190505b6d04ee2d6d415b85acef81000000008310613e70576d04ee2d6d415b85acef81000000008381613e6657613e65614db5565b5b0492506020810190505b662386f26fc100008310613e9f57662386f26fc100008381613e9557613e94614db5565b5b0492506010810190505b6305f5e1008310613ec8576305f5e1008381613ebe57613ebd614db5565b5b0492506008810190505b6127108310613eed576127108381613ee357613ee2614db5565b5b0492506004810190505b60648310613f105760648381613f0657613f05614db5565b5b0492506002810190505b600a8310613f1f576001810190505b80915050919050565b600080600080603285613f3b919061568f565b6032613f479190614d4b565b905060006032606487613f5a9190614de4565b613f64919061568f565b6032613f709190614d4b565b90506000603261271088613f849190614de4565b613f8e919061568f565b6032613f9a9190614d4b565b90508282829550955095505050509193909250565b6040518060c00160405280600073ffffffffffffffffffffffffffffffffffffffff168152602001600081526020016000815260200160008152602001600061ffff168152602001600061ffff1681525090565b6040518060600160405280600073ffffffffffffffffffffffffffffffffffffffff16815260200160008152602001600081525090565b6000604051905090565b600080fd5b600080fd5b6000819050919050565b6140618161404e565b811461406c57600080fd5b50565b60008135905061407e81614058565b92915050565b60008060006060848603121561409d5761409c614044565b5b60006140ab8682870161406f565b93505060206140bc8682870161406f565b92505060406140cd8682870161406f565b9150509250925092565b600073ffffffffffffffffffffffffffffffffffffffff82169050919050565b6000614102826140d7565b9050919050565b614112816140f7565b811461411d57600080fd5b50565b60008135905061412f81614109565b92915050565b6000806040838503121561414c5761414b614044565b5b600061415a85828601614120565b925050602061416b8582860161406f565b9150509250929050565b60006020828403121561418b5761418a614044565b5b60006141998482850161406f565b91505092915050565b600081519050919050565b600082825260208201905092915050565b6000819050602082019050919050565b6141d7816140f7565b82525050565b6141e68161404e565b82525050565b600061ffff82169050919050565b614203816141ec565b82525050565b60c08201600082015161421f60008501826141ce565b50602082015161423260208501826141dd565b50604082015161424560408501826141dd565b50606082015161425860608501826141dd565b50608082015161426b60808501826141fa565b5060a082015161427e60a08501826141fa565b50505050565b60006142908383614209565b60c08301905092915050565b6000602082019050919050565b60006142b4826141a2565b6142be81856141ad565b93506142c9836141be565b8060005b838110156142fa5781516142e18882614284565b97506142ec8361429c565b9250506001810190506142cd565b5085935050505092915050565b6000602082019050818103600083015261432181846142a9565b905092915050565b600080fd5b600080fd5b6000601f19601f8301169050919050565b7f4e487b7100000000000000000000000000000000000000000000000000000000600052604160045260246000fd5b61437c82614333565b810181811067ffffffffffffffff8211171561439b5761439a614344565b5b80604052505050565b60006143ae61403a565b90506143ba8282614373565b919050565b600067ffffffffffffffff8211156143da576143d9614344565b5b6143e382614333565b9050602081019050919050565b82818337600083830152505050565b600061441261440d846143bf565b6143a4565b90508281526020810184848401111561442e5761442d61432e565b5b6144398482856143f0565b509392505050565b600082601f83011261445657614455614329565b5b81356144668482602086016143ff565b91505092915050565b60006020828403121561448557614484614044565b5b600082013567ffffffffffffffff8111156144a3576144a2614049565b5b6144af84828501614441565b91505092915050565b600081519050919050565b600082825260208201905092915050565b60005b838110156144f25780820151818401526020810190506144d7565b60008484015250505050565b6000614509826144b8565b61451381856144c3565b93506145238185602086016144d4565b61452c81614333565b840191505092915050565b6145408161404e565b82525050565b600063ffffffff82169050919050565b61455f81614546565b82525050565b61456e816141ec565b82525050565b600060ff82169050919050565b61458a81614574565b82525050565b60006101608201905081810360008301526145ab818e6144fe565b90506145ba602083018d614537565b6145c7604083018c614537565b6145d4606083018b614556565b6145e1608083018a614556565b6145ee60a0830189614556565b6145fb60c0830188614556565b61460860e0830187614565565b614616610100830186614565565b614624610120830185614581565b614632610140830184614581565b9c9b505050505050505050505050565b60008060006060848603121561465b5761465a614044565b5b600061466986828701614120565b935050602061467a86828701614120565b925050604061468b8682870161406f565b9150509250925092565b6000602082840312156146ab576146aa614044565b5b60006146b984828501614120565b91505092915050565b600081519050919050565b600082825260208201905092915050565b6000819050602082019050919050565b60006146fa83836141dd565b60208301905092915050565b6000602082019050919050565b600061471e826146c2565b61472881856146cd565b9350614733836146de565b8060005b8381101561476457815161474b88826146ee565b975061475683614706565b925050600181019050614737565b5085935050505092915050565b6000602082019050818103600083015261478b8184614713565b905092915050565b600061479e826140d7565b9050919050565b6147ae81614793565b82525050565b60006040820190506147c960008301856147a5565b6147d66020830184614537565b9392505050565b60006020820190506147f26000830184614537565b92915050565b600060208201905061480d6000830184614581565b92915050565b61481c816140f7565b82525050565b60006020820190506148376000830184614813565b92915050565b6000602082019050818103600083015261485781846144fe565b905092915050565b6000806040838503121561487657614875614044565b5b60006148848582860161406f565b92505060206148958582860161406f565b9150509250929050565b600081519050919050565b600082825260208201905092915050565b6000819050602082019050919050565b6148d481614793565b82525050565b6060820160008201516148f060008501826148cb565b50602082015161490360208501826141dd565b50604082015161491660408501826141dd565b50505050565b600061492883836148da565b60608301905092915050565b6000602082019050919050565b600061494c8261489f565b61495681856148aa565b9350614961836148bb565b8060005b83811015614992578151614979888261491c565b975061498483614934565b925050600181019050614965565b5085935050505092915050565b600060208201905081810360008301526149b98184614941565b905092915050565b600081519050919050565b600082825260208201905092915050565b6000819050602082019050919050565b60006149f983836141ce565b60208301905092915050565b6000602082019050919050565b6000614a1d826149c1565b614a2781856149cc565b9350614a32836149dd565b8060005b83811015614a63578151614a4a88826149ed565b9750614a5583614a05565b925050600181019050614a36565b5085935050505092915050565b60006020820190508181036000830152614a8a8184614a12565b905092915050565b60008115159050919050565b614aa781614a92565b82525050565b6000602082019050614ac26000830184614a9e565b92915050565b600080fd5b600080fd5b60008083601f840112614ae857614ae7614329565b5b8235905067ffffffffffffffff811115614b0557614b04614ac8565b5b602083019150836001820283011115614b2157614b20614acd565b5b9250929050565b600080600060408486031215614b4157614b40614044565b5b6000614b4f8682870161406f565b935050602084013567ffffffffffffffff811115614b7057614b6f614049565b5b614b7c86828701614ad2565b92509250509250925092565b7f4e487b7100000000000000000000000000000000000000000000000000000000600052603260045260246000fd5b6000608082019050614bcc6000830187614537565b614bd96020830186614537565b614be66040830185614537565b614bf36060830184614537565b95945050505050565b7f5072696365206d696e696d756d20697320000000000000000000000000000000815250565b600081905092915050565b6000614c38826144b8565b614c428185614c22565b9350614c528185602086016144d4565b80840191505092915050565b6000614c6982614bfc565b601182019150614c798284614c2d565b915081905092915050565b7f4e487b7100000000000000000000000000000000000000000000000000000000600052601160045260246000fd5b6000614cbe82614546565b9150614cc983614546565b9250828201905063ffffffff811115614ce557614ce4614c84565b5b92915050565b7f4e487b7100000000000000000000000000000000000000000000000000000000600052602260045260246000fd5b60006002820490506001821680614d3257607f821691505b602082108103614d4557614d44614ceb565b5b50919050565b6000614d568261404e565b9150614d618361404e565b9250828201905080821115614d7957614d78614c84565b5b92915050565b6000614d8a826141ec565b9150614d95836141ec565b9250828201905061ffff811115614daf57614dae614c84565b5b92915050565b7f4e487b7100000000000000000000000000000000000000000000000000000000600052601260045260246000fd5b6000614def8261404e565b9150614dfa8361404e565b925082614e0a57614e09614db5565b5b828204905092915050565b6000614e208261404e565b91507fffffffffffffffffffffffffffffffffffffffffffffffffffffffffffffffff8203614e5257614e51614c84565b5b600182019050919050565b6000614e688261404e565b9150614e738361404e565b9250828203905081811115614e8b57614e8a614c84565b5b92915050565b60008190508160005260206000209050919050565b60006020601f8301049050919050565b600082821b905092915050565b600060088302614ef37fffffffffffffffffffffffffffffffffffffffffffffffffffffffffffffffff82614eb6565b614efd8683614eb6565b95508019841693508086168417925050509392505050565b6000819050919050565b6000614f3a614f35614f308461404e565b614f15565b61404e565b9050919050565b6000819050919050565b614f5483614f1f565b614f68614f6082614f41565b848454614ec3565b825550505050565b600090565b614f7d614f70565b614f88818484614f4b565b505050565b5b81811015614fac57614fa1600082614f75565b600181019050614f8e565b5050565b601f821115614ff157614fc281614e91565b614fcb84614ea6565b81016020851015614fda578190505b614fee614fe685614ea6565b830182614f8d565b50505b505050565b600082821c905092915050565b600061501460001984600802614ff6565b1980831691505092915050565b600061502d8383615003565b9150826002028217905092915050565b615046826144b8565b67ffffffffffffffff81111561505f5761505e614344565b5b6150698254614d1a565b615074828285614fb0565b600060209050601f8311600181146150a75760008415615095578287015190505b61509f8582615021565b865550615107565b601f1984166150b586614e91565b60005b828110156150dd578489015182556001820191506020850194506020810190506150b8565b868310156150fa57848901516150f6601f891682615003565b8355505b6001600288020188555050505b505050505050565b7f5a6f6d62696520617265206e6f74206f6e2073616c6500000000000000000000600082015250565b60006151456016836144c3565b91506151508261510f565b602082019050919050565b6000602082019050818103600083015261517481615138565b9050919050565b7f43616e2774206275792c20796f7520617265207468652073656c6c6572000000600082015250565b60006151b1601d836144c3565b91506151bc8261517b565b602082019050919050565b600060208201905081810360008301526151e0816151a4565b9050919050565b7f596f757220707269636520697320746f6f206c6f770000000000000000000000600082015250565b600061521d6015836144c3565b9150615228826151e7565b602082019050919050565b6000602082019050818103600083015261524c81615210565b9050919050565b7f596f7520617265206e6f74206f776e6572206f7220617070726f7665642e0000600082015250565b6000615289601e836144c3565b915061529482615253565b602082019050919050565b600060208201905081810360008301526152b88161527c565b9050919050565b7f4c6576656c206d696e696d756d20697320000000000000000000000000000000815250565b60006152f0826152bf565b6011820191506153008284614c2d565b915081905092915050565b7f596f752063616e206f6e6c7920637265617465206f6e65207a6f6d626965207060008201527f6572206163636f756e7400000000000000000000000000000000000000000000602082015250565b6000615367602a836144c3565b91506153728261530b565b604082019050919050565b600060208201905081810360008301526153968161535a565b9050919050565b600082905092915050565b6153b2838361539d565b67ffffffffffffffff8111156153cb576153ca614344565b5b6153d58254614d1a565b6153e0828285614fb0565b6000601f83116001811461540f57600084156153fd578287013590505b6154078582615021565b86555061546f565b601f19841661541d86614e91565b60005b8281101561544557848901358255600182019150602085019450602081019050615420565b86831015615462578489013561545e601f891682615003565b8355505b6001600288020188555050505b50505050505050565b6000815461548581614d1a565b61548f8186614c22565b945060018216600081146154aa57600181146154bf576154f2565b60ff19831686528115158202860193506154f2565b6154c885614e91565b60005b838110156154ea578154818901526001820191506020810190506154cb565b838801955050505b50505092915050565b7f2f00000000000000000000000000000000000000000000000000000000000000815250565b600061552d8287615478565b91506155398286614c2d565b9150615544826154fb565b6001820191506155548285615478565b915061555f826154fb565b60018201915061556f8284614c2d565b915081905095945050505050565b7f5a6f6d626965206973206e6f7420726561647920746f2061747461636b000000600082015250565b60006155b3601d836144c3565b91506155be8261557d565b602082019050919050565b600060208201905081810360008301526155e2816155a6565b9050919050565b6000819050919050565b6156046155ff8261404e565b6155e9565b82525050565b60008160601b9050919050565b60006156228261560a565b9050919050565b600061563482615617565b9050919050565b61564c615647826140f7565b615629565b82525050565b600061565e82866155f3565b60208201915061566e828561563b565b60148201915061567e82846155f3565b602082019150819050949350505050565b600061569a8261404e565b91506156a58361404e565b9250826156b5576156b4614db5565b5b828206905092915050565b60006156cb826141ec565b915061ffff82036156df576156de614c84565b5b600182019050919050565b60006156f582614546565b915063ffffffff820361570b5761570a614c84565b5b600182019050919050565b600061572182614574565b915060ff820361573457615733614c84565b5b600182019050919050565b60006060820190506157546000830186614537565b6157616020830185614537565b61576e6040830184614537565b949350505050565b600060408201905061578b6000830185614537565b6157986020830184614537565b9392505050565b7f5a6f6d626965206973206e6f7420726561647920746f20666565640000000000600082015250565b60006157d5601b836144c3565b91506157e08261579f565b602082019050919050565b60006020820190508181036000830152615804816157c8565b9050919050565b7f4e487b7100000000000000000000000000000000000000000000000000000000600052603160045260246000fd5b6000819050919050565b6000819050919050565b61585f61585a8261583a565b615844565b82525050565b60006158718288614c2d565b915061587d82876155f3565b60208201915061588d82866155f3565b60208201915061589d828561563b565b6014820191506158ad828461584e565b6020820191508190509695505050505050565b7f4e616d652063616e6e6f74206265206c65667420656d70747900000000000000600082015250565b60006158f66019836144c3565b9150615901826158c0565b602082019050919050565b60006020820190508181036000830152615925816158e9565b9050919050565b7f444e41206d75737420626520616e20696e746567657200000000000000000000600082015250565b60006159626016836144c3565b915061596d8261592c565b602082019050919050565b6000602082019050818103600083015261599181615955565b9050919050565b60006060820190506159ad6000830186614537565b81810360208301526159bf81856144fe565b90506159ce6040830184614537565b949350505050565b60008160030b9050919050565b60006159ee826159d6565b91506159f9836159d6565b92508282039050637fffffff81137fffffffffffffffffffffffffffffffffffffffffffffffffffffffff8000000082121715615a3957615a38614c84565b5b92915050565b6000615a4a82614546565b9150615a5583614546565b9250828202615a6381614546565b9150808214615a7557615a74614c84565b5b5092915050565b6000615a87826159d6565b91507fffffffffffffffffffffffffffffffffffffffffffffffffffffffff800000008203615ab957615ab8614c84565b5b816000039050919050565b6000615acf8261404e565b9150615ada8361404e565b9250828202615ae88161404e565b91508282048414831517615aff57615afe614c84565b5b5092915050565b6000615b11826141ec565b9150615b1c836141ec565b9250828202615b2a816141ec565b9150808214615b3c57615b3b614c84565b5b5092915050565b6000615b4e82614546565b9150615b5983614546565b9250828203905063ffffffff811115615b7557615b74614c84565b5b92915050565b7f6b69747479000000000000000000000000000000000000000000000000000000600082015250565b6000615bb1600583614c22565b9150615bbc82615b7b565b600582019050919050565b6000615bd282615ba4565b9150819050919050565b6000615be88284614c2d565b91508190509291505056fea2646970667358221220614887c97f938d2db032fa3d25119e704546b53b0f4e863c6d0d6176c4ceb52c64736f6c634300081c0033687474703a2f2f6c6f63616c686f73743a333333332f7a6f6d6269652f7572692f",
  "linkReferences": {},
  "deployedLinkReferences": {}
}