{
  "_format": "hh-sol-artifact-1",
  "contractName": "CryptoZombies",
  "sourceName": "contracts/CryptoZombies.sol",
  "abi": [
    {
      "anonymous": false,
      "inputs": [
        {
          "indexed": true,
          "internalType": "address",
          "name": "_owner",
          "type": "address"
        },
        {
          "indexed": true,
          "internalType": "address",
          "name": "_approved",
          "type": "address"
        },
        {
          "indexed": true,
          "internalType": "uint256",
          "name": "_tokenId",
          "type": "uint256"
        }
      ],
      "name": "Approval",
      "type": "event"
    },
    {
      "anonymous": false,
      "inputs": [
        {
          "indexed": true,
          "internalType": "uint256",
          "name": "zombieId",
          "type": "uint256"
        },
        {
          "indexed": true,
          "internalType": "address",
          "name": "buyer",
          "type": "address"
        },
        {
          "indexed": true,
          "internalType": "address",
          "name": "seller",
          "type": "address"
        }
      ],
      "name": "BuyShopZombie",
      "type": "event"
    },
    {
      "anonymous": false,
      "inputs": [
        {
          "indexed": true,
          "internalType": "address",
          "name": "from",
          "type": "address"
        },
        {
          "indexed": false,
          "internalType": "uint256",
          "name": "zombieId",
          "type": "uint256"
        },
        {
          "indexed": false,
          "internalType": "string",
          "name": "name",
          "type": "string"
        },
        {
          "indexed": false,
          "internalType": "uint256",
          "name": "dna",
          "type": "uint256"
        }
      ],
      "name": "NewZombie",
      "type": "event"
    },
    {
      "anonymous": false,
      "inputs": [
        {
          "indexed": true,
          "internalType": "address",
          "name": "previousOwner",
          "type": "address"
        },
        {
          "indexed": true,
          "internalType": "address",
          "name": "newOwner",
          "type": "address"
        }
      ],
      "name": "OwnershipTransferred",
      "type": "event"
    },
    {
      "anonymous": false,
      "inputs": [
        {
          "indexed": true,
          "internalType": "uint256",
          "name": "zombieId",
          "type": "uint256"
        },
        {
          "indexed": true,
          "internalType": "uint256",
          "name": "price",
          "type": "uint256"
        }
      ],
      "name": "SaleZombie",
      "type": "event"
    },
    {
      "anonymous": false,
      "inputs": [
        {
          "indexed": true,
          "internalType": "address",
          "name": "_from",
          "type": "address"
        },
        {
          "indexed": true,
          "internalType": "address",
          "name": "_to",
          "type": "address"
        },
        {
          "indexed": true,
          "internalType": "uint256",
          "name": "_tokenId",
          "type": "uint256"
        }
      ],
      "name": "Transfer",
      "type": "event"
    },
    {
      "anonymous": false,
      "inputs": [
        {
          "indexed": true,
          "internalType": "address",
          "name": "from",
          "type": "address"
        },
        {
          "indexed": false,
          "internalType": "uint256",
          "name": "fromId",
          "type": "uint256"
        },
        {
          "indexed": false,
          "internalType": "uint256",
          "name": "targetId",
          "type": "uint256"
        }
      ],
      "name": "onAttackDefeat",
      "type": "event"
    },
    {
      "anonymous": false,
      "inputs": [
        {
          "indexed": true,
          "internalType": "address",
          "name": "from",
          "type": "address"
        },
        {
          "indexed": false,
          "internalType": "uint256",
          "name": "fromId",
          "type": "uint256"
        },
        {
          "indexed": false,
          "internalType": "uint256",
          "name": "targetId",
          "type": "uint256"
        },
        {
          "indexed": false,
          "internalType": "uint256",
          "name": "newDna",
          "type": "uint256"
        }
      ],
      "name": "onAttackVitory",
      "type": "event"
    },
    {
      "anonymous": false,
      "inputs": [
        {
          "indexed": true,
          "internalType": "address",
          "name": "from",
          "type": "address"
        },
        {
          "indexed": false,
          "internalType": "uint256",
          "name": "fromDna",
          "type": "uint256"
        },
        {
          "indexed": false,
          "internalType": "uint256",
          "name": "targetDna",
          "type": "uint256"
        },
        {
          "indexed": false,
          "internalType": "uint256",
          "name": "_kittyId",
          "type": "uint256"
        },
        {
          "indexed": false,
          "internalType": "uint256",
          "name": "newDna",
          "type": "uint256"
        }
      ],
      "name": "onFeed",
      "type": "event"
    },
    {
      "inputs": [
        {
          "internalType": "address",
          "name": "_approved",
          "type": "address"
        },
        {
          "internalType": "uint256",
          "name": "_tokenId",
          "type": "uint256"
        }
      ],
      "name": "approve",
      "outputs": [],
      "stateMutability": "payable",
      "type": "function"
    },
    {
      "inputs": [
        {
          "internalType": "uint256",
          "name": "_zombieId",
          "type": "uint256"
        },
        {
          "internalType": "uint256",
          "name": "_targetId",
          "type": "uint256"
        }
      ],
      "name": "attack",
      "outputs": [],
      "stateMutability": "nonpayable",
      "type": "function"
    },
    {
      "inputs": [],
      "name": "balance",
      "outputs": [
        {
          "internalType": "uint256",
          "name": "",
          "type": "uint256"
        }
      ],
      "stateMutability": "view",
      "type": "function"
    },
    {
      "inputs": [
        {
          "internalType": "address",
          "name": "_owner",
          "type": "address"
        }
      ],
      "name": "balanceOf",
      "outputs": [
        {
          "internalType": "uint256",
          "name": "",
          "type": "uint256"
        }
      ],
      "stateMutability": "view",
      "type": "function"
    },
    {
      "inputs": [],
      "name": "baseUrlTokenURI",
      "outputs": [
        {
          "internalType": "string",
          "name": "",
          "type": "string"
        }
      ],
      "stateMutability": "view",
      "type": "function"
    },
    {
      "inputs": [
        {
          "internalType": "uint256",
          "name": "zombieId",
          "type": "uint256"
        }
      ],
      "name": "buyShopZombie",
      "outputs": [],
      "stateMutability": "payable",
      "type": "function"
    },
    {
      "inputs": [],
      "name": "changeDNAFee",
      "outputs": [
        {
          "internalType": "uint256",
          "name": "",
          "type": "uint256"
        }
      ],
      "stateMutability": "view",
      "type": "function"
    },
    {
      "inputs": [
        {
          "internalType": "uint256",
          "name": "_zombieId",
          "type": "uint256"
        },
        {
          "internalType": "uint256",
          "name": "_newDna",
          "type": "uint256"
        }
      ],
      "name": "changeDna",
      "outputs": [],
      "stateMutability": "payable",
      "type": "function"
    },
    {
      "inputs": [
        {
          "internalType": "uint256",
          "name": "_zombieId",
          "type": "uint256"
        },
        {
          "internalType": "string",
          "name": "_newName",
          "type": "string"
        }
      ],
      "name": "changeName",
      "outputs": [],
      "stateMutability": "payable",
      "type": "function"
    },
    {
      "inputs": [],
      "name": "changeNameFee",
      "outputs": [
        {
          "internalType": "uint256",
          "name": "",
          "type": "uint256"
        }
      ],
      "stateMutability": "view",
      "type": "function"
    },
    {
      "inputs": [],
      "name": "cooldownTime",
      "outputs": [
        {
          "internalType": "uint256",
          "name": "",
          "type": "uint256"
        }
      ],
      "stateMutability": "view",
      "type": "function"
    },
    {
      "inputs": [
        {
          "internalType": "string",
          "name": "_name",
          "type": "string"
        }
      ],
      "name": "createRandomZombie",
      "outputs": [],
      "stateMutability": "nonpayable",
      "type": "function"
    },
    {
      "inputs": [
        {
          "internalType": "uint256",
          "name": "_zombieId",
          "type": "uint256"
        },
        {
          "internalType": "uint256",
          "name": "_kittyDna",
          "type": "uint256"
        },
        {
          "internalType": "uint256",
          "name": "_kittyId",
          "type": "uint256"
        }
      ],
      "name": "feedOnKitty",
      "outputs": [],
      "stateMutability": "nonpayable",
      "type": "function"
    },
    {
      "inputs": [],
      "name": "getAccounts",
      "outputs": [
        {
          "internalType": "address[]",
          "name": "",
          "type": "address[]"
        }
      ],
      "stateMutability": "view",
      "type": "function"
    },
    {
      "inputs": [],
      "name": "getAllZombiesInShop",
      "outputs": [
        {
          "components": [
            {
              "internalType": "address payable",
              "name": "seller",
              "type": "address"
            },
            {
              "internalType": "uint256",
              "name": "zombieId",
              "type": "uint256"
            },
            {
              "internalType": "uint256",
              "name": "price",
              "type": "uint256"
            }
          ],
          "internalType": "struct ZombieMarket.ZombieSale[]",
          "name": "",
          "type": "tuple[]"
        }
      ],
      "stateMutability": "view",
      "type": "function"
    },
    {
      "inputs": [],
      "name": "getRanking",
      "outputs": [
        {
          "components": [
            {
              "internalType": "address",
              "name": "account",
              "type": "address"
            },
            {
              "internalType": "uint256",
              "name": "position",
              "type": "uint256"
            },
            {
              "internalType": "uint256",
              "name": "score",
              "type": "uint256"
            },
            {
              "internalType": "uint256",
              "name": "zombieCount",
              "type": "uint256"
            },
            {
              "internalType": "uint16",
              "name": "winCount",
              "type": "uint16"
            },
            {
              "internalType": "uint16",
              "name": "lossCount",
              "type": "uint16"
            }
          ],
          "internalType": "struct ZombieRanking.Ranking[]",
          "name": "",
          "type": "tuple[]"
        }
      ],
      "stateMutability": "view",
      "type": "function"
    },
    {
      "inputs": [
        {
          "internalType": "uint256",
          "name": "_zombieId",
          "type": "uint256"
        }
      ],
      "name": "getZombieInShop",
      "outputs": [
        {
          "components": [
            {
              "internalType": "address payable",
              "name": "seller",
              "type": "address"
            },
            {
              "internalType": "uint256",
              "name": "price",
              "type": "uint256"
            }
          ],
          "internalType": "struct ZombieMarket.ZombieSales",
          "name": "",
          "type": "tuple"
        }
      ],
      "stateMutability": "view",
      "type": "function"
    },
    {
      "inputs": [
        {
          "internalType": "address",
          "name": "_owner",
          "type": "address"
        }
      ],
      "name": "getZombiesByOwner",
      "outputs": [
        {
          "internalType": "uint256[]",
          "name": "",
          "type": "uint256[]"
        }
      ],
      "stateMutability": "view",
      "type": "function"
    },
    {
      "inputs": [],
      "name": "isOwner",
      "outputs": [
        {
          "internalType": "bool",
          "name": "",
          "type": "bool"
        }
      ],
      "stateMutability": "view",
      "type": "function"
    },
    {
      "inputs": [
        {
          "internalType": "uint256",
          "name": "_zombieId",
          "type": "uint256"
        }
      ],
      "name": "levelUp",
      "outputs": [],
      "stateMutability": "payable",
      "type": "function"
    },
    {
      "inputs": [],
      "name": "levelUpFee",
      "outputs": [
        {
          "internalType": "uint256",
          "name": "",
          "type": "uint256"
        }
      ],
      "stateMutability": "view",
      "type": "function"
    },
    {
      "inputs": [],
      "name": "minPrice",
      "outputs": [
        {
          "internalType": "uint256",
          "name": "",
          "type": "uint256"
        }
      ],
      "stateMutability": "view",
      "type": "function"
    },
    {
      "inputs": [],
      "name": "owner",
      "outputs": [
        {
          "internalType": "address",
          "name": "",
          "type": "address"
        }
      ],
      "stateMutability": "view",
      "type": "function"
    },
    {
      "inputs": [
        {
          "internalType": "uint256",
          "name": "_tokenId",
          "type": "uint256"
        }
      ],
      "name": "ownerOf",
      "outputs": [
        {
          "internalType": "address",
          "name": "",
          "type": "address"
        }
      ],
      "stateMutability": "view",
      "type": "function"
    },
    {
      "inputs": [],
      "name": "renounceOwnership",
      "outputs": [],
      "stateMutability": "nonpayable",
      "type": "function"
    },
    {
      "inputs": [
        {
          "internalType": "uint256",
          "name": "zombieId",
          "type": "uint256"
        },
        {
          "internalType": "uint256",
          "name": "price",
          "type": "uint256"
        }
      ],
      "name": "saleMyZombie",
      "outputs": [],
      "stateMutability": "nonpayable",
      "type": "function"
    },
    {
      "inputs": [
        {
          "internalType": "string",
          "name": "_baseUrlTokenURI",
          "type": "string"
        }
      ],
      "name": "setBaseUrlTokenURI",
      "outputs": [],
      "stateMutability": "nonpayable",
      "type": "function"
    },
    {
      "inputs": [
        {
          "internalType": "uint256",
          "name": "_fee",
          "type": "uint256"
        }
      ],
      "name": "setChangeDNAFee",
      "outputs": [],
      "stateMutability": "nonpayable",
      "type": "function"
    },
    {
      "inputs": [
        {
          "internalType": "uint256",
          "name": "_fee",
          "type": "uint256"
        }
      ],
      "name": "setChangeNameFee",
      "outputs": [],
      "stateMutability": "nonpayable",
      "type": "function"
    },
    {
      "inputs": [
        {
          "internalType": "uint256",
          "name": "_cooldownTime",
          "type": "uint256"
        }
      ],
      "name": "setCooldownTime",
      "outputs": [],
      "stateMutability": "nonpayable",
      "type": "function"
    },
    {
      "inputs": [
        {
          "internalType": "address",
          "name": "_address",
          "type": "address"
        }
      ],
      "name": "setKittyContractAddress",
      "outputs": [],
      "stateMutability": "nonpayable",
      "type": "function"
    },
    {
      "inputs": [
        {
          "internalType": "uint256",
          "name": "_fee",
          "type": "uint256"
        }
      ],
      "name": "setLevelUpFee",
      "outputs": [],
      "stateMutability": "nonpayable",
      "type": "function"
    },
    {
      "inputs": [
        {
          "internalType": "uint256",
          "name": "value",
          "type": "uint256"
        }
      ],
      "name": "setMinPrice",
      "outputs": [],
      "stateMutability": "nonpayable",
      "type": "function"
    },
    {
      "inputs": [
        {
          "internalType": "uint256",
          "name": "value",
          "type": "uint256"
        }
      ],
      "name": "setTax",
      "outputs": [],
      "stateMutability": "nonpayable",
      "type": "function"
    },
    {
      "inputs": [],
      "name": "tax",
      "outputs": [
        {
          "internalType": "uint256",
          "name": "",
          "type": "uint256"
        }
      ],
      "stateMutability": "view",
      "type": "function"
    },
    {
      "inputs": [
        {
          "internalType": "uint256",
          "name": "_tokenId",
          "type": "uint256"
        }
      ],
      "name": "tokenURI",
      "outputs": [
        {
          "internalType": "string",
          "name": "",
          "type": "string"
        }
      ],
      "stateMutability": "view",
      "type": "function"
    },
    {
      "inputs": [
        {
          "internalType": "address",
          "name": "_from",
          "type": "address"
        },
        {
          "internalType": "address",
          "name": "_to",
          "type": "address"
        },
        {
          "internalType": "uint256",
          "name": "_tokenId",
          "type": "uint256"
        }
      ],
      "name": "transferFrom",
      "outputs": [],
      "stateMutability": "payable",
      "type": "function"
    },
    {
      "inputs": [
        {
          "internalType": "address",
          "name": "newOwner",
          "type": "address"
        }
      ],
      "name": "transferOwnership",
      "outputs": [],
      "stateMutability": "nonpayable",
      "type": "function"
    },
    {
      "inputs": [],
      "name": "withdraw",
      "outputs": [],
      "stateMutability": "nonpayable",
      "type": "function"
    },
    {
      "inputs": [
        {
          "internalType": "uint256",
          "name": "",
          "type": "uint256"
        }
      ],
      "name": "zombieShop",
      "outputs": [
        {
          "internalType": "address payable",
          "name": "seller",
          "type": "address"
        },
        {
          "internalType": "uint256",
          "name": "price",
          "type": "uint256"
        }
      ],
      "stateMutability": "view",
      "type": "function"
    },
    {
      "inputs": [
        {
          "internalType": "uint256",
          "name": "",
          "type": "uint256"
        }
      ],
      "name": "zombieShopKeys",
      "outputs": [
        {
          "internalType": "uint256",
          "name": "",
          "type": "uint256"
        }
      ],
      "stateMutability": "view",
      "type": "function"
    },
    {
      "inputs": [
        {
          "internalType": "uint256",
          "name": "",
          "type": "uint256"
        }
      ],
      "name": "zombieToOwner",
      "outputs": [
        {
          "internalType": "address",
          "name": "",
          "type": "address"
        }
      ],
      "stateMutability": "view",
      "type": "function"
    },
    {
      "inputs": [
        {
          "internalType": "uint256",
          "name": "",
          "type": "uint256"
        }
      ],
      "name": "zombies",
      "outputs": [
        {
          "internalType": "string",
          "name": "name",
          "type": "string"
        },
        {
          "internalType": "uint256",
          "name": "dna",
          "type": "uint256"
        },
        {
          "internalType": "uint256",
          "name": "score",
          "type": "uint256"
        },
        {
          "internalType": "uint32",
          "name": "level",
          "type": "uint32"
        },
        {
          "internalType": "uint32",
          "name": "readyTime",
          "type": "uint32"
        },
        {
          "internalType": "uint16",
          "name": "winCount",
          "type": "uint16"
        },
        {
          "internalType": "uint16",
          "name": "lossCount",
          "type": "uint16"
        }
      ],
      "stateMutability": "view",
      "type": "function"
    }
  ],
  "bytecode": "0x60806040526010600155600154600a61001891906102c0565b600255603c60035566038d7ea4c6800060095566071afd498d0000600a55660e35fa931a0000600b556000600c556032600d556040518060600160405280602181526020016158fd60219139600e90816100729190610551565b50655af3107a4000601055655af3107a400060115534801561009357600080fd5b50336000806101000a81548173ffffffffffffffffffffffffffffffffffffffff021916908373ffffffffffffffffffffffffffffffffffffffff16021790555060008054906101000a900473ffffffffffffffffffffffffffffffffffffffff1673ffffffffffffffffffffffffffffffffffffffff16600073ffffffffffffffffffffffffffffffffffffffff167f8be0079c531659141344cd1fd0a4f28419497f9722a3daafe3b4186f6b6457e060405160405180910390a3610623565b7f4e487b7100000000000000000000000000000000000000000000000000000000600052601160045260246000fd5b60008160011c9050919050565b6000808291508390505b60018511156101da578086048111156101b6576101b5610154565b5b60018516156101c55780820291505b80810290506101d385610183565b945061019a565b94509492505050565b6000826101f357600190506102af565b8161020157600090506102af565b8160018114610217576002811461022157610250565b60019150506102af565b60ff84111561023357610232610154565b5b8360020a91508482111561024a57610249610154565b5b506102af565b5060208310610133831016604e8410600b84101617156102855782820a9050838111156102805761027f610154565b5b6102af565b6102928484846001610190565b925090508184048111156102a9576102a8610154565b5b81810290505b9392505050565b6000819050919050565b60006102cb826102b6565b91506102d6836102b6565b92506103037fffffffffffffffffffffffffffffffffffffffffffffffffffffffffffffffff84846101e3565b905092915050565b600081519050919050565b7f4e487b7100000000000000000000000000000000000000000000000000000000600052604160045260246000fd5b7f4e487b7100000000000000000000000000000000000000000000000000000000600052602260045260246000fd5b6000600282049050600182168061038c57607f821691505b60208210810361039f5761039e610345565b5b50919050565b60008190508160005260206000209050919050565b60006020601f8301049050919050565b600082821b905092915050565b6000600883026104077fffffffffffffffffffffffffffffffffffffffffffffffffffffffffffffffff826103ca565b61041186836103ca565b95508019841693508086168417925050509392505050565b6000819050919050565b600061044e610449610444846102b6565b610429565b6102b6565b9050919050565b6000819050919050565b61046883610433565b61047c61047482610455565b8484546103d7565b825550505050565b600090565b610491610484565b61049c81848461045f565b505050565b5b818110156104c0576104b5600082610489565b6001810190506104a2565b5050565b601f821115610505576104d6816103a5565b6104df846103ba565b810160208510156104ee578190505b6105026104fa856103ba565b8301826104a1565b50505b505050565b600082821c905092915050565b60006105286000198460080261050a565b1980831691505092915050565b60006105418383610517565b9150826002028217905092915050565b61055a8261030b565b67ffffffffffffffff81111561057357610572610316565b5b61057d8254610374565b6105888282856104c4565b600060209050601f8311600181146105bb57600084156105a9578287015190505b6105b38582610535565b86555061061b565b601f1984166105c9866103a5565b60005b828110156105f1578489015182556001820191506020850194506020810190506105cc565b8683101561060e578489015161060a601f891682610517565b8355505b6001600288020188555050505b505050505050565b6152cb806106326000396000f3fe60806040526004361061025c5760003560e01c80636ff732011161014457806399c8d556116100b6578063c4114b121161007a578063c4114b1214610899578063c87b56dd146108c4578063ccf670f814610901578063e1fa76381461092a578063e45be8eb14610953578063f2fde38b1461097e5761025c565b806399c8d556146107d3578063b319c6b7146107fe578063b32c012d14610829578063b69ef8a814610852578063c39cbef11461087d5761025c565b8063715018a611610108578063715018a6146106d557806376e71a9f146106ec5780637bff0a01146107295780638a48ac03146107525780638da5cb5b1461077d5780638f32d59b146107a85761025c565b80636ff73201146105f0578063705668f71461061957806370a082311461064457806370acbb631461068157806370f47cf9146106ac5761025c565b80634412e104116101dd57806354c92c5f116101a157806354c92c5f146104f15780635ea8cd121461051c5780635f4623f1146105455780635faf28801461056e5780636352211e1461058a5780636be17f0e146105c75761025c565b80634412e104146103d157806345c6ba391461040e57806346979d341461044c5780634f09516614610489578063528b7b8f146104b45761025c565b80632052465e116102245780632052465e14610316578063208c750e1461035957806323b872dd146103755780632e5bb6ff146103915780633ccfd60b146103ba5761025c565b806306f3376014610261578063095ea7b31461028a5780630ce90ec2146102a65780631398bbf7146102c25780631919b7e6146102ed575b600080fd5b34801561026d57600080fd5b50610288600480360381019061028391906139ae565b6109a7565b005b6102a4600480360381019061029f9190613a5f565b610a70565b005b6102c060048036038101906102bb9190613a9f565b610b8e565b005b3480156102ce57600080fd5b506102d7610cf5565b6040516102e49190613c31565b60405180910390f35b3480156102f957600080fd5b50610314600480360381019061030f9190613d99565b6112b6565b005b34801561032257600080fd5b5061033d60048036038101906103389190613a9f565b6112da565b6040516103509796959493929190613e9e565b60405180910390f35b610373600480360381019061036e9190613a9f565b6113f0565b005b61038f600480360381019061038a9190613f14565b6115ff565b005b34801561039d57600080fd5b506103b860048036038101906103b39190613a9f565b611719565b005b3480156103c657600080fd5b506103cf611734565b005b3480156103dd57600080fd5b506103f860048036038101906103f39190613f67565b61179b565b6040516104059190614043565b60405180910390f35b34801561041a57600080fd5b5061043560048036038101906104309190613a9f565b6117ad565b604051610443929190614086565b60405180910390f35b34801561045857600080fd5b50610473600480360381019061046e9190613a9f565b6117f1565b60405161048091906140af565b60405180910390f35b34801561049557600080fd5b5061049e611815565b6040516104ab91906140af565b60405180910390f35b3480156104c057600080fd5b506104db60048036038101906104d69190613a9f565b61181b565b6040516104e891906140d9565b60405180910390f35b3480156104fd57600080fd5b5061050661184e565b60405161051391906140f4565b60405180910390f35b34801561052857600080fd5b50610543600480360381019061053e9190613a9f565b6118dc565b005b34801561055157600080fd5b5061056c60048036038101906105679190613f67565b6118f7565b005b61058860048036038101906105839190614116565b61194c565b005b34801561059657600080fd5b506105b160048036038101906105ac9190613a9f565b611b07565b6040516105be91906140d9565b60405180910390f35b3480156105d357600080fd5b506105ee60048036038101906105e99190613a9f565b611b44565b005b3480156105fc57600080fd5b5061061760048036038101906106129190613a9f565b611b5f565b005b34801561062557600080fd5b5061062e611b7a565b60405161063b9190614256565b60405180910390f35b34801561065057600080fd5b5061066b60048036038101906106669190613f67565b611cfd565b60405161067891906140af565b60405180910390f35b34801561068d57600080fd5b50610696611d46565b6040516106a391906140af565b60405180910390f35b3480156106b857600080fd5b506106d360048036038101906106ce9190613a9f565b611d4c565b005b3480156106e157600080fd5b506106ea611d67565b005b3480156106f857600080fd5b50610713600480360381019061070e9190613a9f565b611e36565b60405161072091906142a7565b60405180910390f35b34801561073557600080fd5b50610750600480360381019061074b9190613d99565b611ec3565b005b34801561075e57600080fd5b50610767611fc3565b6040516107749190614371565b60405180910390f35b34801561078957600080fd5b506107926120c8565b60405161079f91906140d9565b60405180910390f35b3480156107b457600080fd5b506107bd6120f1565b6040516107ca91906143ae565b60405180910390f35b3480156107df57600080fd5b506107e8612148565b6040516107f591906140af565b60405180910390f35b34801561080a57600080fd5b5061081361214e565b60405161082091906140af565b60405180910390f35b34801561083557600080fd5b50610850600480360381019061084b9190614116565b612154565b005b34801561085e57600080fd5b50610867612300565b60405161087491906140af565b60405180910390f35b61089760048036038101906108929190614429565b612319565b005b3480156108a557600080fd5b506108ae6124e0565b6040516108bb91906140af565b60405180910390f35b3480156108d057600080fd5b506108eb60048036038101906108e69190613a9f565b6124e6565b6040516108f891906140f4565b60405180910390f35b34801561090d57600080fd5b5061092860048036038101906109239190613a9f565b612554565b005b34801561093657600080fd5b50610951600480360381019061094c9190614116565b61256f565b005b34801561095f57600080fd5b506109686128d8565b60405161097591906140af565b60405180910390f35b34801561098a57600080fd5b506109a560048036038101906109a09190613f67565b6128de565b005b6000600484815481106109bd576109bc614489565b5b906000526020600020906004020190506000610a0f85856040518060400160405280600581526020017f6b697474790000000000000000000000000000000000000000000000000000008152506128fb565b90503373ffffffffffffffffffffffffffffffffffffffff167f94bd9f81959636fb1ddd32f8bcbdab8b649d20a6a464f759a1aa7f7cf4447fac8360010154868685604051610a6194939291906144b8565b60405180910390a25050505050565b806006600082815260200190815260200160002060009054906101000a900473ffffffffffffffffffffffffffffffffffffffff1673ffffffffffffffffffffffffffffffffffffffff163373ffffffffffffffffffffffffffffffffffffffff1614610adc57600080fd5b82600f600084815260200190815260200160002060006101000a81548173ffffffffffffffffffffffffffffffffffffffff021916908373ffffffffffffffffffffffffffffffffffffffff160217905550818373ffffffffffffffffffffffffffffffffffffffff163373ffffffffffffffffffffffffffffffffffffffff167f8c5be1e5ebec7d5bd14f71427d1e84f3dd0314c0f7b2291e5b200ac8c7c3b92560405160405180910390a4505050565b60095480341015610b9e82612ad4565b604051602001610bae919061455f565b60405160208183030381529060405290610bfe576040517f08c379a0000000000000000000000000000000000000000000000000000000008152600401610bf591906140f4565b60405180910390fd5b50816006600082815260200190815260200160002060009054906101000a900473ffffffffffffffffffffffffffffffffffffffff1673ffffffffffffffffffffffffffffffffffffffff163373ffffffffffffffffffffffffffffffffffffffff1614610c6b57600080fd5b600160048481548110610c8157610c80614489565b5b906000526020600020906004020160030160009054906101000a900463ffffffff16610cad91906145b4565b60048481548110610cc157610cc0614489565b5b906000526020600020906004020160030160006101000a81548163ffffffff021916908363ffffffff160217905550505050565b606060003390506000600580549050905060008167ffffffffffffffff811115610d2257610d21613c6e565b5b604051908082528060200260200182016040528015610d5b57816020015b610d486138a9565b815260200190600190039081610d405790505b50905060006014905060005b8381101561100d57600060058281548110610d8557610d84614489565b5b9060005260206000200160009054906101000a900473ffffffffffffffffffffffffffffffffffffffff1690506000610dbd82612ba2565b90506000806000805b8451811015610f905760006004868381518110610de657610de5614489565b5b602002602001015181548110610dff57610dfe614489565b5b90600052602060002090600402016040518060e0016040529081600082018054610e289061461b565b80601f0160208091040260200160405190810160405280929190818152602001828054610e549061461b565b8015610ea15780601f10610e7657610100808354040283529160200191610ea1565b820191906000526020600020905b815481529060010190602001808311610e8457829003601f168201915b5050505050815260200160018201548152602001600282015481526020016003820160009054906101000a900463ffffffff1663ffffffff1663ffffffff1681526020016003820160049054906101000a900463ffffffff1663ffffffff1663ffffffff1681526020016003820160089054906101000a900461ffff1661ffff1661ffff16815260200160038201600a9054906101000a900461ffff1661ffff1661ffff16815250509050806040015185610f5c919061464c565b94508060a0015184610f6e9190614680565b93508060c0015183610f809190614680565b9250508080600101915050610dc6565b506040518060c001604052808673ffffffffffffffffffffffffffffffffffffffff168152602001878152602001848152602001855181526020018361ffff1681526020018261ffff16815250888781518110610ff057610fef614489565b5b602002602001018190525050505050508080600101915050610d67565b5061101782612cef565b508082511161102c57819450505050506112b3565b60008167ffffffffffffffff81111561104857611047613c6e565b5b60405190808252806020026020018201604052801561108157816020015b61106e6138a9565b8152602001906001900390816110665790505b50905060008060028461109491906146e5565b905060005b818110156110f3578581815181106110b4576110b3614489565b5b60200260200101518484806110c890614716565b9550815181106110db576110da614489565b5b60200260200101819052508080600101915050611099565b506000600185611103919061464c565b8761110e919061475e565b905060008190505b878110801561112457508584105b156111815786818151811061113c5761113b614489565b5b602002602001015185858061115090614716565b96508151811061116357611162614489565b5b6020026020010181905250808061117990614716565b915050611116565b506000805b848110156111f5578973ffffffffffffffffffffffffffffffffffffffff168682815181106111b8576111b7614489565b5b60200260200101516000015173ffffffffffffffffffffffffffffffffffffffff16036111e857600191506111f5565b8080600101915050611186565b50806112a65760005b87518110156112a4578973ffffffffffffffffffffffffffffffffffffffff1688828151811061123157611230614489565b5b60200260200101516000015173ffffffffffffffffffffffffffffffffffffffff16036112975787818151811061126b5761126a614489565b5b602002602001015186600a8151811061128757611286614489565b5b60200260200101819052506112a4565b80806001019150506111fe565b505b8499505050505050505050505b90565b6112be6120f1565b6112c757600080fd5b80600e90816112d6919061493e565b5050565b600481815481106112ea57600080fd5b906000526020600020906004020160009150905080600001805461130d9061461b565b80601f01602080910402602001604051908101604052809291908181526020018280546113399061461b565b80156113865780601f1061135b57610100808354040283529160200191611386565b820191906000526020600020905b81548152906001019060200180831161136957829003601f168201915b5050505050908060010154908060020154908060030160009054906101000a900463ffffffff16908060030160049054906101000a900463ffffffff16908060030160089054906101000a900461ffff169080600301600a9054906101000a900461ffff16905087565b6000601360008381526020019081526020016000206040518060400160405290816000820160009054906101000a900473ffffffffffffffffffffffffffffffffffffffff1673ffffffffffffffffffffffffffffffffffffffff1673ffffffffffffffffffffffffffffffffffffffff1681526020016001820154815250509050806000015173ffffffffffffffffffffffffffffffffffffffff16600073ffffffffffffffffffffffffffffffffffffffff16036114e5576040517f08c379a00000000000000000000000000000000000000000000000000000000081526004016114dc90614a5c565b60405180910390fd5b806020015134101561152c576040517f08c379a000000000000000000000000000000000000000000000000000000000815260040161152390614ac8565b60405180910390fd5b61153b81600001513384612ded565b806000015173ffffffffffffffffffffffffffffffffffffffff166108fc60105434611567919061475e565b9081150290604051600060405180830381858888f19350505050158015611592573d6000803e3d6000fd5b5061159c82612fbd565b806000015173ffffffffffffffffffffffffffffffffffffffff163373ffffffffffffffffffffffffffffffffffffffff16837f2705da8f1145dc87c9e6b9aa3ecd69d3d64da132acba45c803563ad52f5c2b5f60405160405180910390a45050565b3373ffffffffffffffffffffffffffffffffffffffff166006600083815260200190815260200160002060009054906101000a900473ffffffffffffffffffffffffffffffffffffffff1673ffffffffffffffffffffffffffffffffffffffff1614806116ca57503373ffffffffffffffffffffffffffffffffffffffff16600f600083815260200190815260200160002060009054906101000a900473ffffffffffffffffffffffffffffffffffffffff1673ffffffffffffffffffffffffffffffffffffffff16145b611709576040517f08c379a000000000000000000000000000000000000000000000000000000000815260040161170090614b34565b60405180910390fd5b611714838383612ded565b505050565b6117216120f1565b61172a57600080fd5b8060108190555050565b61173c6120f1565b61174557600080fd5b600061174f6120c8565b90508073ffffffffffffffffffffffffffffffffffffffff166108fc479081150290604051600060405180830381858888f19350505050158015611797573d6000803e3d6000fd5b5050565b60606117a682612ba2565b9050919050565b60136020528060005260406000206000915090508060000160009054906101000a900473ffffffffffffffffffffffffffffffffffffffff16908060010154905082565b6012818154811061180157600080fd5b906000526020600020016000915090505481565b600a5481565b60066020528060005260406000206000915054906101000a900473ffffffffffffffffffffffffffffffffffffffff1681565b600e805461185b9061461b565b80601f01602080910402602001604051908101604052809291908181526020018280546118879061461b565b80156118d45780601f106118a9576101008083540402835291602001916118d4565b820191906000526020600020905b8154815290600101906020018083116118b757829003601f168201915b505050505081565b6118e46120f1565b6118ed57600080fd5b8060118190555050565b6118ff6120f1565b61190857600080fd5b80600860006101000a81548173ffffffffffffffffffffffffffffffffffffffff021916908373ffffffffffffffffffffffffffffffffffffffff16021790555050565b600b548034101561195c82612ad4565b60405160200161196c919061455f565b604051602081830303815290604052906119bc576040517f08c379a00000000000000000000000000000000000000000000000000000000081526004016119b391906140f4565b60405180910390fd5b5060148381600482815481106119d5576119d4614489565b5b906000526020600020906004020160030160009054906101000a900463ffffffff1663ffffffff161015611a0883612ad4565b604051602001611a189190614b7a565b60405160208183030381529060405290611a68576040517f08c379a0000000000000000000000000000000000000000000000000000000008152600401611a5f91906140f4565b60405180910390fd5b50846006600082815260200190815260200160002060009054906101000a900473ffffffffffffffffffffffffffffffffffffffff1673ffffffffffffffffffffffffffffffffffffffff163373ffffffffffffffffffffffffffffffffffffffff1614611ad557600080fd5b8460048781548110611aea57611ae9614489565b5b906000526020600020906004020160010181905550505050505050565b60006006600083815260200190815260200160002060009054906101000a900473ffffffffffffffffffffffffffffffffffffffff169050919050565b611b4c6120f1565b611b5557600080fd5b80600a8190555050565b611b676120f1565b611b7057600080fd5b8060038190555050565b60606000601280549050905060008167ffffffffffffffff811115611ba257611ba1613c6e565b5b604051908082528060200260200182016040528015611bdb57816020015b611bc86138fd565b815260200190600190039081611bc05790505b50905060005b82811015611cf457600060128281548110611bff57611bfe614489565b5b906000526020600020015490506000601360008381526020019081526020016000206040518060400160405290816000820160009054906101000a900473ffffffffffffffffffffffffffffffffffffffff1673ffffffffffffffffffffffffffffffffffffffff1673ffffffffffffffffffffffffffffffffffffffff16815260200160018201548152505090506040518060600160405280826000015173ffffffffffffffffffffffffffffffffffffffff1681526020018381526020018260200151815250848481518110611cda57611cd9614489565b5b602002602001018190525050508080600101915050611be1565b50809250505090565b6000600760008373ffffffffffffffffffffffffffffffffffffffff1673ffffffffffffffffffffffffffffffffffffffff168152602001908152602001600020549050919050565b600b5481565b611d546120f1565b611d5d57600080fd5b80600b8190555050565b611d6f6120f1565b611d7857600080fd5b600073ffffffffffffffffffffffffffffffffffffffff1660008054906101000a900473ffffffffffffffffffffffffffffffffffffffff1673ffffffffffffffffffffffffffffffffffffffff167f8be0079c531659141344cd1fd0a4f28419497f9722a3daafe3b4186f6b6457e060405160405180910390a360008060006101000a81548173ffffffffffffffffffffffffffffffffffffffff021916908373ffffffffffffffffffffffffffffffffffffffff160217905550565b611e3e613934565b601360008381526020019081526020016000206040518060400160405290816000820160009054906101000a900473ffffffffffffffffffffffffffffffffffffffff1673ffffffffffffffffffffffffffffffffffffffff1673ffffffffffffffffffffffffffffffffffffffff1681526020016001820154815250509050919050565b6000600760003373ffffffffffffffffffffffffffffffffffffffff1673ffffffffffffffffffffffffffffffffffffffff1681526020019081526020016000205414611f45576040517f08c379a0000000000000000000000000000000000000000000000000000000008152600401611f3c90614c12565b60405180910390fd5b6000611f50826130c7565b9050611f5c828261310c565b6005339080600181540180825580915050600190039060005260206000200160009091909190916101000a81548173ffffffffffffffffffffffffffffffffffffffff021916908373ffffffffffffffffffffffffffffffffffffffff1602179055505050565b6060600060058054905067ffffffffffffffff811115611fe657611fe5613c6e565b5b6040519080825280602002602001820160405280156120145781602001602082028036833780820191505090505b50905060005b6005805490508110156120c0576005818154811061203b5761203a614489565b5b9060005260206000200160009054906101000a900473ffffffffffffffffffffffffffffffffffffffff1682828151811061207957612078614489565b5b602002602001019073ffffffffffffffffffffffffffffffffffffffff16908173ffffffffffffffffffffffffffffffffffffffff1681525050808060010191505061201a565b508091505090565b60008060009054906101000a900473ffffffffffffffffffffffffffffffffffffffff16905090565b60008060009054906101000a900473ffffffffffffffffffffffffffffffffffffffff1673ffffffffffffffffffffffffffffffffffffffff163373ffffffffffffffffffffffffffffffffffffffff1614905090565b60105481565b60035481565b816006600082815260200190815260200160002060009054906101000a900473ffffffffffffffffffffffffffffffffffffffff1673ffffffffffffffffffffffffffffffffffffffff163373ffffffffffffffffffffffffffffffffffffffff16146121c057600080fd5b6011546010546121d0919061464c565b821015612212576040517f08c379a000000000000000000000000000000000000000000000000000000000815260040161220990614ac8565b60405180910390fd5b60405180604001604052803373ffffffffffffffffffffffffffffffffffffffff168152602001838152506013600085815260200190815260200160002060008201518160000160006101000a81548173ffffffffffffffffffffffffffffffffffffffff021916908373ffffffffffffffffffffffffffffffffffffffff16021790555060208201518160010155905050601283908060018154018082558091505060019003906000526020600020016000909190919091505581837fb03c845c6c9ef1ff8db2c6381cd7ecf8c5623e02bb20e85545f3d04288302e5860405160405180910390a3505050565b600061230a6120f1565b61231357600080fd5b47905090565b600a548034101561232982612ad4565b604051602001612339919061455f565b60405160208183030381529060405290612389576040517f08c379a000000000000000000000000000000000000000000000000000000000815260040161238091906140f4565b60405180910390fd5b5060028481600482815481106123a2576123a1614489565b5b906000526020600020906004020160030160009054906101000a900463ffffffff1663ffffffff1610156123d583612ad4565b6040516020016123e59190614b7a565b60405160208183030381529060405290612435576040517f08c379a000000000000000000000000000000000000000000000000000000000815260040161242c91906140f4565b60405180910390fd5b50856006600082815260200190815260200160002060009054906101000a900473ffffffffffffffffffffffffffffffffffffffff1673ffffffffffffffffffffffffffffffffffffffff163373ffffffffffffffffffffffffffffffffffffffff16146124a257600080fd5b8585600489815481106124b8576124b7614489565b5b906000526020600020906004020160000191826124d6929190614c3d565b5050505050505050565b60095481565b60606000600483815481106124fe576124fd614489565b5b90600052602060002090600402019050600e61251984612ad4565b8260000161252a8460010154612ad4565b60405160200161253d9493929190614db6565b604051602081830303815290604052915050919050565b61255c6120f1565b61256557600080fd5b8060098190555050565b816006600082815260200190815260200160002060009054906101000a900473ffffffffffffffffffffffffffffffffffffffff1673ffffffffffffffffffffffffffffffffffffffff163373ffffffffffffffffffffffffffffffffffffffff16146125db57600080fd5b6000600484815481106125f1576125f0614489565b5b9060005260206000209060040201905060006004848154811061261757612616614489565b5b906000526020600020906004020190506000612633838361339d565b90506000606442338960405160200161264e93929190614e7b565b6040516020818303038152906040528051906020012060001c6126719190614eb8565b90508181116127e95783600301600881819054906101000a900461ffff168092919061269c90614ee9565b91906101000a81548161ffff021916908361ffff1602179055505083600301600081819054906101000a900463ffffffff16809291906126db90614f13565b91906101000a81548163ffffffff021916908363ffffffff1602179055505082600301600a81819054906101000a900461ffff168092919061271c90614ee9565b91906101000a81548161ffff021916908361ffff16021790555050612740846134d9565b612749836134d9565b600061278f8885600101546040518060400160405280600681526020017f7a6f6d62696500000000000000000000000000000000000000000000000000008152506128fb565b90503373ffffffffffffffffffffffffffffffffffffffff167f750a7c18ca7f7bd87c6e50678ea7fa4f64d0cb733bb68cdac552d009737b47168989846040516127db93929190614f3f565b60405180910390a2506128cf565b83600301600a81819054906101000a900461ffff168092919061280b90614ee9565b91906101000a81548161ffff021916908361ffff1602179055505082600301600881819054906101000a900461ffff168092919061284890614ee9565b91906101000a81548161ffff021916908361ffff1602179055505061286c846134d9565b612875836134d9565b61287e8461357f565b3373ffffffffffffffffffffffffffffffffffffffff167f4fa78061bb2783669831d2e2aa9ca18cb698e098923982bfada46ceaf1516d6a88886040516128c6929190614f76565b60405180910390a25b50505050505050565b60115481565b6128e66120f1565b6128ef57600080fd5b6128f8816135b2565b50565b6000836006600082815260200190815260200160002060009054906101000a900473ffffffffffffffffffffffffffffffffffffffff1673ffffffffffffffffffffffffffffffffffffffff163373ffffffffffffffffffffffffffffffffffffffff161461296957600080fd5b60006004868154811061297f5761297e614489565b5b90600052602060002090600402019050612998816136a8565b6129d7576040517f08c379a00000000000000000000000000000000000000000000000000000000081526004016129ce90614feb565b60405180910390fd5b600254856129e59190614eb8565b9450600060028683600101546129fb919061464c565b612a0591906146e5565b9050604051602001612a1690615057565b6040516020818303038152906040528051906020012085604051602001612a3d919061506c565b6040516020818303038152906040528051906020012003612a7f576063606482612a679190614eb8565b82612a72919061475e565b612a7c919061464c565b90505b612abe6040518060400160405280600681526020017f4e6f4e616d6500000000000000000000000000000000000000000000000000008152508261310c565b612ac78261357f565b8093505050509392505050565b606060006001612ae3846136cf565b01905060008167ffffffffffffffff811115612b0257612b01613c6e565b5b6040519080825280601f01601f191660200182016040528015612b345781602001600182028036833780820191505090505b509050600082602001820190505b600115612b97578080600190039150507f3031323334353637383961626364656600000000000000000000000000000000600a86061a8153600a8581612b8b57612b8a6146b6565b5b04945060008503612b42575b819350505050919050565b60606000600760008473ffffffffffffffffffffffffffffffffffffffff1673ffffffffffffffffffffffffffffffffffffffff1681526020019081526020016000205467ffffffffffffffff811115612bff57612bfe613c6e565b5b604051908082528060200260200182016040528015612c2d5781602001602082028036833780820191505090505b5090506000805b600480549050811015612ce4578473ffffffffffffffffffffffffffffffffffffffff166006600083815260200190815260200160002060009054906101000a900473ffffffffffffffffffffffffffffffffffffffff1673ffffffffffffffffffffffffffffffffffffffff1603612cd75780838381518110612cbb57612cba614489565b5b602002602001018181525050600182612cd4919061464c565b91505b8080600101915050612c34565b508192505050919050565b60606000600190505b8251811015612de45760005b81811015612dd657838181518110612d1f57612d1e614489565b5b602002602001015160400151848381518110612d3e57612d3d614489565b5b6020026020010151604001511015612dc9576000848381518110612d6557612d64614489565b5b60200260200101519050848281518110612d8257612d81614489565b5b6020026020010151858481518110612d9d57612d9c614489565b5b602002602001018190525080858381518110612dbc57612dbb614489565b5b6020026020010181905250505b8080600101915050612d04565b508080600101915050612cf8565b50819050919050565b6001600760008473ffffffffffffffffffffffffffffffffffffffff1673ffffffffffffffffffffffffffffffffffffffff16815260200190815260200160002054612e39919061464c565b600760008473ffffffffffffffffffffffffffffffffffffffff1673ffffffffffffffffffffffffffffffffffffffff168152602001908152602001600020819055506001600760008573ffffffffffffffffffffffffffffffffffffffff1673ffffffffffffffffffffffffffffffffffffffff16815260200190815260200160002054612ec8919061475e565b600760008573ffffffffffffffffffffffffffffffffffffffff1673ffffffffffffffffffffffffffffffffffffffff16815260200190815260200160002081905550816006600083815260200190815260200160002060006101000a81548173ffffffffffffffffffffffffffffffffffffffff021916908373ffffffffffffffffffffffffffffffffffffffff160217905550808273ffffffffffffffffffffffffffffffffffffffff168473ffffffffffffffffffffffffffffffffffffffff167fddf252ad1be2c89b69c2b068fc378daa952ba7f163c4a11628f55a4df523b3ef60405160405180910390a4505050565b60136000828152602001908152602001600020600080820160006101000a81549073ffffffffffffffffffffffffffffffffffffffff02191690556001820160009055505060005b6012805490508110156130c357816012828154811061302757613026614489565b5b9060005260206000200154036130b6576012600160128054905061304b919061475e565b8154811061305c5761305b614489565b5b90600052602060002001546012828154811061307b5761307a614489565b5b9060005260206000200181905550601280548061309b5761309a615083565b5b600190038181906000526020600020016000905590556130c3565b8080600101915050613005565b5050565b600080826040516020016130db919061506c565b6040516020818303038152906040528051906020012060001c9050600254816131049190614eb8565b915050919050565b60046040518060e0016040528084815260200183815260200160008152602001600163ffffffff16815260200160035442613147919061464c565b63ffffffff168152602001600061ffff168152602001600061ffff16815250908060018154018082558091505060019003906000526020600020906004020160009091909190915060008201518160000190816131a4919061493e565b50602082015181600101556040820151816002015560608201518160030160006101000a81548163ffffffff021916908363ffffffff16021790555060808201518160030160046101000a81548163ffffffff021916908363ffffffff16021790555060a08201518160030160086101000a81548161ffff021916908361ffff16021790555060c082015181600301600a6101000a81548161ffff021916908361ffff160217905550505060006001600480549050613263919061475e565b9050336006600083815260200190815260200160002060006101000a81548173ffffffffffffffffffffffffffffffffffffffff021916908373ffffffffffffffffffffffffffffffffffffffff1602179055506001600760003373ffffffffffffffffffffffffffffffffffffffff1673ffffffffffffffffffffffffffffffffffffffff16815260200190815260200160002054613303919061464c565b600760003373ffffffffffffffffffffffffffffffffffffffff1673ffffffffffffffffffffffffffffffffffffffff168152602001908152602001600020819055503373ffffffffffffffffffffffffffffffffffffffff167ff92b1ba4cb9ae7683c3a3a1e58273b24013547531f590e32910f3105e8349e1f828585604051613390939291906150b2565b60405180910390a2505050565b600080600d54905060008360030160009054906101000a900463ffffffff168560030160009054906101000a900463ffffffff166133db91906150fd565b905060008160030b131561340e576002816133f69190615159565b63ffffffff1682613407919061464c565b9150613445565b60008160030b12156134445760028161342690615196565b6134309190615159565b63ffffffff1682613441919061475e565b91505b5b6000806134558760010154613822565b509150915060006134698760010154613822565b925050506000600a828460028761348091906151de565b61348a919061464c565b613494919061475e565b61349e91906146e5565b905080866134ac919061464c565b9550605a8611156134bc57605a95505b601e8610156134ca57601e95505b85965050505050505092915050565b6000600382600301600a9054906101000a900461ffff166134fa9190615220565b61ffff1660058360030160089054906101000a900461ffff1661351d9190615220565b61ffff16600a8460030160009054906101000a900463ffffffff166135429190615159565b61354c91906145b4565b613556919061525d565b9050600a8163ffffffff16101561356c57600a90505b8063ffffffff1682600201819055505050565b6003544261358d919061464c565b8160030160046101000a81548163ffffffff021916908363ffffffff16021790555050565b600073ffffffffffffffffffffffffffffffffffffffff168173ffffffffffffffffffffffffffffffffffffffff16036135eb57600080fd5b8073ffffffffffffffffffffffffffffffffffffffff1660008054906101000a900473ffffffffffffffffffffffffffffffffffffffff1673ffffffffffffffffffffffffffffffffffffffff167f8be0079c531659141344cd1fd0a4f28419497f9722a3daafe3b4186f6b6457e060405160405180910390a3806000806101000a81548173ffffffffffffffffffffffffffffffffffffffff021916908373ffffffffffffffffffffffffffffffffffffffff16021790555050565b6000428260030160049054906101000a900463ffffffff1663ffffffff1611159050919050565b600080600090507a184f03e93ff9f4daa797ed6e38ed64bf6a1f010000000000000000831061372d577a184f03e93ff9f4daa797ed6e38ed64bf6a1f0100000000000000008381613723576137226146b6565b5b0492506040810190505b6d04ee2d6d415b85acef8100000000831061376a576d04ee2d6d415b85acef810000000083816137605761375f6146b6565b5b0492506020810190505b662386f26fc10000831061379957662386f26fc10000838161378f5761378e6146b6565b5b0492506010810190505b6305f5e10083106137c2576305f5e10083816137b8576137b76146b6565b5b0492506008810190505b61271083106137e75761271083816137dd576137dc6146b6565b5b0492506004810190505b6064831061380a5760648381613800576137ff6146b6565b5b0492506002810190505b600a8310613819576001810190505b80915050919050565b6000806000806032856138359190614eb8565b6032613841919061464c565b90506000603260648761385491906146e5565b61385e9190614eb8565b603261386a919061464c565b9050600060326127108861387e91906146e5565b6138889190614eb8565b6032613894919061464c565b90508282829550955095505050509193909250565b6040518060c00160405280600073ffffffffffffffffffffffffffffffffffffffff168152602001600081526020016000815260200160008152602001600061ffff168152602001600061ffff1681525090565b6040518060600160405280600073ffffffffffffffffffffffffffffffffffffffff16815260200160008152602001600081525090565b6040518060400160405280600073ffffffffffffffffffffffffffffffffffffffff168152602001600081525090565b6000604051905090565b600080fd5b600080fd5b6000819050919050565b61398b81613978565b811461399657600080fd5b50565b6000813590506139a881613982565b92915050565b6000806000606084860312156139c7576139c661396e565b5b60006139d586828701613999565b93505060206139e686828701613999565b92505060406139f786828701613999565b9150509250925092565b600073ffffffffffffffffffffffffffffffffffffffff82169050919050565b6000613a2c82613a01565b9050919050565b613a3c81613a21565b8114613a4757600080fd5b50565b600081359050613a5981613a33565b92915050565b60008060408385031215613a7657613a7561396e565b5b6000613a8485828601613a4a565b9250506020613a9585828601613999565b9150509250929050565b600060208284031215613ab557613ab461396e565b5b6000613ac384828501613999565b91505092915050565b600081519050919050565b600082825260208201905092915050565b6000819050602082019050919050565b613b0181613a21565b82525050565b613b1081613978565b82525050565b600061ffff82169050919050565b613b2d81613b16565b82525050565b60c082016000820151613b496000850182613af8565b506020820151613b5c6020850182613b07565b506040820151613b6f6040850182613b07565b506060820151613b826060850182613b07565b506080820151613b956080850182613b24565b5060a0820151613ba860a0850182613b24565b50505050565b6000613bba8383613b33565b60c08301905092915050565b6000602082019050919050565b6000613bde82613acc565b613be88185613ad7565b9350613bf383613ae8565b8060005b83811015613c24578151613c0b8882613bae565b9750613c1683613bc6565b925050600181019050613bf7565b5085935050505092915050565b60006020820190508181036000830152613c4b8184613bd3565b905092915050565b600080fd5b600080fd5b6000601f19601f8301169050919050565b7f4e487b7100000000000000000000000000000000000000000000000000000000600052604160045260246000fd5b613ca682613c5d565b810181811067ffffffffffffffff82111715613cc557613cc4613c6e565b5b80604052505050565b6000613cd8613964565b9050613ce48282613c9d565b919050565b600067ffffffffffffffff821115613d0457613d03613c6e565b5b613d0d82613c5d565b9050602081019050919050565b82818337600083830152505050565b6000613d3c613d3784613ce9565b613cce565b905082815260208101848484011115613d5857613d57613c58565b5b613d63848285613d1a565b509392505050565b600082601f830112613d8057613d7f613c53565b5b8135613d90848260208601613d29565b91505092915050565b600060208284031215613daf57613dae61396e565b5b600082013567ffffffffffffffff811115613dcd57613dcc613973565b5b613dd984828501613d6b565b91505092915050565b600081519050919050565b600082825260208201905092915050565b60005b83811015613e1c578082015181840152602081019050613e01565b60008484015250505050565b6000613e3382613de2565b613e3d8185613ded565b9350613e4d818560208601613dfe565b613e5681613c5d565b840191505092915050565b613e6a81613978565b82525050565b600063ffffffff82169050919050565b613e8981613e70565b82525050565b613e9881613b16565b82525050565b600060e0820190508181036000830152613eb8818a613e28565b9050613ec76020830189613e61565b613ed46040830188613e61565b613ee16060830187613e80565b613eee6080830186613e80565b613efb60a0830185613e8f565b613f0860c0830184613e8f565b98975050505050505050565b600080600060608486031215613f2d57613f2c61396e565b5b6000613f3b86828701613a4a565b9350506020613f4c86828701613a4a565b9250506040613f5d86828701613999565b9150509250925092565b600060208284031215613f7d57613f7c61396e565b5b6000613f8b84828501613a4a565b91505092915050565b600081519050919050565b600082825260208201905092915050565b6000819050602082019050919050565b6000613fcc8383613b07565b60208301905092915050565b6000602082019050919050565b6000613ff082613f94565b613ffa8185613f9f565b935061400583613fb0565b8060005b8381101561403657815161401d8882613fc0565b975061402883613fd8565b925050600181019050614009565b5085935050505092915050565b6000602082019050818103600083015261405d8184613fe5565b905092915050565b600061407082613a01565b9050919050565b61408081614065565b82525050565b600060408201905061409b6000830185614077565b6140a86020830184613e61565b9392505050565b60006020820190506140c46000830184613e61565b92915050565b6140d381613a21565b82525050565b60006020820190506140ee60008301846140ca565b92915050565b6000602082019050818103600083015261410e8184613e28565b905092915050565b6000806040838503121561412d5761412c61396e565b5b600061413b85828601613999565b925050602061414c85828601613999565b9150509250929050565b600081519050919050565b600082825260208201905092915050565b6000819050602082019050919050565b61418b81614065565b82525050565b6060820160008201516141a76000850182614182565b5060208201516141ba6020850182613b07565b5060408201516141cd6040850182613b07565b50505050565b60006141df8383614191565b60608301905092915050565b6000602082019050919050565b600061420382614156565b61420d8185614161565b935061421883614172565b8060005b8381101561424957815161423088826141d3565b975061423b836141eb565b92505060018101905061421c565b5085935050505092915050565b6000602082019050818103600083015261427081846141f8565b905092915050565b60408201600082015161428e6000850182614182565b5060208201516142a16020850182613b07565b50505050565b60006040820190506142bc6000830184614278565b92915050565b600081519050919050565b600082825260208201905092915050565b6000819050602082019050919050565b60006142fa8383613af8565b60208301905092915050565b6000602082019050919050565b600061431e826142c2565b61432881856142cd565b9350614333836142de565b8060005b8381101561436457815161434b88826142ee565b975061435683614306565b925050600181019050614337565b5085935050505092915050565b6000602082019050818103600083015261438b8184614313565b905092915050565b60008115159050919050565b6143a881614393565b82525050565b60006020820190506143c3600083018461439f565b92915050565b600080fd5b600080fd5b60008083601f8401126143e9576143e8613c53565b5b8235905067ffffffffffffffff811115614406576144056143c9565b5b602083019150836001820283011115614422576144216143ce565b5b9250929050565b6000806000604084860312156144425761444161396e565b5b600061445086828701613999565b935050602084013567ffffffffffffffff81111561447157614470613973565b5b61447d868287016143d3565b92509250509250925092565b7f4e487b7100000000000000000000000000000000000000000000000000000000600052603260045260246000fd5b60006080820190506144cd6000830187613e61565b6144da6020830186613e61565b6144e76040830185613e61565b6144f46060830184613e61565b95945050505050565b7f5072696365206d696e696d756d20697320000000000000000000000000000000815250565b600081905092915050565b600061453982613de2565b6145438185614523565b9350614553818560208601613dfe565b80840191505092915050565b600061456a826144fd565b60118201915061457a828461452e565b915081905092915050565b7f4e487b7100000000000000000000000000000000000000000000000000000000600052601160045260246000fd5b60006145bf82613e70565b91506145ca83613e70565b9250828201905063ffffffff8111156145e6576145e5614585565b5b92915050565b7f4e487b7100000000000000000000000000000000000000000000000000000000600052602260045260246000fd5b6000600282049050600182168061463357607f821691505b602082108103614646576146456145ec565b5b50919050565b600061465782613978565b915061466283613978565b925082820190508082111561467a57614679614585565b5b92915050565b600061468b82613b16565b915061469683613b16565b9250828201905061ffff8111156146b0576146af614585565b5b92915050565b7f4e487b7100000000000000000000000000000000000000000000000000000000600052601260045260246000fd5b60006146f082613978565b91506146fb83613978565b92508261470b5761470a6146b6565b5b828204905092915050565b600061472182613978565b91507fffffffffffffffffffffffffffffffffffffffffffffffffffffffffffffffff820361475357614752614585565b5b600182019050919050565b600061476982613978565b915061477483613978565b925082820390508181111561478c5761478b614585565b5b92915050565b60008190508160005260206000209050919050565b60006020601f8301049050919050565b600082821b905092915050565b6000600883026147f47fffffffffffffffffffffffffffffffffffffffffffffffffffffffffffffffff826147b7565b6147fe86836147b7565b95508019841693508086168417925050509392505050565b6000819050919050565b600061483b61483661483184613978565b614816565b613978565b9050919050565b6000819050919050565b61485583614820565b61486961486182614842565b8484546147c4565b825550505050565b600090565b61487e614871565b61488981848461484c565b505050565b5b818110156148ad576148a2600082614876565b60018101905061488f565b5050565b601f8211156148f2576148c381614792565b6148cc846147a7565b810160208510156148db578190505b6148ef6148e7856147a7565b83018261488e565b50505b505050565b600082821c905092915050565b6000614915600019846008026148f7565b1980831691505092915050565b600061492e8383614904565b9150826002028217905092915050565b61494782613de2565b67ffffffffffffffff8111156149605761495f613c6e565b5b61496a825461461b565b6149758282856148b1565b600060209050601f8311600181146149a85760008415614996578287015190505b6149a08582614922565b865550614a08565b601f1984166149b686614792565b60005b828110156149de578489015182556001820191506020850194506020810190506149b9565b868310156149fb57848901516149f7601f891682614904565b8355505b6001600288020188555050505b505050505050565b7f5a6f6d62696520617265206e6f74206f6e2073616c652e000000000000000000600082015250565b6000614a46601783613ded565b9150614a5182614a10565b602082019050919050565b60006020820190508181036000830152614a7581614a39565b9050919050565b7f596f757220707269636520697320746f6f206c6f770000000000000000000000600082015250565b6000614ab2601583613ded565b9150614abd82614a7c565b602082019050919050565b60006020820190508181036000830152614ae181614aa5565b9050919050565b7f596f7520617265206e6f74206f776e6572206f7220617070726f7665642e0000600082015250565b6000614b1e601e83613ded565b9150614b2982614ae8565b602082019050919050565b60006020820190508181036000830152614b4d81614b11565b9050919050565b7f4c6576656c206d696e696d756d20697320000000000000000000000000000000815250565b6000614b8582614b54565b601182019150614b95828461452e565b915081905092915050565b7f596f752063616e206f6e6c7920637265617465206f6e65207a6f6d626965207060008201527f6572206163636f756e7400000000000000000000000000000000000000000000602082015250565b6000614bfc602a83613ded565b9150614c0782614ba0565b604082019050919050565b60006020820190508181036000830152614c2b81614bef565b9050919050565b600082905092915050565b614c478383614c32565b67ffffffffffffffff811115614c6057614c5f613c6e565b5b614c6a825461461b565b614c758282856148b1565b6000601f831160018114614ca45760008415614c92578287013590505b614c9c8582614922565b865550614d04565b601f198416614cb286614792565b60005b82811015614cda57848901358255600182019150602085019450602081019050614cb5565b86831015614cf75784890135614cf3601f891682614904565b8355505b6001600288020188555050505b50505050505050565b60008154614d1a8161461b565b614d248186614523565b94506001821660008114614d3f5760018114614d5457614d87565b60ff1983168652811515820286019350614d87565b614d5d85614792565b60005b83811015614d7f57815481890152600182019150602081019050614d60565b838801955050505b50505092915050565b7f2f00000000000000000000000000000000000000000000000000000000000000815250565b6000614dc28287614d0d565b9150614dce828661452e565b9150614dd982614d90565b600182019150614de98285614d0d565b9150614df482614d90565b600182019150614e04828461452e565b915081905095945050505050565b6000819050919050565b614e2d614e2882613978565b614e12565b82525050565b60008160601b9050919050565b6000614e4b82614e33565b9050919050565b6000614e5d82614e40565b9050919050565b614e75614e7082613a21565b614e52565b82525050565b6000614e878286614e1c565b602082019150614e978285614e64565b601482019150614ea78284614e1c565b602082019150819050949350505050565b6000614ec382613978565b9150614ece83613978565b925082614ede57614edd6146b6565b5b828206905092915050565b6000614ef482613b16565b915061ffff8203614f0857614f07614585565b5b600182019050919050565b6000614f1e82613e70565b915063ffffffff8203614f3457614f33614585565b5b600182019050919050565b6000606082019050614f546000830186613e61565b614f616020830185613e61565b614f6e6040830184613e61565b949350505050565b6000604082019050614f8b6000830185613e61565b614f986020830184613e61565b9392505050565b7f5a6f6d626965206973206e6f7420726561647920746f20666565640000000000600082015250565b6000614fd5601b83613ded565b9150614fe082614f9f565b602082019050919050565b6000602082019050818103600083015261500481614fc8565b9050919050565b7f6b69747479000000000000000000000000000000000000000000000000000000600082015250565b6000615041600583614523565b915061504c8261500b565b600582019050919050565b600061506282615034565b9150819050919050565b6000615078828461452e565b915081905092915050565b7f4e487b7100000000000000000000000000000000000000000000000000000000600052603160045260246000fd5b60006060820190506150c76000830186613e61565b81810360208301526150d98185613e28565b90506150e86040830184613e61565b949350505050565b60008160030b9050919050565b6000615108826150f0565b9150615113836150f0565b92508282039050637fffffff81137fffffffffffffffffffffffffffffffffffffffffffffffffffffffff800000008212171561515357615152614585565b5b92915050565b600061516482613e70565b915061516f83613e70565b925082820261517d81613e70565b915080821461518f5761518e614585565b5b5092915050565b60006151a1826150f0565b91507fffffffffffffffffffffffffffffffffffffffffffffffffffffffff8000000082036151d3576151d2614585565b5b816000039050919050565b60006151e982613978565b91506151f483613978565b925082820261520281613978565b9150828204841483151761521957615218614585565b5b5092915050565b600061522b82613b16565b915061523683613b16565b925082820261524481613b16565b915080821461525657615255614585565b5b5092915050565b600061526882613e70565b915061527383613e70565b9250828203905063ffffffff81111561528f5761528e614585565b5b9291505056fea2646970667358221220ff9168e95247daee100c3dce29aa079732a1e8abd33c55bcdb634186493d3a2664736f6c634300081c0033687474703a2f2f6c6f63616c686f73743a333333332f7a6f6d6269652f7572692f",
  "linkReferences": {},
  "deployedLinkReferences": {}
}