{
  "_format": "hh-sol-artifact-1",
  "contractName": "CryptoZombies",
  "sourceName": "contracts/CryptoZombies.sol",
  "abi": [
    {
      "anonymous": false,
      "inputs": [
        {
          "indexed": true,
          "internalType": "address",
          "name": "_owner",
          "type": "address"
        },
        {
          "indexed": true,
          "internalType": "address",
          "name": "_approved",
          "type": "address"
        },
        {
          "indexed": true,
          "internalType": "uint256",
          "name": "_tokenId",
          "type": "uint256"
        }
      ],
      "name": "Approval",
      "type": "event"
    },
    {
      "anonymous": false,
      "inputs": [
        {
          "indexed": true,
          "internalType": "uint256",
          "name": "zombieId",
          "type": "uint256"
        },
        {
          "indexed": true,
          "internalType": "address",
          "name": "buyer",
          "type": "address"
        },
        {
          "indexed": true,
          "internalType": "address",
          "name": "seller",
          "type": "address"
        }
      ],
      "name": "BuyShopZombie",
      "type": "event"
    },
    {
      "anonymous": false,
      "inputs": [
        {
          "indexed": true,
          "internalType": "address",
          "name": "from",
          "type": "address"
        },
        {
          "indexed": false,
          "internalType": "uint256",
          "name": "zombieId",
          "type": "uint256"
        },
        {
          "indexed": false,
          "internalType": "string",
          "name": "name",
          "type": "string"
        },
        {
          "indexed": false,
          "internalType": "uint256",
          "name": "dna",
          "type": "uint256"
        }
      ],
      "name": "NewZombie",
      "type": "event"
    },
    {
      "anonymous": false,
      "inputs": [
        {
          "indexed": true,
          "internalType": "address",
          "name": "previousOwner",
          "type": "address"
        },
        {
          "indexed": true,
          "internalType": "address",
          "name": "newOwner",
          "type": "address"
        }
      ],
      "name": "OwnershipTransferred",
      "type": "event"
    },
    {
      "anonymous": false,
      "inputs": [
        {
          "indexed": true,
          "internalType": "uint256",
          "name": "zombieId",
          "type": "uint256"
        },
        {
          "indexed": true,
          "internalType": "uint256",
          "name": "price",
          "type": "uint256"
        }
      ],
      "name": "SaleZombie",
      "type": "event"
    },
    {
      "anonymous": false,
      "inputs": [
        {
          "indexed": true,
          "internalType": "address",
          "name": "_from",
          "type": "address"
        },
        {
          "indexed": true,
          "internalType": "address",
          "name": "_to",
          "type": "address"
        },
        {
          "indexed": true,
          "internalType": "uint256",
          "name": "_tokenId",
          "type": "uint256"
        }
      ],
      "name": "Transfer",
      "type": "event"
    },
    {
      "anonymous": false,
      "inputs": [
        {
          "indexed": true,
          "internalType": "address",
          "name": "from",
          "type": "address"
        },
        {
          "indexed": false,
          "internalType": "uint256",
          "name": "fromId",
          "type": "uint256"
        },
        {
          "indexed": false,
          "internalType": "uint256",
          "name": "targetId",
          "type": "uint256"
        }
      ],
      "name": "onAttackDefeat",
      "type": "event"
    },
    {
      "anonymous": false,
      "inputs": [
        {
          "indexed": true,
          "internalType": "address",
          "name": "from",
          "type": "address"
        },
        {
          "indexed": false,
          "internalType": "uint256",
          "name": "fromId",
          "type": "uint256"
        },
        {
          "indexed": false,
          "internalType": "uint256",
          "name": "targetId",
          "type": "uint256"
        },
        {
          "indexed": false,
          "internalType": "uint256",
          "name": "newDna",
          "type": "uint256"
        }
      ],
      "name": "onAttackVitory",
      "type": "event"
    },
    {
      "anonymous": false,
      "inputs": [
        {
          "indexed": true,
          "internalType": "address",
          "name": "from",
          "type": "address"
        },
        {
          "indexed": false,
          "internalType": "uint256",
          "name": "fromDna",
          "type": "uint256"
        },
        {
          "indexed": false,
          "internalType": "uint256",
          "name": "targetDna",
          "type": "uint256"
        },
        {
          "indexed": false,
          "internalType": "uint256",
          "name": "_kittyId",
          "type": "uint256"
        },
        {
          "indexed": false,
          "internalType": "uint256",
          "name": "newDna",
          "type": "uint256"
        }
      ],
      "name": "onFeed",
      "type": "event"
    },
    {
      "inputs": [
        {
          "internalType": "address",
          "name": "_approved",
          "type": "address"
        },
        {
          "internalType": "uint256",
          "name": "_tokenId",
          "type": "uint256"
        }
      ],
      "name": "approve",
      "outputs": [],
      "stateMutability": "payable",
      "type": "function"
    },
    {
      "inputs": [
        {
          "internalType": "uint256",
          "name": "_zombieId",
          "type": "uint256"
        },
        {
          "internalType": "uint256",
          "name": "_targetId",
          "type": "uint256"
        }
      ],
      "name": "attack",
      "outputs": [],
      "stateMutability": "nonpayable",
      "type": "function"
    },
    {
      "inputs": [],
      "name": "balance",
      "outputs": [
        {
          "internalType": "uint256",
          "name": "",
          "type": "uint256"
        }
      ],
      "stateMutability": "view",
      "type": "function"
    },
    {
      "inputs": [
        {
          "internalType": "address",
          "name": "_owner",
          "type": "address"
        }
      ],
      "name": "balanceOf",
      "outputs": [
        {
          "internalType": "uint256",
          "name": "",
          "type": "uint256"
        }
      ],
      "stateMutability": "view",
      "type": "function"
    },
    {
      "inputs": [],
      "name": "baseUrlTokenURI",
      "outputs": [
        {
          "internalType": "string",
          "name": "",
          "type": "string"
        }
      ],
      "stateMutability": "view",
      "type": "function"
    },
    {
      "inputs": [
        {
          "internalType": "uint256",
          "name": "zombieId",
          "type": "uint256"
        }
      ],
      "name": "buyShopZombie",
      "outputs": [],
      "stateMutability": "payable",
      "type": "function"
    },
    {
      "inputs": [],
      "name": "changeDNAFee",
      "outputs": [
        {
          "internalType": "uint256",
          "name": "",
          "type": "uint256"
        }
      ],
      "stateMutability": "view",
      "type": "function"
    },
    {
      "inputs": [
        {
          "internalType": "uint256",
          "name": "_zombieId",
          "type": "uint256"
        },
        {
          "internalType": "uint256",
          "name": "_newDna",
          "type": "uint256"
        }
      ],
      "name": "changeDna",
      "outputs": [],
      "stateMutability": "payable",
      "type": "function"
    },
    {
      "inputs": [
        {
          "internalType": "uint256",
          "name": "_zombieId",
          "type": "uint256"
        },
        {
          "internalType": "string",
          "name": "_newName",
          "type": "string"
        }
      ],
      "name": "changeName",
      "outputs": [],
      "stateMutability": "payable",
      "type": "function"
    },
    {
      "inputs": [],
      "name": "changeNameFee",
      "outputs": [
        {
          "internalType": "uint256",
          "name": "",
          "type": "uint256"
        }
      ],
      "stateMutability": "view",
      "type": "function"
    },
    {
      "inputs": [],
      "name": "cooldownTime",
      "outputs": [
        {
          "internalType": "uint256",
          "name": "",
          "type": "uint256"
        }
      ],
      "stateMutability": "view",
      "type": "function"
    },
    {
      "inputs": [
        {
          "internalType": "string",
          "name": "_name",
          "type": "string"
        }
      ],
      "name": "createRandomZombie",
      "outputs": [],
      "stateMutability": "nonpayable",
      "type": "function"
    },
    {
      "inputs": [
        {
          "internalType": "uint256",
          "name": "_zombieId",
          "type": "uint256"
        },
        {
          "internalType": "uint256",
          "name": "_kittyDna",
          "type": "uint256"
        },
        {
          "internalType": "uint256",
          "name": "_kittyId",
          "type": "uint256"
        }
      ],
      "name": "feedOnKitty",
      "outputs": [],
      "stateMutability": "nonpayable",
      "type": "function"
    },
    {
      "inputs": [],
      "name": "getAccounts",
      "outputs": [
        {
          "internalType": "address[]",
          "name": "",
          "type": "address[]"
        }
      ],
      "stateMutability": "view",
      "type": "function"
    },
    {
      "inputs": [],
      "name": "getAllZombiesInShop",
      "outputs": [
        {
          "components": [
            {
              "internalType": "address payable",
              "name": "seller",
              "type": "address"
            },
            {
              "internalType": "uint256",
              "name": "zombieId",
              "type": "uint256"
            },
            {
              "internalType": "uint256",
              "name": "price",
              "type": "uint256"
            }
          ],
          "internalType": "struct ZombieMarket.ZombieSale[]",
          "name": "",
          "type": "tuple[]"
        }
      ],
      "stateMutability": "view",
      "type": "function"
    },
    {
      "inputs": [],
      "name": "getRanking",
      "outputs": [
        {
          "components": [
            {
              "internalType": "address",
              "name": "account",
              "type": "address"
            },
            {
              "internalType": "uint256",
              "name": "position",
              "type": "uint256"
            },
            {
              "internalType": "uint256",
              "name": "score",
              "type": "uint256"
            },
            {
              "internalType": "uint256",
              "name": "zombieCount",
              "type": "uint256"
            },
            {
              "internalType": "uint16",
              "name": "winCount",
              "type": "uint16"
            },
            {
              "internalType": "uint16",
              "name": "lossCount",
              "type": "uint16"
            }
          ],
          "internalType": "struct ZombieRanking.Ranking[]",
          "name": "",
          "type": "tuple[]"
        }
      ],
      "stateMutability": "view",
      "type": "function"
    },
    {
      "inputs": [
        {
          "internalType": "address",
          "name": "_owner",
          "type": "address"
        }
      ],
      "name": "getZombiesByOwner",
      "outputs": [
        {
          "internalType": "uint256[]",
          "name": "",
          "type": "uint256[]"
        }
      ],
      "stateMutability": "view",
      "type": "function"
    },
    {
      "inputs": [
        {
          "internalType": "uint256",
          "name": "_zombieId",
          "type": "uint256"
        }
      ],
      "name": "hasZombieInShop",
      "outputs": [
        {
          "internalType": "bool",
          "name": "",
          "type": "bool"
        }
      ],
      "stateMutability": "view",
      "type": "function"
    },
    {
      "inputs": [],
      "name": "isOwner",
      "outputs": [
        {
          "internalType": "bool",
          "name": "",
          "type": "bool"
        }
      ],
      "stateMutability": "view",
      "type": "function"
    },
    {
      "inputs": [
        {
          "internalType": "uint256",
          "name": "_zombieId",
          "type": "uint256"
        }
      ],
      "name": "levelUp",
      "outputs": [],
      "stateMutability": "payable",
      "type": "function"
    },
    {
      "inputs": [],
      "name": "levelUpFee",
      "outputs": [
        {
          "internalType": "uint256",
          "name": "",
          "type": "uint256"
        }
      ],
      "stateMutability": "view",
      "type": "function"
    },
    {
      "inputs": [],
      "name": "minPrice",
      "outputs": [
        {
          "internalType": "uint256",
          "name": "",
          "type": "uint256"
        }
      ],
      "stateMutability": "view",
      "type": "function"
    },
    {
      "inputs": [],
      "name": "owner",
      "outputs": [
        {
          "internalType": "address",
          "name": "",
          "type": "address"
        }
      ],
      "stateMutability": "view",
      "type": "function"
    },
    {
      "inputs": [
        {
          "internalType": "uint256",
          "name": "_tokenId",
          "type": "uint256"
        }
      ],
      "name": "ownerOf",
      "outputs": [
        {
          "internalType": "address",
          "name": "",
          "type": "address"
        }
      ],
      "stateMutability": "view",
      "type": "function"
    },
    {
      "inputs": [],
      "name": "renounceOwnership",
      "outputs": [],
      "stateMutability": "nonpayable",
      "type": "function"
    },
    {
      "inputs": [
        {
          "internalType": "uint256",
          "name": "zombieId",
          "type": "uint256"
        },
        {
          "internalType": "uint256",
          "name": "price",
          "type": "uint256"
        }
      ],
      "name": "saleMyZombie",
      "outputs": [],
      "stateMutability": "nonpayable",
      "type": "function"
    },
    {
      "inputs": [
        {
          "internalType": "string",
          "name": "_baseUrlTokenURI",
          "type": "string"
        }
      ],
      "name": "setBaseUrlTokenURI",
      "outputs": [],
      "stateMutability": "nonpayable",
      "type": "function"
    },
    {
      "inputs": [
        {
          "internalType": "uint256",
          "name": "_fee",
          "type": "uint256"
        }
      ],
      "name": "setChangeDNAFee",
      "outputs": [],
      "stateMutability": "nonpayable",
      "type": "function"
    },
    {
      "inputs": [
        {
          "internalType": "uint256",
          "name": "_fee",
          "type": "uint256"
        }
      ],
      "name": "setChangeNameFee",
      "outputs": [],
      "stateMutability": "nonpayable",
      "type": "function"
    },
    {
      "inputs": [
        {
          "internalType": "uint256",
          "name": "_cooldownTime",
          "type": "uint256"
        }
      ],
      "name": "setCooldownTime",
      "outputs": [],
      "stateMutability": "nonpayable",
      "type": "function"
    },
    {
      "inputs": [
        {
          "internalType": "address",
          "name": "_address",
          "type": "address"
        }
      ],
      "name": "setKittyContractAddress",
      "outputs": [],
      "stateMutability": "nonpayable",
      "type": "function"
    },
    {
      "inputs": [
        {
          "internalType": "uint256",
          "name": "_fee",
          "type": "uint256"
        }
      ],
      "name": "setLevelUpFee",
      "outputs": [],
      "stateMutability": "nonpayable",
      "type": "function"
    },
    {
      "inputs": [
        {
          "internalType": "uint256",
          "name": "value",
          "type": "uint256"
        }
      ],
      "name": "setMinPrice",
      "outputs": [],
      "stateMutability": "nonpayable",
      "type": "function"
    },
    {
      "inputs": [
        {
          "internalType": "uint256",
          "name": "value",
          "type": "uint256"
        }
      ],
      "name": "setTax",
      "outputs": [],
      "stateMutability": "nonpayable",
      "type": "function"
    },
    {
      "inputs": [],
      "name": "tax",
      "outputs": [
        {
          "internalType": "uint256",
          "name": "",
          "type": "uint256"
        }
      ],
      "stateMutability": "view",
      "type": "function"
    },
    {
      "inputs": [
        {
          "internalType": "uint256",
          "name": "_tokenId",
          "type": "uint256"
        }
      ],
      "name": "tokenURI",
      "outputs": [
        {
          "internalType": "string",
          "name": "",
          "type": "string"
        }
      ],
      "stateMutability": "view",
      "type": "function"
    },
    {
      "inputs": [
        {
          "internalType": "address",
          "name": "_from",
          "type": "address"
        },
        {
          "internalType": "address",
          "name": "_to",
          "type": "address"
        },
        {
          "internalType": "uint256",
          "name": "_tokenId",
          "type": "uint256"
        }
      ],
      "name": "transferFrom",
      "outputs": [],
      "stateMutability": "payable",
      "type": "function"
    },
    {
      "inputs": [
        {
          "internalType": "address",
          "name": "newOwner",
          "type": "address"
        }
      ],
      "name": "transferOwnership",
      "outputs": [],
      "stateMutability": "nonpayable",
      "type": "function"
    },
    {
      "inputs": [],
      "name": "withdraw",
      "outputs": [],
      "stateMutability": "nonpayable",
      "type": "function"
    },
    {
      "inputs": [
        {
          "internalType": "uint256",
          "name": "",
          "type": "uint256"
        }
      ],
      "name": "zombieShop",
      "outputs": [
        {
          "internalType": "address payable",
          "name": "seller",
          "type": "address"
        },
        {
          "internalType": "uint256",
          "name": "price",
          "type": "uint256"
        }
      ],
      "stateMutability": "view",
      "type": "function"
    },
    {
      "inputs": [
        {
          "internalType": "uint256",
          "name": "",
          "type": "uint256"
        }
      ],
      "name": "zombieShopKeys",
      "outputs": [
        {
          "internalType": "uint256",
          "name": "",
          "type": "uint256"
        }
      ],
      "stateMutability": "view",
      "type": "function"
    },
    {
      "inputs": [
        {
          "internalType": "uint256",
          "name": "",
          "type": "uint256"
        }
      ],
      "name": "zombieToOwner",
      "outputs": [
        {
          "internalType": "address",
          "name": "",
          "type": "address"
        }
      ],
      "stateMutability": "view",
      "type": "function"
    },
    {
      "inputs": [
        {
          "internalType": "uint256",
          "name": "",
          "type": "uint256"
        }
      ],
      "name": "zombies",
      "outputs": [
        {
          "internalType": "string",
          "name": "name",
          "type": "string"
        },
        {
          "internalType": "uint256",
          "name": "dna",
          "type": "uint256"
        },
        {
          "internalType": "uint256",
          "name": "score",
          "type": "uint256"
        },
        {
          "internalType": "uint32",
          "name": "level",
          "type": "uint32"
        },
        {
          "internalType": "uint32",
          "name": "readyTime",
          "type": "uint32"
        },
        {
          "internalType": "uint16",
          "name": "winCount",
          "type": "uint16"
        },
        {
          "internalType": "uint16",
          "name": "lossCount",
          "type": "uint16"
        }
      ],
      "stateMutability": "view",
      "type": "function"
    }
  ],
  "bytecode": "0x60806040526010600155600154600a61001891906102c0565b600255603c60035566038d7ea4c6800060095566071afd498d0000600a55660e35fa931a0000600b556000600c556032600d5560405180606001604052806021815260200161599460219139600e90816100729190610551565b50655af3107a4000601055655af3107a400060115534801561009357600080fd5b50336000806101000a81548173ffffffffffffffffffffffffffffffffffffffff021916908373ffffffffffffffffffffffffffffffffffffffff16021790555060008054906101000a900473ffffffffffffffffffffffffffffffffffffffff1673ffffffffffffffffffffffffffffffffffffffff16600073ffffffffffffffffffffffffffffffffffffffff167f8be0079c531659141344cd1fd0a4f28419497f9722a3daafe3b4186f6b6457e060405160405180910390a3610623565b7f4e487b7100000000000000000000000000000000000000000000000000000000600052601160045260246000fd5b60008160011c9050919050565b6000808291508390505b60018511156101da578086048111156101b6576101b5610154565b5b60018516156101c55780820291505b80810290506101d385610183565b945061019a565b94509492505050565b6000826101f357600190506102af565b8161020157600090506102af565b8160018114610217576002811461022157610250565b60019150506102af565b60ff84111561023357610232610154565b5b8360020a91508482111561024a57610249610154565b5b506102af565b5060208310610133831016604e8410600b84101617156102855782820a9050838111156102805761027f610154565b5b6102af565b6102928484846001610190565b925090508184048111156102a9576102a8610154565b5b81810290505b9392505050565b6000819050919050565b60006102cb826102b6565b91506102d6836102b6565b92506103037fffffffffffffffffffffffffffffffffffffffffffffffffffffffffffffffff84846101e3565b905092915050565b600081519050919050565b7f4e487b7100000000000000000000000000000000000000000000000000000000600052604160045260246000fd5b7f4e487b7100000000000000000000000000000000000000000000000000000000600052602260045260246000fd5b6000600282049050600182168061038c57607f821691505b60208210810361039f5761039e610345565b5b50919050565b60008190508160005260206000209050919050565b60006020601f8301049050919050565b600082821b905092915050565b6000600883026104077fffffffffffffffffffffffffffffffffffffffffffffffffffffffffffffffff826103ca565b61041186836103ca565b95508019841693508086168417925050509392505050565b6000819050919050565b600061044e610449610444846102b6565b610429565b6102b6565b9050919050565b6000819050919050565b61046883610433565b61047c61047482610455565b8484546103d7565b825550505050565b600090565b610491610484565b61049c81848461045f565b505050565b5b818110156104c0576104b5600082610489565b6001810190506104a2565b5050565b601f821115610505576104d6816103a5565b6104df846103ba565b810160208510156104ee578190505b6105026104fa856103ba565b8301826104a1565b50505b505050565b600082821c905092915050565b60006105286000198460080261050a565b1980831691505092915050565b60006105418383610517565b9150826002028217905092915050565b61055a8261030b565b67ffffffffffffffff81111561057357610572610316565b5b61057d8254610374565b6105888282856104c4565b600060209050601f8311600181146105bb57600084156105a9578287015190505b6105b38582610535565b86555061061b565b601f1984166105c9866103a5565b60005b828110156105f1578489015182556001820191506020850194506020810190506105cc565b8683101561060e578489015161060a601f891682610517565b8355505b6001600288020188555050505b505050505050565b615362806106326000396000f3fe60806040526004361061025c5760003560e01c80636ff7320111610144578063b319c6b7116100b6578063c87b56dd1161007a578063c87b56dd14610887578063ccf670f8146108c4578063e1fa7638146108ed578063e45be8eb14610916578063f234fca314610941578063f2fde38b1461097e5761025c565b8063b319c6b7146107c1578063b32c012d146107ec578063b69ef8a814610815578063c39cbef114610840578063c4114b121461085c5761025c565b8063715018a611610108578063715018a6146106d55780637bff0a01146106ec5780638a48ac03146107155780638da5cb5b146107405780638f32d59b1461076b57806399c8d556146107965761025c565b80636ff73201146105f0578063705668f71461061957806370a082311461064457806370acbb631461068157806370f47cf9146106ac5761025c565b80634412e104116101dd57806354c92c5f116101a157806354c92c5f146104f15780635ea8cd121461051c5780635f4623f1146105455780635faf28801461056e5780636352211e1461058a5780636be17f0e146105c75761025c565b80634412e104146103d157806345c6ba391461040e57806346979d341461044c5780634f09516614610489578063528b7b8f146104b45761025c565b80632052465e116102245780632052465e14610316578063208c750e1461035957806323b872dd146103755780632e5bb6ff146103915780633ccfd60b146103ba5761025c565b806306f3376014610261578063095ea7b31461028a5780630ce90ec2146102a65780631398bbf7146102c25780631919b7e6146102ed575b600080fd5b34801561026d57600080fd5b5061028860048036038101906102839190613a23565b6109a7565b005b6102a4600480360381019061029f9190613ad4565b610a70565b005b6102c060048036038101906102bb9190613b14565b610b8e565b005b3480156102ce57600080fd5b506102d7610cf5565b6040516102e49190613ca6565b60405180910390f35b3480156102f957600080fd5b50610314600480360381019061030f9190613e0e565b6112b6565b005b34801561032257600080fd5b5061033d60048036038101906103389190613b14565b6112da565b6040516103509796959493929190613f13565b60405180910390f35b610373600480360381019061036e9190613b14565b6113f0565b005b61038f600480360381019061038a9190613f89565b611671565b005b34801561039d57600080fd5b506103b860048036038101906103b39190613b14565b61178b565b005b3480156103c657600080fd5b506103cf6117a6565b005b3480156103dd57600080fd5b506103f860048036038101906103f39190613fdc565b61180d565b60405161040591906140b8565b60405180910390f35b34801561041a57600080fd5b5061043560048036038101906104309190613b14565b61181f565b6040516104439291906140fb565b60405180910390f35b34801561045857600080fd5b50610473600480360381019061046e9190613b14565b611863565b6040516104809190614124565b60405180910390f35b34801561049557600080fd5b5061049e611887565b6040516104ab9190614124565b60405180910390f35b3480156104c057600080fd5b506104db60048036038101906104d69190613b14565b61188d565b6040516104e8919061414e565b60405180910390f35b3480156104fd57600080fd5b506105066118c0565b6040516105139190614169565b60405180910390f35b34801561052857600080fd5b50610543600480360381019061053e9190613b14565b61194e565b005b34801561055157600080fd5b5061056c60048036038101906105679190613fdc565b611969565b005b6105886004803603810190610583919061418b565b6119be565b005b34801561059657600080fd5b506105b160048036038101906105ac9190613b14565b611b79565b6040516105be919061414e565b60405180910390f35b3480156105d357600080fd5b506105ee60048036038101906105e99190613b14565b611bb6565b005b3480156105fc57600080fd5b5061061760048036038101906106129190613b14565b611bd1565b005b34801561062557600080fd5b5061062e611bec565b60405161063b91906142cb565b60405180910390f35b34801561065057600080fd5b5061066b60048036038101906106669190613fdc565b611d6f565b6040516106789190614124565b60405180910390f35b34801561068d57600080fd5b50610696611db8565b6040516106a39190614124565b60405180910390f35b3480156106b857600080fd5b506106d360048036038101906106ce9190613b14565b611dbe565b005b3480156106e157600080fd5b506106ea611dd9565b005b3480156106f857600080fd5b50610713600480360381019061070e9190613e0e565b611ea8565b005b34801561072157600080fd5b5061072a611fa8565b604051610737919061439c565b60405180910390f35b34801561074c57600080fd5b506107556120ad565b604051610762919061414e565b60405180910390f35b34801561077757600080fd5b506107806120d6565b60405161078d91906143d9565b60405180910390f35b3480156107a257600080fd5b506107ab61212d565b6040516107b89190614124565b60405180910390f35b3480156107cd57600080fd5b506107d6612133565b6040516107e39190614124565b60405180910390f35b3480156107f857600080fd5b50610813600480360381019061080e919061418b565b612139565b005b34801561082157600080fd5b5061082a6122e5565b6040516108379190614124565b60405180910390f35b61085a60048036038101906108559190614454565b6122fe565b005b34801561086857600080fd5b506108716124c5565b60405161087e9190614124565b60405180910390f35b34801561089357600080fd5b506108ae60048036038101906108a99190613b14565b6124cb565b6040516108bb9190614169565b60405180910390f35b3480156108d057600080fd5b506108eb60048036038101906108e69190613b14565b612539565b005b3480156108f957600080fd5b50610914600480360381019061090f919061418b565b612554565b005b34801561092257600080fd5b5061092b6128bd565b6040516109389190614124565b60405180910390f35b34801561094d57600080fd5b5061096860048036038101906109639190613b14565b6128c3565b60405161097591906143d9565b60405180910390f35b34801561098a57600080fd5b506109a560048036038101906109a09190613fdc565b612983565b005b6000600484815481106109bd576109bc6144b4565b5b906000526020600020906004020190506000610a0f85856040518060400160405280600581526020017f6b697474790000000000000000000000000000000000000000000000000000008152506129a0565b90503373ffffffffffffffffffffffffffffffffffffffff167f94bd9f81959636fb1ddd32f8bcbdab8b649d20a6a464f759a1aa7f7cf4447fac8360010154868685604051610a6194939291906144e3565b60405180910390a25050505050565b806006600082815260200190815260200160002060009054906101000a900473ffffffffffffffffffffffffffffffffffffffff1673ffffffffffffffffffffffffffffffffffffffff163373ffffffffffffffffffffffffffffffffffffffff1614610adc57600080fd5b82600f600084815260200190815260200160002060006101000a81548173ffffffffffffffffffffffffffffffffffffffff021916908373ffffffffffffffffffffffffffffffffffffffff160217905550818373ffffffffffffffffffffffffffffffffffffffff163373ffffffffffffffffffffffffffffffffffffffff167f8c5be1e5ebec7d5bd14f71427d1e84f3dd0314c0f7b2291e5b200ac8c7c3b92560405160405180910390a4505050565b60095480341015610b9e82612b79565b604051602001610bae919061458a565b60405160208183030381529060405290610bfe576040517f08c379a0000000000000000000000000000000000000000000000000000000008152600401610bf59190614169565b60405180910390fd5b50816006600082815260200190815260200160002060009054906101000a900473ffffffffffffffffffffffffffffffffffffffff1673ffffffffffffffffffffffffffffffffffffffff163373ffffffffffffffffffffffffffffffffffffffff1614610c6b57600080fd5b600160048481548110610c8157610c806144b4565b5b906000526020600020906004020160030160009054906101000a900463ffffffff16610cad91906145df565b60048481548110610cc157610cc06144b4565b5b906000526020600020906004020160030160006101000a81548163ffffffff021916908363ffffffff160217905550505050565b606060003390506000600580549050905060008167ffffffffffffffff811115610d2257610d21613ce3565b5b604051908082528060200260200182016040528015610d5b57816020015b610d4861394e565b815260200190600190039081610d405790505b50905060006014905060005b8381101561100d57600060058281548110610d8557610d846144b4565b5b9060005260206000200160009054906101000a900473ffffffffffffffffffffffffffffffffffffffff1690506000610dbd82612c47565b90506000806000805b8451811015610f905760006004868381518110610de657610de56144b4565b5b602002602001015181548110610dff57610dfe6144b4565b5b90600052602060002090600402016040518060e0016040529081600082018054610e2890614646565b80601f0160208091040260200160405190810160405280929190818152602001828054610e5490614646565b8015610ea15780601f10610e7657610100808354040283529160200191610ea1565b820191906000526020600020905b815481529060010190602001808311610e8457829003601f168201915b5050505050815260200160018201548152602001600282015481526020016003820160009054906101000a900463ffffffff1663ffffffff1663ffffffff1681526020016003820160049054906101000a900463ffffffff1663ffffffff1663ffffffff1681526020016003820160089054906101000a900461ffff1661ffff1661ffff16815260200160038201600a9054906101000a900461ffff1661ffff1661ffff16815250509050806040015185610f5c9190614677565b94508060a0015184610f6e91906146ab565b93508060c0015183610f8091906146ab565b9250508080600101915050610dc6565b506040518060c001604052808673ffffffffffffffffffffffffffffffffffffffff168152602001878152602001848152602001855181526020018361ffff1681526020018261ffff16815250888781518110610ff057610fef6144b4565b5b602002602001018190525050505050508080600101915050610d67565b5061101782612d94565b508082511161102c57819450505050506112b3565b60008167ffffffffffffffff81111561104857611047613ce3565b5b60405190808252806020026020018201604052801561108157816020015b61106e61394e565b8152602001906001900390816110665790505b5090506000806002846110949190614710565b905060005b818110156110f3578581815181106110b4576110b36144b4565b5b60200260200101518484806110c890614741565b9550815181106110db576110da6144b4565b5b60200260200101819052508080600101915050611099565b5060006001856111039190614677565b8761110e9190614789565b905060008190505b878110801561112457508584105b156111815786818151811061113c5761113b6144b4565b5b602002602001015185858061115090614741565b965081518110611163576111626144b4565b5b6020026020010181905250808061117990614741565b915050611116565b506000805b848110156111f5578973ffffffffffffffffffffffffffffffffffffffff168682815181106111b8576111b76144b4565b5b60200260200101516000015173ffffffffffffffffffffffffffffffffffffffff16036111e857600191506111f5565b8080600101915050611186565b50806112a65760005b87518110156112a4578973ffffffffffffffffffffffffffffffffffffffff16888281518110611231576112306144b4565b5b60200260200101516000015173ffffffffffffffffffffffffffffffffffffffff16036112975787818151811061126b5761126a6144b4565b5b602002602001015186600a81518110611287576112866144b4565b5b60200260200101819052506112a4565b80806001019150506111fe565b505b8499505050505050505050505b90565b6112be6120d6565b6112c757600080fd5b80600e90816112d69190614969565b5050565b600481815481106112ea57600080fd5b906000526020600020906004020160009150905080600001805461130d90614646565b80601f016020809104026020016040519081016040528092919081815260200182805461133990614646565b80156113865780601f1061135b57610100808354040283529160200191611386565b820191906000526020600020905b81548152906001019060200180831161136957829003601f168201915b5050505050908060010154908060020154908060030160009054906101000a900463ffffffff16908060030160049054906101000a900463ffffffff16908060030160089054906101000a900461ffff169080600301600a9054906101000a900461ffff16905087565b6000601360008381526020019081526020016000206040518060400160405290816000820160009054906101000a900473ffffffffffffffffffffffffffffffffffffffff1673ffffffffffffffffffffffffffffffffffffffff1673ffffffffffffffffffffffffffffffffffffffff1681526020016001820154815250509050806000015173ffffffffffffffffffffffffffffffffffffffff16600073ffffffffffffffffffffffffffffffffffffffff16036114e5576040517f08c379a00000000000000000000000000000000000000000000000000000000081526004016114dc90614a87565b60405180910390fd5b806000015173ffffffffffffffffffffffffffffffffffffffff163373ffffffffffffffffffffffffffffffffffffffff1603611557576040517f08c379a000000000000000000000000000000000000000000000000000000000815260040161154e90614af3565b60405180910390fd5b806020015134101561159e576040517f08c379a000000000000000000000000000000000000000000000000000000000815260040161159590614b5f565b60405180910390fd5b6115ad81600001513384612e92565b806000015173ffffffffffffffffffffffffffffffffffffffff166108fc601054346115d99190614789565b9081150290604051600060405180830381858888f19350505050158015611604573d6000803e3d6000fd5b5061160e82613062565b806000015173ffffffffffffffffffffffffffffffffffffffff163373ffffffffffffffffffffffffffffffffffffffff16837f2705da8f1145dc87c9e6b9aa3ecd69d3d64da132acba45c803563ad52f5c2b5f60405160405180910390a45050565b3373ffffffffffffffffffffffffffffffffffffffff166006600083815260200190815260200160002060009054906101000a900473ffffffffffffffffffffffffffffffffffffffff1673ffffffffffffffffffffffffffffffffffffffff16148061173c57503373ffffffffffffffffffffffffffffffffffffffff16600f600083815260200190815260200160002060009054906101000a900473ffffffffffffffffffffffffffffffffffffffff1673ffffffffffffffffffffffffffffffffffffffff16145b61177b576040517f08c379a000000000000000000000000000000000000000000000000000000000815260040161177290614bcb565b60405180910390fd5b611786838383612e92565b505050565b6117936120d6565b61179c57600080fd5b8060108190555050565b6117ae6120d6565b6117b757600080fd5b60006117c16120ad565b90508073ffffffffffffffffffffffffffffffffffffffff166108fc479081150290604051600060405180830381858888f19350505050158015611809573d6000803e3d6000fd5b5050565b606061181882612c47565b9050919050565b60136020528060005260406000206000915090508060000160009054906101000a900473ffffffffffffffffffffffffffffffffffffffff16908060010154905082565b6012818154811061187357600080fd5b906000526020600020016000915090505481565b600a5481565b60066020528060005260406000206000915054906101000a900473ffffffffffffffffffffffffffffffffffffffff1681565b600e80546118cd90614646565b80601f01602080910402602001604051908101604052809291908181526020018280546118f990614646565b80156119465780601f1061191b57610100808354040283529160200191611946565b820191906000526020600020905b81548152906001019060200180831161192957829003601f168201915b505050505081565b6119566120d6565b61195f57600080fd5b8060118190555050565b6119716120d6565b61197a57600080fd5b80600860006101000a81548173ffffffffffffffffffffffffffffffffffffffff021916908373ffffffffffffffffffffffffffffffffffffffff16021790555050565b600b54803410156119ce82612b79565b6040516020016119de919061458a565b60405160208183030381529060405290611a2e576040517f08c379a0000000000000000000000000000000000000000000000000000000008152600401611a259190614169565b60405180910390fd5b506014838160048281548110611a4757611a466144b4565b5b906000526020600020906004020160030160009054906101000a900463ffffffff1663ffffffff161015611a7a83612b79565b604051602001611a8a9190614c11565b60405160208183030381529060405290611ada576040517f08c379a0000000000000000000000000000000000000000000000000000000008152600401611ad19190614169565b60405180910390fd5b50846006600082815260200190815260200160002060009054906101000a900473ffffffffffffffffffffffffffffffffffffffff1673ffffffffffffffffffffffffffffffffffffffff163373ffffffffffffffffffffffffffffffffffffffff1614611b4757600080fd5b8460048781548110611b5c57611b5b6144b4565b5b906000526020600020906004020160010181905550505050505050565b60006006600083815260200190815260200160002060009054906101000a900473ffffffffffffffffffffffffffffffffffffffff169050919050565b611bbe6120d6565b611bc757600080fd5b80600a8190555050565b611bd96120d6565b611be257600080fd5b8060038190555050565b60606000601280549050905060008167ffffffffffffffff811115611c1457611c13613ce3565b5b604051908082528060200260200182016040528015611c4d57816020015b611c3a6139a2565b815260200190600190039081611c325790505b50905060005b82811015611d6657600060128281548110611c7157611c706144b4565b5b906000526020600020015490506000601360008381526020019081526020016000206040518060400160405290816000820160009054906101000a900473ffffffffffffffffffffffffffffffffffffffff1673ffffffffffffffffffffffffffffffffffffffff1673ffffffffffffffffffffffffffffffffffffffff16815260200160018201548152505090506040518060600160405280826000015173ffffffffffffffffffffffffffffffffffffffff1681526020018381526020018260200151815250848481518110611d4c57611d4b6144b4565b5b602002602001018190525050508080600101915050611c53565b50809250505090565b6000600760008373ffffffffffffffffffffffffffffffffffffffff1673ffffffffffffffffffffffffffffffffffffffff168152602001908152602001600020549050919050565b600b5481565b611dc66120d6565b611dcf57600080fd5b80600b8190555050565b611de16120d6565b611dea57600080fd5b600073ffffffffffffffffffffffffffffffffffffffff1660008054906101000a900473ffffffffffffffffffffffffffffffffffffffff1673ffffffffffffffffffffffffffffffffffffffff167f8be0079c531659141344cd1fd0a4f28419497f9722a3daafe3b4186f6b6457e060405160405180910390a360008060006101000a81548173ffffffffffffffffffffffffffffffffffffffff021916908373ffffffffffffffffffffffffffffffffffffffff160217905550565b6000600760003373ffffffffffffffffffffffffffffffffffffffff1673ffffffffffffffffffffffffffffffffffffffff1681526020019081526020016000205414611f2a576040517f08c379a0000000000000000000000000000000000000000000000000000000008152600401611f2190614ca9565b60405180910390fd5b6000611f358261316c565b9050611f4182826131b1565b6005339080600181540180825580915050600190039060005260206000200160009091909190916101000a81548173ffffffffffffffffffffffffffffffffffffffff021916908373ffffffffffffffffffffffffffffffffffffffff1602179055505050565b6060600060058054905067ffffffffffffffff811115611fcb57611fca613ce3565b5b604051908082528060200260200182016040528015611ff95781602001602082028036833780820191505090505b50905060005b6005805490508110156120a557600581815481106120205761201f6144b4565b5b9060005260206000200160009054906101000a900473ffffffffffffffffffffffffffffffffffffffff1682828151811061205e5761205d6144b4565b5b602002602001019073ffffffffffffffffffffffffffffffffffffffff16908173ffffffffffffffffffffffffffffffffffffffff16815250508080600101915050611fff565b508091505090565b60008060009054906101000a900473ffffffffffffffffffffffffffffffffffffffff16905090565b60008060009054906101000a900473ffffffffffffffffffffffffffffffffffffffff1673ffffffffffffffffffffffffffffffffffffffff163373ffffffffffffffffffffffffffffffffffffffff1614905090565b60105481565b60035481565b816006600082815260200190815260200160002060009054906101000a900473ffffffffffffffffffffffffffffffffffffffff1673ffffffffffffffffffffffffffffffffffffffff163373ffffffffffffffffffffffffffffffffffffffff16146121a557600080fd5b6011546010546121b59190614677565b8210156121f7576040517f08c379a00000000000000000000000000000000000000000000000000000000081526004016121ee90614b5f565b60405180910390fd5b60405180604001604052803373ffffffffffffffffffffffffffffffffffffffff168152602001838152506013600085815260200190815260200160002060008201518160000160006101000a81548173ffffffffffffffffffffffffffffffffffffffff021916908373ffffffffffffffffffffffffffffffffffffffff16021790555060208201518160010155905050601283908060018154018082558091505060019003906000526020600020016000909190919091505581837fb03c845c6c9ef1ff8db2c6381cd7ecf8c5623e02bb20e85545f3d04288302e5860405160405180910390a3505050565b60006122ef6120d6565b6122f857600080fd5b47905090565b600a548034101561230e82612b79565b60405160200161231e919061458a565b6040516020818303038152906040529061236e576040517f08c379a00000000000000000000000000000000000000000000000000000000081526004016123659190614169565b60405180910390fd5b506002848160048281548110612387576123866144b4565b5b906000526020600020906004020160030160009054906101000a900463ffffffff1663ffffffff1610156123ba83612b79565b6040516020016123ca9190614c11565b6040516020818303038152906040529061241a576040517f08c379a00000000000000000000000000000000000000000000000000000000081526004016124119190614169565b60405180910390fd5b50856006600082815260200190815260200160002060009054906101000a900473ffffffffffffffffffffffffffffffffffffffff1673ffffffffffffffffffffffffffffffffffffffff163373ffffffffffffffffffffffffffffffffffffffff161461248757600080fd5b85856004898154811061249d5761249c6144b4565b5b906000526020600020906004020160000191826124bb929190614cd4565b5050505050505050565b60095481565b60606000600483815481106124e3576124e26144b4565b5b90600052602060002090600402019050600e6124fe84612b79565b8260000161250f8460010154612b79565b6040516020016125229493929190614e4d565b604051602081830303815290604052915050919050565b6125416120d6565b61254a57600080fd5b8060098190555050565b816006600082815260200190815260200160002060009054906101000a900473ffffffffffffffffffffffffffffffffffffffff1673ffffffffffffffffffffffffffffffffffffffff163373ffffffffffffffffffffffffffffffffffffffff16146125c057600080fd5b6000600484815481106125d6576125d56144b4565b5b906000526020600020906004020190506000600484815481106125fc576125fb6144b4565b5b9060005260206000209060040201905060006126188383613442565b90506000606442338960405160200161263393929190614f12565b6040516020818303038152906040528051906020012060001c6126569190614f4f565b90508181116127ce5783600301600881819054906101000a900461ffff168092919061268190614f80565b91906101000a81548161ffff021916908361ffff1602179055505083600301600081819054906101000a900463ffffffff16809291906126c090614faa565b91906101000a81548163ffffffff021916908363ffffffff1602179055505082600301600a81819054906101000a900461ffff168092919061270190614f80565b91906101000a81548161ffff021916908361ffff160217905550506127258461357e565b61272e8361357e565b60006127748885600101546040518060400160405280600681526020017f7a6f6d62696500000000000000000000000000000000000000000000000000008152506129a0565b90503373ffffffffffffffffffffffffffffffffffffffff167f750a7c18ca7f7bd87c6e50678ea7fa4f64d0cb733bb68cdac552d009737b47168989846040516127c093929190614fd6565b60405180910390a2506128b4565b83600301600a81819054906101000a900461ffff16809291906127f090614f80565b91906101000a81548161ffff021916908361ffff1602179055505082600301600881819054906101000a900461ffff168092919061282d90614f80565b91906101000a81548161ffff021916908361ffff160217905550506128518461357e565b61285a8361357e565b61286384613624565b3373ffffffffffffffffffffffffffffffffffffffff167f4fa78061bb2783669831d2e2aa9ca18cb698e098923982bfada46ceaf1516d6a88886040516128ab92919061500d565b60405180910390a25b50505050505050565b60115481565b600080601360008481526020019081526020016000206040518060400160405290816000820160009054906101000a900473ffffffffffffffffffffffffffffffffffffffff1673ffffffffffffffffffffffffffffffffffffffff1673ffffffffffffffffffffffffffffffffffffffff1681526020016001820154815250509050600073ffffffffffffffffffffffffffffffffffffffff16816000015173ffffffffffffffffffffffffffffffffffffffff161415915050919050565b61298b6120d6565b61299457600080fd5b61299d81613657565b50565b6000836006600082815260200190815260200160002060009054906101000a900473ffffffffffffffffffffffffffffffffffffffff1673ffffffffffffffffffffffffffffffffffffffff163373ffffffffffffffffffffffffffffffffffffffff1614612a0e57600080fd5b600060048681548110612a2457612a236144b4565b5b90600052602060002090600402019050612a3d8161374d565b612a7c576040517f08c379a0000000000000000000000000000000000000000000000000000000008152600401612a7390615082565b60405180910390fd5b60025485612a8a9190614f4f565b945060006002868360010154612aa09190614677565b612aaa9190614710565b9050604051602001612abb906150ee565b6040516020818303038152906040528051906020012085604051602001612ae29190615103565b6040516020818303038152906040528051906020012003612b24576063606482612b0c9190614f4f565b82612b179190614789565b612b219190614677565b90505b612b636040518060400160405280600681526020017f4e6f4e616d650000000000000000000000000000000000000000000000000000815250826131b1565b612b6c82613624565b8093505050509392505050565b606060006001612b8884613774565b01905060008167ffffffffffffffff811115612ba757612ba6613ce3565b5b6040519080825280601f01601f191660200182016040528015612bd95781602001600182028036833780820191505090505b509050600082602001820190505b600115612c3c578080600190039150507f3031323334353637383961626364656600000000000000000000000000000000600a86061a8153600a8581612c3057612c2f6146e1565b5b04945060008503612be7575b819350505050919050565b60606000600760008473ffffffffffffffffffffffffffffffffffffffff1673ffffffffffffffffffffffffffffffffffffffff1681526020019081526020016000205467ffffffffffffffff811115612ca457612ca3613ce3565b5b604051908082528060200260200182016040528015612cd25781602001602082028036833780820191505090505b5090506000805b600480549050811015612d89578473ffffffffffffffffffffffffffffffffffffffff166006600083815260200190815260200160002060009054906101000a900473ffffffffffffffffffffffffffffffffffffffff1673ffffffffffffffffffffffffffffffffffffffff1603612d7c5780838381518110612d6057612d5f6144b4565b5b602002602001018181525050600182612d799190614677565b91505b8080600101915050612cd9565b508192505050919050565b60606000600190505b8251811015612e895760005b81811015612e7b57838181518110612dc457612dc36144b4565b5b602002602001015160400151848381518110612de357612de26144b4565b5b6020026020010151604001511015612e6e576000848381518110612e0a57612e096144b4565b5b60200260200101519050848281518110612e2757612e266144b4565b5b6020026020010151858481518110612e4257612e416144b4565b5b602002602001018190525080858381518110612e6157612e606144b4565b5b6020026020010181905250505b8080600101915050612da9565b508080600101915050612d9d565b50819050919050565b6001600760008473ffffffffffffffffffffffffffffffffffffffff1673ffffffffffffffffffffffffffffffffffffffff16815260200190815260200160002054612ede9190614677565b600760008473ffffffffffffffffffffffffffffffffffffffff1673ffffffffffffffffffffffffffffffffffffffff168152602001908152602001600020819055506001600760008573ffffffffffffffffffffffffffffffffffffffff1673ffffffffffffffffffffffffffffffffffffffff16815260200190815260200160002054612f6d9190614789565b600760008573ffffffffffffffffffffffffffffffffffffffff1673ffffffffffffffffffffffffffffffffffffffff16815260200190815260200160002081905550816006600083815260200190815260200160002060006101000a81548173ffffffffffffffffffffffffffffffffffffffff021916908373ffffffffffffffffffffffffffffffffffffffff160217905550808273ffffffffffffffffffffffffffffffffffffffff168473ffffffffffffffffffffffffffffffffffffffff167fddf252ad1be2c89b69c2b068fc378daa952ba7f163c4a11628f55a4df523b3ef60405160405180910390a4505050565b60136000828152602001908152602001600020600080820160006101000a81549073ffffffffffffffffffffffffffffffffffffffff02191690556001820160009055505060005b6012805490508110156131685781601282815481106130cc576130cb6144b4565b5b90600052602060002001540361315b57601260016012805490506130f09190614789565b81548110613101576131006144b4565b5b9060005260206000200154601282815481106131205761311f6144b4565b5b906000526020600020018190555060128054806131405761313f61511a565b5b60019003818190600052602060002001600090559055613168565b80806001019150506130aa565b5050565b600080826040516020016131809190615103565b6040516020818303038152906040528051906020012060001c9050600254816131a99190614f4f565b915050919050565b60046040518060e0016040528084815260200183815260200160008152602001600163ffffffff168152602001600354426131ec9190614677565b63ffffffff168152602001600061ffff168152602001600061ffff16815250908060018154018082558091505060019003906000526020600020906004020160009091909190915060008201518160000190816132499190614969565b50602082015181600101556040820151816002015560608201518160030160006101000a81548163ffffffff021916908363ffffffff16021790555060808201518160030160046101000a81548163ffffffff021916908363ffffffff16021790555060a08201518160030160086101000a81548161ffff021916908361ffff16021790555060c082015181600301600a6101000a81548161ffff021916908361ffff1602179055505050600060016004805490506133089190614789565b9050336006600083815260200190815260200160002060006101000a81548173ffffffffffffffffffffffffffffffffffffffff021916908373ffffffffffffffffffffffffffffffffffffffff1602179055506001600760003373ffffffffffffffffffffffffffffffffffffffff1673ffffffffffffffffffffffffffffffffffffffff168152602001908152602001600020546133a89190614677565b600760003373ffffffffffffffffffffffffffffffffffffffff1673ffffffffffffffffffffffffffffffffffffffff168152602001908152602001600020819055503373ffffffffffffffffffffffffffffffffffffffff167ff92b1ba4cb9ae7683c3a3a1e58273b24013547531f590e32910f3105e8349e1f82858560405161343593929190615149565b60405180910390a2505050565b600080600d54905060008360030160009054906101000a900463ffffffff168560030160009054906101000a900463ffffffff166134809190615194565b905060008160030b13156134b35760028161349b91906151f0565b63ffffffff16826134ac9190614677565b91506134ea565b60008160030b12156134e9576002816134cb9061522d565b6134d591906151f0565b63ffffffff16826134e69190614789565b91505b5b6000806134fa87600101546138c7565b5091509150600061350e87600101546138c7565b925050506000600a82846002876135259190615275565b61352f9190614677565b6135399190614789565b6135439190614710565b905080866135519190614677565b9550605a86111561356157605a95505b601e86101561356f57601e95505b85965050505050505092915050565b6000600382600301600a9054906101000a900461ffff1661359f91906152b7565b61ffff1660058360030160089054906101000a900461ffff166135c291906152b7565b61ffff16600a8460030160009054906101000a900463ffffffff166135e791906151f0565b6135f191906145df565b6135fb91906152f4565b9050600a8163ffffffff16101561361157600a90505b8063ffffffff1682600201819055505050565b600354426136329190614677565b8160030160046101000a81548163ffffffff021916908363ffffffff16021790555050565b600073ffffffffffffffffffffffffffffffffffffffff168173ffffffffffffffffffffffffffffffffffffffff160361369057600080fd5b8073ffffffffffffffffffffffffffffffffffffffff1660008054906101000a900473ffffffffffffffffffffffffffffffffffffffff1673ffffffffffffffffffffffffffffffffffffffff167f8be0079c531659141344cd1fd0a4f28419497f9722a3daafe3b4186f6b6457e060405160405180910390a3806000806101000a81548173ffffffffffffffffffffffffffffffffffffffff021916908373ffffffffffffffffffffffffffffffffffffffff16021790555050565b6000428260030160049054906101000a900463ffffffff1663ffffffff1611159050919050565b600080600090507a184f03e93ff9f4daa797ed6e38ed64bf6a1f01000000000000000083106137d2577a184f03e93ff9f4daa797ed6e38ed64bf6a1f01000000000000000083816137c8576137c76146e1565b5b0492506040810190505b6d04ee2d6d415b85acef8100000000831061380f576d04ee2d6d415b85acef81000000008381613805576138046146e1565b5b0492506020810190505b662386f26fc10000831061383e57662386f26fc100008381613834576138336146e1565b5b0492506010810190505b6305f5e1008310613867576305f5e100838161385d5761385c6146e1565b5b0492506008810190505b612710831061388c576127108381613882576138816146e1565b5b0492506004810190505b606483106138af57606483816138a5576138a46146e1565b5b0492506002810190505b600a83106138be576001810190505b80915050919050565b6000806000806032856138da9190614f4f565b60326138e69190614677565b9050600060326064876138f99190614710565b6139039190614f4f565b603261390f9190614677565b905060006032612710886139239190614710565b61392d9190614f4f565b60326139399190614677565b90508282829550955095505050509193909250565b6040518060c00160405280600073ffffffffffffffffffffffffffffffffffffffff168152602001600081526020016000815260200160008152602001600061ffff168152602001600061ffff1681525090565b6040518060600160405280600073ffffffffffffffffffffffffffffffffffffffff16815260200160008152602001600081525090565b6000604051905090565b600080fd5b600080fd5b6000819050919050565b613a00816139ed565b8114613a0b57600080fd5b50565b600081359050613a1d816139f7565b92915050565b600080600060608486031215613a3c57613a3b6139e3565b5b6000613a4a86828701613a0e565b9350506020613a5b86828701613a0e565b9250506040613a6c86828701613a0e565b9150509250925092565b600073ffffffffffffffffffffffffffffffffffffffff82169050919050565b6000613aa182613a76565b9050919050565b613ab181613a96565b8114613abc57600080fd5b50565b600081359050613ace81613aa8565b92915050565b60008060408385031215613aeb57613aea6139e3565b5b6000613af985828601613abf565b9250506020613b0a85828601613a0e565b9150509250929050565b600060208284031215613b2a57613b296139e3565b5b6000613b3884828501613a0e565b91505092915050565b600081519050919050565b600082825260208201905092915050565b6000819050602082019050919050565b613b7681613a96565b82525050565b613b85816139ed565b82525050565b600061ffff82169050919050565b613ba281613b8b565b82525050565b60c082016000820151613bbe6000850182613b6d565b506020820151613bd16020850182613b7c565b506040820151613be46040850182613b7c565b506060820151613bf76060850182613b7c565b506080820151613c0a6080850182613b99565b5060a0820151613c1d60a0850182613b99565b50505050565b6000613c2f8383613ba8565b60c08301905092915050565b6000602082019050919050565b6000613c5382613b41565b613c5d8185613b4c565b9350613c6883613b5d565b8060005b83811015613c99578151613c808882613c23565b9750613c8b83613c3b565b925050600181019050613c6c565b5085935050505092915050565b60006020820190508181036000830152613cc08184613c48565b905092915050565b600080fd5b600080fd5b6000601f19601f8301169050919050565b7f4e487b7100000000000000000000000000000000000000000000000000000000600052604160045260246000fd5b613d1b82613cd2565b810181811067ffffffffffffffff82111715613d3a57613d39613ce3565b5b80604052505050565b6000613d4d6139d9565b9050613d598282613d12565b919050565b600067ffffffffffffffff821115613d7957613d78613ce3565b5b613d8282613cd2565b9050602081019050919050565b82818337600083830152505050565b6000613db1613dac84613d5e565b613d43565b905082815260208101848484011115613dcd57613dcc613ccd565b5b613dd8848285613d8f565b509392505050565b600082601f830112613df557613df4613cc8565b5b8135613e05848260208601613d9e565b91505092915050565b600060208284031215613e2457613e236139e3565b5b600082013567ffffffffffffffff811115613e4257613e416139e8565b5b613e4e84828501613de0565b91505092915050565b600081519050919050565b600082825260208201905092915050565b60005b83811015613e91578082015181840152602081019050613e76565b60008484015250505050565b6000613ea882613e57565b613eb28185613e62565b9350613ec2818560208601613e73565b613ecb81613cd2565b840191505092915050565b613edf816139ed565b82525050565b600063ffffffff82169050919050565b613efe81613ee5565b82525050565b613f0d81613b8b565b82525050565b600060e0820190508181036000830152613f2d818a613e9d565b9050613f3c6020830189613ed6565b613f496040830188613ed6565b613f566060830187613ef5565b613f636080830186613ef5565b613f7060a0830185613f04565b613f7d60c0830184613f04565b98975050505050505050565b600080600060608486031215613fa257613fa16139e3565b5b6000613fb086828701613abf565b9350506020613fc186828701613abf565b9250506040613fd286828701613a0e565b9150509250925092565b600060208284031215613ff257613ff16139e3565b5b600061400084828501613abf565b91505092915050565b600081519050919050565b600082825260208201905092915050565b6000819050602082019050919050565b60006140418383613b7c565b60208301905092915050565b6000602082019050919050565b600061406582614009565b61406f8185614014565b935061407a83614025565b8060005b838110156140ab5781516140928882614035565b975061409d8361404d565b92505060018101905061407e565b5085935050505092915050565b600060208201905081810360008301526140d2818461405a565b905092915050565b60006140e582613a76565b9050919050565b6140f5816140da565b82525050565b600060408201905061411060008301856140ec565b61411d6020830184613ed6565b9392505050565b60006020820190506141396000830184613ed6565b92915050565b61414881613a96565b82525050565b6000602082019050614163600083018461413f565b92915050565b600060208201905081810360008301526141838184613e9d565b905092915050565b600080604083850312156141a2576141a16139e3565b5b60006141b085828601613a0e565b92505060206141c185828601613a0e565b9150509250929050565b600081519050919050565b600082825260208201905092915050565b6000819050602082019050919050565b614200816140da565b82525050565b60608201600082015161421c60008501826141f7565b50602082015161422f6020850182613b7c565b5060408201516142426040850182613b7c565b50505050565b60006142548383614206565b60608301905092915050565b6000602082019050919050565b6000614278826141cb565b61428281856141d6565b935061428d836141e7565b8060005b838110156142be5781516142a58882614248565b97506142b083614260565b925050600181019050614291565b5085935050505092915050565b600060208201905081810360008301526142e5818461426d565b905092915050565b600081519050919050565b600082825260208201905092915050565b6000819050602082019050919050565b60006143258383613b6d565b60208301905092915050565b6000602082019050919050565b6000614349826142ed565b61435381856142f8565b935061435e83614309565b8060005b8381101561438f5781516143768882614319565b975061438183614331565b925050600181019050614362565b5085935050505092915050565b600060208201905081810360008301526143b6818461433e565b905092915050565b60008115159050919050565b6143d3816143be565b82525050565b60006020820190506143ee60008301846143ca565b92915050565b600080fd5b600080fd5b60008083601f84011261441457614413613cc8565b5b8235905067ffffffffffffffff811115614431576144306143f4565b5b60208301915083600182028301111561444d5761444c6143f9565b5b9250929050565b60008060006040848603121561446d5761446c6139e3565b5b600061447b86828701613a0e565b935050602084013567ffffffffffffffff81111561449c5761449b6139e8565b5b6144a8868287016143fe565b92509250509250925092565b7f4e487b7100000000000000000000000000000000000000000000000000000000600052603260045260246000fd5b60006080820190506144f86000830187613ed6565b6145056020830186613ed6565b6145126040830185613ed6565b61451f6060830184613ed6565b95945050505050565b7f5072696365206d696e696d756d20697320000000000000000000000000000000815250565b600081905092915050565b600061456482613e57565b61456e818561454e565b935061457e818560208601613e73565b80840191505092915050565b600061459582614528565b6011820191506145a58284614559565b915081905092915050565b7f4e487b7100000000000000000000000000000000000000000000000000000000600052601160045260246000fd5b60006145ea82613ee5565b91506145f583613ee5565b9250828201905063ffffffff811115614611576146106145b0565b5b92915050565b7f4e487b7100000000000000000000000000000000000000000000000000000000600052602260045260246000fd5b6000600282049050600182168061465e57607f821691505b60208210810361467157614670614617565b5b50919050565b6000614682826139ed565b915061468d836139ed565b92508282019050808211156146a5576146a46145b0565b5b92915050565b60006146b682613b8b565b91506146c183613b8b565b9250828201905061ffff8111156146db576146da6145b0565b5b92915050565b7f4e487b7100000000000000000000000000000000000000000000000000000000600052601260045260246000fd5b600061471b826139ed565b9150614726836139ed565b925082614736576147356146e1565b5b828204905092915050565b600061474c826139ed565b91507fffffffffffffffffffffffffffffffffffffffffffffffffffffffffffffffff820361477e5761477d6145b0565b5b600182019050919050565b6000614794826139ed565b915061479f836139ed565b92508282039050818111156147b7576147b66145b0565b5b92915050565b60008190508160005260206000209050919050565b60006020601f8301049050919050565b600082821b905092915050565b60006008830261481f7fffffffffffffffffffffffffffffffffffffffffffffffffffffffffffffffff826147e2565b61482986836147e2565b95508019841693508086168417925050509392505050565b6000819050919050565b600061486661486161485c846139ed565b614841565b6139ed565b9050919050565b6000819050919050565b6148808361484b565b61489461488c8261486d565b8484546147ef565b825550505050565b600090565b6148a961489c565b6148b4818484614877565b505050565b5b818110156148d8576148cd6000826148a1565b6001810190506148ba565b5050565b601f82111561491d576148ee816147bd565b6148f7846147d2565b81016020851015614906578190505b61491a614912856147d2565b8301826148b9565b50505b505050565b600082821c905092915050565b600061494060001984600802614922565b1980831691505092915050565b6000614959838361492f565b9150826002028217905092915050565b61497282613e57565b67ffffffffffffffff81111561498b5761498a613ce3565b5b6149958254614646565b6149a08282856148dc565b600060209050601f8311600181146149d357600084156149c1578287015190505b6149cb858261494d565b865550614a33565b601f1984166149e1866147bd565b60005b82811015614a09578489015182556001820191506020850194506020810190506149e4565b86831015614a265784890151614a22601f89168261492f565b8355505b6001600288020188555050505b505050505050565b7f5a6f6d62696520617265206e6f74206f6e2073616c6500000000000000000000600082015250565b6000614a71601683613e62565b9150614a7c82614a3b565b602082019050919050565b60006020820190508181036000830152614aa081614a64565b9050919050565b7f43616e2774206275792c20796f7520617265207468652073656c6c6572000000600082015250565b6000614add601d83613e62565b9150614ae882614aa7565b602082019050919050565b60006020820190508181036000830152614b0c81614ad0565b9050919050565b7f596f757220707269636520697320746f6f206c6f770000000000000000000000600082015250565b6000614b49601583613e62565b9150614b5482614b13565b602082019050919050565b60006020820190508181036000830152614b7881614b3c565b9050919050565b7f596f7520617265206e6f74206f776e6572206f7220617070726f7665642e0000600082015250565b6000614bb5601e83613e62565b9150614bc082614b7f565b602082019050919050565b60006020820190508181036000830152614be481614ba8565b9050919050565b7f4c6576656c206d696e696d756d20697320000000000000000000000000000000815250565b6000614c1c82614beb565b601182019150614c2c8284614559565b915081905092915050565b7f596f752063616e206f6e6c7920637265617465206f6e65207a6f6d626965207060008201527f6572206163636f756e7400000000000000000000000000000000000000000000602082015250565b6000614c93602a83613e62565b9150614c9e82614c37565b604082019050919050565b60006020820190508181036000830152614cc281614c86565b9050919050565b600082905092915050565b614cde8383614cc9565b67ffffffffffffffff811115614cf757614cf6613ce3565b5b614d018254614646565b614d0c8282856148dc565b6000601f831160018114614d3b5760008415614d29578287013590505b614d33858261494d565b865550614d9b565b601f198416614d49866147bd565b60005b82811015614d7157848901358255600182019150602085019450602081019050614d4c565b86831015614d8e5784890135614d8a601f89168261492f565b8355505b6001600288020188555050505b50505050505050565b60008154614db181614646565b614dbb818661454e565b94506001821660008114614dd65760018114614deb57614e1e565b60ff1983168652811515820286019350614e1e565b614df4856147bd565b60005b83811015614e1657815481890152600182019150602081019050614df7565b838801955050505b50505092915050565b7f2f00000000000000000000000000000000000000000000000000000000000000815250565b6000614e598287614da4565b9150614e658286614559565b9150614e7082614e27565b600182019150614e808285614da4565b9150614e8b82614e27565b600182019150614e9b8284614559565b915081905095945050505050565b6000819050919050565b614ec4614ebf826139ed565b614ea9565b82525050565b60008160601b9050919050565b6000614ee282614eca565b9050919050565b6000614ef482614ed7565b9050919050565b614f0c614f0782613a96565b614ee9565b82525050565b6000614f1e8286614eb3565b602082019150614f2e8285614efb565b601482019150614f3e8284614eb3565b602082019150819050949350505050565b6000614f5a826139ed565b9150614f65836139ed565b925082614f7557614f746146e1565b5b828206905092915050565b6000614f8b82613b8b565b915061ffff8203614f9f57614f9e6145b0565b5b600182019050919050565b6000614fb582613ee5565b915063ffffffff8203614fcb57614fca6145b0565b5b600182019050919050565b6000606082019050614feb6000830186613ed6565b614ff86020830185613ed6565b6150056040830184613ed6565b949350505050565b60006040820190506150226000830185613ed6565b61502f6020830184613ed6565b9392505050565b7f5a6f6d626965206973206e6f7420726561647920746f20666565640000000000600082015250565b600061506c601b83613e62565b915061507782615036565b602082019050919050565b6000602082019050818103600083015261509b8161505f565b9050919050565b7f6b69747479000000000000000000000000000000000000000000000000000000600082015250565b60006150d860058361454e565b91506150e3826150a2565b600582019050919050565b60006150f9826150cb565b9150819050919050565b600061510f8284614559565b915081905092915050565b7f4e487b7100000000000000000000000000000000000000000000000000000000600052603160045260246000fd5b600060608201905061515e6000830186613ed6565b81810360208301526151708185613e9d565b905061517f6040830184613ed6565b949350505050565b60008160030b9050919050565b600061519f82615187565b91506151aa83615187565b92508282039050637fffffff81137fffffffffffffffffffffffffffffffffffffffffffffffffffffffff80000000821217156151ea576151e96145b0565b5b92915050565b60006151fb82613ee5565b915061520683613ee5565b925082820261521481613ee5565b9150808214615226576152256145b0565b5b5092915050565b600061523882615187565b91507fffffffffffffffffffffffffffffffffffffffffffffffffffffffff80000000820361526a576152696145b0565b5b816000039050919050565b6000615280826139ed565b915061528b836139ed565b9250828202615299816139ed565b915082820484148315176152b0576152af6145b0565b5b5092915050565b60006152c282613b8b565b91506152cd83613b8b565b92508282026152db81613b8b565b91508082146152ed576152ec6145b0565b5b5092915050565b60006152ff82613ee5565b915061530a83613ee5565b9250828203905063ffffffff811115615326576153256145b0565b5b9291505056fea26469706673582212204b7b958051b0e2620e55f247506aa078d9dd68dd4674671b8437cb421a5ac0a364736f6c634300081c0033687474703a2f2f6c6f63616c686f73743a333333332f7a6f6d6269652f7572692f",
  "linkReferences": {},
  "deployedLinkReferences": {}
}