{
  "_format": "hh-sol-artifact-1",
  "contractName": "CryptozombiesBattleRanking",
  "sourceName": "contracts/cryptozombiesBattleRanking/CryptozombiesBattleRanking.sol",
  "abi": [
    {
      "inputs": [
        {
          "internalType": "address",
          "name": "_cryptozombiesBattleContractAddress",
          "type": "address"
        }
      ],
      "stateMutability": "nonpayable",
      "type": "constructor"
    },
    {
      "anonymous": false,
      "inputs": [
        {
          "indexed": true,
          "internalType": "address",
          "name": "previousOwner",
          "type": "address"
        },
        {
          "indexed": true,
          "internalType": "address",
          "name": "newOwner",
          "type": "address"
        }
      ],
      "name": "OwnershipTransferred",
      "type": "event"
    },
    {
      "inputs": [],
      "name": "getRanking",
      "outputs": [
        {
          "components": [
            {
              "internalType": "address",
              "name": "account",
              "type": "address"
            },
            {
              "internalType": "uint256",
              "name": "position",
              "type": "uint256"
            },
            {
              "internalType": "uint256",
              "name": "score",
              "type": "uint256"
            },
            {
              "internalType": "uint256",
              "name": "zombieCount",
              "type": "uint256"
            },
            {
              "internalType": "uint16",
              "name": "winCount",
              "type": "uint16"
            },
            {
              "internalType": "uint16",
              "name": "lossCount",
              "type": "uint16"
            }
          ],
          "internalType": "struct CryptozombiesBattleRanking.Ranking[]",
          "name": "",
          "type": "tuple[]"
        }
      ],
      "stateMutability": "view",
      "type": "function"
    },
    {
      "inputs": [],
      "name": "isOwner",
      "outputs": [
        {
          "internalType": "bool",
          "name": "",
          "type": "bool"
        }
      ],
      "stateMutability": "view",
      "type": "function"
    },
    {
      "inputs": [],
      "name": "owner",
      "outputs": [
        {
          "internalType": "address",
          "name": "",
          "type": "address"
        }
      ],
      "stateMutability": "view",
      "type": "function"
    },
    {
      "inputs": [],
      "name": "renounceOwnership",
      "outputs": [],
      "stateMutability": "nonpayable",
      "type": "function"
    },
    {
      "inputs": [
        {
          "internalType": "address",
          "name": "_address",
          "type": "address"
        }
      ],
      "name": "setCryptozombiesBattleContractAddress",
      "outputs": [],
      "stateMutability": "nonpayable",
      "type": "function"
    },
    {
      "inputs": [
        {
          "internalType": "address",
          "name": "newOwner",
          "type": "address"
        }
      ],
      "name": "transferOwnership",
      "outputs": [],
      "stateMutability": "nonpayable",
      "type": "function"
    }
  ],
  "bytecode": "0x608060405234801561001057600080fd5b506040516116a83803806116a883398181016040528101906100329190610197565b336000806101000a81548173ffffffffffffffffffffffffffffffffffffffff021916908373ffffffffffffffffffffffffffffffffffffffff16021790555060008054906101000a900473ffffffffffffffffffffffffffffffffffffffff1673ffffffffffffffffffffffffffffffffffffffff16600073ffffffffffffffffffffffffffffffffffffffff167f8be0079c531659141344cd1fd0a4f28419497f9722a3daafe3b4186f6b6457e060405160405180910390a380600160006101000a81548173ffffffffffffffffffffffffffffffffffffffff021916908373ffffffffffffffffffffffffffffffffffffffff160217905550506101c4565b600080fd5b600073ffffffffffffffffffffffffffffffffffffffff82169050919050565b600061016482610139565b9050919050565b61017481610159565b811461017f57600080fd5b50565b6000815190506101918161016b565b92915050565b6000602082840312156101ad576101ac610134565b5b60006101bb84828501610182565b91505092915050565b6114d5806101d36000396000f3fe608060405234801561001057600080fd5b50600436106100625760003560e01c80631398bbf71461006757806347ada6f614610085578063715018a6146100a15780638da5cb5b146100ab5780638f32d59b146100c9578063f2fde38b146100e7575b600080fd5b61006f610103565b60405161007c9190610cc0565b60405180910390f35b61009f600480360381019061009a9190610d22565b610716565b005b6100a961076b565b005b6100b361083a565b6040516100c09190610d5e565b60405180910390f35b6100d1610863565b6040516100de9190610d94565b60405180910390f35b61010160048036038101906100fc9190610d22565b6108ba565b005b606060003390506000600160009054906101000a900473ffffffffffffffffffffffffffffffffffffffff1673ffffffffffffffffffffffffffffffffffffffff16638a48ac036040518163ffffffff1660e01b8152600401600060405180830381865afa158015610179573d6000803e3d6000fd5b505050506040513d6000823e3d601f19601f820116820180604052508101906101a29190610f1d565b905060008151905060008167ffffffffffffffff8111156101c6576101c5610dc5565b5b6040519080825280602002602001820160405280156101ff57816020015b6101ec610acb565b8152602001906001900390816101e45790505b50905060006014905060005b8381101561046b57600085828151811061022857610227610f66565b5b602002602001015190506000600160009054906101000a900473ffffffffffffffffffffffffffffffffffffffff1673ffffffffffffffffffffffffffffffffffffffff16634412e104836040518263ffffffff1660e01b815260040161028f9190610d5e565b600060405180830381865afa1580156102ac573d6000803e3d6000fd5b505050506040513d6000823e3d601f19601f820116820180604052508101906102d59190611084565b90506000806000805b84518110156103ee576000806000600160009054906101000a900473ffffffffffffffffffffffffffffffffffffffff1673ffffffffffffffffffffffffffffffffffffffff16632052465e89868151811061033d5761033c610f66565b5b60200260200101516040518263ffffffff1660e01b815260040161036191906110dc565b600060405180830381865afa15801561037e573d6000803e3d6000fd5b505050506040513d6000823e3d601f19601f820116820180604052508101906103a7919061122f565b5098509850505050509450505082876103c09190611359565b965081866103ce919061138d565b955080856103dc919061138d565b945050505080806001019150506102de565b506040518060c001604052808673ffffffffffffffffffffffffffffffffffffffff168152602001878152602001848152602001855181526020018361ffff1681526020018261ffff1681525088878151811061044e5761044d610f66565b5b60200260200101819052505050505050808060010191505061020b565b50610475826108d7565b508082511161048b578195505050505050610713565b60008167ffffffffffffffff8111156104a7576104a6610dc5565b5b6040519080825280602002602001820160405280156104e057816020015b6104cd610acb565b8152602001906001900390816104c55790505b5090506000806002846104f391906113f2565b905060005b818110156105525785818151811061051357610512610f66565b5b602002602001015184848061052790611423565b95508151811061053a57610539610f66565b5b602002602001018190525080806001019150506104f8565b5060006001856105629190611359565b8761056d919061146b565b905060008190505b878110801561058357508584105b156105e05786818151811061059b5761059a610f66565b5b60200260200101518585806105af90611423565b9650815181106105c2576105c1610f66565b5b602002602001018190525080806105d890611423565b915050610575565b506000805b84811015610654578a73ffffffffffffffffffffffffffffffffffffffff1686828151811061061757610616610f66565b5b60200260200101516000015173ffffffffffffffffffffffffffffffffffffffff16036106475760019150610654565b80806001019150506105e5565b50806107055760005b8751811015610703578a73ffffffffffffffffffffffffffffffffffffffff168882815181106106905761068f610f66565b5b60200260200101516000015173ffffffffffffffffffffffffffffffffffffffff16036106f6578781815181106106ca576106c9610f66565b5b602002602001015186600a815181106106e6576106e5610f66565b5b6020026020010181905250610703565b808060010191505061065d565b505b849a50505050505050505050505b90565b61071e610863565b61072757600080fd5b80600160006101000a81548173ffffffffffffffffffffffffffffffffffffffff021916908373ffffffffffffffffffffffffffffffffffffffff16021790555050565b610773610863565b61077c57600080fd5b600073ffffffffffffffffffffffffffffffffffffffff1660008054906101000a900473ffffffffffffffffffffffffffffffffffffffff1673ffffffffffffffffffffffffffffffffffffffff167f8be0079c531659141344cd1fd0a4f28419497f9722a3daafe3b4186f6b6457e060405160405180910390a360008060006101000a81548173ffffffffffffffffffffffffffffffffffffffff021916908373ffffffffffffffffffffffffffffffffffffffff160217905550565b60008060009054906101000a900473ffffffffffffffffffffffffffffffffffffffff16905090565b60008060009054906101000a900473ffffffffffffffffffffffffffffffffffffffff1673ffffffffffffffffffffffffffffffffffffffff163373ffffffffffffffffffffffffffffffffffffffff1614905090565b6108c2610863565b6108cb57600080fd5b6108d4816109d5565b50565b60606000600190505b82518110156109cc5760005b818110156109be5783818151811061090757610906610f66565b5b60200260200101516040015184838151811061092657610925610f66565b5b60200260200101516040015110156109b157600084838151811061094d5761094c610f66565b5b6020026020010151905084828151811061096a57610969610f66565b5b602002602001015185848151811061098557610984610f66565b5b6020026020010181905250808583815181106109a4576109a3610f66565b5b6020026020010181905250505b80806001019150506108ec565b5080806001019150506108e0565b50819050919050565b600073ffffffffffffffffffffffffffffffffffffffff168173ffffffffffffffffffffffffffffffffffffffff1603610a0e57600080fd5b8073ffffffffffffffffffffffffffffffffffffffff1660008054906101000a900473ffffffffffffffffffffffffffffffffffffffff1673ffffffffffffffffffffffffffffffffffffffff167f8be0079c531659141344cd1fd0a4f28419497f9722a3daafe3b4186f6b6457e060405160405180910390a3806000806101000a81548173ffffffffffffffffffffffffffffffffffffffff021916908373ffffffffffffffffffffffffffffffffffffffff16021790555050565b6040518060c00160405280600073ffffffffffffffffffffffffffffffffffffffff168152602001600081526020016000815260200160008152602001600061ffff168152602001600061ffff1681525090565b600081519050919050565b600082825260208201905092915050565b6000819050602082019050919050565b600073ffffffffffffffffffffffffffffffffffffffff82169050919050565b6000610b7682610b4b565b9050919050565b610b8681610b6b565b82525050565b6000819050919050565b610b9f81610b8c565b82525050565b600061ffff82169050919050565b610bbc81610ba5565b82525050565b60c082016000820151610bd86000850182610b7d565b506020820151610beb6020850182610b96565b506040820151610bfe6040850182610b96565b506060820151610c116060850182610b96565b506080820151610c246080850182610bb3565b5060a0820151610c3760a0850182610bb3565b50505050565b6000610c498383610bc2565b60c08301905092915050565b6000602082019050919050565b6000610c6d82610b1f565b610c778185610b2a565b9350610c8283610b3b565b8060005b83811015610cb3578151610c9a8882610c3d565b9750610ca583610c55565b925050600181019050610c86565b5085935050505092915050565b60006020820190508181036000830152610cda8184610c62565b905092915050565b6000604051905090565b600080fd5b600080fd5b610cff81610b6b565b8114610d0a57600080fd5b50565b600081359050610d1c81610cf6565b92915050565b600060208284031215610d3857610d37610cec565b5b6000610d4684828501610d0d565b91505092915050565b610d5881610b6b565b82525050565b6000602082019050610d736000830184610d4f565b92915050565b60008115159050919050565b610d8e81610d79565b82525050565b6000602082019050610da96000830184610d85565b92915050565b600080fd5b6000601f19601f8301169050919050565b7f4e487b7100000000000000000000000000000000000000000000000000000000600052604160045260246000fd5b610dfd82610db4565b810181811067ffffffffffffffff82111715610e1c57610e1b610dc5565b5b80604052505050565b6000610e2f610ce2565b9050610e3b8282610df4565b919050565b600067ffffffffffffffff821115610e5b57610e5a610dc5565b5b602082029050602081019050919050565b600080fd5b600081519050610e8081610cf6565b92915050565b6000610e99610e9484610e40565b610e25565b90508083825260208201905060208402830185811115610ebc57610ebb610e6c565b5b835b81811015610ee55780610ed18882610e71565b845260208401935050602081019050610ebe565b5050509392505050565b600082601f830112610f0457610f03610daf565b5b8151610f14848260208601610e86565b91505092915050565b600060208284031215610f3357610f32610cec565b5b600082015167ffffffffffffffff811115610f5157610f50610cf1565b5b610f5d84828501610eef565b91505092915050565b7f4e487b7100000000000000000000000000000000000000000000000000000000600052603260045260246000fd5b600067ffffffffffffffff821115610fb057610faf610dc5565b5b602082029050602081019050919050565b610fca81610b8c565b8114610fd557600080fd5b50565b600081519050610fe781610fc1565b92915050565b6000611000610ffb84610f95565b610e25565b9050808382526020820190506020840283018581111561102357611022610e6c565b5b835b8181101561104c57806110388882610fd8565b845260208401935050602081019050611025565b5050509392505050565b600082601f83011261106b5761106a610daf565b5b815161107b848260208601610fed565b91505092915050565b60006020828403121561109a57611099610cec565b5b600082015167ffffffffffffffff8111156110b8576110b7610cf1565b5b6110c484828501611056565b91505092915050565b6110d681610b8c565b82525050565b60006020820190506110f160008301846110cd565b92915050565b600080fd5b600067ffffffffffffffff82111561111757611116610dc5565b5b61112082610db4565b9050602081019050919050565b60005b8381101561114b578082015181840152602081019050611130565b60008484015250505050565b600061116a611165846110fc565b610e25565b905082815260208101848484011115611186576111856110f7565b5b61119184828561112d565b509392505050565b600082601f8301126111ae576111ad610daf565b5b81516111be848260208601611157565b91505092915050565b600063ffffffff82169050919050565b6111e0816111c7565b81146111eb57600080fd5b50565b6000815190506111fd816111d7565b92915050565b61120c81610ba5565b811461121757600080fd5b50565b60008151905061122981611203565b92915050565b6000806000806000806000806000806101408b8d03121561125357611252610cec565b5b60008b015167ffffffffffffffff81111561127157611270610cf1565b5b61127d8d828e01611199565b9a5050602061128e8d828e01610fd8565b995050604061129f8d828e01610fd8565b98505060606112b08d828e016111ee565b97505060806112c18d828e016111ee565b96505060a06112d28d828e016111ee565b95505060c06112e38d828e016111ee565b94505060e06112f48d828e0161121a565b9350506101006113068d828e0161121a565b9250506101206113188d828e0161121a565b9150509295989b9194979a5092959850565b7f4e487b7100000000000000000000000000000000000000000000000000000000600052601160045260246000fd5b600061136482610b8c565b915061136f83610b8c565b92508282019050808211156113875761138661132a565b5b92915050565b600061139882610ba5565b91506113a383610ba5565b9250828201905061ffff8111156113bd576113bc61132a565b5b92915050565b7f4e487b7100000000000000000000000000000000000000000000000000000000600052601260045260246000fd5b60006113fd82610b8c565b915061140883610b8c565b925082611418576114176113c3565b5b828204905092915050565b600061142e82610b8c565b91507fffffffffffffffffffffffffffffffffffffffffffffffffffffffffffffffff82036114605761145f61132a565b5b600182019050919050565b600061147682610b8c565b915061148183610b8c565b92508282039050818111156114995761149861132a565b5b9291505056fea2646970667358221220883bee656f230b3e65d616b15ba1375b8992225ab69bef62addd08d1dca4d53c64736f6c634300081c0033",
  "linkReferences": {},
  "deployedLinkReferences": {}
}