{
  "_format": "hh-sol-artifact-1",
  "contractName": "CryptoZombies",
  "sourceName": "contracts/CryptoZombies.sol",
  "abi": [
    {
      "anonymous": false,
      "inputs": [
        {
          "indexed": true,
          "internalType": "address",
          "name": "_owner",
          "type": "address"
        },
        {
          "indexed": true,
          "internalType": "address",
          "name": "_approved",
          "type": "address"
        },
        {
          "indexed": true,
          "internalType": "uint256",
          "name": "_tokenId",
          "type": "uint256"
        }
      ],
      "name": "Approval",
      "type": "event"
    },
    {
      "anonymous": false,
      "inputs": [
        {
          "indexed": true,
          "internalType": "uint256",
          "name": "zombieId",
          "type": "uint256"
        },
        {
          "indexed": true,
          "internalType": "address",
          "name": "buyer",
          "type": "address"
        },
        {
          "indexed": true,
          "internalType": "address",
          "name": "seller",
          "type": "address"
        }
      ],
      "name": "BuyShopZombie",
      "type": "event"
    },
    {
      "anonymous": false,
      "inputs": [
        {
          "indexed": true,
          "internalType": "address",
          "name": "from",
          "type": "address"
        },
        {
          "indexed": false,
          "internalType": "uint256",
          "name": "zombieId",
          "type": "uint256"
        },
        {
          "indexed": false,
          "internalType": "string",
          "name": "name",
          "type": "string"
        },
        {
          "indexed": false,
          "internalType": "uint256",
          "name": "dna",
          "type": "uint256"
        }
      ],
      "name": "NewZombie",
      "type": "event"
    },
    {
      "anonymous": false,
      "inputs": [
        {
          "indexed": true,
          "internalType": "address",
          "name": "previousOwner",
          "type": "address"
        },
        {
          "indexed": true,
          "internalType": "address",
          "name": "newOwner",
          "type": "address"
        }
      ],
      "name": "OwnershipTransferred",
      "type": "event"
    },
    {
      "anonymous": false,
      "inputs": [
        {
          "indexed": true,
          "internalType": "uint256",
          "name": "zombieId",
          "type": "uint256"
        },
        {
          "indexed": true,
          "internalType": "uint256",
          "name": "price",
          "type": "uint256"
        }
      ],
      "name": "SaleZombie",
      "type": "event"
    },
    {
      "anonymous": false,
      "inputs": [
        {
          "indexed": true,
          "internalType": "address",
          "name": "_from",
          "type": "address"
        },
        {
          "indexed": true,
          "internalType": "address",
          "name": "_to",
          "type": "address"
        },
        {
          "indexed": true,
          "internalType": "uint256",
          "name": "_tokenId",
          "type": "uint256"
        }
      ],
      "name": "Transfer",
      "type": "event"
    },
    {
      "anonymous": false,
      "inputs": [
        {
          "indexed": true,
          "internalType": "address",
          "name": "from",
          "type": "address"
        },
        {
          "indexed": false,
          "internalType": "uint256",
          "name": "fromId",
          "type": "uint256"
        },
        {
          "indexed": false,
          "internalType": "uint256",
          "name": "targetId",
          "type": "uint256"
        }
      ],
      "name": "onAttackDefeat",
      "type": "event"
    },
    {
      "anonymous": false,
      "inputs": [
        {
          "indexed": true,
          "internalType": "address",
          "name": "from",
          "type": "address"
        },
        {
          "indexed": false,
          "internalType": "uint256",
          "name": "fromId",
          "type": "uint256"
        },
        {
          "indexed": false,
          "internalType": "uint256",
          "name": "targetId",
          "type": "uint256"
        },
        {
          "indexed": false,
          "internalType": "uint256",
          "name": "newDna",
          "type": "uint256"
        }
      ],
      "name": "onAttackVitory",
      "type": "event"
    },
    {
      "anonymous": false,
      "inputs": [
        {
          "indexed": true,
          "internalType": "address",
          "name": "from",
          "type": "address"
        },
        {
          "indexed": false,
          "internalType": "uint256",
          "name": "fromDna",
          "type": "uint256"
        },
        {
          "indexed": false,
          "internalType": "uint256",
          "name": "targetDna",
          "type": "uint256"
        },
        {
          "indexed": false,
          "internalType": "uint256",
          "name": "_kittyId",
          "type": "uint256"
        },
        {
          "indexed": false,
          "internalType": "uint256",
          "name": "newDna",
          "type": "uint256"
        }
      ],
      "name": "onFeed",
      "type": "event"
    },
    {
      "inputs": [
        {
          "internalType": "address",
          "name": "_approved",
          "type": "address"
        },
        {
          "internalType": "uint256",
          "name": "_tokenId",
          "type": "uint256"
        }
      ],
      "name": "approve",
      "outputs": [],
      "stateMutability": "payable",
      "type": "function"
    },
    {
      "inputs": [
        {
          "internalType": "uint256",
          "name": "_zombieId",
          "type": "uint256"
        },
        {
          "internalType": "uint256",
          "name": "_targetId",
          "type": "uint256"
        }
      ],
      "name": "attack",
      "outputs": [],
      "stateMutability": "nonpayable",
      "type": "function"
    },
    {
      "inputs": [
        {
          "internalType": "address",
          "name": "_owner",
          "type": "address"
        }
      ],
      "name": "balanceOf",
      "outputs": [
        {
          "internalType": "uint256",
          "name": "",
          "type": "uint256"
        }
      ],
      "stateMutability": "view",
      "type": "function"
    },
    {
      "inputs": [
        {
          "internalType": "uint256",
          "name": "zombieId",
          "type": "uint256"
        }
      ],
      "name": "buyShopZombie",
      "outputs": [],
      "stateMutability": "payable",
      "type": "function"
    },
    {
      "inputs": [
        {
          "internalType": "uint256",
          "name": "_zombieId",
          "type": "uint256"
        },
        {
          "internalType": "uint256",
          "name": "_newDna",
          "type": "uint256"
        }
      ],
      "name": "changeDna",
      "outputs": [],
      "stateMutability": "payable",
      "type": "function"
    },
    {
      "inputs": [
        {
          "internalType": "uint256",
          "name": "_zombieId",
          "type": "uint256"
        },
        {
          "internalType": "string",
          "name": "_newName",
          "type": "string"
        }
      ],
      "name": "changeName",
      "outputs": [],
      "stateMutability": "payable",
      "type": "function"
    },
    {
      "inputs": [
        {
          "internalType": "string",
          "name": "_name",
          "type": "string"
        }
      ],
      "name": "createRandomZombie",
      "outputs": [],
      "stateMutability": "nonpayable",
      "type": "function"
    },
    {
      "inputs": [
        {
          "internalType": "uint256",
          "name": "_zombieId",
          "type": "uint256"
        },
        {
          "internalType": "uint256",
          "name": "_kittyDna",
          "type": "uint256"
        },
        {
          "internalType": "uint256",
          "name": "_kittyId",
          "type": "uint256"
        }
      ],
      "name": "feedOnKitty",
      "outputs": [],
      "stateMutability": "nonpayable",
      "type": "function"
    },
    {
      "inputs": [],
      "name": "getAccounts",
      "outputs": [
        {
          "internalType": "address[]",
          "name": "",
          "type": "address[]"
        }
      ],
      "stateMutability": "view",
      "type": "function"
    },
    {
      "inputs": [
        {
          "internalType": "address",
          "name": "_owner",
          "type": "address"
        }
      ],
      "name": "getZombiesByOwner",
      "outputs": [
        {
          "internalType": "uint256[]",
          "name": "",
          "type": "uint256[]"
        }
      ],
      "stateMutability": "view",
      "type": "function"
    },
    {
      "inputs": [
        {
          "internalType": "address",
          "name": "_owner",
          "type": "address"
        },
        {
          "internalType": "uint256",
          "name": "_limit",
          "type": "uint256"
        }
      ],
      "name": "getZombiesOtherOwner",
      "outputs": [
        {
          "internalType": "uint256[]",
          "name": "",
          "type": "uint256[]"
        }
      ],
      "stateMutability": "view",
      "type": "function"
    },
    {
      "inputs": [],
      "name": "isOwner",
      "outputs": [
        {
          "internalType": "bool",
          "name": "",
          "type": "bool"
        }
      ],
      "stateMutability": "view",
      "type": "function"
    },
    {
      "inputs": [
        {
          "internalType": "uint256",
          "name": "_zombieId",
          "type": "uint256"
        }
      ],
      "name": "levelUp",
      "outputs": [],
      "stateMutability": "payable",
      "type": "function"
    },
    {
      "inputs": [],
      "name": "minPrice",
      "outputs": [
        {
          "internalType": "uint256",
          "name": "",
          "type": "uint256"
        }
      ],
      "stateMutability": "view",
      "type": "function"
    },
    {
      "inputs": [],
      "name": "owner",
      "outputs": [
        {
          "internalType": "address",
          "name": "",
          "type": "address"
        }
      ],
      "stateMutability": "view",
      "type": "function"
    },
    {
      "inputs": [
        {
          "internalType": "uint256",
          "name": "_tokenId",
          "type": "uint256"
        }
      ],
      "name": "ownerOf",
      "outputs": [
        {
          "internalType": "address",
          "name": "",
          "type": "address"
        }
      ],
      "stateMutability": "view",
      "type": "function"
    },
    {
      "inputs": [],
      "name": "renounceOwnership",
      "outputs": [],
      "stateMutability": "nonpayable",
      "type": "function"
    },
    {
      "inputs": [
        {
          "internalType": "uint256",
          "name": "zombieId",
          "type": "uint256"
        },
        {
          "internalType": "uint256",
          "name": "price",
          "type": "uint256"
        }
      ],
      "name": "saleMyZombie",
      "outputs": [],
      "stateMutability": "nonpayable",
      "type": "function"
    },
    {
      "inputs": [
        {
          "internalType": "address",
          "name": "_address",
          "type": "address"
        }
      ],
      "name": "setKittyContractAddress",
      "outputs": [],
      "stateMutability": "nonpayable",
      "type": "function"
    },
    {
      "inputs": [
        {
          "internalType": "uint256",
          "name": "_fee",
          "type": "uint256"
        }
      ],
      "name": "setLevelUpFee",
      "outputs": [],
      "stateMutability": "nonpayable",
      "type": "function"
    },
    {
      "inputs": [
        {
          "internalType": "uint256",
          "name": "value",
          "type": "uint256"
        }
      ],
      "name": "setMinPrice",
      "outputs": [],
      "stateMutability": "nonpayable",
      "type": "function"
    },
    {
      "inputs": [
        {
          "internalType": "uint256",
          "name": "value",
          "type": "uint256"
        }
      ],
      "name": "setTax",
      "outputs": [],
      "stateMutability": "nonpayable",
      "type": "function"
    },
    {
      "inputs": [],
      "name": "tax",
      "outputs": [
        {
          "internalType": "uint256",
          "name": "",
          "type": "uint256"
        }
      ],
      "stateMutability": "view",
      "type": "function"
    },
    {
      "inputs": [
        {
          "internalType": "uint256",
          "name": "_tokenId",
          "type": "uint256"
        }
      ],
      "name": "tokenURI",
      "outputs": [
        {
          "internalType": "string",
          "name": "",
          "type": "string"
        }
      ],
      "stateMutability": "view",
      "type": "function"
    },
    {
      "inputs": [
        {
          "internalType": "address",
          "name": "_from",
          "type": "address"
        },
        {
          "internalType": "address",
          "name": "_to",
          "type": "address"
        },
        {
          "internalType": "uint256",
          "name": "_tokenId",
          "type": "uint256"
        }
      ],
      "name": "transferFrom",
      "outputs": [],
      "stateMutability": "payable",
      "type": "function"
    },
    {
      "inputs": [
        {
          "internalType": "address",
          "name": "newOwner",
          "type": "address"
        }
      ],
      "name": "transferOwnership",
      "outputs": [],
      "stateMutability": "nonpayable",
      "type": "function"
    },
    {
      "inputs": [],
      "name": "withdraw",
      "outputs": [],
      "stateMutability": "nonpayable",
      "type": "function"
    },
    {
      "inputs": [
        {
          "internalType": "uint256",
          "name": "",
          "type": "uint256"
        }
      ],
      "name": "zombieShop",
      "outputs": [
        {
          "internalType": "address payable",
          "name": "seller",
          "type": "address"
        },
        {
          "internalType": "uint256",
          "name": "price",
          "type": "uint256"
        }
      ],
      "stateMutability": "view",
      "type": "function"
    },
    {
      "inputs": [
        {
          "internalType": "uint256",
          "name": "",
          "type": "uint256"
        }
      ],
      "name": "zombieToOwner",
      "outputs": [
        {
          "internalType": "address",
          "name": "",
          "type": "address"
        }
      ],
      "stateMutability": "view",
      "type": "function"
    },
    {
      "inputs": [
        {
          "internalType": "uint256",
          "name": "",
          "type": "uint256"
        }
      ],
      "name": "zombies",
      "outputs": [
        {
          "internalType": "string",
          "name": "name",
          "type": "string"
        },
        {
          "internalType": "uint256",
          "name": "dna",
          "type": "uint256"
        },
        {
          "internalType": "uint32",
          "name": "level",
          "type": "uint32"
        },
        {
          "internalType": "uint32",
          "name": "readyTime",
          "type": "uint32"
        },
        {
          "internalType": "uint16",
          "name": "winCount",
          "type": "uint16"
        },
        {
          "internalType": "uint16",
          "name": "lossCount",
          "type": "uint16"
        }
      ],
      "stateMutability": "view",
      "type": "function"
    }
  ],
  "bytecode": "0x60806040526010600155600154600a6100189190610298565b600255603c60035566038d7ea4c6800060095566071afd498d0000600a55660e35fa931a0000600b556000600c556046600d55655af3107a4000600f55655af3107a400060105534801561006b57600080fd5b50336000806101000a81548173ffffffffffffffffffffffffffffffffffffffff021916908373ffffffffffffffffffffffffffffffffffffffff16021790555060008054906101000a900473ffffffffffffffffffffffffffffffffffffffff1673ffffffffffffffffffffffffffffffffffffffff16600073ffffffffffffffffffffffffffffffffffffffff167f8be0079c531659141344cd1fd0a4f28419497f9722a3daafe3b4186f6b6457e060405160405180910390a36102e3565b7f4e487b7100000000000000000000000000000000000000000000000000000000600052601160045260246000fd5b60008160011c9050919050565b6000808291508390505b60018511156101b25780860481111561018e5761018d61012c565b5b600185161561019d5780820291505b80810290506101ab8561015b565b9450610172565b94509492505050565b6000826101cb5760019050610287565b816101d95760009050610287565b81600181146101ef57600281146101f957610228565b6001915050610287565b60ff84111561020b5761020a61012c565b5b8360020a9150848211156102225761022161012c565b5b50610287565b5060208310610133831016604e8410600b841016171561025d5782820a9050838111156102585761025761012c565b5b610287565b61026a8484846001610168565b925090508184048111156102815761028061012c565b5b81810290505b9392505050565b6000819050919050565b60006102a38261028e565b91506102ae8361028e565b92506102db7fffffffffffffffffffffffffffffffffffffffffffffffffffffffffffffffff84846101bb565b905092915050565b614148806102f26000396000f3fe6080604052600436106101cd5760003560e01c806370a08231116100f7578063ac94fec111610095578063ccf670f811610064578063ccf670f814610638578063e1fa763814610661578063e45be8eb1461068a578063f2fde38b146106b5576101cd565b8063ac94fec114610579578063b32c012d146105b6578063c39cbef1146105df578063c87b56dd146105fb576101cd565b80638a48ac03116100d15780638a48ac03146104cd5780638da5cb5b146104f85780638f32d59b1461052357806399c8d5561461054e576101cd565b806370a0823114610450578063715018a61461048d5780637bff0a01146104a4576101cd565b80633ccfd60b1161016f5780635ea8cd121161013e5780635ea8cd12146103a55780635f4623f1146103ce5780635faf2880146103f75780636352211e14610413576101cd565b80633ccfd60b146102d65780634412e104146102ed57806345c6ba391461032a578063528b7b8f14610368576101cd565b80632052465e116101ab5780632052465e14610233578063208c750e1461027557806323b872dd146102915780632e5bb6ff146102ad576101cd565b806306f33760146101d2578063095ea7b3146101fb5780630ce90ec214610217575b600080fd5b3480156101de57600080fd5b506101f960048036038101906101f49190612b66565b6106de565b005b61021560048036038101906102109190612c17565b6107a7565b005b610231600480360381019061022c9190612c57565b6108c5565b005b34801561023f57600080fd5b5061025a60048036038101906102559190612c57565b6109bf565b60405161026c96959493929190612d5f565b60405180910390f35b61028f600480360381019061028a9190612c57565b610acf565b005b6102ab60048036038101906102a69190612dc7565b610d1a565b005b3480156102b957600080fd5b506102d460048036038101906102cf9190612c57565b610e34565b005b3480156102e257600080fd5b506102eb610e4f565b005b3480156102f957600080fd5b50610314600480360381019061030f9190612e1a565b610eb6565b6040516103219190612f05565b60405180910390f35b34801561033657600080fd5b50610351600480360381019061034c9190612c57565b611003565b60405161035f929190612f48565b60405180910390f35b34801561037457600080fd5b5061038f600480360381019061038a9190612c57565b611047565b60405161039c9190612f80565b60405180910390f35b3480156103b157600080fd5b506103cc60048036038101906103c79190612c57565b61107a565b005b3480156103da57600080fd5b506103f560048036038101906103f09190612e1a565b611095565b005b610411600480360381019061040c9190612f9b565b6110ea565b005b34801561041f57600080fd5b5061043a60048036038101906104359190612c57565b6112a5565b6040516104479190612f80565b60405180910390f35b34801561045c57600080fd5b5061047760048036038101906104729190612e1a565b6112e2565b6040516104849190612fdb565b60405180910390f35b34801561049957600080fd5b506104a261132b565b005b3480156104b057600080fd5b506104cb60048036038101906104c6919061312b565b6113fa565b005b3480156104d957600080fd5b506104e26114fa565b6040516104ef9190613232565b60405180910390f35b34801561050457600080fd5b5061050d6115ff565b60405161051a9190612f80565b60405180910390f35b34801561052f57600080fd5b50610538611628565b604051610545919061326f565b60405180910390f35b34801561055a57600080fd5b5061056361167f565b6040516105709190612fdb565b60405180910390f35b34801561058557600080fd5b506105a0600480360381019061059b9190612c17565b611685565b6040516105ad9190612f05565b60405180910390f35b3480156105c257600080fd5b506105dd60048036038101906105d89190612f9b565b611842565b005b6105f960048036038101906105f491906132ea565b6119c5565b005b34801561060757600080fd5b50610622600480360381019061061d9190612c57565b611b8c565b60405161062f919061334a565b60405180910390f35b34801561064457600080fd5b5061065f600480360381019061065a9190612c57565b611bf7565b005b34801561066d57600080fd5b5061068860048036038101906106839190612f9b565b611c12565b005b34801561069657600080fd5b5061069f611f57565b6040516106ac9190612fdb565b60405180910390f35b3480156106c157600080fd5b506106dc60048036038101906106d79190612e1a565b611f5d565b005b6000600484815481106106f4576106f361336c565b5b90600052602060002090600302019050600061074685856040518060400160405280600581526020017f6b69747479000000000000000000000000000000000000000000000000000000815250611f7a565b90503373ffffffffffffffffffffffffffffffffffffffff167f94bd9f81959636fb1ddd32f8bcbdab8b649d20a6a464f759a1aa7f7cf4447fac8360010154868685604051610798949392919061339b565b60405180910390a25050505050565b806006600082815260200190815260200160002060009054906101000a900473ffffffffffffffffffffffffffffffffffffffff1673ffffffffffffffffffffffffffffffffffffffff163373ffffffffffffffffffffffffffffffffffffffff161461081357600080fd5b82600e600084815260200190815260200160002060006101000a81548173ffffffffffffffffffffffffffffffffffffffff021916908373ffffffffffffffffffffffffffffffffffffffff160217905550818373ffffffffffffffffffffffffffffffffffffffff163373ffffffffffffffffffffffffffffffffffffffff167f8c5be1e5ebec7d5bd14f71427d1e84f3dd0314c0f7b2291e5b200ac8c7c3b92560405160405180910390a4505050565b600954803410156108d582612153565b6040516020016108e59190613442565b60405160208183030381529060405290610935576040517f08c379a000000000000000000000000000000000000000000000000000000000815260040161092c919061334a565b60405180910390fd5b5060016004838154811061094c5761094b61336c565b5b906000526020600020906003020160020160009054906101000a900463ffffffff166109789190613497565b6004838154811061098c5761098b61336c565b5b906000526020600020906003020160020160006101000a81548163ffffffff021916908363ffffffff1602179055505050565b600481815481106109cf57600080fd5b90600052602060002090600302016000915090508060000180546109f2906134fe565b80601f0160208091040260200160405190810160405280929190818152602001828054610a1e906134fe565b8015610a6b5780601f10610a4057610100808354040283529160200191610a6b565b820191906000526020600020905b815481529060010190602001808311610a4e57829003601f168201915b5050505050908060010154908060020160009054906101000a900463ffffffff16908060020160049054906101000a900463ffffffff16908060020160089054906101000a900461ffff169080600201600a9054906101000a900461ffff16905086565b6000601160008381526020019081526020016000206040518060400160405290816000820160009054906101000a900473ffffffffffffffffffffffffffffffffffffffff1673ffffffffffffffffffffffffffffffffffffffff1673ffffffffffffffffffffffffffffffffffffffff1681526020016001820154815250509050806000015173ffffffffffffffffffffffffffffffffffffffff16600073ffffffffffffffffffffffffffffffffffffffff1603610bc4576040517f08c379a0000000000000000000000000000000000000000000000000000000008152600401610bbb9061357b565b60405180910390fd5b8060200151341015610c0b576040517f08c379a0000000000000000000000000000000000000000000000000000000008152600401610c02906135e7565b60405180910390fd5b610c1a81600001513384612221565b806000015173ffffffffffffffffffffffffffffffffffffffff166108fc600f5434610c469190613607565b9081150290604051600060405180830381858888f19350505050158015610c71573d6000803e3d6000fd5b5060116000838152602001908152602001600020600080820160006101000a81549073ffffffffffffffffffffffffffffffffffffffff021916905560018201600090555050806000015173ffffffffffffffffffffffffffffffffffffffff163373ffffffffffffffffffffffffffffffffffffffff16837f2705da8f1145dc87c9e6b9aa3ecd69d3d64da132acba45c803563ad52f5c2b5f60405160405180910390a45050565b3373ffffffffffffffffffffffffffffffffffffffff166006600083815260200190815260200160002060009054906101000a900473ffffffffffffffffffffffffffffffffffffffff1673ffffffffffffffffffffffffffffffffffffffff161480610de557503373ffffffffffffffffffffffffffffffffffffffff16600e600083815260200190815260200160002060009054906101000a900473ffffffffffffffffffffffffffffffffffffffff1673ffffffffffffffffffffffffffffffffffffffff16145b610e24576040517f08c379a0000000000000000000000000000000000000000000000000000000008152600401610e1b90613687565b60405180910390fd5b610e2f838383612221565b505050565b610e3c611628565b610e4557600080fd5b80600f8190555050565b610e57611628565b610e6057600080fd5b6000610e6a6115ff565b90508073ffffffffffffffffffffffffffffffffffffffff166108fc479081150290604051600060405180830381858888f19350505050158015610eb2573d6000803e3d6000fd5b5050565b60606000600760008473ffffffffffffffffffffffffffffffffffffffff1673ffffffffffffffffffffffffffffffffffffffff1681526020019081526020016000205467ffffffffffffffff811115610f1357610f12613000565b5b604051908082528060200260200182016040528015610f415781602001602082028036833780820191505090505b5090506000805b600480549050811015610ff8578473ffffffffffffffffffffffffffffffffffffffff166006600083815260200190815260200160002060009054906101000a900473ffffffffffffffffffffffffffffffffffffffff1673ffffffffffffffffffffffffffffffffffffffff1603610feb5780838381518110610fcf57610fce61336c565b5b602002602001018181525050600182610fe891906136a7565b91505b8080600101915050610f48565b508192505050919050565b60116020528060005260406000206000915090508060000160009054906101000a900473ffffffffffffffffffffffffffffffffffffffff16908060010154905082565b60066020528060005260406000206000915054906101000a900473ffffffffffffffffffffffffffffffffffffffff1681565b611082611628565b61108b57600080fd5b8060108190555050565b61109d611628565b6110a657600080fd5b80600860006101000a81548173ffffffffffffffffffffffffffffffffffffffff021916908373ffffffffffffffffffffffffffffffffffffffff16021790555050565b60148281600482815481106111025761110161336c565b5b906000526020600020906003020160020160009054906101000a900463ffffffff1663ffffffff16101561113583612153565b6040516020016111459190613701565b60405160208183030381529060405290611195576040517f08c379a000000000000000000000000000000000000000000000000000000000815260040161118c919061334a565b60405180910390fd5b50600b54803410156111a682612153565b6040516020016111b69190613442565b60405160208183030381529060405290611206576040517f08c379a00000000000000000000000000000000000000000000000000000000081526004016111fd919061334a565b60405180910390fd5b50846006600082815260200190815260200160002060009054906101000a900473ffffffffffffffffffffffffffffffffffffffff1673ffffffffffffffffffffffffffffffffffffffff163373ffffffffffffffffffffffffffffffffffffffff161461127357600080fd5b84600487815481106112885761128761336c565b5b906000526020600020906003020160010181905550505050505050565b60006006600083815260200190815260200160002060009054906101000a900473ffffffffffffffffffffffffffffffffffffffff169050919050565b6000600760008373ffffffffffffffffffffffffffffffffffffffff1673ffffffffffffffffffffffffffffffffffffffff168152602001908152602001600020549050919050565b611333611628565b61133c57600080fd5b600073ffffffffffffffffffffffffffffffffffffffff1660008054906101000a900473ffffffffffffffffffffffffffffffffffffffff1673ffffffffffffffffffffffffffffffffffffffff167f8be0079c531659141344cd1fd0a4f28419497f9722a3daafe3b4186f6b6457e060405160405180910390a360008060006101000a81548173ffffffffffffffffffffffffffffffffffffffff021916908373ffffffffffffffffffffffffffffffffffffffff160217905550565b6000600760003373ffffffffffffffffffffffffffffffffffffffff1673ffffffffffffffffffffffffffffffffffffffff168152602001908152602001600020541461147c576040517f08c379a000000000000000000000000000000000000000000000000000000000815260040161147390613799565b60405180910390fd5b6000611487826123f1565b90506114938282612436565b6005339080600181540180825580915050600190039060005260206000200160009091909190916101000a81548173ffffffffffffffffffffffffffffffffffffffff021916908373ffffffffffffffffffffffffffffffffffffffff1602179055505050565b6060600060058054905067ffffffffffffffff81111561151d5761151c613000565b5b60405190808252806020026020018201604052801561154b5781602001602082028036833780820191505090505b50905060005b6005805490508110156115f757600581815481106115725761157161336c565b5b9060005260206000200160009054906101000a900473ffffffffffffffffffffffffffffffffffffffff168282815181106115b0576115af61336c565b5b602002602001019073ffffffffffffffffffffffffffffffffffffffff16908173ffffffffffffffffffffffffffffffffffffffff16815250508080600101915050611551565b508091505090565b60008060009054906101000a900473ffffffffffffffffffffffffffffffffffffffff16905090565b60008060009054906101000a900473ffffffffffffffffffffffffffffffffffffffff1673ffffffffffffffffffffffffffffffffffffffff163373ffffffffffffffffffffffffffffffffffffffff1614905090565b600f5481565b60606000600760008573ffffffffffffffffffffffffffffffffffffffff1673ffffffffffffffffffffffffffffffffffffffff168152602001908152602001600020546004805490506116d99190613607565b905060008184116116ea57836116ec565b815b90506103e8811115611733576040517f08c379a000000000000000000000000000000000000000000000000000000000815260040161172a90613805565b60405180910390fd5b60008167ffffffffffffffff81111561174f5761174e613000565b5b60405190808252806020026020018201604052801561177d5781602001602082028036833780820191505090505b5090506000805b83821015611834578773ffffffffffffffffffffffffffffffffffffffff166006600083815260200190815260200160002060009054906101000a900473ffffffffffffffffffffffffffffffffffffffff1673ffffffffffffffffffffffffffffffffffffffff161461182157808383815181106118065761180561336c565b5b602002602001018181525050818061181d90613825565b9250505b808061182c90613825565b915050611784565b508194505050505092915050565b816006600082815260200190815260200160002060009054906101000a900473ffffffffffffffffffffffffffffffffffffffff1673ffffffffffffffffffffffffffffffffffffffff163373ffffffffffffffffffffffffffffffffffffffff16146118ae57600080fd5b601054600f546118be91906136a7565b821015611900576040517f08c379a00000000000000000000000000000000000000000000000000000000081526004016118f7906135e7565b60405180910390fd5b60405180604001604052803373ffffffffffffffffffffffffffffffffffffffff168152602001838152506011600085815260200190815260200160002060008201518160000160006101000a81548173ffffffffffffffffffffffffffffffffffffffff021916908373ffffffffffffffffffffffffffffffffffffffff1602179055506020820151816001015590505081837fb03c845c6c9ef1ff8db2c6381cd7ecf8c5623e02bb20e85545f3d04288302e5860405160405180910390a3505050565b60028381600482815481106119dd576119dc61336c565b5b906000526020600020906003020160020160009054906101000a900463ffffffff1663ffffffff161015611a1083612153565b604051602001611a209190613701565b60405160208183030381529060405290611a70576040517f08c379a0000000000000000000000000000000000000000000000000000000008152600401611a67919061334a565b60405180910390fd5b50600a5480341015611a8182612153565b604051602001611a919190613442565b60405160208183030381529060405290611ae1576040517f08c379a0000000000000000000000000000000000000000000000000000000008152600401611ad8919061334a565b60405180910390fd5b50856006600082815260200190815260200160002060009054906101000a900473ffffffffffffffffffffffffffffffffffffffff1673ffffffffffffffffffffffffffffffffffffffff163373ffffffffffffffffffffffffffffffffffffffff1614611b4e57600080fd5b858560048981548110611b6457611b6361336c565b5b90600052602060002090600302016000019182611b82929190613a24565b5050505050505050565b6060600060048381548110611ba457611ba361336c565b5b90600052602060002090600302019050611bbd83612153565b81600001611bce8360010154612153565b604051602001611be093929190613bc3565b604051602081830303815290604052915050919050565b611bff611628565b611c0857600080fd5b8060098190555050565b816006600082815260200190815260200160002060009054906101000a900473ffffffffffffffffffffffffffffffffffffffff1673ffffffffffffffffffffffffffffffffffffffff163373ffffffffffffffffffffffffffffffffffffffff1614611c7e57600080fd5b600060048481548110611c9457611c9361336c565b5b90600052602060002090600302019050600060048481548110611cba57611cb961336c565b5b906000526020600020906003020190506000611cd683836126b6565b905060006064423389604051602001611cf193929190613c8a565b6040516020818303038152906040528051906020012060001c611d149190613cf6565b9050818111611e7a5760018460020160089054906101000a900461ffff16611d3c9190613d27565b8460020160086101000a81548161ffff021916908361ffff16021790555060018460020160009054906101000a900463ffffffff16611d7b9190613497565b8460020160006101000a81548163ffffffff021916908363ffffffff160217905550600183600201600a9054906101000a900461ffff16611dbc9190613d27565b83600201600a6101000a81548161ffff021916908361ffff1602179055506000611e208885600101546040518060400160405280600681526020017f7a6f6d6269650000000000000000000000000000000000000000000000000000815250611f7a565b90503373ffffffffffffffffffffffffffffffffffffffff167f750a7c18ca7f7bd87c6e50678ea7fa4f64d0cb733bb68cdac552d009737b4716898984604051611e6c93929190613d5d565b60405180910390a250611f4e565b600184600201600a9054906101000a900461ffff16611e999190613d27565b84600201600a6101000a81548161ffff021916908361ffff16021790555060018360020160089054906101000a900461ffff16611ed69190613d27565b8360020160086101000a81548161ffff021916908361ffff160217905550611efd846127f2565b3373ffffffffffffffffffffffffffffffffffffffff167f4fa78061bb2783669831d2e2aa9ca18cb698e098923982bfada46ceaf1516d6a8888604051611f45929190613d94565b60405180910390a25b50505050505050565b60105481565b611f65611628565b611f6e57600080fd5b611f7781612825565b50565b6000836006600082815260200190815260200160002060009054906101000a900473ffffffffffffffffffffffffffffffffffffffff1673ffffffffffffffffffffffffffffffffffffffff163373ffffffffffffffffffffffffffffffffffffffff1614611fe857600080fd5b600060048681548110611ffe57611ffd61336c565b5b906000526020600020906003020190506120178161291b565b612056576040517f08c379a000000000000000000000000000000000000000000000000000000000815260040161204d90613e09565b60405180910390fd5b600254856120649190613cf6565b94506000600286836001015461207a91906136a7565b6120849190613e29565b905060405160200161209590613ea6565b60405160208183030381529060405280519060200120856040516020016120bc9190613ebb565b60405160208183030381529060405280519060200120036120fe5760636064826120e69190613cf6565b826120f19190613607565b6120fb91906136a7565b90505b61213d6040518060400160405280600681526020017f4e6f4e616d65000000000000000000000000000000000000000000000000000081525082612436565b612146826127f2565b8093505050509392505050565b60606000600161216284612942565b01905060008167ffffffffffffffff81111561218157612180613000565b5b6040519080825280601f01601f1916602001820160405280156121b35781602001600182028036833780820191505090505b509050600082602001820190505b600115612216578080600190039150507f3031323334353637383961626364656600000000000000000000000000000000600a86061a8153600a858161220a57612209613cc7565b5b049450600085036121c1575b819350505050919050565b6001600760008473ffffffffffffffffffffffffffffffffffffffff1673ffffffffffffffffffffffffffffffffffffffff1681526020019081526020016000205461226d91906136a7565b600760008473ffffffffffffffffffffffffffffffffffffffff1673ffffffffffffffffffffffffffffffffffffffff168152602001908152602001600020819055506001600760008573ffffffffffffffffffffffffffffffffffffffff1673ffffffffffffffffffffffffffffffffffffffff168152602001908152602001600020546122fc9190613607565b600760008573ffffffffffffffffffffffffffffffffffffffff1673ffffffffffffffffffffffffffffffffffffffff16815260200190815260200160002081905550816006600083815260200190815260200160002060006101000a81548173ffffffffffffffffffffffffffffffffffffffff021916908373ffffffffffffffffffffffffffffffffffffffff160217905550808273ffffffffffffffffffffffffffffffffffffffff168473ffffffffffffffffffffffffffffffffffffffff167fddf252ad1be2c89b69c2b068fc378daa952ba7f163c4a11628f55a4df523b3ef60405160405180910390a4505050565b600080826040516020016124059190613ebb565b6040516020818303038152906040528051906020012060001c90506002548161242e9190613cf6565b915050919050565b60046040518060c00160405280848152602001838152602001600163ffffffff1681526020016003544261246a91906136a7565b63ffffffff168152602001600061ffff168152602001600061ffff16815250908060018154018082558091505060019003906000526020600020906003020160009091909190915060008201518160000190816124c79190613ed2565b506020820151816001015560408201518160020160006101000a81548163ffffffff021916908363ffffffff16021790555060608201518160020160046101000a81548163ffffffff021916908363ffffffff16021790555060808201518160020160086101000a81548161ffff021916908361ffff16021790555060a082015181600201600a6101000a81548161ffff021916908361ffff16021790555050506000600160048054905061257c9190613607565b9050336006600083815260200190815260200160002060006101000a81548173ffffffffffffffffffffffffffffffffffffffff021916908373ffffffffffffffffffffffffffffffffffffffff1602179055506001600760003373ffffffffffffffffffffffffffffffffffffffff1673ffffffffffffffffffffffffffffffffffffffff1681526020019081526020016000205461261c91906136a7565b600760003373ffffffffffffffffffffffffffffffffffffffff1673ffffffffffffffffffffffffffffffffffffffff168152602001908152602001600020819055503373ffffffffffffffffffffffffffffffffffffffff167ff92b1ba4cb9ae7683c3a3a1e58273b24013547531f590e32910f3105e8349e1f8285856040516126a993929190613fa4565b60405180910390a2505050565b600080600d54905060008360020160009054906101000a900463ffffffff168560020160009054906101000a900463ffffffff166126f49190613fef565b905060008160030b13156127275760028161270f919061404b565b63ffffffff168261272091906136a7565b915061275e565b60008160030b121561275d5760028161273f90614088565b612749919061404b565b63ffffffff168261275a9190613607565b91505b5b60008061276e8760010154612a95565b509150915060006127828760010154612a95565b925050506000600a828460028761279991906140d0565b6127a391906136a7565b6127ad9190613607565b6127b79190613e29565b905080866127c591906136a7565b9550605a8611156127d557605a95505b601e8610156127e357601e95505b85965050505050505092915050565b6003544261280091906136a7565b8160020160046101000a81548163ffffffff021916908363ffffffff16021790555050565b600073ffffffffffffffffffffffffffffffffffffffff168173ffffffffffffffffffffffffffffffffffffffff160361285e57600080fd5b8073ffffffffffffffffffffffffffffffffffffffff1660008054906101000a900473ffffffffffffffffffffffffffffffffffffffff1673ffffffffffffffffffffffffffffffffffffffff167f8be0079c531659141344cd1fd0a4f28419497f9722a3daafe3b4186f6b6457e060405160405180910390a3806000806101000a81548173ffffffffffffffffffffffffffffffffffffffff021916908373ffffffffffffffffffffffffffffffffffffffff16021790555050565b6000428260020160049054906101000a900463ffffffff1663ffffffff1611159050919050565b600080600090507a184f03e93ff9f4daa797ed6e38ed64bf6a1f01000000000000000083106129a0577a184f03e93ff9f4daa797ed6e38ed64bf6a1f010000000000000000838161299657612995613cc7565b5b0492506040810190505b6d04ee2d6d415b85acef810000000083106129dd576d04ee2d6d415b85acef810000000083816129d3576129d2613cc7565b5b0492506020810190505b662386f26fc100008310612a0c57662386f26fc100008381612a0257612a01613cc7565b5b0492506010810190505b6305f5e1008310612a35576305f5e1008381612a2b57612a2a613cc7565b5b0492506008810190505b6127108310612a5a576127108381612a5057612a4f613cc7565b5b0492506004810190505b60648310612a7d5760648381612a7357612a72613cc7565b5b0492506002810190505b600a8310612a8c576001810190505b80915050919050565b600080600080603285612aa89190613cf6565b6032612ab491906136a7565b905060006032606487612ac79190613e29565b612ad19190613cf6565b6032612add91906136a7565b90506000603261271088612af19190613e29565b612afb9190613cf6565b6032612b0791906136a7565b90508282829550955095505050509193909250565b6000604051905090565b600080fd5b600080fd5b6000819050919050565b612b4381612b30565b8114612b4e57600080fd5b50565b600081359050612b6081612b3a565b92915050565b600080600060608486031215612b7f57612b7e612b26565b5b6000612b8d86828701612b51565b9350506020612b9e86828701612b51565b9250506040612baf86828701612b51565b9150509250925092565b600073ffffffffffffffffffffffffffffffffffffffff82169050919050565b6000612be482612bb9565b9050919050565b612bf481612bd9565b8114612bff57600080fd5b50565b600081359050612c1181612beb565b92915050565b60008060408385031215612c2e57612c2d612b26565b5b6000612c3c85828601612c02565b9250506020612c4d85828601612b51565b9150509250929050565b600060208284031215612c6d57612c6c612b26565b5b6000612c7b84828501612b51565b91505092915050565b600081519050919050565b600082825260208201905092915050565b60005b83811015612cbe578082015181840152602081019050612ca3565b60008484015250505050565b6000601f19601f8301169050919050565b6000612ce682612c84565b612cf08185612c8f565b9350612d00818560208601612ca0565b612d0981612cca565b840191505092915050565b612d1d81612b30565b82525050565b600063ffffffff82169050919050565b612d3c81612d23565b82525050565b600061ffff82169050919050565b612d5981612d42565b82525050565b600060c0820190508181036000830152612d798189612cdb565b9050612d886020830188612d14565b612d956040830187612d33565b612da26060830186612d33565b612daf6080830185612d50565b612dbc60a0830184612d50565b979650505050505050565b600080600060608486031215612de057612ddf612b26565b5b6000612dee86828701612c02565b9350506020612dff86828701612c02565b9250506040612e1086828701612b51565b9150509250925092565b600060208284031215612e3057612e2f612b26565b5b6000612e3e84828501612c02565b91505092915050565b600081519050919050565b600082825260208201905092915050565b6000819050602082019050919050565b612e7c81612b30565b82525050565b6000612e8e8383612e73565b60208301905092915050565b6000602082019050919050565b6000612eb282612e47565b612ebc8185612e52565b9350612ec783612e63565b8060005b83811015612ef8578151612edf8882612e82565b9750612eea83612e9a565b925050600181019050612ecb565b5085935050505092915050565b60006020820190508181036000830152612f1f8184612ea7565b905092915050565b6000612f3282612bb9565b9050919050565b612f4281612f27565b82525050565b6000604082019050612f5d6000830185612f39565b612f6a6020830184612d14565b9392505050565b612f7a81612bd9565b82525050565b6000602082019050612f956000830184612f71565b92915050565b60008060408385031215612fb257612fb1612b26565b5b6000612fc085828601612b51565b9250506020612fd185828601612b51565b9150509250929050565b6000602082019050612ff06000830184612d14565b92915050565b600080fd5b600080fd5b7f4e487b7100000000000000000000000000000000000000000000000000000000600052604160045260246000fd5b61303882612cca565b810181811067ffffffffffffffff8211171561305757613056613000565b5b80604052505050565b600061306a612b1c565b9050613076828261302f565b919050565b600067ffffffffffffffff82111561309657613095613000565b5b61309f82612cca565b9050602081019050919050565b82818337600083830152505050565b60006130ce6130c98461307b565b613060565b9050828152602081018484840111156130ea576130e9612ffb565b5b6130f58482856130ac565b509392505050565b600082601f83011261311257613111612ff6565b5b81356131228482602086016130bb565b91505092915050565b60006020828403121561314157613140612b26565b5b600082013567ffffffffffffffff81111561315f5761315e612b2b565b5b61316b848285016130fd565b91505092915050565b600081519050919050565b600082825260208201905092915050565b6000819050602082019050919050565b6131a981612bd9565b82525050565b60006131bb83836131a0565b60208301905092915050565b6000602082019050919050565b60006131df82613174565b6131e9818561317f565b93506131f483613190565b8060005b8381101561322557815161320c88826131af565b9750613217836131c7565b9250506001810190506131f8565b5085935050505092915050565b6000602082019050818103600083015261324c81846131d4565b905092915050565b60008115159050919050565b61326981613254565b82525050565b60006020820190506132846000830184613260565b92915050565b600080fd5b600080fd5b60008083601f8401126132aa576132a9612ff6565b5b8235905067ffffffffffffffff8111156132c7576132c661328a565b5b6020830191508360018202830111156132e3576132e261328f565b5b9250929050565b60008060006040848603121561330357613302612b26565b5b600061331186828701612b51565b935050602084013567ffffffffffffffff81111561333257613331612b2b565b5b61333e86828701613294565b92509250509250925092565b600060208201905081810360008301526133648184612cdb565b905092915050565b7f4e487b7100000000000000000000000000000000000000000000000000000000600052603260045260246000fd5b60006080820190506133b06000830187612d14565b6133bd6020830186612d14565b6133ca6040830185612d14565b6133d76060830184612d14565b95945050505050565b7f5072696365206d696e696d756d20697320000000000000000000000000000000815250565b600081905092915050565b600061341c82612c84565b6134268185613406565b9350613436818560208601612ca0565b80840191505092915050565b600061344d826133e0565b60118201915061345d8284613411565b915081905092915050565b7f4e487b7100000000000000000000000000000000000000000000000000000000600052601160045260246000fd5b60006134a282612d23565b91506134ad83612d23565b9250828201905063ffffffff8111156134c9576134c8613468565b5b92915050565b7f4e487b7100000000000000000000000000000000000000000000000000000000600052602260045260246000fd5b6000600282049050600182168061351657607f821691505b602082108103613529576135286134cf565b5b50919050565b7f5a6f6d62696520617265206e6f74206f6e2073616c652e000000000000000000600082015250565b6000613565601783612c8f565b91506135708261352f565b602082019050919050565b6000602082019050818103600083015261359481613558565b9050919050565b7f596f757220707269636520697320746f6f206c6f770000000000000000000000600082015250565b60006135d1601583612c8f565b91506135dc8261359b565b602082019050919050565b60006020820190508181036000830152613600816135c4565b9050919050565b600061361282612b30565b915061361d83612b30565b925082820390508181111561363557613634613468565b5b92915050565b7f596f7520617265206e6f74206f776e6572206f7220617070726f7665642e0000600082015250565b6000613671601e83612c8f565b915061367c8261363b565b602082019050919050565b600060208201905081810360008301526136a081613664565b9050919050565b60006136b282612b30565b91506136bd83612b30565b92508282019050808211156136d5576136d4613468565b5b92915050565b7f4c6576656c206d696e696d756d20697320000000000000000000000000000000815250565b600061370c826136db565b60118201915061371c8284613411565b915081905092915050565b7f596f752063616e206f6e6c7920637265617465206f6e65207a6f6d626965207060008201527f6572206163636f756e7400000000000000000000000000000000000000000000602082015250565b6000613783602a83612c8f565b915061378e82613727565b604082019050919050565b600060208201905081810360008301526137b281613776565b9050919050565b7f4c696d6974206973203130303000000000000000000000000000000000000000600082015250565b60006137ef600d83612c8f565b91506137fa826137b9565b602082019050919050565b6000602082019050818103600083015261381e816137e2565b9050919050565b600061383082612b30565b91507fffffffffffffffffffffffffffffffffffffffffffffffffffffffffffffffff820361386257613861613468565b5b600182019050919050565b600082905092915050565b60008190508160005260206000209050919050565b60006020601f8301049050919050565b600082821b905092915050565b6000600883026138da7fffffffffffffffffffffffffffffffffffffffffffffffffffffffffffffffff8261389d565b6138e4868361389d565b95508019841693508086168417925050509392505050565b6000819050919050565b600061392161391c61391784612b30565b6138fc565b612b30565b9050919050565b6000819050919050565b61393b83613906565b61394f61394782613928565b8484546138aa565b825550505050565b600090565b613964613957565b61396f818484613932565b505050565b5b818110156139935761398860008261395c565b600181019050613975565b5050565b601f8211156139d8576139a981613878565b6139b28461388d565b810160208510156139c1578190505b6139d56139cd8561388d565b830182613974565b50505b505050565b600082821c905092915050565b60006139fb600019846008026139dd565b1980831691505092915050565b6000613a1483836139ea565b9150826002028217905092915050565b613a2e838361386d565b67ffffffffffffffff811115613a4757613a46613000565b5b613a5182546134fe565b613a5c828285613997565b6000601f831160018114613a8b5760008415613a79578287013590505b613a838582613a08565b865550613aeb565b601f198416613a9986613878565b60005b82811015613ac157848901358255600182019150602085019450602081019050613a9c565b86831015613ade5784890135613ada601f8916826139ea565b8355505b6001600288020188555050505b50505050505050565b7f687474703a2f2f6c6f63616c686f73743a333333332f7a6f6d6269652f000000815250565b7f2f00000000000000000000000000000000000000000000000000000000000000815250565b60008154613b4d816134fe565b613b578186613406565b94506001821660008114613b725760018114613b8757613bba565b60ff1983168652811515820286019350613bba565b613b9085613878565b60005b83811015613bb257815481890152600182019150602081019050613b93565b838801955050505b50505092915050565b6000613bce82613af4565b601d82019150613bde8286613411565b9150613be982613b1a565b600182019150613bf98285613b40565b9150613c0482613b1a565b600182019150613c148284613411565b9150819050949350505050565b6000819050919050565b613c3c613c3782612b30565b613c21565b82525050565b60008160601b9050919050565b6000613c5a82613c42565b9050919050565b6000613c6c82613c4f565b9050919050565b613c84613c7f82612bd9565b613c61565b82525050565b6000613c968286613c2b565b602082019150613ca68285613c73565b601482019150613cb68284613c2b565b602082019150819050949350505050565b7f4e487b7100000000000000000000000000000000000000000000000000000000600052601260045260246000fd5b6000613d0182612b30565b9150613d0c83612b30565b925082613d1c57613d1b613cc7565b5b828206905092915050565b6000613d3282612d42565b9150613d3d83612d42565b9250828201905061ffff811115613d5757613d56613468565b5b92915050565b6000606082019050613d726000830186612d14565b613d7f6020830185612d14565b613d8c6040830184612d14565b949350505050565b6000604082019050613da96000830185612d14565b613db66020830184612d14565b9392505050565b7f5a6f6d626965206973206e6f7420726561647920746f20666565640000000000600082015250565b6000613df3601b83612c8f565b9150613dfe82613dbd565b602082019050919050565b60006020820190508181036000830152613e2281613de6565b9050919050565b6000613e3482612b30565b9150613e3f83612b30565b925082613e4f57613e4e613cc7565b5b828204905092915050565b7f6b69747479000000000000000000000000000000000000000000000000000000600082015250565b6000613e90600583613406565b9150613e9b82613e5a565b600582019050919050565b6000613eb182613e83565b9150819050919050565b6000613ec78284613411565b915081905092915050565b613edb82612c84565b67ffffffffffffffff811115613ef457613ef3613000565b5b613efe82546134fe565b613f09828285613997565b600060209050601f831160018114613f3c5760008415613f2a578287015190505b613f348582613a08565b865550613f9c565b601f198416613f4a86613878565b60005b82811015613f7257848901518255600182019150602085019450602081019050613f4d565b86831015613f8f5784890151613f8b601f8916826139ea565b8355505b6001600288020188555050505b505050505050565b6000606082019050613fb96000830186612d14565b8181036020830152613fcb8185612cdb565b9050613fda6040830184612d14565b949350505050565b60008160030b9050919050565b6000613ffa82613fe2565b915061400583613fe2565b92508282039050637fffffff81137fffffffffffffffffffffffffffffffffffffffffffffffffffffffff800000008212171561404557614044613468565b5b92915050565b600061405682612d23565b915061406183612d23565b925082820261406f81612d23565b915080821461408157614080613468565b5b5092915050565b600061409382613fe2565b91507fffffffffffffffffffffffffffffffffffffffffffffffffffffffff8000000082036140c5576140c4613468565b5b816000039050919050565b60006140db82612b30565b91506140e683612b30565b92508282026140f481612b30565b9150828204841483151761410b5761410a613468565b5b509291505056fea26469706673582212203e0f15d74e025834c5de4563d7a55a84a44e1b8f289622863fc2c90ea7ef0e4864736f6c634300081c0033",
  "linkReferences": {},
  "deployedLinkReferences": {}
}