{
  "_format": "hh-sol-artifact-1",
  "contractName": "CryptoZombies",
  "sourceName": "contracts/CryptoZombies.sol",
  "abi": [
    {
      "anonymous": false,
      "inputs": [
        {
          "indexed": true,
          "internalType": "address",
          "name": "_owner",
          "type": "address"
        },
        {
          "indexed": true,
          "internalType": "address",
          "name": "_approved",
          "type": "address"
        },
        {
          "indexed": true,
          "internalType": "uint256",
          "name": "_tokenId",
          "type": "uint256"
        }
      ],
      "name": "Approval",
      "type": "event"
    },
    {
      "anonymous": false,
      "inputs": [
        {
          "indexed": false,
          "internalType": "uint256",
          "name": "zombieId",
          "type": "uint256"
        },
        {
          "indexed": false,
          "internalType": "string",
          "name": "name",
          "type": "string"
        },
        {
          "indexed": false,
          "internalType": "uint256",
          "name": "dna",
          "type": "uint256"
        }
      ],
      "name": "NewZombie",
      "type": "event"
    },
    {
      "anonymous": false,
      "inputs": [
        {
          "indexed": true,
          "internalType": "address",
          "name": "previousOwner",
          "type": "address"
        },
        {
          "indexed": true,
          "internalType": "address",
          "name": "newOwner",
          "type": "address"
        }
      ],
      "name": "OwnershipTransferred",
      "type": "event"
    },
    {
      "anonymous": false,
      "inputs": [
        {
          "indexed": true,
          "internalType": "address",
          "name": "_from",
          "type": "address"
        },
        {
          "indexed": true,
          "internalType": "address",
          "name": "_to",
          "type": "address"
        },
        {
          "indexed": true,
          "internalType": "uint256",
          "name": "_tokenId",
          "type": "uint256"
        }
      ],
      "name": "Transfer",
      "type": "event"
    },
    {
      "inputs": [
        {
          "internalType": "address",
          "name": "_approved",
          "type": "address"
        },
        {
          "internalType": "uint256",
          "name": "_tokenId",
          "type": "uint256"
        }
      ],
      "name": "approve",
      "outputs": [],
      "stateMutability": "payable",
      "type": "function"
    },
    {
      "inputs": [
        {
          "internalType": "uint256",
          "name": "_zombieId",
          "type": "uint256"
        },
        {
          "internalType": "uint256",
          "name": "_targetId",
          "type": "uint256"
        }
      ],
      "name": "attack",
      "outputs": [],
      "stateMutability": "nonpayable",
      "type": "function"
    },
    {
      "inputs": [
        {
          "internalType": "address",
          "name": "_owner",
          "type": "address"
        }
      ],
      "name": "balanceOf",
      "outputs": [
        {
          "internalType": "uint256",
          "name": "",
          "type": "uint256"
        }
      ],
      "stateMutability": "view",
      "type": "function"
    },
    {
      "inputs": [
        {
          "internalType": "uint256",
          "name": "_zombieId",
          "type": "uint256"
        },
        {
          "internalType": "uint256",
          "name": "_newDna",
          "type": "uint256"
        }
      ],
      "name": "changeDna",
      "outputs": [],
      "stateMutability": "nonpayable",
      "type": "function"
    },
    {
      "inputs": [
        {
          "internalType": "uint256",
          "name": "_zombieId",
          "type": "uint256"
        },
        {
          "internalType": "string",
          "name": "_newName",
          "type": "string"
        }
      ],
      "name": "changeName",
      "outputs": [],
      "stateMutability": "nonpayable",
      "type": "function"
    },
    {
      "inputs": [
        {
          "internalType": "string",
          "name": "_name",
          "type": "string"
        }
      ],
      "name": "createRandomZombie",
      "outputs": [],
      "stateMutability": "nonpayable",
      "type": "function"
    },
    {
      "inputs": [
        {
          "internalType": "uint256",
          "name": "_zombieId",
          "type": "uint256"
        },
        {
          "internalType": "uint256",
          "name": "_kittyId",
          "type": "uint256"
        }
      ],
      "name": "feedOnKitty",
      "outputs": [],
      "stateMutability": "nonpayable",
      "type": "function"
    },
    {
      "inputs": [
        {
          "internalType": "address",
          "name": "_owner",
          "type": "address"
        }
      ],
      "name": "getZombiesByOwner",
      "outputs": [
        {
          "internalType": "uint256[]",
          "name": "",
          "type": "uint256[]"
        }
      ],
      "stateMutability": "view",
      "type": "function"
    },
    {
      "inputs": [],
      "name": "isOwner",
      "outputs": [
        {
          "internalType": "bool",
          "name": "",
          "type": "bool"
        }
      ],
      "stateMutability": "view",
      "type": "function"
    },
    {
      "inputs": [
        {
          "internalType": "uint256",
          "name": "_zombieId",
          "type": "uint256"
        }
      ],
      "name": "levelUp",
      "outputs": [],
      "stateMutability": "payable",
      "type": "function"
    },
    {
      "inputs": [],
      "name": "owner",
      "outputs": [
        {
          "internalType": "address",
          "name": "",
          "type": "address"
        }
      ],
      "stateMutability": "view",
      "type": "function"
    },
    {
      "inputs": [
        {
          "internalType": "uint256",
          "name": "_tokenId",
          "type": "uint256"
        }
      ],
      "name": "ownerOf",
      "outputs": [
        {
          "internalType": "address",
          "name": "",
          "type": "address"
        }
      ],
      "stateMutability": "view",
      "type": "function"
    },
    {
      "inputs": [],
      "name": "renounceOwnership",
      "outputs": [],
      "stateMutability": "nonpayable",
      "type": "function"
    },
    {
      "inputs": [
        {
          "internalType": "address",
          "name": "_address",
          "type": "address"
        }
      ],
      "name": "setKittyContractAddress",
      "outputs": [],
      "stateMutability": "nonpayable",
      "type": "function"
    },
    {
      "inputs": [
        {
          "internalType": "uint256",
          "name": "_fee",
          "type": "uint256"
        }
      ],
      "name": "setLevelUpFee",
      "outputs": [],
      "stateMutability": "nonpayable",
      "type": "function"
    },
    {
      "inputs": [
        {
          "internalType": "address",
          "name": "_from",
          "type": "address"
        },
        {
          "internalType": "address",
          "name": "_to",
          "type": "address"
        },
        {
          "internalType": "uint256",
          "name": "_tokenId",
          "type": "uint256"
        }
      ],
      "name": "transferFrom",
      "outputs": [],
      "stateMutability": "payable",
      "type": "function"
    },
    {
      "inputs": [
        {
          "internalType": "address",
          "name": "newOwner",
          "type": "address"
        }
      ],
      "name": "transferOwnership",
      "outputs": [],
      "stateMutability": "nonpayable",
      "type": "function"
    },
    {
      "inputs": [],
      "name": "withdraw",
      "outputs": [],
      "stateMutability": "nonpayable",
      "type": "function"
    },
    {
      "inputs": [
        {
          "internalType": "uint256",
          "name": "",
          "type": "uint256"
        }
      ],
      "name": "zombieToOwner",
      "outputs": [
        {
          "internalType": "address",
          "name": "",
          "type": "address"
        }
      ],
      "stateMutability": "view",
      "type": "function"
    },
    {
      "inputs": [
        {
          "internalType": "uint256",
          "name": "",
          "type": "uint256"
        }
      ],
      "name": "zombies",
      "outputs": [
        {
          "internalType": "string",
          "name": "name",
          "type": "string"
        },
        {
          "internalType": "uint256",
          "name": "dna",
          "type": "uint256"
        },
        {
          "internalType": "uint32",
          "name": "level",
          "type": "uint32"
        },
        {
          "internalType": "uint32",
          "name": "readyTime",
          "type": "uint32"
        },
        {
          "internalType": "uint16",
          "name": "winCount",
          "type": "uint16"
        },
        {
          "internalType": "uint16",
          "name": "lossCount",
          "type": "uint16"
        }
      ],
      "stateMutability": "view",
      "type": "function"
    }
  ],
  "bytecode": "0x60806040526010600155600154600a6100189190610270565b6002556201518060035566038d7ea4c6800060085560006009556046600a5534801561004357600080fd5b50336000806101000a81548173ffffffffffffffffffffffffffffffffffffffff021916908373ffffffffffffffffffffffffffffffffffffffff16021790555060008054906101000a900473ffffffffffffffffffffffffffffffffffffffff1673ffffffffffffffffffffffffffffffffffffffff16600073ffffffffffffffffffffffffffffffffffffffff167f8be0079c531659141344cd1fd0a4f28419497f9722a3daafe3b4186f6b6457e060405160405180910390a36102bb565b7f4e487b7100000000000000000000000000000000000000000000000000000000600052601160045260246000fd5b60008160011c9050919050565b6000808291508390505b600185111561018a5780860481111561016657610165610104565b5b60018516156101755780820291505b808102905061018385610133565b945061014a565b94509492505050565b6000826101a3576001905061025f565b816101b1576000905061025f565b81600181146101c757600281146101d157610200565b600191505061025f565b60ff8411156101e3576101e2610104565b5b8360020a9150848211156101fa576101f9610104565b5b5061025f565b5060208310610133831016604e8410600b84101617156102355782820a9050838111156102305761022f610104565b5b61025f565b6102428484846001610140565b9250905081840481111561025957610258610104565b5b81810290505b9392505050565b6000819050919050565b600061027b82610266565b915061028683610266565b92506102b37fffffffffffffffffffffffffffffffffffffffffffffffffffffffffffffffff8484610193565b905092915050565b6129d5806102ca6000396000f3fe60806040526004361061011f5760003560e01c80636352211e116100a05780638f32d59b116100645780638f32d59b146103ab578063c39cbef1146103d6578063ccf670f8146103ff578063e1fa763814610428578063f2fde38b146104515761011f565b80636352211e146102c657806370a0823114610303578063715018a6146103405780637bff0a01146103575780638da5cb5b146103805761011f565b80633ccfd60b116100e75780633ccfd60b146101e35780634412e104146101fa578063528b7b8f146102375780635f4623f1146102745780635faf28801461029d5761011f565b8063095ea7b3146101245780630ce90ec21461014057806317a7f4cc1461015c5780632052465e1461018557806323b872dd146101c7575b600080fd5b61013e60048036038101906101399190611ace565b61047a565b005b61015a60048036038101906101559190611b0e565b610598565b005b34801561016857600080fd5b50610183600480360381019061017e9190611b3b565b61062e565b005b34801561019157600080fd5b506101ac60048036038101906101a79190611b0e565b61074c565b6040516101be96959493929190611c56565b60405180910390f35b6101e160048036038101906101dc9190611cbe565b61085c565b005b3480156101ef57600080fd5b506101f8610940565b005b34801561020657600080fd5b50610221600480360381019061021c9190611d11565b6109a7565b60405161022e9190611dfc565b60405180910390f35b34801561024357600080fd5b5061025e60048036038101906102599190611b0e565b610af4565b60405161026b9190611e2d565b60405180910390f35b34801561028057600080fd5b5061029b60048036038101906102969190611d11565b610b27565b005b3480156102a957600080fd5b506102c460048036038101906102bf9190611b3b565b610b7c565b005b3480156102d257600080fd5b506102ed60048036038101906102e89190611b0e565b610c64565b6040516102fa9190611e2d565b60405180910390f35b34801561030f57600080fd5b5061032a60048036038101906103259190611d11565b610ca1565b6040516103379190611e48565b60405180910390f35b34801561034c57600080fd5b50610355610cea565b005b34801561036357600080fd5b5061037e60048036038101906103799190611f98565b610db9565b005b34801561038c57600080fd5b50610395610e56565b6040516103a29190611e2d565b60405180910390f35b3480156103b757600080fd5b506103c0610e7f565b6040516103cd9190611ffc565b60405180910390f35b3480156103e257600080fd5b506103fd60048036038101906103f89190612077565b610ed6565b005b34801561040b57600080fd5b5061042660048036038101906104219190611b0e565b610fca565b005b34801561043457600080fd5b5061044f600480360381019061044a9190611b3b565b610fe5565b005b34801561045d57600080fd5b5061047860048036038101906104739190611d11565b611246565b005b806005600082815260200190815260200160002060009054906101000a900473ffffffffffffffffffffffffffffffffffffffff1673ffffffffffffffffffffffffffffffffffffffff163373ffffffffffffffffffffffffffffffffffffffff16146104e657600080fd5b82600b600084815260200190815260200160002060006101000a81548173ffffffffffffffffffffffffffffffffffffffff021916908373ffffffffffffffffffffffffffffffffffffffff160217905550818373ffffffffffffffffffffffffffffffffffffffff163373ffffffffffffffffffffffffffffffffffffffff167f8c5be1e5ebec7d5bd14f71427d1e84f3dd0314c0f7b2291e5b200ac8c7c3b92560405160405180910390a4505050565b60085434146105a657600080fd5b6001600482815481106105bc576105bb6120d7565b5b906000526020600020906003020160020160009054906101000a900463ffffffff166105e89190612135565b600482815481106105fc576105fb6120d7565b5b906000526020600020906003020160020160006101000a81548163ffffffff021916908363ffffffff16021790555050565b6000600760009054906101000a900473ffffffffffffffffffffffffffffffffffffffff1673ffffffffffffffffffffffffffffffffffffffff1663e98b7f4d836040518263ffffffff1660e01b815260040161068b9190611e48565b61014060405180830381865afa1580156106a9573d6000803e3d6000fd5b505050506040513d601f19601f820116820180604052508101906106cd91906121ae565b9091929394959697985090919293949596975090919293949596509091929394955090919293945090919293509091925090915090508091505061074783826040518060400160405280600581526020017f6b69747479000000000000000000000000000000000000000000000000000000815250611263565b505050565b6004818154811061075c57600080fd5b906000526020600020906003020160009150905080600001805461077f906122bc565b80601f01602080910402602001604051908101604052809291908181526020018280546107ab906122bc565b80156107f85780601f106107cd576101008083540402835291602001916107f8565b820191906000526020600020905b8154815290600101906020018083116107db57829003601f168201915b5050505050908060010154908060020160009054906101000a900463ffffffff16908060020160049054906101000a900463ffffffff16908060020160089054906101000a900461ffff169080600201600a9054906101000a900461ffff16905086565b3373ffffffffffffffffffffffffffffffffffffffff166005600083815260200190815260200160002060009054906101000a900473ffffffffffffffffffffffffffffffffffffffff1673ffffffffffffffffffffffffffffffffffffffff16148061092757503373ffffffffffffffffffffffffffffffffffffffff16600b600083815260200190815260200160002060009054906101000a900473ffffffffffffffffffffffffffffffffffffffff1673ffffffffffffffffffffffffffffffffffffffff16145b61093057600080fd5b61093b8383836113ff565b505050565b610948610e7f565b61095157600080fd5b600061095b610e56565b90508073ffffffffffffffffffffffffffffffffffffffff166108fc479081150290604051600060405180830381858888f193505050501580156109a3573d6000803e3d6000fd5b5050565b60606000600660008473ffffffffffffffffffffffffffffffffffffffff1673ffffffffffffffffffffffffffffffffffffffff1681526020019081526020016000205467ffffffffffffffff811115610a0457610a03611e6d565b5b604051908082528060200260200182016040528015610a325781602001602082028036833780820191505090505b5090506000805b600480549050811015610ae9578473ffffffffffffffffffffffffffffffffffffffff166005600083815260200190815260200160002060009054906101000a900473ffffffffffffffffffffffffffffffffffffffff1673ffffffffffffffffffffffffffffffffffffffff1603610adc5780838381518110610ac057610abf6120d7565b5b602002602001018181525050600182610ad991906122ed565b91505b8080600101915050610a39565b508192505050919050565b60056020528060005260406000206000915054906101000a900473ffffffffffffffffffffffffffffffffffffffff1681565b610b2f610e7f565b610b3857600080fd5b80600760006101000a81548173ffffffffffffffffffffffffffffffffffffffff021916908373ffffffffffffffffffffffffffffffffffffffff16021790555050565b6014828160048281548110610b9457610b936120d7565b5b906000526020600020906003020160020160009054906101000a900463ffffffff1663ffffffff161015610bc757600080fd5b836005600082815260200190815260200160002060009054906101000a900473ffffffffffffffffffffffffffffffffffffffff1673ffffffffffffffffffffffffffffffffffffffff163373ffffffffffffffffffffffffffffffffffffffff1614610c3357600080fd5b8360048681548110610c4857610c476120d7565b5b9060005260206000209060030201600101819055505050505050565b60006005600083815260200190815260200160002060009054906101000a900473ffffffffffffffffffffffffffffffffffffffff169050919050565b6000600660008373ffffffffffffffffffffffffffffffffffffffff1673ffffffffffffffffffffffffffffffffffffffff168152602001908152602001600020549050919050565b610cf2610e7f565b610cfb57600080fd5b600073ffffffffffffffffffffffffffffffffffffffff1660008054906101000a900473ffffffffffffffffffffffffffffffffffffffff1673ffffffffffffffffffffffffffffffffffffffff167f8be0079c531659141344cd1fd0a4f28419497f9722a3daafe3b4186f6b6457e060405160405180910390a360008060006101000a81548173ffffffffffffffffffffffffffffffffffffffff021916908373ffffffffffffffffffffffffffffffffffffffff160217905550565b6000600660003373ffffffffffffffffffffffffffffffffffffffff1673ffffffffffffffffffffffffffffffffffffffff1681526020019081526020016000205414610e3b576040517f08c379a0000000000000000000000000000000000000000000000000000000008152600401610e3290612393565b60405180910390fd5b6000610e46826115cf565b9050610e528282611614565b5050565b60008060009054906101000a900473ffffffffffffffffffffffffffffffffffffffff16905090565b60008060009054906101000a900473ffffffffffffffffffffffffffffffffffffffff1673ffffffffffffffffffffffffffffffffffffffff163373ffffffffffffffffffffffffffffffffffffffff1614905090565b6002838160048281548110610eee57610eed6120d7565b5b906000526020600020906003020160020160009054906101000a900463ffffffff1663ffffffff161015610f2157600080fd5b846005600082815260200190815260200160002060009054906101000a900473ffffffffffffffffffffffffffffffffffffffff1673ffffffffffffffffffffffffffffffffffffffff163373ffffffffffffffffffffffffffffffffffffffff1614610f8d57600080fd5b848460048881548110610fa357610fa26120d7565b5b90600052602060002090600302016000019182610fc192919061256a565b50505050505050565b610fd2610e7f565b610fdb57600080fd5b8060088190555050565b816005600082815260200190815260200160002060009054906101000a900473ffffffffffffffffffffffffffffffffffffffff1673ffffffffffffffffffffffffffffffffffffffff163373ffffffffffffffffffffffffffffffffffffffff161461105157600080fd5b600060048481548110611067576110666120d7565b5b9060005260206000209060030201905060006004848154811061108d5761108c6120d7565b5b9060005260206000209060030201905060006110a9606461187d565b9050600a5481116111ba5760018360020160089054906101000a900461ffff166110d3919061263a565b8360020160086101000a81548161ffff021916908361ffff16021790555060018360020160009054906101000a900463ffffffff166111129190612135565b8360020160006101000a81548163ffffffff021916908363ffffffff160217905550600182600201600a9054906101000a900461ffff16611153919061263a565b82600201600a6101000a81548161ffff021916908361ffff1602179055506111b58683600101546040518060400160405280600681526020017f7a6f6d6269650000000000000000000000000000000000000000000000000000815250611263565b61123e565b600183600201600a9054906101000a900461ffff166111d9919061263a565b83600201600a6101000a81548161ffff021916908361ffff16021790555060018260020160089054906101000a900461ffff16611216919061263a565b8260020160086101000a81548161ffff021916908361ffff16021790555061123d836118d6565b5b505050505050565b61124e610e7f565b61125757600080fd5b61126081611909565b50565b826005600082815260200190815260200160002060009054906101000a900473ffffffffffffffffffffffffffffffffffffffff1673ffffffffffffffffffffffffffffffffffffffff163373ffffffffffffffffffffffffffffffffffffffff16146112cf57600080fd5b6000600485815481106112e5576112e46120d7565b5b906000526020600020906003020190506112fe816119ff565b61130757600080fd5b60025484611315919061269f565b93506000600285836001015461132b91906122ed565b61133591906126d0565b905060405160200161134690612758565b604051602081830303815290604052805190602001208460405160200161136d919061279e565b60405160208183030381529060405280519060200120036113af576063606482611397919061269f565b826113a291906127b5565b6113ac91906122ed565b90505b6113ee6040518060400160405280600681526020017f4e6f4e616d65000000000000000000000000000000000000000000000000000081525082611614565b6113f7826118d6565b505050505050565b6001600660008473ffffffffffffffffffffffffffffffffffffffff1673ffffffffffffffffffffffffffffffffffffffff1681526020019081526020016000205461144b91906122ed565b600660008473ffffffffffffffffffffffffffffffffffffffff1673ffffffffffffffffffffffffffffffffffffffff168152602001908152602001600020819055506001600660008573ffffffffffffffffffffffffffffffffffffffff1673ffffffffffffffffffffffffffffffffffffffff168152602001908152602001600020546114da91906127b5565b600660008573ffffffffffffffffffffffffffffffffffffffff1673ffffffffffffffffffffffffffffffffffffffff16815260200190815260200160002081905550816005600083815260200190815260200160002060006101000a81548173ffffffffffffffffffffffffffffffffffffffff021916908373ffffffffffffffffffffffffffffffffffffffff160217905550808273ffffffffffffffffffffffffffffffffffffffff168473ffffffffffffffffffffffffffffffffffffffff167fddf252ad1be2c89b69c2b068fc378daa952ba7f163c4a11628f55a4df523b3ef60405160405180910390a4505050565b600080826040516020016115e3919061279e565b6040516020818303038152906040528051906020012060001c90506002548161160c919061269f565b915050919050565b60046040518060c00160405280848152602001838152602001600163ffffffff1681526020016003544261164891906122ed565b63ffffffff168152602001600061ffff168152602001600061ffff16815250908060018154018082558091505060019003906000526020600020906003020160009091909190915060008201518160000190816116a591906127e9565b506020820151816001015560408201518160020160006101000a81548163ffffffff021916908363ffffffff16021790555060608201518160020160046101000a81548163ffffffff021916908363ffffffff16021790555060808201518160020160086101000a81548161ffff021916908361ffff16021790555060a082015181600201600a6101000a81548161ffff021916908361ffff16021790555050506000600160048054905061175a91906127b5565b9050336005600083815260200190815260200160002060006101000a81548173ffffffffffffffffffffffffffffffffffffffff021916908373ffffffffffffffffffffffffffffffffffffffff1602179055506001600660003373ffffffffffffffffffffffffffffffffffffffff1673ffffffffffffffffffffffffffffffffffffffff168152602001908152602001600020546117fa91906122ed565b600660003373ffffffffffffffffffffffffffffffffffffffff1673ffffffffffffffffffffffffffffffffffffffff168152602001908152602001600020819055507f88f026aacbbecc90c18411df4b1185fd8d9be2470f1962f192bf84a27d0704b7818484604051611870939291906128bb565b60405180910390a1505050565b6000600160095461188e91906122ed565b6009819055508142336009546040516020016118ac93929190612962565b6040516020818303038152906040528051906020012060001c6118cf919061269f565b9050919050565b600354426118e491906122ed565b8160020160046101000a81548163ffffffff021916908363ffffffff16021790555050565b600073ffffffffffffffffffffffffffffffffffffffff168173ffffffffffffffffffffffffffffffffffffffff160361194257600080fd5b8073ffffffffffffffffffffffffffffffffffffffff1660008054906101000a900473ffffffffffffffffffffffffffffffffffffffff1673ffffffffffffffffffffffffffffffffffffffff167f8be0079c531659141344cd1fd0a4f28419497f9722a3daafe3b4186f6b6457e060405160405180910390a3806000806101000a81548173ffffffffffffffffffffffffffffffffffffffff021916908373ffffffffffffffffffffffffffffffffffffffff16021790555050565b6000428260020160049054906101000a900463ffffffff1663ffffffff1611159050919050565b6000604051905090565b600080fd5b600080fd5b600073ffffffffffffffffffffffffffffffffffffffff82169050919050565b6000611a6582611a3a565b9050919050565b611a7581611a5a565b8114611a8057600080fd5b50565b600081359050611a9281611a6c565b92915050565b6000819050919050565b611aab81611a98565b8114611ab657600080fd5b50565b600081359050611ac881611aa2565b92915050565b60008060408385031215611ae557611ae4611a30565b5b6000611af385828601611a83565b9250506020611b0485828601611ab9565b9150509250929050565b600060208284031215611b2457611b23611a30565b5b6000611b3284828501611ab9565b91505092915050565b60008060408385031215611b5257611b51611a30565b5b6000611b6085828601611ab9565b9250506020611b7185828601611ab9565b9150509250929050565b600081519050919050565b600082825260208201905092915050565b60005b83811015611bb5578082015181840152602081019050611b9a565b60008484015250505050565b6000601f19601f8301169050919050565b6000611bdd82611b7b565b611be78185611b86565b9350611bf7818560208601611b97565b611c0081611bc1565b840191505092915050565b611c1481611a98565b82525050565b600063ffffffff82169050919050565b611c3381611c1a565b82525050565b600061ffff82169050919050565b611c5081611c39565b82525050565b600060c0820190508181036000830152611c708189611bd2565b9050611c7f6020830188611c0b565b611c8c6040830187611c2a565b611c996060830186611c2a565b611ca66080830185611c47565b611cb360a0830184611c47565b979650505050505050565b600080600060608486031215611cd757611cd6611a30565b5b6000611ce586828701611a83565b9350506020611cf686828701611a83565b9250506040611d0786828701611ab9565b9150509250925092565b600060208284031215611d2757611d26611a30565b5b6000611d3584828501611a83565b91505092915050565b600081519050919050565b600082825260208201905092915050565b6000819050602082019050919050565b611d7381611a98565b82525050565b6000611d858383611d6a565b60208301905092915050565b6000602082019050919050565b6000611da982611d3e565b611db38185611d49565b9350611dbe83611d5a565b8060005b83811015611def578151611dd68882611d79565b9750611de183611d91565b925050600181019050611dc2565b5085935050505092915050565b60006020820190508181036000830152611e168184611d9e565b905092915050565b611e2781611a5a565b82525050565b6000602082019050611e426000830184611e1e565b92915050565b6000602082019050611e5d6000830184611c0b565b92915050565b600080fd5b600080fd5b7f4e487b7100000000000000000000000000000000000000000000000000000000600052604160045260246000fd5b611ea582611bc1565b810181811067ffffffffffffffff82111715611ec457611ec3611e6d565b5b80604052505050565b6000611ed7611a26565b9050611ee38282611e9c565b919050565b600067ffffffffffffffff821115611f0357611f02611e6d565b5b611f0c82611bc1565b9050602081019050919050565b82818337600083830152505050565b6000611f3b611f3684611ee8565b611ecd565b905082815260208101848484011115611f5757611f56611e68565b5b611f62848285611f19565b509392505050565b600082601f830112611f7f57611f7e611e63565b5b8135611f8f848260208601611f28565b91505092915050565b600060208284031215611fae57611fad611a30565b5b600082013567ffffffffffffffff811115611fcc57611fcb611a35565b5b611fd884828501611f6a565b91505092915050565b60008115159050919050565b611ff681611fe1565b82525050565b60006020820190506120116000830184611fed565b92915050565b600080fd5b600080fd5b60008083601f84011261203757612036611e63565b5b8235905067ffffffffffffffff81111561205457612053612017565b5b6020830191508360018202830111156120705761206f61201c565b5b9250929050565b6000806000604084860312156120905761208f611a30565b5b600061209e86828701611ab9565b935050602084013567ffffffffffffffff8111156120bf576120be611a35565b5b6120cb86828701612021565b92509250509250925092565b7f4e487b7100000000000000000000000000000000000000000000000000000000600052603260045260246000fd5b7f4e487b7100000000000000000000000000000000000000000000000000000000600052601160045260246000fd5b600061214082611c1a565b915061214b83611c1a565b9250828201905063ffffffff81111561216757612166612106565b5b92915050565b61217681611fe1565b811461218157600080fd5b50565b6000815190506121938161216d565b92915050565b6000815190506121a881611aa2565b92915050565b6000806000806000806000806000806101408b8d0312156121d2576121d1611a30565b5b60006121e08d828e01612184565b9a505060206121f18d828e01612184565b99505060406122028d828e01612199565b98505060606122138d828e01612199565b97505060806122248d828e01612199565b96505060a06122358d828e01612199565b95505060c06122468d828e01612199565b94505060e06122578d828e01612199565b9350506101006122698d828e01612199565b92505061012061227b8d828e01612199565b9150509295989b9194979a5092959850565b7f4e487b7100000000000000000000000000000000000000000000000000000000600052602260045260246000fd5b600060028204905060018216806122d457607f821691505b6020821081036122e7576122e661228d565b5b50919050565b60006122f882611a98565b915061230383611a98565b925082820190508082111561231b5761231a612106565b5b92915050565b7f506f6465206372696172206170656e617320756d207a756d626920706f72206360008201527f6f6e746100000000000000000000000000000000000000000000000000000000602082015250565b600061237d602483611b86565b915061238882612321565b604082019050919050565b600060208201905081810360008301526123ac81612370565b9050919050565b600082905092915050565b60008190508160005260206000209050919050565b60006020601f8301049050919050565b600082821b905092915050565b6000600883026124207fffffffffffffffffffffffffffffffffffffffffffffffffffffffffffffffff826123e3565b61242a86836123e3565b95508019841693508086168417925050509392505050565b6000819050919050565b600061246761246261245d84611a98565b612442565b611a98565b9050919050565b6000819050919050565b6124818361244c565b61249561248d8261246e565b8484546123f0565b825550505050565b600090565b6124aa61249d565b6124b5818484612478565b505050565b5b818110156124d9576124ce6000826124a2565b6001810190506124bb565b5050565b601f82111561251e576124ef816123be565b6124f8846123d3565b81016020851015612507578190505b61251b612513856123d3565b8301826124ba565b50505b505050565b600082821c905092915050565b600061254160001984600802612523565b1980831691505092915050565b600061255a8383612530565b9150826002028217905092915050565b61257483836123b3565b67ffffffffffffffff81111561258d5761258c611e6d565b5b61259782546122bc565b6125a28282856124dd565b6000601f8311600181146125d157600084156125bf578287013590505b6125c9858261254e565b865550612631565b601f1984166125df866123be565b60005b82811015612607578489013582556001820191506020850194506020810190506125e2565b868310156126245784890135612620601f891682612530565b8355505b6001600288020188555050505b50505050505050565b600061264582611c39565b915061265083611c39565b9250828201905061ffff81111561266a57612669612106565b5b92915050565b7f4e487b7100000000000000000000000000000000000000000000000000000000600052601260045260246000fd5b60006126aa82611a98565b91506126b583611a98565b9250826126c5576126c4612670565b5b828206905092915050565b60006126db82611a98565b91506126e683611a98565b9250826126f6576126f5612670565b5b828204905092915050565b600081905092915050565b7f6b69747479000000000000000000000000000000000000000000000000000000600082015250565b6000612742600583612701565b915061274d8261270c565b600582019050919050565b600061276382612735565b9150819050919050565b600061277882611b7b565b6127828185612701565b9350612792818560208601611b97565b80840191505092915050565b60006127aa828461276d565b915081905092915050565b60006127c082611a98565b91506127cb83611a98565b92508282039050818111156127e3576127e2612106565b5b92915050565b6127f282611b7b565b67ffffffffffffffff81111561280b5761280a611e6d565b5b61281582546122bc565b6128208282856124dd565b600060209050601f8311600181146128535760008415612841578287015190505b61284b858261254e565b8655506128b3565b601f198416612861866123be565b60005b8281101561288957848901518255600182019150602085019450602081019050612864565b868310156128a657848901516128a2601f891682612530565b8355505b6001600288020188555050505b505050505050565b60006060820190506128d06000830186611c0b565b81810360208301526128e28185611bd2565b90506128f16040830184611c0b565b949350505050565b6000819050919050565b61291461290f82611a98565b6128f9565b82525050565b60008160601b9050919050565b60006129328261291a565b9050919050565b600061294482612927565b9050919050565b61295c61295782611a5a565b612939565b82525050565b600061296e8286612903565b60208201915061297e828561294b565b60148201915061298e8284612903565b60208201915081905094935050505056fea2646970667358221220d29a86ce7543d3d9be7707db49d36e380b0886423fcd8d23bcf5da7f2dbcaf6564736f6c634300081c0033",
  "linkReferences": {},
  "deployedLinkReferences": {}
}