{
  "_format": "hh-sol-artifact-1",
  "contractName": "CryptoZombies",
  "sourceName": "contracts/CryptoZombies.sol",
  "abi": [
    {
      "anonymous": false,
      "inputs": [
        {
          "indexed": true,
          "internalType": "address",
          "name": "_owner",
          "type": "address"
        },
        {
          "indexed": true,
          "internalType": "address",
          "name": "_approved",
          "type": "address"
        },
        {
          "indexed": true,
          "internalType": "uint256",
          "name": "_tokenId",
          "type": "uint256"
        }
      ],
      "name": "Approval",
      "type": "event"
    },
    {
      "anonymous": false,
      "inputs": [
        {
          "indexed": true,
          "internalType": "address",
          "name": "from",
          "type": "address"
        },
        {
          "indexed": false,
          "internalType": "uint256",
          "name": "zombieId",
          "type": "uint256"
        },
        {
          "indexed": false,
          "internalType": "string",
          "name": "name",
          "type": "string"
        },
        {
          "indexed": false,
          "internalType": "uint256",
          "name": "dna",
          "type": "uint256"
        }
      ],
      "name": "NewZombie",
      "type": "event"
    },
    {
      "anonymous": false,
      "inputs": [
        {
          "indexed": true,
          "internalType": "address",
          "name": "previousOwner",
          "type": "address"
        },
        {
          "indexed": true,
          "internalType": "address",
          "name": "newOwner",
          "type": "address"
        }
      ],
      "name": "OwnershipTransferred",
      "type": "event"
    },
    {
      "anonymous": false,
      "inputs": [
        {
          "indexed": true,
          "internalType": "address",
          "name": "_from",
          "type": "address"
        },
        {
          "indexed": true,
          "internalType": "address",
          "name": "_to",
          "type": "address"
        },
        {
          "indexed": true,
          "internalType": "uint256",
          "name": "_tokenId",
          "type": "uint256"
        }
      ],
      "name": "Transfer",
      "type": "event"
    },
    {
      "anonymous": false,
      "inputs": [
        {
          "indexed": true,
          "internalType": "address",
          "name": "from",
          "type": "address"
        },
        {
          "indexed": false,
          "internalType": "uint256",
          "name": "fromDna",
          "type": "uint256"
        },
        {
          "indexed": false,
          "internalType": "uint256",
          "name": "targetDna",
          "type": "uint256"
        }
      ],
      "name": "onAttackDefeat",
      "type": "event"
    },
    {
      "anonymous": false,
      "inputs": [
        {
          "indexed": true,
          "internalType": "address",
          "name": "from",
          "type": "address"
        },
        {
          "indexed": false,
          "internalType": "uint256",
          "name": "fromDna",
          "type": "uint256"
        },
        {
          "indexed": false,
          "internalType": "uint256",
          "name": "targetDna",
          "type": "uint256"
        },
        {
          "indexed": false,
          "internalType": "uint256",
          "name": "newDna",
          "type": "uint256"
        }
      ],
      "name": "onAttackVitory",
      "type": "event"
    },
    {
      "anonymous": false,
      "inputs": [
        {
          "indexed": true,
          "internalType": "address",
          "name": "from",
          "type": "address"
        },
        {
          "indexed": false,
          "internalType": "uint256",
          "name": "fromDna",
          "type": "uint256"
        },
        {
          "indexed": false,
          "internalType": "uint256",
          "name": "targetDna",
          "type": "uint256"
        },
        {
          "indexed": false,
          "internalType": "uint256",
          "name": "_kittyId",
          "type": "uint256"
        },
        {
          "indexed": false,
          "internalType": "uint256",
          "name": "newDna",
          "type": "uint256"
        }
      ],
      "name": "onFeed",
      "type": "event"
    },
    {
      "inputs": [
        {
          "internalType": "address",
          "name": "_approved",
          "type": "address"
        },
        {
          "internalType": "uint256",
          "name": "_tokenId",
          "type": "uint256"
        }
      ],
      "name": "approve",
      "outputs": [],
      "stateMutability": "payable",
      "type": "function"
    },
    {
      "inputs": [
        {
          "internalType": "uint256",
          "name": "_zombieId",
          "type": "uint256"
        },
        {
          "internalType": "uint256",
          "name": "_targetId",
          "type": "uint256"
        }
      ],
      "name": "attack",
      "outputs": [],
      "stateMutability": "nonpayable",
      "type": "function"
    },
    {
      "inputs": [
        {
          "internalType": "address",
          "name": "_owner",
          "type": "address"
        }
      ],
      "name": "balanceOf",
      "outputs": [
        {
          "internalType": "uint256",
          "name": "",
          "type": "uint256"
        }
      ],
      "stateMutability": "view",
      "type": "function"
    },
    {
      "inputs": [
        {
          "internalType": "uint256",
          "name": "_zombieId",
          "type": "uint256"
        },
        {
          "internalType": "uint256",
          "name": "_newDna",
          "type": "uint256"
        }
      ],
      "name": "changeDna",
      "outputs": [],
      "stateMutability": "nonpayable",
      "type": "function"
    },
    {
      "inputs": [
        {
          "internalType": "uint256",
          "name": "_zombieId",
          "type": "uint256"
        },
        {
          "internalType": "string",
          "name": "_newName",
          "type": "string"
        }
      ],
      "name": "changeName",
      "outputs": [],
      "stateMutability": "nonpayable",
      "type": "function"
    },
    {
      "inputs": [
        {
          "internalType": "string",
          "name": "_name",
          "type": "string"
        }
      ],
      "name": "createRandomZombie",
      "outputs": [],
      "stateMutability": "nonpayable",
      "type": "function"
    },
    {
      "inputs": [
        {
          "internalType": "uint256",
          "name": "_zombieId",
          "type": "uint256"
        },
        {
          "internalType": "uint256",
          "name": "_kittyDna",
          "type": "uint256"
        },
        {
          "internalType": "uint256",
          "name": "_kittyId",
          "type": "uint256"
        }
      ],
      "name": "feedOnKitty",
      "outputs": [],
      "stateMutability": "nonpayable",
      "type": "function"
    },
    {
      "inputs": [
        {
          "internalType": "address",
          "name": "_owner",
          "type": "address"
        }
      ],
      "name": "getZombiesByOwner",
      "outputs": [
        {
          "internalType": "uint256[]",
          "name": "",
          "type": "uint256[]"
        }
      ],
      "stateMutability": "view",
      "type": "function"
    },
    {
      "inputs": [
        {
          "internalType": "address",
          "name": "_owner",
          "type": "address"
        },
        {
          "internalType": "uint256",
          "name": "_limit",
          "type": "uint256"
        }
      ],
      "name": "getZombiesOtherOwner",
      "outputs": [
        {
          "internalType": "uint256[]",
          "name": "",
          "type": "uint256[]"
        }
      ],
      "stateMutability": "view",
      "type": "function"
    },
    {
      "inputs": [],
      "name": "isOwner",
      "outputs": [
        {
          "internalType": "bool",
          "name": "",
          "type": "bool"
        }
      ],
      "stateMutability": "view",
      "type": "function"
    },
    {
      "inputs": [
        {
          "internalType": "uint256",
          "name": "_zombieId",
          "type": "uint256"
        }
      ],
      "name": "levelUp",
      "outputs": [],
      "stateMutability": "payable",
      "type": "function"
    },
    {
      "inputs": [],
      "name": "owner",
      "outputs": [
        {
          "internalType": "address",
          "name": "",
          "type": "address"
        }
      ],
      "stateMutability": "view",
      "type": "function"
    },
    {
      "inputs": [
        {
          "internalType": "uint256",
          "name": "_tokenId",
          "type": "uint256"
        }
      ],
      "name": "ownerOf",
      "outputs": [
        {
          "internalType": "address",
          "name": "",
          "type": "address"
        }
      ],
      "stateMutability": "view",
      "type": "function"
    },
    {
      "inputs": [],
      "name": "renounceOwnership",
      "outputs": [],
      "stateMutability": "nonpayable",
      "type": "function"
    },
    {
      "inputs": [
        {
          "internalType": "address",
          "name": "_address",
          "type": "address"
        }
      ],
      "name": "setKittyContractAddress",
      "outputs": [],
      "stateMutability": "nonpayable",
      "type": "function"
    },
    {
      "inputs": [
        {
          "internalType": "uint256",
          "name": "_fee",
          "type": "uint256"
        }
      ],
      "name": "setLevelUpFee",
      "outputs": [],
      "stateMutability": "nonpayable",
      "type": "function"
    },
    {
      "inputs": [
        {
          "internalType": "address",
          "name": "_from",
          "type": "address"
        },
        {
          "internalType": "address",
          "name": "_to",
          "type": "address"
        },
        {
          "internalType": "uint256",
          "name": "_tokenId",
          "type": "uint256"
        }
      ],
      "name": "transferFrom",
      "outputs": [],
      "stateMutability": "payable",
      "type": "function"
    },
    {
      "inputs": [
        {
          "internalType": "address",
          "name": "newOwner",
          "type": "address"
        }
      ],
      "name": "transferOwnership",
      "outputs": [],
      "stateMutability": "nonpayable",
      "type": "function"
    },
    {
      "inputs": [],
      "name": "withdraw",
      "outputs": [],
      "stateMutability": "nonpayable",
      "type": "function"
    },
    {
      "inputs": [
        {
          "internalType": "uint256",
          "name": "",
          "type": "uint256"
        }
      ],
      "name": "zombieToOwner",
      "outputs": [
        {
          "internalType": "address",
          "name": "",
          "type": "address"
        }
      ],
      "stateMutability": "view",
      "type": "function"
    },
    {
      "inputs": [
        {
          "internalType": "uint256",
          "name": "",
          "type": "uint256"
        }
      ],
      "name": "zombies",
      "outputs": [
        {
          "internalType": "string",
          "name": "name",
          "type": "string"
        },
        {
          "internalType": "uint256",
          "name": "dna",
          "type": "uint256"
        },
        {
          "internalType": "uint32",
          "name": "level",
          "type": "uint32"
        },
        {
          "internalType": "uint32",
          "name": "readyTime",
          "type": "uint32"
        },
        {
          "internalType": "uint16",
          "name": "winCount",
          "type": "uint16"
        },
        {
          "internalType": "uint16",
          "name": "lossCount",
          "type": "uint16"
        }
      ],
      "stateMutability": "view",
      "type": "function"
    }
  ],
  "bytecode": "0x60806040526010600155600154600a610018919061026e565b600255603c60035566038d7ea4c6800060085560006009556046600a5534801561004157600080fd5b50336000806101000a81548173ffffffffffffffffffffffffffffffffffffffff021916908373ffffffffffffffffffffffffffffffffffffffff16021790555060008054906101000a900473ffffffffffffffffffffffffffffffffffffffff1673ffffffffffffffffffffffffffffffffffffffff16600073ffffffffffffffffffffffffffffffffffffffff167f8be0079c531659141344cd1fd0a4f28419497f9722a3daafe3b4186f6b6457e060405160405180910390a36102b9565b7f4e487b7100000000000000000000000000000000000000000000000000000000600052601160045260246000fd5b60008160011c9050919050565b6000808291508390505b60018511156101885780860481111561016457610163610102565b5b60018516156101735780820291505b808102905061018185610131565b9450610148565b94509492505050565b6000826101a1576001905061025d565b816101af576000905061025d565b81600181146101c557600281146101cf576101fe565b600191505061025d565b60ff8411156101e1576101e0610102565b5b8360020a9150848211156101f8576101f7610102565b5b5061025d565b5060208310610133831016604e8410600b84101617156102335782820a90508381111561022e5761022d610102565b5b61025d565b610240848484600161013e565b9250905081840481111561025757610256610102565b5b81810290505b9392505050565b6000819050919050565b600061027982610264565b915061028483610264565b92506102b17fffffffffffffffffffffffffffffffffffffffffffffffffffffffffffffffff8484610191565b905092915050565b612d88806102c86000396000f3fe60806040526004361061012a5760003560e01c80636352211e116100ab5780638f32d59b1161006f5780638f32d59b146103b6578063ac94fec1146103e1578063c39cbef11461041e578063ccf670f814610447578063e1fa763814610470578063f2fde38b146104995761012a565b80636352211e146102d157806370a082311461030e578063715018a61461034b5780637bff0a01146103625780638da5cb5b1461038b5761012a565b80633ccfd60b116100f25780633ccfd60b146101ee5780634412e10414610205578063528b7b8f146102425780635f4623f11461027f5780635faf2880146102a85761012a565b806306f337601461012f578063095ea7b3146101585780630ce90ec2146101745780632052465e1461019057806323b872dd146101d2575b600080fd5b34801561013b57600080fd5b5061015660048036038101906101519190611d2b565b6104c2565b005b610172600480360381019061016d9190611ddc565b61058b565b005b61018e60048036038101906101899190611e1c565b6106a9565b005b34801561019c57600080fd5b506101b760048036038101906101b29190611e1c565b61073f565b6040516101c996959493929190611f24565b60405180910390f35b6101ec60048036038101906101e79190611f8c565b61084f565b005b3480156101fa57600080fd5b50610203610933565b005b34801561021157600080fd5b5061022c60048036038101906102279190611fdf565b61099a565b60405161023991906120ca565b60405180910390f35b34801561024e57600080fd5b5061026960048036038101906102649190611e1c565b610ae7565b60405161027691906120fb565b60405180910390f35b34801561028b57600080fd5b506102a660048036038101906102a19190611fdf565b610b1a565b005b3480156102b457600080fd5b506102cf60048036038101906102ca9190612116565b610b6f565b005b3480156102dd57600080fd5b506102f860048036038101906102f39190611e1c565b610c57565b60405161030591906120fb565b60405180910390f35b34801561031a57600080fd5b5061033560048036038101906103309190611fdf565b610c94565b6040516103429190612156565b60405180910390f35b34801561035757600080fd5b50610360610cdd565b005b34801561036e57600080fd5b50610389600480360381019061038491906122a6565b610dac565b005b34801561039757600080fd5b506103a0610e49565b6040516103ad91906120fb565b60405180910390f35b3480156103c257600080fd5b506103cb610e72565b6040516103d8919061230a565b60405180910390f35b3480156103ed57600080fd5b5061040860048036038101906104039190611ddc565b610ec9565b60405161041591906120ca565b60405180910390f35b34801561042a57600080fd5b5061044560048036038101906104409190612385565b611086565b005b34801561045357600080fd5b5061046e60048036038101906104699190611e1c565b61117a565b005b34801561047c57600080fd5b5061049760048036038101906104929190612116565b611195565b005b3480156104a557600080fd5b506104c060048036038101906104bb9190611fdf565b6114ad565b005b6000600484815481106104d8576104d76123e5565b5b90600052602060002090600302019050600061052a85856040518060400160405280600581526020017f6b697474790000000000000000000000000000000000000000000000000000008152506114ca565b90503373ffffffffffffffffffffffffffffffffffffffff167f94bd9f81959636fb1ddd32f8bcbdab8b649d20a6a464f759a1aa7f7cf4447fac836001015486868560405161057c9493929190612414565b60405180910390a25050505050565b806005600082815260200190815260200160002060009054906101000a900473ffffffffffffffffffffffffffffffffffffffff1673ffffffffffffffffffffffffffffffffffffffff163373ffffffffffffffffffffffffffffffffffffffff16146105f757600080fd5b82600b600084815260200190815260200160002060006101000a81548173ffffffffffffffffffffffffffffffffffffffff021916908373ffffffffffffffffffffffffffffffffffffffff160217905550818373ffffffffffffffffffffffffffffffffffffffff163373ffffffffffffffffffffffffffffffffffffffff167f8c5be1e5ebec7d5bd14f71427d1e84f3dd0314c0f7b2291e5b200ac8c7c3b92560405160405180910390a4505050565b60085434146106b757600080fd5b6001600482815481106106cd576106cc6123e5565b5b906000526020600020906003020160020160009054906101000a900463ffffffff166106f99190612488565b6004828154811061070d5761070c6123e5565b5b906000526020600020906003020160020160006101000a81548163ffffffff021916908363ffffffff16021790555050565b6004818154811061074f57600080fd5b9060005260206000209060030201600091509050806000018054610772906124ef565b80601f016020809104026020016040519081016040528092919081815260200182805461079e906124ef565b80156107eb5780601f106107c0576101008083540402835291602001916107eb565b820191906000526020600020905b8154815290600101906020018083116107ce57829003601f168201915b5050505050908060010154908060020160009054906101000a900463ffffffff16908060020160049054906101000a900463ffffffff16908060020160089054906101000a900461ffff169080600201600a9054906101000a900461ffff16905086565b3373ffffffffffffffffffffffffffffffffffffffff166005600083815260200190815260200160002060009054906101000a900473ffffffffffffffffffffffffffffffffffffffff1673ffffffffffffffffffffffffffffffffffffffff16148061091a57503373ffffffffffffffffffffffffffffffffffffffff16600b600083815260200190815260200160002060009054906101000a900473ffffffffffffffffffffffffffffffffffffffff1673ffffffffffffffffffffffffffffffffffffffff16145b61092357600080fd5b61092e8383836116a3565b505050565b61093b610e72565b61094457600080fd5b600061094e610e49565b90508073ffffffffffffffffffffffffffffffffffffffff166108fc479081150290604051600060405180830381858888f19350505050158015610996573d6000803e3d6000fd5b5050565b60606000600660008473ffffffffffffffffffffffffffffffffffffffff1673ffffffffffffffffffffffffffffffffffffffff1681526020019081526020016000205467ffffffffffffffff8111156109f7576109f661217b565b5b604051908082528060200260200182016040528015610a255781602001602082028036833780820191505090505b5090506000805b600480549050811015610adc578473ffffffffffffffffffffffffffffffffffffffff166005600083815260200190815260200160002060009054906101000a900473ffffffffffffffffffffffffffffffffffffffff1673ffffffffffffffffffffffffffffffffffffffff1603610acf5780838381518110610ab357610ab26123e5565b5b602002602001018181525050600182610acc9190612520565b91505b8080600101915050610a2c565b508192505050919050565b60056020528060005260406000206000915054906101000a900473ffffffffffffffffffffffffffffffffffffffff1681565b610b22610e72565b610b2b57600080fd5b80600760006101000a81548173ffffffffffffffffffffffffffffffffffffffff021916908373ffffffffffffffffffffffffffffffffffffffff16021790555050565b6014828160048281548110610b8757610b866123e5565b5b906000526020600020906003020160020160009054906101000a900463ffffffff1663ffffffff161015610bba57600080fd5b836005600082815260200190815260200160002060009054906101000a900473ffffffffffffffffffffffffffffffffffffffff1673ffffffffffffffffffffffffffffffffffffffff163373ffffffffffffffffffffffffffffffffffffffff1614610c2657600080fd5b8360048681548110610c3b57610c3a6123e5565b5b9060005260206000209060030201600101819055505050505050565b60006005600083815260200190815260200160002060009054906101000a900473ffffffffffffffffffffffffffffffffffffffff169050919050565b6000600660008373ffffffffffffffffffffffffffffffffffffffff1673ffffffffffffffffffffffffffffffffffffffff168152602001908152602001600020549050919050565b610ce5610e72565b610cee57600080fd5b600073ffffffffffffffffffffffffffffffffffffffff1660008054906101000a900473ffffffffffffffffffffffffffffffffffffffff1673ffffffffffffffffffffffffffffffffffffffff167f8be0079c531659141344cd1fd0a4f28419497f9722a3daafe3b4186f6b6457e060405160405180910390a360008060006101000a81548173ffffffffffffffffffffffffffffffffffffffff021916908373ffffffffffffffffffffffffffffffffffffffff160217905550565b6000600660003373ffffffffffffffffffffffffffffffffffffffff1673ffffffffffffffffffffffffffffffffffffffff1681526020019081526020016000205414610e2e576040517f08c379a0000000000000000000000000000000000000000000000000000000008152600401610e25906125c6565b60405180910390fd5b6000610e3982611873565b9050610e4582826118b8565b5050565b60008060009054906101000a900473ffffffffffffffffffffffffffffffffffffffff16905090565b60008060009054906101000a900473ffffffffffffffffffffffffffffffffffffffff1673ffffffffffffffffffffffffffffffffffffffff163373ffffffffffffffffffffffffffffffffffffffff1614905090565b60606000600660008573ffffffffffffffffffffffffffffffffffffffff1673ffffffffffffffffffffffffffffffffffffffff16815260200190815260200160002054600480549050610f1d91906125e6565b90506000818411610f2e5783610f30565b815b90506103e8811115610f77576040517f08c379a0000000000000000000000000000000000000000000000000000000008152600401610f6e90612666565b60405180910390fd5b60008167ffffffffffffffff811115610f9357610f9261217b565b5b604051908082528060200260200182016040528015610fc15781602001602082028036833780820191505090505b5090506000805b83821015611078578773ffffffffffffffffffffffffffffffffffffffff166005600083815260200190815260200160002060009054906101000a900473ffffffffffffffffffffffffffffffffffffffff1673ffffffffffffffffffffffffffffffffffffffff1614611065578083838151811061104a576110496123e5565b5b602002602001018181525050818061106190612686565b9250505b808061107090612686565b915050610fc8565b508194505050505092915050565b600283816004828154811061109e5761109d6123e5565b5b906000526020600020906003020160020160009054906101000a900463ffffffff1663ffffffff1610156110d157600080fd5b846005600082815260200190815260200160002060009054906101000a900473ffffffffffffffffffffffffffffffffffffffff1673ffffffffffffffffffffffffffffffffffffffff163373ffffffffffffffffffffffffffffffffffffffff161461113d57600080fd5b848460048881548110611153576111526123e5565b5b90600052602060002090600302016000019182611171929190612885565b50505050505050565b611182610e72565b61118b57600080fd5b8060088190555050565b816005600082815260200190815260200160002060009054906101000a900473ffffffffffffffffffffffffffffffffffffffff1673ffffffffffffffffffffffffffffffffffffffff163373ffffffffffffffffffffffffffffffffffffffff161461120157600080fd5b600060048481548110611217576112166123e5565b5b9060005260206000209060030201905060006004848154811061123d5761123c6123e5565b5b9060005260206000209060030201905060006112596064611b38565b9050600a5481116113c95760018360020160089054906101000a900461ffff166112839190612955565b8360020160086101000a81548161ffff021916908361ffff16021790555060018360020160009054906101000a900463ffffffff166112c29190612488565b8360020160006101000a81548163ffffffff021916908363ffffffff160217905550600182600201600a9054906101000a900461ffff166113039190612955565b82600201600a6101000a81548161ffff021916908361ffff16021790555060006113678784600101546040518060400160405280600681526020017f7a6f6d62696500000000000000000000000000000000000000000000000000008152506114ca565b90503373ffffffffffffffffffffffffffffffffffffffff167f750a7c18ca7f7bd87c6e50678ea7fa4f64d0cb733bb68cdac552d009737b471685600101548560010154846040516113bb9392919061298b565b60405180910390a2506114a5565b600183600201600a9054906101000a900461ffff166113e89190612955565b83600201600a6101000a81548161ffff021916908361ffff16021790555060018260020160089054906101000a900461ffff166114259190612955565b8260020160086101000a81548161ffff021916908361ffff16021790555061144c83611b91565b3373ffffffffffffffffffffffffffffffffffffffff167f4fa78061bb2783669831d2e2aa9ca18cb698e098923982bfada46ceaf1516d6a8460010154846001015460405161149c9291906129c2565b60405180910390a25b505050505050565b6114b5610e72565b6114be57600080fd5b6114c781611bc4565b50565b6000836005600082815260200190815260200160002060009054906101000a900473ffffffffffffffffffffffffffffffffffffffff1673ffffffffffffffffffffffffffffffffffffffff163373ffffffffffffffffffffffffffffffffffffffff161461153857600080fd5b60006004868154811061154e5761154d6123e5565b5b9060005260206000209060030201905061156781611cba565b6115a6576040517f08c379a000000000000000000000000000000000000000000000000000000000815260040161159d90612a37565b60405180910390fd5b600254856115b49190612a86565b9450600060028683600101546115ca9190612520565b6115d49190612ab7565b90506040516020016115e590612b3f565b604051602081830303815290604052805190602001208560405160200161160c9190612b85565b604051602081830303815290604052805190602001200361164e5760636064826116369190612a86565b8261164191906125e6565b61164b9190612520565b90505b61168d6040518060400160405280600681526020017f4e6f4e616d650000000000000000000000000000000000000000000000000000815250826118b8565b61169682611b91565b8093505050509392505050565b6001600660008473ffffffffffffffffffffffffffffffffffffffff1673ffffffffffffffffffffffffffffffffffffffff168152602001908152602001600020546116ef9190612520565b600660008473ffffffffffffffffffffffffffffffffffffffff1673ffffffffffffffffffffffffffffffffffffffff168152602001908152602001600020819055506001600660008573ffffffffffffffffffffffffffffffffffffffff1673ffffffffffffffffffffffffffffffffffffffff1681526020019081526020016000205461177e91906125e6565b600660008573ffffffffffffffffffffffffffffffffffffffff1673ffffffffffffffffffffffffffffffffffffffff16815260200190815260200160002081905550816005600083815260200190815260200160002060006101000a81548173ffffffffffffffffffffffffffffffffffffffff021916908373ffffffffffffffffffffffffffffffffffffffff160217905550808273ffffffffffffffffffffffffffffffffffffffff168473ffffffffffffffffffffffffffffffffffffffff167fddf252ad1be2c89b69c2b068fc378daa952ba7f163c4a11628f55a4df523b3ef60405160405180910390a4505050565b600080826040516020016118879190612b85565b6040516020818303038152906040528051906020012060001c9050600254816118b09190612a86565b915050919050565b60046040518060c00160405280848152602001838152602001600163ffffffff168152602001600354426118ec9190612520565b63ffffffff168152602001600061ffff168152602001600061ffff16815250908060018154018082558091505060019003906000526020600020906003020160009091909190915060008201518160000190816119499190612b9c565b506020820151816001015560408201518160020160006101000a81548163ffffffff021916908363ffffffff16021790555060608201518160020160046101000a81548163ffffffff021916908363ffffffff16021790555060808201518160020160086101000a81548161ffff021916908361ffff16021790555060a082015181600201600a6101000a81548161ffff021916908361ffff1602179055505050600060016004805490506119fe91906125e6565b9050336005600083815260200190815260200160002060006101000a81548173ffffffffffffffffffffffffffffffffffffffff021916908373ffffffffffffffffffffffffffffffffffffffff1602179055506001600660003373ffffffffffffffffffffffffffffffffffffffff1673ffffffffffffffffffffffffffffffffffffffff16815260200190815260200160002054611a9e9190612520565b600660003373ffffffffffffffffffffffffffffffffffffffff1673ffffffffffffffffffffffffffffffffffffffff168152602001908152602001600020819055503373ffffffffffffffffffffffffffffffffffffffff167ff92b1ba4cb9ae7683c3a3a1e58273b24013547531f590e32910f3105e8349e1f828585604051611b2b93929190612c6e565b60405180910390a2505050565b60006001600954611b499190612520565b600981905550814233600954604051602001611b6793929190612d15565b6040516020818303038152906040528051906020012060001c611b8a9190612a86565b9050919050565b60035442611b9f9190612520565b8160020160046101000a81548163ffffffff021916908363ffffffff16021790555050565b600073ffffffffffffffffffffffffffffffffffffffff168173ffffffffffffffffffffffffffffffffffffffff1603611bfd57600080fd5b8073ffffffffffffffffffffffffffffffffffffffff1660008054906101000a900473ffffffffffffffffffffffffffffffffffffffff1673ffffffffffffffffffffffffffffffffffffffff167f8be0079c531659141344cd1fd0a4f28419497f9722a3daafe3b4186f6b6457e060405160405180910390a3806000806101000a81548173ffffffffffffffffffffffffffffffffffffffff021916908373ffffffffffffffffffffffffffffffffffffffff16021790555050565b6000428260020160049054906101000a900463ffffffff1663ffffffff1611159050919050565b6000604051905090565b600080fd5b600080fd5b6000819050919050565b611d0881611cf5565b8114611d1357600080fd5b50565b600081359050611d2581611cff565b92915050565b600080600060608486031215611d4457611d43611ceb565b5b6000611d5286828701611d16565b9350506020611d6386828701611d16565b9250506040611d7486828701611d16565b9150509250925092565b600073ffffffffffffffffffffffffffffffffffffffff82169050919050565b6000611da982611d7e565b9050919050565b611db981611d9e565b8114611dc457600080fd5b50565b600081359050611dd681611db0565b92915050565b60008060408385031215611df357611df2611ceb565b5b6000611e0185828601611dc7565b9250506020611e1285828601611d16565b9150509250929050565b600060208284031215611e3257611e31611ceb565b5b6000611e4084828501611d16565b91505092915050565b600081519050919050565b600082825260208201905092915050565b60005b83811015611e83578082015181840152602081019050611e68565b60008484015250505050565b6000601f19601f8301169050919050565b6000611eab82611e49565b611eb58185611e54565b9350611ec5818560208601611e65565b611ece81611e8f565b840191505092915050565b611ee281611cf5565b82525050565b600063ffffffff82169050919050565b611f0181611ee8565b82525050565b600061ffff82169050919050565b611f1e81611f07565b82525050565b600060c0820190508181036000830152611f3e8189611ea0565b9050611f4d6020830188611ed9565b611f5a6040830187611ef8565b611f676060830186611ef8565b611f746080830185611f15565b611f8160a0830184611f15565b979650505050505050565b600080600060608486031215611fa557611fa4611ceb565b5b6000611fb386828701611dc7565b9350506020611fc486828701611dc7565b9250506040611fd586828701611d16565b9150509250925092565b600060208284031215611ff557611ff4611ceb565b5b600061200384828501611dc7565b91505092915050565b600081519050919050565b600082825260208201905092915050565b6000819050602082019050919050565b61204181611cf5565b82525050565b60006120538383612038565b60208301905092915050565b6000602082019050919050565b60006120778261200c565b6120818185612017565b935061208c83612028565b8060005b838110156120bd5781516120a48882612047565b97506120af8361205f565b925050600181019050612090565b5085935050505092915050565b600060208201905081810360008301526120e4818461206c565b905092915050565b6120f581611d9e565b82525050565b600060208201905061211060008301846120ec565b92915050565b6000806040838503121561212d5761212c611ceb565b5b600061213b85828601611d16565b925050602061214c85828601611d16565b9150509250929050565b600060208201905061216b6000830184611ed9565b92915050565b600080fd5b600080fd5b7f4e487b7100000000000000000000000000000000000000000000000000000000600052604160045260246000fd5b6121b382611e8f565b810181811067ffffffffffffffff821117156121d2576121d161217b565b5b80604052505050565b60006121e5611ce1565b90506121f182826121aa565b919050565b600067ffffffffffffffff8211156122115761221061217b565b5b61221a82611e8f565b9050602081019050919050565b82818337600083830152505050565b6000612249612244846121f6565b6121db565b90508281526020810184848401111561226557612264612176565b5b612270848285612227565b509392505050565b600082601f83011261228d5761228c612171565b5b813561229d848260208601612236565b91505092915050565b6000602082840312156122bc576122bb611ceb565b5b600082013567ffffffffffffffff8111156122da576122d9611cf0565b5b6122e684828501612278565b91505092915050565b60008115159050919050565b612304816122ef565b82525050565b600060208201905061231f60008301846122fb565b92915050565b600080fd5b600080fd5b60008083601f84011261234557612344612171565b5b8235905067ffffffffffffffff81111561236257612361612325565b5b60208301915083600182028301111561237e5761237d61232a565b5b9250929050565b60008060006040848603121561239e5761239d611ceb565b5b60006123ac86828701611d16565b935050602084013567ffffffffffffffff8111156123cd576123cc611cf0565b5b6123d98682870161232f565b92509250509250925092565b7f4e487b7100000000000000000000000000000000000000000000000000000000600052603260045260246000fd5b60006080820190506124296000830187611ed9565b6124366020830186611ed9565b6124436040830185611ed9565b6124506060830184611ed9565b95945050505050565b7f4e487b7100000000000000000000000000000000000000000000000000000000600052601160045260246000fd5b600061249382611ee8565b915061249e83611ee8565b9250828201905063ffffffff8111156124ba576124b9612459565b5b92915050565b7f4e487b7100000000000000000000000000000000000000000000000000000000600052602260045260246000fd5b6000600282049050600182168061250757607f821691505b60208210810361251a576125196124c0565b5b50919050565b600061252b82611cf5565b915061253683611cf5565b925082820190508082111561254e5761254d612459565b5b92915050565b7f596f752063616e206f6e6c7920637265617465206f6e65207a6f6d626965207060008201527f6572206163636f756e7400000000000000000000000000000000000000000000602082015250565b60006125b0602a83611e54565b91506125bb82612554565b604082019050919050565b600060208201905081810360008301526125df816125a3565b9050919050565b60006125f182611cf5565b91506125fc83611cf5565b925082820390508181111561261457612613612459565b5b92915050565b7f4c696d6974206973203130303000000000000000000000000000000000000000600082015250565b6000612650600d83611e54565b915061265b8261261a565b602082019050919050565b6000602082019050818103600083015261267f81612643565b9050919050565b600061269182611cf5565b91507fffffffffffffffffffffffffffffffffffffffffffffffffffffffffffffffff82036126c3576126c2612459565b5b600182019050919050565b600082905092915050565b60008190508160005260206000209050919050565b60006020601f8301049050919050565b600082821b905092915050565b60006008830261273b7fffffffffffffffffffffffffffffffffffffffffffffffffffffffffffffffff826126fe565b61274586836126fe565b95508019841693508086168417925050509392505050565b6000819050919050565b600061278261277d61277884611cf5565b61275d565b611cf5565b9050919050565b6000819050919050565b61279c83612767565b6127b06127a882612789565b84845461270b565b825550505050565b600090565b6127c56127b8565b6127d0818484612793565b505050565b5b818110156127f4576127e96000826127bd565b6001810190506127d6565b5050565b601f8211156128395761280a816126d9565b612813846126ee565b81016020851015612822578190505b61283661282e856126ee565b8301826127d5565b50505b505050565b600082821c905092915050565b600061285c6000198460080261283e565b1980831691505092915050565b6000612875838361284b565b9150826002028217905092915050565b61288f83836126ce565b67ffffffffffffffff8111156128a8576128a761217b565b5b6128b282546124ef565b6128bd8282856127f8565b6000601f8311600181146128ec57600084156128da578287013590505b6128e48582612869565b86555061294c565b601f1984166128fa866126d9565b60005b82811015612922578489013582556001820191506020850194506020810190506128fd565b8683101561293f578489013561293b601f89168261284b565b8355505b6001600288020188555050505b50505050505050565b600061296082611f07565b915061296b83611f07565b9250828201905061ffff81111561298557612984612459565b5b92915050565b60006060820190506129a06000830186611ed9565b6129ad6020830185611ed9565b6129ba6040830184611ed9565b949350505050565b60006040820190506129d76000830185611ed9565b6129e46020830184611ed9565b9392505050565b7f5a6f6d626965206973206e6f7420726561647920746f20666565640000000000600082015250565b6000612a21601b83611e54565b9150612a2c826129eb565b602082019050919050565b60006020820190508181036000830152612a5081612a14565b9050919050565b7f4e487b7100000000000000000000000000000000000000000000000000000000600052601260045260246000fd5b6000612a9182611cf5565b9150612a9c83611cf5565b925082612aac57612aab612a57565b5b828206905092915050565b6000612ac282611cf5565b9150612acd83611cf5565b925082612add57612adc612a57565b5b828204905092915050565b600081905092915050565b7f6b69747479000000000000000000000000000000000000000000000000000000600082015250565b6000612b29600583612ae8565b9150612b3482612af3565b600582019050919050565b6000612b4a82612b1c565b9150819050919050565b6000612b5f82611e49565b612b698185612ae8565b9350612b79818560208601611e65565b80840191505092915050565b6000612b918284612b54565b915081905092915050565b612ba582611e49565b67ffffffffffffffff811115612bbe57612bbd61217b565b5b612bc882546124ef565b612bd38282856127f8565b600060209050601f831160018114612c065760008415612bf4578287015190505b612bfe8582612869565b865550612c66565b601f198416612c14866126d9565b60005b82811015612c3c57848901518255600182019150602085019450602081019050612c17565b86831015612c595784890151612c55601f89168261284b565b8355505b6001600288020188555050505b505050505050565b6000606082019050612c836000830186611ed9565b8181036020830152612c958185611ea0565b9050612ca46040830184611ed9565b949350505050565b6000819050919050565b612cc7612cc282611cf5565b612cac565b82525050565b60008160601b9050919050565b6000612ce582612ccd565b9050919050565b6000612cf782612cda565b9050919050565b612d0f612d0a82611d9e565b612cec565b82525050565b6000612d218286612cb6565b602082019150612d318285612cfe565b601482019150612d418284612cb6565b60208201915081905094935050505056fea26469706673582212203fddf622a1aac71f106c7fed0beb33fa485d97313cb3af3ef8287b25bac905ac64736f6c634300081c0033",
  "linkReferences": {},
  "deployedLinkReferences": {}
}