{
  "_format": "hh-sol-artifact-1",
  "contractName": "CryptoZombies",
  "sourceName": "contracts/CryptoZombies.sol",
  "abi": [
    {
      "anonymous": false,
      "inputs": [
        {
          "indexed": true,
          "internalType": "address",
          "name": "_owner",
          "type": "address"
        },
        {
          "indexed": true,
          "internalType": "address",
          "name": "_approved",
          "type": "address"
        },
        {
          "indexed": true,
          "internalType": "uint256",
          "name": "_tokenId",
          "type": "uint256"
        }
      ],
      "name": "Approval",
      "type": "event"
    },
    {
      "anonymous": false,
      "inputs": [
        {
          "indexed": true,
          "internalType": "address",
          "name": "from",
          "type": "address"
        },
        {
          "indexed": false,
          "internalType": "uint256",
          "name": "zombieId",
          "type": "uint256"
        },
        {
          "indexed": false,
          "internalType": "string",
          "name": "name",
          "type": "string"
        },
        {
          "indexed": false,
          "internalType": "uint256",
          "name": "dna",
          "type": "uint256"
        }
      ],
      "name": "NewZombie",
      "type": "event"
    },
    {
      "anonymous": false,
      "inputs": [
        {
          "indexed": true,
          "internalType": "address",
          "name": "previousOwner",
          "type": "address"
        },
        {
          "indexed": true,
          "internalType": "address",
          "name": "newOwner",
          "type": "address"
        }
      ],
      "name": "OwnershipTransferred",
      "type": "event"
    },
    {
      "anonymous": false,
      "inputs": [
        {
          "indexed": true,
          "internalType": "address",
          "name": "_from",
          "type": "address"
        },
        {
          "indexed": true,
          "internalType": "address",
          "name": "_to",
          "type": "address"
        },
        {
          "indexed": true,
          "internalType": "uint256",
          "name": "_tokenId",
          "type": "uint256"
        }
      ],
      "name": "Transfer",
      "type": "event"
    },
    {
      "anonymous": false,
      "inputs": [
        {
          "indexed": true,
          "internalType": "address",
          "name": "from",
          "type": "address"
        },
        {
          "indexed": false,
          "internalType": "uint256",
          "name": "fromId",
          "type": "uint256"
        },
        {
          "indexed": false,
          "internalType": "uint256",
          "name": "targetId",
          "type": "uint256"
        }
      ],
      "name": "onAttackDefeat",
      "type": "event"
    },
    {
      "anonymous": false,
      "inputs": [
        {
          "indexed": true,
          "internalType": "address",
          "name": "from",
          "type": "address"
        },
        {
          "indexed": false,
          "internalType": "uint256",
          "name": "fromId",
          "type": "uint256"
        },
        {
          "indexed": false,
          "internalType": "uint256",
          "name": "targetId",
          "type": "uint256"
        },
        {
          "indexed": false,
          "internalType": "uint256",
          "name": "newDna",
          "type": "uint256"
        }
      ],
      "name": "onAttackVitory",
      "type": "event"
    },
    {
      "anonymous": false,
      "inputs": [
        {
          "indexed": true,
          "internalType": "address",
          "name": "from",
          "type": "address"
        },
        {
          "indexed": false,
          "internalType": "uint256",
          "name": "fromDna",
          "type": "uint256"
        },
        {
          "indexed": false,
          "internalType": "uint256",
          "name": "targetDna",
          "type": "uint256"
        },
        {
          "indexed": false,
          "internalType": "uint256",
          "name": "_kittyId",
          "type": "uint256"
        },
        {
          "indexed": false,
          "internalType": "uint256",
          "name": "newDna",
          "type": "uint256"
        }
      ],
      "name": "onFeed",
      "type": "event"
    },
    {
      "inputs": [
        {
          "internalType": "address",
          "name": "_approved",
          "type": "address"
        },
        {
          "internalType": "uint256",
          "name": "_tokenId",
          "type": "uint256"
        }
      ],
      "name": "approve",
      "outputs": [],
      "stateMutability": "payable",
      "type": "function"
    },
    {
      "inputs": [
        {
          "internalType": "uint256",
          "name": "_zombieId",
          "type": "uint256"
        },
        {
          "internalType": "uint256",
          "name": "_targetId",
          "type": "uint256"
        }
      ],
      "name": "attack",
      "outputs": [],
      "stateMutability": "nonpayable",
      "type": "function"
    },
    {
      "inputs": [
        {
          "internalType": "address",
          "name": "_owner",
          "type": "address"
        }
      ],
      "name": "balanceOf",
      "outputs": [
        {
          "internalType": "uint256",
          "name": "",
          "type": "uint256"
        }
      ],
      "stateMutability": "view",
      "type": "function"
    },
    {
      "inputs": [
        {
          "internalType": "uint256",
          "name": "_zombieId",
          "type": "uint256"
        },
        {
          "internalType": "uint256",
          "name": "_newDna",
          "type": "uint256"
        }
      ],
      "name": "changeDna",
      "outputs": [],
      "stateMutability": "nonpayable",
      "type": "function"
    },
    {
      "inputs": [
        {
          "internalType": "uint256",
          "name": "_zombieId",
          "type": "uint256"
        },
        {
          "internalType": "string",
          "name": "_newName",
          "type": "string"
        }
      ],
      "name": "changeName",
      "outputs": [],
      "stateMutability": "nonpayable",
      "type": "function"
    },
    {
      "inputs": [
        {
          "internalType": "string",
          "name": "_name",
          "type": "string"
        }
      ],
      "name": "createRandomZombie",
      "outputs": [],
      "stateMutability": "nonpayable",
      "type": "function"
    },
    {
      "inputs": [
        {
          "internalType": "uint256",
          "name": "_zombieId",
          "type": "uint256"
        },
        {
          "internalType": "uint256",
          "name": "_kittyDna",
          "type": "uint256"
        },
        {
          "internalType": "uint256",
          "name": "_kittyId",
          "type": "uint256"
        }
      ],
      "name": "feedOnKitty",
      "outputs": [],
      "stateMutability": "nonpayable",
      "type": "function"
    },
    {
      "inputs": [],
      "name": "getAccounts",
      "outputs": [
        {
          "internalType": "address[]",
          "name": "",
          "type": "address[]"
        }
      ],
      "stateMutability": "view",
      "type": "function"
    },
    {
      "inputs": [
        {
          "internalType": "address",
          "name": "_owner",
          "type": "address"
        }
      ],
      "name": "getZombiesByOwner",
      "outputs": [
        {
          "internalType": "uint256[]",
          "name": "",
          "type": "uint256[]"
        }
      ],
      "stateMutability": "view",
      "type": "function"
    },
    {
      "inputs": [
        {
          "internalType": "address",
          "name": "_owner",
          "type": "address"
        },
        {
          "internalType": "uint256",
          "name": "_limit",
          "type": "uint256"
        }
      ],
      "name": "getZombiesOtherOwner",
      "outputs": [
        {
          "internalType": "uint256[]",
          "name": "",
          "type": "uint256[]"
        }
      ],
      "stateMutability": "view",
      "type": "function"
    },
    {
      "inputs": [],
      "name": "isOwner",
      "outputs": [
        {
          "internalType": "bool",
          "name": "",
          "type": "bool"
        }
      ],
      "stateMutability": "view",
      "type": "function"
    },
    {
      "inputs": [
        {
          "internalType": "uint256",
          "name": "_zombieId",
          "type": "uint256"
        }
      ],
      "name": "levelUp",
      "outputs": [],
      "stateMutability": "payable",
      "type": "function"
    },
    {
      "inputs": [],
      "name": "owner",
      "outputs": [
        {
          "internalType": "address",
          "name": "",
          "type": "address"
        }
      ],
      "stateMutability": "view",
      "type": "function"
    },
    {
      "inputs": [
        {
          "internalType": "uint256",
          "name": "_tokenId",
          "type": "uint256"
        }
      ],
      "name": "ownerOf",
      "outputs": [
        {
          "internalType": "address",
          "name": "",
          "type": "address"
        }
      ],
      "stateMutability": "view",
      "type": "function"
    },
    {
      "inputs": [],
      "name": "renounceOwnership",
      "outputs": [],
      "stateMutability": "nonpayable",
      "type": "function"
    },
    {
      "inputs": [
        {
          "internalType": "address",
          "name": "_address",
          "type": "address"
        }
      ],
      "name": "setKittyContractAddress",
      "outputs": [],
      "stateMutability": "nonpayable",
      "type": "function"
    },
    {
      "inputs": [
        {
          "internalType": "uint256",
          "name": "_fee",
          "type": "uint256"
        }
      ],
      "name": "setLevelUpFee",
      "outputs": [],
      "stateMutability": "nonpayable",
      "type": "function"
    },
    {
      "inputs": [
        {
          "internalType": "address",
          "name": "_from",
          "type": "address"
        },
        {
          "internalType": "address",
          "name": "_to",
          "type": "address"
        },
        {
          "internalType": "uint256",
          "name": "_tokenId",
          "type": "uint256"
        }
      ],
      "name": "transferFrom",
      "outputs": [],
      "stateMutability": "payable",
      "type": "function"
    },
    {
      "inputs": [
        {
          "internalType": "address",
          "name": "newOwner",
          "type": "address"
        }
      ],
      "name": "transferOwnership",
      "outputs": [],
      "stateMutability": "nonpayable",
      "type": "function"
    },
    {
      "inputs": [],
      "name": "withdraw",
      "outputs": [],
      "stateMutability": "nonpayable",
      "type": "function"
    },
    {
      "inputs": [
        {
          "internalType": "uint256",
          "name": "",
          "type": "uint256"
        }
      ],
      "name": "zombieToOwner",
      "outputs": [
        {
          "internalType": "address",
          "name": "",
          "type": "address"
        }
      ],
      "stateMutability": "view",
      "type": "function"
    },
    {
      "inputs": [
        {
          "internalType": "uint256",
          "name": "",
          "type": "uint256"
        }
      ],
      "name": "zombies",
      "outputs": [
        {
          "internalType": "string",
          "name": "name",
          "type": "string"
        },
        {
          "internalType": "uint256",
          "name": "dna",
          "type": "uint256"
        },
        {
          "internalType": "uint32",
          "name": "level",
          "type": "uint32"
        },
        {
          "internalType": "uint32",
          "name": "readyTime",
          "type": "uint32"
        },
        {
          "internalType": "uint16",
          "name": "winCount",
          "type": "uint16"
        },
        {
          "internalType": "uint16",
          "name": "lossCount",
          "type": "uint16"
        }
      ],
      "stateMutability": "view",
      "type": "function"
    }
  ],
  "bytecode": "0x60806040526010600155600154600a610018919061026e565b600255603c60035566038d7ea4c680006009556000600a556046600b5534801561004157600080fd5b50336000806101000a81548173ffffffffffffffffffffffffffffffffffffffff021916908373ffffffffffffffffffffffffffffffffffffffff16021790555060008054906101000a900473ffffffffffffffffffffffffffffffffffffffff1673ffffffffffffffffffffffffffffffffffffffff16600073ffffffffffffffffffffffffffffffffffffffff167f8be0079c531659141344cd1fd0a4f28419497f9722a3daafe3b4186f6b6457e060405160405180910390a36102b9565b7f4e487b7100000000000000000000000000000000000000000000000000000000600052601160045260246000fd5b60008160011c9050919050565b6000808291508390505b60018511156101885780860481111561016457610163610102565b5b60018516156101735780820291505b808102905061018185610131565b9450610148565b94509492505050565b6000826101a1576001905061025d565b816101af576000905061025d565b81600181146101c557600281146101cf576101fe565b600191505061025d565b60ff8411156101e1576101e0610102565b5b8360020a9150848211156101f8576101f7610102565b5b5061025d565b5060208310610133831016604e8410600b84101617156102335782820a90508381111561022e5761022d610102565b5b61025d565b610240848484600161013e565b9250905081840481111561025757610256610102565b5b81810290505b9392505050565b6000819050919050565b600061027982610264565b915061028483610264565b92506102b17fffffffffffffffffffffffffffffffffffffffffffffffffffffffffffffffff8484610191565b905092915050565b6132cd806102c86000396000f3fe6080604052600436106101355760003560e01c806370a08231116100ab5780638f32d59b1161006f5780638f32d59b146103ec578063ac94fec114610417578063c39cbef114610454578063ccf670f81461047d578063e1fa7638146104a6578063f2fde38b146104cf57610135565b806370a0823114610319578063715018a6146103565780637bff0a011461036d5780638a48ac03146103965780638da5cb5b146103c157610135565b80633ccfd60b116100fd5780633ccfd60b146101f95780634412e10414610210578063528b7b8f1461024d5780635f4623f11461028a5780635faf2880146102b35780636352211e146102dc57610135565b806306f337601461013a578063095ea7b3146101635780630ce90ec21461017f5780632052465e1461019b57806323b872dd146101dd575b600080fd5b34801561014657600080fd5b50610161600480360381019061015c9190612060565b6104f8565b005b61017d60048036038101906101789190612111565b6105c1565b005b61019960048036038101906101949190612151565b6106df565b005b3480156101a757600080fd5b506101c260048036038101906101bd9190612151565b610775565b6040516101d496959493929190612259565b60405180910390f35b6101f760048036038101906101f291906122c1565b610885565b005b34801561020557600080fd5b5061020e610969565b005b34801561021c57600080fd5b5061023760048036038101906102329190612314565b6109d0565b60405161024491906123ff565b60405180910390f35b34801561025957600080fd5b50610274600480360381019061026f9190612151565b610b1d565b6040516102819190612430565b60405180910390f35b34801561029657600080fd5b506102b160048036038101906102ac9190612314565b610b50565b005b3480156102bf57600080fd5b506102da60048036038101906102d5919061244b565b610ba5565b005b3480156102e857600080fd5b5061030360048036038101906102fe9190612151565b610c8d565b6040516103109190612430565b60405180910390f35b34801561032557600080fd5b50610340600480360381019061033b9190612314565b610cca565b60405161034d919061248b565b60405180910390f35b34801561036257600080fd5b5061036b610d13565b005b34801561037957600080fd5b50610394600480360381019061038f91906125db565b610de2565b005b3480156103a257600080fd5b506103ab610ee2565b6040516103b891906126e2565b60405180910390f35b3480156103cd57600080fd5b506103d6610fe7565b6040516103e39190612430565b60405180910390f35b3480156103f857600080fd5b50610401611010565b60405161040e919061271f565b60405180910390f35b34801561042357600080fd5b5061043e60048036038101906104399190612111565b611067565b60405161044b91906123ff565b60405180910390f35b34801561046057600080fd5b5061047b6004803603810190610476919061279a565b611224565b005b34801561048957600080fd5b506104a4600480360381019061049f9190612151565b611318565b005b3480156104b257600080fd5b506104cd60048036038101906104c8919061244b565b611333565b005b3480156104db57600080fd5b506104f660048036038101906104f19190612314565b611678565b005b60006004848154811061050e5761050d6127fa565b5b90600052602060002090600302019050600061056085856040518060400160405280600581526020017f6b69747479000000000000000000000000000000000000000000000000000000815250611695565b90503373ffffffffffffffffffffffffffffffffffffffff167f94bd9f81959636fb1ddd32f8bcbdab8b649d20a6a464f759a1aa7f7cf4447fac83600101548686856040516105b29493929190612829565b60405180910390a25050505050565b806006600082815260200190815260200160002060009054906101000a900473ffffffffffffffffffffffffffffffffffffffff1673ffffffffffffffffffffffffffffffffffffffff163373ffffffffffffffffffffffffffffffffffffffff161461062d57600080fd5b82600c600084815260200190815260200160002060006101000a81548173ffffffffffffffffffffffffffffffffffffffff021916908373ffffffffffffffffffffffffffffffffffffffff160217905550818373ffffffffffffffffffffffffffffffffffffffff163373ffffffffffffffffffffffffffffffffffffffff167f8c5be1e5ebec7d5bd14f71427d1e84f3dd0314c0f7b2291e5b200ac8c7c3b92560405160405180910390a4505050565b60095434146106ed57600080fd5b600160048281548110610703576107026127fa565b5b906000526020600020906003020160020160009054906101000a900463ffffffff1661072f919061289d565b60048281548110610743576107426127fa565b5b906000526020600020906003020160020160006101000a81548163ffffffff021916908363ffffffff16021790555050565b6004818154811061078557600080fd5b90600052602060002090600302016000915090508060000180546107a890612904565b80601f01602080910402602001604051908101604052809291908181526020018280546107d490612904565b80156108215780601f106107f657610100808354040283529160200191610821565b820191906000526020600020905b81548152906001019060200180831161080457829003601f168201915b5050505050908060010154908060020160009054906101000a900463ffffffff16908060020160049054906101000a900463ffffffff16908060020160089054906101000a900461ffff169080600201600a9054906101000a900461ffff16905086565b3373ffffffffffffffffffffffffffffffffffffffff166006600083815260200190815260200160002060009054906101000a900473ffffffffffffffffffffffffffffffffffffffff1673ffffffffffffffffffffffffffffffffffffffff16148061095057503373ffffffffffffffffffffffffffffffffffffffff16600c600083815260200190815260200160002060009054906101000a900473ffffffffffffffffffffffffffffffffffffffff1673ffffffffffffffffffffffffffffffffffffffff16145b61095957600080fd5b61096483838361186e565b505050565b610971611010565b61097a57600080fd5b6000610984610fe7565b90508073ffffffffffffffffffffffffffffffffffffffff166108fc479081150290604051600060405180830381858888f193505050501580156109cc573d6000803e3d6000fd5b5050565b60606000600760008473ffffffffffffffffffffffffffffffffffffffff1673ffffffffffffffffffffffffffffffffffffffff1681526020019081526020016000205467ffffffffffffffff811115610a2d57610a2c6124b0565b5b604051908082528060200260200182016040528015610a5b5781602001602082028036833780820191505090505b5090506000805b600480549050811015610b12578473ffffffffffffffffffffffffffffffffffffffff166006600083815260200190815260200160002060009054906101000a900473ffffffffffffffffffffffffffffffffffffffff1673ffffffffffffffffffffffffffffffffffffffff1603610b055780838381518110610ae957610ae86127fa565b5b602002602001018181525050600182610b029190612935565b91505b8080600101915050610a62565b508192505050919050565b60066020528060005260406000206000915054906101000a900473ffffffffffffffffffffffffffffffffffffffff1681565b610b58611010565b610b6157600080fd5b80600860006101000a81548173ffffffffffffffffffffffffffffffffffffffff021916908373ffffffffffffffffffffffffffffffffffffffff16021790555050565b6014828160048281548110610bbd57610bbc6127fa565b5b906000526020600020906003020160020160009054906101000a900463ffffffff1663ffffffff161015610bf057600080fd5b836006600082815260200190815260200160002060009054906101000a900473ffffffffffffffffffffffffffffffffffffffff1673ffffffffffffffffffffffffffffffffffffffff163373ffffffffffffffffffffffffffffffffffffffff1614610c5c57600080fd5b8360048681548110610c7157610c706127fa565b5b9060005260206000209060030201600101819055505050505050565b60006006600083815260200190815260200160002060009054906101000a900473ffffffffffffffffffffffffffffffffffffffff169050919050565b6000600760008373ffffffffffffffffffffffffffffffffffffffff1673ffffffffffffffffffffffffffffffffffffffff168152602001908152602001600020549050919050565b610d1b611010565b610d2457600080fd5b600073ffffffffffffffffffffffffffffffffffffffff1660008054906101000a900473ffffffffffffffffffffffffffffffffffffffff1673ffffffffffffffffffffffffffffffffffffffff167f8be0079c531659141344cd1fd0a4f28419497f9722a3daafe3b4186f6b6457e060405160405180910390a360008060006101000a81548173ffffffffffffffffffffffffffffffffffffffff021916908373ffffffffffffffffffffffffffffffffffffffff160217905550565b6000600760003373ffffffffffffffffffffffffffffffffffffffff1673ffffffffffffffffffffffffffffffffffffffff1681526020019081526020016000205414610e64576040517f08c379a0000000000000000000000000000000000000000000000000000000008152600401610e5b906129db565b60405180910390fd5b6000610e6f82611a3e565b9050610e7b8282611a83565b6005339080600181540180825580915050600190039060005260206000200160009091909190916101000a81548173ffffffffffffffffffffffffffffffffffffffff021916908373ffffffffffffffffffffffffffffffffffffffff1602179055505050565b6060600060058054905067ffffffffffffffff811115610f0557610f046124b0565b5b604051908082528060200260200182016040528015610f335781602001602082028036833780820191505090505b50905060005b600580549050811015610fdf5760058181548110610f5a57610f596127fa565b5b9060005260206000200160009054906101000a900473ffffffffffffffffffffffffffffffffffffffff16828281518110610f9857610f976127fa565b5b602002602001019073ffffffffffffffffffffffffffffffffffffffff16908173ffffffffffffffffffffffffffffffffffffffff16815250508080600101915050610f39565b508091505090565b60008060009054906101000a900473ffffffffffffffffffffffffffffffffffffffff16905090565b60008060009054906101000a900473ffffffffffffffffffffffffffffffffffffffff1673ffffffffffffffffffffffffffffffffffffffff163373ffffffffffffffffffffffffffffffffffffffff1614905090565b60606000600760008573ffffffffffffffffffffffffffffffffffffffff1673ffffffffffffffffffffffffffffffffffffffff168152602001908152602001600020546004805490506110bb91906129fb565b905060008184116110cc57836110ce565b815b90506103e8811115611115576040517f08c379a000000000000000000000000000000000000000000000000000000000815260040161110c90612a7b565b60405180910390fd5b60008167ffffffffffffffff811115611131576111306124b0565b5b60405190808252806020026020018201604052801561115f5781602001602082028036833780820191505090505b5090506000805b83821015611216578773ffffffffffffffffffffffffffffffffffffffff166006600083815260200190815260200160002060009054906101000a900473ffffffffffffffffffffffffffffffffffffffff1673ffffffffffffffffffffffffffffffffffffffff161461120357808383815181106111e8576111e76127fa565b5b60200260200101818152505081806111ff90612a9b565b9250505b808061120e90612a9b565b915050611166565b508194505050505092915050565b600283816004828154811061123c5761123b6127fa565b5b906000526020600020906003020160020160009054906101000a900463ffffffff1663ffffffff16101561126f57600080fd5b846006600082815260200190815260200160002060009054906101000a900473ffffffffffffffffffffffffffffffffffffffff1673ffffffffffffffffffffffffffffffffffffffff163373ffffffffffffffffffffffffffffffffffffffff16146112db57600080fd5b8484600488815481106112f1576112f06127fa565b5b9060005260206000209060030201600001918261130f929190612c9a565b50505050505050565b611320611010565b61132957600080fd5b8060098190555050565b816006600082815260200190815260200160002060009054906101000a900473ffffffffffffffffffffffffffffffffffffffff1673ffffffffffffffffffffffffffffffffffffffff163373ffffffffffffffffffffffffffffffffffffffff161461139f57600080fd5b6000600484815481106113b5576113b46127fa565b5b906000526020600020906003020190506000600484815481106113db576113da6127fa565b5b9060005260206000209060030201905060006113f78383611d03565b90506000606442338960405160200161141293929190612dd3565b6040516020818303038152906040528051906020012060001c6114359190612e3f565b905081811161159b5760018460020160089054906101000a900461ffff1661145d9190612e70565b8460020160086101000a81548161ffff021916908361ffff16021790555060018460020160009054906101000a900463ffffffff1661149c919061289d565b8460020160006101000a81548163ffffffff021916908363ffffffff160217905550600183600201600a9054906101000a900461ffff166114dd9190612e70565b83600201600a6101000a81548161ffff021916908361ffff16021790555060006115418885600101546040518060400160405280600681526020017f7a6f6d6269650000000000000000000000000000000000000000000000000000815250611695565b90503373ffffffffffffffffffffffffffffffffffffffff167f750a7c18ca7f7bd87c6e50678ea7fa4f64d0cb733bb68cdac552d009737b471689898460405161158d93929190612ea6565b60405180910390a25061166f565b600184600201600a9054906101000a900461ffff166115ba9190612e70565b84600201600a6101000a81548161ffff021916908361ffff16021790555060018360020160089054906101000a900461ffff166115f79190612e70565b8360020160086101000a81548161ffff021916908361ffff16021790555061161e84611e3f565b3373ffffffffffffffffffffffffffffffffffffffff167f4fa78061bb2783669831d2e2aa9ca18cb698e098923982bfada46ceaf1516d6a8888604051611666929190612edd565b60405180910390a25b50505050505050565b611680611010565b61168957600080fd5b61169281611e72565b50565b6000836006600082815260200190815260200160002060009054906101000a900473ffffffffffffffffffffffffffffffffffffffff1673ffffffffffffffffffffffffffffffffffffffff163373ffffffffffffffffffffffffffffffffffffffff161461170357600080fd5b600060048681548110611719576117186127fa565b5b9060005260206000209060030201905061173281611f68565b611771576040517f08c379a000000000000000000000000000000000000000000000000000000000815260040161176890612f52565b60405180910390fd5b6002548561177f9190612e3f565b9450600060028683600101546117959190612935565b61179f9190612f72565b90506040516020016117b090612ffa565b60405160208183030381529060405280519060200120856040516020016117d79190613040565b60405160208183030381529060405280519060200120036118195760636064826118019190612e3f565b8261180c91906129fb565b6118169190612935565b90505b6118586040518060400160405280600681526020017f4e6f4e616d65000000000000000000000000000000000000000000000000000081525082611a83565b61186182611e3f565b8093505050509392505050565b6001600760008473ffffffffffffffffffffffffffffffffffffffff1673ffffffffffffffffffffffffffffffffffffffff168152602001908152602001600020546118ba9190612935565b600760008473ffffffffffffffffffffffffffffffffffffffff1673ffffffffffffffffffffffffffffffffffffffff168152602001908152602001600020819055506001600760008573ffffffffffffffffffffffffffffffffffffffff1673ffffffffffffffffffffffffffffffffffffffff1681526020019081526020016000205461194991906129fb565b600760008573ffffffffffffffffffffffffffffffffffffffff1673ffffffffffffffffffffffffffffffffffffffff16815260200190815260200160002081905550816006600083815260200190815260200160002060006101000a81548173ffffffffffffffffffffffffffffffffffffffff021916908373ffffffffffffffffffffffffffffffffffffffff160217905550808273ffffffffffffffffffffffffffffffffffffffff168473ffffffffffffffffffffffffffffffffffffffff167fddf252ad1be2c89b69c2b068fc378daa952ba7f163c4a11628f55a4df523b3ef60405160405180910390a4505050565b60008082604051602001611a529190613040565b6040516020818303038152906040528051906020012060001c905060025481611a7b9190612e3f565b915050919050565b60046040518060c00160405280848152602001838152602001600163ffffffff16815260200160035442611ab79190612935565b63ffffffff168152602001600061ffff168152602001600061ffff1681525090806001815401808255809150506001900390600052602060002090600302016000909190919091506000820151816000019081611b149190613057565b506020820151816001015560408201518160020160006101000a81548163ffffffff021916908363ffffffff16021790555060608201518160020160046101000a81548163ffffffff021916908363ffffffff16021790555060808201518160020160086101000a81548161ffff021916908361ffff16021790555060a082015181600201600a6101000a81548161ffff021916908361ffff160217905550505060006001600480549050611bc991906129fb565b9050336006600083815260200190815260200160002060006101000a81548173ffffffffffffffffffffffffffffffffffffffff021916908373ffffffffffffffffffffffffffffffffffffffff1602179055506001600760003373ffffffffffffffffffffffffffffffffffffffff1673ffffffffffffffffffffffffffffffffffffffff16815260200190815260200160002054611c699190612935565b600760003373ffffffffffffffffffffffffffffffffffffffff1673ffffffffffffffffffffffffffffffffffffffff168152602001908152602001600020819055503373ffffffffffffffffffffffffffffffffffffffff167ff92b1ba4cb9ae7683c3a3a1e58273b24013547531f590e32910f3105e8349e1f828585604051611cf693929190613129565b60405180910390a2505050565b600080600b54905060008360020160009054906101000a900463ffffffff168560020160009054906101000a900463ffffffff16611d419190613174565b905060008160030b1315611d7457600281611d5c91906131d0565b63ffffffff1682611d6d9190612935565b9150611dab565b60008160030b1215611daa57600281611d8c9061320d565b611d9691906131d0565b63ffffffff1682611da791906129fb565b91505b5b600080611dbb8760010154611f8f565b50915091506000611dcf8760010154611f8f565b925050506000600a8284600287611de69190613255565b611df09190612935565b611dfa91906129fb565b611e049190612f72565b90508086611e129190612935565b9550605a861115611e2257605a95505b601e861015611e3057601e95505b85965050505050505092915050565b60035442611e4d9190612935565b8160020160046101000a81548163ffffffff021916908363ffffffff16021790555050565b600073ffffffffffffffffffffffffffffffffffffffff168173ffffffffffffffffffffffffffffffffffffffff1603611eab57600080fd5b8073ffffffffffffffffffffffffffffffffffffffff1660008054906101000a900473ffffffffffffffffffffffffffffffffffffffff1673ffffffffffffffffffffffffffffffffffffffff167f8be0079c531659141344cd1fd0a4f28419497f9722a3daafe3b4186f6b6457e060405160405180910390a3806000806101000a81548173ffffffffffffffffffffffffffffffffffffffff021916908373ffffffffffffffffffffffffffffffffffffffff16021790555050565b6000428260020160049054906101000a900463ffffffff1663ffffffff1611159050919050565b600080600080603285611fa29190612e3f565b6032611fae9190612935565b905060006032606487611fc19190612f72565b611fcb9190612e3f565b6032611fd79190612935565b90506000603261271088611feb9190612f72565b611ff59190612e3f565b60326120019190612935565b90508282829550955095505050509193909250565b6000604051905090565b600080fd5b600080fd5b6000819050919050565b61203d8161202a565b811461204857600080fd5b50565b60008135905061205a81612034565b92915050565b60008060006060848603121561207957612078612020565b5b60006120878682870161204b565b93505060206120988682870161204b565b92505060406120a98682870161204b565b9150509250925092565b600073ffffffffffffffffffffffffffffffffffffffff82169050919050565b60006120de826120b3565b9050919050565b6120ee816120d3565b81146120f957600080fd5b50565b60008135905061210b816120e5565b92915050565b6000806040838503121561212857612127612020565b5b6000612136858286016120fc565b92505060206121478582860161204b565b9150509250929050565b60006020828403121561216757612166612020565b5b60006121758482850161204b565b91505092915050565b600081519050919050565b600082825260208201905092915050565b60005b838110156121b857808201518184015260208101905061219d565b60008484015250505050565b6000601f19601f8301169050919050565b60006121e08261217e565b6121ea8185612189565b93506121fa81856020860161219a565b612203816121c4565b840191505092915050565b6122178161202a565b82525050565b600063ffffffff82169050919050565b6122368161221d565b82525050565b600061ffff82169050919050565b6122538161223c565b82525050565b600060c082019050818103600083015261227381896121d5565b9050612282602083018861220e565b61228f604083018761222d565b61229c606083018661222d565b6122a9608083018561224a565b6122b660a083018461224a565b979650505050505050565b6000806000606084860312156122da576122d9612020565b5b60006122e8868287016120fc565b93505060206122f9868287016120fc565b925050604061230a8682870161204b565b9150509250925092565b60006020828403121561232a57612329612020565b5b6000612338848285016120fc565b91505092915050565b600081519050919050565b600082825260208201905092915050565b6000819050602082019050919050565b6123768161202a565b82525050565b6000612388838361236d565b60208301905092915050565b6000602082019050919050565b60006123ac82612341565b6123b6818561234c565b93506123c18361235d565b8060005b838110156123f25781516123d9888261237c565b97506123e483612394565b9250506001810190506123c5565b5085935050505092915050565b6000602082019050818103600083015261241981846123a1565b905092915050565b61242a816120d3565b82525050565b60006020820190506124456000830184612421565b92915050565b6000806040838503121561246257612461612020565b5b60006124708582860161204b565b92505060206124818582860161204b565b9150509250929050565b60006020820190506124a0600083018461220e565b92915050565b600080fd5b600080fd5b7f4e487b7100000000000000000000000000000000000000000000000000000000600052604160045260246000fd5b6124e8826121c4565b810181811067ffffffffffffffff82111715612507576125066124b0565b5b80604052505050565b600061251a612016565b905061252682826124df565b919050565b600067ffffffffffffffff821115612546576125456124b0565b5b61254f826121c4565b9050602081019050919050565b82818337600083830152505050565b600061257e6125798461252b565b612510565b90508281526020810184848401111561259a576125996124ab565b5b6125a584828561255c565b509392505050565b600082601f8301126125c2576125c16124a6565b5b81356125d284826020860161256b565b91505092915050565b6000602082840312156125f1576125f0612020565b5b600082013567ffffffffffffffff81111561260f5761260e612025565b5b61261b848285016125ad565b91505092915050565b600081519050919050565b600082825260208201905092915050565b6000819050602082019050919050565b612659816120d3565b82525050565b600061266b8383612650565b60208301905092915050565b6000602082019050919050565b600061268f82612624565b612699818561262f565b93506126a483612640565b8060005b838110156126d55781516126bc888261265f565b97506126c783612677565b9250506001810190506126a8565b5085935050505092915050565b600060208201905081810360008301526126fc8184612684565b905092915050565b60008115159050919050565b61271981612704565b82525050565b60006020820190506127346000830184612710565b92915050565b600080fd5b600080fd5b60008083601f84011261275a576127596124a6565b5b8235905067ffffffffffffffff8111156127775761277661273a565b5b6020830191508360018202830111156127935761279261273f565b5b9250929050565b6000806000604084860312156127b3576127b2612020565b5b60006127c18682870161204b565b935050602084013567ffffffffffffffff8111156127e2576127e1612025565b5b6127ee86828701612744565b92509250509250925092565b7f4e487b7100000000000000000000000000000000000000000000000000000000600052603260045260246000fd5b600060808201905061283e600083018761220e565b61284b602083018661220e565b612858604083018561220e565b612865606083018461220e565b95945050505050565b7f4e487b7100000000000000000000000000000000000000000000000000000000600052601160045260246000fd5b60006128a88261221d565b91506128b38361221d565b9250828201905063ffffffff8111156128cf576128ce61286e565b5b92915050565b7f4e487b7100000000000000000000000000000000000000000000000000000000600052602260045260246000fd5b6000600282049050600182168061291c57607f821691505b60208210810361292f5761292e6128d5565b5b50919050565b60006129408261202a565b915061294b8361202a565b92508282019050808211156129635761296261286e565b5b92915050565b7f596f752063616e206f6e6c7920637265617465206f6e65207a6f6d626965207060008201527f6572206163636f756e7400000000000000000000000000000000000000000000602082015250565b60006129c5602a83612189565b91506129d082612969565b604082019050919050565b600060208201905081810360008301526129f4816129b8565b9050919050565b6000612a068261202a565b9150612a118361202a565b9250828203905081811115612a2957612a2861286e565b5b92915050565b7f4c696d6974206973203130303000000000000000000000000000000000000000600082015250565b6000612a65600d83612189565b9150612a7082612a2f565b602082019050919050565b60006020820190508181036000830152612a9481612a58565b9050919050565b6000612aa68261202a565b91507fffffffffffffffffffffffffffffffffffffffffffffffffffffffffffffffff8203612ad857612ad761286e565b5b600182019050919050565b600082905092915050565b60008190508160005260206000209050919050565b60006020601f8301049050919050565b600082821b905092915050565b600060088302612b507fffffffffffffffffffffffffffffffffffffffffffffffffffffffffffffffff82612b13565b612b5a8683612b13565b95508019841693508086168417925050509392505050565b6000819050919050565b6000612b97612b92612b8d8461202a565b612b72565b61202a565b9050919050565b6000819050919050565b612bb183612b7c565b612bc5612bbd82612b9e565b848454612b20565b825550505050565b600090565b612bda612bcd565b612be5818484612ba8565b505050565b5b81811015612c0957612bfe600082612bd2565b600181019050612beb565b5050565b601f821115612c4e57612c1f81612aee565b612c2884612b03565b81016020851015612c37578190505b612c4b612c4385612b03565b830182612bea565b50505b505050565b600082821c905092915050565b6000612c7160001984600802612c53565b1980831691505092915050565b6000612c8a8383612c60565b9150826002028217905092915050565b612ca48383612ae3565b67ffffffffffffffff811115612cbd57612cbc6124b0565b5b612cc78254612904565b612cd2828285612c0d565b6000601f831160018114612d015760008415612cef578287013590505b612cf98582612c7e565b865550612d61565b601f198416612d0f86612aee565b60005b82811015612d3757848901358255600182019150602085019450602081019050612d12565b86831015612d545784890135612d50601f891682612c60565b8355505b6001600288020188555050505b50505050505050565b6000819050919050565b612d85612d808261202a565b612d6a565b82525050565b60008160601b9050919050565b6000612da382612d8b565b9050919050565b6000612db582612d98565b9050919050565b612dcd612dc8826120d3565b612daa565b82525050565b6000612ddf8286612d74565b602082019150612def8285612dbc565b601482019150612dff8284612d74565b602082019150819050949350505050565b7f4e487b7100000000000000000000000000000000000000000000000000000000600052601260045260246000fd5b6000612e4a8261202a565b9150612e558361202a565b925082612e6557612e64612e10565b5b828206905092915050565b6000612e7b8261223c565b9150612e868361223c565b9250828201905061ffff811115612ea057612e9f61286e565b5b92915050565b6000606082019050612ebb600083018661220e565b612ec8602083018561220e565b612ed5604083018461220e565b949350505050565b6000604082019050612ef2600083018561220e565b612eff602083018461220e565b9392505050565b7f5a6f6d626965206973206e6f7420726561647920746f20666565640000000000600082015250565b6000612f3c601b83612189565b9150612f4782612f06565b602082019050919050565b60006020820190508181036000830152612f6b81612f2f565b9050919050565b6000612f7d8261202a565b9150612f888361202a565b925082612f9857612f97612e10565b5b828204905092915050565b600081905092915050565b7f6b69747479000000000000000000000000000000000000000000000000000000600082015250565b6000612fe4600583612fa3565b9150612fef82612fae565b600582019050919050565b600061300582612fd7565b9150819050919050565b600061301a8261217e565b6130248185612fa3565b935061303481856020860161219a565b80840191505092915050565b600061304c828461300f565b915081905092915050565b6130608261217e565b67ffffffffffffffff811115613079576130786124b0565b5b6130838254612904565b61308e828285612c0d565b600060209050601f8311600181146130c157600084156130af578287015190505b6130b98582612c7e565b865550613121565b601f1984166130cf86612aee565b60005b828110156130f7578489015182556001820191506020850194506020810190506130d2565b868310156131145784890151613110601f891682612c60565b8355505b6001600288020188555050505b505050505050565b600060608201905061313e600083018661220e565b818103602083015261315081856121d5565b905061315f604083018461220e565b949350505050565b60008160030b9050919050565b600061317f82613167565b915061318a83613167565b92508282039050637fffffff81137fffffffffffffffffffffffffffffffffffffffffffffffffffffffff80000000821217156131ca576131c961286e565b5b92915050565b60006131db8261221d565b91506131e68361221d565b92508282026131f48161221d565b91508082146132065761320561286e565b5b5092915050565b600061321882613167565b91507fffffffffffffffffffffffffffffffffffffffffffffffffffffffff80000000820361324a5761324961286e565b5b816000039050919050565b60006132608261202a565b915061326b8361202a565b92508282026132798161202a565b915082820484148315176132905761328f61286e565b5b509291505056fea2646970667358221220b2d1e0abd32fa4b7e64b3722d76ac879b245ce914cf09c05eaedb6f55b3ae22c64736f6c634300081c0033",
  "linkReferences": {},
  "deployedLinkReferences": {}
}