{
  "_format": "hh-sol-artifact-1",
  "contractName": "CryptoZombies",
  "sourceName": "contracts/CryptoZombies.sol",
  "abi": [
    {
      "anonymous": false,
      "inputs": [
        {
          "indexed": true,
          "internalType": "address",
          "name": "_owner",
          "type": "address"
        },
        {
          "indexed": true,
          "internalType": "address",
          "name": "_approved",
          "type": "address"
        },
        {
          "indexed": true,
          "internalType": "uint256",
          "name": "_tokenId",
          "type": "uint256"
        }
      ],
      "name": "Approval",
      "type": "event"
    },
    {
      "anonymous": false,
      "inputs": [
        {
          "indexed": true,
          "internalType": "uint256",
          "name": "zombieId",
          "type": "uint256"
        },
        {
          "indexed": true,
          "internalType": "address",
          "name": "buyer",
          "type": "address"
        },
        {
          "indexed": true,
          "internalType": "address",
          "name": "seller",
          "type": "address"
        }
      ],
      "name": "BuyShopZombie",
      "type": "event"
    },
    {
      "anonymous": false,
      "inputs": [
        {
          "indexed": true,
          "internalType": "address",
          "name": "from",
          "type": "address"
        },
        {
          "indexed": false,
          "internalType": "uint256",
          "name": "zombieId",
          "type": "uint256"
        },
        {
          "indexed": false,
          "internalType": "string",
          "name": "name",
          "type": "string"
        },
        {
          "indexed": false,
          "internalType": "uint256",
          "name": "dna",
          "type": "uint256"
        }
      ],
      "name": "NewZombie",
      "type": "event"
    },
    {
      "anonymous": false,
      "inputs": [
        {
          "indexed": true,
          "internalType": "address",
          "name": "previousOwner",
          "type": "address"
        },
        {
          "indexed": true,
          "internalType": "address",
          "name": "newOwner",
          "type": "address"
        }
      ],
      "name": "OwnershipTransferred",
      "type": "event"
    },
    {
      "anonymous": false,
      "inputs": [
        {
          "indexed": true,
          "internalType": "uint256",
          "name": "zombieId",
          "type": "uint256"
        },
        {
          "indexed": true,
          "internalType": "uint256",
          "name": "price",
          "type": "uint256"
        }
      ],
      "name": "SaleZombie",
      "type": "event"
    },
    {
      "anonymous": false,
      "inputs": [
        {
          "indexed": true,
          "internalType": "address",
          "name": "_from",
          "type": "address"
        },
        {
          "indexed": true,
          "internalType": "address",
          "name": "_to",
          "type": "address"
        },
        {
          "indexed": true,
          "internalType": "uint256",
          "name": "_tokenId",
          "type": "uint256"
        }
      ],
      "name": "Transfer",
      "type": "event"
    },
    {
      "anonymous": false,
      "inputs": [
        {
          "indexed": true,
          "internalType": "address",
          "name": "from",
          "type": "address"
        },
        {
          "indexed": false,
          "internalType": "uint256",
          "name": "fromId",
          "type": "uint256"
        },
        {
          "indexed": false,
          "internalType": "uint256",
          "name": "targetId",
          "type": "uint256"
        }
      ],
      "name": "onAttackDefeat",
      "type": "event"
    },
    {
      "anonymous": false,
      "inputs": [
        {
          "indexed": true,
          "internalType": "address",
          "name": "from",
          "type": "address"
        },
        {
          "indexed": false,
          "internalType": "uint256",
          "name": "fromId",
          "type": "uint256"
        },
        {
          "indexed": false,
          "internalType": "uint256",
          "name": "targetId",
          "type": "uint256"
        },
        {
          "indexed": false,
          "internalType": "uint256",
          "name": "newDna",
          "type": "uint256"
        }
      ],
      "name": "onAttackVitory",
      "type": "event"
    },
    {
      "anonymous": false,
      "inputs": [
        {
          "indexed": true,
          "internalType": "address",
          "name": "from",
          "type": "address"
        },
        {
          "indexed": false,
          "internalType": "uint256",
          "name": "fromDna",
          "type": "uint256"
        },
        {
          "indexed": false,
          "internalType": "uint256",
          "name": "targetDna",
          "type": "uint256"
        },
        {
          "indexed": false,
          "internalType": "uint256",
          "name": "_kittyId",
          "type": "uint256"
        },
        {
          "indexed": false,
          "internalType": "uint256",
          "name": "newDna",
          "type": "uint256"
        }
      ],
      "name": "onFeed",
      "type": "event"
    },
    {
      "inputs": [
        {
          "internalType": "address",
          "name": "_approved",
          "type": "address"
        },
        {
          "internalType": "uint256",
          "name": "_tokenId",
          "type": "uint256"
        }
      ],
      "name": "approve",
      "outputs": [],
      "stateMutability": "payable",
      "type": "function"
    },
    {
      "inputs": [
        {
          "internalType": "uint256",
          "name": "_zombieId",
          "type": "uint256"
        },
        {
          "internalType": "uint256",
          "name": "_targetId",
          "type": "uint256"
        }
      ],
      "name": "attack",
      "outputs": [],
      "stateMutability": "nonpayable",
      "type": "function"
    },
    {
      "inputs": [
        {
          "internalType": "address",
          "name": "_owner",
          "type": "address"
        }
      ],
      "name": "balanceOf",
      "outputs": [
        {
          "internalType": "uint256",
          "name": "",
          "type": "uint256"
        }
      ],
      "stateMutability": "view",
      "type": "function"
    },
    {
      "inputs": [
        {
          "internalType": "uint256",
          "name": "zombieId",
          "type": "uint256"
        }
      ],
      "name": "buyShopZombie",
      "outputs": [],
      "stateMutability": "payable",
      "type": "function"
    },
    {
      "inputs": [
        {
          "internalType": "uint256",
          "name": "_zombieId",
          "type": "uint256"
        },
        {
          "internalType": "uint256",
          "name": "_newDna",
          "type": "uint256"
        }
      ],
      "name": "changeDna",
      "outputs": [],
      "stateMutability": "payable",
      "type": "function"
    },
    {
      "inputs": [
        {
          "internalType": "uint256",
          "name": "_zombieId",
          "type": "uint256"
        },
        {
          "internalType": "string",
          "name": "_newName",
          "type": "string"
        }
      ],
      "name": "changeName",
      "outputs": [],
      "stateMutability": "payable",
      "type": "function"
    },
    {
      "inputs": [
        {
          "internalType": "string",
          "name": "_name",
          "type": "string"
        }
      ],
      "name": "createRandomZombie",
      "outputs": [],
      "stateMutability": "nonpayable",
      "type": "function"
    },
    {
      "inputs": [
        {
          "internalType": "uint256",
          "name": "_zombieId",
          "type": "uint256"
        },
        {
          "internalType": "uint256",
          "name": "_kittyDna",
          "type": "uint256"
        },
        {
          "internalType": "uint256",
          "name": "_kittyId",
          "type": "uint256"
        }
      ],
      "name": "feedOnKitty",
      "outputs": [],
      "stateMutability": "nonpayable",
      "type": "function"
    },
    {
      "inputs": [],
      "name": "getAccounts",
      "outputs": [
        {
          "internalType": "address[]",
          "name": "",
          "type": "address[]"
        }
      ],
      "stateMutability": "view",
      "type": "function"
    },
    {
      "inputs": [],
      "name": "getRanking",
      "outputs": [
        {
          "components": [
            {
              "internalType": "address",
              "name": "account",
              "type": "address"
            },
            {
              "internalType": "uint256",
              "name": "score",
              "type": "uint256"
            },
            {
              "internalType": "uint256",
              "name": "zombieCount",
              "type": "uint256"
            },
            {
              "internalType": "uint16",
              "name": "winCount",
              "type": "uint16"
            },
            {
              "internalType": "uint16",
              "name": "lossCount",
              "type": "uint16"
            }
          ],
          "internalType": "struct ZombieRanking.Ranking[]",
          "name": "",
          "type": "tuple[]"
        }
      ],
      "stateMutability": "view",
      "type": "function"
    },
    {
      "inputs": [
        {
          "internalType": "address",
          "name": "_owner",
          "type": "address"
        }
      ],
      "name": "getZombiesByOwner",
      "outputs": [
        {
          "internalType": "uint256[]",
          "name": "",
          "type": "uint256[]"
        }
      ],
      "stateMutability": "view",
      "type": "function"
    },
    {
      "inputs": [],
      "name": "isOwner",
      "outputs": [
        {
          "internalType": "bool",
          "name": "",
          "type": "bool"
        }
      ],
      "stateMutability": "view",
      "type": "function"
    },
    {
      "inputs": [
        {
          "internalType": "uint256",
          "name": "_zombieId",
          "type": "uint256"
        }
      ],
      "name": "levelUp",
      "outputs": [],
      "stateMutability": "payable",
      "type": "function"
    },
    {
      "inputs": [],
      "name": "minPrice",
      "outputs": [
        {
          "internalType": "uint256",
          "name": "",
          "type": "uint256"
        }
      ],
      "stateMutability": "view",
      "type": "function"
    },
    {
      "inputs": [],
      "name": "owner",
      "outputs": [
        {
          "internalType": "address",
          "name": "",
          "type": "address"
        }
      ],
      "stateMutability": "view",
      "type": "function"
    },
    {
      "inputs": [
        {
          "internalType": "uint256",
          "name": "_tokenId",
          "type": "uint256"
        }
      ],
      "name": "ownerOf",
      "outputs": [
        {
          "internalType": "address",
          "name": "",
          "type": "address"
        }
      ],
      "stateMutability": "view",
      "type": "function"
    },
    {
      "inputs": [],
      "name": "renounceOwnership",
      "outputs": [],
      "stateMutability": "nonpayable",
      "type": "function"
    },
    {
      "inputs": [
        {
          "internalType": "uint256",
          "name": "zombieId",
          "type": "uint256"
        },
        {
          "internalType": "uint256",
          "name": "price",
          "type": "uint256"
        }
      ],
      "name": "saleMyZombie",
      "outputs": [],
      "stateMutability": "nonpayable",
      "type": "function"
    },
    {
      "inputs": [
        {
          "internalType": "uint256",
          "name": "_fee",
          "type": "uint256"
        }
      ],
      "name": "setChangeDNAFee",
      "outputs": [],
      "stateMutability": "nonpayable",
      "type": "function"
    },
    {
      "inputs": [
        {
          "internalType": "uint256",
          "name": "_fee",
          "type": "uint256"
        }
      ],
      "name": "setChangeNameFee",
      "outputs": [],
      "stateMutability": "nonpayable",
      "type": "function"
    },
    {
      "inputs": [
        {
          "internalType": "address",
          "name": "_address",
          "type": "address"
        }
      ],
      "name": "setKittyContractAddress",
      "outputs": [],
      "stateMutability": "nonpayable",
      "type": "function"
    },
    {
      "inputs": [
        {
          "internalType": "uint256",
          "name": "_fee",
          "type": "uint256"
        }
      ],
      "name": "setLevelUpFee",
      "outputs": [],
      "stateMutability": "nonpayable",
      "type": "function"
    },
    {
      "inputs": [
        {
          "internalType": "uint256",
          "name": "value",
          "type": "uint256"
        }
      ],
      "name": "setMinPrice",
      "outputs": [],
      "stateMutability": "nonpayable",
      "type": "function"
    },
    {
      "inputs": [
        {
          "internalType": "uint256",
          "name": "value",
          "type": "uint256"
        }
      ],
      "name": "setTax",
      "outputs": [],
      "stateMutability": "nonpayable",
      "type": "function"
    },
    {
      "inputs": [],
      "name": "tax",
      "outputs": [
        {
          "internalType": "uint256",
          "name": "",
          "type": "uint256"
        }
      ],
      "stateMutability": "view",
      "type": "function"
    },
    {
      "inputs": [
        {
          "internalType": "uint256",
          "name": "_tokenId",
          "type": "uint256"
        }
      ],
      "name": "tokenURI",
      "outputs": [
        {
          "internalType": "string",
          "name": "",
          "type": "string"
        }
      ],
      "stateMutability": "view",
      "type": "function"
    },
    {
      "inputs": [
        {
          "internalType": "address",
          "name": "_from",
          "type": "address"
        },
        {
          "internalType": "address",
          "name": "_to",
          "type": "address"
        },
        {
          "internalType": "uint256",
          "name": "_tokenId",
          "type": "uint256"
        }
      ],
      "name": "transferFrom",
      "outputs": [],
      "stateMutability": "payable",
      "type": "function"
    },
    {
      "inputs": [
        {
          "internalType": "address",
          "name": "newOwner",
          "type": "address"
        }
      ],
      "name": "transferOwnership",
      "outputs": [],
      "stateMutability": "nonpayable",
      "type": "function"
    },
    {
      "inputs": [],
      "name": "withdraw",
      "outputs": [],
      "stateMutability": "nonpayable",
      "type": "function"
    },
    {
      "inputs": [
        {
          "internalType": "uint256",
          "name": "",
          "type": "uint256"
        }
      ],
      "name": "zombieShop",
      "outputs": [
        {
          "internalType": "address payable",
          "name": "seller",
          "type": "address"
        },
        {
          "internalType": "uint256",
          "name": "price",
          "type": "uint256"
        }
      ],
      "stateMutability": "view",
      "type": "function"
    },
    {
      "inputs": [
        {
          "internalType": "uint256",
          "name": "",
          "type": "uint256"
        }
      ],
      "name": "zombieToOwner",
      "outputs": [
        {
          "internalType": "address",
          "name": "",
          "type": "address"
        }
      ],
      "stateMutability": "view",
      "type": "function"
    },
    {
      "inputs": [
        {
          "internalType": "uint256",
          "name": "",
          "type": "uint256"
        }
      ],
      "name": "zombies",
      "outputs": [
        {
          "internalType": "string",
          "name": "name",
          "type": "string"
        },
        {
          "internalType": "uint256",
          "name": "dna",
          "type": "uint256"
        },
        {
          "internalType": "uint256",
          "name": "score",
          "type": "uint256"
        },
        {
          "internalType": "uint32",
          "name": "level",
          "type": "uint32"
        },
        {
          "internalType": "uint32",
          "name": "readyTime",
          "type": "uint32"
        },
        {
          "internalType": "uint16",
          "name": "winCount",
          "type": "uint16"
        },
        {
          "internalType": "uint16",
          "name": "lossCount",
          "type": "uint16"
        }
      ],
      "stateMutability": "view",
      "type": "function"
    }
  ],
  "bytecode": "0x60806040526010600155600154600a6100189190610298565b600255603c60035566038d7ea4c6800060095566071afd498d0000600a55660e35fa931a0000600b556000600c556032600d55655af3107a4000600f55655af3107a400060105534801561006b57600080fd5b50336000806101000a81548173ffffffffffffffffffffffffffffffffffffffff021916908373ffffffffffffffffffffffffffffffffffffffff16021790555060008054906101000a900473ffffffffffffffffffffffffffffffffffffffff1673ffffffffffffffffffffffffffffffffffffffff16600073ffffffffffffffffffffffffffffffffffffffff167f8be0079c531659141344cd1fd0a4f28419497f9722a3daafe3b4186f6b6457e060405160405180910390a36102e3565b7f4e487b7100000000000000000000000000000000000000000000000000000000600052601160045260246000fd5b60008160011c9050919050565b6000808291508390505b60018511156101b25780860481111561018e5761018d61012c565b5b600185161561019d5780820291505b80810290506101ab8561015b565b9450610172565b94509492505050565b6000826101cb5760019050610287565b816101d95760009050610287565b81600181146101ef57600281146101f957610228565b6001915050610287565b60ff84111561020b5761020a61012c565b5b8360020a9150848211156102225761022161012c565b5b50610287565b5060208310610133831016604e8410600b841016171561025d5782820a9050838111156102585761025761012c565b5b610287565b61026a8484846001610168565b925090508184048111156102815761028061012c565b5b81810290505b9392505050565b6000819050919050565b60006102a38261028e565b91506102ae8361028e565b92506102db7fffffffffffffffffffffffffffffffffffffffffffffffffffffffffffffffff84846101bb565b905092915050565b614a7b806102f26000396000f3fe6080604052600436106101e35760003560e01c80636be17f0e1161010257806399c8d55611610095578063ccf670f811610064578063ccf670f81461068f578063e1fa7638146106b8578063e45be8eb146106e1578063f2fde38b1461070c576101e3565b806399c8d556146105e2578063b32c012d1461060d578063c39cbef114610636578063c87b56dd14610652576101e3565b80637bff0a01116100d15780637bff0a01146105385780638a48ac03146105615780638da5cb5b1461058c5780638f32d59b146105b7576101e3565b80636be17f0e1461049257806370a08231146104bb57806370f47cf9146104f8578063715018a614610521576101e3565b80633ccfd60b1161017a5780635ea8cd12116101495780635ea8cd12146103e75780635f4623f1146104105780635faf2880146104395780636352211e14610455576101e3565b80633ccfd60b146103185780634412e1041461032f57806345c6ba391461036c578063528b7b8f146103aa576101e3565b80632052465e116101b65780632052465e14610274578063208c750e146102b757806323b872dd146102d35780632e5bb6ff146102ef576101e3565b806306f33760146101e8578063095ea7b3146102115780630ce90ec21461022d5780631398bbf714610249575b600080fd5b3480156101f457600080fd5b5061020f600480360381019061020a919061329c565b610735565b005b61022b6004803603810190610226919061334d565b6107fe565b005b6102476004803603810190610242919061338d565b61091c565b005b34801561025557600080fd5b5061025e610a83565b60405161026b919061350c565b60405180910390f35b34801561028057600080fd5b5061029b6004803603810190610296919061338d565b61103e565b6040516102ae97969594939291906135fb565b60405180910390f35b6102d160048036038101906102cc919061338d565b611154565b005b6102ed60048036038101906102e89190613671565b61139f565b005b3480156102fb57600080fd5b506103166004803603810190610311919061338d565b6114b9565b005b34801561032457600080fd5b5061032d6114d4565b005b34801561033b57600080fd5b50610356600480360381019061035191906136c4565b61153b565b60405161036391906137a0565b60405180910390f35b34801561037857600080fd5b50610393600480360381019061038e919061338d565b61154d565b6040516103a19291906137e3565b60405180910390f35b3480156103b657600080fd5b506103d160048036038101906103cc919061338d565b611591565b6040516103de919061381b565b60405180910390f35b3480156103f357600080fd5b5061040e6004803603810190610409919061338d565b6115c4565b005b34801561041c57600080fd5b50610437600480360381019061043291906136c4565b6115df565b005b610453600480360381019061044e9190613836565b611634565b005b34801561046157600080fd5b5061047c6004803603810190610477919061338d565b6117ef565b604051610489919061381b565b60405180910390f35b34801561049e57600080fd5b506104b960048036038101906104b4919061338d565b61182c565b005b3480156104c757600080fd5b506104e260048036038101906104dd91906136c4565b611847565b6040516104ef9190613876565b60405180910390f35b34801561050457600080fd5b5061051f600480360381019061051a919061338d565b611890565b005b34801561052d57600080fd5b506105366118ab565b005b34801561054457600080fd5b5061055f600480360381019061055a91906139c6565b61197a565b005b34801561056d57600080fd5b50610576611a7a565b6040516105839190613abe565b60405180910390f35b34801561059857600080fd5b506105a1611b7f565b6040516105ae919061381b565b60405180910390f35b3480156105c357600080fd5b506105cc611ba8565b6040516105d99190613afb565b60405180910390f35b3480156105ee57600080fd5b506105f7611bff565b6040516106049190613876565b60405180910390f35b34801561061957600080fd5b50610634600480360381019061062f9190613836565b611c05565b005b610650600480360381019061064b9190613b76565b611d88565b005b34801561065e57600080fd5b506106796004803603810190610674919061338d565b611f4f565b6040516106869190613bd6565b60405180910390f35b34801561069b57600080fd5b506106b660048036038101906106b1919061338d565b611fba565b005b3480156106c457600080fd5b506106df60048036038101906106da9190613836565b611fd5565b005b3480156106ed57600080fd5b506106f661233e565b6040516107039190613876565b60405180910390f35b34801561071857600080fd5b50610733600480360381019061072e91906136c4565b612344565b005b60006004848154811061074b5761074a613bf8565b5b90600052602060002090600402019050600061079d85856040518060400160405280600581526020017f6b69747479000000000000000000000000000000000000000000000000000000815250612361565b90503373ffffffffffffffffffffffffffffffffffffffff167f94bd9f81959636fb1ddd32f8bcbdab8b649d20a6a464f759a1aa7f7cf4447fac83600101548686856040516107ef9493929190613c27565b60405180910390a25050505050565b806006600082815260200190815260200160002060009054906101000a900473ffffffffffffffffffffffffffffffffffffffff1673ffffffffffffffffffffffffffffffffffffffff163373ffffffffffffffffffffffffffffffffffffffff161461086a57600080fd5b82600e600084815260200190815260200160002060006101000a81548173ffffffffffffffffffffffffffffffffffffffff021916908373ffffffffffffffffffffffffffffffffffffffff160217905550818373ffffffffffffffffffffffffffffffffffffffff163373ffffffffffffffffffffffffffffffffffffffff167f8c5be1e5ebec7d5bd14f71427d1e84f3dd0314c0f7b2291e5b200ac8c7c3b92560405160405180910390a4505050565b6009548034101561092c8261253a565b60405160200161093c9190613cce565b6040516020818303038152906040529061098c576040517f08c379a00000000000000000000000000000000000000000000000000000000081526004016109839190613bd6565b60405180910390fd5b50816006600082815260200190815260200160002060009054906101000a900473ffffffffffffffffffffffffffffffffffffffff1673ffffffffffffffffffffffffffffffffffffffff163373ffffffffffffffffffffffffffffffffffffffff16146109f957600080fd5b600160048481548110610a0f57610a0e613bf8565b5b906000526020600020906004020160030160009054906101000a900463ffffffff16610a3b9190613d23565b60048481548110610a4f57610a4e613bf8565b5b906000526020600020906004020160030160006101000a81548163ffffffff021916908363ffffffff160217905550505050565b606060003390506000600580549050905060008167ffffffffffffffff811115610ab057610aaf61389b565b5b604051908082528060200260200182016040528015610ae957816020015b610ad6613205565b815260200190600190039081610ace5790505b50905060006014905060005b83811015610d9557600060058281548110610b1357610b12613bf8565b5b9060005260206000200160009054906101000a900473ffffffffffffffffffffffffffffffffffffffff1690506000610b4b82612608565b90506000806000805b8451811015610d1e5760006004868381518110610b7457610b73613bf8565b5b602002602001015181548110610b8d57610b8c613bf8565b5b90600052602060002090600402016040518060e0016040529081600082018054610bb690613d8a565b80601f0160208091040260200160405190810160405280929190818152602001828054610be290613d8a565b8015610c2f5780601f10610c0457610100808354040283529160200191610c2f565b820191906000526020600020905b815481529060010190602001808311610c1257829003601f168201915b5050505050815260200160018201548152602001600282015481526020016003820160009054906101000a900463ffffffff1663ffffffff1663ffffffff1681526020016003820160049054906101000a900463ffffffff1663ffffffff1663ffffffff1681526020016003820160089054906101000a900461ffff1661ffff1661ffff16815260200160038201600a9054906101000a900461ffff1661ffff1661ffff16815250509050806040015185610cea9190613dbb565b94508060a0015184610cfc9190613def565b93508060c0015183610d0e9190613def565b9250508080600101915050610b54565b506040518060a001604052808673ffffffffffffffffffffffffffffffffffffffff168152602001848152602001855181526020018361ffff1681526020018261ffff16815250888781518110610d7857610d77613bf8565b5b602002602001018190525050505050508080600101915050610af5565b50610d9f82612755565b5080825111610db4578194505050505061103b565b60008167ffffffffffffffff811115610dd057610dcf61389b565b5b604051908082528060200260200182016040528015610e0957816020015b610df6613205565b815260200190600190039081610dee5790505b509050600080600284610e1c9190613e54565b905060005b81811015610e7b57858181518110610e3c57610e3b613bf8565b5b6020026020010151848480610e5090613e85565b955081518110610e6357610e62613bf8565b5b60200260200101819052508080600101915050610e21565b506000600185610e8b9190613dbb565b87610e969190613ecd565b905060008190505b8781108015610eac57508584105b15610f0957868181518110610ec457610ec3613bf8565b5b6020026020010151858580610ed890613e85565b965081518110610eeb57610eea613bf8565b5b60200260200101819052508080610f0190613e85565b915050610e9e565b506000805b84811015610f7d578973ffffffffffffffffffffffffffffffffffffffff16868281518110610f4057610f3f613bf8565b5b60200260200101516000015173ffffffffffffffffffffffffffffffffffffffff1603610f705760019150610f7d565b8080600101915050610f0e565b508061102e5760005b875181101561102c578973ffffffffffffffffffffffffffffffffffffffff16888281518110610fb957610fb8613bf8565b5b60200260200101516000015173ffffffffffffffffffffffffffffffffffffffff160361101f57878181518110610ff357610ff2613bf8565b5b602002602001015186600b8151811061100f5761100e613bf8565b5b602002602001018190525061102c565b8080600101915050610f86565b505b8499505050505050505050505b90565b6004818154811061104e57600080fd5b906000526020600020906004020160009150905080600001805461107190613d8a565b80601f016020809104026020016040519081016040528092919081815260200182805461109d90613d8a565b80156110ea5780601f106110bf576101008083540402835291602001916110ea565b820191906000526020600020905b8154815290600101906020018083116110cd57829003601f168201915b5050505050908060010154908060020154908060030160009054906101000a900463ffffffff16908060030160049054906101000a900463ffffffff16908060030160089054906101000a900461ffff169080600301600a9054906101000a900461ffff16905087565b6000601160008381526020019081526020016000206040518060400160405290816000820160009054906101000a900473ffffffffffffffffffffffffffffffffffffffff1673ffffffffffffffffffffffffffffffffffffffff1673ffffffffffffffffffffffffffffffffffffffff1681526020016001820154815250509050806000015173ffffffffffffffffffffffffffffffffffffffff16600073ffffffffffffffffffffffffffffffffffffffff1603611249576040517f08c379a000000000000000000000000000000000000000000000000000000000815260040161124090613f4d565b60405180910390fd5b8060200151341015611290576040517f08c379a000000000000000000000000000000000000000000000000000000000815260040161128790613fb9565b60405180910390fd5b61129f81600001513384612853565b806000015173ffffffffffffffffffffffffffffffffffffffff166108fc600f54346112cb9190613ecd565b9081150290604051600060405180830381858888f193505050501580156112f6573d6000803e3d6000fd5b5060116000838152602001908152602001600020600080820160006101000a81549073ffffffffffffffffffffffffffffffffffffffff021916905560018201600090555050806000015173ffffffffffffffffffffffffffffffffffffffff163373ffffffffffffffffffffffffffffffffffffffff16837f2705da8f1145dc87c9e6b9aa3ecd69d3d64da132acba45c803563ad52f5c2b5f60405160405180910390a45050565b3373ffffffffffffffffffffffffffffffffffffffff166006600083815260200190815260200160002060009054906101000a900473ffffffffffffffffffffffffffffffffffffffff1673ffffffffffffffffffffffffffffffffffffffff16148061146a57503373ffffffffffffffffffffffffffffffffffffffff16600e600083815260200190815260200160002060009054906101000a900473ffffffffffffffffffffffffffffffffffffffff1673ffffffffffffffffffffffffffffffffffffffff16145b6114a9576040517f08c379a00000000000000000000000000000000000000000000000000000000081526004016114a090614025565b60405180910390fd5b6114b4838383612853565b505050565b6114c1611ba8565b6114ca57600080fd5b80600f8190555050565b6114dc611ba8565b6114e557600080fd5b60006114ef611b7f565b90508073ffffffffffffffffffffffffffffffffffffffff166108fc479081150290604051600060405180830381858888f19350505050158015611537573d6000803e3d6000fd5b5050565b606061154682612608565b9050919050565b60116020528060005260406000206000915090508060000160009054906101000a900473ffffffffffffffffffffffffffffffffffffffff16908060010154905082565b60066020528060005260406000206000915054906101000a900473ffffffffffffffffffffffffffffffffffffffff1681565b6115cc611ba8565b6115d557600080fd5b8060108190555050565b6115e7611ba8565b6115f057600080fd5b80600860006101000a81548173ffffffffffffffffffffffffffffffffffffffff021916908373ffffffffffffffffffffffffffffffffffffffff16021790555050565b600b54803410156116448261253a565b6040516020016116549190613cce565b604051602081830303815290604052906116a4576040517f08c379a000000000000000000000000000000000000000000000000000000000815260040161169b9190613bd6565b60405180910390fd5b5060148381600482815481106116bd576116bc613bf8565b5b906000526020600020906004020160030160009054906101000a900463ffffffff1663ffffffff1610156116f08361253a565b604051602001611700919061406b565b60405160208183030381529060405290611750576040517f08c379a00000000000000000000000000000000000000000000000000000000081526004016117479190613bd6565b60405180910390fd5b50846006600082815260200190815260200160002060009054906101000a900473ffffffffffffffffffffffffffffffffffffffff1673ffffffffffffffffffffffffffffffffffffffff163373ffffffffffffffffffffffffffffffffffffffff16146117bd57600080fd5b84600487815481106117d2576117d1613bf8565b5b906000526020600020906004020160010181905550505050505050565b60006006600083815260200190815260200160002060009054906101000a900473ffffffffffffffffffffffffffffffffffffffff169050919050565b611834611ba8565b61183d57600080fd5b80600a8190555050565b6000600760008373ffffffffffffffffffffffffffffffffffffffff1673ffffffffffffffffffffffffffffffffffffffff168152602001908152602001600020549050919050565b611898611ba8565b6118a157600080fd5b80600b8190555050565b6118b3611ba8565b6118bc57600080fd5b600073ffffffffffffffffffffffffffffffffffffffff1660008054906101000a900473ffffffffffffffffffffffffffffffffffffffff1673ffffffffffffffffffffffffffffffffffffffff167f8be0079c531659141344cd1fd0a4f28419497f9722a3daafe3b4186f6b6457e060405160405180910390a360008060006101000a81548173ffffffffffffffffffffffffffffffffffffffff021916908373ffffffffffffffffffffffffffffffffffffffff160217905550565b6000600760003373ffffffffffffffffffffffffffffffffffffffff1673ffffffffffffffffffffffffffffffffffffffff16815260200190815260200160002054146119fc576040517f08c379a00000000000000000000000000000000000000000000000000000000081526004016119f390614103565b60405180910390fd5b6000611a0782612a23565b9050611a138282612a68565b6005339080600181540180825580915050600190039060005260206000200160009091909190916101000a81548173ffffffffffffffffffffffffffffffffffffffff021916908373ffffffffffffffffffffffffffffffffffffffff1602179055505050565b6060600060058054905067ffffffffffffffff811115611a9d57611a9c61389b565b5b604051908082528060200260200182016040528015611acb5781602001602082028036833780820191505090505b50905060005b600580549050811015611b775760058181548110611af257611af1613bf8565b5b9060005260206000200160009054906101000a900473ffffffffffffffffffffffffffffffffffffffff16828281518110611b3057611b2f613bf8565b5b602002602001019073ffffffffffffffffffffffffffffffffffffffff16908173ffffffffffffffffffffffffffffffffffffffff16815250508080600101915050611ad1565b508091505090565b60008060009054906101000a900473ffffffffffffffffffffffffffffffffffffffff16905090565b60008060009054906101000a900473ffffffffffffffffffffffffffffffffffffffff1673ffffffffffffffffffffffffffffffffffffffff163373ffffffffffffffffffffffffffffffffffffffff1614905090565b600f5481565b816006600082815260200190815260200160002060009054906101000a900473ffffffffffffffffffffffffffffffffffffffff1673ffffffffffffffffffffffffffffffffffffffff163373ffffffffffffffffffffffffffffffffffffffff1614611c7157600080fd5b601054600f54611c819190613dbb565b821015611cc3576040517f08c379a0000000000000000000000000000000000000000000000000000000008152600401611cba90613fb9565b60405180910390fd5b60405180604001604052803373ffffffffffffffffffffffffffffffffffffffff168152602001838152506011600085815260200190815260200160002060008201518160000160006101000a81548173ffffffffffffffffffffffffffffffffffffffff021916908373ffffffffffffffffffffffffffffffffffffffff1602179055506020820151816001015590505081837fb03c845c6c9ef1ff8db2c6381cd7ecf8c5623e02bb20e85545f3d04288302e5860405160405180910390a3505050565b600a5480341015611d988261253a565b604051602001611da89190613cce565b60405160208183030381529060405290611df8576040517f08c379a0000000000000000000000000000000000000000000000000000000008152600401611def9190613bd6565b60405180910390fd5b506002848160048281548110611e1157611e10613bf8565b5b906000526020600020906004020160030160009054906101000a900463ffffffff1663ffffffff161015611e448361253a565b604051602001611e54919061406b565b60405160208183030381529060405290611ea4576040517f08c379a0000000000000000000000000000000000000000000000000000000008152600401611e9b9190613bd6565b60405180910390fd5b50856006600082815260200190815260200160002060009054906101000a900473ffffffffffffffffffffffffffffffffffffffff1673ffffffffffffffffffffffffffffffffffffffff163373ffffffffffffffffffffffffffffffffffffffff1614611f1157600080fd5b858560048981548110611f2757611f26613bf8565b5b90600052602060002090600402016000019182611f459291906142da565b5050505050505050565b6060600060048381548110611f6757611f66613bf8565b5b90600052602060002090600402019050611f808361253a565b81600001611f91836001015461253a565b604051602001611fa3939291906144c5565b604051602081830303815290604052915050919050565b611fc2611ba8565b611fcb57600080fd5b8060098190555050565b816006600082815260200190815260200160002060009054906101000a900473ffffffffffffffffffffffffffffffffffffffff1673ffffffffffffffffffffffffffffffffffffffff163373ffffffffffffffffffffffffffffffffffffffff161461204157600080fd5b60006004848154811061205757612056613bf8565b5b9060005260206000209060040201905060006004848154811061207d5761207c613bf8565b5b9060005260206000209060040201905060006120998383612cf9565b9050600060644233896040516020016120b493929190614588565b6040516020818303038152906040528051906020012060001c6120d791906145c5565b905081811161224f5783600301600881819054906101000a900461ffff1680929190612102906145f6565b91906101000a81548161ffff021916908361ffff1602179055505083600301600081819054906101000a900463ffffffff168092919061214190614620565b91906101000a81548163ffffffff021916908363ffffffff1602179055505082600301600a81819054906101000a900461ffff1680929190612182906145f6565b91906101000a81548161ffff021916908361ffff160217905550506121a684612e35565b6121af83612e35565b60006121f58885600101546040518060400160405280600681526020017f7a6f6d6269650000000000000000000000000000000000000000000000000000815250612361565b90503373ffffffffffffffffffffffffffffffffffffffff167f750a7c18ca7f7bd87c6e50678ea7fa4f64d0cb733bb68cdac552d009737b47168989846040516122419392919061464c565b60405180910390a250612335565b83600301600a81819054906101000a900461ffff1680929190612271906145f6565b91906101000a81548161ffff021916908361ffff1602179055505082600301600881819054906101000a900461ffff16809291906122ae906145f6565b91906101000a81548161ffff021916908361ffff160217905550506122d284612e35565b6122db83612e35565b6122e484612edb565b3373ffffffffffffffffffffffffffffffffffffffff167f4fa78061bb2783669831d2e2aa9ca18cb698e098923982bfada46ceaf1516d6a888860405161232c929190614683565b60405180910390a25b50505050505050565b60105481565b61234c611ba8565b61235557600080fd5b61235e81612f0e565b50565b6000836006600082815260200190815260200160002060009054906101000a900473ffffffffffffffffffffffffffffffffffffffff1673ffffffffffffffffffffffffffffffffffffffff163373ffffffffffffffffffffffffffffffffffffffff16146123cf57600080fd5b6000600486815481106123e5576123e4613bf8565b5b906000526020600020906004020190506123fe81613004565b61243d576040517f08c379a0000000000000000000000000000000000000000000000000000000008152600401612434906146f8565b60405180910390fd5b6002548561244b91906145c5565b9450600060028683600101546124619190613dbb565b61246b9190613e54565b905060405160200161247c90614764565b60405160208183030381529060405280519060200120856040516020016124a39190614779565b60405160208183030381529060405280519060200120036124e55760636064826124cd91906145c5565b826124d89190613ecd565b6124e29190613dbb565b90505b6125246040518060400160405280600681526020017f4e6f4e616d65000000000000000000000000000000000000000000000000000081525082612a68565b61252d82612edb565b8093505050509392505050565b6060600060016125498461302b565b01905060008167ffffffffffffffff8111156125685761256761389b565b5b6040519080825280601f01601f19166020018201604052801561259a5781602001600182028036833780820191505090505b509050600082602001820190505b6001156125fd578080600190039150507f3031323334353637383961626364656600000000000000000000000000000000600a86061a8153600a85816125f1576125f0613e25565b5b049450600085036125a8575b819350505050919050565b60606000600760008473ffffffffffffffffffffffffffffffffffffffff1673ffffffffffffffffffffffffffffffffffffffff1681526020019081526020016000205467ffffffffffffffff8111156126655761266461389b565b5b6040519080825280602002602001820160405280156126935781602001602082028036833780820191505090505b5090506000805b60048054905081101561274a578473ffffffffffffffffffffffffffffffffffffffff166006600083815260200190815260200160002060009054906101000a900473ffffffffffffffffffffffffffffffffffffffff1673ffffffffffffffffffffffffffffffffffffffff160361273d578083838151811061272157612720613bf8565b5b60200260200101818152505060018261273a9190613dbb565b91505b808060010191505061269a565b508192505050919050565b60606000600190505b825181101561284a5760005b8181101561283c5783818151811061278557612784613bf8565b5b6020026020010151602001518483815181106127a4576127a3613bf8565b5b602002602001015160200151101561282f5760008483815181106127cb576127ca613bf8565b5b602002602001015190508482815181106127e8576127e7613bf8565b5b602002602001015185848151811061280357612802613bf8565b5b60200260200101819052508085838151811061282257612821613bf8565b5b6020026020010181905250505b808060010191505061276a565b50808060010191505061275e565b50819050919050565b6001600760008473ffffffffffffffffffffffffffffffffffffffff1673ffffffffffffffffffffffffffffffffffffffff1681526020019081526020016000205461289f9190613dbb565b600760008473ffffffffffffffffffffffffffffffffffffffff1673ffffffffffffffffffffffffffffffffffffffff168152602001908152602001600020819055506001600760008573ffffffffffffffffffffffffffffffffffffffff1673ffffffffffffffffffffffffffffffffffffffff1681526020019081526020016000205461292e9190613ecd565b600760008573ffffffffffffffffffffffffffffffffffffffff1673ffffffffffffffffffffffffffffffffffffffff16815260200190815260200160002081905550816006600083815260200190815260200160002060006101000a81548173ffffffffffffffffffffffffffffffffffffffff021916908373ffffffffffffffffffffffffffffffffffffffff160217905550808273ffffffffffffffffffffffffffffffffffffffff168473ffffffffffffffffffffffffffffffffffffffff167fddf252ad1be2c89b69c2b068fc378daa952ba7f163c4a11628f55a4df523b3ef60405160405180910390a4505050565b60008082604051602001612a379190614779565b6040516020818303038152906040528051906020012060001c905060025481612a6091906145c5565b915050919050565b60046040518060e0016040528084815260200183815260200160008152602001600163ffffffff16815260200160035442612aa39190613dbb565b63ffffffff168152602001600061ffff168152602001600061ffff1681525090806001815401808255809150506001900390600052602060002090600402016000909190919091506000820151816000019081612b009190614790565b50602082015181600101556040820151816002015560608201518160030160006101000a81548163ffffffff021916908363ffffffff16021790555060808201518160030160046101000a81548163ffffffff021916908363ffffffff16021790555060a08201518160030160086101000a81548161ffff021916908361ffff16021790555060c082015181600301600a6101000a81548161ffff021916908361ffff160217905550505060006001600480549050612bbf9190613ecd565b9050336006600083815260200190815260200160002060006101000a81548173ffffffffffffffffffffffffffffffffffffffff021916908373ffffffffffffffffffffffffffffffffffffffff1602179055506001600760003373ffffffffffffffffffffffffffffffffffffffff1673ffffffffffffffffffffffffffffffffffffffff16815260200190815260200160002054612c5f9190613dbb565b600760003373ffffffffffffffffffffffffffffffffffffffff1673ffffffffffffffffffffffffffffffffffffffff168152602001908152602001600020819055503373ffffffffffffffffffffffffffffffffffffffff167ff92b1ba4cb9ae7683c3a3a1e58273b24013547531f590e32910f3105e8349e1f828585604051612cec93929190614862565b60405180910390a2505050565b600080600d54905060008360030160009054906101000a900463ffffffff168560030160009054906101000a900463ffffffff16612d3791906148ad565b905060008160030b1315612d6a57600281612d529190614909565b63ffffffff1682612d639190613dbb565b9150612da1565b60008160030b1215612da057600281612d8290614946565b612d8c9190614909565b63ffffffff1682612d9d9190613ecd565b91505b5b600080612db1876001015461317e565b50915091506000612dc5876001015461317e565b925050506000600a8284600287612ddc919061498e565b612de69190613dbb565b612df09190613ecd565b612dfa9190613e54565b90508086612e089190613dbb565b9550605a861115612e1857605a95505b601e861015612e2657601e95505b85965050505050505092915050565b6000600382600301600a9054906101000a900461ffff16612e5691906149d0565b61ffff1660058360030160089054906101000a900461ffff16612e7991906149d0565b61ffff16600a8460030160009054906101000a900463ffffffff16612e9e9190614909565b612ea89190613d23565b612eb29190614a0d565b9050600a8163ffffffff161015612ec857600a90505b8063ffffffff1682600201819055505050565b60035442612ee99190613dbb565b8160030160046101000a81548163ffffffff021916908363ffffffff16021790555050565b600073ffffffffffffffffffffffffffffffffffffffff168173ffffffffffffffffffffffffffffffffffffffff1603612f4757600080fd5b8073ffffffffffffffffffffffffffffffffffffffff1660008054906101000a900473ffffffffffffffffffffffffffffffffffffffff1673ffffffffffffffffffffffffffffffffffffffff167f8be0079c531659141344cd1fd0a4f28419497f9722a3daafe3b4186f6b6457e060405160405180910390a3806000806101000a81548173ffffffffffffffffffffffffffffffffffffffff021916908373ffffffffffffffffffffffffffffffffffffffff16021790555050565b6000428260030160049054906101000a900463ffffffff1663ffffffff1611159050919050565b600080600090507a184f03e93ff9f4daa797ed6e38ed64bf6a1f0100000000000000008310613089577a184f03e93ff9f4daa797ed6e38ed64bf6a1f010000000000000000838161307f5761307e613e25565b5b0492506040810190505b6d04ee2d6d415b85acef810000000083106130c6576d04ee2d6d415b85acef810000000083816130bc576130bb613e25565b5b0492506020810190505b662386f26fc1000083106130f557662386f26fc1000083816130eb576130ea613e25565b5b0492506010810190505b6305f5e100831061311e576305f5e100838161311457613113613e25565b5b0492506008810190505b612710831061314357612710838161313957613138613e25565b5b0492506004810190505b60648310613166576064838161315c5761315b613e25565b5b0492506002810190505b600a8310613175576001810190505b80915050919050565b60008060008060328561319191906145c5565b603261319d9190613dbb565b9050600060326064876131b09190613e54565b6131ba91906145c5565b60326131c69190613dbb565b905060006032612710886131da9190613e54565b6131e491906145c5565b60326131f09190613dbb565b90508282829550955095505050509193909250565b6040518060a00160405280600073ffffffffffffffffffffffffffffffffffffffff1681526020016000815260200160008152602001600061ffff168152602001600061ffff1681525090565b6000604051905090565b600080fd5b600080fd5b6000819050919050565b61327981613266565b811461328457600080fd5b50565b60008135905061329681613270565b92915050565b6000806000606084860312156132b5576132b461325c565b5b60006132c386828701613287565b93505060206132d486828701613287565b92505060406132e586828701613287565b9150509250925092565b600073ffffffffffffffffffffffffffffffffffffffff82169050919050565b600061331a826132ef565b9050919050565b61332a8161330f565b811461333557600080fd5b50565b60008135905061334781613321565b92915050565b600080604083850312156133645761336361325c565b5b600061337285828601613338565b925050602061338385828601613287565b9150509250929050565b6000602082840312156133a3576133a261325c565b5b60006133b184828501613287565b91505092915050565b600081519050919050565b600082825260208201905092915050565b6000819050602082019050919050565b6133ef8161330f565b82525050565b6133fe81613266565b82525050565b600061ffff82169050919050565b61341b81613404565b82525050565b60a08201600082015161343760008501826133e6565b50602082015161344a60208501826133f5565b50604082015161345d60408501826133f5565b5060608201516134706060850182613412565b5060808201516134836080850182613412565b50505050565b60006134958383613421565b60a08301905092915050565b6000602082019050919050565b60006134b9826133ba565b6134c381856133c5565b93506134ce836133d6565b8060005b838110156134ff5781516134e68882613489565b97506134f1836134a1565b9250506001810190506134d2565b5085935050505092915050565b6000602082019050818103600083015261352681846134ae565b905092915050565b600081519050919050565b600082825260208201905092915050565b60005b8381101561356857808201518184015260208101905061354d565b60008484015250505050565b6000601f19601f8301169050919050565b60006135908261352e565b61359a8185613539565b93506135aa81856020860161354a565b6135b381613574565b840191505092915050565b6135c781613266565b82525050565b600063ffffffff82169050919050565b6135e6816135cd565b82525050565b6135f581613404565b82525050565b600060e0820190508181036000830152613615818a613585565b905061362460208301896135be565b61363160408301886135be565b61363e60608301876135dd565b61364b60808301866135dd565b61365860a08301856135ec565b61366560c08301846135ec565b98975050505050505050565b60008060006060848603121561368a5761368961325c565b5b600061369886828701613338565b93505060206136a986828701613338565b92505060406136ba86828701613287565b9150509250925092565b6000602082840312156136da576136d961325c565b5b60006136e884828501613338565b91505092915050565b600081519050919050565b600082825260208201905092915050565b6000819050602082019050919050565b600061372983836133f5565b60208301905092915050565b6000602082019050919050565b600061374d826136f1565b61375781856136fc565b93506137628361370d565b8060005b8381101561379357815161377a888261371d565b975061378583613735565b925050600181019050613766565b5085935050505092915050565b600060208201905081810360008301526137ba8184613742565b905092915050565b60006137cd826132ef565b9050919050565b6137dd816137c2565b82525050565b60006040820190506137f860008301856137d4565b61380560208301846135be565b9392505050565b6138158161330f565b82525050565b6000602082019050613830600083018461380c565b92915050565b6000806040838503121561384d5761384c61325c565b5b600061385b85828601613287565b925050602061386c85828601613287565b9150509250929050565b600060208201905061388b60008301846135be565b92915050565b600080fd5b600080fd5b7f4e487b7100000000000000000000000000000000000000000000000000000000600052604160045260246000fd5b6138d382613574565b810181811067ffffffffffffffff821117156138f2576138f161389b565b5b80604052505050565b6000613905613252565b905061391182826138ca565b919050565b600067ffffffffffffffff8211156139315761393061389b565b5b61393a82613574565b9050602081019050919050565b82818337600083830152505050565b600061396961396484613916565b6138fb565b90508281526020810184848401111561398557613984613896565b5b613990848285613947565b509392505050565b600082601f8301126139ad576139ac613891565b5b81356139bd848260208601613956565b91505092915050565b6000602082840312156139dc576139db61325c565b5b600082013567ffffffffffffffff8111156139fa576139f9613261565b5b613a0684828501613998565b91505092915050565b600081519050919050565b600082825260208201905092915050565b6000819050602082019050919050565b6000613a4783836133e6565b60208301905092915050565b6000602082019050919050565b6000613a6b82613a0f565b613a758185613a1a565b9350613a8083613a2b565b8060005b83811015613ab1578151613a988882613a3b565b9750613aa383613a53565b925050600181019050613a84565b5085935050505092915050565b60006020820190508181036000830152613ad88184613a60565b905092915050565b60008115159050919050565b613af581613ae0565b82525050565b6000602082019050613b106000830184613aec565b92915050565b600080fd5b600080fd5b60008083601f840112613b3657613b35613891565b5b8235905067ffffffffffffffff811115613b5357613b52613b16565b5b602083019150836001820283011115613b6f57613b6e613b1b565b5b9250929050565b600080600060408486031215613b8f57613b8e61325c565b5b6000613b9d86828701613287565b935050602084013567ffffffffffffffff811115613bbe57613bbd613261565b5b613bca86828701613b20565b92509250509250925092565b60006020820190508181036000830152613bf08184613585565b905092915050565b7f4e487b7100000000000000000000000000000000000000000000000000000000600052603260045260246000fd5b6000608082019050613c3c60008301876135be565b613c4960208301866135be565b613c5660408301856135be565b613c6360608301846135be565b95945050505050565b7f5072696365206d696e696d756d20697320000000000000000000000000000000815250565b600081905092915050565b6000613ca88261352e565b613cb28185613c92565b9350613cc281856020860161354a565b80840191505092915050565b6000613cd982613c6c565b601182019150613ce98284613c9d565b915081905092915050565b7f4e487b7100000000000000000000000000000000000000000000000000000000600052601160045260246000fd5b6000613d2e826135cd565b9150613d39836135cd565b9250828201905063ffffffff811115613d5557613d54613cf4565b5b92915050565b7f4e487b7100000000000000000000000000000000000000000000000000000000600052602260045260246000fd5b60006002820490506001821680613da257607f821691505b602082108103613db557613db4613d5b565b5b50919050565b6000613dc682613266565b9150613dd183613266565b9250828201905080821115613de957613de8613cf4565b5b92915050565b6000613dfa82613404565b9150613e0583613404565b9250828201905061ffff811115613e1f57613e1e613cf4565b5b92915050565b7f4e487b7100000000000000000000000000000000000000000000000000000000600052601260045260246000fd5b6000613e5f82613266565b9150613e6a83613266565b925082613e7a57613e79613e25565b5b828204905092915050565b6000613e9082613266565b91507fffffffffffffffffffffffffffffffffffffffffffffffffffffffffffffffff8203613ec257613ec1613cf4565b5b600182019050919050565b6000613ed882613266565b9150613ee383613266565b9250828203905081811115613efb57613efa613cf4565b5b92915050565b7f5a6f6d62696520617265206e6f74206f6e2073616c652e000000000000000000600082015250565b6000613f37601783613539565b9150613f4282613f01565b602082019050919050565b60006020820190508181036000830152613f6681613f2a565b9050919050565b7f596f757220707269636520697320746f6f206c6f770000000000000000000000600082015250565b6000613fa3601583613539565b9150613fae82613f6d565b602082019050919050565b60006020820190508181036000830152613fd281613f96565b9050919050565b7f596f7520617265206e6f74206f776e6572206f7220617070726f7665642e0000600082015250565b600061400f601e83613539565b915061401a82613fd9565b602082019050919050565b6000602082019050818103600083015261403e81614002565b9050919050565b7f4c6576656c206d696e696d756d20697320000000000000000000000000000000815250565b600061407682614045565b6011820191506140868284613c9d565b915081905092915050565b7f596f752063616e206f6e6c7920637265617465206f6e65207a6f6d626965207060008201527f6572206163636f756e7400000000000000000000000000000000000000000000602082015250565b60006140ed602a83613539565b91506140f882614091565b604082019050919050565b6000602082019050818103600083015261411c816140e0565b9050919050565b600082905092915050565b60008190508160005260206000209050919050565b60006020601f8301049050919050565b600082821b905092915050565b6000600883026141907fffffffffffffffffffffffffffffffffffffffffffffffffffffffffffffffff82614153565b61419a8683614153565b95508019841693508086168417925050509392505050565b6000819050919050565b60006141d76141d26141cd84613266565b6141b2565b613266565b9050919050565b6000819050919050565b6141f1836141bc565b6142056141fd826141de565b848454614160565b825550505050565b600090565b61421a61420d565b6142258184846141e8565b505050565b5b818110156142495761423e600082614212565b60018101905061422b565b5050565b601f82111561428e5761425f8161412e565b61426884614143565b81016020851015614277578190505b61428b61428385614143565b83018261422a565b50505b505050565b600082821c905092915050565b60006142b160001984600802614293565b1980831691505092915050565b60006142ca83836142a0565b9150826002028217905092915050565b6142e48383614123565b67ffffffffffffffff8111156142fd576142fc61389b565b5b6143078254613d8a565b61431282828561424d565b6000601f831160018114614341576000841561432f578287013590505b61433985826142be565b8655506143a1565b601f19841661434f8661412e565b60005b8281101561437757848901358255600182019150602085019450602081019050614352565b868310156143945784890135614390601f8916826142a0565b8355505b6001600288020188555050505b50505050505050565b7f687474703a2f2f6c6f63616c686f73743a333333332f7a6f6d6269652f75726960008201527f2f00000000000000000000000000000000000000000000000000000000000000602082015250565b6000614406602183613c92565b9150614411826143aa565b602182019050919050565b7f2f00000000000000000000000000000000000000000000000000000000000000815250565b6000815461444f81613d8a565b6144598186613c92565b945060018216600081146144745760018114614489576144bc565b60ff19831686528115158202860193506144bc565b6144928561412e565b60005b838110156144b457815481890152600182019150602081019050614495565b838801955050505b50505092915050565b60006144d0826143f9565b91506144dc8286613c9d565b91506144e78261441c565b6001820191506144f78285614442565b91506145028261441c565b6001820191506145128284613c9d565b9150819050949350505050565b6000819050919050565b61453a61453582613266565b61451f565b82525050565b60008160601b9050919050565b600061455882614540565b9050919050565b600061456a8261454d565b9050919050565b61458261457d8261330f565b61455f565b82525050565b60006145948286614529565b6020820191506145a48285614571565b6014820191506145b48284614529565b602082019150819050949350505050565b60006145d082613266565b91506145db83613266565b9250826145eb576145ea613e25565b5b828206905092915050565b600061460182613404565b915061ffff820361461557614614613cf4565b5b600182019050919050565b600061462b826135cd565b915063ffffffff820361464157614640613cf4565b5b600182019050919050565b600060608201905061466160008301866135be565b61466e60208301856135be565b61467b60408301846135be565b949350505050565b600060408201905061469860008301856135be565b6146a560208301846135be565b9392505050565b7f5a6f6d626965206973206e6f7420726561647920746f20666565640000000000600082015250565b60006146e2601b83613539565b91506146ed826146ac565b602082019050919050565b60006020820190508181036000830152614711816146d5565b9050919050565b7f6b69747479000000000000000000000000000000000000000000000000000000600082015250565b600061474e600583613c92565b915061475982614718565b600582019050919050565b600061476f82614741565b9150819050919050565b60006147858284613c9d565b915081905092915050565b6147998261352e565b67ffffffffffffffff8111156147b2576147b161389b565b5b6147bc8254613d8a565b6147c782828561424d565b600060209050601f8311600181146147fa57600084156147e8578287015190505b6147f285826142be565b86555061485a565b601f1984166148088661412e565b60005b828110156148305784890151825560018201915060208501945060208101905061480b565b8683101561484d5784890151614849601f8916826142a0565b8355505b6001600288020188555050505b505050505050565b600060608201905061487760008301866135be565b81810360208301526148898185613585565b905061489860408301846135be565b949350505050565b60008160030b9050919050565b60006148b8826148a0565b91506148c3836148a0565b92508282039050637fffffff81137fffffffffffffffffffffffffffffffffffffffffffffffffffffffff800000008212171561490357614902613cf4565b5b92915050565b6000614914826135cd565b915061491f836135cd565b925082820261492d816135cd565b915080821461493f5761493e613cf4565b5b5092915050565b6000614951826148a0565b91507fffffffffffffffffffffffffffffffffffffffffffffffffffffffff80000000820361498357614982613cf4565b5b816000039050919050565b600061499982613266565b91506149a483613266565b92508282026149b281613266565b915082820484148315176149c9576149c8613cf4565b5b5092915050565b60006149db82613404565b91506149e683613404565b92508282026149f481613404565b9150808214614a0657614a05613cf4565b5b5092915050565b6000614a18826135cd565b9150614a23836135cd565b9250828203905063ffffffff811115614a3f57614a3e613cf4565b5b9291505056fea2646970667358221220eac6151d008651c731b42541cb2164ad48ae2178a313a1b71d86724c5b35dd3a64736f6c634300081c0033",
  "linkReferences": {},
  "deployedLinkReferences": {}
}