{
  "_format": "hh-sol-artifact-1",
  "contractName": "CryptoZombies",
  "sourceName": "contracts/CryptoZombies.sol",
  "abi": [
    {
      "anonymous": false,
      "inputs": [
        {
          "indexed": true,
          "internalType": "address",
          "name": "_owner",
          "type": "address"
        },
        {
          "indexed": true,
          "internalType": "address",
          "name": "_approved",
          "type": "address"
        },
        {
          "indexed": true,
          "internalType": "uint256",
          "name": "_tokenId",
          "type": "uint256"
        }
      ],
      "name": "Approval",
      "type": "event"
    },
    {
      "anonymous": false,
      "inputs": [
        {
          "indexed": true,
          "internalType": "uint256",
          "name": "zombieId",
          "type": "uint256"
        },
        {
          "indexed": true,
          "internalType": "address",
          "name": "buyer",
          "type": "address"
        },
        {
          "indexed": true,
          "internalType": "address",
          "name": "seller",
          "type": "address"
        }
      ],
      "name": "BuyShopZombie",
      "type": "event"
    },
    {
      "anonymous": false,
      "inputs": [
        {
          "indexed": true,
          "internalType": "address",
          "name": "from",
          "type": "address"
        },
        {
          "indexed": false,
          "internalType": "uint256",
          "name": "zombieId",
          "type": "uint256"
        },
        {
          "indexed": false,
          "internalType": "string",
          "name": "name",
          "type": "string"
        },
        {
          "indexed": false,
          "internalType": "uint256",
          "name": "dna",
          "type": "uint256"
        }
      ],
      "name": "NewZombie",
      "type": "event"
    },
    {
      "anonymous": false,
      "inputs": [
        {
          "indexed": true,
          "internalType": "address",
          "name": "previousOwner",
          "type": "address"
        },
        {
          "indexed": true,
          "internalType": "address",
          "name": "newOwner",
          "type": "address"
        }
      ],
      "name": "OwnershipTransferred",
      "type": "event"
    },
    {
      "anonymous": false,
      "inputs": [
        {
          "indexed": true,
          "internalType": "uint256",
          "name": "zombieId",
          "type": "uint256"
        },
        {
          "indexed": true,
          "internalType": "uint256",
          "name": "price",
          "type": "uint256"
        }
      ],
      "name": "SaleZombie",
      "type": "event"
    },
    {
      "anonymous": false,
      "inputs": [
        {
          "indexed": true,
          "internalType": "address",
          "name": "_from",
          "type": "address"
        },
        {
          "indexed": true,
          "internalType": "address",
          "name": "_to",
          "type": "address"
        },
        {
          "indexed": true,
          "internalType": "uint256",
          "name": "_tokenId",
          "type": "uint256"
        }
      ],
      "name": "Transfer",
      "type": "event"
    },
    {
      "anonymous": false,
      "inputs": [
        {
          "indexed": true,
          "internalType": "address",
          "name": "from",
          "type": "address"
        },
        {
          "indexed": false,
          "internalType": "uint256",
          "name": "fromId",
          "type": "uint256"
        },
        {
          "indexed": false,
          "internalType": "uint256",
          "name": "targetId",
          "type": "uint256"
        }
      ],
      "name": "onAttackDefeat",
      "type": "event"
    },
    {
      "anonymous": false,
      "inputs": [
        {
          "indexed": true,
          "internalType": "address",
          "name": "from",
          "type": "address"
        },
        {
          "indexed": false,
          "internalType": "uint256",
          "name": "fromId",
          "type": "uint256"
        },
        {
          "indexed": false,
          "internalType": "uint256",
          "name": "targetId",
          "type": "uint256"
        },
        {
          "indexed": false,
          "internalType": "uint256",
          "name": "newDna",
          "type": "uint256"
        }
      ],
      "name": "onAttackVitory",
      "type": "event"
    },
    {
      "anonymous": false,
      "inputs": [
        {
          "indexed": true,
          "internalType": "address",
          "name": "from",
          "type": "address"
        },
        {
          "indexed": false,
          "internalType": "uint256",
          "name": "fromDna",
          "type": "uint256"
        },
        {
          "indexed": false,
          "internalType": "uint256",
          "name": "targetDna",
          "type": "uint256"
        },
        {
          "indexed": false,
          "internalType": "uint256",
          "name": "_kittyId",
          "type": "uint256"
        },
        {
          "indexed": false,
          "internalType": "uint256",
          "name": "newDna",
          "type": "uint256"
        }
      ],
      "name": "onFeed",
      "type": "event"
    },
    {
      "inputs": [
        {
          "internalType": "address",
          "name": "_approved",
          "type": "address"
        },
        {
          "internalType": "uint256",
          "name": "_tokenId",
          "type": "uint256"
        }
      ],
      "name": "approve",
      "outputs": [],
      "stateMutability": "payable",
      "type": "function"
    },
    {
      "inputs": [
        {
          "internalType": "uint256",
          "name": "_zombieId",
          "type": "uint256"
        },
        {
          "internalType": "uint256",
          "name": "_targetId",
          "type": "uint256"
        }
      ],
      "name": "attack",
      "outputs": [],
      "stateMutability": "nonpayable",
      "type": "function"
    },
    {
      "inputs": [
        {
          "internalType": "address",
          "name": "_owner",
          "type": "address"
        }
      ],
      "name": "balanceOf",
      "outputs": [
        {
          "internalType": "uint256",
          "name": "",
          "type": "uint256"
        }
      ],
      "stateMutability": "view",
      "type": "function"
    },
    {
      "inputs": [],
      "name": "baseUrlTokenURI",
      "outputs": [
        {
          "internalType": "string",
          "name": "",
          "type": "string"
        }
      ],
      "stateMutability": "view",
      "type": "function"
    },
    {
      "inputs": [
        {
          "internalType": "uint256",
          "name": "zombieId",
          "type": "uint256"
        }
      ],
      "name": "buyShopZombie",
      "outputs": [],
      "stateMutability": "payable",
      "type": "function"
    },
    {
      "inputs": [],
      "name": "changeDNAFee",
      "outputs": [
        {
          "internalType": "uint256",
          "name": "",
          "type": "uint256"
        }
      ],
      "stateMutability": "view",
      "type": "function"
    },
    {
      "inputs": [
        {
          "internalType": "uint256",
          "name": "_zombieId",
          "type": "uint256"
        },
        {
          "internalType": "uint256",
          "name": "_newDna",
          "type": "uint256"
        }
      ],
      "name": "changeDna",
      "outputs": [],
      "stateMutability": "payable",
      "type": "function"
    },
    {
      "inputs": [
        {
          "internalType": "uint256",
          "name": "_zombieId",
          "type": "uint256"
        },
        {
          "internalType": "string",
          "name": "_newName",
          "type": "string"
        }
      ],
      "name": "changeName",
      "outputs": [],
      "stateMutability": "payable",
      "type": "function"
    },
    {
      "inputs": [],
      "name": "changeNameFee",
      "outputs": [
        {
          "internalType": "uint256",
          "name": "",
          "type": "uint256"
        }
      ],
      "stateMutability": "view",
      "type": "function"
    },
    {
      "inputs": [],
      "name": "cooldownTime",
      "outputs": [
        {
          "internalType": "uint256",
          "name": "",
          "type": "uint256"
        }
      ],
      "stateMutability": "view",
      "type": "function"
    },
    {
      "inputs": [
        {
          "internalType": "string",
          "name": "_name",
          "type": "string"
        }
      ],
      "name": "createRandomZombie",
      "outputs": [],
      "stateMutability": "nonpayable",
      "type": "function"
    },
    {
      "inputs": [
        {
          "internalType": "uint256",
          "name": "_zombieId",
          "type": "uint256"
        },
        {
          "internalType": "uint256",
          "name": "_kittyDna",
          "type": "uint256"
        },
        {
          "internalType": "uint256",
          "name": "_kittyId",
          "type": "uint256"
        }
      ],
      "name": "feedOnKitty",
      "outputs": [],
      "stateMutability": "nonpayable",
      "type": "function"
    },
    {
      "inputs": [],
      "name": "getAccounts",
      "outputs": [
        {
          "internalType": "address[]",
          "name": "",
          "type": "address[]"
        }
      ],
      "stateMutability": "view",
      "type": "function"
    },
    {
      "inputs": [],
      "name": "getRanking",
      "outputs": [
        {
          "components": [
            {
              "internalType": "address",
              "name": "account",
              "type": "address"
            },
            {
              "internalType": "uint256",
              "name": "position",
              "type": "uint256"
            },
            {
              "internalType": "uint256",
              "name": "score",
              "type": "uint256"
            },
            {
              "internalType": "uint256",
              "name": "zombieCount",
              "type": "uint256"
            },
            {
              "internalType": "uint16",
              "name": "winCount",
              "type": "uint16"
            },
            {
              "internalType": "uint16",
              "name": "lossCount",
              "type": "uint16"
            }
          ],
          "internalType": "struct ZombieRanking.Ranking[]",
          "name": "",
          "type": "tuple[]"
        }
      ],
      "stateMutability": "view",
      "type": "function"
    },
    {
      "inputs": [
        {
          "internalType": "address",
          "name": "_owner",
          "type": "address"
        }
      ],
      "name": "getZombiesByOwner",
      "outputs": [
        {
          "internalType": "uint256[]",
          "name": "",
          "type": "uint256[]"
        }
      ],
      "stateMutability": "view",
      "type": "function"
    },
    {
      "inputs": [],
      "name": "isOwner",
      "outputs": [
        {
          "internalType": "bool",
          "name": "",
          "type": "bool"
        }
      ],
      "stateMutability": "view",
      "type": "function"
    },
    {
      "inputs": [
        {
          "internalType": "uint256",
          "name": "_zombieId",
          "type": "uint256"
        }
      ],
      "name": "levelUp",
      "outputs": [],
      "stateMutability": "payable",
      "type": "function"
    },
    {
      "inputs": [],
      "name": "levelUpFee",
      "outputs": [
        {
          "internalType": "uint256",
          "name": "",
          "type": "uint256"
        }
      ],
      "stateMutability": "view",
      "type": "function"
    },
    {
      "inputs": [],
      "name": "minPrice",
      "outputs": [
        {
          "internalType": "uint256",
          "name": "",
          "type": "uint256"
        }
      ],
      "stateMutability": "view",
      "type": "function"
    },
    {
      "inputs": [],
      "name": "owner",
      "outputs": [
        {
          "internalType": "address",
          "name": "",
          "type": "address"
        }
      ],
      "stateMutability": "view",
      "type": "function"
    },
    {
      "inputs": [
        {
          "internalType": "uint256",
          "name": "_tokenId",
          "type": "uint256"
        }
      ],
      "name": "ownerOf",
      "outputs": [
        {
          "internalType": "address",
          "name": "",
          "type": "address"
        }
      ],
      "stateMutability": "view",
      "type": "function"
    },
    {
      "inputs": [],
      "name": "renounceOwnership",
      "outputs": [],
      "stateMutability": "nonpayable",
      "type": "function"
    },
    {
      "inputs": [
        {
          "internalType": "uint256",
          "name": "zombieId",
          "type": "uint256"
        },
        {
          "internalType": "uint256",
          "name": "price",
          "type": "uint256"
        }
      ],
      "name": "saleMyZombie",
      "outputs": [],
      "stateMutability": "nonpayable",
      "type": "function"
    },
    {
      "inputs": [
        {
          "internalType": "string",
          "name": "_baseUrlTokenURI",
          "type": "string"
        }
      ],
      "name": "setBaseUrlTokenURI",
      "outputs": [],
      "stateMutability": "nonpayable",
      "type": "function"
    },
    {
      "inputs": [
        {
          "internalType": "uint256",
          "name": "_fee",
          "type": "uint256"
        }
      ],
      "name": "setChangeDNAFee",
      "outputs": [],
      "stateMutability": "nonpayable",
      "type": "function"
    },
    {
      "inputs": [
        {
          "internalType": "uint256",
          "name": "_fee",
          "type": "uint256"
        }
      ],
      "name": "setChangeNameFee",
      "outputs": [],
      "stateMutability": "nonpayable",
      "type": "function"
    },
    {
      "inputs": [
        {
          "internalType": "uint256",
          "name": "_cooldownTime",
          "type": "uint256"
        }
      ],
      "name": "setCooldownTime",
      "outputs": [],
      "stateMutability": "nonpayable",
      "type": "function"
    },
    {
      "inputs": [
        {
          "internalType": "address",
          "name": "_address",
          "type": "address"
        }
      ],
      "name": "setKittyContractAddress",
      "outputs": [],
      "stateMutability": "nonpayable",
      "type": "function"
    },
    {
      "inputs": [
        {
          "internalType": "uint256",
          "name": "_fee",
          "type": "uint256"
        }
      ],
      "name": "setLevelUpFee",
      "outputs": [],
      "stateMutability": "nonpayable",
      "type": "function"
    },
    {
      "inputs": [
        {
          "internalType": "uint256",
          "name": "value",
          "type": "uint256"
        }
      ],
      "name": "setMinPrice",
      "outputs": [],
      "stateMutability": "nonpayable",
      "type": "function"
    },
    {
      "inputs": [
        {
          "internalType": "uint256",
          "name": "value",
          "type": "uint256"
        }
      ],
      "name": "setTax",
      "outputs": [],
      "stateMutability": "nonpayable",
      "type": "function"
    },
    {
      "inputs": [],
      "name": "tax",
      "outputs": [
        {
          "internalType": "uint256",
          "name": "",
          "type": "uint256"
        }
      ],
      "stateMutability": "view",
      "type": "function"
    },
    {
      "inputs": [
        {
          "internalType": "uint256",
          "name": "_tokenId",
          "type": "uint256"
        }
      ],
      "name": "tokenURI",
      "outputs": [
        {
          "internalType": "string",
          "name": "",
          "type": "string"
        }
      ],
      "stateMutability": "view",
      "type": "function"
    },
    {
      "inputs": [
        {
          "internalType": "address",
          "name": "_from",
          "type": "address"
        },
        {
          "internalType": "address",
          "name": "_to",
          "type": "address"
        },
        {
          "internalType": "uint256",
          "name": "_tokenId",
          "type": "uint256"
        }
      ],
      "name": "transferFrom",
      "outputs": [],
      "stateMutability": "payable",
      "type": "function"
    },
    {
      "inputs": [
        {
          "internalType": "address",
          "name": "newOwner",
          "type": "address"
        }
      ],
      "name": "transferOwnership",
      "outputs": [],
      "stateMutability": "nonpayable",
      "type": "function"
    },
    {
      "inputs": [],
      "name": "withdraw",
      "outputs": [],
      "stateMutability": "nonpayable",
      "type": "function"
    },
    {
      "inputs": [
        {
          "internalType": "uint256",
          "name": "",
          "type": "uint256"
        }
      ],
      "name": "zombieShop",
      "outputs": [
        {
          "internalType": "address payable",
          "name": "seller",
          "type": "address"
        },
        {
          "internalType": "uint256",
          "name": "price",
          "type": "uint256"
        }
      ],
      "stateMutability": "view",
      "type": "function"
    },
    {
      "inputs": [
        {
          "internalType": "uint256",
          "name": "",
          "type": "uint256"
        }
      ],
      "name": "zombieToOwner",
      "outputs": [
        {
          "internalType": "address",
          "name": "",
          "type": "address"
        }
      ],
      "stateMutability": "view",
      "type": "function"
    },
    {
      "inputs": [
        {
          "internalType": "uint256",
          "name": "",
          "type": "uint256"
        }
      ],
      "name": "zombies",
      "outputs": [
        {
          "internalType": "string",
          "name": "name",
          "type": "string"
        },
        {
          "internalType": "uint256",
          "name": "dna",
          "type": "uint256"
        },
        {
          "internalType": "uint256",
          "name": "score",
          "type": "uint256"
        },
        {
          "internalType": "uint32",
          "name": "level",
          "type": "uint32"
        },
        {
          "internalType": "uint32",
          "name": "readyTime",
          "type": "uint32"
        },
        {
          "internalType": "uint16",
          "name": "winCount",
          "type": "uint16"
        },
        {
          "internalType": "uint16",
          "name": "lossCount",
          "type": "uint16"
        }
      ],
      "stateMutability": "view",
      "type": "function"
    }
  ],
  "bytecode": "0x60806040526010600155600154600a61001891906102c0565b600255603c60035566038d7ea4c6800060095566071afd498d0000600a55660e35fa931a0000600b556000600c556032600d556040518060600160405280602181526020016152bb60219139600e90816100729190610551565b50655af3107a4000601055655af3107a400060115534801561009357600080fd5b50336000806101000a81548173ffffffffffffffffffffffffffffffffffffffff021916908373ffffffffffffffffffffffffffffffffffffffff16021790555060008054906101000a900473ffffffffffffffffffffffffffffffffffffffff1673ffffffffffffffffffffffffffffffffffffffff16600073ffffffffffffffffffffffffffffffffffffffff167f8be0079c531659141344cd1fd0a4f28419497f9722a3daafe3b4186f6b6457e060405160405180910390a3610623565b7f4e487b7100000000000000000000000000000000000000000000000000000000600052601160045260246000fd5b60008160011c9050919050565b6000808291508390505b60018511156101da578086048111156101b6576101b5610154565b5b60018516156101c55780820291505b80810290506101d385610183565b945061019a565b94509492505050565b6000826101f357600190506102af565b8161020157600090506102af565b8160018114610217576002811461022157610250565b60019150506102af565b60ff84111561023357610232610154565b5b8360020a91508482111561024a57610249610154565b5b506102af565b5060208310610133831016604e8410600b84101617156102855782820a9050838111156102805761027f610154565b5b6102af565b6102928484846001610190565b925090508184048111156102a9576102a8610154565b5b81810290505b9392505050565b6000819050919050565b60006102cb826102b6565b91506102d6836102b6565b92506103037fffffffffffffffffffffffffffffffffffffffffffffffffffffffffffffffff84846101e3565b905092915050565b600081519050919050565b7f4e487b7100000000000000000000000000000000000000000000000000000000600052604160045260246000fd5b7f4e487b7100000000000000000000000000000000000000000000000000000000600052602260045260246000fd5b6000600282049050600182168061038c57607f821691505b60208210810361039f5761039e610345565b5b50919050565b60008190508160005260206000209050919050565b60006020601f8301049050919050565b600082821b905092915050565b6000600883026104077fffffffffffffffffffffffffffffffffffffffffffffffffffffffffffffffff826103ca565b61041186836103ca565b95508019841693508086168417925050509392505050565b6000819050919050565b600061044e610449610444846102b6565b610429565b6102b6565b9050919050565b6000819050919050565b61046883610433565b61047c61047482610455565b8484546103d7565b825550505050565b600090565b610491610484565b61049c81848461045f565b505050565b5b818110156104c0576104b5600082610489565b6001810190506104a2565b5050565b601f821115610505576104d6816103a5565b6104df846103ba565b810160208510156104ee578190505b6105026104fa856103ba565b8301826104a1565b50505b505050565b600082821c905092915050565b60006105286000198460080261050a565b1980831691505092915050565b60006105418383610517565b9150826002028217905092915050565b61055a8261030b565b67ffffffffffffffff81111561057357610572610316565b5b61057d8254610374565b6105888282856104c4565b600060209050601f8311600181146105bb57600084156105a9578287015190505b6105b38582610535565b86555061061b565b601f1984166105c9866103a5565b60005b828110156105f1578489015182556001820191506020850194506020810190506105cc565b8683101561060e578489015161060a601f891682610517565b8355505b6001600288020188555050505b505050505050565b614c89806106326000396000f3fe6080604052600436106102305760003560e01c80636be17f0e1161012e57806399c8d556116100ab578063c87b56dd1161006f578063c87b56dd146107c8578063ccf670f814610805578063e1fa76381461082e578063e45be8eb14610857578063f2fde38b1461088257610230565b806399c8d55614610702578063b319c6b71461072d578063b32c012d14610758578063c39cbef114610781578063c4114b121461079d57610230565b8063715018a6116100f2578063715018a6146106415780637bff0a01146106585780638a48ac03146106815780638da5cb5b146106ac5780638f32d59b146106d757610230565b80636be17f0e1461055e5780636ff732011461058757806370a08231146105b057806370acbb63146105ed57806370f47cf91461061857610230565b80633ccfd60b116101bc57806354c92c5f1161018057806354c92c5f146104885780635ea8cd12146104b35780635f4623f1146104dc5780635faf2880146105055780636352211e1461052157610230565b80633ccfd60b1461038e5780634412e104146103a557806345c6ba39146103e25780634f09516614610420578063528b7b8f1461044b57610230565b80631919b7e6116102035780631919b7e6146102c15780632052465e146102ea578063208c750e1461032d57806323b872dd146103495780632e5bb6ff1461036557610230565b806306f3376014610235578063095ea7b31461025e5780630ce90ec21461027a5780631398bbf714610296575b600080fd5b34801561024157600080fd5b5061025c60048036038101906102579190613507565b6108ab565b005b610278600480360381019061027391906135b8565b610974565b005b610294600480360381019061028f91906135f8565b610a92565b005b3480156102a257600080fd5b506102ab610bf9565b6040516102b8919061378a565b60405180910390f35b3480156102cd57600080fd5b506102e860048036038101906102e391906138f2565b6111ba565b005b3480156102f657600080fd5b50610311600480360381019061030c91906135f8565b6111de565b60405161032497969594939291906139f7565b60405180910390f35b610347600480360381019061034291906135f8565b6112f4565b005b610363600480360381019061035e9190613a6d565b61153f565b005b34801561037157600080fd5b5061038c600480360381019061038791906135f8565b611659565b005b34801561039a57600080fd5b506103a3611674565b005b3480156103b157600080fd5b506103cc60048036038101906103c79190613ac0565b6116db565b6040516103d99190613b9c565b60405180910390f35b3480156103ee57600080fd5b50610409600480360381019061040491906135f8565b6116ed565b604051610417929190613bdf565b60405180910390f35b34801561042c57600080fd5b50610435611731565b6040516104429190613c08565b60405180910390f35b34801561045757600080fd5b50610472600480360381019061046d91906135f8565b611737565b60405161047f9190613c32565b60405180910390f35b34801561049457600080fd5b5061049d61176a565b6040516104aa9190613c4d565b60405180910390f35b3480156104bf57600080fd5b506104da60048036038101906104d591906135f8565b6117f8565b005b3480156104e857600080fd5b5061050360048036038101906104fe9190613ac0565b611813565b005b61051f600480360381019061051a9190613c6f565b611868565b005b34801561052d57600080fd5b50610548600480360381019061054391906135f8565b611a23565b6040516105559190613c32565b60405180910390f35b34801561056a57600080fd5b50610585600480360381019061058091906135f8565b611a60565b005b34801561059357600080fd5b506105ae60048036038101906105a991906135f8565b611a7b565b005b3480156105bc57600080fd5b506105d760048036038101906105d29190613ac0565b611a96565b6040516105e49190613c08565b60405180910390f35b3480156105f957600080fd5b50610602611adf565b60405161060f9190613c08565b60405180910390f35b34801561062457600080fd5b5061063f600480360381019061063a91906135f8565b611ae5565b005b34801561064d57600080fd5b50610656611b00565b005b34801561066457600080fd5b5061067f600480360381019061067a91906138f2565b611bcf565b005b34801561068d57600080fd5b50610696611ccf565b6040516106a39190613d5e565b60405180910390f35b3480156106b857600080fd5b506106c1611dd4565b6040516106ce9190613c32565b60405180910390f35b3480156106e357600080fd5b506106ec611dfd565b6040516106f99190613d9b565b60405180910390f35b34801561070e57600080fd5b50610717611e54565b6040516107249190613c08565b60405180910390f35b34801561073957600080fd5b50610742611e5a565b60405161074f9190613c08565b60405180910390f35b34801561076457600080fd5b5061077f600480360381019061077a9190613c6f565b611e60565b005b61079b60048036038101906107969190613e16565b611fe3565b005b3480156107a957600080fd5b506107b26121aa565b6040516107bf9190613c08565b60405180910390f35b3480156107d457600080fd5b506107ef60048036038101906107ea91906135f8565b6121b0565b6040516107fc9190613c4d565b60405180910390f35b34801561081157600080fd5b5061082c600480360381019061082791906135f8565b61221e565b005b34801561083a57600080fd5b5061085560048036038101906108509190613c6f565b612239565b005b34801561086357600080fd5b5061086c6125a2565b6040516108799190613c08565b60405180910390f35b34801561088e57600080fd5b506108a960048036038101906108a49190613ac0565b6125a8565b005b6000600484815481106108c1576108c0613e76565b5b90600052602060002090600402019050600061091385856040518060400160405280600581526020017f6b697474790000000000000000000000000000000000000000000000000000008152506125c5565b90503373ffffffffffffffffffffffffffffffffffffffff167f94bd9f81959636fb1ddd32f8bcbdab8b649d20a6a464f759a1aa7f7cf4447fac83600101548686856040516109659493929190613ea5565b60405180910390a25050505050565b806006600082815260200190815260200160002060009054906101000a900473ffffffffffffffffffffffffffffffffffffffff1673ffffffffffffffffffffffffffffffffffffffff163373ffffffffffffffffffffffffffffffffffffffff16146109e057600080fd5b82600f600084815260200190815260200160002060006101000a81548173ffffffffffffffffffffffffffffffffffffffff021916908373ffffffffffffffffffffffffffffffffffffffff160217905550818373ffffffffffffffffffffffffffffffffffffffff163373ffffffffffffffffffffffffffffffffffffffff167f8c5be1e5ebec7d5bd14f71427d1e84f3dd0314c0f7b2291e5b200ac8c7c3b92560405160405180910390a4505050565b60095480341015610aa28261279e565b604051602001610ab29190613f4c565b60405160208183030381529060405290610b02576040517f08c379a0000000000000000000000000000000000000000000000000000000008152600401610af99190613c4d565b60405180910390fd5b50816006600082815260200190815260200160002060009054906101000a900473ffffffffffffffffffffffffffffffffffffffff1673ffffffffffffffffffffffffffffffffffffffff163373ffffffffffffffffffffffffffffffffffffffff1614610b6f57600080fd5b600160048481548110610b8557610b84613e76565b5b906000526020600020906004020160030160009054906101000a900463ffffffff16610bb19190613fa1565b60048481548110610bc557610bc4613e76565b5b906000526020600020906004020160030160006101000a81548163ffffffff021916908363ffffffff160217905550505050565b606060003390506000600580549050905060008167ffffffffffffffff811115610c2657610c256137c7565b5b604051908082528060200260200182016040528015610c5f57816020015b610c4c613469565b815260200190600190039081610c445790505b50905060006014905060005b83811015610f1157600060058281548110610c8957610c88613e76565b5b9060005260206000200160009054906101000a900473ffffffffffffffffffffffffffffffffffffffff1690506000610cc18261286c565b90506000806000805b8451811015610e945760006004868381518110610cea57610ce9613e76565b5b602002602001015181548110610d0357610d02613e76565b5b90600052602060002090600402016040518060e0016040529081600082018054610d2c90614008565b80601f0160208091040260200160405190810160405280929190818152602001828054610d5890614008565b8015610da55780601f10610d7a57610100808354040283529160200191610da5565b820191906000526020600020905b815481529060010190602001808311610d8857829003601f168201915b5050505050815260200160018201548152602001600282015481526020016003820160009054906101000a900463ffffffff1663ffffffff1663ffffffff1681526020016003820160049054906101000a900463ffffffff1663ffffffff1663ffffffff1681526020016003820160089054906101000a900461ffff1661ffff1661ffff16815260200160038201600a9054906101000a900461ffff1661ffff1661ffff16815250509050806040015185610e609190614039565b94508060a0015184610e72919061406d565b93508060c0015183610e84919061406d565b9250508080600101915050610cca565b506040518060c001604052808673ffffffffffffffffffffffffffffffffffffffff168152602001878152602001848152602001855181526020018361ffff1681526020018261ffff16815250888781518110610ef457610ef3613e76565b5b602002602001018190525050505050508080600101915050610c6b565b50610f1b826129b9565b5080825111610f3057819450505050506111b7565b60008167ffffffffffffffff811115610f4c57610f4b6137c7565b5b604051908082528060200260200182016040528015610f8557816020015b610f72613469565b815260200190600190039081610f6a5790505b509050600080600284610f9891906140d2565b905060005b81811015610ff757858181518110610fb857610fb7613e76565b5b6020026020010151848480610fcc90614103565b955081518110610fdf57610fde613e76565b5b60200260200101819052508080600101915050610f9d565b5060006001856110079190614039565b87611012919061414b565b905060008190505b878110801561102857508584105b15611085578681815181106110405761103f613e76565b5b602002602001015185858061105490614103565b96508151811061106757611066613e76565b5b6020026020010181905250808061107d90614103565b91505061101a565b506000805b848110156110f9578973ffffffffffffffffffffffffffffffffffffffff168682815181106110bc576110bb613e76565b5b60200260200101516000015173ffffffffffffffffffffffffffffffffffffffff16036110ec57600191506110f9565b808060010191505061108a565b50806111aa5760005b87518110156111a8578973ffffffffffffffffffffffffffffffffffffffff1688828151811061113557611134613e76565b5b60200260200101516000015173ffffffffffffffffffffffffffffffffffffffff160361119b5787818151811061116f5761116e613e76565b5b602002602001015186600b8151811061118b5761118a613e76565b5b60200260200101819052506111a8565b8080600101915050611102565b505b8499505050505050505050505b90565b6111c2611dfd565b6111cb57600080fd5b80600e90816111da919061432b565b5050565b600481815481106111ee57600080fd5b906000526020600020906004020160009150905080600001805461121190614008565b80601f016020809104026020016040519081016040528092919081815260200182805461123d90614008565b801561128a5780601f1061125f5761010080835404028352916020019161128a565b820191906000526020600020905b81548152906001019060200180831161126d57829003601f168201915b5050505050908060010154908060020154908060030160009054906101000a900463ffffffff16908060030160049054906101000a900463ffffffff16908060030160089054906101000a900461ffff169080600301600a9054906101000a900461ffff16905087565b6000601260008381526020019081526020016000206040518060400160405290816000820160009054906101000a900473ffffffffffffffffffffffffffffffffffffffff1673ffffffffffffffffffffffffffffffffffffffff1673ffffffffffffffffffffffffffffffffffffffff1681526020016001820154815250509050806000015173ffffffffffffffffffffffffffffffffffffffff16600073ffffffffffffffffffffffffffffffffffffffff16036113e9576040517f08c379a00000000000000000000000000000000000000000000000000000000081526004016113e090614449565b60405180910390fd5b8060200151341015611430576040517f08c379a0000000000000000000000000000000000000000000000000000000008152600401611427906144b5565b60405180910390fd5b61143f81600001513384612ab7565b806000015173ffffffffffffffffffffffffffffffffffffffff166108fc6010543461146b919061414b565b9081150290604051600060405180830381858888f19350505050158015611496573d6000803e3d6000fd5b5060126000838152602001908152602001600020600080820160006101000a81549073ffffffffffffffffffffffffffffffffffffffff021916905560018201600090555050806000015173ffffffffffffffffffffffffffffffffffffffff163373ffffffffffffffffffffffffffffffffffffffff16837f2705da8f1145dc87c9e6b9aa3ecd69d3d64da132acba45c803563ad52f5c2b5f60405160405180910390a45050565b3373ffffffffffffffffffffffffffffffffffffffff166006600083815260200190815260200160002060009054906101000a900473ffffffffffffffffffffffffffffffffffffffff1673ffffffffffffffffffffffffffffffffffffffff16148061160a57503373ffffffffffffffffffffffffffffffffffffffff16600f600083815260200190815260200160002060009054906101000a900473ffffffffffffffffffffffffffffffffffffffff1673ffffffffffffffffffffffffffffffffffffffff16145b611649576040517f08c379a000000000000000000000000000000000000000000000000000000000815260040161164090614521565b60405180910390fd5b611654838383612ab7565b505050565b611661611dfd565b61166a57600080fd5b8060108190555050565b61167c611dfd565b61168557600080fd5b600061168f611dd4565b90508073ffffffffffffffffffffffffffffffffffffffff166108fc479081150290604051600060405180830381858888f193505050501580156116d7573d6000803e3d6000fd5b5050565b60606116e68261286c565b9050919050565b60126020528060005260406000206000915090508060000160009054906101000a900473ffffffffffffffffffffffffffffffffffffffff16908060010154905082565b600a5481565b60066020528060005260406000206000915054906101000a900473ffffffffffffffffffffffffffffffffffffffff1681565b600e805461177790614008565b80601f01602080910402602001604051908101604052809291908181526020018280546117a390614008565b80156117f05780601f106117c5576101008083540402835291602001916117f0565b820191906000526020600020905b8154815290600101906020018083116117d357829003601f168201915b505050505081565b611800611dfd565b61180957600080fd5b8060118190555050565b61181b611dfd565b61182457600080fd5b80600860006101000a81548173ffffffffffffffffffffffffffffffffffffffff021916908373ffffffffffffffffffffffffffffffffffffffff16021790555050565b600b54803410156118788261279e565b6040516020016118889190613f4c565b604051602081830303815290604052906118d8576040517f08c379a00000000000000000000000000000000000000000000000000000000081526004016118cf9190613c4d565b60405180910390fd5b5060148381600482815481106118f1576118f0613e76565b5b906000526020600020906004020160030160009054906101000a900463ffffffff1663ffffffff1610156119248361279e565b6040516020016119349190614567565b60405160208183030381529060405290611984576040517f08c379a000000000000000000000000000000000000000000000000000000000815260040161197b9190613c4d565b60405180910390fd5b50846006600082815260200190815260200160002060009054906101000a900473ffffffffffffffffffffffffffffffffffffffff1673ffffffffffffffffffffffffffffffffffffffff163373ffffffffffffffffffffffffffffffffffffffff16146119f157600080fd5b8460048781548110611a0657611a05613e76565b5b906000526020600020906004020160010181905550505050505050565b60006006600083815260200190815260200160002060009054906101000a900473ffffffffffffffffffffffffffffffffffffffff169050919050565b611a68611dfd565b611a7157600080fd5b80600a8190555050565b611a83611dfd565b611a8c57600080fd5b8060038190555050565b6000600760008373ffffffffffffffffffffffffffffffffffffffff1673ffffffffffffffffffffffffffffffffffffffff168152602001908152602001600020549050919050565b600b5481565b611aed611dfd565b611af657600080fd5b80600b8190555050565b611b08611dfd565b611b1157600080fd5b600073ffffffffffffffffffffffffffffffffffffffff1660008054906101000a900473ffffffffffffffffffffffffffffffffffffffff1673ffffffffffffffffffffffffffffffffffffffff167f8be0079c531659141344cd1fd0a4f28419497f9722a3daafe3b4186f6b6457e060405160405180910390a360008060006101000a81548173ffffffffffffffffffffffffffffffffffffffff021916908373ffffffffffffffffffffffffffffffffffffffff160217905550565b6000600760003373ffffffffffffffffffffffffffffffffffffffff1673ffffffffffffffffffffffffffffffffffffffff1681526020019081526020016000205414611c51576040517f08c379a0000000000000000000000000000000000000000000000000000000008152600401611c48906145ff565b60405180910390fd5b6000611c5c82612c87565b9050611c688282612ccc565b6005339080600181540180825580915050600190039060005260206000200160009091909190916101000a81548173ffffffffffffffffffffffffffffffffffffffff021916908373ffffffffffffffffffffffffffffffffffffffff1602179055505050565b6060600060058054905067ffffffffffffffff811115611cf257611cf16137c7565b5b604051908082528060200260200182016040528015611d205781602001602082028036833780820191505090505b50905060005b600580549050811015611dcc5760058181548110611d4757611d46613e76565b5b9060005260206000200160009054906101000a900473ffffffffffffffffffffffffffffffffffffffff16828281518110611d8557611d84613e76565b5b602002602001019073ffffffffffffffffffffffffffffffffffffffff16908173ffffffffffffffffffffffffffffffffffffffff16815250508080600101915050611d26565b508091505090565b60008060009054906101000a900473ffffffffffffffffffffffffffffffffffffffff16905090565b60008060009054906101000a900473ffffffffffffffffffffffffffffffffffffffff1673ffffffffffffffffffffffffffffffffffffffff163373ffffffffffffffffffffffffffffffffffffffff1614905090565b60105481565b60035481565b816006600082815260200190815260200160002060009054906101000a900473ffffffffffffffffffffffffffffffffffffffff1673ffffffffffffffffffffffffffffffffffffffff163373ffffffffffffffffffffffffffffffffffffffff1614611ecc57600080fd5b601154601054611edc9190614039565b821015611f1e576040517f08c379a0000000000000000000000000000000000000000000000000000000008152600401611f15906144b5565b60405180910390fd5b60405180604001604052803373ffffffffffffffffffffffffffffffffffffffff168152602001838152506012600085815260200190815260200160002060008201518160000160006101000a81548173ffffffffffffffffffffffffffffffffffffffff021916908373ffffffffffffffffffffffffffffffffffffffff1602179055506020820151816001015590505081837fb03c845c6c9ef1ff8db2c6381cd7ecf8c5623e02bb20e85545f3d04288302e5860405160405180910390a3505050565b600a5480341015611ff38261279e565b6040516020016120039190613f4c565b60405160208183030381529060405290612053576040517f08c379a000000000000000000000000000000000000000000000000000000000815260040161204a9190613c4d565b60405180910390fd5b50600284816004828154811061206c5761206b613e76565b5b906000526020600020906004020160030160009054906101000a900463ffffffff1663ffffffff16101561209f8361279e565b6040516020016120af9190614567565b604051602081830303815290604052906120ff576040517f08c379a00000000000000000000000000000000000000000000000000000000081526004016120f69190613c4d565b60405180910390fd5b50856006600082815260200190815260200160002060009054906101000a900473ffffffffffffffffffffffffffffffffffffffff1673ffffffffffffffffffffffffffffffffffffffff163373ffffffffffffffffffffffffffffffffffffffff161461216c57600080fd5b85856004898154811061218257612181613e76565b5b906000526020600020906004020160000191826121a092919061462a565b5050505050505050565b60095481565b60606000600483815481106121c8576121c7613e76565b5b90600052602060002090600402019050600e6121e38461279e565b826000016121f4846001015461279e565b60405160200161220794939291906147a3565b604051602081830303815290604052915050919050565b612226611dfd565b61222f57600080fd5b8060098190555050565b816006600082815260200190815260200160002060009054906101000a900473ffffffffffffffffffffffffffffffffffffffff1673ffffffffffffffffffffffffffffffffffffffff163373ffffffffffffffffffffffffffffffffffffffff16146122a557600080fd5b6000600484815481106122bb576122ba613e76565b5b906000526020600020906004020190506000600484815481106122e1576122e0613e76565b5b9060005260206000209060040201905060006122fd8383612f5d565b90506000606442338960405160200161231893929190614868565b6040516020818303038152906040528051906020012060001c61233b91906148a5565b90508181116124b35783600301600881819054906101000a900461ffff1680929190612366906148d6565b91906101000a81548161ffff021916908361ffff1602179055505083600301600081819054906101000a900463ffffffff16809291906123a590614900565b91906101000a81548163ffffffff021916908363ffffffff1602179055505082600301600a81819054906101000a900461ffff16809291906123e6906148d6565b91906101000a81548161ffff021916908361ffff1602179055505061240a84613099565b61241383613099565b60006124598885600101546040518060400160405280600681526020017f7a6f6d62696500000000000000000000000000000000000000000000000000008152506125c5565b90503373ffffffffffffffffffffffffffffffffffffffff167f750a7c18ca7f7bd87c6e50678ea7fa4f64d0cb733bb68cdac552d009737b47168989846040516124a59392919061492c565b60405180910390a250612599565b83600301600a81819054906101000a900461ffff16809291906124d5906148d6565b91906101000a81548161ffff021916908361ffff1602179055505082600301600881819054906101000a900461ffff1680929190612512906148d6565b91906101000a81548161ffff021916908361ffff1602179055505061253684613099565b61253f83613099565b6125488461313f565b3373ffffffffffffffffffffffffffffffffffffffff167f4fa78061bb2783669831d2e2aa9ca18cb698e098923982bfada46ceaf1516d6a8888604051612590929190614963565b60405180910390a25b50505050505050565b60115481565b6125b0611dfd565b6125b957600080fd5b6125c281613172565b50565b6000836006600082815260200190815260200160002060009054906101000a900473ffffffffffffffffffffffffffffffffffffffff1673ffffffffffffffffffffffffffffffffffffffff163373ffffffffffffffffffffffffffffffffffffffff161461263357600080fd5b60006004868154811061264957612648613e76565b5b9060005260206000209060040201905061266281613268565b6126a1576040517f08c379a0000000000000000000000000000000000000000000000000000000008152600401612698906149d8565b60405180910390fd5b600254856126af91906148a5565b9450600060028683600101546126c59190614039565b6126cf91906140d2565b90506040516020016126e090614a44565b60405160208183030381529060405280519060200120856040516020016127079190614a59565b604051602081830303815290604052805190602001200361274957606360648261273191906148a5565b8261273c919061414b565b6127469190614039565b90505b6127886040518060400160405280600681526020017f4e6f4e616d65000000000000000000000000000000000000000000000000000081525082612ccc565b6127918261313f565b8093505050509392505050565b6060600060016127ad8461328f565b01905060008167ffffffffffffffff8111156127cc576127cb6137c7565b5b6040519080825280601f01601f1916602001820160405280156127fe5781602001600182028036833780820191505090505b509050600082602001820190505b600115612861578080600190039150507f3031323334353637383961626364656600000000000000000000000000000000600a86061a8153600a8581612855576128546140a3565b5b0494506000850361280c575b819350505050919050565b60606000600760008473ffffffffffffffffffffffffffffffffffffffff1673ffffffffffffffffffffffffffffffffffffffff1681526020019081526020016000205467ffffffffffffffff8111156128c9576128c86137c7565b5b6040519080825280602002602001820160405280156128f75781602001602082028036833780820191505090505b5090506000805b6004805490508110156129ae578473ffffffffffffffffffffffffffffffffffffffff166006600083815260200190815260200160002060009054906101000a900473ffffffffffffffffffffffffffffffffffffffff1673ffffffffffffffffffffffffffffffffffffffff16036129a1578083838151811061298557612984613e76565b5b60200260200101818152505060018261299e9190614039565b91505b80806001019150506128fe565b508192505050919050565b60606000600190505b8251811015612aae5760005b81811015612aa0578381815181106129e9576129e8613e76565b5b602002602001015160400151848381518110612a0857612a07613e76565b5b6020026020010151604001511015612a93576000848381518110612a2f57612a2e613e76565b5b60200260200101519050848281518110612a4c57612a4b613e76565b5b6020026020010151858481518110612a6757612a66613e76565b5b602002602001018190525080858381518110612a8657612a85613e76565b5b6020026020010181905250505b80806001019150506129ce565b5080806001019150506129c2565b50819050919050565b6001600760008473ffffffffffffffffffffffffffffffffffffffff1673ffffffffffffffffffffffffffffffffffffffff16815260200190815260200160002054612b039190614039565b600760008473ffffffffffffffffffffffffffffffffffffffff1673ffffffffffffffffffffffffffffffffffffffff168152602001908152602001600020819055506001600760008573ffffffffffffffffffffffffffffffffffffffff1673ffffffffffffffffffffffffffffffffffffffff16815260200190815260200160002054612b92919061414b565b600760008573ffffffffffffffffffffffffffffffffffffffff1673ffffffffffffffffffffffffffffffffffffffff16815260200190815260200160002081905550816006600083815260200190815260200160002060006101000a81548173ffffffffffffffffffffffffffffffffffffffff021916908373ffffffffffffffffffffffffffffffffffffffff160217905550808273ffffffffffffffffffffffffffffffffffffffff168473ffffffffffffffffffffffffffffffffffffffff167fddf252ad1be2c89b69c2b068fc378daa952ba7f163c4a11628f55a4df523b3ef60405160405180910390a4505050565b60008082604051602001612c9b9190614a59565b6040516020818303038152906040528051906020012060001c905060025481612cc491906148a5565b915050919050565b60046040518060e0016040528084815260200183815260200160008152602001600163ffffffff16815260200160035442612d079190614039565b63ffffffff168152602001600061ffff168152602001600061ffff1681525090806001815401808255809150506001900390600052602060002090600402016000909190919091506000820151816000019081612d64919061432b565b50602082015181600101556040820151816002015560608201518160030160006101000a81548163ffffffff021916908363ffffffff16021790555060808201518160030160046101000a81548163ffffffff021916908363ffffffff16021790555060a08201518160030160086101000a81548161ffff021916908361ffff16021790555060c082015181600301600a6101000a81548161ffff021916908361ffff160217905550505060006001600480549050612e23919061414b565b9050336006600083815260200190815260200160002060006101000a81548173ffffffffffffffffffffffffffffffffffffffff021916908373ffffffffffffffffffffffffffffffffffffffff1602179055506001600760003373ffffffffffffffffffffffffffffffffffffffff1673ffffffffffffffffffffffffffffffffffffffff16815260200190815260200160002054612ec39190614039565b600760003373ffffffffffffffffffffffffffffffffffffffff1673ffffffffffffffffffffffffffffffffffffffff168152602001908152602001600020819055503373ffffffffffffffffffffffffffffffffffffffff167ff92b1ba4cb9ae7683c3a3a1e58273b24013547531f590e32910f3105e8349e1f828585604051612f5093929190614a70565b60405180910390a2505050565b600080600d54905060008360030160009054906101000a900463ffffffff168560030160009054906101000a900463ffffffff16612f9b9190614abb565b905060008160030b1315612fce57600281612fb69190614b17565b63ffffffff1682612fc79190614039565b9150613005565b60008160030b121561300457600281612fe690614b54565b612ff09190614b17565b63ffffffff1682613001919061414b565b91505b5b60008061301587600101546133e2565b5091509150600061302987600101546133e2565b925050506000600a82846002876130409190614b9c565b61304a9190614039565b613054919061414b565b61305e91906140d2565b9050808661306c9190614039565b9550605a86111561307c57605a95505b601e86101561308a57601e95505b85965050505050505092915050565b6000600382600301600a9054906101000a900461ffff166130ba9190614bde565b61ffff1660058360030160089054906101000a900461ffff166130dd9190614bde565b61ffff16600a8460030160009054906101000a900463ffffffff166131029190614b17565b61310c9190613fa1565b6131169190614c1b565b9050600a8163ffffffff16101561312c57600a90505b8063ffffffff1682600201819055505050565b6003544261314d9190614039565b8160030160046101000a81548163ffffffff021916908363ffffffff16021790555050565b600073ffffffffffffffffffffffffffffffffffffffff168173ffffffffffffffffffffffffffffffffffffffff16036131ab57600080fd5b8073ffffffffffffffffffffffffffffffffffffffff1660008054906101000a900473ffffffffffffffffffffffffffffffffffffffff1673ffffffffffffffffffffffffffffffffffffffff167f8be0079c531659141344cd1fd0a4f28419497f9722a3daafe3b4186f6b6457e060405160405180910390a3806000806101000a81548173ffffffffffffffffffffffffffffffffffffffff021916908373ffffffffffffffffffffffffffffffffffffffff16021790555050565b6000428260030160049054906101000a900463ffffffff1663ffffffff1611159050919050565b600080600090507a184f03e93ff9f4daa797ed6e38ed64bf6a1f01000000000000000083106132ed577a184f03e93ff9f4daa797ed6e38ed64bf6a1f01000000000000000083816132e3576132e26140a3565b5b0492506040810190505b6d04ee2d6d415b85acef8100000000831061332a576d04ee2d6d415b85acef810000000083816133205761331f6140a3565b5b0492506020810190505b662386f26fc10000831061335957662386f26fc10000838161334f5761334e6140a3565b5b0492506010810190505b6305f5e1008310613382576305f5e1008381613378576133776140a3565b5b0492506008810190505b61271083106133a757612710838161339d5761339c6140a3565b5b0492506004810190505b606483106133ca57606483816133c0576133bf6140a3565b5b0492506002810190505b600a83106133d9576001810190505b80915050919050565b6000806000806032856133f591906148a5565b60326134019190614039565b90506000603260648761341491906140d2565b61341e91906148a5565b603261342a9190614039565b9050600060326127108861343e91906140d2565b61344891906148a5565b60326134549190614039565b90508282829550955095505050509193909250565b6040518060c00160405280600073ffffffffffffffffffffffffffffffffffffffff168152602001600081526020016000815260200160008152602001600061ffff168152602001600061ffff1681525090565b6000604051905090565b600080fd5b600080fd5b6000819050919050565b6134e4816134d1565b81146134ef57600080fd5b50565b600081359050613501816134db565b92915050565b6000806000606084860312156135205761351f6134c7565b5b600061352e868287016134f2565b935050602061353f868287016134f2565b9250506040613550868287016134f2565b9150509250925092565b600073ffffffffffffffffffffffffffffffffffffffff82169050919050565b60006135858261355a565b9050919050565b6135958161357a565b81146135a057600080fd5b50565b6000813590506135b28161358c565b92915050565b600080604083850312156135cf576135ce6134c7565b5b60006135dd858286016135a3565b92505060206135ee858286016134f2565b9150509250929050565b60006020828403121561360e5761360d6134c7565b5b600061361c848285016134f2565b91505092915050565b600081519050919050565b600082825260208201905092915050565b6000819050602082019050919050565b61365a8161357a565b82525050565b613669816134d1565b82525050565b600061ffff82169050919050565b6136868161366f565b82525050565b60c0820160008201516136a26000850182613651565b5060208201516136b56020850182613660565b5060408201516136c86040850182613660565b5060608201516136db6060850182613660565b5060808201516136ee608085018261367d565b5060a082015161370160a085018261367d565b50505050565b6000613713838361368c565b60c08301905092915050565b6000602082019050919050565b600061373782613625565b6137418185613630565b935061374c83613641565b8060005b8381101561377d5781516137648882613707565b975061376f8361371f565b925050600181019050613750565b5085935050505092915050565b600060208201905081810360008301526137a4818461372c565b905092915050565b600080fd5b600080fd5b6000601f19601f8301169050919050565b7f4e487b7100000000000000000000000000000000000000000000000000000000600052604160045260246000fd5b6137ff826137b6565b810181811067ffffffffffffffff8211171561381e5761381d6137c7565b5b80604052505050565b60006138316134bd565b905061383d82826137f6565b919050565b600067ffffffffffffffff82111561385d5761385c6137c7565b5b613866826137b6565b9050602081019050919050565b82818337600083830152505050565b600061389561389084613842565b613827565b9050828152602081018484840111156138b1576138b06137b1565b5b6138bc848285613873565b509392505050565b600082601f8301126138d9576138d86137ac565b5b81356138e9848260208601613882565b91505092915050565b600060208284031215613908576139076134c7565b5b600082013567ffffffffffffffff811115613926576139256134cc565b5b613932848285016138c4565b91505092915050565b600081519050919050565b600082825260208201905092915050565b60005b8381101561397557808201518184015260208101905061395a565b60008484015250505050565b600061398c8261393b565b6139968185613946565b93506139a6818560208601613957565b6139af816137b6565b840191505092915050565b6139c3816134d1565b82525050565b600063ffffffff82169050919050565b6139e2816139c9565b82525050565b6139f18161366f565b82525050565b600060e0820190508181036000830152613a11818a613981565b9050613a2060208301896139ba565b613a2d60408301886139ba565b613a3a60608301876139d9565b613a4760808301866139d9565b613a5460a08301856139e8565b613a6160c08301846139e8565b98975050505050505050565b600080600060608486031215613a8657613a856134c7565b5b6000613a94868287016135a3565b9350506020613aa5868287016135a3565b9250506040613ab6868287016134f2565b9150509250925092565b600060208284031215613ad657613ad56134c7565b5b6000613ae4848285016135a3565b91505092915050565b600081519050919050565b600082825260208201905092915050565b6000819050602082019050919050565b6000613b258383613660565b60208301905092915050565b6000602082019050919050565b6000613b4982613aed565b613b538185613af8565b9350613b5e83613b09565b8060005b83811015613b8f578151613b768882613b19565b9750613b8183613b31565b925050600181019050613b62565b5085935050505092915050565b60006020820190508181036000830152613bb68184613b3e565b905092915050565b6000613bc98261355a565b9050919050565b613bd981613bbe565b82525050565b6000604082019050613bf46000830185613bd0565b613c0160208301846139ba565b9392505050565b6000602082019050613c1d60008301846139ba565b92915050565b613c2c8161357a565b82525050565b6000602082019050613c476000830184613c23565b92915050565b60006020820190508181036000830152613c678184613981565b905092915050565b60008060408385031215613c8657613c856134c7565b5b6000613c94858286016134f2565b9250506020613ca5858286016134f2565b9150509250929050565b600081519050919050565b600082825260208201905092915050565b6000819050602082019050919050565b6000613ce78383613651565b60208301905092915050565b6000602082019050919050565b6000613d0b82613caf565b613d158185613cba565b9350613d2083613ccb565b8060005b83811015613d51578151613d388882613cdb565b9750613d4383613cf3565b925050600181019050613d24565b5085935050505092915050565b60006020820190508181036000830152613d788184613d00565b905092915050565b60008115159050919050565b613d9581613d80565b82525050565b6000602082019050613db06000830184613d8c565b92915050565b600080fd5b600080fd5b60008083601f840112613dd657613dd56137ac565b5b8235905067ffffffffffffffff811115613df357613df2613db6565b5b602083019150836001820283011115613e0f57613e0e613dbb565b5b9250929050565b600080600060408486031215613e2f57613e2e6134c7565b5b6000613e3d868287016134f2565b935050602084013567ffffffffffffffff811115613e5e57613e5d6134cc565b5b613e6a86828701613dc0565b92509250509250925092565b7f4e487b7100000000000000000000000000000000000000000000000000000000600052603260045260246000fd5b6000608082019050613eba60008301876139ba565b613ec760208301866139ba565b613ed460408301856139ba565b613ee160608301846139ba565b95945050505050565b7f5072696365206d696e696d756d20697320000000000000000000000000000000815250565b600081905092915050565b6000613f268261393b565b613f308185613f10565b9350613f40818560208601613957565b80840191505092915050565b6000613f5782613eea565b601182019150613f678284613f1b565b915081905092915050565b7f4e487b7100000000000000000000000000000000000000000000000000000000600052601160045260246000fd5b6000613fac826139c9565b9150613fb7836139c9565b9250828201905063ffffffff811115613fd357613fd2613f72565b5b92915050565b7f4e487b7100000000000000000000000000000000000000000000000000000000600052602260045260246000fd5b6000600282049050600182168061402057607f821691505b60208210810361403357614032613fd9565b5b50919050565b6000614044826134d1565b915061404f836134d1565b925082820190508082111561406757614066613f72565b5b92915050565b60006140788261366f565b91506140838361366f565b9250828201905061ffff81111561409d5761409c613f72565b5b92915050565b7f4e487b7100000000000000000000000000000000000000000000000000000000600052601260045260246000fd5b60006140dd826134d1565b91506140e8836134d1565b9250826140f8576140f76140a3565b5b828204905092915050565b600061410e826134d1565b91507fffffffffffffffffffffffffffffffffffffffffffffffffffffffffffffffff82036141405761413f613f72565b5b600182019050919050565b6000614156826134d1565b9150614161836134d1565b925082820390508181111561417957614178613f72565b5b92915050565b60008190508160005260206000209050919050565b60006020601f8301049050919050565b600082821b905092915050565b6000600883026141e17fffffffffffffffffffffffffffffffffffffffffffffffffffffffffffffffff826141a4565b6141eb86836141a4565b95508019841693508086168417925050509392505050565b6000819050919050565b600061422861422361421e846134d1565b614203565b6134d1565b9050919050565b6000819050919050565b6142428361420d565b61425661424e8261422f565b8484546141b1565b825550505050565b600090565b61426b61425e565b614276818484614239565b505050565b5b8181101561429a5761428f600082614263565b60018101905061427c565b5050565b601f8211156142df576142b08161417f565b6142b984614194565b810160208510156142c8578190505b6142dc6142d485614194565b83018261427b565b50505b505050565b600082821c905092915050565b6000614302600019846008026142e4565b1980831691505092915050565b600061431b83836142f1565b9150826002028217905092915050565b6143348261393b565b67ffffffffffffffff81111561434d5761434c6137c7565b5b6143578254614008565b61436282828561429e565b600060209050601f8311600181146143955760008415614383578287015190505b61438d858261430f565b8655506143f5565b601f1984166143a38661417f565b60005b828110156143cb578489015182556001820191506020850194506020810190506143a6565b868310156143e857848901516143e4601f8916826142f1565b8355505b6001600288020188555050505b505050505050565b7f5a6f6d62696520617265206e6f74206f6e2073616c652e000000000000000000600082015250565b6000614433601783613946565b915061443e826143fd565b602082019050919050565b6000602082019050818103600083015261446281614426565b9050919050565b7f596f757220707269636520697320746f6f206c6f770000000000000000000000600082015250565b600061449f601583613946565b91506144aa82614469565b602082019050919050565b600060208201905081810360008301526144ce81614492565b9050919050565b7f596f7520617265206e6f74206f776e6572206f7220617070726f7665642e0000600082015250565b600061450b601e83613946565b9150614516826144d5565b602082019050919050565b6000602082019050818103600083015261453a816144fe565b9050919050565b7f4c6576656c206d696e696d756d20697320000000000000000000000000000000815250565b600061457282614541565b6011820191506145828284613f1b565b915081905092915050565b7f596f752063616e206f6e6c7920637265617465206f6e65207a6f6d626965207060008201527f6572206163636f756e7400000000000000000000000000000000000000000000602082015250565b60006145e9602a83613946565b91506145f48261458d565b604082019050919050565b60006020820190508181036000830152614618816145dc565b9050919050565b600082905092915050565b614634838361461f565b67ffffffffffffffff81111561464d5761464c6137c7565b5b6146578254614008565b61466282828561429e565b6000601f831160018114614691576000841561467f578287013590505b614689858261430f565b8655506146f1565b601f19841661469f8661417f565b60005b828110156146c7578489013582556001820191506020850194506020810190506146a2565b868310156146e457848901356146e0601f8916826142f1565b8355505b6001600288020188555050505b50505050505050565b6000815461470781614008565b6147118186613f10565b9450600182166000811461472c576001811461474157614774565b60ff1983168652811515820286019350614774565b61474a8561417f565b60005b8381101561476c5781548189015260018201915060208101905061474d565b838801955050505b50505092915050565b7f2f00000000000000000000000000000000000000000000000000000000000000815250565b60006147af82876146fa565b91506147bb8286613f1b565b91506147c68261477d565b6001820191506147d682856146fa565b91506147e18261477d565b6001820191506147f18284613f1b565b915081905095945050505050565b6000819050919050565b61481a614815826134d1565b6147ff565b82525050565b60008160601b9050919050565b600061483882614820565b9050919050565b600061484a8261482d565b9050919050565b61486261485d8261357a565b61483f565b82525050565b60006148748286614809565b6020820191506148848285614851565b6014820191506148948284614809565b602082019150819050949350505050565b60006148b0826134d1565b91506148bb836134d1565b9250826148cb576148ca6140a3565b5b828206905092915050565b60006148e18261366f565b915061ffff82036148f5576148f4613f72565b5b600182019050919050565b600061490b826139c9565b915063ffffffff820361492157614920613f72565b5b600182019050919050565b600060608201905061494160008301866139ba565b61494e60208301856139ba565b61495b60408301846139ba565b949350505050565b600060408201905061497860008301856139ba565b61498560208301846139ba565b9392505050565b7f5a6f6d626965206973206e6f7420726561647920746f20666565640000000000600082015250565b60006149c2601b83613946565b91506149cd8261498c565b602082019050919050565b600060208201905081810360008301526149f1816149b5565b9050919050565b7f6b69747479000000000000000000000000000000000000000000000000000000600082015250565b6000614a2e600583613f10565b9150614a39826149f8565b600582019050919050565b6000614a4f82614a21565b9150819050919050565b6000614a658284613f1b565b915081905092915050565b6000606082019050614a8560008301866139ba565b8181036020830152614a978185613981565b9050614aa660408301846139ba565b949350505050565b60008160030b9050919050565b6000614ac682614aae565b9150614ad183614aae565b92508282039050637fffffff81137fffffffffffffffffffffffffffffffffffffffffffffffffffffffff8000000082121715614b1157614b10613f72565b5b92915050565b6000614b22826139c9565b9150614b2d836139c9565b9250828202614b3b816139c9565b9150808214614b4d57614b4c613f72565b5b5092915050565b6000614b5f82614aae565b91507fffffffffffffffffffffffffffffffffffffffffffffffffffffffff800000008203614b9157614b90613f72565b5b816000039050919050565b6000614ba7826134d1565b9150614bb2836134d1565b9250828202614bc0816134d1565b91508282048414831517614bd757614bd6613f72565b5b5092915050565b6000614be98261366f565b9150614bf48361366f565b9250828202614c028161366f565b9150808214614c1457614c13613f72565b5b5092915050565b6000614c26826139c9565b9150614c31836139c9565b9250828203905063ffffffff811115614c4d57614c4c613f72565b5b9291505056fea2646970667358221220fe2a57c27ae3cd186e2e476a625baa20c078951f1879e47f8eef9508e799d82364736f6c634300081c0033687474703a2f2f6c6f63616c686f73743a333333332f7a6f6d6269652f7572692f",
  "linkReferences": {},
  "deployedLinkReferences": {}
}