{
  "_format": "hh-sol-artifact-1",
  "contractName": "CryptoZombies",
  "sourceName": "contracts/CryptoZombies.sol",
  "abi": [
    {
      "anonymous": false,
      "inputs": [
        {
          "indexed": true,
          "internalType": "address",
          "name": "_owner",
          "type": "address"
        },
        {
          "indexed": true,
          "internalType": "address",
          "name": "_approved",
          "type": "address"
        },
        {
          "indexed": true,
          "internalType": "uint256",
          "name": "_tokenId",
          "type": "uint256"
        }
      ],
      "name": "Approval",
      "type": "event"
    },
    {
      "anonymous": false,
      "inputs": [
        {
          "indexed": true,
          "internalType": "uint256",
          "name": "zombieId",
          "type": "uint256"
        },
        {
          "indexed": true,
          "internalType": "address",
          "name": "buyer",
          "type": "address"
        },
        {
          "indexed": true,
          "internalType": "address",
          "name": "seller",
          "type": "address"
        }
      ],
      "name": "BuyShopZombie",
      "type": "event"
    },
    {
      "anonymous": false,
      "inputs": [
        {
          "indexed": true,
          "internalType": "address",
          "name": "from",
          "type": "address"
        },
        {
          "indexed": false,
          "internalType": "uint256",
          "name": "zombieId",
          "type": "uint256"
        },
        {
          "indexed": false,
          "internalType": "string",
          "name": "name",
          "type": "string"
        },
        {
          "indexed": false,
          "internalType": "uint256",
          "name": "dna",
          "type": "uint256"
        }
      ],
      "name": "NewZombie",
      "type": "event"
    },
    {
      "anonymous": false,
      "inputs": [
        {
          "indexed": true,
          "internalType": "address",
          "name": "previousOwner",
          "type": "address"
        },
        {
          "indexed": true,
          "internalType": "address",
          "name": "newOwner",
          "type": "address"
        }
      ],
      "name": "OwnershipTransferred",
      "type": "event"
    },
    {
      "anonymous": false,
      "inputs": [
        {
          "indexed": true,
          "internalType": "uint256",
          "name": "zombieId",
          "type": "uint256"
        },
        {
          "indexed": true,
          "internalType": "uint256",
          "name": "price",
          "type": "uint256"
        }
      ],
      "name": "SaleZombie",
      "type": "event"
    },
    {
      "anonymous": false,
      "inputs": [
        {
          "indexed": true,
          "internalType": "address",
          "name": "_from",
          "type": "address"
        },
        {
          "indexed": true,
          "internalType": "address",
          "name": "_to",
          "type": "address"
        },
        {
          "indexed": true,
          "internalType": "uint256",
          "name": "_tokenId",
          "type": "uint256"
        }
      ],
      "name": "Transfer",
      "type": "event"
    },
    {
      "anonymous": false,
      "inputs": [
        {
          "indexed": true,
          "internalType": "address",
          "name": "from",
          "type": "address"
        },
        {
          "indexed": false,
          "internalType": "uint256",
          "name": "fromId",
          "type": "uint256"
        },
        {
          "indexed": false,
          "internalType": "uint256",
          "name": "targetId",
          "type": "uint256"
        }
      ],
      "name": "onAttackDefeat",
      "type": "event"
    },
    {
      "anonymous": false,
      "inputs": [
        {
          "indexed": true,
          "internalType": "address",
          "name": "from",
          "type": "address"
        },
        {
          "indexed": false,
          "internalType": "uint256",
          "name": "fromId",
          "type": "uint256"
        },
        {
          "indexed": false,
          "internalType": "uint256",
          "name": "targetId",
          "type": "uint256"
        },
        {
          "indexed": false,
          "internalType": "uint256",
          "name": "newDna",
          "type": "uint256"
        }
      ],
      "name": "onAttackVitory",
      "type": "event"
    },
    {
      "anonymous": false,
      "inputs": [
        {
          "indexed": true,
          "internalType": "address",
          "name": "from",
          "type": "address"
        },
        {
          "indexed": false,
          "internalType": "uint256",
          "name": "fromDna",
          "type": "uint256"
        },
        {
          "indexed": false,
          "internalType": "uint256",
          "name": "targetDna",
          "type": "uint256"
        },
        {
          "indexed": false,
          "internalType": "uint256",
          "name": "_kittyId",
          "type": "uint256"
        },
        {
          "indexed": false,
          "internalType": "uint256",
          "name": "newDna",
          "type": "uint256"
        }
      ],
      "name": "onFeed",
      "type": "event"
    },
    {
      "inputs": [
        {
          "internalType": "address",
          "name": "_approved",
          "type": "address"
        },
        {
          "internalType": "uint256",
          "name": "_tokenId",
          "type": "uint256"
        }
      ],
      "name": "approve",
      "outputs": [],
      "stateMutability": "payable",
      "type": "function"
    },
    {
      "inputs": [
        {
          "internalType": "uint256",
          "name": "_zombieId",
          "type": "uint256"
        },
        {
          "internalType": "uint256",
          "name": "_targetId",
          "type": "uint256"
        }
      ],
      "name": "attack",
      "outputs": [],
      "stateMutability": "nonpayable",
      "type": "function"
    },
    {
      "inputs": [
        {
          "internalType": "address",
          "name": "_owner",
          "type": "address"
        }
      ],
      "name": "balanceOf",
      "outputs": [
        {
          "internalType": "uint256",
          "name": "",
          "type": "uint256"
        }
      ],
      "stateMutability": "view",
      "type": "function"
    },
    {
      "inputs": [
        {
          "internalType": "uint256",
          "name": "zombieId",
          "type": "uint256"
        }
      ],
      "name": "buyShopZombie",
      "outputs": [],
      "stateMutability": "payable",
      "type": "function"
    },
    {
      "inputs": [
        {
          "internalType": "uint256",
          "name": "_zombieId",
          "type": "uint256"
        },
        {
          "internalType": "uint256",
          "name": "_newDna",
          "type": "uint256"
        }
      ],
      "name": "changeDna",
      "outputs": [],
      "stateMutability": "payable",
      "type": "function"
    },
    {
      "inputs": [
        {
          "internalType": "uint256",
          "name": "_zombieId",
          "type": "uint256"
        },
        {
          "internalType": "string",
          "name": "_newName",
          "type": "string"
        }
      ],
      "name": "changeName",
      "outputs": [],
      "stateMutability": "payable",
      "type": "function"
    },
    {
      "inputs": [
        {
          "internalType": "string",
          "name": "_name",
          "type": "string"
        }
      ],
      "name": "createRandomZombie",
      "outputs": [],
      "stateMutability": "nonpayable",
      "type": "function"
    },
    {
      "inputs": [
        {
          "internalType": "uint256",
          "name": "_zombieId",
          "type": "uint256"
        },
        {
          "internalType": "uint256",
          "name": "_kittyDna",
          "type": "uint256"
        },
        {
          "internalType": "uint256",
          "name": "_kittyId",
          "type": "uint256"
        }
      ],
      "name": "feedOnKitty",
      "outputs": [],
      "stateMutability": "nonpayable",
      "type": "function"
    },
    {
      "inputs": [],
      "name": "getAccounts",
      "outputs": [
        {
          "internalType": "address[]",
          "name": "",
          "type": "address[]"
        }
      ],
      "stateMutability": "view",
      "type": "function"
    },
    {
      "inputs": [
        {
          "internalType": "address",
          "name": "_owner",
          "type": "address"
        }
      ],
      "name": "getZombiesByOwner",
      "outputs": [
        {
          "internalType": "uint256[]",
          "name": "",
          "type": "uint256[]"
        }
      ],
      "stateMutability": "view",
      "type": "function"
    },
    {
      "inputs": [
        {
          "internalType": "address",
          "name": "_owner",
          "type": "address"
        },
        {
          "internalType": "uint256",
          "name": "_limit",
          "type": "uint256"
        }
      ],
      "name": "getZombiesOtherOwner",
      "outputs": [
        {
          "internalType": "uint256[]",
          "name": "",
          "type": "uint256[]"
        }
      ],
      "stateMutability": "view",
      "type": "function"
    },
    {
      "inputs": [],
      "name": "isOwner",
      "outputs": [
        {
          "internalType": "bool",
          "name": "",
          "type": "bool"
        }
      ],
      "stateMutability": "view",
      "type": "function"
    },
    {
      "inputs": [
        {
          "internalType": "uint256",
          "name": "_zombieId",
          "type": "uint256"
        }
      ],
      "name": "levelUp",
      "outputs": [],
      "stateMutability": "payable",
      "type": "function"
    },
    {
      "inputs": [],
      "name": "minPrice",
      "outputs": [
        {
          "internalType": "uint256",
          "name": "",
          "type": "uint256"
        }
      ],
      "stateMutability": "view",
      "type": "function"
    },
    {
      "inputs": [],
      "name": "owner",
      "outputs": [
        {
          "internalType": "address",
          "name": "",
          "type": "address"
        }
      ],
      "stateMutability": "view",
      "type": "function"
    },
    {
      "inputs": [
        {
          "internalType": "uint256",
          "name": "_tokenId",
          "type": "uint256"
        }
      ],
      "name": "ownerOf",
      "outputs": [
        {
          "internalType": "address",
          "name": "",
          "type": "address"
        }
      ],
      "stateMutability": "view",
      "type": "function"
    },
    {
      "inputs": [],
      "name": "renounceOwnership",
      "outputs": [],
      "stateMutability": "nonpayable",
      "type": "function"
    },
    {
      "inputs": [
        {
          "internalType": "uint256",
          "name": "zombieId",
          "type": "uint256"
        },
        {
          "internalType": "uint256",
          "name": "price",
          "type": "uint256"
        }
      ],
      "name": "saleMyZombie",
      "outputs": [],
      "stateMutability": "nonpayable",
      "type": "function"
    },
    {
      "inputs": [
        {
          "internalType": "uint256",
          "name": "_fee",
          "type": "uint256"
        }
      ],
      "name": "setChangeDNAFee",
      "outputs": [],
      "stateMutability": "nonpayable",
      "type": "function"
    },
    {
      "inputs": [
        {
          "internalType": "uint256",
          "name": "_fee",
          "type": "uint256"
        }
      ],
      "name": "setChangeNameFee",
      "outputs": [],
      "stateMutability": "nonpayable",
      "type": "function"
    },
    {
      "inputs": [
        {
          "internalType": "address",
          "name": "_address",
          "type": "address"
        }
      ],
      "name": "setKittyContractAddress",
      "outputs": [],
      "stateMutability": "nonpayable",
      "type": "function"
    },
    {
      "inputs": [
        {
          "internalType": "uint256",
          "name": "_fee",
          "type": "uint256"
        }
      ],
      "name": "setLevelUpFee",
      "outputs": [],
      "stateMutability": "nonpayable",
      "type": "function"
    },
    {
      "inputs": [
        {
          "internalType": "uint256",
          "name": "value",
          "type": "uint256"
        }
      ],
      "name": "setMinPrice",
      "outputs": [],
      "stateMutability": "nonpayable",
      "type": "function"
    },
    {
      "inputs": [
        {
          "internalType": "uint256",
          "name": "value",
          "type": "uint256"
        }
      ],
      "name": "setTax",
      "outputs": [],
      "stateMutability": "nonpayable",
      "type": "function"
    },
    {
      "inputs": [],
      "name": "tax",
      "outputs": [
        {
          "internalType": "uint256",
          "name": "",
          "type": "uint256"
        }
      ],
      "stateMutability": "view",
      "type": "function"
    },
    {
      "inputs": [
        {
          "internalType": "uint256",
          "name": "_tokenId",
          "type": "uint256"
        }
      ],
      "name": "tokenURI",
      "outputs": [
        {
          "internalType": "string",
          "name": "",
          "type": "string"
        }
      ],
      "stateMutability": "view",
      "type": "function"
    },
    {
      "inputs": [
        {
          "internalType": "address",
          "name": "_from",
          "type": "address"
        },
        {
          "internalType": "address",
          "name": "_to",
          "type": "address"
        },
        {
          "internalType": "uint256",
          "name": "_tokenId",
          "type": "uint256"
        }
      ],
      "name": "transferFrom",
      "outputs": [],
      "stateMutability": "payable",
      "type": "function"
    },
    {
      "inputs": [
        {
          "internalType": "address",
          "name": "newOwner",
          "type": "address"
        }
      ],
      "name": "transferOwnership",
      "outputs": [],
      "stateMutability": "nonpayable",
      "type": "function"
    },
    {
      "inputs": [],
      "name": "withdraw",
      "outputs": [],
      "stateMutability": "nonpayable",
      "type": "function"
    },
    {
      "inputs": [
        {
          "internalType": "uint256",
          "name": "",
          "type": "uint256"
        }
      ],
      "name": "zombieShop",
      "outputs": [
        {
          "internalType": "address payable",
          "name": "seller",
          "type": "address"
        },
        {
          "internalType": "uint256",
          "name": "price",
          "type": "uint256"
        }
      ],
      "stateMutability": "view",
      "type": "function"
    },
    {
      "inputs": [
        {
          "internalType": "uint256",
          "name": "",
          "type": "uint256"
        }
      ],
      "name": "zombieToOwner",
      "outputs": [
        {
          "internalType": "address",
          "name": "",
          "type": "address"
        }
      ],
      "stateMutability": "view",
      "type": "function"
    },
    {
      "inputs": [
        {
          "internalType": "uint256",
          "name": "",
          "type": "uint256"
        }
      ],
      "name": "zombies",
      "outputs": [
        {
          "internalType": "string",
          "name": "name",
          "type": "string"
        },
        {
          "internalType": "uint256",
          "name": "dna",
          "type": "uint256"
        },
        {
          "internalType": "uint32",
          "name": "level",
          "type": "uint32"
        },
        {
          "internalType": "uint32",
          "name": "readyTime",
          "type": "uint32"
        },
        {
          "internalType": "uint16",
          "name": "winCount",
          "type": "uint16"
        },
        {
          "internalType": "uint16",
          "name": "lossCount",
          "type": "uint16"
        }
      ],
      "stateMutability": "view",
      "type": "function"
    }
  ],
  "bytecode": "0x60806040526010600155600154600a6100189190610298565b600255603c60035566038d7ea4c6800060095566071afd498d0000600a55660e35fa931a0000600b556000600c556032600d55655af3107a4000600f55655af3107a400060105534801561006b57600080fd5b50336000806101000a81548173ffffffffffffffffffffffffffffffffffffffff021916908373ffffffffffffffffffffffffffffffffffffffff16021790555060008054906101000a900473ffffffffffffffffffffffffffffffffffffffff1673ffffffffffffffffffffffffffffffffffffffff16600073ffffffffffffffffffffffffffffffffffffffff167f8be0079c531659141344cd1fd0a4f28419497f9722a3daafe3b4186f6b6457e060405160405180910390a36102e3565b7f4e487b7100000000000000000000000000000000000000000000000000000000600052601160045260246000fd5b60008160011c9050919050565b6000808291508390505b60018511156101b25780860481111561018e5761018d61012c565b5b600185161561019d5780820291505b80810290506101ab8561015b565b9450610172565b94509492505050565b6000826101cb5760019050610287565b816101d95760009050610287565b81600181146101ef57600281146101f957610228565b6001915050610287565b60ff84111561020b5761020a61012c565b5b8360020a9150848211156102225761022161012c565b5b50610287565b5060208310610133831016604e8410600b841016171561025d5782820a9050838111156102585761025761012c565b5b610287565b61026a8484846001610168565b925090508184048111156102815761028061012c565b5b81810290505b9392505050565b6000819050919050565b60006102a38261028e565b91506102ae8361028e565b92506102db7fffffffffffffffffffffffffffffffffffffffffffffffffffffffffffffffff84846101bb565b905092915050565b61429b806102f26000396000f3fe6080604052600436106101e35760003560e01c806370a0823111610102578063ac94fec111610095578063ccf670f811610064578063ccf670f8146106a0578063e1fa7638146106c9578063e45be8eb146106f2578063f2fde38b1461071d576101e3565b8063ac94fec1146105e1578063b32c012d1461061e578063c39cbef114610647578063c87b56dd14610663576101e3565b80638a48ac03116100d15780638a48ac03146105355780638da5cb5b146105605780638f32d59b1461058b57806399c8d556146105b6576101e3565b806370a082311461048f57806370f47cf9146104cc578063715018a6146104f55780637bff0a011461050c576101e3565b80634412e1041161017a5780635f4623f1116101495780635f4623f1146103e45780635faf28801461040d5780636352211e146104295780636be17f0e14610466576101e3565b80634412e1041461030357806345c6ba3914610340578063528b7b8f1461037e5780635ea8cd12146103bb576101e3565b8063208c750e116101b6578063208c750e1461028b57806323b872dd146102a75780632e5bb6ff146102c35780633ccfd60b146102ec576101e3565b806306f33760146101e8578063095ea7b3146102115780630ce90ec21461022d5780632052465e14610249575b600080fd5b3480156101f457600080fd5b5061020f600480360381019061020a9190612c71565b610746565b005b61022b60048036038101906102269190612d22565b61080f565b005b61024760048036038101906102429190612d62565b61092d565b005b34801561025557600080fd5b50610270600480360381019061026b9190612d62565b610a94565b60405161028296959493929190612e6a565b60405180910390f35b6102a560048036038101906102a09190612d62565b610ba4565b005b6102c160048036038101906102bc9190612ed2565b610def565b005b3480156102cf57600080fd5b506102ea60048036038101906102e59190612d62565b610f09565b005b3480156102f857600080fd5b50610301610f24565b005b34801561030f57600080fd5b5061032a60048036038101906103259190612f25565b610f8b565b6040516103379190613010565b60405180910390f35b34801561034c57600080fd5b5061036760048036038101906103629190612d62565b6110d8565b604051610375929190613053565b60405180910390f35b34801561038a57600080fd5b506103a560048036038101906103a09190612d62565b61111c565b6040516103b2919061308b565b60405180910390f35b3480156103c757600080fd5b506103e260048036038101906103dd9190612d62565b61114f565b005b3480156103f057600080fd5b5061040b60048036038101906104069190612f25565b61116a565b005b610427600480360381019061042291906130a6565b6111bf565b005b34801561043557600080fd5b50610450600480360381019061044b9190612d62565b61137a565b60405161045d919061308b565b60405180910390f35b34801561047257600080fd5b5061048d60048036038101906104889190612d62565b6113b7565b005b34801561049b57600080fd5b506104b660048036038101906104b19190612f25565b6113d2565b6040516104c391906130e6565b60405180910390f35b3480156104d857600080fd5b506104f360048036038101906104ee9190612d62565b61141b565b005b34801561050157600080fd5b5061050a611436565b005b34801561051857600080fd5b50610533600480360381019061052e9190613236565b611505565b005b34801561054157600080fd5b5061054a611605565b604051610557919061333d565b60405180910390f35b34801561056c57600080fd5b5061057561170a565b604051610582919061308b565b60405180910390f35b34801561059757600080fd5b506105a0611733565b6040516105ad919061337a565b60405180910390f35b3480156105c257600080fd5b506105cb61178a565b6040516105d891906130e6565b60405180910390f35b3480156105ed57600080fd5b5061060860048036038101906106039190612d22565b611790565b6040516106159190613010565b60405180910390f35b34801561062a57600080fd5b50610645600480360381019061064091906130a6565b61194d565b005b610661600480360381019061065c91906133f5565b611ad0565b005b34801561066f57600080fd5b5061068a60048036038101906106859190612d62565b611c97565b6040516106979190613455565b60405180910390f35b3480156106ac57600080fd5b506106c760048036038101906106c29190612d62565b611d02565b005b3480156106d557600080fd5b506106f060048036038101906106eb91906130a6565b611d1d565b005b3480156106fe57600080fd5b50610707612062565b60405161071491906130e6565b60405180910390f35b34801561072957600080fd5b50610744600480360381019061073f9190612f25565b612068565b005b60006004848154811061075c5761075b613477565b5b9060005260206000209060030201905060006107ae85856040518060400160405280600581526020017f6b69747479000000000000000000000000000000000000000000000000000000815250612085565b90503373ffffffffffffffffffffffffffffffffffffffff167f94bd9f81959636fb1ddd32f8bcbdab8b649d20a6a464f759a1aa7f7cf4447fac836001015486868560405161080094939291906134a6565b60405180910390a25050505050565b806006600082815260200190815260200160002060009054906101000a900473ffffffffffffffffffffffffffffffffffffffff1673ffffffffffffffffffffffffffffffffffffffff163373ffffffffffffffffffffffffffffffffffffffff161461087b57600080fd5b82600e600084815260200190815260200160002060006101000a81548173ffffffffffffffffffffffffffffffffffffffff021916908373ffffffffffffffffffffffffffffffffffffffff160217905550818373ffffffffffffffffffffffffffffffffffffffff163373ffffffffffffffffffffffffffffffffffffffff167f8c5be1e5ebec7d5bd14f71427d1e84f3dd0314c0f7b2291e5b200ac8c7c3b92560405160405180910390a4505050565b6009548034101561093d8261225e565b60405160200161094d919061354d565b6040516020818303038152906040529061099d576040517f08c379a00000000000000000000000000000000000000000000000000000000081526004016109949190613455565b60405180910390fd5b50816006600082815260200190815260200160002060009054906101000a900473ffffffffffffffffffffffffffffffffffffffff1673ffffffffffffffffffffffffffffffffffffffff163373ffffffffffffffffffffffffffffffffffffffff1614610a0a57600080fd5b600160048481548110610a2057610a1f613477565b5b906000526020600020906003020160020160009054906101000a900463ffffffff16610a4c91906135a2565b60048481548110610a6057610a5f613477565b5b906000526020600020906003020160020160006101000a81548163ffffffff021916908363ffffffff160217905550505050565b60048181548110610aa457600080fd5b9060005260206000209060030201600091509050806000018054610ac790613609565b80601f0160208091040260200160405190810160405280929190818152602001828054610af390613609565b8015610b405780601f10610b1557610100808354040283529160200191610b40565b820191906000526020600020905b815481529060010190602001808311610b2357829003601f168201915b5050505050908060010154908060020160009054906101000a900463ffffffff16908060020160049054906101000a900463ffffffff16908060020160089054906101000a900461ffff169080600201600a9054906101000a900461ffff16905086565b6000601160008381526020019081526020016000206040518060400160405290816000820160009054906101000a900473ffffffffffffffffffffffffffffffffffffffff1673ffffffffffffffffffffffffffffffffffffffff1673ffffffffffffffffffffffffffffffffffffffff1681526020016001820154815250509050806000015173ffffffffffffffffffffffffffffffffffffffff16600073ffffffffffffffffffffffffffffffffffffffff1603610c99576040517f08c379a0000000000000000000000000000000000000000000000000000000008152600401610c9090613686565b60405180910390fd5b8060200151341015610ce0576040517f08c379a0000000000000000000000000000000000000000000000000000000008152600401610cd7906136f2565b60405180910390fd5b610cef8160000151338461232c565b806000015173ffffffffffffffffffffffffffffffffffffffff166108fc600f5434610d1b9190613712565b9081150290604051600060405180830381858888f19350505050158015610d46573d6000803e3d6000fd5b5060116000838152602001908152602001600020600080820160006101000a81549073ffffffffffffffffffffffffffffffffffffffff021916905560018201600090555050806000015173ffffffffffffffffffffffffffffffffffffffff163373ffffffffffffffffffffffffffffffffffffffff16837f2705da8f1145dc87c9e6b9aa3ecd69d3d64da132acba45c803563ad52f5c2b5f60405160405180910390a45050565b3373ffffffffffffffffffffffffffffffffffffffff166006600083815260200190815260200160002060009054906101000a900473ffffffffffffffffffffffffffffffffffffffff1673ffffffffffffffffffffffffffffffffffffffff161480610eba57503373ffffffffffffffffffffffffffffffffffffffff16600e600083815260200190815260200160002060009054906101000a900473ffffffffffffffffffffffffffffffffffffffff1673ffffffffffffffffffffffffffffffffffffffff16145b610ef9576040517f08c379a0000000000000000000000000000000000000000000000000000000008152600401610ef090613792565b60405180910390fd5b610f0483838361232c565b505050565b610f11611733565b610f1a57600080fd5b80600f8190555050565b610f2c611733565b610f3557600080fd5b6000610f3f61170a565b90508073ffffffffffffffffffffffffffffffffffffffff166108fc479081150290604051600060405180830381858888f19350505050158015610f87573d6000803e3d6000fd5b5050565b60606000600760008473ffffffffffffffffffffffffffffffffffffffff1673ffffffffffffffffffffffffffffffffffffffff1681526020019081526020016000205467ffffffffffffffff811115610fe857610fe761310b565b5b6040519080825280602002602001820160405280156110165781602001602082028036833780820191505090505b5090506000805b6004805490508110156110cd578473ffffffffffffffffffffffffffffffffffffffff166006600083815260200190815260200160002060009054906101000a900473ffffffffffffffffffffffffffffffffffffffff1673ffffffffffffffffffffffffffffffffffffffff16036110c057808383815181106110a4576110a3613477565b5b6020026020010181815250506001826110bd91906137b2565b91505b808060010191505061101d565b508192505050919050565b60116020528060005260406000206000915090508060000160009054906101000a900473ffffffffffffffffffffffffffffffffffffffff16908060010154905082565b60066020528060005260406000206000915054906101000a900473ffffffffffffffffffffffffffffffffffffffff1681565b611157611733565b61116057600080fd5b8060108190555050565b611172611733565b61117b57600080fd5b80600860006101000a81548173ffffffffffffffffffffffffffffffffffffffff021916908373ffffffffffffffffffffffffffffffffffffffff16021790555050565b600b54803410156111cf8261225e565b6040516020016111df919061354d565b6040516020818303038152906040529061122f576040517f08c379a00000000000000000000000000000000000000000000000000000000081526004016112269190613455565b60405180910390fd5b50601483816004828154811061124857611247613477565b5b906000526020600020906003020160020160009054906101000a900463ffffffff1663ffffffff16101561127b8361225e565b60405160200161128b919061380c565b604051602081830303815290604052906112db576040517f08c379a00000000000000000000000000000000000000000000000000000000081526004016112d29190613455565b60405180910390fd5b50846006600082815260200190815260200160002060009054906101000a900473ffffffffffffffffffffffffffffffffffffffff1673ffffffffffffffffffffffffffffffffffffffff163373ffffffffffffffffffffffffffffffffffffffff161461134857600080fd5b846004878154811061135d5761135c613477565b5b906000526020600020906003020160010181905550505050505050565b60006006600083815260200190815260200160002060009054906101000a900473ffffffffffffffffffffffffffffffffffffffff169050919050565b6113bf611733565b6113c857600080fd5b80600a8190555050565b6000600760008373ffffffffffffffffffffffffffffffffffffffff1673ffffffffffffffffffffffffffffffffffffffff168152602001908152602001600020549050919050565b611423611733565b61142c57600080fd5b80600b8190555050565b61143e611733565b61144757600080fd5b600073ffffffffffffffffffffffffffffffffffffffff1660008054906101000a900473ffffffffffffffffffffffffffffffffffffffff1673ffffffffffffffffffffffffffffffffffffffff167f8be0079c531659141344cd1fd0a4f28419497f9722a3daafe3b4186f6b6457e060405160405180910390a360008060006101000a81548173ffffffffffffffffffffffffffffffffffffffff021916908373ffffffffffffffffffffffffffffffffffffffff160217905550565b6000600760003373ffffffffffffffffffffffffffffffffffffffff1673ffffffffffffffffffffffffffffffffffffffff1681526020019081526020016000205414611587576040517f08c379a000000000000000000000000000000000000000000000000000000000815260040161157e906138a4565b60405180910390fd5b6000611592826124fc565b905061159e8282612541565b6005339080600181540180825580915050600190039060005260206000200160009091909190916101000a81548173ffffffffffffffffffffffffffffffffffffffff021916908373ffffffffffffffffffffffffffffffffffffffff1602179055505050565b6060600060058054905067ffffffffffffffff8111156116285761162761310b565b5b6040519080825280602002602001820160405280156116565781602001602082028036833780820191505090505b50905060005b600580549050811015611702576005818154811061167d5761167c613477565b5b9060005260206000200160009054906101000a900473ffffffffffffffffffffffffffffffffffffffff168282815181106116bb576116ba613477565b5b602002602001019073ffffffffffffffffffffffffffffffffffffffff16908173ffffffffffffffffffffffffffffffffffffffff1681525050808060010191505061165c565b508091505090565b60008060009054906101000a900473ffffffffffffffffffffffffffffffffffffffff16905090565b60008060009054906101000a900473ffffffffffffffffffffffffffffffffffffffff1673ffffffffffffffffffffffffffffffffffffffff163373ffffffffffffffffffffffffffffffffffffffff1614905090565b600f5481565b60606000600760008573ffffffffffffffffffffffffffffffffffffffff1673ffffffffffffffffffffffffffffffffffffffff168152602001908152602001600020546004805490506117e49190613712565b905060008184116117f557836117f7565b815b90506103e881111561183e576040517f08c379a000000000000000000000000000000000000000000000000000000000815260040161183590613910565b60405180910390fd5b60008167ffffffffffffffff81111561185a5761185961310b565b5b6040519080825280602002602001820160405280156118885781602001602082028036833780820191505090505b5090506000805b8382101561193f578773ffffffffffffffffffffffffffffffffffffffff166006600083815260200190815260200160002060009054906101000a900473ffffffffffffffffffffffffffffffffffffffff1673ffffffffffffffffffffffffffffffffffffffff161461192c578083838151811061191157611910613477565b5b602002602001018181525050818061192890613930565b9250505b808061193790613930565b91505061188f565b508194505050505092915050565b816006600082815260200190815260200160002060009054906101000a900473ffffffffffffffffffffffffffffffffffffffff1673ffffffffffffffffffffffffffffffffffffffff163373ffffffffffffffffffffffffffffffffffffffff16146119b957600080fd5b601054600f546119c991906137b2565b821015611a0b576040517f08c379a0000000000000000000000000000000000000000000000000000000008152600401611a02906136f2565b60405180910390fd5b60405180604001604052803373ffffffffffffffffffffffffffffffffffffffff168152602001838152506011600085815260200190815260200160002060008201518160000160006101000a81548173ffffffffffffffffffffffffffffffffffffffff021916908373ffffffffffffffffffffffffffffffffffffffff1602179055506020820151816001015590505081837fb03c845c6c9ef1ff8db2c6381cd7ecf8c5623e02bb20e85545f3d04288302e5860405160405180910390a3505050565b600a5480341015611ae08261225e565b604051602001611af0919061354d565b60405160208183030381529060405290611b40576040517f08c379a0000000000000000000000000000000000000000000000000000000008152600401611b379190613455565b60405180910390fd5b506002848160048281548110611b5957611b58613477565b5b906000526020600020906003020160020160009054906101000a900463ffffffff1663ffffffff161015611b8c8361225e565b604051602001611b9c919061380c565b60405160208183030381529060405290611bec576040517f08c379a0000000000000000000000000000000000000000000000000000000008152600401611be39190613455565b60405180910390fd5b50856006600082815260200190815260200160002060009054906101000a900473ffffffffffffffffffffffffffffffffffffffff1673ffffffffffffffffffffffffffffffffffffffff163373ffffffffffffffffffffffffffffffffffffffff1614611c5957600080fd5b858560048981548110611c6f57611c6e613477565b5b90600052602060002090600302016000019182611c8d929190613b2f565b5050505050505050565b6060600060048381548110611caf57611cae613477565b5b90600052602060002090600302019050611cc88361225e565b81600001611cd9836001015461225e565b604051602001611ceb93929190613d1a565b604051602081830303815290604052915050919050565b611d0a611733565b611d1357600080fd5b8060098190555050565b816006600082815260200190815260200160002060009054906101000a900473ffffffffffffffffffffffffffffffffffffffff1673ffffffffffffffffffffffffffffffffffffffff163373ffffffffffffffffffffffffffffffffffffffff1614611d8957600080fd5b600060048481548110611d9f57611d9e613477565b5b90600052602060002090600302019050600060048481548110611dc557611dc4613477565b5b906000526020600020906003020190506000611de183836127c1565b905060006064423389604051602001611dfc93929190613ddd565b6040516020818303038152906040528051906020012060001c611e1f9190613e49565b9050818111611f855760018460020160089054906101000a900461ffff16611e479190613e7a565b8460020160086101000a81548161ffff021916908361ffff16021790555060018460020160009054906101000a900463ffffffff16611e8691906135a2565b8460020160006101000a81548163ffffffff021916908363ffffffff160217905550600183600201600a9054906101000a900461ffff16611ec79190613e7a565b83600201600a6101000a81548161ffff021916908361ffff1602179055506000611f2b8885600101546040518060400160405280600681526020017f7a6f6d6269650000000000000000000000000000000000000000000000000000815250612085565b90503373ffffffffffffffffffffffffffffffffffffffff167f750a7c18ca7f7bd87c6e50678ea7fa4f64d0cb733bb68cdac552d009737b4716898984604051611f7793929190613eb0565b60405180910390a250612059565b600184600201600a9054906101000a900461ffff16611fa49190613e7a565b84600201600a6101000a81548161ffff021916908361ffff16021790555060018360020160089054906101000a900461ffff16611fe19190613e7a565b8360020160086101000a81548161ffff021916908361ffff160217905550612008846128fd565b3373ffffffffffffffffffffffffffffffffffffffff167f4fa78061bb2783669831d2e2aa9ca18cb698e098923982bfada46ceaf1516d6a8888604051612050929190613ee7565b60405180910390a25b50505050505050565b60105481565b612070611733565b61207957600080fd5b61208281612930565b50565b6000836006600082815260200190815260200160002060009054906101000a900473ffffffffffffffffffffffffffffffffffffffff1673ffffffffffffffffffffffffffffffffffffffff163373ffffffffffffffffffffffffffffffffffffffff16146120f357600080fd5b60006004868154811061210957612108613477565b5b9060005260206000209060030201905061212281612a26565b612161576040517f08c379a000000000000000000000000000000000000000000000000000000000815260040161215890613f5c565b60405180910390fd5b6002548561216f9190613e49565b94506000600286836001015461218591906137b2565b61218f9190613f7c565b90506040516020016121a090613ff9565b60405160208183030381529060405280519060200120856040516020016121c7919061400e565b60405160208183030381529060405280519060200120036122095760636064826121f19190613e49565b826121fc9190613712565b61220691906137b2565b90505b6122486040518060400160405280600681526020017f4e6f4e616d65000000000000000000000000000000000000000000000000000081525082612541565b612251826128fd565b8093505050509392505050565b60606000600161226d84612a4d565b01905060008167ffffffffffffffff81111561228c5761228b61310b565b5b6040519080825280601f01601f1916602001820160405280156122be5781602001600182028036833780820191505090505b509050600082602001820190505b600115612321578080600190039150507f3031323334353637383961626364656600000000000000000000000000000000600a86061a8153600a858161231557612314613e1a565b5b049450600085036122cc575b819350505050919050565b6001600760008473ffffffffffffffffffffffffffffffffffffffff1673ffffffffffffffffffffffffffffffffffffffff1681526020019081526020016000205461237891906137b2565b600760008473ffffffffffffffffffffffffffffffffffffffff1673ffffffffffffffffffffffffffffffffffffffff168152602001908152602001600020819055506001600760008573ffffffffffffffffffffffffffffffffffffffff1673ffffffffffffffffffffffffffffffffffffffff168152602001908152602001600020546124079190613712565b600760008573ffffffffffffffffffffffffffffffffffffffff1673ffffffffffffffffffffffffffffffffffffffff16815260200190815260200160002081905550816006600083815260200190815260200160002060006101000a81548173ffffffffffffffffffffffffffffffffffffffff021916908373ffffffffffffffffffffffffffffffffffffffff160217905550808273ffffffffffffffffffffffffffffffffffffffff168473ffffffffffffffffffffffffffffffffffffffff167fddf252ad1be2c89b69c2b068fc378daa952ba7f163c4a11628f55a4df523b3ef60405160405180910390a4505050565b60008082604051602001612510919061400e565b6040516020818303038152906040528051906020012060001c9050600254816125399190613e49565b915050919050565b60046040518060c00160405280848152602001838152602001600163ffffffff1681526020016003544261257591906137b2565b63ffffffff168152602001600061ffff168152602001600061ffff16815250908060018154018082558091505060019003906000526020600020906003020160009091909190915060008201518160000190816125d29190614025565b506020820151816001015560408201518160020160006101000a81548163ffffffff021916908363ffffffff16021790555060608201518160020160046101000a81548163ffffffff021916908363ffffffff16021790555060808201518160020160086101000a81548161ffff021916908361ffff16021790555060a082015181600201600a6101000a81548161ffff021916908361ffff1602179055505050600060016004805490506126879190613712565b9050336006600083815260200190815260200160002060006101000a81548173ffffffffffffffffffffffffffffffffffffffff021916908373ffffffffffffffffffffffffffffffffffffffff1602179055506001600760003373ffffffffffffffffffffffffffffffffffffffff1673ffffffffffffffffffffffffffffffffffffffff1681526020019081526020016000205461272791906137b2565b600760003373ffffffffffffffffffffffffffffffffffffffff1673ffffffffffffffffffffffffffffffffffffffff168152602001908152602001600020819055503373ffffffffffffffffffffffffffffffffffffffff167ff92b1ba4cb9ae7683c3a3a1e58273b24013547531f590e32910f3105e8349e1f8285856040516127b4939291906140f7565b60405180910390a2505050565b600080600d54905060008360020160009054906101000a900463ffffffff168560020160009054906101000a900463ffffffff166127ff9190614142565b905060008160030b13156128325760028161281a919061419e565b63ffffffff168261282b91906137b2565b9150612869565b60008160030b12156128685760028161284a906141db565b612854919061419e565b63ffffffff16826128659190613712565b91505b5b6000806128798760010154612ba0565b5091509150600061288d8760010154612ba0565b925050506000600a82846002876128a49190614223565b6128ae91906137b2565b6128b89190613712565b6128c29190613f7c565b905080866128d091906137b2565b9550605a8611156128e057605a95505b601e8610156128ee57601e95505b85965050505050505092915050565b6003544261290b91906137b2565b8160020160046101000a81548163ffffffff021916908363ffffffff16021790555050565b600073ffffffffffffffffffffffffffffffffffffffff168173ffffffffffffffffffffffffffffffffffffffff160361296957600080fd5b8073ffffffffffffffffffffffffffffffffffffffff1660008054906101000a900473ffffffffffffffffffffffffffffffffffffffff1673ffffffffffffffffffffffffffffffffffffffff167f8be0079c531659141344cd1fd0a4f28419497f9722a3daafe3b4186f6b6457e060405160405180910390a3806000806101000a81548173ffffffffffffffffffffffffffffffffffffffff021916908373ffffffffffffffffffffffffffffffffffffffff16021790555050565b6000428260020160049054906101000a900463ffffffff1663ffffffff1611159050919050565b600080600090507a184f03e93ff9f4daa797ed6e38ed64bf6a1f0100000000000000008310612aab577a184f03e93ff9f4daa797ed6e38ed64bf6a1f0100000000000000008381612aa157612aa0613e1a565b5b0492506040810190505b6d04ee2d6d415b85acef81000000008310612ae8576d04ee2d6d415b85acef81000000008381612ade57612add613e1a565b5b0492506020810190505b662386f26fc100008310612b1757662386f26fc100008381612b0d57612b0c613e1a565b5b0492506010810190505b6305f5e1008310612b40576305f5e1008381612b3657612b35613e1a565b5b0492506008810190505b6127108310612b65576127108381612b5b57612b5a613e1a565b5b0492506004810190505b60648310612b885760648381612b7e57612b7d613e1a565b5b0492506002810190505b600a8310612b97576001810190505b80915050919050565b600080600080603285612bb39190613e49565b6032612bbf91906137b2565b905060006032606487612bd29190613f7c565b612bdc9190613e49565b6032612be891906137b2565b90506000603261271088612bfc9190613f7c565b612c069190613e49565b6032612c1291906137b2565b90508282829550955095505050509193909250565b6000604051905090565b600080fd5b600080fd5b6000819050919050565b612c4e81612c3b565b8114612c5957600080fd5b50565b600081359050612c6b81612c45565b92915050565b600080600060608486031215612c8a57612c89612c31565b5b6000612c9886828701612c5c565b9350506020612ca986828701612c5c565b9250506040612cba86828701612c5c565b9150509250925092565b600073ffffffffffffffffffffffffffffffffffffffff82169050919050565b6000612cef82612cc4565b9050919050565b612cff81612ce4565b8114612d0a57600080fd5b50565b600081359050612d1c81612cf6565b92915050565b60008060408385031215612d3957612d38612c31565b5b6000612d4785828601612d0d565b9250506020612d5885828601612c5c565b9150509250929050565b600060208284031215612d7857612d77612c31565b5b6000612d8684828501612c5c565b91505092915050565b600081519050919050565b600082825260208201905092915050565b60005b83811015612dc9578082015181840152602081019050612dae565b60008484015250505050565b6000601f19601f8301169050919050565b6000612df182612d8f565b612dfb8185612d9a565b9350612e0b818560208601612dab565b612e1481612dd5565b840191505092915050565b612e2881612c3b565b82525050565b600063ffffffff82169050919050565b612e4781612e2e565b82525050565b600061ffff82169050919050565b612e6481612e4d565b82525050565b600060c0820190508181036000830152612e848189612de6565b9050612e936020830188612e1f565b612ea06040830187612e3e565b612ead6060830186612e3e565b612eba6080830185612e5b565b612ec760a0830184612e5b565b979650505050505050565b600080600060608486031215612eeb57612eea612c31565b5b6000612ef986828701612d0d565b9350506020612f0a86828701612d0d565b9250506040612f1b86828701612c5c565b9150509250925092565b600060208284031215612f3b57612f3a612c31565b5b6000612f4984828501612d0d565b91505092915050565b600081519050919050565b600082825260208201905092915050565b6000819050602082019050919050565b612f8781612c3b565b82525050565b6000612f998383612f7e565b60208301905092915050565b6000602082019050919050565b6000612fbd82612f52565b612fc78185612f5d565b9350612fd283612f6e565b8060005b83811015613003578151612fea8882612f8d565b9750612ff583612fa5565b925050600181019050612fd6565b5085935050505092915050565b6000602082019050818103600083015261302a8184612fb2565b905092915050565b600061303d82612cc4565b9050919050565b61304d81613032565b82525050565b60006040820190506130686000830185613044565b6130756020830184612e1f565b9392505050565b61308581612ce4565b82525050565b60006020820190506130a0600083018461307c565b92915050565b600080604083850312156130bd576130bc612c31565b5b60006130cb85828601612c5c565b92505060206130dc85828601612c5c565b9150509250929050565b60006020820190506130fb6000830184612e1f565b92915050565b600080fd5b600080fd5b7f4e487b7100000000000000000000000000000000000000000000000000000000600052604160045260246000fd5b61314382612dd5565b810181811067ffffffffffffffff821117156131625761316161310b565b5b80604052505050565b6000613175612c27565b9050613181828261313a565b919050565b600067ffffffffffffffff8211156131a1576131a061310b565b5b6131aa82612dd5565b9050602081019050919050565b82818337600083830152505050565b60006131d96131d484613186565b61316b565b9050828152602081018484840111156131f5576131f4613106565b5b6132008482856131b7565b509392505050565b600082601f83011261321d5761321c613101565b5b813561322d8482602086016131c6565b91505092915050565b60006020828403121561324c5761324b612c31565b5b600082013567ffffffffffffffff81111561326a57613269612c36565b5b61327684828501613208565b91505092915050565b600081519050919050565b600082825260208201905092915050565b6000819050602082019050919050565b6132b481612ce4565b82525050565b60006132c683836132ab565b60208301905092915050565b6000602082019050919050565b60006132ea8261327f565b6132f4818561328a565b93506132ff8361329b565b8060005b8381101561333057815161331788826132ba565b9750613322836132d2565b925050600181019050613303565b5085935050505092915050565b6000602082019050818103600083015261335781846132df565b905092915050565b60008115159050919050565b6133748161335f565b82525050565b600060208201905061338f600083018461336b565b92915050565b600080fd5b600080fd5b60008083601f8401126133b5576133b4613101565b5b8235905067ffffffffffffffff8111156133d2576133d1613395565b5b6020830191508360018202830111156133ee576133ed61339a565b5b9250929050565b60008060006040848603121561340e5761340d612c31565b5b600061341c86828701612c5c565b935050602084013567ffffffffffffffff81111561343d5761343c612c36565b5b6134498682870161339f565b92509250509250925092565b6000602082019050818103600083015261346f8184612de6565b905092915050565b7f4e487b7100000000000000000000000000000000000000000000000000000000600052603260045260246000fd5b60006080820190506134bb6000830187612e1f565b6134c86020830186612e1f565b6134d56040830185612e1f565b6134e26060830184612e1f565b95945050505050565b7f5072696365206d696e696d756d20697320000000000000000000000000000000815250565b600081905092915050565b600061352782612d8f565b6135318185613511565b9350613541818560208601612dab565b80840191505092915050565b6000613558826134eb565b601182019150613568828461351c565b915081905092915050565b7f4e487b7100000000000000000000000000000000000000000000000000000000600052601160045260246000fd5b60006135ad82612e2e565b91506135b883612e2e565b9250828201905063ffffffff8111156135d4576135d3613573565b5b92915050565b7f4e487b7100000000000000000000000000000000000000000000000000000000600052602260045260246000fd5b6000600282049050600182168061362157607f821691505b602082108103613634576136336135da565b5b50919050565b7f5a6f6d62696520617265206e6f74206f6e2073616c652e000000000000000000600082015250565b6000613670601783612d9a565b915061367b8261363a565b602082019050919050565b6000602082019050818103600083015261369f81613663565b9050919050565b7f596f757220707269636520697320746f6f206c6f770000000000000000000000600082015250565b60006136dc601583612d9a565b91506136e7826136a6565b602082019050919050565b6000602082019050818103600083015261370b816136cf565b9050919050565b600061371d82612c3b565b915061372883612c3b565b92508282039050818111156137405761373f613573565b5b92915050565b7f596f7520617265206e6f74206f776e6572206f7220617070726f7665642e0000600082015250565b600061377c601e83612d9a565b915061378782613746565b602082019050919050565b600060208201905081810360008301526137ab8161376f565b9050919050565b60006137bd82612c3b565b91506137c883612c3b565b92508282019050808211156137e0576137df613573565b5b92915050565b7f4c6576656c206d696e696d756d20697320000000000000000000000000000000815250565b6000613817826137e6565b601182019150613827828461351c565b915081905092915050565b7f596f752063616e206f6e6c7920637265617465206f6e65207a6f6d626965207060008201527f6572206163636f756e7400000000000000000000000000000000000000000000602082015250565b600061388e602a83612d9a565b915061389982613832565b604082019050919050565b600060208201905081810360008301526138bd81613881565b9050919050565b7f4c696d6974206973203130303000000000000000000000000000000000000000600082015250565b60006138fa600d83612d9a565b9150613905826138c4565b602082019050919050565b60006020820190508181036000830152613929816138ed565b9050919050565b600061393b82612c3b565b91507fffffffffffffffffffffffffffffffffffffffffffffffffffffffffffffffff820361396d5761396c613573565b5b600182019050919050565b600082905092915050565b60008190508160005260206000209050919050565b60006020601f8301049050919050565b600082821b905092915050565b6000600883026139e57fffffffffffffffffffffffffffffffffffffffffffffffffffffffffffffffff826139a8565b6139ef86836139a8565b95508019841693508086168417925050509392505050565b6000819050919050565b6000613a2c613a27613a2284612c3b565b613a07565b612c3b565b9050919050565b6000819050919050565b613a4683613a11565b613a5a613a5282613a33565b8484546139b5565b825550505050565b600090565b613a6f613a62565b613a7a818484613a3d565b505050565b5b81811015613a9e57613a93600082613a67565b600181019050613a80565b5050565b601f821115613ae357613ab481613983565b613abd84613998565b81016020851015613acc578190505b613ae0613ad885613998565b830182613a7f565b50505b505050565b600082821c905092915050565b6000613b0660001984600802613ae8565b1980831691505092915050565b6000613b1f8383613af5565b9150826002028217905092915050565b613b398383613978565b67ffffffffffffffff811115613b5257613b5161310b565b5b613b5c8254613609565b613b67828285613aa2565b6000601f831160018114613b965760008415613b84578287013590505b613b8e8582613b13565b865550613bf6565b601f198416613ba486613983565b60005b82811015613bcc57848901358255600182019150602085019450602081019050613ba7565b86831015613be95784890135613be5601f891682613af5565b8355505b6001600288020188555050505b50505050505050565b7f687474703a2f2f6c6f63616c686f73743a333333332f7a6f6d6269652f75726960008201527f2f00000000000000000000000000000000000000000000000000000000000000602082015250565b6000613c5b602183613511565b9150613c6682613bff565b602182019050919050565b7f2f00000000000000000000000000000000000000000000000000000000000000815250565b60008154613ca481613609565b613cae8186613511565b94506001821660008114613cc95760018114613cde57613d11565b60ff1983168652811515820286019350613d11565b613ce785613983565b60005b83811015613d0957815481890152600182019150602081019050613cea565b838801955050505b50505092915050565b6000613d2582613c4e565b9150613d31828661351c565b9150613d3c82613c71565b600182019150613d4c8285613c97565b9150613d5782613c71565b600182019150613d67828461351c565b9150819050949350505050565b6000819050919050565b613d8f613d8a82612c3b565b613d74565b82525050565b60008160601b9050919050565b6000613dad82613d95565b9050919050565b6000613dbf82613da2565b9050919050565b613dd7613dd282612ce4565b613db4565b82525050565b6000613de98286613d7e565b602082019150613df98285613dc6565b601482019150613e098284613d7e565b602082019150819050949350505050565b7f4e487b7100000000000000000000000000000000000000000000000000000000600052601260045260246000fd5b6000613e5482612c3b565b9150613e5f83612c3b565b925082613e6f57613e6e613e1a565b5b828206905092915050565b6000613e8582612e4d565b9150613e9083612e4d565b9250828201905061ffff811115613eaa57613ea9613573565b5b92915050565b6000606082019050613ec56000830186612e1f565b613ed26020830185612e1f565b613edf6040830184612e1f565b949350505050565b6000604082019050613efc6000830185612e1f565b613f096020830184612e1f565b9392505050565b7f5a6f6d626965206973206e6f7420726561647920746f20666565640000000000600082015250565b6000613f46601b83612d9a565b9150613f5182613f10565b602082019050919050565b60006020820190508181036000830152613f7581613f39565b9050919050565b6000613f8782612c3b565b9150613f9283612c3b565b925082613fa257613fa1613e1a565b5b828204905092915050565b7f6b69747479000000000000000000000000000000000000000000000000000000600082015250565b6000613fe3600583613511565b9150613fee82613fad565b600582019050919050565b600061400482613fd6565b9150819050919050565b600061401a828461351c565b915081905092915050565b61402e82612d8f565b67ffffffffffffffff8111156140475761404661310b565b5b6140518254613609565b61405c828285613aa2565b600060209050601f83116001811461408f576000841561407d578287015190505b6140878582613b13565b8655506140ef565b601f19841661409d86613983565b60005b828110156140c5578489015182556001820191506020850194506020810190506140a0565b868310156140e257848901516140de601f891682613af5565b8355505b6001600288020188555050505b505050505050565b600060608201905061410c6000830186612e1f565b818103602083015261411e8185612de6565b905061412d6040830184612e1f565b949350505050565b60008160030b9050919050565b600061414d82614135565b915061415883614135565b92508282039050637fffffff81137fffffffffffffffffffffffffffffffffffffffffffffffffffffffff800000008212171561419857614197613573565b5b92915050565b60006141a982612e2e565b91506141b483612e2e565b92508282026141c281612e2e565b91508082146141d4576141d3613573565b5b5092915050565b60006141e682614135565b91507fffffffffffffffffffffffffffffffffffffffffffffffffffffffff80000000820361421857614217613573565b5b816000039050919050565b600061422e82612c3b565b915061423983612c3b565b925082820261424781612c3b565b9150828204841483151761425e5761425d613573565b5b509291505056fea2646970667358221220627932dea9eb9c0dec339ff248fe55d9372e85ca148493c8034a473654021f6564736f6c634300081c0033",
  "linkReferences": {},
  "deployedLinkReferences": {}
}